:020000040800F2
:1000000020D60020A1500F0871D80A088BD80A0802
:10001000A5D80A08BFD80A08D9D80A0800000000E5
:10002000000000000000000000000000E5330308AD
:10003000F3D80A08000000008933030815D90A081C
:10004000497F0F084D7F0F08517F0F08557F0F081C
:10005000597F0F085D7F0F08617F0F08657F0F08CC
:10006000697F0F086D7F0F08717F0F08757F0F087C
:10007000797F0F0843D90A087D7F0F0847D90A08FE
:1000800037D90A083BD90A08817F0F08857F0F08F6
:10009000897F0F088D7F0F08917F0F085FD90A08AD
:1000A000957F0F08997F0F089D7F0F08A17F0F088C
:1000B000A57F0F08A97F0F08AD7F0F08B17F0F083C
:1000C000B57F0F08B97F0F08BD7F0F08C17F0F08EC
:1000D000C57F0F0827D90A0833D90A08C97F0F0836
:1000E000CD7F0F08D17F0F08D57F0F08D97F0F086C
:1000F000DD7F0F08E17F0F08E57F0F08E97F0F081C
:100100004BD90A08ED7F0F08F17F0F08F57F0F0824
:100110003FD90A08F97F0F08FD7F0F0801800F08FB
:1001200005800F0809800F082BD90A080D800F08D9
:1001300011800F0815800F0819800F081D800F0807
:1001400021800F0825800F0829800F082D800F08B7
:1001500031800F0835800F082FD90A0839800F0821
:1001600057D90A085BD90A083D800F0841800F085B
:1001700045800F0849800F084D800F0800000000DF
:1001800051800F0855800F0859800F085D800F08B7
:1001900061800F0865800F0869800F086D800F0867
:1001A0004FD90A0853D90A0871800F0875800F08C3
:1001B00079800F087D800F0881800F0885800F08E7
:1001C00089800F088D800F080101001A08000000C7
:1001D000B1810F0802130307080000005C340F0808
:1001E000070701060A000000386D0F081013010709
:1001F0001200000070580E080C1701070E000000D6
:10020000ACDF0D081613010718000000F8F90C0800
:10021000111301071100000034FA0C08020701064F
:1002200005000000406D0F08071901060A000000D4
:1002300064FA0E08071902060A00000080FA0E0888
:100240000C0B01060E0000008C1E0F080E0E020B98
:10025000120000009CFA0E080508011708000000B3
:10026000486D0F0807020111090000002E810F08D8
:100270000303021708000000947D0F080918000608
:100280000A000000DCDF0D080C1301070E0000005F
:1002900098580E08081303070E00000070340F086A
:1002A0000B1301070E000000C0580E080B130107C6
:1002B0000E000000E8580E080C1300070E000000A6
:1002C00010590E080B1302070E00000038590E08D3
:1002D0000C1301070E00000060590E080C130107F3
:1002E0000E00000088590E080C1301070E000000D4
:1002F000B0590E080C1301070E000000D8590E0863
:10030000030E030C0900000070470F080513020CD0
:100310000900000084340F080D0E020B12000000CB
:10032000B8FA0E080E07020E1200000080470F08F0
:100330000D0E030B12000000D4FA0E080A13010779
:100340000C000000005A0E081416020717000000E7
:10035000C0A20C080F1300070F000000285A0E0857
:100360000C1302070F000000505A0E080D1301076E
:100370000F000000785A0E080E130207110000004B
:10038000A05A0E080B1302070E000000C85A0E08F0
:100390000B1302070D000000F05A0E080F1301079F
:1003A00011000000185B0E080D1302071100000079
:1003B000405B0E08061301070900000098340F087F
:1003C000081300070A000000AC340F080D130207E1
:1003D0000F000000685B0E080A1302070C00000003
:1003E000905B0E080F13020713000000B85B0E08A5
:1003F0000D13020711000000E05B0E081013010747
:1004000012000000085C0E080C1302070E0000002A
:10041000305C0E0810180107120000000CE00D08F7
:100420000E13020710000000585C0E080C130107A1
:100430000E000000805C0E081013FF070F00000084
:10044000A85C0E080C13020710000000D05C0E0818
:100450000F1300070F000000F85C0E0817130007C9
:100460001700000070FA0C080F1300070F000000BF
:10047000205D0E080E1300070E000000485D0E08F8
:100480000C1301070E000000705D0E08061902062D
:100490000A000000F0FA0E08091801060A00000020
:1004A0003CE00D08061901060A0000000CFB0E08CE
:1004B0000F0A020712000000C0340F080E02001CD1
:1004C0000E000000987D0F08050503050E000000D2
:1004D000506D0F080A0E010C0D00000028FB0E08DD
:1004E0000B1402060E000000985D0E080A0E010CA7
:1004F0000C00000044FB0E080B1401060E00000067
:10050000C05D0E080B0E010C0D00000060FB0E0814
:100510000914000608000000E85D0E080B13010C2A
:100520000E000000105E0E080A1402060E00000005
:10053000385E0E080213020706000000D4340F08CC
:100540000618FF0707000000A41E0F080B14020680
:100550000C000000605E0E08021402060600000097
:10056000E8340F08120E010C15000000A4290E0833
:100570000A0E020C0E0000007CFB0E080C0E010C93
:100580000E00000098FB0E080B13020C0E0000007A
:10059000885E0E080B13010C0E000000B05E0E0802
:1005A000070E020C0900000090470F080A0E010C0C
:1005B0000B000000B4FB0E08081200080800000041
:1005C000FC340F080A0E020C0E000000D0FB0E08CF
:1005D0000C0E000C0C000000ECFB0E08130E000CBF
:1005E00013000000D0290E080C0E000C0C000000B7
:1005F00008FC0E080C13000C0C000000D85E0E085E
:10060000090E010C0B00000024FC0E080A1901065B
:100610000C000000EC750D08021904060A00000029
:1006200040FC0E080A1901060C00000020760D0897
:100630000E06020F12000000F0530F080101001A0D
:1006400008000000B2810F08021303070800000031
:1006500010350F080B1601080E000000FC290E08CB
:100660000B1301070E000000005F0E080C0C010CBC
:100670000E000000BC1E0F080E1300070E00000045
:10068000285F0E08021904060A0000005CFC0E0830
:100690000B1801070E0000006CE00D0807020308AC
:1006A0000E00000030810F0815150107170000002B
:1006B000BCC80C08090C01070C000000D41E0F0870
:1006C0000B0C010C0E000000EC1E0F080E090211AD
:1006D0001200000024350F08070201110900000074
:1006E00032810F081515010717000000FCC80C081F
:1006F0000E0200040E0000009C7D0F08090901078E
:100700000C00000038350F080E0F0209120000001F
:10071000B0E50E08090B02070C000000041F0F08CB
:10072000080B02070C000000FC530F080505050527
:100730000E000000586D0F080A13020C0E00000096
:10074000505F0E080B1701070E0000009CE00D081B
:100750000303030C09000000A07D0F080605041A1E
:100760000E000000606D0F08060B04070C0000006F
:1007700008540F080A0C01070C0000001C1F0F088A
:100780000B0C020C0E000000341F0F08141302079C
:1007900019000000ACFA0C0816130207190000003B
:1007A000E8FA0C08151302071900000024FB0C08D6
:1007B0000A1301070C000000785F0E080F190001F2
:1007C0000F00000054760D080F1900010F00000003
:1007D00088760D080F1900010F000000BC760D0887
:1007E0000F1800020F000000CCE00D080F160004E7
:1007F0000F000000282A0E080F1900010F0000004A
:10080000F0760D08161300071700000060FB0C08B7
:100810000D1801070F000000FCE00D080B19020184
:100820000E00000024770D080B1902010E000000D5
:1008300058770D080B1902010E0000008C770D0887
:100840000B1702030E0000002CE10D080619010130
:100850000900000078FC0E080619010109000000DB
:1008600094FC0E080819000109000000B0FC0E08F5
:1008700006170103090000004C1F0F0810130007A2
:1008800011000000A05F0E080D1802021100000008
:100890005CE10D081019010112000000C0770D087D
:1008A0001019010112000000F4770D081019010160
:1008B0001200000028780D08101801021200000034
:1008C0008CE10D081017010312000000BCE10D08B7
:1008D0000D0D030C12000000CCFC0E0810150106D3
:1008E00012000000542A0E080C190201100000002A
:1008F0005C780D080C1902011000000090780D08BA
:100900000C19020110000000C4780D080C17020336
:1009100010000000ECE10D080E1900010E000000AF
:10092000F8780D080A1302070E000000C85F0E08D1
:100930000B1402060E000000F05F0E080A150105F8
:100940000D000000802A0E080A1501050D000000A8
:10095000AC2A0E080A1501050D000000D82A0E0861
:100960000A1401060D00000018600E080A120108A2
:100970000D00000078BE0E080A1501050D000000EC
:10098000042B0E08140E010C16000000302B0E086C
:100990000A13010C0C00000040600E080B15010545
:1009A0000D0000005C2B0E080B1501050D0000006A
:1009B000882B0E080B1501050D000000B42B0E0846
:1009C0000B1201080D0000009CBE0E080515000565
:1009D00006000000641F0F08051502050600000050
:1009E0007C1F0F080615000506000000941F0F0865
:1009F00006130007060000004C350F080C13010712
:100A00000E00000068600E080A1402060E000000C6
:100A100090600E080C1501050E000000E02B0E087A
:100A20000C1501050E0000000C2C0E080C1501051C
:100A30000E000000382C0E080C1401060E000000F9
:100A4000B8600E080C1201080E000000C0BE0E08AF
:100A50000F0E020B12000000E8FC0E080C10010B38
:100A60000E000000D0E50E080A1502050E00000079
:100A7000642C0E080A1502050E000000902C0E08CA
:100A80000A1502050E000000BC2C0E080A1202080E
:100A90000E000000E4BE0E080C1A00050C00000059
:100AA0002C790D080B1902060E00000060790D0864
:100AB0000C1700080C0000001CE20D080F170003C3
:100AC0000F0000004CE20D080A1301070D000000A2
:100AD000E0600E080F1900010F00000094790D0866
:100AE0000A1401060D00000008610E081018000726
:100AF0000F0000007CE20D080B13010C0D0000003C
:100B000030610E080D1901010F000000C8790D08B1
:100B10000A1501050C000000E82C0E080D19010152
:100B20000F000000FC790D080A1501050C000000FB
:100B3000142D0E080D1701030F000000ACE20D0884
:100B40000A1201080C00000008BF0E080D1901016F
:100B50000F000000307A0D080A1501050C00000096
:100B6000402D0E080E19020111000000647A0D08D4
:100B7000101401061100000058610E081013000740
:100B80001100000080610E080D1401060E00000027
:100B9000A8610E080B1702030E000000DCE20D082E
:100BA0000B1301070D000000D0610E080B190201A4
:100BB0000E000000987A0D080B1401060D000000CD
:100BC000F8610E080B1702030E0000000CE30D087D
:100BD0000B1201080D0000002CBF0E080B180207B5
:100BE0000E0000003CE30D080B13010C0D0000008B
:100BF00020620E080B1902010E000000CC7A0D08CD
:100C00000B1501050D0000006C2D0E080F190101D8
:100C100011000000007B0D080B1A01050E000000FA
:100C2000347B0D080F19010111000000687B0D08CD
:100C30000B1901060E0000009C7B0D080F17010325
:100C4000110000006CE30D080B1701080E000000F6
:100C50009CE30D080F18010711000000CCE30D08FC
:100C60000B1A01050E000000D07B0D080D190201C2
:100C700011000000047C0D080A1902010E0000009A
:100C8000387C0D0812130007120000009CFB0C08B2
:100C90000C1400060E00000048620E08081900013E
:100CA0000900000004FD0E080614000606000000FE
:100CB00060350F080818000209000000AC1F0F087B
:100CC000061300070600000074350F08061901011D
:100CD0000900000020FD0E080614000606000000B2
:100CE00088350F080618010709000000C41F0F0807
:100CF0000418010706000000DC1F0F080617010397
:100D000009000000F41F0F08020E020C060000008C
:100D1000A0470F080F1301071200000070620E08B1
:100D2000091802070D000000FCE30D080919000175
:100D30000A0000006C7C0D08081AFF05070000007F
:100D40003CFD0E080D1802070F0000002CE40D08F2
:100D50000B1902060C000000A07C0D080B0E020C03
:100D60000C00000058FD0E080A1902010C000000DA
:100D7000D47C0D08051902010600000074FD0E0860
:100D80000A1802070C0000005CE40D0805190106B2
:100D90000600000090FD0E080A1402060C00000078
:100DA00098620E0808140206090000009C350F081E
:100DB0000A1302070C000000C0620E0808140206A5
:100DC0000B000000B0350F080D1300070D000000E8
:100DD000E8620E080614000607000000C4350F087C
:100DE0000D19020111000000087D0D080A15020509
:100DF0000E000000982D0E080D18020711000000CB
:100E00008CE40D080A13020C0E00000010630E089B
:100E10000D190201110000003C7D0D080A150205A4
:100E20000E000000C42D0E081014FF061100000073
:100E300038630E080D18020711000000BCE40D080D
:100E40000A13020C0E00000060630E081017010365
:100E500012000000ECE40D080C1301070E00000066
:100E600088630E081019010112000000707D0D0842
:100E70000C1401060E000000B0630E0810190101E9
:100E800012000000A47D0D080C1501050E000000E5
:100E9000F02D0E081613010718000000D8FB0C08EF
:100EA000150E010C170000001C2E0E080E19020171
:100EB00010000000D87D0D0807150205090000008C
:100EC0000C200F080E180207100000001CE50D088A
:100ED0000813010C09000000D8350F080E19020193
:100EE000100000000C7E0D08081502050900000026
:100EF00024200F080C1901010E000000407E0D088F
:100F00000A1501050B000000482E0E080C190101FE
:100F10000E000000747E0D080A1501050B0000008C
:100F2000742E0E080C1801070E0000004CE50D0889
:100F30000A13010C0B000000D8630E080C19010104
:100F40000E000000A87E0D080A1501050B00000028
:100F5000A02E0E081018FF070F0000007CE50D08FA
:100F600008170008080000003C200F081019FF01B6
:100F70000F000000DC7E0D080C1400060C000000C1
:100F800000640E081013FF070F00000028640E080D
:100F90000812000808000000EC350F080C180202C7
:100FA00010000000ACE50D080A1402060E00000057
:100FB00050640E080C17020310000000DCE50D0859
:100FC0000A1302070E00000078640E080C190201D3
:100FD00010000000107F0D080A1402060E00000029
:100FE000A0640E080C19020110000000447F0D08D7
:100FF0000A1502050E000000CC2E0E080D19020184
:1010000010000000787F0D080A1502050E00000090
:10101000F82E0E080C180207100000000CE60D0850
:101020000B13020C0E000000C8640E081719000113
:10103000170000001C290C08131500051300000000
:101040003CC90C080E1900010E000000AC7F0D0811
:101050000C1A00050C000000E07F0D080E170003BD
:101060000E0000003CE60D080C1901010E00000006
:1010700014800D08091501050B000000242F0E082F
:101080000C1701030E0000006CE60D0809120108A0
:101090000B00000050BF0E080C1901010E000000EB
:1010A00048800D08091501050B000000502F0E089F
:1010B000061402060600000000360F080D14000694
:1010C0000E000000F0640E0810130007110000006D
:1010D00018650E080C1302070F00000040650E088B
:1010E0000B1402060E00000068650E080F130007BF
:1010F0000F00000090650E080D1400060E000000A1
:10110000B8650E080D1301070F000000E0650E081A
:10111000111501050F0000007CC90C080E11010912
:101120000C00000074BF0E0810130007110000002F
:1011300008660E08121300071300000014FC0C08C8
:101140000C1301070F00000030660E080B14010697
:101150000E00000058660E080C13010C0E00000073
:1011600080660E080B1301070E000000A8660E082B
:101170001013010712000000D0660E080C130107BF
:101180000D000000F8660E080F18FE070D000000A5
:101190009CE60D080E1500070E0000007C2F0E08BF
:1011A0001315010511000000BCC90C080F18000739
:1011B0000F000000CCE60D08121402061600000015
:1011C00050FC0C08021402060600000014360F083A
:1011D000081300070900000028360F080D13020746
:1011E0000F00000020670E080B1402060C00000020
:1011F00048670E0806140006070000003C360F087A
:101200000C1400060C00000070670E081213020791
:10121000160000008CFC0C081118FE0711000000DD
:1012200080610C080A13020C0E00000098670E087B
:101230001013010712000000C0670E081213010707
:1012400013000000C8FC0C080D1101090E0000007D
:1012500098BF0E081518010717000000C8610C0898
:101260000E13010C11000000E8670E0810130007B0
:101270001000000010680E080B1902060E00000096
:101280007C800D080D1502070E000000A82F0E0827
:101290000C1301070E00000038680E080A0E000C3F
:1012A0000B000000ACFD0E080D1301070E0000003E
:1012B00060680E080D1900060E000000B0800D08D1
:1012C000081700080800000054200F080F1300073B
:1012D0000F00000088680E080814000608000000CF
:1012E00050360F080E1800070F000000FCE60D082E
:1012F000111602041200000004A30C080E110209CA
:101300000F000000BCBF0E081113010712000000FF
:1013100004FD0C080C13020710000000B0680E0852
:10132000111300071100000040FD0C081118000700
:101330000C00000010620C080C1301070E000000E6
:10134000D8680E08090E010C0B000000C8FD0E083D
:101350000C1800070D0000002CE70D080C18010701
:101360000D0000005CE70D080A13010C0B000000E3
:1013700000690E080913010C0B00000028690E0813
:101380000B1301070E00000050690E080C13010733
:101390000E00000078690E080A0E000C0B00000019
:1013A000E4FD0E080B1200080C000000E0BF0E0860
:1013B0000B13020C0E000000A0690E0802190406AF
:1013C0000A00000000FE0E08061902060A000000CE
:1013D0001CFE0E080E19020612000000E4800D0823
:1013E000021303070800000064360F081C190201ED
:1013F0001F000000305E0B08191502051C000000DC
:1014000054F60B081715010519000000FCC90C085B
:1014100014130207180000007CFD0C0811180207C5
:101420001500000058620C08081902060C000000A4
:1014300038FE0E08171302071B000000B8FD0C0849
:101440001318020717000000A0620C081118020709
:1014500015000000E8620C080F1900010F000000E1
:1014600018810D080A1501050D000000D42F0E0883
:10147000081900010900000054FE0E080815FF05B8
:10148000060000006C200F08101901011200000076
:101490004C810D080C1501050E00000000300E08EF
:1014A0000C1902011000000080810D080A150205C8
:1014B0000E0000002C300E080C1902011000000074
:1014C000B4810D080A1602040E00000058300E0800
:1014D0000C19020110000000E8810D080A16020430
:1014E0000E00000084300E080C19020110000000EC
:1014F0001C820D080A1802020E0000008CE70D087D
:101500000C1902011000000050820D080A16020496
:101510000E000000B0300E080B0E010C0D00000094
:1015200070FE0E080F1900010F00000084820D08E4
:101530000A1601040D000000DC300E080F1900012E
:101540000F000000B8820D080A1601040D0000000B
:1015500008310E08161700031700000030630C084E
:101560001413010716000000F4FD0C081013010706
:1015700011000000C8690E080C13010C0E000000D9
:10158000F0690E080F19010111000000EC820D082E
:101590000B1A01050E00000020830D080D19020131
:1015A0000F00000054830D080B1902010C0000000D
:1015B00088830D081018010712000000BCE70D0811
:1015C0000C13010C0E000000186A0E08101C010319
:1015D0001200000008430D080C1801070E0000005F
:1015E000ECE70D080C1E00010D00000030FE0C0899
:1015F0000A1A00050B000000BC830D08081AFF053D
:10160000070000008CFE0E081C1302071F000000DC
:1016100068290C08191302071C000000B4290C08E3
:1016200017140106190000006CFE0C080F190101C7
:1016300011000000F0830D080B1A01050E000000D8
:1016400024840D081513020719000000A8FE0C08D9
:101650000B1802070E0000001CE80D080D1902010E
:101660001100000058840D080A1502050E00000044
:1016700034310E080F1900010F0000008C840D0892
:101680000A1701030D0000004CE80D0816190001AF
:1016900017000000002A0C081415010516000000B0
:1016A0003CCA0C08101A010112000000C0840D0889
:1016B0000C1601050E00000060310E080F19000124
:1016C0000F000000F4840D080B1500050D0000004C
:1016D0008C310E080F1900010F00000028850D083D
:1016E0000A1401060D000000406A0E080B190201E1
:1016F0000E0000005C850D080B1501050D000000B3
:10170000B8310E080B1902010E00000090850D087B
:101710000B1401060D000000686A0E080A19FE018C
:1017200009000000C4850D080A15FD05060000002B
:10173000E4310E080819000109000000A8FE0E0897
:101740000814FF060600000078360F081019010182
:1017500012000000F8850D080C1501050E000000B0
:1017600010320E0810190101120000002C860D081D
:101770000C1401060E000000906A0E080F190101FA
:101780001000000060860D080A1500050900000021
:101790003C320E080E1902011000000094860D085C
:1017A00008140206090000008C360F080C1902010B
:1017B00010000000C8860D080B1501050E00000082
:1017C00068320E080C19020110000000FC860D089A
:1017D0000A1402060E000000B86A0E080C18010771
:1017E0000E0000007CE80D080A13010C0B0000003D
:1017F000E06A0E081018FF070F000000ACE80D08A3
:10180000081700080800000084200F080B180107C3
:101810000D000000DCE80D080A13000C0B000000AE
:10182000086B0E080D1902011100000030870D0829
:101830000A1902010E00000064870D080D18020746
:10184000100000000CE90D08121901061300000039
:101850004C2A0C080D1301070F000000306B0E0816
:101860000B1301070D000000586B0E080D16010741
:101870000E00000094320E080A11010C0B0000004B
:1018800004C00E080F1700030F0000003CE90D080C
:101890000A1201080D00000028C00E080B180207EC
:1018A0000E0000006CE90D080B13010C0D00000088
:1018B000806B0E08101901011200000098870D08B6
:1018C0000C1601040E000000C0320E0810190101B0
:1018D00012000000CC870D080C1701030E00000059
:1018E0009CE90D081017010312000000CCE90D0857
:1018F0000C1201080E0000004CC00E081019010166
:101900001200000000880D080C1601040E000000F3
:10191000EC320E080E1700030E000000FCE90D0863
:101920000C1800070C0000002CEA0D080A1901062B
:101930000B00000034880D081113020C1300000086
:10194000E4FE0C080B1200080B00000070C00E082B
:101950000613FF0C07000000A0360F081414010640
:101960001600000020FF0C081413010C16000000E4
:101970005CFF0C08101600060F00000018330E085C
:10198000101601060F00000044330E080C13010965
:101990000C000000A86B0E080D13FF070C000000E0
:1019A000D06B0E081116FF060F00000048A30C08AC
:1019B0000A13010C0B000000F86B0E080913010C50
:1019C0000B000000206C0E080D1400060E00000035
:1019D000486C0E080B1200070C00000094C00E08A3
:1019E0000D1301070F000000706C0E080E130107A5
:1019F00010000000986C0E080F1300070F00000085
:101A0000C06C0E080B1802050E0000005CEA0D0801
:101A10000B1801070D0000008CEA0D0809130007E0
:101A20000A000000E86C0E080718FF070700000016
:101A30009C200F08131801071200000078630C089F
:101A40000F13010C0E000000106D0E080F1301079C
:101A500010000000386D0E08080E010C090000008F
:101A6000B0470F080E1300070E000000606D0E084F
:101A70000C13000C0C000000886D0E080A0E020CFE
:101A80000D000000C4FE0E080B0E010C0E0000003D
:101A9000E0FE0E080B0E020C0E000000FCFE0E080D
:101AA0000B1402060E000000B06D0E080A0E010CA9
:101AB0000C00000018FF0E080B0E000C0C000000BC
:101AC00034FF0E08101901060E00000068880D088A
:101AD000101401060E000000D86D0E080B0E010C4C
:101AE0000D00000050FF0E080B0E010C0D00000051
:101AF0006CFF0E08110E010C1200000070330E086E
:101B00000A0E010C0B00000088FF0E080A0E000CE4
:101B10000B000000A4FF0E08100E000C10000000C7
:101B2000C0FF0E080B0E010C0D000000DCFF0E08BC
:101B30000913FF0C08000000006E0E0810190106C2
:101B40000E0000009C880D080B13010C0E00000015
:101B5000286E0E080B0E010C0D000000F8FF0E0899
:101B60000C13000C0C000000506E0E080F0E000C41
:101B70000F00000014000F080A13020C0E000000F2
:101B8000786E0E080A1402060E000000A06E0E0801
:101B90000A1902060E000000D0880D08061300077F
:101BA00006000000B4360F08020E020C060000000A
:101BB000C0470F08060E010C09000000D0470F08AF
:101BC0000A1400060A000000C86E0E08071400067A
:101BD00007000000C8360F080619020606000000BC
:101BE00030000F080B1902060E00000004890D08D2
:101BF000120E010C150000009C330E081213010C8C
:101C00001500000098FF0C081213010C15000000CD
:101C1000D4FF0C080F13FD0C0E000000F06E0E0830
:101C20000E13020C0E000000186F0E080A0E020CB4
:101C30000E0000004C000F080C0E010C0E000000FE
:101C400068000F08110E010C14000000C8330E08C4
:101C5000100E010C1200000084000F080C19010680
:101C60000E00000038890D08070E000C0900000066
:101C7000E0470F080714000609000000DC360F08D3
:101C80000C13000C09000000406F0E080713020C33
:101C900009000000F0360F080713020C09000000CD
:101CA00004370F08070E020C09000000F0470F0868
:101CB0000713000C0900000018370F080B0E020C68
:101CC0000D000000A0000F080B0E020C0D0000001C
:101CD000BC000F080A13010C0B000000686F0E080F
:101CE0000C1901060E0000006C890D080C19FF0686
:101CF00008000000A0890D080C13010C0E00000064
:101D0000906F0E080D1900060E000000D4890D0812
:101D100008120008080000002C370F0808170008F8
:101D200008000000B4200F080E0E000C0E0000008A
:101D3000D8000F080C0E020C10000000F4000F0871
:101D40000A0E020C0E00000010010F080C0E000C11
:101D50000C0000002C010F08130E000C13000000F3
:101D6000F4330E080C1300070C000000B86F0E08C7
:101D70000B0E000C0B00000048010F080E13010CA5
:101D80000B000000E06F0E080D10010C0E000000AB
:101D9000F0E50E080A13000C0B00000008700E0896
:101DA0000B13000C0B00000030700E080B14000623
:101DB0000C00000058700E080B1401060C00000007
:101DC00080700E080B1400060C000000A8700E08AE
:101DD0000B13010C0C000000D0700E08101301074B
:101DE00012000000F8700E080A0E020C0D00000030
:101DF00064010F080B0E010C0D00000080010F089C
:101E00000F1101090D000000B8C00E080A0E020CE7
:101E10000E0000009C010F080A1800070A000000CD
:101E2000BCEA0D080B13FF0C0C00000020710E081B
:101E3000080E020C0A00000000480F0810190106E5
:101E40000E000000088A0D080B1400060C000000AC
:101E500048710E080B1401060C00000070710E088A
:101E6000141401061600000010000D0814190106D4
:101E700016000000982A0C08181601061900000028
:101E80008CA30C08111200081100000040430D083B
:101E90000F1900060E0000003C8A0D081112000800
:101EA0001200000078430D0812190006140000000B
:101EB000E42A0C080E1402061000000098710E08A7
:101EC0000B1402060E000000C0710E080B13010770
:101ED0000C000000E8710E080A1202080E00000053
:101EE000DCC00E080F13000C1100000010720E0869
:101EF0001313000C130000004C000D08080D01081E
:101F00000A00000010480F08080D01080A00000030
:101F100020480F08051000080600000030480F0890
:101F20000509010C0600000014540F080509000CF7
:101F30000600000020540F08080C000C06000000EA
:101F40002C540F080809010C0900000038540F0830
:101F50000C09000C0C00000040370F08090C000CA5
:101F600009000000CC200F08050802070700000048
:101F7000686D0F080A0801070C00000040480F08B0
:101F80000507FF0605000000706D0F080507010634
:101F900005000000786D0F080507FF06050000002A
:101FA000806D0F08040705050E000000886D0F08FE
:101FB000040705050E000000906D0F08070D0108CD
:101FC0000900000050480F08070D01080900000033
:101FD00060480F080D0E020B12000000B8010F0838
:101FE0000D0E030B12000000D4010F080E0D020CA1
:101FF00012000000F0010F080E0D020C120000008C
:102000000C020F08080503050E000000986D0F086C
:10201000080503050E000000A06D0F080205060567
:102020000E000000A86D0F08090202070E00000054
:10203000A47D0F08050505050E000000B06D0F0812
:10204000050503050E000000B86D0F080204061B0D
:102050000E000000A87D0F080902021D0E000000FE
:10206000AC7D0F080505031A0E000000C06D0F08B7
:102070000505061A0E000000C86D0F08030E030CBC
:102080000900000070480F08030303110900000055
:10209000B07D0F080407050F0E000000D06D0F087B
:1020A0000407050F0E000000D86D0F080604011488
:1020B00008000000B47D0F080604011408000000A9
:1020C000B87D0F080604011408000000BC7D0F084D
:1020D000090202140E000000C07D0F080805030667
:1020E0000E000000E06D0F08020206080E0000005E
:1020F00034810F08070703050E000000E86D0F0884
:102100000405041A0E000000F06D0F080A04020610
:102110000E000000F86D0F080A0503050E00000010
:1021200044540F080705001108000000006E0F0856
:10213000080801070A000000086E0F08080C000CD0
:102140000800000050540F08020D010804000000B0
:1021500080480F080709010C090000005C540F08B3
:102160000709000C0800000068540F08070D01085B
:102170000900000090480F08061202080A0000003B
:1021800054370F08061202080A00000068370F08CB
:10219000061202080A0000007C370F080612020827
:1021A0000A00000090370F08061202080A0000001B
:1021B000A4370F08060B010F0800000074540F0825
:1021C000060B010F0800000080540F080805031AD1
:1021D0000E000000106E0F08070303070E0000003A
:1021E000C47D0F080A0701060A000000A0480F0876
:1021F0000503041B0E000000C87D0F080503041B27
:102200000E000000CC7D0F080305051A0E0000002B
:10221000186E0F080305051A0E000000206E0F0847
:102220000404051B0E000000D07D0F0805050311F6
:102230000E000000286E0F080A0501110E000000B4
:102240008C540F080A0503110E00000098540F0863
:102250000A04021B0E000000306E0F08030D030776
:1022600009000000B0480F08050504070E00000033
:10227000386E0F08050505070E000000406E0F08B8
:10228000050504150E000000486E0F08050505152C
:102290000E000000506E0F080905021A0E00000023
:1022A000A4540F080905021A0E000000B0540F08CC
:1022B0000607011808000000586E0F080505F7050D
:1022C00000000000606E0F080505F8050000000022
:1022D000686E0F080805FC0500000000706E0F080E
:1022E0000A04F40100000000786E0F080902FB07E1
:1022F00000000000D47D0F080E02F9040000000069
:10230000D87D0F080805FC0600000000806E0F084D
:102310000202FF080000000036810F080802FC08D6
:102320000000000038810F080405050500000000CA
:10233000886E0F080707FC0500000000906E0F086C
:102340000A05FB0500000000BC540F080805FC0549
:1023500000000000986E0F080205FF050000000055
:10236000A06E0F080505FE0500000000A86E0F080E
:102370000A05FB0500000000C8540F080807FC040C
:1023800000000000B06E0F080805FC060000000009
:10239000B86E0F080205FF0600000000C06E0F08AF
:1023A0000205FF0600000000C86E0F080205FF06C8
:1023B00000000000D06E0F080205010600000000BA
:1023C000D86E0F080505FD1A00000000E06E0F082A
:1023D0000505FD1A00000000E86E0F080504FE1B4D
:1023E00000000000DC7D0F080504FE1B000000005B
:1023F000E07D0F080906FB0400000000D4540F081C
:102400000406000300000000F06E0F080204FF1B2A
:1024100000000000E47D0F080604FD1B0000000022
:10242000E87D0F080604FD1B00000000EC7D0F088E
:102430000604FD1B00000000F07D0F080902FB1DD3
:1024400000000000F47D0F080607FC1800000000E3
:10245000F86E0F080607001800000000006F0F0854
:102460000202061C000000003A810F080802FC1D51
:10247000000000003C810F080404FE1B0000000067
:10248000F87D0F080204FF1B00000000FC7D0F0810
:102490000605FD1A00000000086F0F080405FE1A6B
:1024A00000000000106F0F080204FF1B0000000076
:1024B000007E0F080904FB1B00000000186F0F08C6
:1024C0000903FC1C00000000206F0F080804FC1B1F
:1024D00000000000047E0F080804FC1B0000000040
:1024E000087E0F080804FC1B000000000C7E0F088B
:1024F0000804FC1B00000000107E0F080A04FB1BF0
:1025000000000000286F0F080902FB1D00000000FA
:10251000147E0F080E02F91C00000000187E0F0840
:102520000A04FB1B00000000306F0F080A04FB0EBA
:1025300000000000386F0F080902FB1000000000C7
:102540001C7E0F080E02F91000000000207E0F080C
:102550000A09FB0D00000000B8370F080918FB0638
:1025600000000000ECEA0D080204FF1B0000000060
:10257000247E0F080904FB1B00000000406F0F08B9
:102580000404FE1B00000000287E0F080903FC1C49
:1025900000000000486F0F080606FD030000000061
:1025A000506F0F080206FF0400000000586F0F086C
:1025B0000E05F90100000000E0540F080A04FB06B4
:1025C00000000000606F0F080205FF060000000019
:1025D000686F0F080905FC0500000000EC540F08A7
:1025E0000304FE1B000000002C7E0F080904FB05FD
:1025F00000000000706F0F080E04F91B00000000BF
:10260000786F0F080504FE1B00000000307E0F08E5
:102610000504FE1B00000000347E0F080A06FB05BF
:1026200000000000F8540F080A08FB030000000037
:10263000C0480F080A06FB040000000004550F08FC
:102640000604FD1B00000000387E0F080604FD1B79
:10265000000000003C7E0F081211F7090000000086
:10266000708A0D080305FD0500000000806F0F084B
:102670000407FE0500000000886F0F080807FC042F
:1026800000000000906F0F080505FD1A0000000013
:10269000986F0F080305FF1A00000000A06F0F08D5
:1026A0000305FE1A00000000A86F0F080805FD1AB8
:1026B00000000000B06F0F080407FE0500000000D6
:1026C000B86F0F0802020608000000003E810F08E4
:1026D0000504FE1B00000000407E0F080704FD1BE0
:1026E00000000000447E0F080405FE060000000004
:1026F000C06F0F081305F61A00000000D0480F083D
:102700001305FE0600000000E0480F081302FE0655
:1027100000000000C86F0F081302FE1D000000003B
:10272000D06F0F081304FE060000000010550F08BC
:102730001305FE0600000000F0480F080E04FE1B03
:1027400000000000D86F0F080507FD04000000001E
:10275000E06F0F080607FD0400000000E86F0F0897
:102760000109FF02000000001C550F080607FD04C8
:1027700000000000F06F0F080507FD0400000000D6
:10278000F86F0F080507FD040000000000700F0837
:10279000060AFD010000000028550F08050AFD018A
:1027A0000000000034550F080907FB04000000007A
:1027B00000490F080307FE040000000008700F081E
:1027C0000409FE020000000040550F080507FD0443
:1027D0000000000010700F080507FD040000000055
:1027E00018700F08040505050E00000020700F0882
:1027F0000404051B0E000000487E0F080304051B9F
:102800000E0000004C7E0F080A0E010C0C000000A8
:1028100028020F080A0E010C0C00000044020F08E9
:102820000A0E010C0C00000060020F080513020CD8
:1028300009000000CC370F08030505050E00000055
:1028400028700F08090502050E0000004C550F08FE
:102850000F1300070F00000038720E080303030C6B
:1028600009000000507E0F0810130007110000003F
:1028700060720E08121300071400000088000D0893
:102880000A1300070C00000088720E0813130007DB
:1028900014000000C4000D0812130007120000000D
:1028A00000010D0814130007140000003C010D087E
:1028B0000815FF0506000000E4200F080F130007AD
:1028C0000F000000B0720E080C1302070F0000008A
:1028D000D8720E080B1302070D00000000730E08DB
:1028E0000F1300070F00000028730E080B130207D8
:1028F0000E00000050730E080C1301070E000000BC
:1029000078730E080D13020711000000A0730E0863
:102910001013010712000000C8730E080613010708
:1029200009000000E0370F080D1302070F00000038
:10293000F0730E080F1300070F00000018740E0844
:102940000F1302071300000040740E080D13020756
:102950001100000068740E080C1301070E0000003F
:1029600090740E081013010712000000B8740E08CE
:102970000D13020711000000E0740E080C1302078B
:102980000E00000008750E080D1301070E00000070
:1029900030750E081013FF070F00000058750E0861
:1029A0000E1300070E00000080750E0810130107BB
:1029B00013000000A8750E080F1300070F00000099
:1029C000D0750E081013020714000000F8750E08E9
:1029D000111301071200000078010D08061701030A
:1029E00009000000FC200F080E1700030E00000075
:1029F0001CEB0D080B1501050E00000020340E081D
:102A00000A1501050B0000004C340E080A1A0205D5
:102A10000E000000A48A0D08031502050600000040
:102A200014210F080A1502050E00000078340E0864
:102A30000B0E010C0E0000007C020F080B190206A1
:102A40000E000000D88A0D080C13000C0C000000CA
:102A500020760E080C1401060E00000048760E08C1
:102A60000A0E010C0B00000098020F080A1901065B
:102A70000A0000000C8B0D080A13020C0E00000067
:102A800070760E080C1401060E00000098760E08F1
:102A9000020E020C0600000010490F080A0E020C7C
:102AA0000C000000B4020F080C1400060C0000001B
:102AB000C0760E080A13020C0E000000E8760E081D
:102AC0000C0E000C0C000000D0020F080B190106C0
:102AD0000B000000408B0D080C0E010C0E000000D6
:102AE000EC020F080A0E020C0E00000008030F088B
:102AF0000B13020C0E00000010770E080A13010CD5
:102B00000B00000038770E080E0E010C0F000000BD
:102B100024030F080C0E000C0C00000040030F08EB
:102B20000A0E020C0E0000005C030F081013010CCB
:102B30001200000060770E080C13000C0C0000005F
:102B400088770E080E13020C12000000B0770E08F2
:102B5000100E010C1200000078030F080613000786
:102B600006000000F4370F080A1202080E000000E9
:102B700000C10E080C1501050E000000A4340E085B
:102B80000A1502050E000000D0340E0810150105CC
:102B900012000000FC340E080B1402060E000000A8
:102BA000D8770E080C1402060E00000000780E08FC
:102BB0001213000711000000B4010D0816150005DE
:102BC000150000007CCA0C08121700031100000059
:102BD000C0630C080C1901060E000000748B0D0870
:102BE000100E010C1200000094030F080E13000CCD
:102BF0000E00000028780E081018010712000000CF
:102C00004CEB0D080C13010C0E00000050780E0860
:102C10000D1801070F0000007CEB0D080B13010CD1
:102C20000C00000078780E080B1302070D0000005E
:102C3000A0780E080813020C0B00000008380F08DB
:102C40000F13010710000000C8780E080B140106CE
:102C50000D000000F0780E081218000713000000A5
:102C600008640C080D1900060E000000A88B0D0862
:102C7000121802071600000050640C081213010C11
:102C800015000000F0010D080D13010710000000F1
:102C900018790E080A1402060E00000040790E088A
:102CA0000D18020710000000ACEB0D080D0E000C13
:102CB0000D000000B0030F080C1301070E00000008
:102CC00068790E080C1401060E00000090790E08B9
:102CD0000F1300070F000000B8790E080F0E000C4C
:102CE0000F000000CC030F081013010712000000B2
:102CF000E0790E080C0E010C0E000000E8030F082E
:102D00000C1300070C000000087A0E080A140006D5
:102D10000A000000307A0E080E0E000C0E000000B3
:102D200004040F080C13010C0E000000587A0E0862
:102D30000A0E010C0C00000020040F080618FF0703
:102D4000070000002C210F081013010712000000DB
:102D5000807A0E080B0E010C0C0000003C040F08DA
:102D60000B0E000C0C00000058040F080A13020799
:102D70000E000000A87A0E080B1902060E000000D3
:102D8000DC8B0D080E13FF0C0E000000D07A0E082D
:102D90000D1301070F000000F87A0E080D1301074C
:102DA0000F000000207B0E080D1301070F0000002C
:102DB000487B0E080B1902010E000000108C0D0854
:102DC0000B1702030E000000DCEB0D0811130007C7
:102DD000120000002C020D080B1902010D0000006A
:102DE000448C0D080D1301070F000000707B0E08C6
:102DF0000C1301070E000000987B0E080613010754
:102E0000090000001C380F08061701030900000024
:102E100044210F08081300070A00000030380F088B
:102E20001913000719000000302B0C0817130207B4
:102E30001900000068020D081113000712000000BD
:102E4000A4020D080D1902010F000000788C0D0876
:102E50000D19020111000000AC8C0D080E180002C3
:102E60000E0000000CEC0D080D1702071100000009
:102E70003CEC0D080F1300070F000000C07B0E088C
:102E80000C1302070F000000E87B0E080C1302076A
:102E90000F000000107C0E080B1302070D0000004D
:102EA000387C0E0810170007110000006CEC0D08AC
:102EB0000B1302070E000000607C0E0816130007BB
:102EC00016000000E0020D080C1300070D000000C2
:102ED000887C0E080D13020711000000B07C0E085C
:102EE0000D180202110000009CEC0D080D130207E2
:102EF0000F000000D87C0E080F130007110000001F
:102F0000007D0E080F13020713000000287D0E0835
:102F10000D13020711000000507D0E081013010769
:102F200012000000787D0E080D130207110000004A
:102F3000A07D0E080C1302070E000000C87D0E08CD
:102F40000D1301070F000000F07D0E081013FF079E
:102F50000F000000187E0E080E1300070E00000080
:102F6000407E0E081013010713000000687E0E0853
:102F70000F1300070F000000907E0E080E170207C7
:102F800011000000CCEC0D080D130107100000002B
:102F9000B87E0E0814130207180000001C030D0869
:102FA000161702071800000098640C081113000798
:102FB0001100000058030D08101302071400000050
:102FC000E07E0E080D1302070F000000087F0E08B8
:102FD0000D1301070F000000307F0E0815130207C4
:102FE0001800000094030D080D1300070F000000E7
:102FF000587F0E080A0E010C0D00000074040F0823
:103000000C1401060E000000807F0E080A0E020C50
:103010000D00000090040F08080E020C0A000000CA
:1030200020490F080D11000C0E00000024C10E08ED
:103030000B0E010C0D000000AC040F08120E000C6A
:103040001200000028350E080A0E000C0B000000CC
:10305000C8040F080A0E020C0E000000E4040F085A
:103060000A1402060E000000A87F0E080A0E020CC9
:103070000C00000000050F080C0E000C0E000000F4
:103080001C050F080C0E020C1000000038050F087C
:103090000A0E020C0E00000054050F080C0E010C65
:1030A0000E00000070050F080A0E020C0E00000052
:1030B0008C050F080B13020C0E000000D07F0E08C9
:1030C0000A0E010C0C000000A8050F080C0E000CE5
:1030D0000C000000C4050F080C13000C0C000000CD
:1030E000F87F0E0812190006130000007C2B0C0854
:1030F0000C0E000C0C000000E0050F080B11020C78
:103100000E00000048C10E080B0E010C0E0000005E
:10311000FC050F08100E010C1300000018060F0824
:103120001111020C14000000E08C0D080D0E000CB3
:103130000E00000034060F080D0E020C11000000F6
:1031400050060F080A0E020C0D0000006C060F0856
:103150000A0E010C0C00000088060F08100E020C6D
:1031600013000000A4060F080B0E000C0D00000059
:10317000C0060F080B1501050D00000054350E08A0
:103180000B1201080D0000006CC10E080C1900069E
:103190000E000000148D0D08081502050A0000003D
:1031A0005C210F080A0E010C0C000000DC060F0861
:1031B0000A0E010C0B000000F8060F0802130207AC
:1031C0000600000044380F08061300070600000040
:1031D00058380F080618FF070700000074210F0871
:1031E000140E000C1500000080350E08120E020CA3
:1031F00015000000AC350E080C1400060E0000008F
:1032000020800E080A1502050C000000D8350E08B3
:103210000A1502050E00000004360E080C190006FF
:103220000C000000488D0D080A11020C0E00000071
:1032300090C10E081B1301071D000000C82B0C08CD
:10324000120E000C1200000030360E08101300079A
:103250001100000048800E080D1400060E0000004A
:1032600070800E081213020715000000D0030D082D
:103270000E0E020C1100000014070F080F130007B8
:103280000F00000098800E080C0E000C0C000000CF
:1032900030070F0812130207140000000C040D0879
:1032A0000F0E020C110000004C070F08141300074A
:1032B0001400000048040D080F0E000C0F00000061
:1032C00068070F08171302071900000084040D088F
:1032D000130E020C150000005C360E080B1E0101D7
:1032E0000D000000C0040D080A1A00050B000000C4
:1032F0007C8D0D081013020714000000C0800E081A
:103300000E13020C12000000E8800E0810130107D3
:103310001200000010810E080C0E010C0E000000BF
:1033200084070F081313000712000000FC040D08A7
:10333000100E000C0F000000A0070F081319000169
:1033400012000000142C0C08101500050F000000DE
:1033500088360E081C1801071D000000C08E0B08DF
:103360001813010C1900000038050D08131501068B
:1033700015000000BCCA0C080F10010B1100000062
:1033800010E60E081519010117000000602C0C084A
:103390001117010313000000E0640C081B17010360
:1033A0001D00000000CD0B081212000812000000E2
:1033B000B0430D080D1801070F000000FCEC0D08CC
:1033C0000A13010C0C00000038810E080C130007D2
:1033D0000C00000060810E080805030600000000D4
:1033E00030700F08090302070000000038700F0852
:1033F000020506060000000040700F0802050606E0
:103400000000000048700F080A04030610000000C6
:1034100050700F081816F40800000000D0A30C0824
:103420001818F4070000000028650C080F1C0202A1
:1034300011000000E8430D080C1702060E00000002
:103440002CED0D080F1300070F00000088810E08F7
:103450000C1400060D000000B0810E080D130207C9
:103460000E000000D8810E080C13020C0E000000A4
:1034700000820E080B1802020D0000005CED0D0822
:10348000081302070A0000006C380F080C1301072C
:103490000D00000028820E08090E010C0A00000031
:1034A000BC070F080B1802070E0000008CED0D087A
:1034B0000A13020C0D00000050820E0816170007B8
:1034C0001700000070650C081211000C13000000BA
:1034D000B08D0D080C1800070D000000BCED0D08A4
:1034E0000A13000C0B00000078820E080E1702076A
:1034F00010000000ECED0D080A11020C0D00000098
:10350000B4C10E080D1302070F000000A0820E08C0
:103510000A0E020C0C000000D8070F080F1300075A
:103520000F000000C8820E080C1400060C000000FA
:10353000F0820E08121300071200000074050D0837
:103540000E0E000C0E000000F4070F080F17020704
:10355000110000001CEE0D080B11020C0E00000003
:10356000D8C10E081213020714000000B0050D08A0
:103570000E0E020C1000000010080F0816180207AB
:1035800019000000B8650C081213020C15000000A9
:10359000EC050D08111401071200000028060D08A3
:1035A0000D0F010C0E00000030E60E080D1801078B
:1035B0000F0000004CEE0D080A13010C0C00000077
:1035C00018830E081017FF070F0000007CEE0D088F
:1035D0000C11000C0C000000FCC10E080E130007BB
:1035E0000E00000040830E080C13000C0C000000BD
:1035F00068830E080E1300070E00000090830E086B
:103600000C13000C0C000000B8830E080F17000705
:103610000F000000ACEE0D080C11000C0D000000B6
:1036200020C20E08131700071400000000660C08E3
:103630000F11000C1000000044C20E080F17010704
:1036400010000000DCEE0D080C11010C0E00000053
:1036500068C20E080D13010710000000E0830E0879
:103660000B0E010C0E0000002C080F080C130207B3
:103670001000000008840E080A1402060E00000064
:1036800030840E08141300071500000064060D08AE
:103690000F0E000C1000000048080F081417000758
:1036A0001500000048660C080F11000C1000000007
:1036B0008CC20E08061301070900000080380F08AD
:1036C0001619000116000000AC2C0C08121400069C
:1036D00012000000A0060D080C1802070F000000E1
:1036E0000CEF0D080913020C0C00000058840E08A2
:1036F000111700071100000090660C080E11000C55
:103700000E000000B0C20E080D18020711000000E4
:103710003CEF0D080A13020C0E00000080840E0816
:103720000F170207110000006CEF0D080C11020CBE
:103730000E000000D4C20E080D1701071000000093
:103740009CEF0D080B11010C0E000000F8C20E08D2
:103750001117020713000000D8660C080E11020CA6
:10376000100000001CC30E08021402060600000030
:1037700094380F080F1900010F000000E48D0D08A8
:103780000A1401060D000000A8840E080F1600049C
:103790000F000000B4360E080A1201080D000000E8
:1037A00040C30E081613000717000000DC060D08C2
:1037B000140E010C16000000E0360E080B19020171
:1037C0000E000000188E0D080B1401060D000000FD
:1037D000D0840E081013010712000000F8840E08B0
:1037E0000B0E010C0D00000064080F0810160104F8
:1037F000120000000C370E080B1201080D0000002B
:1038000064C30E08161600041600000014A40C0869
:10381000121200081200000020440D080C160004CB
:103820000D00000038370E080A1200080B000000D7
:1038300088C30E080C1300070D00000020850E0839
:103840000A13000C0B00000048850E080D17020338
:1038500011000000CCEF0D080A1302070E00000053
:1038600070850E080D1602041100000064370E0862
:103870000A1202080E000000ACC30E081017010364
:1038800012000000FCEF0D080C1201080E000000F1
:10389000D0C30E08101301071200000098850E080F
:1038A0000C0E010C0E00000080080F081017010319
:1038B000120000002CF00D080C1201080E00000090
:1038C000F4C30E080D1601040F00000090370E0817
:1038D0000A1201080C00000018C40E080E1700039D
:1038E0000E0000005CF00D080C1800070C00000032
:1038F0008CF00D080E1600040E000000BC370E08F8
:103900000C1700080C000000BCF00D080E19000197
:103910000E0000004C8E0D080C1A00050C00000073
:10392000808E0D080D16010410000000E8370E0807
:103930000B1201080E0000003CC40E080B17020712
:103940000D000000ECF00D080812020C0A00000047
:10395000A8380F08101602041400000014380E08CE
:103960000D1202081100000060C40E080D180007B7
:103970000D0000001CF10D080A13000C0A000000E5
:10398000C0850E08101800070F0000004CF10D084C
:103990000C13000C0C000000E8850E080F13000744
:1039A0000F00000010860E080C0E000C0C0000002A
:1039B0009C080F080D1300070F00000038860E0842
:1039C0000B1401060E00000060860E081513000798
:1039D0001700000018070D08131401061600000058
:1039E00054070D08141301071700000090070D0875
:1039F000120E010C1500000040380E080E170107CA
:103A00000F0000007CF10D080B11010C0D000000EF
:103A100084C40E081713000719000000CC070D0816
:103A2000140E000C160000006C380E081513020767
:103A30001900000008080D08120E020C1600000004
:103A400098380E080F1301071100000088860E0831
:103A50000B0E010C0D000000B8080F081113000731
:103A60001300000044080D080F0E000C11000000A8
:103A7000D4080F080C1301070D000000B0860E08D3
:103A80000A0E010C0B000000F0080F080F180007C9
:103A900011000000ACF10D080C13000C0E0000002A
:103AA000D8860E081018010712000000DCF10D087E
:103AB0000B13010C0E00000000870E0817130007FF
:103AC0001700000080080D08130E000C1300000002
:103AD000C4380E08101302071200000028870E08D1
:103AE0000D1302071000000050870E081013000786
:103AF0001000000078870E08111300071100000065
:103B0000BC080D080D13020710000000A0870E0866
:103B10000D1301070F000000C8870E080C130207E1
:103B20000F000000F0870E080D13020710000000C0
:103B300018880E081213020714000000F8080D0878
:103B40000F1301071000000040880E080C13020735
:103B50000F00000068880E080A1302070C0000001E
:103B600090880E08121302071600000034090D0891
:103B70001013000710000000B8880E080C1302078D
:103B800010000000E0880E080B1301070D00000074
:103B900008890E080E1300070F00000030890E0878
:103BA000111300071100000070090D080D13020722
:103BB0001100000058890E081013020712000000BF
:103BC00080890E080E13010710000000A8890E0856
:103BD0001013000711000000D0890E080D13010713
:103BE0000F000000F8890E080C13020710000000F7
:103BF000208A0E080D1301070F000000488A0E08E6
:103C00000F13000711000000708A0E080D13010742
:103C10000F000000988A0E0810130207120000001F
:103C2000C08A0E080C13020710000000E88A0E0874
:103C30001113000711000000AC090D080F13000755
:103C400010000000108B0E080C1302070F0000007C
:103C5000388B0E080F13010711000000608B0E084F
:103C60000A1302070D000000888B0E0810130107CD
:103C700013000000B08B0E080E1300070F000000A9
:103C8000D88B0E081013010712000000008C0E08DC
:103C90000F13000710000000288C0E080205010613
:103CA0000500000058700F0802050106050000001D
:103CB00060700F08050501060800000068700F0815
:103CC000070A01060900000058550F0805050106FE
:103CD0000800000070700F080706010609000000C8
:103CE00078700F080A0601030C00000064550F08E5
:103CF000110E020C15000000F0380E080A13020C19
:103D00000E000000508C0E080E13010C0F00000076
:103D1000788C0E080D13020C0F000000A08C0E080A
:103D20000A1402060E000000C88C0E080E13010CC7
:103D30000F000000F08C0E080A1402060D000000AF
:103D4000188D0E080A13020C0E000000408D0E089C
:103D50000F13020C11000000688D0E080E140106EE
:103D60000F000000908D0E080A1902060E000000D8
:103D7000B48E0D080613020C08000000BC380F08B2
:103D80001219020616000000F82C0C080D1401068A
:103D90000E000000B88D0E080A1902060E00000081
:103DA000E88E0D080A1402060E000000E08D0E08D1
:103DB0000A1401060C000000088E0E080D13020CF8
:103DC0000F000000308E0E080B1401060C000000DE
:103DD000588E0E080D1402060F000000808E0E088B
:103DE0000613000C08000000D0380F080D14000660
:103DF0000F000000A88E0E080A13000C0B00000034
:103E0000D08E0E080A0E020C0E0000000C090F08DE
:103E10000A13000C0B000000F88E0E081113020CA0
:103E200015000000E8090D080B13000C0C00000041
:103E3000208F0E080B0E020C0E00000028090F0840
:103E40000A0E020C0E00000044090F080D190206AC
:103E50000F0000001C8F0D08110E020C1500000051
:103E60001C390E080A13020C0E000000488F0E08C1
:103E70000B13010C0E000000708F0E08080E020CD0
:103E80000A00000030490F08111902061500000051
:103E9000442D0C080E13000C0F000000988F0E0824
:103EA0000C0E010C0E00000060090F08101900062E
:103EB00011000000508F0D080D1402060F000000C5
:103EC000C08F0E08030E030C0900000040490F08C4
:103ED0000703011009000000547E0F080505FE1AB3
:103EE0000000000080700F080803FC0600000000BE
:103EF000587E0F080306FE030000000088700F08BC
:103F00000205FF040000000090700F080405FE0485
:103F10000000000098700F080405FE1A0000000061
:103F2000A0700F080303FF06000000005C7E0F086E
:103F30000704FC0500000000607E0F080405FC0477
:103F400000000000A8700F080303001B0000000021
:103F5000647E0F080405FE1A00000000B0700F0810
:103F60000405FE0400000000B8700F0804050004FA
:103F700000000000C0700F080805FC0400000000ED
:103F8000C8700F080E06F9030000000070550F08F6
:103F90000606000300000000D0700F080405FE04B0
:103FA00000000000D8700F080505FE1A0000000090
:103FB000E0700F080304FF1B00000000687E0F087C
:103FC0000303FE1B000000006C7E0F080405FE1AB0
:103FD00000000000E8700F080805FC1A000000004F
:103FE000F0700F080305FE1A00000000F8700F08BB
:103FF0000405FE040000000000710F080606FA0325
:104000000000000008710F080505FE1A00000000FE
:1040100010710F080303FE0600000000707E0F08F9
:104020000304FF0500000000747E0F080405001A59
:104030000000000018710F080704F90500000000D7
:10404000787E0F080303FE06000000007C7E0F0848
:104050000205061A0000000020710F080805031A67
:104060000000000028710F080605041A0000000077
:1040700030710F080605041A0000000038710F089F
:104080000202061B0000000040810F080502041B0D
:104090000000000042810F080505051A000000001D
:1040A00040710F080301051B00000000B3810F08D9
:1040B0000503041B00000000807E0F0802020608B2
:1040C0000000000044810F08020203070000000006
:1040D00046810F080805031A0000000048710F0808
:1040E000020206120000000048810F080103061BAF
:1040F00000000000847E0F080602020B0A00000088
:104100004A810F080301050800000000B4810F0870
:104110000213020906000000E4380F080202060834
:10412000000000004C810F080202FF0800000000A0
:104130004E810F08030F030B0900000050490F08C0
:10414000020201070000000050810F080202FF1C5C
:104150000000000052810F080710020A0A00000048
:1041600060490F080504FD1B00000000887E0F0851
:104170000D0F020B1100000050E60E080E0F010B90
:104180001000000070E60E080C0F000B0C00000081
:1041900090E60E080D0F010B0F000000B0E60E08B0
:1041A0000D0F020B11000000D0E60E08050F000BEA
:1041B0000700000070490F08070F010B08000000FE
:1041C00080490F080D0F020B11000000F0E60E08E9
:1041D0000D0F020B1100000010E70E080508000B80
:1041E0000700000050710F080E14000B10000000B3
:1041F000E88F0E080D0F010B1000000030E70E08CD
:104200000D1401061000000010900E080D0F020B97
:104210001100000050E70E080E0F010B1100000006
:1042200070E70E080714000B09000000F8380F08AB
:10423000070F010B0A00000090490F08100F000B38
:104240001200000090E70E080D11010B1000000095
:10425000A8C40E080E14010B1100000038900E08BF
:104260000D0F010B10000000B0E70E080B14000B3F
:104270000C00000060900E080D0F010B0F000000F5
:10428000D0E70E080D14020B1100000088900E08F4
:104290000C0F000B0E000000F0E70E08110F020BD0
:1042A000140000000CF20D08100F000B12000000AB
:1042B00010E80E080C0F000B0E00000030E80E088E
:1042C0000C0F000B0E00000050E80E080C08000B4D
:1042D0000E000000A0490F080507010605000000B8
:1042E00058710F080A0701060A000000B0490F08BC
:1042F0001205011A14000000C0490F082505011A13
:10430000270000007C090F081D0700181E00000090
:1043100098090F0817070118190000008C210F08D1
:1043200010170108120000003CF20D0803070313E8
:104330000900000060710F0807070118080000005D
:1043400068710F081D0701131D000000B4090F0854
:104350000C12010D0F000000CCC40E080705FC0272
:104360000000000070710F080705FC02000000004B
:1043700078710F080706FC020000000080710F082A
:104380000907FB0100000000D0490F080904FC02E6
:104390000000000088710F080607011300000000EC
:1043A00090710F08030E030C09000000E0490F088C
:1043B000060501150800000098710F080A1301078F
:1043C0000C000000B0900E08070901110A0000005F
:1043D0007C550F080616000406000000A4210F08F3
:1043E0000419010106000000D0090F080915000A90
:1043F0000A00000048390E080418010706000000F2
:10440000BC210F08140F010B160000006CF20D0800
:1044100002130207060000000C390F08120C0112EB
:1044200014000000F0C40E080A1101090C0000007D
:1044300014C50E08120C010E1400000038C50E0839
:10444000120F010B140000009CF20D080C11010E5C
:104450000F0000005CC50E080C11010E0F000000DB
:1044600080C50E080C14010B0F000000D8900E0838
:104470000A0C010E0C000000D4210F080A10010ADA
:104480000C00000070E80E08080B00140900000082
:1044900088550F080810000F09000000F0490F08A8
:1044A0001C0E01111E00000058440D081C14010BC5
:1044B0001E000000CC140C081B0F01101D00000092
:1044C000240A0D081B14010B1D0000001C150C080C
:1044D0001113FF0711000000600A0D081113FF07F8
:1044E000110000009C0A0D080C12010D0F000000C5
:1044F000A4C50E080C1601090F00000074390E083F
:104500000702FF180600000054810F08141201086A
:104510001600000090440D08141501071600000055
:10452000FCCA0C080F1301071200000000910E08CE
:104530000D1301071000000028910E08100EFE1147
:104540000F000000EC090F080F0E010C1100000015
:10455000080A0F080A0C010E0C000000EC210F08DD
:10456000090F00100A00000090E80E08140E010C5C
:1045700016000000A0390E081412010C16000000ED
:10458000C8440D0807040005000000008C7E0F08D9
:104590000805000100000000A0710F080704001AC0
:1045A00000000000907E0F080702000400000000D9
:1045B00056810F080605000100000000A8710F08D1
:1045C0000702001C0000000058810F0807050101C8
:1045D00000000000B0710F08050500020000000097
:1045E000B8710F0806020004000000005A810F088D
:1045F0000404010200000000947E0F080404011B63
:1046000000000000987E0F080105FF1A000000005E
:10461000C0710F080605FD0100000000C8710F08F9
:104620000403FE03000000009C7E0F080501FD0945
:1046300000000000B5810F08050300040000000021
:10464000A07E0F080704000300000000A47E0F08EE
:104650000202FF1C000000005C810F08060500013B
:1046600000000000D0710F080503000300000000E7
:10467000A87E0F080707040E0E000000D8710F086F
:10468000051104090E00000020390F080C11010962
:104690000E000000C8C50E080D1100090E00000034
:1046A000ECC50E080B1102090E00000010C60E0822
:1046B0000D0E010C0E000000240A0F080C11010958
:1046C0000E00000034C60E080D1101090E00000096
:1046D00058C60E080D1101090E0000007CC60E0818
:1046E0000C1102090E000000A0C60E080D110109F0
:1046F0000E000000C4C60E080307031709000000DF
:10470000E0710F080307031309000000E8710F08A8
:104710000C0C010C0E00000004220F0812080112FC
:10472000140000001C220F081410010C16000000D9
:10473000CCF20D080108FF0100000000F0710F0825
:10474000061800020600000034220F0806180002B6
:10475000060000004C220F080618000706000000A3
:1047600064220F080404010206000000AC7E0F085A
:10477000071302070600000034390F080A15000A63
:104780000A000000CC390E080B15FF0A0A000000D1
:10479000F8390E081614010616000000D80A0D0894
:1047A0001211010914000000848F0D08120F010B73
:1047B00014000000FCF20D08120D0112140000009C
:1047C00050910E081210010E140000002CF30D0879
:1047D000120E010C14000000243A0E08120D0112F2
:1047E0001400000078910E08120F010B1400000055
:1047F0005CF30D08120D011214000000A0910E08C8
:104800000C1701080F0000008CF30D080C180107AD
:104810000F000000BCF30D080C11010E0F0000008A
:10482000E8C60E080C11010E0F0000000CC70E08A0
:104830000C1801070F000000ECF30D080C11010E1D
:104840000F00000030C70E080C11010E0F00000011
:1048500054C70E080A1501050C000000503A0E0856
:104860000A10010E0C000000B0E80E080A10010E3C
:104870000C000000D0E80E080A1901050C00000029
:10488000B88F0D080A10010A0C000000F0E80E08AD
:104890000A10010E0C00000010E90E080A130107AF
:1048A0000C000000C8910E080A1301070C0000005C
:1048B000F0910E080A1301070C00000018920E0870
:1048C00008160009090000007C220F080811000EDC
:1048D0000900000048390F080B0B00140900000004
:1048E00094220F08090B001409000000AC220F08E5
:1048F0000C0B001409000000C4220F08090B00145F
:1049000009000000DC220F080810000F0900000059
:10491000004A0F080813000C090000005C390F085A
:104920000813000C0900000070390F081C11010E5B
:104930001E00000058A40C081C0E01111E000000EF
:1049400000450D081C14010B1E0000006C150C081E
:104950001B0F01101D000000140B0D081B17010890
:104960001D0000005CCD0B081113FF0711000000B3
:10497000500B0D080C1901060F000000EC8F0D08FC
:10498000140E010C160000007C3A0E081412010CE3
:104990001600000038450D08141601081600000026
:1049A0009CA40C0814150105160000003CCB0C0853
:1049B0001413010C160000008C0B0D0814150105D2
:1049C000160000007CCB0C0814140108160000002F
:1049D000C80B0D08141701051600000020670C080D
:1049E0001413010717000000040C0D081E0C010E23
:1049F0001F0000001CF40D0814130107170000002D
:104A0000400C0D080F1301071200000040920E0821
:104A10000F16010412000000A83A0E080F18010733
:104A2000120000004CF40D081416010417000000D9
:104A3000E0A40C08141601041700000024A50C08BB
:104A4000141601041700000068A50C08141A0104CC
:104A500017000000BC150C08141B0104170000000F
:104A6000A8F60B081419010117000000902D0C087E
:104A70000F170103100000007CF40D080D1601044F
:104A800010000000D43A0E080F19010110000000B8
:104A900020900D080D18010710000000ACF40D085F
:104AA0000F12010C1100000078C70E080F0A011048
:104AB0001100000084390F080F13010711000000D6
:104AC00068920E080F12010C110000009CC70E081E
:104AD0000F11010911000000C0C70E08110DFF0DD4
:104AE0001100000090920E080C14010B0F00000042
:104AF000B8920E080A1201080C000000E4C70E0864
:104B00000C0801140D000000104A0F080C10010CD5
:104B10000D00000030E90E080C0E010E0D00000023
:104B2000400A0F08090F00100A00000050E90E08A3
:104B3000090E00110A0000005C0A0F080913000C9E
:104B40000A000000E0920E08091700080A000000A1
:104B5000DCF40D08091900060A00000054900D0845
:104B60000914000B0A00000008930E080913000C3A
:104B70000A00000030930E08091600090A00000020
:104B8000003B0E08140E010C160000002C3B0E0812
:104B9000160E000C17000000583B0E08140E010CF6
:104BA00016000000843B0E080913000C0A000000E8
:104BB00058930E081413010C160000007C0C0D080D
:104BC0001413010C16000000B80C0D08170B00138D
:104BD0001700000008C80E081712000C170000008C
:104BE00070450D0806020018060000005E810F08DF
:104BF0000A0C010E0C000000F4220F080B09FB0246
:104C00000000000098390F080C09FA0200000000AB
:104C1000AC390F080504FE0500000000B07E0F0847
:104C20000708FD0200000000F8710F080507FE05E7
:104C30000000000000720F080302FF0700000000E0
:104C400060810F080C05FA060000000094550F085B
:104C50001A1B01041C00000028410B081B1B000448
:104C60000000000094410B080202FF070000000052
:104C700062810F080202FF070000000064810F0834
:104C80000704FD0500000000B47E0F080706FC05C0
:104C90000000000008720F080C05FA1A000000005E
:104CA000A0550F080403FF0100000000B87E0F08A4
:104CB000050500060600000010720F080905000730
:104CC0000A000000AC550F080905FB0700000000B2
:104CD000B8550F080606FD030000000018720F0803
:104CE0001114FF060F000000F40C0D080505FE1A54
:104CF0000000000020720F080505FE0500000000FE
:104D000028720F080202FF070000000066810F08EA
:104D10000706FC190000000030720F080A11010993
:104D20000C0000002CC80E080912000D090000003C
:104D300050C80E080707040E0E00000038720F0856
:104D4000051104090E000000C0390F080C110109FB
:104D50000E00000074C80E080D1100090E000000BE
:104D600098C80E080C10010A0E00000070E90E0829
:104D70000D1100090E000000BCC80E08090F030B3E
:104D80000E00000090E90E080D1101090E00000050
:104D9000E0C80E080D1101090E00000004C90E083C
:104DA0000C1102090E00000028C90E081C14010B8A
:104DB0001E0000000C160C081B14010B1D00000047
:104DC0005C160C080C1601090F000000B03B0E0821
:104DD000080D01110A000000204A0F080E0E0011F4
:104DE0000F000000780A0F081114FF0611000000E0
:104DF000300D0D08120C0112140000004CC90E08F1
:104E00001213010B140000006C0D0D08120D01129D
:104E10001400000080930E081211010E140000000F
:104E200088900D081210010E140000000CF50D08FA
:104E3000120D011214000000A8930E08120C010EAE
:104E40001400000070C90E080C15010A0F000000C4
:104E5000DC3B0E080C11010E0F00000094C90E0877
:104E60000A1A01050C000000BC900D080A11010E81
:104E70000C000000B8C90E080A0B0014090000005D
:104E80000C230F081C14010B1E000000AC160C08AC
:104E90000C1601090F000000083C0E080C18010751
:104EA0000F0000003CF50D080C1901060F00000072
:104EB000F0900D081412010C16000000A8450D0812
:104EC0001413010C16000000A80D0D08141301079F
:104ED00017000000E40D0D0814160104170000006F
:104EE000ACA50C08141801071700000068670C082F
:104EF0001013FE0C0F000000D0930E08100EFE11D0
:104F00000F000000940A0F080F12010C110000009E
:104F1000DCC90E080F13010711000000F8930E08FA
:104F20000F0E010C11000000B00A0F081113010749
:104F300010000000200E0D080813000C09000000EE
:104F4000D4390F080812000D09000000E8390F08D5
:104F50001C14010B1E000000FC160C080B0E020CAA
:104F60000F000000CC0A0F080D0E000C0F0000000F
:104F7000E80A0F080E0E000C10000000040B0F08CA
:104F80000C0E010C0F000000200B0F080C0E010C82
:104F90000F0000003C0B0F080F0E000C110000006A
:104FA000580B0F080A0E000C0C000000740B0F08C1
:104FB0000B0E010C0E000000900B0F080D0E010CE3
:104FC00010000000AC0B0F080F10000A10000000CA
:104FD000B0E90E081010000A11000000D0E90E0818
:104FE000120E020C16000000343C0E081113020CC5
:104FF000150000005C0E0D080E13000C10000000E0
:1050000020940E080E13000C1000000048940E08A7
:105010000B13010C0E00000070940E08120E000C11
:1050200014000000603C0E08130E010C1600000076
:105030008C3C0E08120E020C15000000B83C0E0845
:105040000C0E010C0F000000C80B0F080C0E010C19
:105050000F000000E40B0F080B0E020C0F00000005
:10506000000C0F080E0E020C120000001C0C0F08A2
:105070000B0E010C0E000000380C0F080C0E020C79
:105080000F000000540C0F080C0E020C1000000062
:10509000700C0F080C1402061000000098940E0803
:1050A0000B0E020C100000008C0C0F080B140206F3
:1050B00010000000C0940E080E0E000C120000003C
:1050C000A80C0F080E14000611000000E8940E084A
:1050D0000D0E010C10000000C40C0F080B0E020C8A
:1050E0000F000000E00C0F080A0E020C0E0000007A
:1050F000FC0C0F08090E010C0B000000180D0F0826
:105100000A11020C0E00000000CA0E080B0E020C61
:105110000F000000340D0F080D11010C10000000ED
:1051200024CA0E08090E010C0C000000500D0F08D7
:105130000D0F010B0F000000F0E90E08100E020C1D
:10514000130000006C0D0F080C0F020B0F00000085
:1051500010EA0E080F0E000C11000000880D0F0859
:105160001113000712000000980E0D080B0E020C20
:105170000F000000A40D0F080C0F020B0F00000021
:1051800030EA0E080A0E010C0D000000C00D0F08D9
:10519000080E020C0B000000304A0F080A05F80642
:1051A00000000000C4550F08090E010C0C0000009F
:1051B000DC0D0F080F12FB080C00000048CA0E0897
:1051C0000A04F3070000000040720F080A05F30606
:1051D00000000000D0550F080A05F306000000008B
:1051E000DC550F080A05F30600000000E8550F081B
:1051F0000304FB1B00000000BC7E0F080704F71B24
:1052000000000000C07E0F080202FC1B000000002E
:1052100068810F080C1602060F000000E43C0E081F
:10522000050E020C08000000404A0F080C0E020C8C
:105230000F000000F80D0F080A1401060C00000012
:1052400010950E08091401060B00000038950E0891
:105250000C1400060D00000060950E080911010CE9
:105260000C0000006CCA0E080911010C0C000000B3
:1052700090CA0E080807F6040000000048720F08E4
:105280000104FC0700000000C47E0F080704F707B4
:1052900000000000C87E0F080904F70700000000A6
:1052A00050720F080303FC0800000000CC7E0F08BA
:1052B0000705F9060000000058720F080404FB08F7
:1052C00000000000D07E0F080507FA010000000072
:1052D00060720F080C0C010E0F00000024230F0851
:1052E0000C0B010F0F0000003C230F080D0B010FEA
:1052F0001000000054230F080D0E020C11000000D6
:10530000140E0F080E0B010F110000006C230F0884
:10531000110F010B120000006CF50D08110F010BAD
:10532000120000009CF50D080E0F000B100000008D
:1053300050EA0E08100E010C13000000300E0F088A
:10534000100F010B1300000070EA0E08100E010C84
:10535000120000004C0E0F080E0E010C1100000090
:10536000680E0F08170C020E1B000000B4CA0E08CE
:105370000D0E000C0C000000840E0F08110E000C26
:1053800012000000103D0E08140E010C1600000063
:105390003C3D0E080C0E010C0D000000A00E0F0885
:1053A0000A0E010C0C000000BC0E0F080B0E020CC4
:1053B0000E000000D80E0F080C0E010C0E000000AD
:1053C000F40E0F08080E020C0B000000504A0F08E4
:1053D0000A0E000C0B000000100F0F080212020C46
:1053E00006000000FC390F08070E000C0900000041
:1053F000604A0F080A0E020C0C0000002C0F0F0868
:10540000090E010C0B000000480F0F080C0E020CD7
:1054100010000000640F0F080A0E020C0E000000BE
:10542000800F0F080C0E010C0E0000009C0F0F08DF
:105430000A0E010C0C000000B80F0F080E0C010D35
:105440001000000084230F080E0A010E1000000057
:10545000103A0F08100C000D100000009C230F08DC
:10546000150E010C17000000683D0E08090E010C16
:105470000B000000D40F0F080C07010C0E000000F9
:10548000704A0F080C0701130E000000804A0F0835
:105490000A0E020C0D000000F00F0F080B0E000C9E
:1054A0000D0000000C100F080B0E000C0D0000008A
:1054B00028100F080C0E000C0C00000044100F0800
:1054C0000A0E020C0E00000060100F080D0B020EF9
:1054D00011000000B4230F08110B010E140000008E
:1054E000D8CA0E080E12040A15000000FCCA0E08E5
:1054F0000C0E000C0C0000007C100F08130E000CAA
:1055000013000000943D0E08090E010C0B00000072
:1055100098100F08090E010C0B000000B4100F08C2
:105520000B0E010C0D000000D0100F080F0E000C28
:105530000F000000EC100F08080E020C0A0000001B
:10554000904A0F080D0E000C0C00000008110F0807
:105550000A0E020C0E00000024110F080A0E020CA5
:105560000D00000040110F080E0E020C120000008A
:105570005C110F080C0E000C0E00000078110F08D3
:105580000B0D00080A00000094110F08100D000810
:1055900010000000B0110F08090D01080A000000FA
:1055A000CC110F080B0D00080A000000E8110F08CD
:1055B0000A0D01080C00000004120F08080D010874
:1055C0000A000000A04A0F08080D01080A000000A8
:1055D000B04A0F080B0D01080C00000020120F0844
:1055E0000A0D01080B0000003C120F08060D01080F
:1055F00007000000C04A0F08070D0008080000005F
:10560000D04A0F08090D01080A00000058120F08BF
:10561000070D010809000000E04A0F080B0D010802
:105620000D00000074120F080A0D01080B000000A5
:1056300090120F080A0D01080B000000AC120F08B1
:105640000B0D01080D000000C8120F08090D01081C
:105650000A000000E4120F08080D01080A0000000B
:10566000F04A0F080A0D01080B00000000130F0894
:105670000A0D01080C0000001C130F080A0D010898
:105680000B00000038130F080F0D00080F0000007A
:1056900054130F080809010C09000000F4550F0805
:1056A0000809010C0900000000560F080909010C47
:1056B0000A000000243A0F080F09000C1000000037
:1056C000383A0F08090D01080A00000070130F088E
:1056D000090D01080A0000008C130F080909010CCC
:1056E0000A0000004C3A0F080909000C0A000000EB
:1056F000603A0F080709010C090000000C560F085A
:105700000709010C0900000018560F08090C010CCC
:105710000A000000CC230F08020C010C040000005A
:1057200024560F08090D010809000000A8130F08EE
:105730000E09000C0E000000743A0F08080C010C52
:105740000A00000030560F080909010C0A00000089
:10575000883A0F080709010C090000003C560F08A1
:105760000905010C0A00000048560F080905011040
:105770000A00000054560F08090C010C0A00000032
:10578000E4230F08060C01090700000060560F080B
:105790000809010C0A0000006C560F080908010CEA
:1057A0000B000000004B0F080E09000C0E0000005B
:1057B0009C3A0F080909000C08000000B03A0F08D5
:1057C0000A09000C0A000000C43A0F080910010879
:1057D0000A00000090EA0E08080D000C0800000006
:1057E000104B0F08090D01080A000000C4130F0830
:1057F0000C0C010C0D000000FC230F08090C000C20
:105800000800000014240F08020C0110040000001E
:1058100078560F08050901130600000084560F088A
:10582000080901130A00000090560F080909001327
:1058300008000000D83A0F080910010F0A00000004
:10584000B0EA0E08080C0013080000009C560F0870
:10585000090C01130A0000002C240F080C0D011282
:105860000D000000E0130F08090C001308000000F1
:1058700044240F08130E020C16000000C03D0E0851
:105880000F14FE060E00000088950E080F14010686
:105890000E000000B0950E080B14FE060800000074
:1058A000D8950E08170EFF0C15000000EC3D0E08F1
:1058B000100EFF0C0E000000FC130F080F13FE0C5F
:1058C0000E00000000960E080B0EFE0C09000000F2
:1058D00018140F080B0EFE0C0900000034140F08FA
:1058E000100EFE0C0C00000050140F080A12FE08E7
:1058F0000800000020CB0E080E0EFF0C0B0000006D
:105900006C140F080B13020C0E00000028960E08F2
:10591000090C01070B0000005C240F080B13010C9D
:105920000D00000050960E08141600061600000028
:10593000F0A50C08090E000C0900000088140F08DF
:10594000090EFF0C06000000A4140F080D13010C33
:105950000E00000078960E080D0E010C0E000000DF
:10596000C0140F08100E000C10000000DC140F080B
:105970000B1902060E00000024910D080D190106F6
:105980000E00000058910D080919000608000000DB
:105990008C910D081213010C0E000000D40E0D089E
:1059A0000B1902060C000000C0910D080619000634
:1059B00006000000F8140F081413010C1500000075
:1059C000100F0D080C13020C0E000000A0960E081C
:1059D0000B13020C0E000000C8960E080913000CF1
:1059E00009000000F0960E080C13010C0B000000DB
:1059F00018970E080E1901060E000000F4910D080C
:105A00000D13000C0D00000040970E080C13000C45
:105A10000C00000068970E080913010C0B00000031
:105A200090970E080E13010C0D000000B8970E0899
:105A30000F13010C0E000000E0970E08101901066C
:105A40000E00000028920D080F13010C0D0000003D
:105A500008980E080E13010C0B00000030980E0879
:105A60000A13000C0B00000058980E08130E010CCE
:105A70000D000000183E0E0808180207060000007E
:105A800074240F080A13010C0C00000080980E0803
:105A90000C1901060E0000005C920D080E13020C9A
:105AA0000E000000A8980E080A13000C0B0000005E
:105AB000D0980E080809010C0A000000A8560F082B
:105AC0000709010C09000000B4560F080809000C72
:105AD00009000000C0560F08080D01080A00000068
