:020000040800F2
:10000000784601202DAF0708450207085F02070860
:100010007902070893020708AD02070800000000F4
:10002000000000000000000000000000F9230208AA
:10003000C7020708000000009D230208E10207082C
:10004000C1C20708C5C20708C9C20708CDC2070850
:10005000D1C20708D5C2070833030708D9C2070869
:10006000DDC20708E1C20708E5C20708E9C20708C0
:10007000EDC207080F030708F1C2070813030708BA
:100080000303070807030708F5C20708F9C20708B2
:10009000FDC2070801C3070805C307082B030708AB
:1000A00009C307080DC3070811C3070815C30708CC
:1000B00019C307081DC3070821C3070825C307087C
:1000C00029C307082DC3070831C3070835C307082C
:1000D00039C30708F3020708FF0207083DC30708F2
:1000E00041C3070845C3070849C307084DC30708AC
:1000F00051C3070855C3070859C307085DC307085C
:100100001703070861C3070865C3070869C3070821
:100110000B0307086DC3070871C3070875C30708F9
:1001200079C307087DC30708F702070881C30708DA
:1001300085C3070889C307088DC3070891C307084B
:1001400095C3070899C307089DC30708A1C30708FB
:10015000A5C30708A9C30708FB020708ADC3070822
:100160002303070827030708B1C30708B5C3070817
:10017000B9C30708BDC30708C1C3070800000000D2
:10018000C5C30708C9C30708CDC30708D1C30708FB
:10019000D5C30708D9C30708DDC30708E1C30708AB
:1001A0001B0307081F030708E5C30708E9C307087F
:1001B000EDC30708F1C30708F5C30708F9C307082B
:1001C000FDC3070801C40708F0B581B0044694F8E0
:1001D0005C610D46082E2FDA05F12000C6F10807F4
:1001E00011238119C4F8C4323A46204607F0FAFCBC
:1001F0004FF0080C3A4684F85CC1314605F1200006
:1002000007F023FD80B1032E09D83A1F314605F1CE
:10021000200007F01AFD10B10FF2200101E0DFF815
:10022000981B20460CF0AEFD032E05D2D4F8B40086
:1002300040F48050C4F8B40001B0F0BD4E6F74209B
:100240006120504E472066696C650000F0B583B0B0
:10025000044621230822C4F8C432694607F0C2FCD0
:100260009DF801009DF800309DF802109DF80320D4
:10027000000400EB036000EB01208518B5F1004F8E
:1002800004D3DFF8301B20460CF07CFD9DF80520E0
:100290009DF804109DF80700DFF8206B120442EA75
:1002A00001629DF8061042EA012202432046C4F88A
:1002B0002C2107F009FD042201A9204607F00EFDBC
:1002C000D4F82C7107F0FF00A0F141013A2902D2C5
:1002D0005B38062803D2314620460DF07FF83F0AEE
:1002E00007F0FF00A0F141013A2902D25B3806284D
:1002F00003D2314620460DF071F83F0A07F0FF00A7
:10030000A0F141013A2902D25B38062803D23146D6
:1003100020460DF063F83F0AA7F141003A2802D2C7
:100320005B3F062F03D2314620460DF057F841209F
:10033000C4F8C402284603B0F0BDF0B5ADF5806D39
:1003400081B004460D464FF4806610E03746B5F59F
:10035000806F38BF2F46ED1B4CB13A4669462046A8
:1003600007F040FC3A466946204607F0B7FC002DEE
:10037000ECD1D4F82C010125D4F8B810C0F34070AA
:1003800028B101F44071B1F5407F03D101E00805C7
:1003900000D5002581210422C4F8C41269462046F4
:1003A00007F020FC1DB39DF801109DF800009DF89A
:1003B0000320090401EB00619DF8020001EB00211C
:1003C000D4F840018918814211D0D4F82C11D4F806
:1003D000B800C1F3407179B9800A00F0010000282B
:1003E000DFF8DC1920460DD00DF012F80CE00DF509
:1003F000806D002001B0F0BD400A00F0010080F0E7
:100400000100ECE70CF0EAFF0DF5806D012001B072
:10041000F0BD2DE9F04F89B00446154694F8B4209C
:100420008846D30744BFDFF89C190CF0D7FF0D2D89
:1004300004D0DFF8941920460CF0D0FFD4F8B400B3
:1004400040F00100C4F8B4004CB10D2205A92046CB
:1004500007F0C8FB0D2205A9204607F03FFCD4F8A1
:100460002C010125D4F8B810C0F3407028B101F474
:100470004071B1F5407F03D101E0080500D50025AA
:1004800081210422C4F8C4126946204607F0AAFB61
:100490005DB39DF801209DF800109DF80300120443
:1004A00002EB01629DF8021002EB01221018D4F851
:1004B0004021904219D0D4F82C11D4F8B800C1F3DF
:1004C000407129B1400A00F0010080F0010002E013
:1004D000800A00F001000028DFF8E418204602D06E
:1004E0000CF096FF01E00CF079FF05AE9DF81400CA
:1004F0007178F278090401EB0061B07801EB00211A
:100500008D18B5F1004F04D3DFF8A81820460CF081
:1005100039FC9DF819103079F279090401EB00617A
:100520009DF81A0001EB002101EB0209B9F1004F1F
:1005300004D3DFF8801820460CF024FC307A727A5D
:10054000B37A9DF81FC09DF820E084F8572194F8F5
:100550005711C4F81051C4F8149184F8580184F864
:1005600054E1022984F86CC284F88C3206D0042944
:1005700006D0062914BF0126042602E0032600E067
:10058000022694F8581111FB06FAD4F810115FFAFC
:100590008AFBBBF1070F5FFA8AF702DDFF084F43C2
:1005A00002E04F43FF1DFF0884F85AA1414684F83A
:1005B0005B61C4F8207103934B4601922A46009078
:1005C0002046CDF810C0CDF808E00DF0A8F909B02C
:1005D000BDE8F08F000000002DE9F045ADF5E06DBD
:1005E00081B005461446D5F8B4000F46C20712D4B0
:1005F000DFF8CC1B28460CF0F1FE95F85701D5F832
:10060000B420810742F00202C5F8B42000F1C9808D
:100610004FF4806A78E0820748BFDFF8A81BE9D46E
:100620004007EAD54FF4806A10E05746B4F5806F72
:1006300038BF2746E41B4DB13A466946284607F0C5
:10064000D1FA3A466946284607F048FB002CECD11F
:10065000D5F82C010124D5F8B810C0F3407028B1AA
:1006600001F44071B1F5407F03D101E0080500D5E8
:10067000002481210422C5F8C4126946284607F0E7
:10068000B1FA6CB39DF801209DF800109DF80300AD
:10069000120402EB01629DF8021002EB0122101815
:1006A000D5F8402190421BD0D5F82C11D5F8B800D0
:1006B000C1F3407129B1400A00F0010080F001004F
:1006C00002E0800A00F001000028DFF8F416284656
:1006D00004D00CF09DFEDFF8EC166FE10CF07EFE0E
:1006E000DFF8E0166AE15746B4F5806F38BF274659
:1006F000E41B4DB13A466946284607F073FA3A467C
:100700006946284607F0EAFA002CECD1D5F82C010E
:100710000124D5F8B810C0F3407028B101F440713D
:10072000B1F5407F03D101E0080500D50024812107
:100730000422C5F8C4126946284607F053FA6CB380
:100740009DF801209DF800109DF80300120402EBB3
:1007500001629DF8021002EB01221018D5F8402129
:1007600090421BD0D5F82C11D5F8B800C1F34071D8
:1007700029B1400A00F0010080F0010002E0800A87
:1007800000F001000028DFF83816284604D00CF0ED
:100790003FFE0FF2382111E10CF020FE0FF22C2168
:1007A0000CE1B4F5407F08D8DFF81C1AA4FB011057
:1007B000400800EB4000201A6AD04FF4806A10E035
:1007C0005746B4F5806F38BF2746E41B4DB13A4613
:1007D0006946284607F006FA3A466946284607F071
:1007E0007DFA002CECD1D5F82C010124D5F8B810F5
:1007F000C0F3407028B101F44071B1F5407F03D1DE
:1008000001E0080500D5002481210422C5F8C412A6
:100810006946284607F0E6F95CB39DF801209DF88B
:1008200000109DF80300120402EB01629DF8021013
:1008300002EB01221018D5F84021904219D0D5F8CA
:100840002C11D5F8B800C1F3407129B1400A00F06D
:10085000010080F0010002E0800A00F001000028A1
:10086000DFF85C15284602D00CF0D2FD01E00CF058
:10087000B5FD95F85701DFF850150328284640F0DC
:100880009E800CF0ABFD0DF5E06D01B0BDE8F0858C
:10089000DFF838090DF5806684FB001000EBD07896
:1008A000B8F1000F19DDC24655B10322694628464A
:1008B00007F098F903226946284607F00FFA00BFAF
:1008C0009DF8000030709DF8011071709DF80220B5
:1008D000B270F61CBAF1010AE6D1D5F82C01012458
:1008E000C0F3407038B1D5F8B81001F44071B1F5DB
:1008F000407F05D103E0D5F8B800010500D50024FC
:1009000081200422C5F8C4026946284607F06AF926
:1009100064B39DF801209DF800109DF803001204B7
:1009200002EB01629DF8021002EB01221018D5F8CB
:10093000402190421AD0D5F82C01C0F34070002815
:10094000D5F8B80005D0400A00F0010080F00100A1
:1009500002E0800A00F001000028DFF86414284655
:1009600002D00CF055FD01E00CF038FD43460DF5CA
:100970008062394628460DF07BF9B5F8500120B960
:10098000FFB1387AC10604D40BE00022A5F850214B
:100990000FB10020F8820FF2500128460CF0ACFD98
:1009A0007FB1387A410604D50FF2500128460CF089
:1009B000A3FD387A810604D50FF2540128460CF0C5
:1009C0009BFD0DF5E06D01B0BDE8F08569676E6FC8
:1009D00072656420696E20677261797363616C650A
:1009E00020504E470000000074524E53206D757326
:1009F0007420626520616674657200006849535412
:100A0000206D7573742062652061667465720000E4
:100A1000624B4744206D7573742062652061667473
:100A2000657200002DE9F041ADF5806D0446164673
:100A300094F8B42002F00502052A1CBFDFF88413E5
:100A40000CF0CCFCD4F8B42035464FF4806842F06A
:100A50001802C4F8B42010E04746B5F5806F38BFDF
:100A60002F46ED1B4CB13A466946204607F0BAF8CE
:100A70003A466946204607F031F9002DECD1D4F80A
:100A80002C010125D4F8B810C0F3407028B101F44E
:100A90004071B1F5407F03D101E0080500D5002584
:100AA00081210422C4F8C4126946204607F09AF84E
:100AB00055B39DF801109DF800009DF8032009042E
:100AC00001EB00619DF8020001EB0021D4F8400128
:100AD0008918814218D0D4F82C11D4F8B800C1F389
:100AE000407129B1400A00F0010080F0010002E0ED
:100AF000800A00F001000028B149204602D00CF025
:100B000087FC01E00CF06AFC1EB1AF4920460CF0F6
:100B1000F3FC0DF5806DBDE8F081F0B5ADF5806DAD
:100B200081B004461546D4F8B4000E46C2070AD474
:100B3000DFF88C1620460CF051FC042D00F0C2802A
:100B40004FF4806670E010F0060FF6D04FF4806628
:100B500010E03746B5F5806F38BF2F46ED1B4CB11E
:100B60003A4601A9204607F03DF83A4601A9204639
:100B700007F0B4F8002DECD1D4F82C010125D4F8FD
:100B8000B810C0F3407028B101F44071B1F5407F56
:100B900003D101E0080500D5002581210422C4F815
:100BA000C41201A9204607F01DF855B301A89DF80D
:100BB00004104278120402EB01628178C07802EBE3
:100BC00001221018D4F8402190421AD0D4F82C11E8
:100BD000D4F8B800C1F3407129B1400A00F0010017
:100BE00080F0010002E0800A00F001000028DFF838
:100BF000981C204603D00CF00BFC72495BE00CF013
:100C0000EDFB704957E03746B5F5806F38BF2F468A
:100C1000ED1B4CB13A4601A9204606F0E3FF3A46E7
:100C200001A9204607F05AF8002DECD1D4F82C0188
:100C30000125D4F8B810C0F3407028B101F4407118
:100C4000B1F5407F03D101E0080500D500258121E1
:100C50000422C4F8C41201A9204606F0C3FF4DB314
:100C600001A89DF804104278120402EB0162817819
:100C7000C07802EB01221018D4F84021904219D01C
:100C8000D4F82C11D4F8B800C1F3407129B1400A4E
:100C900000F0010080F0010002E0800A00F0010095
:100CA0000028DFF8E41B204602D00CF0B1FB01E085
:100CB0000CF094FB444920460CF01EFC0DF5806DB1
:100CC00001B0F0BD4CB104226946204606F08AFF0F
:100CD00004226946204607F001F8D4F82C010125CA
:100CE000D4F8B810C0F3407028B101F44071B1F5E8
:100CF000407F03D101E0080500D5002581210422B1
:100D0000C4F8C41201A9204606F06CFF25B301A85F
:100D10009DF804104278120402EB01628178C078D9
:100D200002EB01221018D4F84021904214D0D4F8DC
:100D30002C11D4F8B800C1F3407109BB800A00F04F
:100D400001000028DFF8401B20461FD00CF060FB9C
:100D50000DF5806D01B0F0BD9DF801209DF80010EB
:100D60009DF80300120402EB01629DF8021002EBF1
:100D700001221218B2F1004F28BF4FF0FF320BE0F2
:100D8000400A00F0010080F00100DAE70CF026FBD9
:100D90000DF5806D01B0F0BD04F53771204607F008
:100DA0003DFC3146204607F0D7FC0DF5806D01B0C3
:100DB000F0BD0000F03E07083C820708747B000885
:100DC000507B0008E44700081C4B00082DE9F04167
:100DD000ADF5816D0646D6F8B40014460F46C2073D
:100DE0000FD4DFF8DC1330460CF0F8FA002F00F0D7
:100DF000C980387A810740F1C5804FF48067354655
:100E000075E010F0060FF1D04FF48067354610E022
:100E10003E46B4F5806F38BF2646A41B4DB132461E
:100E200001A9284606F0DEFE324601A9284606F052
:100E300055FF002CECD1D5F82C010124D5F8B810C1
:100E4000C0F3407028B101F44071B1F5407F03D187
:100E500001E0080500D5002481210422C5F8C41250
:100E600001A9284606F0BEFE64B301A89DF804104F
:100E70004278120402EB01628178C07802EB012211
:100E80001018D5F8402190421CD0D5F82C11D5F877
:100E9000B800C1F3407129B1400A00F0010080F0B0
:100EA000010002E0800A00F001000028DFF8D819F4
:100EB000284605D00CF0ACFADFF8D01928463CE102
:100EC0000CF08CFADFF8C419284636E13E46B4F53A
:100ED000806F38BF2646A41B4DB1324601A9284673
:100EE00006F080FE324601A9284606F0F7FE002CE7
:100EF000ECD1D5F82C010124D5F8B810C0F340701E
:100F000028B101F44071B1F5407F03D101E008053B
:100F100000D5002481210422C5F8C41201A9284665
:100F200006F060FE5CB301A89DF80410427812043C
:100F300002EB01628178C07802EB01221018D5F82B
:100F4000402190421BD0D5F82C11D5F8B800C1F340
:100F5000407129B1400A00F0010080F0010002E078
:100F6000800A00F001000028DFF81C19284604D090
:100F70000CF04EFA93492846DFE00CF02FFA914925
:100F80002846DAE096F85701032807BF03254FF0FB
:100F9000080896F85B5196F85881AC4201D1042CB0
:100FA0005DD9DFF8EC1830460CF0A6FA4FF48065F6
:100FB00010E02F46B4F5806F38BF2746E41B4EB1D2
:100FC0003A4601A9304606F00DFE3A4601A93046E0
:100FD00006F084FE002CECD1D6F82C010124D6F8C2
:100FE000B810C0F3407028B101F44071B1F5407FF2
:100FF00003D101E0080500D5002481210422C6F8B0
:10100000C41201A9304606F0EDFD002C00F0D4809A
:1010100001A89DF804104278120402EB0162817865
:10102000C07802EB01221018D6F84021904200F05F
:10103000C380D6F82C11D6F8B800C1F3407129B19D
:10104000400A00F0010080F0010002E0800A00F098
:1010500001000028DFF8301830467AD04BE08DF8D8
:1010600003808DF802808DF801808DF800804EB1EC
:101070002A466946304606F0B5FD2A46694630469E
:1010800006F02CFED6F82C010124D6F8B810C0F3D7
:10109000407028B101F44071B1F5407F03D101E007
:1010A000080500D5002481210422C6F8C41201A934
:1010B000304606F097FD24B301A89DF8041042784D
:1010C000120402EB01628178C07802EB0122101851
:1010D000D6F84021904214D0D6F82C11D6F8B8009A
:1010E000C1F3407179BB800A00F001000028DFF8ED
:1010F000981730462DD00CF08BF90DF5816DBDE8B9
:10110000F08165B3EA07694605D5087890B111F812
:10111000013B98450EDB6D0821D0087850B1804521
:1011200008DB487830B1804504DB6D1E01F1020117
:10113000F3D114E0DFF8581730460CF0DDF90DF567
:10114000816DBDE8F081400A00F0010080F00100EF
:10115000CCE70CF043F90DF5816DBDE8F08196F810
:10116000570181070ED59DF8002086F8A8219DF82B
:10117000010086F8A9019DF8021086F8AA119DF8D1
:10118000030011E09DF8000086F8AB019DF8001007
:1011900086F8A8119DF8000086F8A9019DF80010B6
:1011A00086F8AA119DF8010086F8AC0106F5D47204
:1011B000394630460CF0AFFD0DF5816DBDE8F0818C
:1011C000D85D0008104B0008ABAAAAAA5655555581
:1011D000F0B5ADF5806D91B004461546D4F8B40075
:1011E0000E46C2070AD4DFF8AC1620460CF0F6F81B
:1011F000202D00F0C5804FF4806674E010F0060FDB
:10120000F6D04FF4806610E03746B5F5806F38BFF2
:101210002F46ED1B4CB13A4611A9204606F0E2FCE0
:101220003A4611A9204606F059FD002DECD1D4F81C
:101230002C010125D4F8B810C0F3407028B101F496
:101240004071B1F5407F03D101E0080500D50025CC
:1012500081210422C4F8C4126946204606F0C2FC6B
:101260006DB39DF801209DF800109DF80300120455
:1012700002EB01629DF8021002EB01221018D4F873
:10128000402190421BD0D4F82C11D4F8B800C1F3FF
:10129000407129B1400A00F0010080F0010002E035
:1012A000800A00F001000028DFF8DC15204604D099
:1012B0000CF0AEF8DFF8D4157CE10CF08FF8DFF815
:1012C000CC1577E13746B5F5806F38BF2F46ED1B5B
:1012D0004CB13A4611A9204606F084FC3A4611A9C1
:1012E000204606F0FBFC002DECD1D4F82C010125A2
:1012F000D4F8B810C0F3407028B101F44071B1F5D2
:10130000407F03D101E0080500D50025812104229A
:10131000C4F8C4126946204606F064FC6DB39DF81B
:1013200001209DF800109DF80300120402EB0162F9
:101330009DF8021002EB01221018D4F840219042CF
:101340001BD0D4F82C11D4F8B800C1F3407129B1E6
:10135000400A00F0010080F0010002E0800A00F085
:1013600001000028DFF82015204604D00CF050F8CA
:10137000DFF81C151EE10CF031F8DFF8141519E147
:101380004CB1202201A9204606F02CFC202201A904
:10139000204606F0A3FCD4F82C010125D4F8B8109F
:1013A000C0F3407028B101F44071B1F5407F03D122
:1013B00001E0080500D5002581210422C4F8C412EB
:1013C0006946204606F00EFC35B39DF801209DF8D5
:1013D00000109DF80300120402EB01629DF8021058
:1013E00002EB01221018D4F84021904214D0D4F816
:1013F0002C11D4F8B800C1F3407101BB800A00F091
:1014000001000028DFF8801420461ED00CF000F800
:101410000DF5806D11B0F0BD01A99DF804004A786A
:10142000CB78120402EB0062887802EB00224FF0C6
:10143000FF30D218B2F1004F28BF02460BE0400A3D
:1014400000F0010080F00100DBE70BF0C7FF0DF5B5
:10145000806D11B0F0BD0F929DF809300A799DF8AA
:101460000B501B0403EB02638A7903EB02235A1926
:10147000B2F1004F28BF024610924B7A0A7A9DF8CB
:101480000F501B0403EB02638A7A03EB02235A1901
:10149000B2F1004F28BF024609929DF811300A7B35
:1014A0009DF813501B0403EB02639DF8122003EB1D
:1014B00002235A19B2F1004F28BF02460A929DF842
:1014C00015300A7C9DF817501B0403EB02639DF84E
:1014D000162003EB02235A19B2F1004F28BF02462F
:1014E0000B929DF819300A7D9DF81B501B0403EBED
:1014F00002639DF81A2003EB02235A19B2F1004F40
:1015000028BF02460C929DF81D300A7E9DF81F50A0
:101510001B0403EB02639DF81E2003EB02235A1900
:10152000B2F1004F28BF02460D929DF82120097F9D
:101530009DF82330120402EB01629DF8221002EBA9
:101540000122D118B1F1004F38BF08460E900F9814
:1015500010F1010F1CBF109911F1010F17D009985C
:1015600010F1010F1CBF0A9911F1010F0FD00B9858
:1015700010F1010F1CBF0C9911F1010F07D00D984C
:1015800010F1010F1CBF0E9911F1010F02D10FF2E2
:1015900058010FE0B4F82603010421D4C20610D587
:1015A00040F400403146A4F82603204607F0D4F862
:1015B000DFF8381C20460BF09FFF0DF5806D11B051
:1015C000F0BD40F010000123A4F8260309AA04F599
:1015D0003771204607F09CFF3146204607F0BCF8E3
:1015E0000DF5806D11B0F0BD696E76616C69642097
:1015F00076616C7565730000F0B5ADF5806D81B0F6
:1016000004461546D4F8B4000E46C20709D4A149D1
:1016100020460BF0E3FE012D00F0BB804FF4806606
:101620006FE010F0060FF6D04FF4806610E03746FA
:10163000B5F5806F38BF2F46ED1B4CB13A4601A976
:10164000204606F0CFFA3A4601A9204606F046FBAE
:10165000002DECD1D4F82C010125D4F8B810C0F33A
:10166000407028B101F44071B1F5407F03D101E031
:10167000080500D5002581210422C4F8C41201A95F
:10168000204606F0AFFA4DB301A89DF80410427849
:10169000120402EB01628178C07802EB012210187B
:1016A000D4F84021904219D0D4F82C11D4F8B800C5
:1016B000C1F3407129B1400A00F0010080F001003F
:1016C00002E0800A00F0010000286F49204603D0A4
:1016D0000BF09EFE6D49B4E00BF080FE6B49B0E06C
:1016E0003746B5F5806F38BF2F46ED1B4CB13A46F3
:1016F00001A9204606F076FA3A4601A9204606F0EE
:10170000EDFA002DECD1D4F82C010125D4F8B81055
:10171000C0F3407028B101F44071B1F5407F03D1AE
:1017200001E0080500D5002581210422C4F8C41277
:1017300001A9204606F056FA4DB301A89DF8041001
:101740004278120402EB01628178C07802EB012238
:101750001018D4F84021904219D0D4F82C11D4F8A4
:10176000B800C1F3407129B1400A00F0010080F0D7
:10177000010002E0800A00F00100002842492046F2
:1017800003D00BF045FE42495BE00BF027FE4049D9
:1017900057E04CB101226946204606F023FA0122A7
:1017A0006946204606F09AFAD4F82C01D4F8B8100D
:1017B000C0F3407028B101F44071B1F5407F03D10E
:1017C00001E0080500D5002581210422C4F8C412D7
:1017D00001A9204606F006FA1DB301A89DF80410E1
:1017E0004278120402EB01628178C07802EB012298
:1017F0001018D4F84021904213D0D4F82C11D4F80A
:10180000B800C1F3407119BB800A00F00100002844
:101810001D49204622D00BF0FBFD0DF5806D01B077
:10182000F0BDB4F82603010429D442071CD540F4C6
:1018300000403146A4F82603204606F08DFFDFF86D
:10184000B01920460BF058FE0DF5806D01B0F0BDCB
:10185000400A00F0010080F00100D8E70BF0BEFD67
:101860000DF5806D01B0F0BD9DF8002004F53771D5
:10187000204608F017F83146204606F06DFF0DF5BA
:10188000806D01B0F0BD0000507B0008E447000807
:101890001C4B0008D85D00082DE9F04FADF5006D38
:1018A000BBB080461446D8F8B4000F464FF000098C
:1018B000C2070AD4DFF83C1940460BF08FFD092C13
:1018C00080F0CB804FF480697AE010F0060FF6D0FC
:1018D0004FF4806912E04F46B4F5806F38BF274659
:1018E000E41BB8F1000F09D03A466946404606F0BD
:1018F00079F93A466946404606F0F0F9002CEAD1FB
:10190000D8F82C010124D8F8B810C0F3407028B1E1
:1019100001F44071B1F5407F03D101E0080500D525
:10192000002481210422C8F8C4126946404606F00A
:1019300059F974B39DF801209DF800109DF803003B
:10194000120402EB01629DF8021002EB0122101852
:10195000D8F8402190421CD0D8F82C11D8F8B80003
:10196000C1F3407129B1400A00F0010080F001008C
:1019700002E0800A00F001000028DFF87C184046F1
:1019800005D00BF045FDDFF8741800F027BC0BF014
:1019900025FDDFF8681800F021BC4F46B4F5806FD4
:1019A00038BF2746E41BB8F1000F09D03A46694614
:1019B000404606F017F93A466946404606F08EF969
:1019C000002CEAD1D8F82C010124D8F8B810C0F3C3
:1019D000407028B101F44071B1F5407F03D101E0BE
:1019E000080500D5002481210422C8F8C4126946E4
:1019F000404606F0F7F86CB39DF801209DF8001002
:101A00009DF80300120402EB01629DF8021002EB44
:101A100001221018D8F8402190421BD0D8F82C1180
:101A2000D8F8B800C1F3407129B1400A00F00100B4
:101A300080F0010002E0800A00F001000028DFF8D9
:101A4000B817404604D00BF0E3FC0FF2B471C5E3C5
:101A50000BF0C4FC0FF2A871C0E3B8F82603010430
:101A600068D54FF480694F46B4F5806F38BF27467C
:101A7000E41BB8F1000F09D03A466946404606F02B
:101A8000B1F83A466946404606F028F9002CEAD1FA
:101A9000D8F82C010124D8F8B810C0F3407028B150
:101AA00001F44071B1F5407F03D101E0080500D594
:101AB000002481210422C8F8C4126946404606F079
:101AC00091F8002C00F08D839DF801209DF8001006
:101AD0009DF80300120402EB01629DF8021002EB74
:101AE00001221018D8F84021904200F07A83D8F8EB
:101AF0002C11D8F8B800C1F3407129B1400A00F0A8
:101B0000010080F0010002E0800A00F001000028DE
:101B1000DFF8E416404606D00BF07AFC0DF5006DB8
:101B20003BB0BDE8F08F0BF059FC0DF5006D3BB0FC
:101B3000BDE8F08F0297400748BF0FF2D06900F16F
:101B4000E2825125502C98BF2546B8F1000F09D0EC
:101B50002A4604A9404606F045F82A4604A940460C
:101B600006F0BCF8641B002704A9AF4214D2087821
:101B700090B17F1CAF420FD2487868B17F1CAF4252
:101B80000AD2887840B17F1CAF4205D2C87818B11C
:101B90007F1C091D502FE8D327B9DFF8589C4FF45C
:101BA0008067C6E2502FF8D2781CA84204D30FF207
:101BB00070694FF48067BCE204A9CE1970780028E0
:101BC000F5D1D8F8C000D0B1000EDFF82C3C8DF86C
:101BD0006400D8F8C01019A8090C4170D8F8C020CA
:101BE000120A8270D8F8C010C170042240210BF094
:101BF000DDF819A940460BF00BFCC8F8C09098F826
:101C0000B820C8F8C490C8F8C890C8F8D090C8F8F0
:101C1000D490900709D508F1C4000CF0DFFB58BB45
:101C2000DFF8D80BC8F8C00012E03822DFF8D01B6C
:101C300008F1C4000CF000FC0028F0D1D8F8B8007E
:101C4000DFF8B81BC8F8C01040F00200C8F8B800B0
:101C5000B21CD8F82C11C8F8C420DFF8A02BED1B5B
:101C6000AD1E9142C8F8C8504FF4806A0DD0DFF81D
:101C7000949BC8F8DC9043E20146404606F030FCF5
:101C8000D8F8DC904FF4806753E219A9C8F8D490D3
:101C9000C8F8D0104FF0FF365FF08405D8F8C800C0
:101CA000E0B9544598BFA246A4EB0A04BAF1000F6C
:101CB00018BFB8F1000F0BD052460DF59D6140469C
:101CC00005F090FF52460DF59D61404606F006F87E
:101CD0000DF59D61C8F8C8A0C8F8C410D8F8D400A4
:101CE00038B9304615F1010F18BF28462D1AC8F82B
:101CF000D400002C14BF0021022108F1C4000CF014
:101D00000FFC28B9002D04BFD8F8D4100029C5D184
:101D1000D8F8D4200146C8F8D4904046551906F0AA
:101D2000DFFB15B1D8F8DC90EAE119AD9DF864103D
:101D30006878EA78000400EB0160A97800EB0120E4
:101D400008F5377100EB020A534604AA404607F033
:101D5000EFFF20B9C8F8C0904FF48067E9E198F828
:101D6000571119AA00925346019104AA08F5377138
:101D7000404608F0AFF80028ECD095F881109DF8A7
:101D8000E4009DF8E720090401EB00619DF8E600FE
:101D900001EB002189180391D8F8B8525DB1D8F849
:101DA000BC02504511D2C8F8B8922946C8F8BC9276
:101DB00040460EF007F8514640460DF05CFF050026
:101DC0004DD0C8F8B852C8F8BCA2842219A9284638
:101DD0004FF4806B0EF032F8039800EB400189005D
:101DE0000191D8F8C000D8F82C11019E88424ED13C
:101DF00005F18402C8F8D490C8F8D020D8F8C800FB
:101E0000E0B95C4598BFA346A4EB0B04BBF1000FFF
:101E100018BFB8F1000F0BD05A460DF59D61404632
:101E200005F0E0FE5A460DF59D61404605F056FF6F
:101E30000DF59D61C8F8C8B0C8F8C410D8F8D40032
:101E400040B94FF0FF3016F1010F18BF3046361A77
:101E5000C8F8D400002C14BF0021022102E0DFF8F2
:101E6000A8994EE108F1C4000CF05AFB28B9002EE5
:101E700004BFD8F8D4100029C0D1D8F8D420014626
:101E8000C8F8D4904046961906F02AFB03E0DFF824
:101E90007409C8F8DC00002E7FF444AF0095534667
:101EA00004AA08F53771404609F012F800283FF4FB
:101EB00051AF0398D8F8C0204FF4806BA0EB80019D
:101EC000D8F82C010AEB8106843E82424DD1019A5A
:101ED00005F18401C8F8D49001EB0202C8F8D020C3
:101EE000D8F8C800E0B95C4598BFA346A4EB0B0442
:101EF000BBF1000F18BFB8F1000F0BD05A460DF51B
:101F00009D61404605F06EFE5A460DF59D614046C6
:101F100005F0E4FE0DF59D61C8F8C8B0C8F8C4101E
:101F2000D8F8D40040B94FF0FF3016F1010F18BFB8
:101F30003046361AC8F8D400002C14BF0021042102
:101F400008F1C4000CF0ECFA28B9002E04BFD8F850
:101F5000D4100029C4D1D8F8D4200146C8F8D490B0
:101F60004046961906F0BCFA03E0DFF89808C8F876
:101F7000DC005CB1D8F8B800C10207D40022DFF859
:101F80008C98C8F8C0204FF48067D2E0002E40F053
:101F9000B58024B1DFF8741840460BF039FA4FF4DD
:101FA000806613E0B346B4F5806F38BFA346B8F13E
:101FB000000FA4EB0B0409D05A463AA9404605F09D
:101FC00011FE5A463AA9404605F088FE002CE9D198
:101FD000D8F82C010124C0F3407038B1D8F8B810FB
:101FE00001F44071B1F5407F05D103E0D8F8B800A5
:101FF000010500D5002481200422C8F8C4026946E6
:10200000404605F0EFFD5CB39DF801209DF80010FF
:102010009DF80300120402EB01629DF8021002EB2E
:1020200001221018D8F84021904219D0D8F82C017C
:10203000C0F340700028D8F8B80005D0400A00F07E
:10204000010080F0010002E0800A00F00100002899
:102050006949404602D00BF0DBF901E00BF0BEF914
:10206000D8F8F4302A4608F53771404609F05CF894
:10207000029800283AD0014600231022404606F07C
:1020800067F87F1C394640460DF0F5FD0299486718
:102090000298406FB8B13A4604A90DF0CFFE0298FD
:1020A000C0F87CA002998D67C8F8B8920298D0F861
:1020B000E81041F01001C0F8E8100298816841F47E
:1020C0008051816007E0B8F82603DFF83C9740F4C0
:1020D0000040A8F826030299404606F03DFBB9F1FE
:1020E000000F03D00020C8F8C00069E00021C8F844
:1020F000C0100DF5006D3BB0BDE8F08FDFF8109714
:102100000020C8F8C0004FF4806712E03D46B4F5E7
:10211000806F38BF2546641BB8F1000F09D02A46EE
:1021200003A9404605F05EFD2A4603A9404605F096
:10213000D5FD002CEAD1D8F82C010124D8F8B8102C
:10214000C0F3407028B101F44071B1F5407F03D174
:1021500001E0080500D5002481210422C8F8C4123A
:102160006946404605F03EFD54B39DF801209DF8B8
:1021700000109DF80300120402EB01629DF80210AA
:1021800002EB01221018D8F84021904218D0D8F85C
:102190002C11D8F8B800C1F3407129B1400A00F001
:1021A000010080F0010002E0800A00F00100002838
:1021B0001149404602D00BF02BF901E00BF00EF96B
:1021C000B8F8260340F40040A8F8260302994046D8
:1021D00006F0C2FAB9F1000F03D0494640460BF0B1
:1021E0008BF90DF5006D3BB0BDE8F08F104B00088A
:1021F0000C220008D85D0008507B0008E447000866
:10220000746F6F2073686F7274000000746F6F20BA
:102210006D616E792070726F66696C657300000085
:1022200062616420636F6D7072657373696F6E2095
:102230006D6574686F6400002DE9F041ADF5826D45
:102240000446D4F8980288461546002800F0968087
:10225000012844D14FF4806611E0B046B5F5806F97
:1022600038BFA846A5EB08054CB1424604A9204654
:1022700005F0B8FC424604A9204605F02FFD002DCC
:10228000EBD1D4F82C010125D4F8B810C0F340707C
:1022900028B101F44071B1F5407F03D101E0080598
:1022A00000D5002581210422C4F8C41204A92046C7
:1022B00005F098FC002D00F0998204A89DF81010FC
:1022C0004278120402EB01628178C07802EB0122AD
:1022D0001018D4F84021904200F0888270E1401E2E
:1022E0000128C4F8980249D1DFF8B41B20460AF04F
:1022F000D3FD4FF4806611E0B046B5F5806F38BF6E
:10230000A846A5EB08054CB1424604A9204605F0B5
:1023100069FC424604A9204605F0E0FC002DEBD103
:10232000D4F82C010125D4F8B810C0F3407028B1BE
:1023300001F44071B1F5407F03D101E0080500D5FB
:10234000002581210422C4F8C41204A9204605F006
:1023500049FC002D00F04A8204A89DF81010427834
:10236000120402EB01628178C07802EB012210189E
:10237000D4F84021904200F0398221E1D4F8B40031
:10238000C1073CD4DFF81C1B20460BF027F8D4F81B
:10239000B8626F1C66B1D4F8BC02B84213D20021F7
:1023A0002046C4F8B812C4F8BC1231460DF00AFD3C
:1023B000394620460DF05FFC060000F08280C4F82C
:1023C000B862C4F8BC724CB12A463146204605F0CA
:1023D00009FC2A463146204605F080FCD4F82C0141
:1023E0000127D4F8B810C0F34070002800F0CC806A
:1023F00001F44071B1F5407F40F0C980C6E040076C
:10240000C5D54FF4806611E0B046B5F5806F38BF92
:10241000A846A5EB08054CB1424604A9204605F0A4
:10242000E1FB424604A9204605F058FC002DEBD103
:10243000D4F82C010125D4F8B810C0F3407028B1AD
:1024400001F44071B1F5407F03D101E0080500D5EA
:10245000002581210422C4F8C41204A9204605F0F5
:10246000C1FB5DB304A89DF810104278120402EB82
:1024700001628178C07802EB01221018D4F8402163
:1024800090421BD0D4F82C11D4F8B800C1F340719D
:1024900029B1400A00F0010080F0010002E0800A4A
:1024A00000F001000028DFF8001A204604D00AF0EE
:1024B000AFFFDFF8F81960E00AF090FFDFF8EC19E1
:1024C0005BE04FF4806611E0B046B5F5806F38BF31
:1024D000A846A5EB08054CB1424604A9204605F0E4
:1024E00081FB424604A9204605F0F8FB002DEBD104
:1024F000D4F82C010125D4F8B810C0F3407028B1ED
:1025000001F44071B1F5407F03D101E0080500D529
:10251000002581210422C4F8C41204A9204605F034
:1025200061FB4DB304A89DF810104278120402EB31
:1025300001628178C07802EB01221018D4F84021A2
:10254000904219D0D4F82C11D4F8B800C1F34071DE
:1025500029B1400A00F0010080F0010002E0800A89
:1025600000F001000028DFF84019204602D00AF0F0
:102570004FFF01E00AF032FFA34920460AF0BCFFFA
:102580000DF5826DBDE8F081080500D50027812199
:102590000422C4F8C41204A9204605F023FB87B323
:1025A00004A89DF810104278120402EB01628178B1
:1025B000C07802EB01221018D4F84021904220D0BC
:1025C000D4F82C11D4F8B800C1F3407129B1400AF5
:1025D00000F0010080F0010002E0800A00F001003C
:1025E0000028DFF8C418204605D00AF011FF0DF5C9
:1025F000826DBDE8F0810AF0F1FE0DF5826DBDE857
:10260000F081002070553046017869B110F8012F33
:1026100052B110F8011F39B110F8012F002A1CBF68
:1026200010F8011F0029F1D1471C7019811EB94211
:1026300038BF0FF2E01124D317F8010B8DF8040016
:1026400008280CBF06200A20ED1B7519B5FBF0F118
:1026500000FB115010B10FF2D41112E0DFF8900C12
:10266000814228BF0FF2E0110BD2039101EB8101EF
:10267000204649000DF092FB0500029008D1DFF8DA
:10268000741C20460AF008FC0DF5826DBDE8F0814F
:102690000398002840F39F80C1072ED59DF804C001
:1026A000391DBA1C3B78BCF1080F06D12B807B7812
:1026B0006B801278AA80FA7817E097F801C00CEBCB
:1026C00003232B8092F800E0527802EB0E226A80FE
:1026D0000B7891F801C00CEB032CA5F804C011F89D
:1026E000022F4B78891C03EB0222EA800A784B7890
:1026F0008F1C03EB02232B810A3540086BD03B462D
:102700009DF804101A1D03F1020C93F800E008294B
:102710000BD1A5F800E093F801E0A5F802E09CF8E1
:1027200000C0A5F804C0DB7819E05B7803EB0E234A
:102730002B809CF800E09CF801C00CEB0E2CA5F857
:1027400002C0137892F801E00EEB032EA5F804E026
:1027500012F8023F92F801C0921C0CEB0323EB80AD
:10276000137892F801C00CEB032C931C1A1DA5F8EA
:1027700008C0082903F1020C93F800E009D1A5F87C
:102780000AE05978A9819CF800C0A5F80EC0DB7852
:1027900016E0597801EB0E2169819CF800309CF815
:1027A00001C00CEB032CA5F80CC01178537803EB97
:1027B0000123911CEB810A784B7803EB02238A1CDE
:1027C0002B821178537803EB01236B82931C401EFC
:1027D00005F1140594D14146009601236A4620462E
:1027E0000BF028FC029920460DF0ECFA0DF5826DF5
:1027F000BDE8F081F85D00085C7B00085043436948
:102800006C7B0008045E0008E85D0008185E0008A4
:10281000305E00086D616C666F726D656420735088
:102820004C54206368756E6B0000000073504C546C
:10283000206368756E6B2068617320626164206C30
:10284000656E67746800000073504C5420636875AF
:102850006E6B20746F6F206C6F6E6700F0B5ADF516
:10286000A06D83B005461446D5F8B4000E46C207E5
:102870000FD4DFF8301628460AF0B0FD95F857015E
:10288000002840F0F280022C00F0C8804FF48066EF
:1028900079E0400700F17B81002EEFD0317AC80645
:1028A000ECD54FF4806610E03746B4F5806F38BF42
:1028B0002746E41B4DB13A466946284605F092F991
:1028C0003A466946284605F009FA002CECD1D5F8BD
:1028D0002C010124D5F8B810C0F3407028B101F4E0
:1028E0004071B1F5407F03D101E0080500D5002417
:1028F00081210422C5F8C4126946284605F072F900
:102900006CB39DF801209DF800109DF8030012049F
:1029100002EB01629DF8021002EB01221018D5F8BB
:10292000402190421BD0D5F82C11D5F8B800C1F346
:10293000407129B1400A00F0010080F0010002E07E
:10294000800A00F001000028DFF85C15284604D05A
:102950000AF05EFDDFF8A0194EE20AF03FFDDFF855
:10296000981949E23746B4F5806F38BF2746E41B13
:102970004DB13A4601A9284605F034F93A4601A975
:10298000284605F0ABF9002CECD1D5F82C01012438
:10299000D5F8B810C0F3407028B101F44071B1F51A
:1029A000407F03D101E0080500D5002481210422E5
:1029B000C5F8C41201A9284605F014F95CB301A8B2
:1029C0009DF804104278120402EB01628178C0780D
:1029D00002EB01221018D5F8402190421BD0D5F807
:1029E0002C11D5F8B800C1F3407129B1400A00F0AC
:1029F000010080F0010002E0800A00F001000028E0
:102A0000DFF8A414284604D00AF002FDDFF8701C99
:102A1000F2E10AF0E3FCDFF8681CEDE14DB10222BF
:102A20006946284605F0DEF802226946284605F088
:102A300055F90120A5F850019DF800109DF80100FE
:102A400000EB0120A5F8C001D5F82C010124D5F830
:102A5000B810C0F34070002800F0D58101F4407137
:102A6000B1F5407F40F0D281CFE1022840F088806C
:102A7000062C5ED04FF4806610E03746B4F5806FC8
:102A800038BF2746E41B4DB13A4602A9284605F057
:102A9000A9F83A4602A9284605F020F9002CECD105
:102AA000D5F82C010124D5F8B810C0F3407028B136
:102AB00001F44071B1F5407F03D101E0080500D574
:102AC000002481210422C5F8C41202A9284605F079
:102AD00089F85CB302A89DF808104278120402EB52
:102AE00001628178C07802EB01221018D5F84021EC
:102AF00090421BD0D5F82C11D5F8B800C1F3407125
:102B000029B1400A00F0010080F0010002E0800AD3
:102B100000F001000028DFF89013284604D00AF0E6
:102B200077FCDFF85C1B67E10AF058FCDFF8501B0C
:102B300062E14DB106226946284605F053F80622A7
:102B40006946284605F0CAF80120A5F850019DF80D
:102B500000109DF8012002EB0122A5F8BA219DF892
:102B600002109DF8032002EB0122A5F8BC219DF87C
:102B700004009DF8051001EB0021A5F8BE1163E7E4
:102B8000032840F0DC8095F8B40081075DD44FF451
:102B9000806610E03746B4F5806F38BF2746E41BE7
:102BA0004DB13A466946284605F01CF83A46694652
:102BB000284605F093F8002CECD1D5F82C0101241F
:102BC000D5F8B810C0F3407028B101F44071B1F5E8
:102BD000407F03D101E0080500D5002481210422B3
:102BE000C5F8C4126946284604F0FCFF5CB39DF8A2
:102BF00001209DF800109DF80300120402EB016211
:102C00009DF8021002EB01221018D5F840219042E5
:102C100019D0D5F82C11D5F8B800C1F3407129B1FD
:102C2000400A00F0010080F0010002E0800A00F09C
:102C3000010000289C49284603D00AF0E9FB9B4983
:102C4000DAE00AF0CBFB9949D6E0B5F84801A0429A
:102C500005D340F201118C4201D2002C5FD14FF418
:102C6000806610E03746B4F5806F38BF2746E41B16
:102C70004DB13A466946284604F0B4FF3A466946E3
:102C8000284605F02BF8002CECD1D5F82C010124B6
:102C9000D5F8B810C0F3407028B101F44071B1F517
:102CA000407F03D101E0080500D5002481210422E2
:102CB000C5F8C4126946284604F094FF64B39DF831
:102CC00001209DF800109DF80300120402EB016240
:102CD0009DF8021002EB01221018D5F84021904215
:102CE0001AD0D5F82C11D5F8B800C1F3407129B12C
:102CF000400A00F0010080F0010002E0800A00F0CC
:102D0000010000286849284604D00AF081FBDFF85A
:102D1000701971E00AF062FBDFF864196CE05DB1D4
:102D200022460DF58161284604F05CFF22460DF530
:102D30008161284604F0D2FFA5F8504184E64FF4A3
:102D4000806610E03746B4F5806F38BF2746E41B35
:102D50004DB13A466946284604F044FF3A46694672
:102D6000284604F0BBFF002CECD1D5F82C0101243F
:102D7000D5F8B810C0F3407028B101F44071B1F536
:102D8000407F03D101E0080500D500248121042201
:102D9000C5F8C4126946284604F024FF54B39DF8D0
:102DA00001209DF800109DF80300120402EB01625F
:102DB0009DF8021002EB01221018D5F84021904234
:102DC00018D0D5F82C11D5F8B800C1F3407129B14D
:102DD000400A00F0010080F0010002E0800A00F0EB
:102DE000010000283049284602D00AF011FB01E01A
:102DF0000AF0F4FA0FF2B80128460AF07DFB0DF54F
:102E0000A06D03B0F0BD080500D500248121042287
:102E1000C5F8C4126946284604F0E4FE14B39DF8D0
:102E200001209DF800109DF80300120402EB0162DE
:102E30009DF8021002EB01221018D5F840219042B3
:102E400010D0D5F82C11D5F8B800C1F34071C1B934
:102E5000800A00F0010000281349284617D00AF024
:102E6000D7FA16E005F5DC700DF581620090B5F833
:102E70005031314628460BF087F80DF5A06D03B0B0
:102E8000F0BD400A00F0010080F00100E3E70AF025
:102E9000A5FA0020A5F850010DF5A06D03B0F0BD16
:102EA00074570708D85D0008507B0008E447000805
:102EB000696E76616C6964207769746820616C70F2
:102EC0006861206368616E6E656C0000F0B5ADF5F9
:102ED000806D85B005461446D5F8B4000E46C2078D
:102EE0000BD4DFF80C1B28460AF078FA95F8570146
:102EF000032840F0CB800127CCE0410705D495F8AA
:102F00005721032A60D180075ED44FF4806610E019
:102F10003746B4F5806F38BF2746E41B4DB13A46BB
:102F200005A9284604F05EFE3A4605A9284604F0A5
:102F3000D5FE002CECD1D5F82C010124D5F8B81021
:102F4000C0F3407028B101F44071B1F5407F03D166
:102F500001E0080500D5002481210422C5F8C4122F
:102F600005A9284604F03EFE5CB305A89DF81410A0
:102F70004278120402EB01628178C07802EB0122F0
:102F80001018D5F8402190421BD0D5F82C11D5F857
:102F9000B800C1F3407129B1400A00F0010080F08F
:102FA000010002E0800A00F001000028DFF8441A66
:102FB000284604D00AF02CFADFF83C1A2EE10AF079
:102FC0000DFADFF8341A29E1002E8FD0307A81060D
:102FD0008CD54FF4806610E03746B4F5806F38BF6B
:102FE0002746E41B4DB13A4605A9284604F0FAFDF0
:102FF0003A4605A9284604F071FE002CECD1D5F81C
:103000002C010124D5F8B810C0F3407028B101F4A8
:103010004071B1F5407F03D101E0080500D50024DF
:1030200081210422C5F8C41205A9284604F0DAFD5E
:1030300054B305A89DF814104278120402EB016203
:103040008178C07802EB01221018D5F84021904217
:103050001AD0D5F82C11D5F8B800C1F3407129B1B8
:10306000400A00F0010080F0010002E0800A00F058
:1030700001000028DFF87C19284603D00AF0C8F9BF
:103080009D49CBE00AF0AAF99B49C7E080074CBFF5
:1030900006270227BC4261D04FF4806610E0374615
:1030A000B4F5806F38BF2746E41B4DB13A4605A9F9
:1030B000284604F097FD3A4605A9284604F00EFE7E
:1030C000002CECD1D5F82C010124C0F3407038B1AC
:1030D000D5F8B81001F44071B1F5407F05D103E097
:1030E000D5F8B800010500D5002481200422C5F8D8
:1030F000C40205A9284604F075FD64B305A89DF82F
:1031000014104278120402EB01628178C07802EB5D
:1031100001221018D5F8402190421CD0D5F82C017E
:10312000C0F340700028D5F8B80005D0400A00F080
:10313000010080F0010002E0800A00F00100002898
:10314000DFF8B018284604D00AF062F9DFF830152D
:1031500064E00AF043F9DFF828155FE04DB13A4624
:103160006946284604F03EFD3A466946284604F082
:10317000B5FDD5F82C010124C0F3407038B1D5F865
:10318000B81001F44071B1F5407F05D103E0D5F8E6
:10319000B800010500D5002481200422C5F8C4022E
:1031A00005A9284604F01EFD2CB305A89DF81410AF
:1031B0004278120402EB01628178C07802EB0122AE
:1031C0001018D5F84021904215D0D5F82C01C0F345
:1031D00040700028D5F8B80027D1800A00F001001F
:1031E0000028DFF81018284625D00AF011F90DF54F
:1031F000806D05B0F0BD95F8571103293CD19DF8BD
:103200000000002E8DF808001CBFB08A00282BD0CB
:103210009DF80010814214D30FF2E00128460AF015
:103220006BF90DF5806D05B0F0BD400A00F00100AE
:1032300080F00100D4E70AF0D1F80DF5806D05B0FB
:10324000F0BD01EB4101D5F84421505CADF80A0016
:10325000531C921C5C5CADF80C40515CADF80E1038
:103260000021ADF8101039E000210391ADF80A10EB
:103270000021ADF8101031E0890711D49DF800301D
:1032800000229DF801108DF8082001EB0322ADF813
:103290001020ADF80E20ADF80C20ADF80A201DE08E
:1032A00000229DF800108DF808209DF801209DF85F
:1032B000040002EB01229DF80210ADF80A209DF8EF
:1032C000032002EB01229DF80510ADF80C2000222E
:1032D000ADF8102001EB0021ADF80E1002AA314626
:1032E00028460AF0B3FA0DF5806D05B0F0BD000078
:1032F0009A99991998570708104B0008696E7661DA
:103300006C696420696E646578000000F0B5ADF505
:10331000C06D81B004461546D4F8B4000F46C2070C
:1033200011D4DFF8CC1620460AF058F8B4F848213A
:103330006E08964204D140F201108642C0F02F81FF
:103340004FF48066DBE000F00600022860D04FF406
:10335000806610E03746B5F5806F38BF2F46ED1B0D
:103360004CB13A466946204604F03CFC3A46694670
:10337000204604F0B3FC002DECD1D4F82C0101253B
:10338000D4F8B810C0F3407028B101F44071B1F521
:10339000407F03D101E0080500D5002581210422EA
:1033A000C4F8C4126946204604F01CFC6DB39DF8B5
:1033B00001209DF800109DF80300120402EB016249
:1033C0009DF8021002EB01221018D4F8402190421F
:1033D0001BD0D4F82C11D4F8B800C1F3407129B136
:1033E000400A00F0010080F0010002E0800A00F0D5
:1033F00001000028DFF8FC15204604D00AF008F888
:10340000DFF8F415C4E009F0E9FFDFF8EC15BFE0E0
:10341000002F8BD0387A410688D54FF4806610E0B3
:103420003746B5F5806F38BF2F46ED1B4CB13A4695
:103430006946204604F0D6FB3A466946204604F029
:103440004DFC002DECD1D4F82C010125D4F8B81096
:10345000C0F3407028B101F44071B1F5407F03D151
:1034600001E0080500D5002581210422C4F8C4121A
:103470006946204604F0B6FB6DB39DF801209DF827
:1034800000109DF80300120402EB01629DF8021087
:1034900002EB01221018D4F8402190421BD0D4F83E
:1034A0002C11D4F8B800C1F3407129B1400A00F0E2
:1034B000010080F0010002E0800A00F00100002815
:1034C000DFF83015204604D009F0A2FFDFF8C0185D
:1034D0005EE009F083FFDFF8B81859E03746B5F52C
:1034E000806F38BF2F46ED1B4CB13A4669462046E7
:1034F00004F078FB3A466946204604F0EFFB002DC5
:10350000ECD1D4F82C010125D4F8B810C0F34070E8
:1035100028B101F44071B1F5407F03D101E0080505
:1035200000D5002581210422C4F8C4126946204632
:1035300004F058FB5DB39DF801209DF800109DF844
:103540000300120402EB01629DF8021002EB01225B
:103550001018D4F84021904219D0D4F82C11D4F886
:10356000B800C1F3407129B1400A00F0010080F0B9
:10357000010002E0800A00F001000028DFF8741466
:10358000204602D009F044FF01E009F027FF3C4942
:10359000204609F0B1FF0DF5C06D01B0F0BDBEB120
:1035A0000DF5806554B102226946204604F01AFBED
:1035B00002226946204604F091FB00BF9DF80000FE
:1035C0009DF80110761E01EB002125F8021BE9D1C0
:1035D000D4F82C010125D4F8B810C0F3407028B1FC
:1035E00001F44071B1F5407F03D101E0080500D539
:1035F000002581210422C4F8C4126946204604F043
:10360000F1FA35B39DF801209DF800109DF80300F4
:10361000120402EB01629DF8021002EB0122101865
:10362000D4F84021904214D0D4F82C11D4F8B8002A
:10363000C1F34071B9B9800A00F001000028DFF839
:10364000B413204615D009F0E3FE0DF5C06D01B0AE
:10365000F0BD0DF58062394620460AF00BF90DF5F4
:10366000C06D01B0F0BD400A00F0010080F0010023
:10367000E4E709F0B3FE0DF5C06D01B0F0BD000048
:103680001C4B0008F0B5ADF5806D85B004461546BD
:10369000D4F8B4000E46C2070AD4DFF8541320460B
:1036A00009F09CFE092D00F029814FF48066D5E0D9
:1036B00040075DD54FF4806610E03746B5F5806F62
:1036C00038BF2F46ED1B4CB13A4604A9204604F002
:1036D00089FA3A4604A9204604F000FB002DECD1FB
:1036E000D4F82C010125D4F8B810C0F3407028B1EB
:1036F00001F44071B1F5407F03D101E0080500D528
:10370000002581210422C4F8C4126946204604F031
:1037100069FA5DB39DF801209DF800109DF8030043
:10372000120402EB01629DF8021002EB0122101854
:10373000D4F84021904219D0D4F82C11D4F8B80014
:10374000C1F3407129B1400A00F0010080F001008E
:1037500002E0800A00F001000028A649204603D0BC
:1037600009F056FEA449C2E009F038FEA249BEE0C5
:10377000002E97D0307A010694D54FF4806610E081
:103780003746B5F5806F38BF2F46ED1B4CB13A4632
:1037900004A9204604F026FA3A4604A9204604F07B
:1037A0009DFA002DECD1D4F82C010125D4F8B810E5
:1037B000C0F3407028B101F44071B1F5407F03D1EE
:1037C00001E0080500D5002581210422C4F8C412B7
:1037D0006946204604F006FA65B39DF801209DF87D
:1037E00000109DF80300120402EB01629DF8021024
:1037F00002EB01221018D4F8402190421AD0D4F8DC
:103800002C11D4F8B800C1F3407129B1400A00F07E
:10381000010080F0010002E0800A00F001000028B1
:103820007449204604D009F0F3FDDFF864155EE02A
:1038300009F0D4FDDFF8581559E03746B5F5806F2B
:1038400038BF2F46ED1B4CB13A4604A9204604F080
:10385000C9F93A4604A9204604F040FA002DECD1FB
:10386000D4F82C010125D4F8B810C0F3407028B169
:1038700001F44071B1F5407F03D101E0080500D5A6
:10388000002581210422C4F8C4126946204604F0B0
:10389000A9F955B39DF801209DF800109DF803008B
:1038A000120402EB01629DF8021002EB01221018D3
:1038B000D4F84021904218D0D4F82C11D4F8B80094
:1038C000C1F3407129B1400A00F0010080F001000D
:1038D00002E0800A00F0010000284649204602D09C
:1038E00009F096FD01E009F079FDDFF8C0192046E6
:1038F00009F002FE0DF5806D05B0F0BD4CB1092256
:1039000001A9204604F06EF9092201A9204604F01D
:10391000E5F9D4F82C010125D4F8B810C0F34070B3
:1039200028B101F44071B1F5407F03D101E00805F1
:1039300000D5002581210422C4F8C412694620461E
:1039400004F050F92DB39DF801209DF800109DF86A
:103950000300120402EB01629DF8021002EB012247
:103960001018D4F84021904213D0D4F82C11D4F878
:10397000B800C1F3407179BB800A00F00100002853
:103980001C4920462ED009F043FD0DF5806D05B091
:10399000F0BD01A89DF80B30017A027900919DF8E5
:1039A0000910090401EB02619DF80A2001EB0221D4
:1039B0004278CB189DF80410120402EB0162817862
:1039C000C07802EB01223146121820460AF040F975
:1039D0000DF5806D05B0F0BD400A00F0010080F0EB
:1039E0000100CCE709F0FAFC0DF5806D05B0F0BDE3
:1039F000D85D0008507B0008E4470008F0B5ADF53D
:103A0000806D85B005461446D5F8B4000E46C20751
:103A10000AD4DFF89C18284609F0E0FC092C00F0D5
:103A20002C814FF48066D7E0400760D54FF4806664
:103A300010E03746B4F5806F38BF2746E41B4DB120
:103A40003A4604A9284604F0CDF83A4604A9284687
:103A500004F044F9002CECD1D5F82C010124D5F860
:103A6000B810C0F3407028B101F44071B1F5407F47
:103A700003D101E0080500D5002481210422C5F806
:103A8000C4126946284604F0ADF86CB39DF80120D5
:103A90009DF800109DF80300120402EB01629DF8EE
:103AA000021002EB01221018D5F8402190421BD0E1
:103AB000D5F82C11D5F8B800C1F3407129B1400AEE
:103AC00000F0010080F0010002E0800A00F0010037
:103AD0000028DFF8E017284604D009F099FCDFF849
:103AE000D817C3E009F07AFCDFF8CC17BEE0002E4F
:103AF00094D0B068C10591D54FF4806610E0374688
:103B0000B4F5806F38BF2746E41B4DB13A4604A98F
:103B1000284604F067F83A4604A9284604F0DEF87F
:103B2000002CECD1D5F82C010124D5F8B810C0F345
:103B3000407028B101F44071B1F5407F03D101E03C
:103B4000080500D5002481210422C5F8C412694665
:103B5000284604F047F864B39DF801209DF8001052
:103B60009DF80300120402EB01629DF8021002EBC3
:103B700001221018D5F8402190421AD0D5F82C1106
:103B8000D5F8B800C1F3407129B1400A00F0010036
:103B900080F0010002E0800A00F001000028DFF858
:103BA0001417284603D009F033FC79495EE009F088
:103BB00015FC77495AE03746B4F5806F38BF274681
:103BC000E41B4DB13A4604A9284604F00BF83A46E6
:103BD00004A9284604F082F8002CECD1D5F82C0179
:103BE0000124D5F8B810C0F3407028B101F4407139
:103BF000B1F5407F03D101E0080500D50024812103
:103C00000422C5F8C4126946284603F0EBFF5CB3F2
:103C10009DF801209DF800109DF80300120402EBAE
:103C200001629DF8021002EB01221018D5F8402124
:103C3000904219D0D5F82C11D5F8B800C1F34071D5
:103C400029B1400A00F0010080F0010002E0800A82
:103C500000F001000028DFF85C16284602D009F0C9
:103C6000D7FB01E009F0BAFBDFF84016284609F05F
:103C700043FC0DF5806D05B0F0BD4DB1092201A9E1
:103C8000284603F0AFFF092201A9284604F026F8D0
:103C9000D5F82C010124D5F8B810C0F3407028B134
:103CA00001F44071B1F5407F03D101E0080500D572
:103CB000002481210422C5F8C4126946284603F075
:103CC00091FF34B39DF801209DF800109DF803008A
:103CD000120402EB01629DF8021002EB012210189F
:103CE000D5F84021904214D0D5F82C11D5F8B80061
:103CF000C1F3407179BB800A00F001000028DFF8B1
:103D0000B41528462DD009F083FB0DF5806D05B064
:103D1000F0BD01A99DF804004A78CB789DF80440D5
:103D2000120402EB0062887802EB0022D21820060F
:103D30001DD44C7908798B79CF79240404EB006485
:103D400004EB0324E319040617D54FF0FF3043407A
:103D50005B1C5B4211E0400A00F0010080F00100B2
:103D6000CCE709F03BFB0DF5806D05B0F0BD4FF0E1
:103D7000FF304240521C5242DBE7097A284600914C
:103D8000314609F00EFE0DF5806D05B0F0BD000066
:103D9000104B00082DE9F04FADF5806D81B08046E5
:103DA0001746D8F8B4008A46C2073ED4DFF800159B
:103DB000404609F013FBD8F8B8527C1C65B1D8F81E
:103DC000BC02A04213D200214046C8F8B812C8F87D
:103DD000BC1229460BF0F6FF214640460BF04BFF84
:103DE000050000F0F480C8F8B852C8F8BC42B8F139
:103DF000000F09D03A462946404603F0F3FE3A4602
:103E00002946404603F06AFFD8F82C010124D8F86F
:103E1000B810C0F34070002800F03C8101F44071FC
:103E2000B1F5407F40F0398136E1400763D54FF46A
:103E3000806513E0AA46B7F5806F38BFBA46B8F17F
:103E4000000FA7EB0A0709D052466946404603F027
:103E5000C9FE52466946404603F040FF002FE9D1B3
:103E6000D8F82C010125D8F8B810C0F3407028B15B
:103E700001F44071B1F5407F03D101E0080500D5A0
:103E8000002581210422C8F8C4126946404603F087
:103E9000A9FE6DB39DF801209DF800109DF8030068
:103EA000120402EB01629DF8021002EB01221018CD
:103EB000D8F8402190421BD0D8F82C11D8F8B8007F
:103EC000C1F3407129B1400A00F0010080F0010007
:103ED00002E0800A00F001000028DFF8D813404615
:103EE00004D009F095FA0FF6FC01C1E109F076FA69
:103EF0000FF6F001BCE1BAF1000F3FF45CAFDAF865
:103F0000080041057FF557AF4FF4806513E0AA46DE
:103F1000B7F5806F38BFBA46B8F1000FA7EB0A07B4
:103F200009D052466946404603F05CFE5246694657
:103F3000404603F0D3FE002FE9D1D8F82C0101252B
:103F4000D8F8B810C0F3407028B101F44071B1F551
:103F5000407F03D101E0080500D50025812104221E
:103F6000C8F8C4126946404603F03CFE65B39DF8AC
:103F700001209DF800109DF80300120402EB01627D
:103F80009DF8021002EB01221018D8F8402190424F
:103F90001AD0D8F82C11D8F8B800C1F3407129B163
:103FA000400A00F0010080F0010002E0800A00F009
:103FB00001000028BF49404604D009F029FADFF883
:103FC000441B55E109F00AFADFF8381B50E14FF4C1
:103FD000806513E0AA46B7F5806F38BFBA46B8F1DE
:103FE000000FA7EB0A0709D052466946404603F086
:103FF000F9FD52466946404603F070FE002FE9D1B4
:10400000D8F82C010125D8F8B810C0F3407028B1B9
:1040100001F44071B1F5407F03D101E0080500D5FE
:10402000002581210422C8F8C4126946404603F0E5
:10403000D9FD65B39DF801209DF800109DF803009F
:10404000120402EB01629DF8021002EB012210182B
:10405000D8F8402190421AD0D8F82C11D8F8B800DE
:10406000C1F3407129B1400A00F0010080F0010065
:1040700002E0800A00F0010000288E49404604D08A
:1040800009F0C6F9DFF8801AF2E009F0A7F9DFF8C5
:10409000781AEDE0080500D5002481210422C8F833
:1040A000C4126946404603F09DFD9CB39DF8012073
:1040B0009DF800109DF80300120402EB01629DF8C8
:1040C000021002EB01221018D8F84021904221D0B2
:1040D000D8F82C11D8F8B800C1F3407129B1400AC2
:1040E00000F0010080F0010002E0800A00F0010011
:1040F00000287049404606D009F08AF90DF5806D18
:1041000001B0BDE8F08F09F069F90DF5806D01B0DF
:10411000BDE8F08F00202A46E85592F8000068B10B
:1041200012F8011F51B112F8010F38B112F8011F36
:1041300000291CBF12F8010F0028F1D105EB070977
:1041400002F10C00484528BF584980F091809378CF
:104150005078D17817791B0403EB006303EB01233C
:10416000DB195FEA006C04D54FF0FF314B405B1C5C
:104170005B42069393795079D179177A1B0403EB4C
:10418000006303EB0123DB195FEA006C04D54FF0F9
:10419000FF314B405B1C5B420593577A967A02F1E4
:1041A0000B0B0FB9022E04E0012F18BF022F02D112
:1041B000032E04D10DE0032F04D1042E09D00FF2F9
:1041C000FC0155E0042F04DB0FF20811404609F012
:1041D00093F9CDF800B09BF8000080B14FEA0B00D6
:1041E00010F8012F52B110F8011F39B110F8012F4A
:1041F000002A1CBF10F8011F0029F1D10090B10066
:1042000040460BF0CBFD040008BFDFF8FC182FD0B0
:10421000002E35DD224631460098401C8145106055
:104220001AD300E0401C814516D30378A3B1401C8B
:10423000814511D390F800C0BCF1000F0CD0401C98
:10424000814509D303783BB1401C814504D390F8E4
:1042500000C0BCF1000FE5D1814503D3121D491EFA
:10426000DBD10DE0214640460BF0ACFD0FF28001A2
:10427000404609F041F90DF5806D01B0BDE8F08FC1
:1042800004942A46CDF80CB0514602960598069B38
:1042900000900197404609F095FB214640460BF0FF
:1042A00091FD0DF5806D01B0BDE8F08F1C4B00084D
:1042B000D85D0008507B0008E4470008696E76610D
:1042C0006C696420706172616D6574657220636FE2
:1042D000756E7400756E7265636F676E697A65647A
:1042E000206571756174696F6E2074797065000066
:1042F000696E76616C69642064617461000000001D
:104300002DE9F041ADF5826D8046D8F8B400144631
:104310000F46C20740D4DFF8081B404609F05EF89C
:10432000D8F8B862651C66B1D8F8BC02A84213D2AE
:1043300000214046C8F8B812C8F8BC1231460BF04C
:1043400041FD294640460BF096FC060000F05781DF
:10435000C8F8B862C8F8BC52B8F1000F09D02246BC
:104360003146404603F03EFC22463146404603F0CB
:10437000B5FC012500203055D8F82C01D8F8B8102C
:10438000C0F34070002800F09C8101F44071B1F549
:10439000407F40F0998196E1400762D54FF48066F6
:1043A00012E03746B4F5806F38BF2746E41BB8F1FA
:1043B000000F09D03A4603A9404603F013FC3A46E1
:1043C00003A9404603F08AFC002CEAD1D8F82C015E
:1043D0000124D8F8B810C0F3407028B101F440713E
:1043E000B1F5407F03D101E0080500D5002481210B
:1043F0000422C8F8C4126946404603F0F3FB6CB3CC
:104400009DF801209DF800109DF80300120402EBB6
:1044100001629DF8021002EB01221018D8F8402129
:1044200090421BD0D8F82C11D8F8B800C1F34071D5
:1044300029B1400A00F0010080F0010002E0800A8A
:1044400000F001000028DFF8C416404604D008F050
:10445000DFFF0FF29031B1E108F0C0FF0FF28431BD
:10446000ACE1002F65D0B868410462D54FF4806696
:1044700012E03746B4F5806F38BF2746E41BB8F129
:10448000000F09D03A4603A9404603F0ABFB3A4679
:1044900003A9404603F022FC002CEAD1D8F82C01F5
:1044A0000124D8F8B810C0F3407028B101F440716D
:1044B000B1F5407F03D101E0080500D5002481213A
:1044C0000422C8F8C4126946404603F08BFB6CB363
:1044D0009DF801209DF800109DF80300120402EBE6
:1044E00001629DF8021002EB01221018D8F8402159
:1044F00090421BD0D8F82C11D8F8B800C1F3407105
:1045000029B1400A00F0010080F0010002E0800AB9
:1045100000F001000028DFF8F415404604D008F050
:1045200077FF0FF2EC5149E108F058FF0FF2E0512C
:1045300044E1042CBFF4F4AE4FF4806612E0374639
:10454000B4F5806F38BF2746E41BB8F1000F09D0DF
:104550003A4603A9404603F045FB3A4603A94046C4
:1045600003F0BCFB002CEAD1D8F82C010124D8F8C8
:10457000B810C0F3407028B101F44071B1F5407F2C
:1045800003D101E0080500D5002481210422C8F8E8
:10459000C4126946404603F025FB6CB39DF8012028
:1045A0009DF800109DF80300120402EB01629DF8D3
:1045B000021002EB01221018D8F8402190421BD0C3
:1045C000D8F82C11D8F8B800C1F3407129B1400ACD
:1045D00000F0010080F0010002E0800A00F001001C
:1045E0000028DFF82815404604D008F011FF0FF22C
:1045F0002C51E3E008F0F2FE0FF22051DEE0DFF88C
:104600000815404608F078FF4FF4806612E0374600
:10461000B4F5806F38BF2746E41BB8F1000F09D00E
:104620003A4603A9404603F0DDFA3A4603A940465C
:1046300003F054FB002CEAD1D8F82C010124D8F85F
:10464000B810C0F3407028B101F44071B1F5407F5B
:1046500003D101E0080500D5002481210422C8F817
:10466000C4126946404603F0BDFA002C00F0B58044
:104670009DF801209DF800109DF80300120402EB44
:1046800001629DF8021002EB01221018D8F84021B7
:10469000904200F0A280D8F82C11D8F8B800C1F3ED
:1046A000407129B1400A00F0010080F0010002E0F1
:1046B000800A00F001000028DFF85014404651D075
:1046C0002CE0080500D5002581210422C8F8C41279
:1046D0006946404603F086FA35B39DF801209DF8FF
:1046E00000109DF80300120402EB01629DF8021015
:1046F00002EB01221018D8F84021904214D0D8F8CB
:104700002C11D8F8B800C1F3407129BB800A00F021
:1047100001000028DFF8F413404623D008F078FEAB
:104720000DF5826DBDE8F0813078012820D101219E
:104730000022019101AB029202AA2146304607F005
:10474000B7FA30B10198A04203D2411C0191305C0C
:1047500098B10FF2A00131E0400A00F0010080F0B2
:104760000100D6E708F03AFE0DF5826DBDE8F08154
:104770000228DCD00FF2900120E0029800F4C4700F
:10478000B0F5847F18BF0FF2900117D100200D46BD
:10479000029001AB02AA2146304607F089FA10B117
:1047A0000198A04202D00FF2840107E0029800F4C1
:1047B000C470B0F5847F08D00FF28401404608F041
:1047C0009BFE0DF5826DBDE8F0817019731C0090A1
:1047D00032783946404609F0C7F90DF5826DBDE8DB
:1047E000F08100006F7574206F6620706C616365E6
:1047F0000000000062616420776964746820666F5D
:10480000726D617400000000696E76616C696420ED
:10481000756E6974000000006E6F6E2D706F7369A5
:104820007469766520776964746800006261642049
:1048300068656967687420666F726D617400000056
:104840006E6F6E2D706F7369746976652068656927
:1048500067687400F0B5ADF5806D85B00446154607
:1048600094F8B4200E46D30711D4DFF8B41508F03D
:10487000B5FDD4F8B400410744BF40F00800C4F8C7
:10488000B400072D00F0C7804FF4806674E0002E5E
:10489000EFD0B0688105ECD54FF4806610E0374664
:1048A000B5F5806F38BF2F46ED1B4CB13A4604A9D1
:1048B000204603F097F93A4604A9204603F00EFA81
:1048C000002DECD1D4F82C010125D4F8B810C0F398
:1048D000407028B101F44071B1F5407F03D101E08F
:1048E000080500D5002581210422C4F8C41204A9BA
:1048F000204603F077F95DB304A89DF810104278C4
:10490000120402EB01628178C07802EB01221018D8
:10491000D4F8402190421BD0D4F82C11D4F8B80020
:10492000C1F3407129B1400A00F0010080F001009C
:1049300002E0800A00F001000028DFF8341C204665
:1049400004D008F065FD0FF2C8115DE008F046FDE7
:104950000FF2BC1158E03746B5F5806F38BF2F46CF
:10496000ED1B4CB13A4604A9204603F03BF93A4608
:1049700004A9204603F0B2F9002DECD1D4F82C01A3
:104980000125D4F8B810C0F3407028B101F440718B
:10499000B1F5407F03D101E0080500D50025812154
:1049A0000422C4F8C41204A9204603F01BF94DB335
:1049B00004A89DF810104278120402EB016281787D
:1049C000C07802EB01221018D4F84021904219D08F
:1049D000D4F82C11D4F8B800C1F3407129B1400AC1
:1049E00000F0010080F0010002E0800A00F0010008
:1049F0000028DFF87C1B204602D008F009FD01E00A
:104A000008F0ECFC0FF21411204608F075FD0DF5CE
:104A1000806D05B0F0BD4CB1072202A9204603F01D
:104A2000E1F8072202A9204603F058F9D4F82C0136
:104A30000125D4F8B810C0F3407028B101F44071DA
:104A4000B1F5407F03D101E0080500D500258121A3
:104A50000422C4F8C41204A9204603F0C3F825B305
:104A600004A89DF810104278120402EB01628178CC
:104A7000C07802EB01221018D4F84021904214D0E3
:104A8000D4F82C11D4F8B800C1F3407169BB800A86
:104A900000F001000028DFF8D81A20462BD008F0DB
:104AA000B7FC0DF5806D05B0F0BD02A988794A7993
:104AB0000B798DF806009DF808008DF80520CA785E
:104AC0008DF804308B7849788DF803208DF802300A
:104AD0006A4601EB00212046ADF80010314609F08E
:104AE00024FA0DF5806D05B0F0BD400A00F001001C
:104AF00080F00100CEE708F071FC0DF5806D05B087
:104B0000F0BD0000104B0008E85D0008507B000875
:104B10006475706C6963617465000000696E76612C
:104B20006C6964002DE9F041ADF5846D0546D5F85A
:104B3000980288461446002800F0AE80012845D12E
:104B40004FF4806610E03746B4F5806F38BF2746D3
:104B5000E41B4DB13A4608A9284603F043F83A460B
:104B600008A9284603F0BAF8002CECD1D5F82C019E
:104B70000124D5F8B810C0F3407028B101F4407199
:104B8000B1F5407F03D101E0080500D50024812163
:104B90000422C5F8C4126946284603F023F8002C05
:104BA00000F03A819DF801209DF800109DF8030067
:104BB000120402EB01629DF8021002EB01221018B0
:104BC000D5F84021904200F02781D4E0401E012812
:104BD000C5F8980260D14FF4806610E03746B4F50E
:104BE000806F38BF2746E41B4DB13A4608A92846D6
:104BF00002F0F8FF3A4608A9284603F06FF8002CA7
:104C0000ECD1D5F82C010124D5F8B810C0F34070D0
:104C100028B101F44071B1F5407F03D101E00805EE
:104C200000D5002481210422C5F8C4126946284613
:104C300002F0D8FF6CB39DF801209DF800109DF89C
:104C40000300120402EB01629DF8021002EB012244
:104C50001018D5F8402190421BD0D5F82C11D5F86A
:104C6000B800C1F3407129B1400A00F0010080F0A2
:104C7000010002E0800A00F001000028DFF8F018CF
:104C8000284604D008F0C4FBDFF8E8184EE008F02E
:104C9000A5FBDFF8E01849E095F8B400C10703D49C
:104CA0005F49284608F09AFBD5F8B400410744BF95
:104CB00040F00800C5F8B400D5F8B862671C66B1CA
:104CC000D5F8BC02B84212D200212846C5F8B81265
:104CD000C5F8BC1231460BF075F8394628460AF083
:104CE000CAFF06001CD0C5F8B862C5F8BC724DB149
:104CF00022463146284602F075FF224631462846B4
:104D000002F0ECFFD5F82C010127D5F8B810C0F35C
:104D1000407090B101F44071B1F5407F10D10EE0C8
:104D2000DFF85418284608F073FB3E49284608F07F
:104D3000E3FB0DF5846DBDE8F081080500D5002783
:104D400081210422C5F8C4126946284602F04AFFB0
:104D500097B39DF801209DF800109DF80300120400
:104D600002EB01629DF8021002EB01221018D5F847
:104D70004021904220D0D5F82C11D5F8B800C1F3CD
:104D8000407129B1400A00F0010080F0010002E00A
:104D9000800A00F001000028DFF8D417284605D06B
:104DA00008F036FB0DF5846DBDE8F08108F016FBC8
:104DB0000DF5846DBDE8F08100203055304690F847
:104DC000001069B110F8012F52B110F8011F39B16C
:104DD00010F8012F002A1CBF10F8011F0029F1D183
:104DE0003119884218BF401C4FF0FF320024019255
:104DF000029606940794059403900BF0B1F8049082
:104E0000012301AA4146284608F09AFF20B1DFF8A5
:104E10006C17284608F040F80DF5846DBDE8F08168
:104E2000D85D0008E85D00082DE9F24FADF5836D0F
:104E30008346DBF898021646002800F0CA80012855
:104E40005ED135464FF4806612E03746B5F5806F87
:104E500038BF2F46ED1BBBF1000F09D03A4669461B
:104E6000584602F0BFFE3A466946584602F036FF01
:104E7000002DEAD1DBF82C010125DBF8B810C0F3D6
:104E8000407028B101F44071B1F5407F03D101E0D9
:104E9000080500D5002581210422CBF8C4126946FB
:104EA000584602F09FFE002D00F0CB829DF80120B5
:104EB0009DF800109DF80300120402EB01629DF8BA
:104EC000021002EB01221018DBF84021904200F0A2
:104ED000B882DBF82C11DBF8B800C1F3407129B1BE
:104EE000400A00F0010080F0010002E0800A00F0BA
:104EF00001000028DFF87816584600F0738140E181
:104F0000401E0128CBF8980263D135464FF48066E5
:104F100012E03746B5F5806F38BF2F46ED1BBBF169
:104F2000000F09D03A466946584602F05BFE3A4601
:104F30006946584602F0D2FE002DEAD1DBF82C017A
:104F40000125DBF8B810C0F3407028B101F44071BE
:104F5000B1F5407F03D101E0080500D5002581218E
:104F60000422CBF8C4126946584602F03BFE6DB3EA
:104F70009DF801209DF800109DF80300120402EB3B
:104F800001629DF8021002EB01221018DBF84021AB
:104F900090421BD0DBF82C11DBF8B800C1F3407154
:104FA00029B1400A00F0010080F0010002E0800A0F
:104FB00000F001000028DFF8B815584604D008F0CA
:104FC00027FADFF8B01539E208F008FADFF8A4157F
:104FD00034E29BF8B400C10704D4DFF8A4155846A6
:104FE00008F0FCF9DBF8B400410744BF40F00800CA
:104FF000CBF8B400DBF8B84264B1DBF8BC02B042D5
:1050000012D200215846CBF8B812CBF8BC12214678
:105010000AF0D8FE314658460AF02DFE04001FD093
:10502000CBF8B842CBF8BC62BBF1000F09D03246D6
:105030002146584602F0D6FD32462146584602F037
:105040004DFEDBF82C010125DBF8B810C0F34070F1
:10505000002869D001F44071B1F5407F67D165E067
:1050600035464FF4806612E03746B5F5806F38BF9D
:105070002F46ED1BBBF1000F09D03A466946584652
:1050800002F0B0FD3A466946584602F027FE002D70
:10509000EAD1DBF82C010125DBF8B810C0F3407031
:1050A00028B101F44071B1F5407F03D101E008055A
:1050B00000D5002581210422CBF8C4126946584648
:1050C00002F090FD6DB39DF801209DF800109DF851
:1050D0000300120402EB01629DF8021002EB0122B0
:1050E0001018DBF8402190421BD0DBF82C11DBF8C4
:1050F000B800C1F3407129B1400A00F0010080F00E
:10510000010002E0800A00F001000028DFF86014CE
:10511000584604D008F07CF9DFF868148EE108F0F6
:105120005DF9DFF8601489E1080500D500258121CB
:105130000422CBF8C4126946584602F053FD3DB331
:105140009DF801209DF800109DF80300120402EB69
:1051500001629DF8021002EB01221018DBF84021D9
:10516000904215D0DBF82C11DBF8B800C1F3407188
:1051700091BB800A00F001000028DFF8F4135846C4
:1051800030D008F045F90DF5806D07B0BDE8F08F1F
:105190000025F6B116F00300214605D011F8012BC9
:1051A000A2B16D1C401EF9D1B0080FD00A786AB1C7
:1051B0004B786D1C53B18A786D1C3AB1CB786D1C5D
:1051C00023B16D1C401E01F10401EFD1502D00D21E
:1051D0007DB9DFF8EC1B30E1400A00F0010080F0FF
:1051E0000100C9E708F0FAF80DF5806D07B0BDE8D9
:1051F000F08FE91C8E4238BFDFF8C81BC0F01D815C
:105200006019407810B10FF2803116E1A81C4FF000
:10521000FF370090DBF89C02394600281CBF10F1D4
:10522000010F0146009A521C9142C0F09B810098E8
:10523000091A491E11F1010F18BF0F46DBF8C00013
:10524000DBF82C81D8B1000EDFF87C3B8DF8040030
:10525000DBF8C01001A8090C4170DBF8C020120A6D
:105260008270DBF8C010C1700422402107F09EFD5F
:1052700001A9584608F0CCF80020CBF8C0009BF8F4
:10528000B8200021CBF8C410CBF8C810CBF8D01050
:105290009007CBF8D41008D50BF1C40009F09EF8A4
:1052A0000446A4B9CBF8C08015E03822DFF81C1BF7
:1052B0000BF1C40009F0C0F80400F2D1DBF8B8002B
:1052C000CBF8C08040F00200CBF8B80003E02146E4
:1052D000584603F005F9002C40F03D810098361A3D
:1052E0000496DBF8C010DBF82C01DDF81080814259
:1052F00040F09A80DBF8B822009900203C464646F0
:10530000CBF8C80002EB0101CBF8D400CBF8C410F5
:105310004FF48069DBF8C80086194FF0FF3016F1B2
:10532000010F18BF3046361ACBF8C800DBF8D4009E
:1053300005A9CBF8D01000194C46B0F5806F38BFE6
:105340000446CBF8D440041B14BF002104210BF108
:10535000C40009F0E5F80028DCD021460446DBF85B
:10536000C8200023DBF8D400CBF8D03096194118C0
:1053700018BF7F1A0EB1A8EB06082146584603F065
:10538000AFF8012C40F0E3800BF1C40009F026F8DF
:10539000002840F0DA800099039758467918491C94
:1053A000029102990AF067FC060000F0C580DBF864
:1053B000C000DBF82C11884240F08080DBF8B82276
:1053C000009800213C46CBF8C810C2461044CBF8E8
:1053D000D410CBF8C400009B33441800019318BFCD
:1053E000CBF8D030DBF8C8004FF0FF3282441046D3
:1053F0001AF1010F18BF5046DBF8D410AAEB000ACF
:10540000CBF8C80001980C19214618B905AACBF8A9
:10541000D0204A46914288BF1446CBF8D4400C1B9A
:1054200014BF0021042111E0DFF8A4090021CBF80A
:10543000DC00CBF8C010DBF8DC1011B1584608F0E6
:105440005BF80DF5806D07B0BDE8F08F0BF1C4007F
:1054500009F066F80028C5D021460446019818B91D
:105460004FF0000CCBF8D0C0DBF8C830DBF8D4002C
:1054700003EB0A02411818BF7F1A0AB1A8EB020811
:105480002146584603F02CF8012C20D10398B8424D
:105490001BD1009A0021BA18B154009828B1DBF84A
:1054A000B812024630460AF0C9FCDBF8B802CBF865
:1054B000B8620299CBF8BC12064608E00FF6441019
:1054C0006FF00104CBF8DC0001E06FF00604314618
:1054D00058460AF077FC012C39D10498404522D176
:1054E0000021CBF8C010DBF8B8220023DDF8181437
:1054F000EE199E465846941CA355931C2B440192CA
:1055000002930123CDF800E06A460397CDF810E03E
:10551000CDF814E0CDF818E008F012FC002890D087
:105520000FF6181189E70FF6F001584607F0E4FF6F
:105530000020CBF8C000D6E76FF00301584602F018
:10554000CFFF0020CBF8C00075E70121F6E700216E
:10555000CBF8C01002E0012C3FF46DAF012C7FF4BA
:105560006AAFC0E76FF00301584602F0B9FF62E787
:10557000507B0008AC630008143F0708383F070859
:10558000D85D0008E85D0008756E6B6E6F776E2061
:10559000636F6D7072657373696F6E207479706577
:1055A000000000002DE9F24FADF5846D8346DBF875
:1055B00098021646002800F0C88001285DD14FF4FB
:1055C000806512E02F46B6F5806F38BF3746F61B70
:1055D000BBF1000F09D03A466946584602F002FB7B
:1055E0003A466946584602F079FB002EEAD1DBF8CC
:1055F0002C010125DBF8B810C0F3407028B101F48C
:105600004071B1F5407F03D101E0080500D50025C8
:1056100081210422CBF8C4126946584602F0E2FA0E
:10562000002D00F0C8839DF801209DF800109DF822
:105630000300120402EB01629DF8021002EB01224A
:105640001018DBF84021904200F0B583DBF82C11F4
:10565000DBF8B800C1F3407129B1400A00F0010045
:1056600080F0010002E0800A00F001000028DFF86D
:105670006417584600F07A8146E1401E0128CBF8B5
:10568000980262D14FF4806512E02F46B6F5806F24
:1056900038BF3746F61BBBF1000F09D03A466946C2
:1056A000584602F09FFA3A466946584602F016FB01
:1056B000002EEAD1DBF82C010125DBF8B810C0F38D
:1056C000407028B101F44071B1F5407F03D101E091
:1056D000080500D5002581210422CBF8C4126946B3
:1056E000584602F07FFA6DB39DF801209DF8001036
:1056F0009DF80300120402EB01629DF8021002EB18
:1057000001221018DBF8402190421BD0DBF82C114D
:10571000DBF8B800C1F3407129B1400A00F0010084
:1057200080F0010002E0800A00F001000028DFF8AC
:10573000A416584604D007F06BFEDFF8541C37E37C
:1057400007F04CFEDFF8481C32E39BF8B400C107B9
:1057500004D40FF28461584607F040FEDBF8B40031
:10576000410744BF40F00800CBF8B400DBF8B85262
:10577000741C65B1DBF8BC02A04218D20021584667
:10578000CBF8B812CBF8BC1229460AF01BFB214615
:1057900058460AF070FA050004D0CBF8B852CBF89E
:1057A000BC4204E0DFF8EC1B584607F031FE002D48
:1057B00062D14FF4806512E02F46B6F5806F38BF96
:1057C0003746F61BBBF1000F09D03A4669465846EA
:1057D00002F008FA3A466946584602F07FFA002E6F
:1057E000EAD1DBF82C010125DBF8B810C0F34070DA
:1057F00028B101F44071B1F5407F03D101E0080503
:1058000000D5002581210422CBF8C41269465846F0
:1058100002F0E8F96DB39DF801209DF800109DF8A5
:105820000300120402EB01629DF8021002EB012258
:105830001018DBF8402190421BD0DBF82C11DBF86C
:10584000B800C1F3407129B1400A00F0010080F0B6
:10585000010002E0800A00F001000028DFF8741562
:10586000584604D007F0D4FD0FF27C51A0E207F0B7
:10587000B5FD0FF274519BE2BBF1000F09D0324627
:105880002946584602F0AEF932462946584602F0FB
:1058900025FADBF82C010124DBF8B810C0F34070C6
:1058A00028B101F44071B1F5407F03D101E0080552
:1058B00000D5002481210422CBF8C4126946584641
:1058C00002F090F93CB39DF801209DF800109DF87E
:1058D0000300120402EB01629DF8021002EB0122A8
:1058E0001018DBF84021904215D0DBF82C11DBF8C2
:1058F000B800C1F3407199BB800A00F00100002894
:10590000DFF8D014584631D007F082FD0DF5806DD8
:1059100009B0BDE8F08F0022FEB116F00300294661
:1059200000F0068011F8013BA3B1521C401EF9D1D2
:10593000B0080FD00B786BB14C78521C54B18B78F7
:10594000521C3BB1CC78521C24B1521C401E01F1B8
:105950000401EFD1502A00D27AB90FF29C4126E21D
:10596000400A00F0010080F00100C8E707F036FDB2
:105970000DF5806D09B0BDE8F08F501D864238BF2F
:105980000FF2AC41C0F01382691C885C48B1012859
:1059900002BFA8188078002840F0078201210291F8
:1059A00001E0002302930027D21CB24207921DD2CD
:1059B000B11AAB1811F0030000F0068013F8014B88
:1059C000A4B1521C401EF9D189080FD0187868B1D3
:1059D0005C78521C54B19878521C38B1DC78521C57
:1059E00024B1521C491E03F10403EFD1521CB242F0
:1059F00006921DD2B11AAB1811F0030000F0068018
:105A000013F8014BA4B1521C401EF9D189080FD0E4
:105A1000187868B15C78521C54B19878521C38B12F
:105A2000DC78521C24B1521C491E03F10403EFD14F
:105A30000298521C009220B99642C0F09081B71A89
:105A400090E1B24280F08B81DBF89C024FF0FF3195
:105A50000F4600281CBF10F1010F0146521C914255
:105A6000C0F075810098091A491E11F1010F18BF85
:105A70000F46DBF8C000DBF82C81D0B1000ED24B12
:105A80008DF82000DBF8C01008A8090C4170DBF885
:105A9000C020120A8270DBF8C010C17004224021BD
:105AA00007F084F908A9584607F0B2FC0020CBF8AB
:105AB000C0009BF8B8200021CBF8C410CBF8C81068
:105AC000CBF8D0109007CBF8D41008D50BF1C40058
:105AD00008F084FC04469CB9CBF8C08014E038225E
