:020000040800F2
:10000000B0D90020AD750F0899EA0A08B3EA0A08CA
:10001000CDEA0A08E7EA0A0801EB0A080000000036
:10002000000000000000000000000000E5330308AD
:100030001BEB0A08000000008933030835EB0A08AF
:1000400045A40F0849A40F084DA40F0851A40F0898
:1000500055A40F0859A40F085DA40F0861A40F0848
:1000600065A40F0869A40F086DA40F0871A40F08F8
:100070008DEB0A085FEB0A0889EB0A0863EB0A08B4
:1000800075A40F0879A40F087DA40F0881A40F0898
:1000900085A40F0889A40F088DA40F08BDEB0A08DA
:1000A00091A40F0895A40F0899A40F089DA40F0808
:1000B000A1A40F08A5A40F08A9A40F08ADA40F08B8
:1000C000B1A40F08B5A40F08B9A40F08BDA40F0868
:1000D000C1A40F084FEB0A08C5A40F08C9A40F0854
:1000E000CDA40F08D1A40F08D5A40F08D9A40F08D8
:1000F000DDA40F08E1A40F08E5A40F08E9A40F0888
:1001000091EB0A08EDA40F08F1A40F08F5A40F085D
:100110005BEB0A08F9A40F084BEB0A08FDA40F08D3
:1001200001A50F0805A50F0853EB0A0809A50F083C
:100130000DA50F0811A50F0815A50F0819A50F0883
:100140001DA50F0821A50F0825A50F0829A50F0833
:100150002DA50F0831A50F0857EB0A0835A50F0884
:10016000B5EB0A08B9EB0A0839A50F083DA50F0839
:1001700041A50F0845A50F0849A50F08000000007C
:100180004DA50F0851A50F0867EB0A0855A50F08E4
:1001900059A50F085DA50F0861A50F0865A50F08F3
:1001A00095EB0A089BEB0A0869A50F086DA50F08D7
:1001B00071A50F0875A50F0879A50F087DA50F0873
:1001C00081A50F0885A50F080101001A080000008D
:1001D000A7A60F08021303070800000068590F08BC
:1001E000070701060A00000034920F0810130107E8
:1001F000120000007C7D0E080C1701070E000000A5
:10020000B8040E081613010718000000041F0D089B
:100210001113010711000000401F0D08020701061D
:10022000050000003C920F08071901060A000000B3
:10023000701F0F08071902060A0000008C1F0F0824
:100240000C0B01060E00000098430F080E0E020B67
:1002500012000000A81F0F08050801170800000081
:1002600044920F08070201110900000024A60F089C
:10027000030302170800000090A20F0809180006E7
:100280000A000000E8040E080C1301070E0000002D
:10029000A47D0E08081303070E0000007C590F0808
:1002A0000B1301070E000000CC7D0E080B13010795
:1002B0000E000000F47D0E080C1300070E00000075
:1002C0001C7E0E080B1302070E000000447E0E0871
:1002D0000C1301070E0000006C7E0E080C130107C2
:1002E0000E000000947E0E080C1301070E000000A3
:1002F000BC7E0E080C1301070E000000E47E0E0801
:10030000030E030C090000007C6C0F080513020C9F
:100310000900000090590F080D0E020B120000009A
:10032000C41F0F080E07020E120000008C6C0F088D
:100330000D0E030B12000000E01F0F080A13010747
:100340000C0000000C7F0E081416020717000000B6
:10035000CCC70C080F1300070F000000347F0E08F5
:100360000C1302070F0000005C7F0E080D1301073D
:100370000F000000847F0E080E130207110000001A
:10038000AC7F0E080B1302070E000000D47F0E088E
:100390000B1302070D000000FC7F0E080F1301076E
:1003A0001100000024800E080D1302071100000048
:1003B0004C800E080613010709000000A4590F081D
:1003C000081300070A000000B8590F080D130207B0
:1003D0000F00000074800E080A1302070C000000D2
:1003E0009C800E080F13020713000000C4800E0843
:1003F0000D13020711000000EC800E081013010716
:100400001200000014810E080C1302070E000000F9
:100410003C810E08101801071200000018050E0894
:100420000E1302071000000064810E080C13010770
:100430000E0000008C810E081013FF070F00000053
:10044000B4810E080C13020710000000DC810E08B6
:100450000F1300070F00000004820E081713000797
:10046000170000007C1F0D080F1300070F0000008D
:100470002C820E080E1300070E00000054820E0896
:100480000C1301070E0000007C820E0806190206FC
:100490000A000000FC1F0F08091801060A000000EE
:1004A00048050E08061901060A00000018200F086A
:1004B0000F0A020712000000CC590F080E02001CA0
:1004C0000E00000094A20F08050503050E000000B1
:1004D0004C920F080A0E010C0D00000034200F088A
:1004E0000B1402060E000000A4820E080A0E010C76
:1004F0000C00000050200F080B1401060E00000035
:10050000CC820E080B0E010C0D0000006C200F08B1
:100510000914000608000000F4820E080B13010CF9
:100520000E0000001C830E080A1402060E000000D4
:1005300044830E080213020706000000E0590F086A
:100540000618FF0707000000B0430F080B1402064F
:100550000C0000006C830E08021402060600000066
:10056000F4590F08120E010C15000000B04E0E08D1
:100570000A0E020C0E00000088200F080C0E010C61
:100580000E000000A4200F080B13020C0E00000048
:1005900094830E080B13010C0E000000BC830E08A0
:1005A000070E020C090000009C6C0F080A0E010CDB
:1005B0000B000000C0200F0808120008080000000F
:1005C000085A0F080A0E020C0E000000DC200F086B
:1005D0000C0E000C0C000000F8200F08130E000C8D
:1005E00013000000DC4E0E080C0E000C0C00000086
:1005F00014210F080C13000C0C000000E4830E08FB
:10060000090E010C0B00000030210F080A19010629
:100610000C000000F89A0D08021904060A000000F8
:100620004C210F080A1901060C0000002C9B0D0834
:100630000E06020F12000000FC780F080101001ADC
:1006400008000000A8A60F08021303070800000016
:100650001C5A0F080B1601080E000000084F0E0868
:100660000B1301070E0000000C840E080C0C010C8B
:100670000E000000C8430F080E1300070E00000014
:1006800034840E08021904060A00000068210F08CD
:100690000B1801070E00000078050E08070203087A
:1006A0000E00000026A60F08151501071700000010
:1006B000C8ED0C08090C01070C000000E0430F080E
:1006C0000B0C010C0E000000F8430F080E0902117C
:1006D00012000000305A0F08070201110900000043
:1006E00028A60F08151501071700000008EE0C08D2
:1006F0000E0200040E00000098A20F08090901076D
:100700000C000000445A0F080E0F020912000000EE
:10071000BC0A0F08090B02070C00000010440F0868
:10072000080B02070C00000008790F0805050505F5
:100730000E00000054920F080A13020C0E00000075
:100740005C840E080B1701070E000000A8050E08B8
:100750000303030C090000009CA20F080605041AFD
:100760000E0000005C920F08060B04070C0000004E
:1007700014790F080A0C01070C00000028440F0828
:100780000B0C020C0E00000040440F08141302076B
:1007900019000000B81F0D08161302071900000009
:1007A000F41F0D08151302071900000030200D0872
:1007B0000A1301070C00000084840E080F190001C1
:1007C0000F000000609B0D080F1900010F000000D2
:1007D000949B0D080F1900010F000000C89B0D0825
:1007E0000F1800020F000000D8050E080F160004B5
:1007F0000F000000344F0E080F1900010F00000019
:10080000FC9B0D0816130007170000006C200D0854
:100810000D1801070F00000008060E080B19020151
:100820000E000000309C0D080B1902010E000000A4
:10083000649C0D080B1902010E000000989C0D0825
:100840000B1702030E00000038060E0806190101FE
:100850000900000084210F080619010109000000A9
:10086000A0210F080819000109000000BC210F0891
:10087000061701030900000058440F081013000771
:1008800011000000AC840E080D18020211000000D7
:1008900068060E081019010112000000CC9C0D081A
:1008A0001019010112000000009D0D08101901012E
:1008B00012000000349D0D08101801021200000003
:1008C00098060E081017010312000000C8060E0853
:1008D0000D0D030C12000000D8210F0810150106A1
:1008E00012000000604F0E080C19020110000000F9
:1008F000689D0D080C190201100000009C9D0D0858
:100900000C19020110000000D09D0D080C17020305
:1009100010000000F8060E080E1900010E0000007D
:10092000049E0D080A1302070E000000D4840E086E
:100930000B1402060E000000FC840E080A150105C7
:100940000D0000008C4F0E080A1501050D00000077
:10095000B84F0E080A1501050D000000E44F0E08FF
:100960000A1401060D00000024850E080A12010871
:100970000D00000084E30E080A1501050D000000BB
:1009800010500E08140E010C160000003C500E080A
:100990000A13010C0C0000004C850E080B15010514
:1009A0000D00000068500E080B1501050D00000039
:1009B00094500E080B1501050D000000C0500E08E4
:1009C0000B1201080D000000A8E30E080515000534
:1009D0000600000070440F0805150205060000001F
:1009E00088440F080615000506000000A0440F0803
:1009F0000613000706000000585A0F080C130107E1
:100A00000E00000074850E080A1402060E00000095
:100A10009C850E080C1501050E000000EC500E0818
:100A20000C1501050E00000018510E080C150105EB
:100A30000E00000044510E080C1401060E000000C8
:100A4000C4850E080C1201080E000000CCE30E084D
:100A50000F0E020B12000000F4210F080C10010B06
:100A60000E000000DC0A0F080A1502050E00000047
:100A700070510E080A1502050E0000009C510E0868
:100A80000A1502050E000000C8510E080A120208DD
:100A90000E000000F0E30E080C1A00050C00000028
:100AA000389E0D080B1902060E0000006C9E0D0802
:100AB0000C1700080C00000028070E080F17000391
:100AC0000F00000058070E080A1301070D00000070
:100AD000EC850E080F1900010F000000A09E0D0804
:100AE0000A1401060D00000014860E0810180007F5
:100AF0000F00000088070E080B13010C0D0000000A
:100B00003C860E080D1901010F000000D49E0D084F
:100B10000A1501050C000000F4510E080D19010121
:100B20000F000000089F0D080A1501050C000000C9
:100B300020520E080D1701030F000000B8070E0821
:100B40000A1201080C00000014E40E080D1901013E
:100B50000F0000003C9F0D080A1501050C00000065
:100B60004C520E080E19020111000000709F0D0872
:100B7000101401061100000064860E08101300070F
:100B8000110000008C860E080D1401060E000000F6
:100B9000B4860E080B1702030E000000E8070E08CB
:100BA0000B1301070D000000DC860E080B19020173
:100BB0000E000000A49F0D080B1401060D0000009C
:100BC00004870E080B1702030E00000018080E0819
:100BD0000B1201080D00000038E40E080B18020784
:100BE0000E00000048080E080B13010C0D00000059
:100BF0002C870E080B1902010E000000D89F0D086B
:100C00000B1501050D00000078520E080F190101A7
:100C1000110000000CA00D080B1A01050E000000C9
:100C200040A00D080F1901011100000074A00D086B
:100C30000B1901060E000000A8A00D080F170103F4
:100C40001100000078080E080B1701080E000000C4
:100C5000A8080E080F18010711000000D8080E0898
:100C60000B1A01050E000000DCA00D080D19020191
:100C70001100000010A10D080A1902010E00000069
:100C800044A10D081213000712000000A8200D084F
:100C90000C1400060E00000054870E08081900010D
:100CA0000900000010220F080614000606000000CC
:100CB0006C5A0F080818000209000000B8440F0819
:100CC0000613000706000000805A0F0806190101EC
:100CD000090000002C220F08061400060600000080
:100CE000945A0F080618010709000000D0440F08A5
:100CF0000418010706000000E8440F080617010366
:100D00000900000000450F08020E020C060000005A
:100D1000AC6C0F080F130107120000007C870E084F
:100D2000091802070D00000008090E080919000142
:100D30000A00000078A10D08081AFF05070000004E
:100D400048220F080D1802070F00000038090E088E
:100D50000B1902060C000000ACA10D080B0E020CD2
:100D60000C00000064220F080A1902010C000000A8
:100D7000E0A10D08051902010600000080220F08FD
:100D80000A1802070C00000068090E080519010680
:100D9000060000009C220F080A1402060C00000046
:100DA000A4870E080814020609000000A85A0F08BC
:100DB0000A1302070C000000CC870E080814020674
:100DC0000B000000BC5A0F080D1300070D000000B7
:100DD000F4870E080614000607000000D05A0F081A
:100DE0000D1902011100000014A20D080A150205D8
:100DF0000E000000A4520E080D180207110000009A
:100E000098090E080A13020C0E0000001C880E0838
:100E10000D1902011100000048A20D080A15020573
:100E20000E000000D0520E081014FF061100000042
:100E300044880E080D18020711000000C8090E08AA
:100E40000A13020C0E0000006C880E081017010334
:100E500012000000F8090E080C1301070E00000034
:100E600094880E0810190101120000007CA20D08E0
:100E70000C1401060E000000BC880E0810190101B8
:100E800012000000B0A20D080C1501050E000000B4
:100E9000FC520E081613010718000000E4200D088C
:100EA000150E010C1700000028530E080E19020140
:100EB00010000000E4A20D0807150205090000005B
:100EC00018450F080E18020710000000280A0E0827
:100ED0000813010C09000000E45A0F080E19020162
:100EE0001000000018A30D080815020509000000F5
:100EF00030450F080C1901010E0000004CA30D082D
:100F00000A1501050B00000054530E080C190101CD
:100F10000E00000080A30D080A1501050B0000005B
:100F200080530E080C1801070E000000580A0E0826
:100F30000A13010C0B000000E4880E080C190101D3
:100F40000E000000B4A30D080A1501050B000000F7
:100F5000AC530E081018FF070F000000880A0E0897
:100F6000081700080800000048450F081019FF0185
:100F70000F000000E8A30D080C1400060C00000090
:100F80000C890E081013FF070F00000034890E08AB
:100F90000812000808000000F85A0F080C18020296
:100FA00010000000B80A0E080A1402060E00000025
:100FB0005C890E080C17020310000000E80A0E08F6
:100FC0000A1302070E00000084890E080C190201A2
:100FD000100000001CA40D080A1402060E000000F8
:100FE000AC890E080C1902011000000050A40D0875
:100FF0000A1502050E000000D8530E080D19020153
:101000001000000084A40D080A1502050E0000005F
:1010100004540E080C18020710000000180B0E08EC
:101020000B13020C0E000000D4890E0817190001E2
:1010300017000000284E0C081315000513000000CF
:1010400048EE0C080E1900010E000000B8A40D08AF
:101050000C1A00050C000000ECA40D080E1700038C
:101060000E000000480B0E080C1901010E000000D4
:1010700020A50D08091501050B00000030540E08CD
:101080000C1701030E000000780B0E08091201086E
:101090000B0000005CE40E080C1901010E000000BA
:1010A00054A50D08091501050B0000005C540E083D
:1010B00006140206060000000C5B0F080D14000663
:1010C0000E000000FC890E0810130007110000003C
:1010D000248A0E080C1302070F0000004C8A0E0829
:1010E0000B1402060E000000748A0E080F1300078E
:1010F0000F0000009C8A0E080D1400060E00000070
:10110000C48A0E080D1301070F000000EC8A0E08B8
:10111000111501050F00000088EE0C080E110109E1
:101120000C00000080E40E081013000711000000FE
:10113000148B0E08121300071300000020210D0865
:101140000C1301070F0000003C8B0E080B14010666
:101150000E000000648B0E080C13010C0E00000042
:101160008C8B0E080B1301070E000000B48B0E08C9
:101170001013010712000000DC8B0E080C1301078E
:101180000D000000048C0E080F18FE070D00000073
:10119000A80B0E080E1500070E00000088540E085C
:1011A0001315010511000000C8EE0C080F18000708
:1011B0000F000000D80B0E081214020616000000E3
:1011C0005C210D080214020606000000205B0F08D7
:1011D0000813000709000000345B0F080D13020715
:1011E0000F0000002C8C0E080B1402060C000000EF
:1011F000548C0E080614000607000000485B0F0818
:101200000C1400060C0000007C8C0E081213020760
:101210001600000098210D081118FE0711000000AB
:101220008C860C080A13020C0E000000A48C0E0819
:101230001013010712000000CC8C0E0812130107D6
:1012400013000000D4210D080D1101090E0000004B
:10125000A4E40E081518010717000000D4860C0836
:101260000E13010C11000000F48C0E08101300077F
:10127000100000001C8D0E080B1902060E00000065
:1012800088A50D080D1502070E000000B4540E08C5
:101290000C1301070E000000448D0E080A0E000C0E
:1012A0000B000000B8220F080D1301070E0000000C
:1012B0006C8D0E080D1900060E000000BCA50D086F
:1012C000081700080800000060450F080F1300070A
:1012D0000F000000948D0E0808140006080000009E
:1012E0005C5B0F080E1800070F000000080C0E08CA
:1012F000111602041200000010C80C080E11020999
:101300000F000000C8E40E081113010712000000CE
:1013100010220D080C13020710000000BC8D0E08EF
:1013200011130007110000004C220D0811180007CE
:101330000C0000001C870C080C1301070E000000B5
:10134000E48D0E08090E010C0B000000D4220F08DA
:101350000C1800070D000000380C0E080C180107CF
:101360000D000000680C0E080A13010C0B000000B1
:101370000C8E0E080913010C0B000000348E0E08B1
:101380000B1301070E0000005C8E0E080C13010702
:101390000E000000848E0E080A0E000C0B000000E8
:1013A000F0220F080B1200080C000000ECE40E08FD
:1013B0000B13020C0E000000AC8E0E08021904067E
:1013C0000A0000000C230F08061902060A0000009C
:1013D00028230F080E19020612000000F0A50D08C0
:1013E0000213030708000000705B0F081C190201BC
:1013F0001F0000003C830B08191502051C000000AB
:10140000601B0C08171501051900000008EF0C08F7
:10141000141302071800000088220D081118020793
:101420001500000064870C08081902060C00000073
:1014300044230F08171302071B000000C4220D08E5
:101440001318020717000000AC870C0811180207D8
:1014500015000000F4870C080F1900010F000000B0
:1014600024A60D080A1501050D000000E0540E0821
:10147000081900010900000060230F080815FF0586
:101480000600000078450F08101901011200000045
:1014900058A60D080C1501050E0000000C550E088D
:1014A0000C190201100000008CA60D080A15020597
:1014B0000E00000038550E080C1902011000000043
:1014C000C0A60D080A1602040E00000064550E089E
:1014D0000C19020110000000F4A60D080A160204FF
:1014E0000E00000090550E080C19020110000000BB
:1014F00028A70D080A1802020E000000980C0E081A
:101500000C190201100000005CA70D080A16020465
:101510000E000000BC550E080B0E010C0D00000063
:101520007C230F080F1900010F00000090A70D0881
:101530000A1601040D000000E8550E080F190001FD
:101540000F000000C4A70D080A1601040D000000DA
:1015500014560E0816170003170000003C880C08EC
:10156000141301071600000000230D0810130107D3
:1015700011000000D48E0E080C13010C0E000000A8
:10158000FC8E0E080F19010111000000F8A70D08CC
:101590000B1A01050E0000002CA80D080D19020100
:1015A0000F00000060A80D080B1902010C000000DC
:1015B00094A80D081018010712000000C80C0E08AE
:1015C0000C13010C0E000000248F0E08101C0103E8
:1015D0001200000014680D080C1801070E0000002E
:1015E000F80C0E080C1E00010D0000003C230D0835
:1015F0000A1A00050B000000C8A80D08081AFF050C
:101600000700000098230F081C1302071F000000AA
:10161000744E0C08191302071C000000C04E0C0881
:10162000171401061900000078230D080F19010195
:1016300011000000FCA80D080B1A01050E000000A7
:1016400030A90D081513020719000000B4230D0876
:101650000B1802070E000000280D0E080D190201DC
:101660001100000064A90D080A1502050E00000013
:1016700040560E080F1900010F00000098A90D0830
:101680000A1701030D000000580D0E08161900017D
:10169000170000000C4F0C0814150105160000007F
:1016A00048EF0C08101A010112000000CCA90D0827
:1016B0000C1601050E0000006C560E080F190001F3
:1016C0000F00000000AA0D080B1500050D0000001A
:1016D00098560E080F1900010F00000034AA0D08DB
:1016E0000A1401060D0000004C8F0E080B190201B0
:1016F0000E00000068AA0D080B1501050D00000082
:10170000C4560E080B1902010E0000009CAA0D0819
:101710000B1401060D000000748F0E080A19FE015B
:1017200009000000D0AA0D080A15FD0506000000FA
:10173000F0560E080819000109000000B4230F0834
:101740000814FF0606000000845B0F081019010151
:101750001200000004AB0D080C1501050E0000007E
:101760001C570E08101901011200000038AB0D08BB
:101770000C1401060E0000009C8F0E080F190101C9
:10178000100000006CAB0D080A15000509000000F0
:1017900048570E080E19020110000000A0AB0D08FA
:1017A0000814020609000000985B0F080C190201DA
:1017B00010000000D4AB0D080B1501050E00000051
:1017C00074570E080C1902011000000008AC0D0837
:1017D0000A1402060E000000C48F0E080C18010740
:1017E0000E000000880D0E080A13010C0B0000000B
:1017F000EC8F0E081018FF070F000000B80D0E0840
:10180000081700080800000090450F080B18010792
:101810000D000000E80D0E080A13000C0B0000007C
:1018200014900E080D190201110000003CAC0D08C7
:101830000A1902010E00000070AC0D080D18020715
:1018400010000000180E0E08121901061300000007
:10185000584F0C080D1301070F0000003C900E08B4
:101860000B1301070D00000064900E080D16010710
:101870000E000000A0570E080A11010C0B0000001A
:1018800010E50E080F1700030F000000480E0E08A9
:101890000A1201080D00000034E50E080B180207BB
:1018A0000E000000780E0E080B13010C0D00000056
:1018B0008C900E081019010112000000A4AC0D0854
:1018C0000C1601040E000000CC570E08101901017F
:1018D00012000000D8AC0D080C1701030E00000028
:1018E000A80E0E081017010312000000D80E0E08F3
:1018F0000C1201080E00000058E50E081019010135
:10190000120000000CAD0D080C1601040E000000C2
:10191000F8570E080E1700030E000000080F0E08FF
:101920000C1800070C000000380F0E080A190106F9
:101930000B00000040AD0D081113020C1300000055
:10194000F0230D080B1200080B0000007CE50E08C8
:101950000613FF0C07000000AC5B0F08141401060F
:10196000160000002C240D081413010C16000000B2
:1019700068240D08101600060F00000024580E08F9
:10198000101601060F00000050580E080C13010934
:101990000C000000B4900E080D13FF070C000000AF
:1019A000DC900E081116FF060F00000054C80C084A
:1019B0000A13010C0B00000004910E080913010C1E
:1019C0000B0000002C910E080D1400060E00000004
:1019D00054910E080B1200070C000000A0E50E0841
:1019E0000D1301070F0000007C910E080E13010774
:1019F00010000000A4910E080F1300070F00000054
:101A0000CC910E080B1802050E000000680F0E089E
:101A10000B1801070D000000980F0E0809130007AE
:101A20000A000000F4910E080718FF0707000000E5
:101A3000A8450F08131801071200000084880C083D
:101A40000F13010C0E0000001C920E080F1301076B
:101A50001000000044920E08080E010C090000005E
:101A6000BC6C0F080E1300070E0000006C920E08ED
:101A70000C13000C0C00000094920E080A0E020CCD
:101A80000D000000D0230F080B0E010C0E0000000B
:101A9000EC230F080B0E020C0E00000008240F08A8
:101AA0000B1402060E000000BC920E080A0E010C78
:101AB0000C00000024240F080B0E000C0C0000008A
:101AC00040240F08101901060E00000074AD0D0827
:101AD000101401060E000000E4920E080B0E010C1B
:101AE0000D0000005C240F080B0E010C0D0000001F
:101AF00078240F08110E010C120000007C580E080B
:101B00000A0E010C0B00000094240F080A0E000CB2
:101B10000B000000B0240F08100E000C1000000095
:101B2000CC240F080B0E010C0D000000E8240F0858
:101B30000913FF0C080000000C930E081019010691
:101B40000E000000A8AD0D080B13010C0E000000E4
:101B500034930E080B0E010C0D00000004250F0835
:101B60000C13000C0C0000005C930E080F0E000C10
:101B70000F00000020250F080A13020C0E000000C1
:101B800084930E080A1402060E000000AC930E089F
:101B90000A1902060E000000DCAD0D08061300074E
:101BA00006000000C05B0F08020E020C06000000D9
:101BB000CC6C0F08060E010C09000000DC6C0F084D
:101BC0000A1400060A000000D4930E080714000649
:101BD00007000000D45B0F0806190206060000008B
:101BE0003C250F080B1902060E00000010AE0D0870
:101BF000120E010C15000000A8580E081213010C5B
:101C000015000000A4240D081213010C150000009B
:101C1000E0240D080F13FD0C0E000000FC930E08CD
:101C20000E13020C0E00000024940E080A0E020C83
:101C30000E00000058250F080C0E010C0E000000CD
:101C400074250F08110E010C14000000D4580E0862
:101C5000100E010C1200000090250F080C1901064F
:101C60000E00000044AE0D08070E000C0900000035
:101C7000EC6C0F080714000609000000E85B0F0871
:101C80000C13000C090000004C940E080713020C02
:101C900009000000FC5B0F080713020C090000009C
:101CA000105C0F08070E020C09000000FC6C0F0806
:101CB0000713000C09000000245C0F080B0E020C37
:101CC0000D000000AC250F080B0E020C0D000000EB
:101CD000C8250F080A13010C0B00000074940E08AD
:101CE0000C1901060E00000078AE0D080C19FF0655
:101CF00008000000ACAE0D080C13010C0E00000033
:101D00009C940E080D1900060E000000E0AE0D08B0
:101D10000812000808000000385C0F0808170008C7
:101D200008000000C0450F080E0E000C0E00000059
:101D3000E4250F080C0E020C1000000000260F080E
:101D40000A0E020C0E0000001C260F080C0E000CE0
:101D50000C00000038260F08130E000C13000000C2
:101D600000590E080C1300070C000000C4940E0864
:101D70000B0E000C0B00000054260F080E13010C74
:101D80000B000000EC940E080D10010C0E0000007A
:101D9000FC0A0F080A13000C0B00000014950E0833
:101DA0000B13000C0B0000003C950E080B140006F2
:101DB0000C00000064950E080B1401060C000000D6
:101DC0008C950E080B1400060C000000B4950E084C
:101DD0000B13010C0C000000DC950E08101301071A
:101DE0001200000004960E080A0E020C0D000000FE
:101DF00070260F080B0E010C0D0000008C260F083A
:101E00000F1101090D000000C4E50E080A0E020CB6
:101E10000E000000A8260F080A1800070A0000009C
:101E2000C80F0E080B13FF0C0C0000002C960E08B8
:101E3000080E020C0A0000000C6D0F0810190106B4
:101E40000E00000014AF0D080B1400060C0000007B
:101E500054960E080B1401060C0000007C960E0828
:101E600014140106160000001C250D0814190106A3
:101E700016000000A44F0C081816010619000000F7
:101E800098C80C0811120008110000004C680D08D9
:101E90000F1900060E00000048AF0D0811120008CF
:101EA0001200000084680D081219000614000000DA
:101EB000F04F0C080E14020610000000A4960E0845
:101EC0000B1402060E000000CC960E080B1301073F
:101ED0000C000000F4960E080A1202080E00000022
:101EE000E8E50E080F13000C110000001C970E0807
:101EF0001313000C1300000058250D08080D0108ED
:101F00000A0000001C6D0F08080D01080A000000FF
:101F10002C6D0F0805100008060000003C6D0F082E
:101F20000509010C0600000020790F080509000CC6
:101F3000060000002C790F08080C000C06000000B9
:101F400038790F080809010C0900000044790F08CE
:101F50000C09000C0C0000004C5C0F08090C000C74
:101F600009000000D8450F08050802070700000017
:101F700064920F080A0801070C0000004C6D0F085E
:101F80000507FF06050000006C920F080507010613
:101F90000500000074920F080507FF060500000009
:101FA0007C920F08040705050E00000084920F08BC
:101FB000040705050E0000008C920F08070D0108AC
:101FC000090000005C6D0F08070D01080900000002
:101FD0006C6D0F080D0E020B12000000C4260F08D6
:101FE0000D0E030B12000000E0260F080E0D020C70
:101FF00012000000FC260F080E0D020C120000005B
:1020000018270F08080503050E00000094920F081A
:10201000080503050E0000009C920F080205060546
:102020000E000000A4920F08090202070E00000033
:10203000A0A20F08050505050E000000AC920F08D0
:10204000050503050E000000B4920F080204061BEC
:102050000E000000A4A20F080902021D0E000000DD
:10206000A8A20F080505031A0E000000BC920F0875
:102070000505061A0E000000C4920F08030E030C9B
:10208000090000007C6D0F08030303110900000024
:10209000ACA20F080407050F0E000000CC920F0839
:1020A0000407050F0E000000D4920F080604011467
:1020B00008000000B0A20F08060401140800000088
:1020C000B4A20F080604011408000000B8A20F080B
:1020D000090202140E000000BCA20F080805030646
:1020E0000E000000DC920F08020206080E0000003D
:1020F0002AA60F08070703050E000000E4920F0848
:102100000405041A0E000000EC920F080A040206EF
:102110000E000000F4920F080A0503050E000000EF
:1021200050790F080705001108000000FC920F0805
:10213000080801070A00000004930F08080C000CAF
:10214000080000005C790F08020D0108040000007F
:102150008C6D0F080709010C0900000068790F0851
:102160000709000C0800000074790F08070D01082A
:10217000090000009C6D0F08061202080A0000000A
:10218000605C0F08061202080A000000745C0F0869
:10219000061202080A000000885C0F0806120208F6
:1021A0000A0000009C5C0F08061202080A000000EA
:1021B000B05C0F08060B010F0800000080790F08C3
:1021C000060B010F080000008C790F080805031AA0
:1021D0000E0000000C930F08070303070E00000019
:1021E000C0A20F080A0701060A000000AC6D0F0824
:1021F0000503041B0E000000C4A20F080503041B06
:102200000E000000C8A20F080305051A0E0000000A
:1022100014930F080305051A0E0000001C930F0805
:102220000404051B0E000000CCA20F0805050311D5
:102230000E00000024930F080A0501110E00000093
:1022400098790F080A0503110E000000A4790F0801
:102250000A04021B0E0000002C930F08030D030755
:1022600009000000BC6D0F08050504070E00000002
:1022700034930F08050505070E0000003C930F0876
:10228000050504150E00000044930F08050505150B
:102290000E0000004C930F080905021A0E00000002
:1022A000B0790F080905021A0E000000BC790F086A
:1022B000060701180800000054930F080505F705EC
:1022C000000000005C930F080505F8050000000001
:1022D00064930F080805FC05000000006C930F08CC
:1022E0000A04F4010000000074930F080902FB07C0
:1022F00000000000D0A20F080E02F9040000000048
:10230000D4A20F080805FC06000000007C930F080B
:102310000202FF08000000002CA60F080802FC08BB
:10232000000000002EA60F080405050500000000AF
:1023300084930F080707FC05000000008C930F082A
:102340000A05FB0500000000C8790F080805FC0518
:102350000000000094930F080205FF050000000034
:102360009C930F080505FE0500000000A4930F08CC
:102370000A05FB0500000000D4790F080807FC04DB
:1023800000000000AC930F080805FC0600000000E8
:10239000B4930F080205FF0600000000BC930F086D
:1023A0000205FF0600000000C4930F080205FF06A7
:1023B00000000000CC930F08020501060000000099
:1023C000D4930F080505FD1A00000000DC930F08E8
:1023D0000505FD1A00000000E4930F080504FE1B2C
:1023E00000000000D8A20F080504FE1B000000003A
:1023F000DCA20F080906FB0400000000E0790F08CA
:102400000406000300000000EC930F080204FF1B09
:1024100000000000E0A20F080604FD1B0000000001
:10242000E4A20F080604FD1B00000000E8A20F084C
:102430000604FD1B00000000ECA20F080902FB1DB2
:1024400000000000F0A20F080607FC1800000000C2
:10245000F4930F080607001800000000FC930F0813
:102460000202061C0000000030A60F080802FC1D36
:102470000000000032A60F080404FE1B000000004C
:10248000F4A20F080204FF1B00000000F8A20F08CE
:102490000605FD1A0000000004940F080405FE1A4A
:1024A000000000000C940F080204FF1B0000000055
:1024B000FCA20F080904FB1B0000000014940F0885
:1024C0000903FC1C000000001C940F080804FC1BFE
:1024D0000000000000A30F080804FC1B000000001F
:1024E00004A30F080804FC1B0000000008A30F0849
:1024F0000804FC1B000000000CA30F080A04FB1BCF
:102500000000000024940F080902FB1D00000000D9
:1025100010A30F080E02F91C0000000014A30F08FE
:102520000A04FB1B000000002C940F080A04FB0E99
:102530000000000034940F080902FB1000000000A6
:1025400018A30F080E02F910000000001CA30F08CA
:102550000A09FB0D00000000C45C0F080918FB0607
:1025600000000000F80F0E080204FF1B000000002E
:1025700020A30F080904FB1B000000003C940F0877
:102580000404FE1B0000000024A30F080903FC1C28
:102590000000000044940F080606FD030000000040
:1025A0004C940F080206FF040000000054940F082A
:1025B0000E05F90100000000EC790F080A04FB0683
:1025C000000000005C940F080205FF0600000000F8
:1025D00064940F080905FC0500000000F8790F0855
:1025E0000304FE1B0000000028A30F080904FB05DC
:1025F000000000006C940F080E04F91B000000009E
:1026000074940F080504FE1B000000002CA30F08A3
:102610000504FE1B0000000030A30F080A06FB059E
:1026200000000000047A0F080A08FB030000000005
:10263000CC6D0F080A06FB0400000000107A0F089A
:102640000604FD1B0000000034A30F080604FD1B58
:102650000000000038A30F081211F7090000000065
:102660007CAF0D080305FD05000000007C940F08F9
:102670000407FE050000000084940F080807FC040E
:10268000000000008C940F080505FD1A00000000F2
:1026900094940F080305FF1A000000009C940F0893
:1026A0000305FE1A00000000A4940F080805FD1A97
:1026B00000000000AC940F080407FE0500000000B5
:1026C000B4940F08020206080000000034A60F08A8
:1026D0000504FE1B000000003CA30F080704FD1BBF
:1026E0000000000040A30F080405FE0600000000E3
:1026F000BC940F081305F61A00000000DC6D0F08EB
:102700001305FE0600000000EC6D0F081302FE0624
:1027100000000000C4940F081302FE1D000000001A
:10272000CC940F081304FE06000000001C7A0F086A
:102730001305FE0600000000FC6D0F080E04FE1BD2
:1027400000000000D4940F080507FD0400000000FD
:10275000DC940F080607FD0400000000E4940F0855
:102760000109FF0200000000287A0F080607FD0497
:1027700000000000EC940F080507FD0400000000B5
:10278000F4940F080507FD0400000000FC940F08F6
:10279000060AFD0100000000347A0F08050AFD0159
:1027A00000000000407A0F080907FB040000000049
:1027B0000C6E0F080307FE040000000004950F08CC
:1027C0000409FE02000000004C7A0F080507FD0412
:1027D000000000000C950F080507FD040000000034
:1027E00014950F08040505050E0000001C950F0840
:1027F0000404051B0E00000044A30F080304051B7E
:102800000E00000048A30F080A0E010C0C00000087
:1028100034270F080A0E010C0C00000050270F0887
:102820000A0E010C0C0000006C270F080513020CA7
:1028300009000000D85C0F08030505050E00000024
:1028400024950F08090502050E000000587A0F08AC
:102850000F1300070F00000044970E080303030C3A
:10286000090000004CA30F0810130007110000001E
:102870006C970E08121300071400000094250D0831
:102880000A1300070C00000094970E0813130007AA
:1028900014000000D0250D081213000712000000DC
:1028A0000C260D08141300071400000048260D081C
:1028B0000815FF0506000000F0450F080F1300077C
:1028C0000F000000BC970E080C1302070F00000059
:1028D000E4970E080B1302070D0000000C980E0879
:1028E0000F1300070F00000034980E080B130207A7
:1028F0000E0000005C980E080C1301070E0000008B
:1029000084980E080D13020711000000AC980E0801
:102910001013010712000000D4980E0806130107D7
:1029200009000000EC5C0F080D1302070F00000007
:10293000FC980E080F1300070F00000024990E08E2
:102940000F130207130000004C990E080D13020725
:102950001100000074990E080C1301070E0000000E
:102960009C990E081013010712000000C4990E086C
:102970000D13020711000000EC990E080C1302075A
:102980000E000000149A0E080D1301070E0000003F
:102990003C9A0E081013FF070F000000649A0E08FF
:1029A0000E1300070E0000008C9A0E08101301078A
:1029B00013000000B49A0E080F1300070F00000068
:1029C000DC9A0E081013020714000000049B0E0886
:1029D000111301071200000084260D0806170103D9
:1029E0000900000008460F080E1700030E00000043
:1029F00028100E080B1501050E0000002C590E08BA
:102A00000A1501050B00000058590E080A1A0205A4
:102A10000E000000B0AF0D0803150205060000000F
:102A200020460F080A1502050E00000084590E0802
:102A30000B0E010C0E00000088270F080B19020670
:102A40000E000000E4AF0D080C13000C0C00000099
:102A50002C9B0E080C1401060E000000549B0E085F
:102A60000A0E010C0B000000A4270F080A1901062A
:102A70000A00000018B00D080A13020C0E00000036
:102A80007C9B0E080C1401060E000000A49B0E088F
:102A9000020E020C060000001C6E0F080A0E020C4B
:102AA0000C000000C0270F080C1400060C000000EA
:102AB000CC9B0E080A13020C0E000000F49B0E08BB
:102AC0000C0E000C0C000000DC270F080B1901068F
:102AD0000B0000004CB00D080C0E010C0E000000A5
:102AE000F8270F080A0E020C0E00000014280F0829
:102AF0000B13020C0E0000001C9C0E080A13010CA4
:102B00000B000000449C0E080E0E010C0F0000008C
:102B100030280F080C0E000C0C0000004C280F0889
:102B20000A0E020C0E00000068280F081013010C9A
:102B3000120000006C9C0E080C13000C0C0000002E
:102B4000949C0E080E13020C12000000BC9C0E0890
:102B5000100E010C1200000084280F080613000755
:102B600006000000005D0F080A1202080E000000B7
:102B70000CE60E080C1501050E000000B0590E08F9
:102B80000A1502050E000000DC590E08101501059B
:102B900012000000085A0E080B1402060E00000076
:102BA000E49C0E080C1402060E0000000C9D0E089A
:102BB0001213000711000000C0260D0816150005AD
:102BC0001500000088EF0C08121700031100000028
:102BD000CC880C080C1901060E00000080B00D080E
:102BE000100E010C12000000A0280F080E13000C9C
:102BF0000E000000349D0E0810180107120000009E
:102C000058100E080C13010C0E0000005C9D0E08FD
:102C10000D1801070F00000088100E080B13010C9F
:102C20000C000000849D0E080B1302070D0000002D
:102C3000AC9D0E080813020C0B000000145D0F0879
:102C40000F13010710000000D49D0E080B1401069D
:102C50000D000000FC9D0E08121800071300000074
:102C600014890C080D1900060E000000B4B00D0800
:102C700012180207160000005C890C081213010CE0
:102C800015000000FC260D080D13010710000000C0
:102C9000249E0E080A1402060E0000004C9E0E0828
:102CA0000D18020710000000B8100E080D0E000CE1
:102CB0000D000000BC280F080C1301070E000000D7
:102CC000749E0E080C1401060E0000009C9E0E0857
:102CD0000F1300070F000000C49E0E080F0E000C1B
:102CE0000F000000D8280F08101301071200000081
:102CF000EC9E0E080C0E010C0E000000F4280F08CC
:102D00000C1300070C000000149F0E080A140006A4
:102D10000A0000003C9F0E080E0E000C0E00000082
:102D200010290F080C13010C0E000000649F0E0800
:102D30000A0E010C0C0000002C290F080618FF07D2
:102D40000700000038460F081013010712000000AA
:102D50008C9F0E080B0E010C0C00000048290F0878
:102D60000B0E000C0C00000064290F080A13020768
:102D70000E000000B49F0E080B1902060E000000A2
:102D8000E8B00D080E13FF0C0E000000DC9F0E08CB
:102D90000D1301070F00000004A00E080D1301071A
:102DA0000F0000002CA00E080D1301070F000000FB
:102DB00054A00E080B1902010E0000001CB10D08F2
:102DC0000B1702030E000000E8100E081113000795
:102DD0001200000038270D080B1902010D00000039
:102DE00050B10D080D1301070F0000007CA00E0864
:102DF0000C1301070E000000A4A00E080613010723
:102E000009000000285D0F080617010309000000F3
:102E100050460F08081300070A0000003C5D0F0829
:102E200019130007190000003C500C081713020783
:102E30001900000074270D0811130007120000008C
:102E4000B0270D080D1902010F00000084B10D0814
:102E50000D19020111000000B8B10D080E18000292
:102E60000E00000018110E080D17020711000000D7
:102E700048110E080F1300070F000000CCA00E0829
:102E80000C1302070F000000F4A00E080C13020739
:102E90000F0000001CA10E080B1302070D0000001C
:102EA00044A10E08101700071100000078110E0849
:102EB0000B1302070E0000006CA10E08161300078A
:102EC00016000000EC270D080C1300070D00000091
:102ED00094A10E080D13020711000000BCA10E08FA
:102EE0000D18020211000000A8110E080D130207B0
:102EF0000F000000E4A10E080F13000711000000EE
:102F00000CA20E080F1302071300000034A20E08D3
:102F10000D130207110000005CA20E081013010738
:102F20001200000084A20E080D1302071100000019
:102F3000ACA20E080C1302070E000000D4A20E086B
:102F40000D1301070F000000FCA20E081013FF076D
:102F50000F00000024A30E080E1300070E0000004F
:102F60004CA30E08101301071300000074A30E08F1
:102F70000F1300070F0000009CA30E080E17020796
:102F800011000000D8110E080D13010710000000F9
:102F9000C4A30E08141302071800000028280D0807
:102FA0001617020718000000A4890C081113000767
:102FB0001100000064280D0810130207140000001F
:102FC000ECA30E080D1302070F00000014A40E0856
:102FD0000D1301070F0000003CA40E081513020793
:102FE00018000000A0280D080D1300070F000000B6
:102FF00064A40E080A0E010C0D00000080290F08C1
:103000000C1401060E0000008CA40E080A0E020C1F
:103010000D0000009C290F08080E020C0A00000099
:103020002C6E0F080D11000C0E00000030E60E088B
:103030000B0E010C0D000000B8290F08120E000C39
:1030400012000000345A0E080A0E000C0B0000009B
:10305000D4290F080A0E020C0E000000F0290F08F8
:103060000A1402060E000000B4A40E080A0E020C98
:103070000C0000000C2A0F080C0E000C0E000000C3
:10308000282A0F080C0E020C10000000442A0F081A
:103090000A0E020C0E000000602A0F080C0E010C34
:1030A0000E0000007C2A0F080A0E020C0E00000021
:1030B000982A0F080B13020C0E000000DCA40E0867
:1030C0000A0E010C0C000000B42A0F080C0E000CB4
:1030D0000C000000D02A0F080C13000C0C0000009C
:1030E00004A50E08121900061300000088500C08F1
:1030F0000C0E000C0C000000EC2A0F080B11020C47
:103100000E00000054E60E080B0E010C0E0000002D
:10311000082B0F08100E010C13000000242B0F08C1
:103120001111020C14000000ECB10D080D0E000C82
:103130000E000000402B0F080D0E020C11000000C5
:103140005C2B0F080A0E020C0D000000782B0F08F4
:103150000A0E010C0C000000942B0F08100E020C3C
:1031600013000000B02B0F080B0E000C0D00000028
:10317000CC2B0F080B1501050D000000605A0E083E
:103180000B1201080D00000078E60E080C1900066D
:103190000E00000020B20D08081502050A0000000C
:1031A00068460F080A0E010C0C000000E82B0F08FF
:1031B0000A0E010C0B000000042C0F08021302077A
:1031C00006000000505D0F0806130007060000000F
:1031D000645D0F080618FF070700000080460F080F
:1031E000140E000C150000008C5A0E08120E020C72
:1031F00015000000B85A0E080C1400060E0000005E
:103200002CA50E080A1502050C000000E45A0E0851
:103210000A1502050E000000105B0E080C190006CE
:103220000C00000054B20D080A11020C0E00000040
:103230009CE60E081B1301071D000000D4500C086B
:10324000120E000C120000003C5B0E081013000769
:103250001100000054A50E080D1400060E00000019
:103260007CA50E081213020715000000DC280D08CB
:103270000E0E020C11000000202C0F080F13000787
:103280000F000000A4A50E080C0E000C0C0000009E
:103290003C2C0F08121302071400000018290D0817
:1032A0000F0E020C11000000582C0F081413000719
:1032B0001400000054290D080F0E000C0F00000030
:1032C000742C0F08171302071900000090290D082D
:1032D000130E020C15000000685B0E080B1E0101A6
:1032E0000D000000CC290D080A1A00050B00000093
:1032F00088B20D081013020714000000CCA50E08B8
:103300000E13020C12000000F4A50E0810130107A2
:10331000120000001CA60E080C0E010C0E0000008E
:10332000902C0F081313000712000000082A0D0844
:10333000100E000C0F000000AC2C0F081319000138
:103340001200000020510C08101500050F000000AD
:10335000945B0E081C1801071D000000CCB30B087D
:103360001813010C19000000442A0D08131501065A
:1033700015000000C8EF0C080F10010B1100000031
:103380001C0B0F0815190101170000006C510C08E7
:103390001117010313000000EC890C081B1701032F
:1033A0001D0000000CF20B081212000812000000B1
:1033B000BC680D080D1801070F00000008120E0868
:1033C0000A13010C0C00000044A60E080C130007A1
:1033D0000C0000006CA60E080805030600000000A3
:1033E0002C950F08090302070000000034950F0810
:1033F00002050606000000003C950F0802050606BF
:103400000000000044950F080A04030610000000A5
:103410004C950F081816F40800000000DCC80C08D2
:103420001818F40700000000348A0C080F1C020270
:1034300011000000F4680D080C1702060E000000D1
:1034400038120E080F1300070F00000094A60E0894
:103450000C1400060D000000BCA60E080D13020798
:103460000E000000E4A60E080C13020C0E00000073
:103470000CA70E080B1802020D00000068120E08BF
:10348000081302070A000000785D0F080C130107FB
:103490000D00000034A70E08090E010C0A00000000
:1034A000C82C0F080B1802070E00000098120E0817
:1034B0000A13020C0D0000005CA70E081617000787
:1034C000170000007C8A0C081211000C1300000089
:1034D000BCB20D080C1800070D000000C8120E0841
:1034E0000A13000C0B00000084A70E080E17020739
:1034F00010000000F8120E080A11020C0D00000066
:10350000C0E60E080D1302070F000000ACA70E085E
:103510000A0E020C0C000000E42C0F080F13000729
:103520000F000000D4A70E080C1400060C000000C9
:10353000FCA70E081213000712000000802A0D08D5
:103540000E0E000C0E000000002D0F080F170207D2
:103550001100000028130E080B11020C0E000000D1
:10356000E4E60E081213020714000000BC2A0D083E
:103570000E0E020C100000001C2D0F08161802077A
:1035800019000000C48A0C081213020C1500000078
:10359000F82A0D081114010712000000342B0D0841
:1035A0000D0F010C0E0000003C0B0F080D18010759
:1035B0000F00000058130E080A13010C0C00000045
:1035C00024A80E081017FF070F00000088130E082C
:1035D0000C11000C0C00000008E70E080E13000789
:1035E0000E0000004CA80E080C13000C0C0000008C
:1035F00074A80E080E1300070E0000009CA80E0809
:103600000C13000C0C000000C4A80E080F170007D4
:103610000F000000B8130E080C11000C0D00000084
:103620002CE70E0813170007140000000C8B0C0881
:103630000F11000C1000000050E70E080F170107D3
:1036400010000000E8130E080C11010C0E00000021
:1036500074E70E080D13010710000000ECA80E0817
:103660000B0E010C0E000000382D0F080C13020782
:103670001000000014A90E080A1402060E00000033
:103680003CA90E081413000715000000702B0D084C
:103690000F0E000C10000000542D0F081417000727
:1036A00015000000548B0C080F11000C10000000D6
:1036B00098E70E0806130107090000008C5D0F084B
:1036C0001619000116000000B8510C08121400066B
:1036D00012000000AC2B0D080C1802070F000000B0
:1036E00018140E080913020C0C00000064A90E083F
:1036F00011170007110000009C8B0C080E11000C24
:103700000E000000BCE70E080D18020711000000B3
:1037100048140E080A13020C0E0000008CA90E08B3
:103720000F1702071100000078140E080C11020C8C
:103730000E000000E0E70E080D1701071000000062
:10374000A8140E080B11010C0E00000004E80E086E
:103750001117020713000000E48B0C080E11020C75
:103760001000000028E80E080214020606000000FF
:10377000A05D0F080F1900010F000000F0B20D0846
:103780000A1401060D000000B4A90E080F1600046B
:103790000F000000C05B0E080A1201080D000000B7
:1037A0004CE80E081613000717000000E82B0D0860
:1037B000140E010C16000000EC5B0E080B19020140
:1037C0000E00000024B30D080B1401060D000000CC
:1037D000DCA90E08101301071200000004AA0E084D
:1037E0000B0E010C0D000000702D0F0810160104C7
:1037F00012000000185C0E080B1201080D000000FA
:1038000070E80E08161600041600000020C90C0807
:1038100012120008120000002C690D080C1600049A
:103820000D000000445C0E080A1200080B000000A6
:1038300094E80E080C1300070D0000002CAA0E08D7
:103840000A13000C0B00000054AA0E080D17020307
:1038500011000000D8140E080A1302070E00000021
:103860007CAA0E080D16020411000000705C0E0800
:103870000A1202080E000000B8E80E081017010333
:103880001200000008150E080C1201080E000000BE
:10389000DCE80E081013010712000000A4AA0E08AD
:1038A0000C0E010C0E0000008C2D0F0810170103E8
:1038B0001200000038150E080C1201080E0000005E
:1038C00000E90E080D1601040F0000009C5C0E08B4
:1038D0000A1201080C00000024E90E080E1700036C
:1038E0000E00000068150E080C1800070C00000000
:1038F00098150E080E1600040E000000C85C0E0895
:103900000C1700080C000000C8150E080E19000165
:103910000E00000058B30D080C1A00050C00000042
:103920008CB30D080D16010410000000F45C0E08A5
:103930000B1201080E00000048E90E080B170207E1
:103940000D000000F8150E080812020C0A00000015
:10395000B45D0F081016020414000000205D0E086C
:103960000D120208110000006CE90E080D18000786
:103970000D00000028160E080A13000C0A000000B3
:10398000CCAA0E08101800070F00000058160E08E9
:103990000C13000C0C000000F4AA0E080F13000713
:1039A0000F0000001CAB0E080C0E000C0C000000F9
:1039B000A82D0F080D1300070F00000044AB0E08E0
:1039C0000B1401060E0000006CAB0E081513000767
:1039D00017000000242C0D08131401061600000027
:1039E000602C0D0814130107170000009C2C0D0813
:1039F000120E010C150000004C5D0E080E17010799
:103A00000F00000088160E080B11010C0D000000BD
:103A100090E90E081713000719000000D82C0D08B4
:103A2000140E000C16000000785D0E081513020736
:103A300019000000142D0D08120E020C16000000D3
:103A4000A45D0E080F1301071100000094AB0E08CF
:103A50000B0E010C0D000000C42D0F081113000700
:103A600013000000502D0D080F0E000C1100000077
:103A7000E02D0F080C1301070D000000BCAB0E0871
:103A80000A0E010C0B000000FC2D0F080F18000798
:103A900011000000B8160E080C13000C0E000000F8
:103AA000E4AB0E081018010712000000E8160E081B
:103AB0000B13010C0E0000000CAC0E0817130007CE
:103AC000170000008C2D0D08130E000C13000000D1
:103AD000D05D0E08101302071200000034AC0E086F
:103AE0000D130207100000005CAC0E081013000755
:103AF0001000000084AC0E08111300071100000034
:103B0000C82D0D080D13020710000000ACAC0E0804
:103B10000D1301070F000000D4AC0E080C130207B0
:103B20000F000000FCAC0E080D130207100000008F
:103B300024AD0E081213020714000000042E0D0815
:103B40000F130107100000004CAD0E080C13020704
:103B50000F00000074AD0E080A1302070C000000ED
:103B60009CAD0E081213020716000000402E0D082F
:103B70001013000710000000C4AD0E080C1302075C
:103B800010000000ECAD0E080B1301070D00000043
:103B900014AE0E080E1300070F0000003CAE0E0816
:103BA00011130007110000007C2E0D080D130207F1
:103BB0001100000064AE0E0810130207120000008E
:103BC0008CAE0E080E13010710000000B4AE0E08F4
:103BD0001013000711000000DCAE0E080D130107E2
:103BE0000F00000004AF0E080C13020710000000C5
:103BF0002CAF0E080D1301070F00000054AF0E0884
:103C00000F130007110000007CAF0E080D13010711
:103C10000F000000A4AF0E081013020712000000EE
:103C2000CCAF0E080C13020710000000F4AF0E0812
:103C30001113000711000000B82E0D080F13000724
:103C4000100000001CB00E080C1302070F0000004B
:103C500044B00E080F130107110000006CB00E08ED
:103C60000A1302070D00000094B00E08101301079C
:103C700013000000BCB00E080E1300070F00000078
:103C8000E4B00E0810130107120000000CB10E087A
:103C90000F1300071000000034B10E0802050106E2
:103CA0000500000054950F080205010605000000FC
:103CB0005C950F08050501060800000064950F08D3
:103CC000070A010609000000647A0F0805050106CD
:103CD000080000006C950F080706010609000000A7
:103CE00074950F080A0601030C000000707A0F0893
:103CF000110E020C15000000FC5D0E080A13020CE8
:103D00000E0000005CB10E080E13010C0F00000045
:103D100084B10E080D13020C0F000000ACB10E08A8
:103D20000A1402060E000000D4B10E080E13010C96
:103D30000F000000FCB10E080A1402060D0000007E
:103D400024B20E080A13020C0E0000004CB20E083A
:103D50000F13020C1100000074B20E080E140106BD
:103D60000F0000009CB20E080A1902060E000000A7
:103D7000C0B30D080613020C08000000C85D0F0850
:103D8000121902061600000004520C080D14010658
:103D90000E000000C4B20E080A1902060E00000050
:103DA000F4B30D080A1402060E000000ECB20E086F
:103DB0000A1401060C00000014B30E080D13020CC7
:103DC0000F0000003CB30E080B1401060C000000AD
:103DD00064B30E080D1402060F0000008CB30E0829
:103DE0000613000C08000000DC5D0F080D1400062F
:103DF0000F000000B4B30E080A13000C0B00000003
:103E0000DCB30E080A0E020C0E000000182E0F087C
:103E10000A13000C0B00000004B40E081113020C6E
:103E200015000000F42E0D080B13000C0C00000010
:103E30002CB40E080B0E020C0E000000342E0F08DE
:103E40000A0E020C0E000000502E0F080D1902067B
:103E50000F00000028B40D08110E020C1500000020
:103E6000285E0E080A13020C0E00000054B40E085F
:103E70000B13010C0E0000007CB40E08080E020C9F
:103E80000A0000003C6E0F08111902061500000020
:103E900050520C080E13000C0F000000A4B40E08C2
:103EA0000C0E010C0E0000006C2E0F0810190006FD
:103EB000110000005CB40D080D1402060F00000094
:103EC000CCB40E08030E030C090000004C6E0F0862
:103ED000070301100900000050A30F080505FE1A92
:103EE000000000007C950F080803FC06000000009D
:103EF00054A30F080306FE030000000084950F087A
:103F00000205FF04000000008C950F080405FE0464
:103F10000000000094950F080405FE1A0000000040
:103F20009C950F080303FF060000000058A30F082C
:103F30000704FC05000000005CA30F080405FC0456
:103F400000000000A4950F080303001B0000000000
:103F500060A30F080405FE1A00000000AC950F08CE
:103F60000405FE0400000000B4950F0804050004D9
:103F700000000000BC950F080805FC0400000000CC
:103F8000C4950F080E06F903000000007C7A0F08A4
:103F90000606000300000000CC950F080405FE048F
:103FA00000000000D4950F080505FE1A000000006F
:103FB000DC950F080304FF1B0000000064A30F083A
:103FC0000303FE1B0000000068A30F080405FE1A8F
:103FD00000000000E4950F080805FC1A000000002E
:103FE000EC950F080305FE1A00000000F4950F0879
:103FF0000405FE0400000000FC950F080606FA0305
:104000000000000004960F080505FE1A00000000DD
:104010000C960F080303FE06000000006CA30F08B7
:104020000304FF050000000070A30F080405001A38
:104030000000000014960F080704F90500000000B6
:1040400074A30F080303FE060000000078A30F0806
:104050000205061A000000001C960F080805031A46
:104060000000000024960F080605041A0000000056
:104070002C960F080605041A0000000034960F085D
:104080000202061B0000000036A60F080502041BF2
:104090000000000038A60F080505051A0000000002
:1040A0003C960F080301051B00000000A9A60F089D
:1040B0000503041B000000007CA30F080202060891
:1040C000000000003AA60F080202030700000000EB
:1040D0003CA60F080805031A0000000044960F08CC
:1040E00002020612000000003EA60F080103061B94
:1040F0000000000080A30F080602020B0A00000067
:1041000040A60F080301050800000000AAA60F083A
:104110000213020906000000F05D0F080202060803
:104120000000000042A60F080202FF080000000085
:1041300044A60F08030F030B090000005C6E0F0874
:10414000020201070000000046A60F080202FF1C41
:104150000000000048A60F080710020A0A0000002D
:104160006C6E0F080504FD1B0000000084A30F08FF
:104170000D0F020B110000005C0B0F080E0F010B5E
:10418000100000007C0B0F080C0F000B0C0000004F
:104190009C0B0F080D0F010B0F000000BC0B0F084C
:1041A0000D0F020B11000000DC0B0F08050F000BB8
:1041B000070000007C6E0F08070F010B08000000CD
:1041C0008C6E0F080D0F020B11000000FC0B0F0886
:1041D0000D0F020B110000001C0C0F080508000B4E
:1041E000070000004C960F080E14000B1000000092
:1041F000F4B40E080D0F010B100000003C0C0F086A
:104200000D140106100000001CB50E080D0F020B66
:10421000110000005C0C0F080E0F010B11000000D4
:104220007C0C0F080714000B09000000045E0F0847
:10423000070F010B0A0000009C6E0F08100F000B07
:10424000120000009C0C0F080D11010B1000000063
:10425000B4E90E080E14010B1100000044B50E085D
:104260000D0F010B10000000BC0C0F080B14000B0D
:104270000C0000006CB50E080D0F010B0F000000C4
:10428000DC0C0F080D14020B1100000094B50E0891
:104290000C0F000B0E000000FC0C0F08110F020B9E
:1042A0001400000018170E08100F000B1200000079
:1042B0001C0D0F080C0F000B0E0000003C0D0F082A
:1042C0000C0F000B0E0000005C0D0F080C08000B1B
:1042D0000E000000AC6E0F08050701060500000087
:1042E00054960F080A0701060A000000BC6E0F086A
:1042F0001205011A14000000CC6E0F082505011AE2
:1043000027000000882E0F081D0700181E0000005F
:10431000A42E0F08170701181900000098460F086F
:10432000101701081200000048170E0803070313B6
:10433000090000005C960F0807070118080000003C
:1043400064960F081D0701131D000000C02E0F0802
:104350000C12010D0F000000D8E90E080705FC0241
:10436000000000006C960F080705FC02000000002A
:1043700074960F080706FC02000000007C960F08E8
:104380000907FB0100000000DC6E0F080904FC02B5
:104390000000000084960F080607011300000000CB
:1043A0008C960F08030E030C09000000EC6E0F083A
:1043B000060501150800000094960F080A1301076E
:1043C0000C000000BCB50E08070901110A0000002E
:1043D000887A0F080616000406000000B0460F0891
:1043E0000419010106000000DC2E0F080915000A5F
:1043F0000A000000545E0E080418010706000000C1
:10440000C8460F08140F010B1600000078170E089D
:104410000213020706000000185E0F08120C0112BA
:1044200014000000FCE90E080A1101090C0000004C
:1044300020EA0E08120C010E1400000044EA0E08D7
:10444000120F010B14000000A8170E080C11010E2A
:104450000F00000068EA0E080C11010E0F000000AA
:104460008CEA0E080C14010B0F000000E4B50E08D6
:104470000A0C010E0C000000E0460F080A10010AA9
:104480000C0000007C0D0F08080B00140900000050
:10449000947A0F080810000F09000000FC6E0F0846
:1044A0001C0E01111E00000064690D081C14010B94
:1044B0001E000000D8390C081B0F01101D00000061
:1044C000302F0D081B14010B1D000000283A0C08AA
:1044D0001113FF07110000006C2F0D081113FF07C7
:1044E00011000000A82F0D080C12010D0F00000094
:1044F000B0EA0E080C1601090F000000805E0E08DD
:104500000702FF18060000004AA60F08141201084F
:10451000160000009C690D08141501071600000024
:1045200008F00C080F130107120000000CB60E086B
:104530000D1301071000000034B60E08100EFE1116
:104540000F000000F82E0F080F0E010C11000000E4
:10455000142F0F080A0C010E0C000000F8460F087B
:10456000090F00100A0000009C0D0F08140E010C2A
:1045700016000000AC5E0E081412010C16000000BC
:10458000D4690D08070400050000000088A30F0887
:1045900008050001000000009C960F080704001A9F
:1045A000000000008CA30F080702000400000000B8
:1045B0004CA60F080605000100000000A4960F0895
:1045C0000702001C000000004EA60F0807050101AD
:1045D00000000000AC960F08050500020000000076
:1045E000B4960F08060200040000000050A60F0851
:1045F000040401020000000090A30F080404011B42
:104600000000000094A30F080105FF1A000000003D
:10461000BC960F080605FD0100000000C4960F08B7
:104620000403FE030000000098A30F080501FD0924
:1046300000000000ABA60F08050300040000000006
:104640009CA30F080704000300000000A0A30F08AC
:104650000202FF1C0000000052A60F080605000120
:1046600000000000CC960F080503000300000000C6
:10467000A4A30F080707040E0E000000D4960F082D
:10468000051104090E0000002C5E0F080C11010931
:104690000E000000D4EA0E080D1100090E00000003
:1046A000F8EA0E080B1102090E0000001CEB0E08C0
:1046B0000D0E010C0E000000302F0F080C11010927
:1046C0000E00000040EB0E080D1101090E00000065
:1046D00064EB0E080D1101090E00000088EB0E08B6
:1046E0000C1102090E000000ACEB0E080D110109BF
:1046F0000E000000D0EB0E080307031709000000AE
:10470000DC960F080307031309000000E4960F0866
:104710000C0C010C0E00000010470F0812080112CB
:104720001400000028470F081410010C16000000A8
:10473000D8170E080108FF0100000000EC960F08D2
:10474000061800020600000040470F080618000285
:104750000600000058470F08061800070600000072
:1047600070470F080404010206000000A8A30F0808
:104770000713020706000000405E0F080A15000A32
:104780000A000000D85E0E080B15FF0A0A000000A0
:10479000045F0E081614010616000000E42F0D0831
:1047A000121101091400000090B40D08120F010B42
:1047B0001400000008180E08120D01121400000069
:1047C0005CB60E081210010E1400000038180E0816
:1047D000120E010C14000000305F0E08120D0112C1
:1047E0001400000084B60E08120F010B1400000024
:1047F00068180E08120D011214000000ACB60E0865
:104800000C1701080F00000098180E080C1801077B
:104810000F000000C8180E080C11010E0F00000058
:10482000F4EB0E080C11010E0F00000018EC0E083E
:104830000C1801070F000000F8180E080C11010EEB
:104840000F0000003CEC0E080C11010E0F000000E0
:1048500060EC0E080A1501050C0000005C5F0E08F4
:104860000A10010E0C000000BC0D0F080A10010E0A
:104870000C000000DC0D0F080A1901050C000000F7
:10488000C4B40D080A10010A0C000000FC0D0F084A
:104890000A10010E0C0000001C0E0F080A1301077D
:1048A0000C000000D4B60E080A1301070C0000002B
:1048B000FCB60E080A1301070C00000024B70E080E
:1048C000081600090900000088470F080811000EAB
:1048D00009000000545E0F080B0B001409000000D3
:1048E000A0470F08090B001409000000B8470F0883
:1048F0000C0B001409000000D0470F08090B00142E
:1049000009000000E8470F080810000F0900000028
:104910000C6F0F080813000C09000000685E0F08F8
:104920000813000C090000007C5E0F081C11010E2A
:104930001E00000064C90C081C0E01111E000000BE
:104940000C6A0D081C14010B1E000000783A0C08BC
:104950001B0F01101D00000020300D081B1701085F
:104960001D00000068F20B081113FF071100000082
:104970005C300D080C1901060F000000F8B40D089A
:10498000140E010C16000000885F0E081412010CB2
:1049900016000000446A0D081416010816000000F5
:1049A000A8C90C08141501051600000048F00C08F1
:1049B0001413010C1600000098300D0814150105A1
:1049C0001600000088F00C081414010816000000FE
:1049D000D4300D0814170105160000002C8C0C08AB
:1049E000141301071700000010310D081E0C010EF2
:1049F0001F00000028190E081413010717000000FB
:104A00004C310D080F130107120000004CB70E08BF
:104A10000F16010412000000B45F0E080F18010702
:104A20001200000058190E081416010417000000A7
:104A3000ECC90C08141601041700000030CA0C0859
:104A4000141601041700000074CA0C08141A01049B
:104A500017000000C83A0C08141B010417000000DE
:104A6000B41B0C0814190101170000009C520C081B
:104A70000F1701031000000088190E080D1601041D
:104A800010000000E05F0E080F1901011000000087
:104A90002CB50D080D18010710000000B8190E08FC
:104AA0000F12010C1100000084EC0E080F0A011017
:104AB00011000000905E0F080F13010711000000A5
:104AC00074B70E080F12010C11000000A8EC0E08BC
:104AD0000F11010911000000CCEC0E08110DFF0DA3
:104AE000110000009CB70E080C14010B0F00000011
:104AF000C4B70E080A1201080C000000F0EC0E0802
:104B00000C0801140D0000001C6F0F080C10010CA4
:104B10000D0000003C0E0F080C0E010E0D000000F1
:104B20004C2F0F08090F00100A0000005C0E0F0840
:104B3000090E00110A000000682F0F080913000C6D
:104B40000A000000ECB70E08091700080A00000070
:104B5000E8190E08091900060A00000060B50D08E2
:104B60000914000B0A00000014B80E080913000C09
:104B70000A0000003CB80E08091600090A000000EF
:104B80000C600E08140E010C1600000038600E08B0
:104B9000160E000C1700000064600E08140E010CC5
:104BA0001600000090600E080913000C0A000000B7
:104BB00064B80E081413010C1600000088310D08AB
:104BC0001413010C16000000C4310D08170B00135C
:104BD0001700000014ED0E081712000C170000005B
:104BE0007C6A0D08060200180600000054A60F0893
:104BF0000A0C010E0C00000000480F080B09FB0214
:104C000000000000A45E0F080C09FA02000000007A
:104C1000B85E0F080504FE0500000000ACA30F08F5
:104C20000708FD0200000000F4960F080507FE05C6
:104C300000000000FC960F080302FF0700000000C0
:104C400056A60F080C05FA0600000000A07A0F080F
:104C50001A1B01041C00000034660B081B1B000417
:104C600000000000A0660B080202FF070000000021
:104C700058A60F080202FF07000000005AA60F08FE
:104C80000704FD0500000000B0A30F080706FC059F
:104C90000000000004970F080C05FA1A000000003D
:104CA000AC7A0F080403FF0100000000B4A30F0852
:104CB00005050006060000000C970F08090500070F
:104CC0000A000000B87A0F080905FB070000000081
:104CD000C47A0F080606FD030000000014970F08B1
:104CE0001114FF060F00000000320D080505FE1A22
:104CF000000000001C970F080505FE0500000000DD
:104D000024970F080202FF07000000005CA60F08AE
:104D10000706FC19000000002C970F080A11010972
:104D20000C00000038ED0E080912000D090000000B
:104D30005CED0E080707040E0E00000034970F0804
:104D4000051104090E000000CC5E0F080C110109CA
:104D50000E00000080ED0E080D1100090E0000008D
:104D6000A4ED0E080C10010A0E0000007C0E0F08C6
:104D70000D1100090E000000C8ED0E08090F030B0D
:104D80000E0000009C0E0F080D1101090E0000001E
:104D9000ECED0E080D1101090E00000010EE0E08DA
:104DA0000C1102090E00000034EE0E081C14010B59
:104DB0001E000000183B0C081B14010B1D00000016
:104DC000683B0C080C1601090F000000BC600E08BF
:104DD000080D01110A0000002C6F0F080E0E0011C3
:104DE0000F000000842F0F081114FF0611000000AF
:104DF0003C320D08120C01121400000058EE0E088F
:104E00001213010B1400000078320D08120D01126C
:104E1000140000008CB80E081211010E14000000DE
:104E200094B50D081210010E14000000181A0E0897
:104E3000120D011214000000B4B80E08120C010E7D
:104E4000140000007CEE0E080C15010A0F00000093
:104E5000E8600E080C11010E0F000000A0EE0E0815
:104E60000A1A01050C000000C8B50D080A11010E50
:104E70000C000000C4EE0E080A0B0014090000002C
:104E800018480F081C14010B1E000000B83B0C084A
:104E90000C1601090F00000014610E080C18010720
:104EA0000F000000481A0E080C1901060F00000040
:104EB000FCB50D081412010C16000000B46A0D08B0
:104EC0001413010C16000000B4320D08141301076E
:104ED00017000000F0320D0814160104170000003E
:104EE000B8CA0C081418010717000000748C0C08CD
:104EF0001013FE0C0F000000DCB80E08100EFE119F
:104F00000F000000A02F0F080F12010C110000006D
:104F1000E8EE0E080F1301071100000004B90E0897
:104F20000F0E010C11000000BC2F0F081113010718
:104F3000100000002C330D080813000C09000000BD
:104F4000E05E0F080812000D09000000F45E0F0873
:104F50001C14010B1E000000083C0C080B0E020C78
:104F60000F000000D82F0F080D0E000C0F000000DE
:104F7000F42F0F080E0E000C1000000010300F0868
:104F80000C0E010C0F0000002C300F080C0E010C51
:104F90000F00000048300F080F0E000C1100000039
:104FA00064300F080A0E000C0C00000080300F085F
:104FB0000B0E010C0E0000009C300F080D0E010CB2
:104FC00010000000B8300F080F10000A1000000099
:104FD000BC0E0F081010000A11000000DC0E0F08B4
:104FE000120E020C1600000040610E081113020C94
:104FF0001500000068330D080E13000C10000000AF
:105000002CB90E080E13000C1000000054B90E0845
:105010000B13010C0E0000007CB90E08120E000CE0
:10502000140000006C610E08130E010C1600000045
:1050300098610E08120E020C15000000C4610E08E3
:105040000C0E010C0F000000D4300F080C0E010CE8
:105050000F000000F0300F080B0E020C0F000000D4
:105060000C310F080E0E020C1200000028310F0840
:105070000B0E010C0E00000044310F080C0E020C48
:105080000F00000060310F080C0E020C1000000031
:105090007C310F080C14020610000000A4B90E08A1
:1050A0000B0E020C1000000098310F080B140206C2
:1050B00010000000CCB90E080E0E000C120000000B
:1050C000B4310F080E14000611000000F4B90E08E8
:1050D0000D0E010C10000000D0310F080B0E020C59
:1050E0000F000000EC310F080A0E020C0E00000049
:1050F00008320F08090E010C0B00000024320F08C3
:105100000A11020C0E0000000CEF0E080B0E020C30
:105110000F00000040320F080D11010C10000000BC
:1051200030EF0E08090E010C0C0000005C320F0875
:105130000D0F010B0F000000FC0E0F08100E020CEB
:105140001300000078320F080C0F020B0F00000054
:105150001C0F0F080F0E000C1100000094320F08F6
:105160001113000712000000A4330D080B0E020CEF
:105170000F000000B0320F080C0F020B0F000000F0
:105180003C0F0F080A0E010C0D000000CC320F0876
:10519000080E020C0B0000003C6F0F080A05F80611
:1051A00000000000D07A0F08090E010C0C0000006E
:1051B000E8320F080F12FB080C00000054EF0E0835
:1051C0000A04F307000000003C970F080A05F306E5
:1051D00000000000DC7A0F080A05F306000000005A
:1051E000E87A0F080A05F30600000000F47A0F08B9
:1051F0000304FB1B00000000B8A30F080704F71B03
:1052000000000000BCA30F080202FC1B000000000D
:105210005EA60F080C1602060F000000F0610E08D3
:10522000050E020C080000004C6F0F080C0E020C5B
:105230000F00000004330F080A1401060C000000E0
:105240001CBA0E08091401060B00000044BA0E082F
:105250000C1400060D0000006CBA0E080911010CB8
:105260000C00000078EF0E080911010C0C00000082
:105270009CEF0E080807F6040000000044970F0892
:105280000104FC0700000000C0A30F080704F70793
:1052900000000000C4A30F080904F7070000000085
:1052A0004C970F080303FC0800000000C8A30F0878
:1052B0000705F9060000000054970F080404FB08D6
:1052C00000000000CCA30F080507FA010000000051
:1052D0005C970F080C0C010E0F00000030480F08FF
:1052E0000C0B010F0F00000048480F080D0B010FB9
:1052F0001000000060480F080D0E020C11000000A5
:1053000020330F080E0B010F1100000078480F0822
:10531000110F010B12000000781A0E08110F010B7B
:1053200012000000A81A0E080E0F000B100000005B
:105330005C0F0F08100E010C130000003C330F0827
:10534000100F010B130000007C0F0F08100E010C52
:105350001200000058330F080E0E010C110000005F
:1053600074330F08170C020E1B000000C0EF0E086C
:105370000D0E000C0C00000090330F08110E000CF5
:10538000120000001C620E08140E010C1600000032
:1053900048620E080C0E010C0D000000AC330F0823
:1053A0000A0E010C0C000000C8330F080B0E020C93
:1053B0000E000000E4330F080C0E010C0E0000007C
:1053C00000340F08080E020C0B0000005C6F0F0881
:1053D0000A0E000C0B0000001C340F080212020C15
:1053E00006000000085F0F08070E000C090000000F
:1053F0006C6F0F080A0E020C0C00000038340F0806
:10540000090E010C0B00000054340F080C0E020CA6
:105410001000000070340F080A0E020C0E0000008D
:105420008C340F080C0E010C0E000000A8340F087D
:105430000A0E010C0C000000C4340F080E0C010D04
:105440001000000090480F080E0A010E1000000026
:105450001C5F0F08100C000D10000000A8480F087A
:10546000150E010C1700000074620E08090E010CE5
:105470000B000000E0340F080C07010C0E000000C8
:105480007C6F0F080C0701130E0000008C6F0F08D3
:105490000A0E020C0D000000FC340F080B0E000C6D
:1054A0000D00000018350F080B0E000C0D00000059
:1054B00034350F080C0E000C0C00000050350F089E
:1054C0000A0E020C0E0000006C350F080D0B020EC8
:1054D00011000000C0480F08110B010E140000005D
:1054E000E4EF0E080E12040A1500000008F00E0882
:1054F0000C0E000C0C00000088350F08130E000C79
:1055000013000000A0620E08090E010C0B00000041
:10551000A4350F08090E010C0B000000C0350F0860
:105520000B0E010C0D000000DC350F080F0E000CF7
:105530000F000000F8350F08080E020C0A000000EA
:105540009C6F0F080D0E000C0C00000014360F08A5
:105550000A0E020C0E00000030360F080A0E020C74
:105560000D0000004C360F080E0E020C1200000059
:1055700068360F080C0E000C0E00000084360F0871
:105580000B0D00080A000000A0360F08100D0008DF
:1055900010000000BC360F08090D01080A000000C9
:1055A000D8360F080B0D00080A000000F4360F086B
:1055B0000A0D01080C00000010370F08080D010843
:1055C0000A000000AC6F0F08080D01080A00000077
:1055D000BC6F0F080B0D01080C0000002C370F08E2
:1055E0000A0D01080B00000048370F08060D0108DE
:1055F00007000000CC6F0F08070D0008080000002E
:10560000DC6F0F08090D01080A00000064370F085D
:10561000070D010809000000EC6F0F080B0D0108D1
:105620000D00000080370F080A0D01080B00000074
:105630009C370F080A0D01080B000000B8370F084F
:105640000B0D01080D000000D4370F08090D0108EB
:105650000A000000F0370F08080D01080A000000DA
:10566000FC6F0F080A0D01080B0000000C380F0832
:105670000A0D01080C00000028380F080A0D010867
:105680000B00000044380F080F0D00080F00000049
:1056900060380F080809010C09000000007B0F08A2
:1056A0000809010C090000000C7B0F080909010C16
:1056B0000A000000305F0F080F09000C1000000006
:1056C000445F0F08090D01080A0000007C380F082C
:1056D000090D01080A00000098380F080909010C9B
:1056E0000A000000585F0F080909000C0A000000BA
:1056F0006C5F0F080709010C09000000187B0F08F8
:105700000709010C09000000247B0F08090C010C9B
:105710000A000000D8480F08020C010C0400000029
:10572000307B0F08090D010809000000B4380F088C
:105730000E09000C0E000000805F0F08080C010C21
:105740000A0000003C7B0F080909010C0A00000058
:10575000945F0F080709010C09000000487B0F083F
:105760000905010C0A000000547B0F08090501100F
:105770000A000000607B0F08090C010C0A00000001
:10578000F0480F08060C0109070000006C7B0F08A9
:105790000809010C0A000000787B0F080908010CB9
:1057A0000B0000000C700F080E09000C0E0000002A
:1057B000A85F0F080909000C08000000BC5F0F0873
:1057C0000A09000C0A000000D05F0F080910010848
:1057D0000A0000009C0F0F08080D000C08000000D4
:1057E0001C700F08090D01080A000000D0380F08CE
:1057F0000C0C010C0D00000008490F08090C000CEE
:105800000800000020490F08020C011004000000ED
:10581000847B0F080509011306000000907B0F0828
:10582000080901130A0000009C7B0F0809090013F6
:1058300008000000E45F0F080910010F0A000000D3
:10584000BC0F0F08080C001308000000A87B0F080D
:10585000090C01130A00000038490F080C0D011251
:105860000D000000EC380F08090C001308000000C0
:1058700050490F08130E020C16000000CC620E08EF
:105880000F14FE060E00000094BA0E080F14010655
:105890000E000000BCBA0E080B14FE060800000043
:1058A000E4BA0E08170EFF0C15000000F8620E088F
:1058B000100EFF0C0E00000008390F080F13FE0C2D
:1058C0000E0000000CBB0E080B0EFE0C09000000C1
:1058D00024390F080B0EFE0C0900000040390F0898
:1058E000100EFE0C0C0000005C390F080A12FE08B6
:1058F000080000002CF00E080E0EFF0C0B0000003C
:1059000078390F080B13020C0E00000034BB0E0890
:10591000090C01070B00000068490F080B13010C6C
:105920000D0000005CBB0E081416000616000000F7
:10593000FCCA0C08090E000C0900000094390F087D
:10594000090EFF0C06000000B0390F080D13010C02
:105950000E00000084BB0E080D0E010C0E000000AE
:10596000CC390F08100E000C10000000E8390F08A9
:105970000B1902060E00000030B60D080D190106C5
:105980000E00000064B60D080919000608000000AA
:1059900098B60D081213010C0E000000E0330D083C
:1059A0000B1902060C000000CCB60D080619000603
:1059B00006000000043A0F081413010C1500000043
:1059C0001C340D080C13020C0E000000ACBB0E08BA
:1059D0000B13020C0E000000D4BB0E080913000CC0
:1059E00009000000FCBB0E080C13010C0B000000AA
:1059F00024BC0E080E1901060E00000000B70D08A9
:105A00000D13000C0D0000004CBC0E080C13000C14
:105A10000C00000074BC0E080913010C0B00000000
:105A20009CBC0E080E13010C0D000000C4BC0E0837
:105A30000F13010C0E000000ECBC0E08101901063B
:105A40000E00000034B70D080F13010C0D0000000C
:105A500014BD0E080E13010C0B0000003CBD0E0817
:105A60000A13000C0B00000064BD0E08130E010C9D
:105A70000D00000024630E0808180207060000004D
:105A800080490F080A13010C0C0000008CBD0E08A1
:105A90000C1901060E00000068B70D080E13020C69
:105AA0000E000000B4BD0E080A13000C0B0000002D
:105AB000DCBD0E080809010C0A000000B47B0F08C9
:105AC0000709010C09000000C07B0F080809000C41
:105AD00009000000CC7B0F08080D01080A00000037
