:020000040800F2
:1000000008980020D1750F08BDEA0A08D7EA0A0847
:10001000F1EA0A080BEB0A0825EB0A0800000000C9
:10002000000000000000000000000000E5330308AD
:100030003FEB0A08000000008933030859EB0A0867
:1000400051A50F0855A50F0859A50F085DA50F0864
:1000500061A50F0865A50F0869A50F086DA50F0814
:1000600071A50F0875A50F0879A50F087DA50F08C4
:10007000B1EB0A0883EB0A08ADEB0A0887EB0A0824
:1000800081A50F0885A50F0889A50F088DA50F0864
:1000900091A50F0895A50F0899A50F08E1EB0A088F
:1000A0009DA50F08A1A50F08A5A50F08A9A50F08D4
:1000B000ADA50F08B1A50F08B5A50F08B9A50F0884
:1000C000BDA50F08C1A50F08C5A50F08C9A50F0834
:1000D000CDA50F0873EB0A08D1A50F08D5A50F0809
:1000E000D9A50F08DDA50F08E1A50F08E5A50F08A4
:1000F000E9A50F08EDA50F08F1A50F08F5A50F0854
:10010000B5EB0A08F9A50F08FDA50F0801A60F0811
:100110007FEB0A0805A60F086FEB0A0809A60F086F
:100120000DA60F0811A60F0877EB0A0815A60F08F1
:1001300019A60F081DA60F0821A60F0825A60F084F
:1001400029A60F082DA60F0831A60F0835A60F08FF
:1001500039A60F083DA60F087BEB0A0841A60F0839
:10016000D9EB0A08DDEB0A0845A60F0849A60F08D7
:100170004DA60F0851A60F0855A60F080000000055
:1001800059A60F085DA60F088BEB0A0861A60F0899
:1001900065A60F0869A60F086DA60F0871A60F08BF
:1001A000B9EB0A08BFEB0A0875A60F0879A60F0875
:1001B0007DA60F0881A60F0885A60F0889A60F083F
:1001C0008DA60F0891A60F080101001A0800000073
:1001D000B5A70F0802130307080000008C590F0889
:1001E000070701060A00000040930F0810130107DB
:1001F00012000000A07D0E080C1701070E00000081
:10020000DC040E081613010718000000281F0D0853
:100210001113010711000000641F0D0802070106F9
:100220000500000048930F08071901060A000000A6
:10023000941F0F08071902060A000000B01F0F08DC
:100240000C0B01060E000000BC430F080E0E020B43
:1002500012000000CC1F0F0805080117080000005D
:1002600050930F08070201110900000032A70F0880
:1002700003030217080000009CA30F0809180006DA
:100280000A0000000C050E080C1301070E00000008
:10029000C87D0E08081303070E000000A0590F08C0
:1002A0000B1301070E000000F07D0E080B13010771
:1002B0000E000000187E0E080C1300070E00000050
:1002C000407E0E080B1302070E000000687E0E0829
:1002D0000C1301070E000000907E0E080C1301079E
:1002E0000E000000B87E0E080C1301070E0000007F
:1002F000E07E0E080C1301070E000000087F0E08B8
:10030000030E030C09000000A06C0F080513020C7B
:1003100009000000B4590F080D0E020B1200000076
:10032000E81F0F080E07020E12000000B06C0F0845
:100330000D0E030B1200000004200F080A13010722
:100340000C000000307F0E08141602071700000092
:10035000F0C70C080F1300070F000000587F0E08AD
:100360000C1302070F000000807F0E080D13010719
:100370000F000000A87F0E080E13020711000000F6
:10038000D07F0E080B1302070E000000F87F0E0846
:100390000B1302070D00000020800E080F13010749
:1003A0001100000048800E080D1302071100000024
:1003B00070800E080613010709000000C8590F08D5
:1003C000081300070A000000DC590F080D1302078C
:1003D0000F00000098800E080A1302070C000000AE
:1003E000C0800E080F13020713000000E8800E08FB
:1003F0000D1302071100000010810E0810130107F1
:100400001200000038810E080C1302070E000000D5
:1004100060810E0810180107120000003C050E084C
:100420000E1302071000000088810E080C1301074C
:100430000E000000B0810E081013FF070F0000002F
:10044000D8810E080C1302071000000000820E086D
:100450000F1300070F00000028820E081713000773
:1004600017000000A01F0D080F1300070F00000069
:1004700050820E080E1300070E00000078820E084E
:100480000C1301070E000000A0820E0806190206D8
:100490000A00000020200F08091801060A000000C9
:1004A0006C050E08061901060A0000003C200F0822
:1004B0000F0A020712000000F0590F080E02001C7C
:1004C0000E000000A0A30F08050503050E000000A4
:1004D00058930F080A0E010C0D00000058200F0859
:1004E0000B1402060E000000C8820E080A0E010C52
:1004F0000C00000074200F080B1401060E00000011
:10050000F0820E080B0E010C0D00000090200F0869
:10051000091400060800000018830E080B13010CD4
:100520000E00000040830E080A1402060E000000B0
:1005300068830E080213020706000000045A0F0821
:100540000618FF0707000000D4430F080B1402062B
:100550000C00000090830E08021402060600000042
:10056000185A0F08120E010C15000000D44E0E0888
:100570000A0E020C0E000000AC200F080C0E010C3D
:100580000E000000C8200F080B13020C0E00000024
:10059000B8830E080B13010C0E000000E0830E0858
:1005A000070E020C09000000C06C0F080A0E010CB7
:1005B0000B000000E4200F080812000808000000EB
:1005C0002C5A0F080A0E020C0E00000000210F0822
:1005D0000C0E000C0C0000001C210F08130E000C68
:1005E00013000000004F0E080C0E000C0C00000061
:1005F00038210F080C13000C0C00000008840E08B2
:10060000090E010C0B00000054210F080A19010605
:100610000C0000001C9B0D08021904060A000000D3
:1006200070210F080A1901060C000000509B0D08EC
:100630000E06020F1200000020790F080101001AB7
:1006400008000000B6A70F08021303070800000007
:10065000405A0F080B1601080E0000002C4F0E0820
:100660000B1301070E00000030840E080C0C010C67
:100670000E000000EC430F080E1300070E000000F0
:1006800058840E08021904060A0000008C210F0885
:100690000B1801070E0000009C050E080702030856
:1006A0000E00000034A70F08151501071700000001
:1006B000ECED0C08090C01070C00000004440F08C5
:1006C0000B0C010C0E0000001C440F080E09021157
:1006D00012000000545A0F0807020111090000001F
:1006E00036A70F0815150107170000002CEE0C089F
:1006F0000E0200040E000000A4A30F080909010760
:100700000C000000685A0F080E0F020912000000CA
:10071000E00A0F08090B02070C00000034440F0820
:10072000080B02070C0000002C790F0805050505D1
:100730000E00000060930F080A13020C0E00000068
:1007400080840E080B1701070E000000CC050E0870
:100750000303030C09000000A8A30F080605041AF0
:100760000E00000068930F08060B04070C00000041
:1007700038790F080A0C01070C0000004C440F08E0
:100780000B0C020C0E00000064440F081413020747
:1007900019000000DC1F0D081613020719000000E5
:1007A00018200D08151302071900000054200D0829
:1007B0000A1301070C000000A8840E080F1900019D
:1007C0000F000000849B0D080F1900010F000000AE
:1007D000B89B0D080F1900010F000000EC9B0D08DD
:1007E0000F1800020F000000FC050E080F16000491
:1007F0000F000000584F0E080F1900010F000000F5
:10080000209C0D08161300071700000090200D080B
:100810000D1801070F0000002C060E080B1902012D
:100820000E000000549C0D080B1902010E00000080
:10083000889C0D080B1902010E000000BC9C0D08DD
:100840000B1702030E0000005C060E0806190101DA
:1008500009000000A8210F08061901010900000085
:10086000C4210F080819000109000000E0210F0849
:1008700006170103090000007C440F08101300074D
:1008800011000000D0840E080D18020211000000B3
:100890008C060E081019010112000000F09C0D08D2
:1008A0001019010112000000249D0D08101901010A
:1008B00012000000589D0D081018010212000000DF
:1008C000BC060E081017010312000000EC060E080B
:1008D0000D0D030C12000000FC210F08101501067D
:1008E00012000000844F0E080C19020110000000D5
:1008F0008C9D0D080C19020110000000C09D0D0810
:100900000C19020110000000F49D0D080C170203E1
:10091000100000001C070E080E1900010E00000058
:10092000289E0D080A1302070E000000F8840E0826
:100930000B1402060E00000020850E080A150105A2
:100940000D000000B04F0E080A1501050D00000053
:10095000DC4F0E080A1501050D00000008500E08B6
:100960000A1401060D00000048850E080A1201084D
:100970000D000000A8E30E080A1501050D00000097
:1009800034500E08140E010C1600000060500E08C2
:100990000A13010C0C00000070850E080B150105F0
:1009A0000D0000008C500E080B1501050D00000015
:1009B000B8500E080B1501050D000000E4500E089C
:1009C0000B1201080D000000CCE30E080515000510
:1009D0000600000094440F080515020506000000FB
:1009E000AC440F080615000506000000C4440F08BB
:1009F00006130007060000007C5A0F080C130107BD
:100A00000E00000098850E080A1402060E00000071
:100A1000C0850E080C1501050E00000010510E08CF
:100A20000C1501050E0000003C510E080C150105C7
:100A30000E00000068510E080C1401060E000000A4
:100A4000E8850E080C1201080E000000F0E30E0805
:100A50000F0E020B1200000018220F080C10010BE1
:100A60000E000000000B0F080A1502050E00000022
:100A700094510E080A1502050E000000C0510E0820
:100A80000A1502050E000000EC510E080A120208B9
:100A90000E00000014E40E080C1A00050C00000003
:100AA0005C9E0D080B1902060E000000909E0D08BA
:100AB0000C1700080C0000004C070E080F1700036D
:100AC0000F0000007C070E080A1301070D0000004C
:100AD00010860E080F1900010F000000C49E0D08BB
:100AE0000A1401060D00000038860E0810180007D1
:100AF0000F000000AC070E080B13010C0D000000E6
:100B000060860E080D1901010F000000F89E0D0807
:100B10000A1501050C00000018520E080D190101FC
:100B20000F0000002C9F0D080A1501050C000000A5
:100B300044520E080D1701030F000000DC070E08D9
:100B40000A1201080C00000038E40E080D1901011A
:100B50000F000000609F0D080A1501050C00000041
:100B600070520E080E19020111000000949F0D082A
:100B7000101401061100000088860E0810130007EB
:100B800011000000B0860E080D1401060E000000D2
:100B9000D8860E080B1702030E0000000C080E0882
:100BA0000B1301070D00000000870E080B1902014E
:100BB0000E000000C89F0D080B1401060D00000078
:100BC00028870E080B1702030E0000003C080E08D1
:100BD0000B1201080D0000005CE40E080B18020760
:100BE0000E0000006C080E080B13010C0D00000035
:100BF00050870E080B1902010E000000FC9F0D0823
:100C00000B1501050D0000009C520E080F19010183
:100C10001100000030A00D080B1A01050E000000A5
:100C200064A00D080F1901011100000098A00D0823
:100C30000B1901060E000000CCA00D080F170103D0
:100C4000110000009C080E080B1701080E000000A0
:100C5000CC080E080F18010711000000FC080E0850
:100C60000B1A01050E00000000A10D080D1902016C
:100C70001100000034A10D080A1902010E00000045
:100C800068A10D081213000712000000CC200D0807
:100C90000C1400060E00000078870E0808190001E9
:100CA0000900000034220F080614000606000000A8
:100CB000905A0F080818000209000000DC440F08D1
:100CC0000613000706000000A45A0F0806190101C8
:100CD0000900000050220F0806140006060000005C
:100CE000B85A0F080618010709000000F4440F085D
:100CF00004180107060000000C450F080617010341
:100D00000900000024450F08020E020C0600000036
:100D1000D06C0F080F13010712000000A0870E0807
:100D2000091802070D0000002C090E08091900011E
:100D30000A0000009CA10D08081AFF05070000002A
:100D40006C220F080D1802070F0000005C090E0846
:100D50000B1902060C000000D0A10D080B0E020CAE
:100D60000C00000088220F080A1902010C00000084
:100D700004A20D080519020106000000A4220F08B4
:100D80000A1802070C0000008C090E08051901065C
:100D900006000000C0220F080A1402060C00000022
:100DA000C8870E080814020609000000CC5A0F0874
:100DB0000A1302070C000000F0870E080814020650
:100DC0000B000000E05A0F080D1300070D00000093
:100DD00018880E080614000607000000F45A0F08D1
:100DE0000D1902011100000038A20D080A150205B4
:100DF0000E000000C8520E080D1802071100000076
:100E0000BC090E080A13020C0E00000040880E08F0
:100E10000D190201110000006CA20D080A1502054F
:100E20000E000000F4520E081014FF06110000001E
:100E300068880E080D18020711000000EC090E0862
:100E40000A13020C0E00000090880E081017010310
:100E5000120000001C0A0E080C1301070E0000000F
:100E6000B8880E081019010112000000A0A20D0898
:100E70000C1401060E000000E0880E081019010194
:100E800012000000D4A20D080C1501050E00000090
:100E900020530E08161301071800000008210D0842
:100EA000150E010C170000004C530E080E1902011C
:100EB0001000000008A30D08071502050900000036
:100EC0003C450F080E180207100000004C0A0E08DF
:100ED0000813010C09000000085B0F080E1902013D
:100EE000100000003CA30D080815020509000000D1
:100EF00054450F080C1901010E00000070A30D08E5
:100F00000A1501050B00000078530E080C190101A9
:100F10000E000000A4A30D080A1501050B00000037
:100F2000A4530E080C1801070E0000007C0A0E08DE
:100F30000A13010C0B00000008890E080C190101AE
:100F40000E000000D8A30D080A1501050B000000D3
:100F5000D0530E081018FF070F000000AC0A0E084F
:100F600008170008080000006C450F081019FF0161
:100F70000F0000000CA40D080C1400060C0000006B
:100F800030890E081013FF070F00000058890E0863
:100F900008120008080000001C5B0F080C18020271
:100FA00010000000DC0A0E080A1402060E00000001
:100FB00080890E080C170203100000000C0B0E08AD
:100FC0000A1302070E000000A8890E080C1902017E
:100FD0001000000040A40D080A1402060E000000D4
:100FE000D0890E080C1902011000000074A40D082D
:100FF0000A1502050E000000FC530E080D1902012F
:1010000010000000A8A40D080A1502050E0000003B
:1010100028540E080C180207100000003C0B0E08A4
:101020000B13020C0E000000F8890E0817190001BE
:10103000170000004C4E0C081315000513000000AB
:101040006CEE0C080E1900010E000000DCA40D0867
:101050000C1A00050C00000010A50D080E17000367
:101060000E0000006C0B0E080C1901010E000000B0
:1010700044A50D08091501050B00000054540E0885
:101080000C1701030E0000009C0B0E08091201084A
:101090000B00000080E40E080C1901010E00000096
:1010A00078A50D08091501050B00000080540E08F5
:1010B0000614020606000000305B0F080D1400063F
:1010C0000E000000208A0E08101300071100000017
:1010D000488A0E080C1302070F000000708A0E08E1
:1010E0000B1402060E000000988A0E080F1300076A
:1010F0000F000000C08A0E080D1400060E0000004C
:10110000E88A0E080D1301070F000000108B0E086F
:10111000111501050F000000ACEE0C080E110109BD
:101120000C000000A4E40E081013000711000000DA
:10113000388B0E08121300071300000044210D081D
:101140000C1301070F000000608B0E080B14010642
:101150000E000000888B0E080C13010C0E0000001E
:10116000B08B0E080B1301070E000000D88B0E0881
:101170001013010712000000008C0E080C13010769
:101180000D000000288C0E080F18FE070D0000004F
:10119000CC0B0E080E1500070E000000AC540E0814
:1011A0001315010511000000ECEE0C080F180007E4
:1011B0000F000000FC0B0E081214020616000000BF
:1011C00080210D080214020606000000445B0F088F
:1011D0000813000709000000585B0F080D130207F1
:1011E0000F000000508C0E080B1402060C000000CB
:1011F000788C0E0806140006070000006C5B0F08D0
:101200000C1400060C000000A08C0E08121302073C
:1012100016000000BC210D081118FE071100000087
:10122000B0860C080A13020C0E000000C88C0E08D1
:101230001013010712000000F08C0E0812130107B2
:1012400013000000F8210D080D1101090E00000027
:10125000C8E40E081518010717000000F8860C08EE
:101260000E13010C11000000188D0E08101300075A
:1012700010000000408D0E080B1902060E00000041
:10128000ACA50D080D1502070E000000D8540E087D
:101290000C1301070E000000688D0E080A0E000CEA
:1012A0000B000000DC220F080D1301070E000000E8
:1012B000908D0E080D1900060E000000E0A50D0827
:1012C000081700080800000084450F080F130007E6
:1012D0000F000000B88D0E0808140006080000007A
:1012E000805B0F080E1800070F0000002C0C0E0882
:1012F000111602041200000034C80C080E11020975
:101300000F000000ECE40E081113010712000000AA
:1013100034220D080C13020710000000E08D0E08A7
:10132000111300071100000070220D0811180007AA
:101330000C00000040870C080C1301070E00000091
:10134000088E0E08090E010C0B000000F8220F0891
:101350000C1800070D0000005C0C0E080C180107AB
:101360000D0000008C0C0E080A13010C0B0000008D
:10137000308E0E080913010C0B000000588E0E0869
:101380000B1301070E000000808E0E080C130107DE
:101390000E000000A88E0E080A0E000C0B000000C4
:1013A00014230F080B1200080C00000010E50E08B3
:1013B0000B13020C0E000000D08E0E08021904065A
:1013C0000A00000030230F08061902060A00000078
:1013D0004C230F080E1902061200000014A60D0877
:1013E0000213030708000000945B0F081C19020198
:1013F0001F00000060830B08191502051C00000087
:10140000841B0C0817150105190000002CEF0C08AF
:101410001413020718000000AC220D08111802076F
:101420001500000088870C08081902060C0000004F
:1014300068230F08171302071B000000E8220D089D
:101440001318020717000000D0870C0811180207B4
:101450001500000018880C080F1900010F0000008B
:1014600048A60D080A1501050D00000004550E08D8
:10147000081900010900000084230F080815FF0562
:10148000060000009C450F08101901011200000021
:101490007CA60D080C1501050E00000030550E0845
:1014A0000C19020110000000B0A60D080A15020573
:1014B0000E0000005C550E080C190201100000001F
:1014C000E4A60D080A1602040E00000088550E0856
:1014D0000C1902011000000018A70D080A160204DA
:1014E0000E000000B4550E080C1902011000000097
:1014F0004CA70D080A1802020E000000BC0C0E08D2
:101500000C1902011000000080A70D080A16020441
:101510000E000000E0550E080B0E010C0D0000003F
:10152000A0230F080F1900010F000000B4A70D0839
:101530000A1601040D0000000C560E080F190001D8
:101540000F000000E8A70D080A1601040D000000B6
:1015500038560E08161700031700000060880C08A4
:10156000141301071600000024230D0810130107AF
:1015700011000000F88E0E080C13010C0E00000084
:10158000208F0E080F190101110000001CA80D0882
:101590000B1A01050E00000050A80D080D190201DC
:1015A0000F00000084A80D080B1902010C000000B8
:1015B000B8A80D081018010712000000EC0C0E0866
:1015C0000C13010C0E000000488F0E08101C0103C4
:1015D0001200000038680D080C1801070E0000000A
:1015E0001C0D0E080C1E00010D00000060230D08EC
:1015F0000A1A00050B000000ECA80D08081AFF05E8
:1016000007000000BC230F081C1302071F00000086
:10161000984E0C08191302071C000000E44E0C0839
:1016200017140106190000009C230D080F19010171
:101630001100000020A90D080B1A01050E00000082
:1016400054A90D081513020719000000D8230D082E
:101650000B1802070E0000004C0D0E080D190201B8
:101660001100000088A90D080A1502050E000000EF
:1016700064560E080F1900010F000000BCA90D08E8
:101680000A1701030D0000007C0D0E081619000159
:1016900017000000304F0C0814150105160000005B
:1016A0006CEF0C08101A010112000000F0A90D08DF
:1016B0000C1601050E00000090560E080F190001CF
:1016C0000F00000024AA0D080B1500050D000000F6
:1016D000BC560E080F1900010F00000058AA0D0893
:1016E0000A1401060D000000708F0E080B1902018C
:1016F0000E0000008CAA0D080B1501050D0000005E
:10170000E8560E080B1902010E000000C0AA0D08D1
:101710000B1401060D000000988F0E080A19FE0137
:1017200009000000F4AA0D080A15FD0506000000D6
:1017300014570E080819000109000000D8230F08EB
:101740000814FF0606000000A85B0F08101901012D
:101750001200000028AB0D080C1501050E0000005A
:1017600040570E0810190101120000005CAB0D0873
:101770000C1401060E000000C08F0E080F190101A5
:101780001000000090AB0D080A15000509000000CC
:101790006C570E080E19020110000000C4AB0D08B2
:1017A0000814020609000000BC5B0F080C190201B6
:1017B00010000000F8AB0D080B1501050E0000002D
:1017C00098570E080C190201100000002CAC0D08EF
:1017D0000A1402060E000000E88F0E080C1801071C
:1017E0000E000000AC0D0E080A13010C0B000000E7
:1017F00010900E081018FF070F000000DC0D0E08F7
:101800000817000808000000B4450F080B1801076E
:101810000D0000000C0E0E080A13000C0B00000057
:1018200038900E080D1902011100000060AC0D087F
:101830000A1902010E00000094AC0D080D180207F1
:10184000100000003C0E0E081219010613000000E3
:101850007C4F0C080D1301070F00000060900E086C
:101860000B1301070D00000088900E080D160107EC
:101870000E000000C4570E080A11010C0B000000F6
:1018800034E50E080F1700030F0000006C0E0E0861
:101890000A1201080D00000058E50E080B18020797
:1018A0000E0000009C0E0E080B13010C0D00000032
:1018B000B0900E081019010112000000C8AC0D080C
:1018C0000C1601040E000000F0570E08101901015B
:1018D00012000000FCAC0D080C1701030E00000004
:1018E000CC0E0E081017010312000000FC0E0E08AB
:1018F0000C1201080E0000007CE50E081019010111
:101900001200000030AD0D080C1601040E0000009E
:101910001C580E080E1700030E0000002C0F0E08B6
:101920000C1800070C0000005C0F0E080A190106D5
:101930000B00000064AD0D081113020C1300000031
:1019400014240D080B1200080B000000A0E50E087F
:101950000613FF0C07000000D05B0F0814140106EB
:101960001600000050240D081413010C160000008E
:101970008C240D08101600060F00000048580E08B1
:10198000101601060F00000074580E080C13010910
:101990000C000000D8900E080D13FF070C0000008B
:1019A00000910E081116FF060F00000078C80C0801
:1019B0000A13010C0B00000028910E080913010CFA
:1019C0000B00000050910E080D1400060E000000E0
:1019D00078910E080B1200070C000000C4E50E08F9
:1019E0000D1301070F000000A0910E080E13010750
:1019F00010000000C8910E080F1300070F00000030
:101A0000F0910E080B1802050E0000008C0F0E0856
:101A10000B1801070D000000BC0F0E08091300078A
:101A20000A00000018920E080718FF0707000000C0
:101A3000CC450F081318010712000000A8880C08F5
:101A40000F13010C0E00000040920E080F13010747
:101A50001000000068920E08080E010C090000003A
:101A6000E06C0F080E1300070E00000090920E08A5
:101A70000C13000C0C000000B8920E080A0E020CA9
:101A80000D000000F4230F080B0E010C0E000000E7
:101A900010240F080B0E020C0E0000002C240F085F
:101AA0000B1402060E000000E0920E080A0E010C54
:101AB0000C00000048240F080B0E000C0C00000066
:101AC00064240F08101901060E00000098AD0D08DF
:101AD000101401060E00000008930E080B0E010CF6
:101AE0000D00000080240F080B0E010C0D000000FB
:101AF0009C240F08110E010C12000000A0580E08C3
:101B00000A0E010C0B000000B8240F080A0E000C8E
:101B10000B000000D4240F08100E000C1000000071
:101B2000F0240F080B0E010C0D0000000C250F080F
:101B30000913FF0C0800000030930E08101901066D
:101B40000E000000CCAD0D080B13010C0E000000C0
:101B500058930E080B0E010C0D00000028250F08ED
:101B60000C13000C0C00000080930E080F0E000CEC
:101B70000F00000044250F080A13020C0E0000009D
:101B8000A8930E080A1402060E000000D0930E0857
:101B90000A1902060E00000000AE0D080613000729
:101BA00006000000E45B0F08020E020C06000000B5
:101BB000F06C0F08060E010C09000000006D0F0804
:101BC0000A1400060A000000F8930E080714000625
:101BD00007000000F85B0F08061902060600000067
:101BE00060250F080B1902060E00000034AE0D0828
:101BF000120E010C15000000CC580E081213010C37
:101C000015000000C8240D081213010C1500000077
:101C100004250D080F13FD0C0E00000020940E0883
:101C20000E13020C0E00000048940E080A0E020C5F
:101C30000E0000007C250F080C0E010C0E000000A9
:101C400098250F08110E010C14000000F8580E081A
:101C5000100E010C12000000B4250F080C1901062B
:101C60000E00000068AE0D08070E000C0900000011
:101C7000106D0F0807140006090000000C5C0F0827
:101C80000C13000C0900000070940E080713020CDE
:101C900009000000205C0F080713020C0900000077
:101CA000345C0F08070E020C09000000206D0F08BD
:101CB0000713000C09000000485C0F080B0E020C13
:101CC0000D000000D0250F080B0E020C0D000000C7
:101CD000EC250F080A13010C0B00000098940E0865
:101CE0000C1901060E0000009CAE0D080C19FF0631
:101CF00008000000D0AE0D080C13010C0E0000000F
:101D0000C0940E080D1900060E00000004AF0D0867
:101D100008120008080000005C5C0F0808170008A3
:101D200008000000E4450F080E0E000C0E00000035
:101D300008260F080C0E020C1000000024260F08C5
:101D40000A0E020C0E00000040260F080C0E000CBC
:101D50000C0000005C260F08130E000C130000009E
:101D600024590E080C1300070C000000E8940E081C
:101D70000B0E000C0B00000078260F080E13010C50
:101D80000B00000010950E080D10010C0E00000055
:101D9000200B0F080A13000C0B00000038950E08EA
:101DA0000B13000C0B00000060950E080B140006CE
:101DB0000C00000088950E080B1401060C000000B2
:101DC000B0950E080B1400060C000000D8950E0804
:101DD0000B13010C0C00000000960E0810130107F5
:101DE0001200000028960E080A0E020C0D000000DA
:101DF00094260F080B0E010C0D000000B0260F08F2
:101E00000F1101090D000000E8E50E080A0E020C92
:101E10000E000000CC260F080A1800070A00000078
:101E2000EC0F0E080B13FF0C0C00000050960E0870
:101E3000080E020C0A000000306D0F081019010690
:101E40000E00000038AF0D080B1400060C00000057
:101E500078960E080B1401060C000000A0960E08E0
:101E6000141401061600000040250D08141901067F
:101E700016000000C84F0C081816010619000000D3
:101E8000BCC80C08111200081100000070680D0891
:101E90000F1900060E0000006CAF0D0811120008AB
:101EA00012000000A8680D081219000614000000B6
:101EB00014500C080E14020610000000C8960E08FC
:101EC0000B1402060E000000F0960E080B1301071B
:101ED0000C00000018970E080A1202080E000000FD
:101EE0000CE60E080F13000C1100000040970E08BE
:101EF0001313000C130000007C250D08080D0108C9
:101F00000A000000406D0F08080D01080A000000DB
:101F1000506D0F080510000806000000606D0F08E6
:101F20000509010C0600000044790F080509000CA2
:101F30000600000050790F08080C000C0600000095
:101F40005C790F080809010C0900000068790F0886
:101F50000C09000C0C000000705C0F08090C000C50
:101F600009000000FC450F080508020707000000F3
:101F700070930F080A0801070C000000706D0F082D
:101F80000507FF060500000078930F080507010606
:101F90000500000080930F080507FF0605000000FC
:101FA00088930F08040705050E00000090930F08A2
:101FB000040705050E00000098930F08070D01089F
:101FC00009000000806D0F08070D010809000000DE
:101FD000906D0F080D0E020B12000000E8260F088E
:101FE0000D0E030B1200000004270F080E0D020C4B
:101FF0001200000020270F080E0D020C1200000036
:102000003C270F08080503050E000000A0930F08E9
:10201000080503050E000000A8930F080205060539
:102020000E000000B0930F08090202070E00000026
:10203000ACA30F08050505050E000000B8930F08B6
:10204000050503050E000000C0930F080204061BDF
:102050000E000000B0A30F080902021D0E000000D0
:10206000B4A30F080505031A0E000000C8930F085B
:102070000505061A0E000000D0930F08030E030C8E
:1020800009000000A06D0F08030303110900000000
:10209000B8A30F080407050F0E000000D8930F081F
:1020A0000407050F0E000000E0930F08060401145A
:1020B00008000000BCA30F0806040114080000007B
:1020C000C0A30F080604011408000000C4A30F08F1
:1020D000090202140E000000C8A30F080805030639
:1020E0000E000000E8930F08020206080E00000030
:1020F00038A70F08070703050E000000F0930F082C
:102100000405041A0E000000F8930F080A040206E2
:102110000E00000000940F080A0503050E000000E1
:1021200074790F08070500110800000008940F08D3
:10213000080801070A00000010940F08080C000CA2
:102140000800000080790F08020D0108040000005B
:10215000B06D0F080709010C090000008C790F0809
:102160000709000C0800000098790F08070D010806
:1021700009000000C06D0F08061202080A000000E6
:10218000845C0F08061202080A000000985C0F0821
:10219000061202080A000000AC5C0F0806120208D2
:1021A0000A000000C05C0F08061202080A000000C6
:1021B000D45C0F08060B010F08000000A4790F087B
:1021C000060B010F08000000B0790F080805031A7C
:1021D0000E00000018940F08070303070E0000000C
:1021E000CCA30F080A0701060A000000D06D0F08F3
:1021F0000503041B0E000000D0A30F080503041BF9
:102200000E000000D4A30F080305051A0E000000FD
:1022100020940F080305051A0E00000028940F08EB
:102220000404051B0E000000D8A30F0805050311C8
:102230000E00000030940F080A0501110E00000086
:10224000BC790F080A0503110E000000C8790F08B9
:102250000A04021B0E00000038940F08030D030748
:1022600009000000E06D0F08050504070E000000DE
:1022700040940F08050505070E00000048940F085C
:10228000050504150E00000050940F0805050515FE
:102290000E00000058940F080905021A0E000000F5
:1022A000D4790F080905021A0E000000E0790F0822
:1022B000060701180800000060940F080505F705DF
:1022C0000000000068940F080505F80500000000F4
:1022D00070940F080805FC050000000078940F08B2
:1022E0000A04F4010000000080940F080902FB07B3
:1022F00000000000DCA30F080E02F904000000003B
:10230000E0A30F080805FC060000000088940F08F1
:102310000202FF08000000003AA70F080802FC08AC
:10232000000000003CA70F080405050500000000A0
:1023300090940F080707FC050000000098940F0810
:102340000A05FB0500000000EC790F080805FC05F4
:1023500000000000A0940F080205FF050000000027
:10236000A8940F080505FE0500000000B0940F08B2
:102370000A05FB0500000000F8790F080807FC04B7
:1023800000000000B8940F080805FC0600000000DB
:10239000C0940F080205FF0600000000C8940F0853
:1023A0000205FF0600000000D0940F080205FF069A
:1023B00000000000D8940F0802050106000000008C
:1023C000E0940F080505FD1A00000000E8940F08CE
:1023D0000505FD1A00000000F0940F080504FE1B1F
:1023E00000000000E4A30F080504FE1B000000002D
:1023F000E8A30F080906FB0400000000047A0F0898
:102400000406000300000000F8940F080204FF1BFC
:1024100000000000ECA30F080604FD1B00000000F4
:10242000F0A30F080604FD1B00000000F4A30F0832
:102430000604FD1B00000000F8A30F080902FB1DA5
:1024400000000000FCA30F080607FC1800000000B5
:1024500000950F08060700180000000008950F08F7
:102460000202061C000000003EA70F080802FC1D27
:102470000000000040A70F080404FE1B000000003D
:1024800000A40F080204FF1B0000000004A40F08B2
:102490000605FD1A0000000010950F080405FE1A3D
:1024A0000000000018950F080204FF1B0000000048
:1024B00008A40F080904FB1B0000000020950F086A
:1024C0000903FC1C0000000028950F080804FC1BF1
:1024D000000000000CA40F080804FC1B0000000012
:1024E00010A40F080804FC1B0000000014A40F082F
:1024F0000804FC1B0000000018A40F080A04FB1BC2
:102500000000000030950F080902FB1D00000000CC
:102510001CA40F080E02F91C0000000020A40F08E4
:102520000A04FB1B0000000038950F080A04FB0E8C
:102530000000000040950F080902FB100000000099
:1025400024A40F080E02F9100000000028A40F08B0
:102550000A09FB0D00000000E85C0F080918FB06E3
:10256000000000001C100E080204FF1B0000000009
:102570002CA40F080904FB1B0000000048950F085D
:102580000404FE1B0000000030A40F080903FC1C1B
:102590000000000050950F080606FD030000000033
:1025A00058950F080206FF040000000060950F0810
:1025B0000E05F90100000000107A0F080A04FB065E
:1025C0000000000068950F080205FF0600000000EB
:1025D00070950F080905FC05000000001C7A0F0823
:1025E0000304FE1B0000000034A40F080904FB05CF
:1025F0000000000078950F080E04F91B0000000091
:1026000080950F080504FE1B0000000038A40F0889
:102610000504FE1B000000003CA40F080A06FB0591
:1026200000000000287A0F080A08FB0300000000E1
:10263000F06D0F080A06FB0400000000347A0F0852
:102640000604FD1B0000000040A40F080604FD1B4B
:102650000000000044A40F081211F7090000000058
:10266000A0AF0D080305FD050000000088950F08C8
:102670000407FE050000000090950F080807FC0401
:102680000000000098950F080505FD1A00000000E5
:10269000A0950F080305FF1A00000000A8950F0879
:1026A0000305FE1A00000000B0950F080805FD1A8A
:1026B00000000000B8950F080407FE0500000000A8
:1026C000C0950F08020206080000000042A70F088C
:1026D0000504FE1B0000000048A40F080704FD1BB2
:1026E000000000004CA40F080405FE0600000000D6
:1026F000C8950F081305F61A00000000006E0F08B9
:102700001305FE0600000000106E0F081302FE06FF
:1027100000000000D0950F081302FE1D000000000D
:10272000D8950F081304FE0600000000407A0F0839
:102730001305FE0600000000206E0F080E04FE1BAD
:1027400000000000E0950F080507FD0400000000F0
:10275000E8950F080607FD0400000000F0950F083B
:102760000109FF02000000004C7A0F080607FD0473
:1027700000000000F8950F080507FD0400000000A8
:1027800000960F080507FD040000000008960F08DA
:10279000060AFD0100000000587A0F08050AFD0135
:1027A00000000000647A0F080907FB040000000025
:1027B000306E0F080307FE040000000010960F089B
:1027C0000409FE0200000000707A0F080507FD04EE
:1027D0000000000018960F080507FD040000000027
:1027E00020960F08040505050E00000028960F0826
:1027F0000404051B0E00000050A40F080304051B71
:102800000E00000054A40F080A0E010C0C0000007A
:1028100058270F080A0E010C0C00000074270F083F
:102820000A0E010C0C00000090270F080513020C83
:1028300009000000FC5C0F08030505050E00000000
:1028400030960F08090502050E0000007C7A0F087B
:102850000F1300070F00000068970E080303030C16
:102860000900000058A40F08101300071100000011
:1028700090970E081213000714000000B8250D08E9
:102880000A1300070C000000B8970E081313000786
:1028900014000000F4250D081213000712000000B8
:1028A00030260D0814130007140000006C260D08D4
:1028B0000815FF050600000014460F080F13000757
:1028C0000F000000E0970E080C1302070F00000035
:1028D00008980E080B1302070D00000030980E0830
:1028E0000F1300070F00000058980E080B13020783
:1028F0000E00000080980E080C1301070E00000067
:10290000A8980E080D13020711000000D0980E08B9
:102910001013010712000000F8980E0806130107B3
:1029200009000000105D0F080D1302070F000000E2
:1029300020990E080F1300070F00000048990E0899
:102940000F1302071300000070990E080D13020701
:102950001100000098990E080C1301070E000000EA
:10296000C0990E081013010712000000E8990E0824
:102970000D13020711000000109A0E080C13020735
:102980000E000000389A0E080D1301070E0000001B
:10299000609A0E081013FF070F000000889A0E08B7
:1029A0000E1300070E000000B09A0E081013010766
:1029B00013000000D89A0E080F1300070F00000044
:1029C000009B0E081013020714000000289B0E083D
:1029D0001113010712000000A8260D0806170103B5
:1029E000090000002C460F080E1700030E0000001F
:1029F0004C100E080B1501050E00000050590E0872
:102A00000A1501050B0000007C590E080A1A020580
:102A10000E000000D4AF0D080315020506000000EB
:102A200044460F080A1502050E000000A8590E08BA
:102A30000B0E010C0E000000AC270F080B1902064C
:102A40000E00000008B00D080C13000C0C00000074
:102A5000509B0E080C1401060E000000789B0E0817
:102A60000A0E010C0B000000C8270F080A19010606
:102A70000A0000003CB00D080A13020C0E00000012
:102A8000A09B0E080C1401060E000000C89B0E0847
:102A9000020E020C06000000406E0F080A0E020C27
:102AA0000C000000E4270F080C1400060C000000C6
:102AB000F09B0E080A13020C0E000000189C0E0872
:102AC0000C0E000C0C00000000280F080B1901066A
:102AD0000B00000070B00D080C0E010C0E00000081
:102AE0001C280F080A0E020C0E00000038280F08E0
:102AF0000B13020C0E000000409C0E080A13010C80
:102B00000B000000689C0E080E0E010C0F00000068
:102B100054280F080C0E000C0C00000070280F0841
:102B20000A0E020C0E0000008C280F081013010C76
:102B300012000000909C0E080C13000C0C0000000A
:102B4000B89C0E080E13020C12000000E09C0E0848
:102B5000100E010C12000000A8280F080613000731
:102B600006000000245D0F080A1202080E00000093
:102B700030E60E080C1501050E000000D4590E08B1
:102B80000A1502050E000000005A0E081015010576
:102B9000120000002C5A0E080B1402060E00000052
:102BA000089D0E080C1402060E000000309D0E0851
:102BB0001213000711000000E4260D081615000589
:102BC00015000000ACEF0C08121700031100000004
:102BD000F0880C080C1901060E000000A4B00D08C6
:102BE000100E010C12000000C4280F080E13000C78
:102BF0000E000000589D0E0810180107120000007A
:102C00007C100E080C13010C0E000000809D0E08B5
:102C10000D1801070F000000AC100E080B13010C7B
:102C20000C000000A89D0E080B1302070D00000009
:102C3000D09D0E080813020C0B000000385D0F0831
:102C40000F13010710000000F89D0E080B14010679
:102C50000D000000209E0E0812180007130000004F
:102C600038890C080D1900060E000000D8B00D08B8
:102C7000121802071600000080890C081213010CBC
:102C80001500000020270D080D130107100000009B
:102C9000489E0E080A1402060E000000709E0E08E0
:102CA0000D18020710000000DC100E080D0E000CBD
:102CB0000D000000E0280F080C1301070E000000B3
:102CC000989E0E080C1401060E000000C09E0E080F
:102CD0000F1300070F000000E89E0E080F0E000CF7
:102CE0000F000000FC280F0810130107120000005D
:102CF000109F0E080C0E010C0E00000018290F0882
:102D00000C1300070C000000389F0E080A14000680
:102D10000A000000609F0E080E0E000C0E0000005E
:102D200034290F080C13010C0E000000889F0E08B8
:102D30000A0E010C0C00000050290F080618FF07AE
:102D4000070000005C460F08101301071200000086
:102D5000B09F0E080B0E010C0C0000006C290F0830
:102D60000B0E000C0C00000088290F080A13020744
:102D70000E000000D89F0E080B1902060E0000007E
:102D80000CB10D080E13FF0C0E00000000A00E0881
:102D90000D1301070F00000028A00E080D130107F6
:102DA0000F00000050A00E080D1301070F000000D7
:102DB00078A00E080B1902010E00000040B10D08AA
:102DC0000B1702030E0000000C110E081113000770
:102DD000120000005C270D080B1902010D00000015
:102DE00074B10D080D1301070F000000A0A00E081C
:102DF0000C1301070E000000C8A00E0806130107FF
:102E0000090000004C5D0F080617010309000000CF
:102E100074460F08081300070A000000605D0F08E1
:102E2000191300071900000060500C08171302075F
:102E30001900000098270D08111300071200000068
:102E4000D4270D080D1902010F000000A8B10D08CC
:102E50000D19020111000000DCB10D080E1800026E
:102E60000E0000003C110E080D17020711000000B3
:102E70006C110E080F1300070F000000F0A00E08E1
:102E80000C1302070F00000018A10E080C13020714
:102E90000F00000040A10E080B1302070D000000F8
:102EA00068A10E0810170007110000009C110E0801
:102EB0000B1302070E00000090A10E081613000766
:102EC0001600000010280D080C1300070D0000006C
:102ED000B8A10E080D13020711000000E0A10E08B2
:102EE0000D18020211000000CC110E080D1302078C
:102EF0000F00000008A20E080F13000711000000C9
:102F000030A20E080F1302071300000058A20E088B
:102F10000D1302071100000080A20E081013010714
:102F200012000000A8A20E080D13020711000000F5
:102F3000D0A20E080C1302070E000000F8A20E0823
:102F40000D1301070F00000020A30E081013FF0748
:102F50000F00000048A30E080E1300070E0000002B
:102F600070A30E08101301071300000098A30E08A9
:102F70000F1300070F000000C0A30E080E17020772
:102F800011000000FC110E080D13010710000000D5
:102F9000E8A30E0814130207180000004C280D08BF
:102FA0001617020718000000C8890C081113000743
:102FB0001100000088280D081013020714000000FB
:102FC00010A40E080D1302070F00000038A40E080D
:102FD0000D1301070F00000060A40E08151302076F
:102FE00018000000C4280D080D1300070F00000092
:102FF00088A40E080A0E010C0D000000A4290F0879
:103000000C1401060E000000B0A40E080A0E020CFB
:103010000D000000C0290F08080E020C0A00000075
:10302000506E0F080D11000C0E00000054E60E0843
:103030000B0E010C0D000000DC290F08120E000C15
:1030400012000000585A0E080A0E000C0B00000077
:10305000F8290F080A0E020C0E000000142A0F08AF
:103060000A1402060E000000D8A40E080A0E020C74
:103070000C000000302A0F080C0E000C0E0000009F
:103080004C2A0F080C0E020C10000000682A0F08D2
:103090000A0E020C0E000000842A0F080C0E010C10
:1030A0000E000000A02A0F080A0E020C0E000000FD
:1030B000BC2A0F080B13020C0E00000000A50E081E
:1030C0000A0E010C0C000000D82A0F080C0E000C90
:1030D0000C000000F42A0F080C13000C0C00000078
:1030E00028A50E081219000613000000AC500C08A9
:1030F0000C0E000C0C000000102B0F080B11020C22
:103100000E00000078E60E080B0E010C0E00000009
:103110002C2B0F08100E010C13000000482B0F0879
:103120001111020C1400000010B20D080D0E000C5D
:103130000E000000642B0F080D0E020C11000000A1
:10314000802B0F080A0E020C0D0000009C2B0F08AC
:103150000A0E010C0C000000B82B0F08100E020C18
:1031600013000000D42B0F080B0E000C0D00000004
:10317000F02B0F080B1501050D000000845A0E08F6
:103180000B1201080D0000009CE60E080C19000649
:103190000E00000044B20D08081502050A000000E8
:1031A0008C460F080A0E010C0C0000000C2C0F08B6
:1031B0000A0E010C0B000000282C0F080213020756
:1031C00006000000745D0F080613000706000000EB
:1031D000885D0F080618FF0707000000A4460F08C7
:1031E000140E000C15000000B05A0E08120E020C4E
:1031F00015000000DC5A0E080C1400060E0000003A
:1032000050A50E080A1502050C000000085B0E0808
:103210000A1502050E000000345B0E080C190006AA
:103220000C00000078B20D080A11020C0E0000001C
:10323000C0E60E081B1301071D000000F8500C0823
:10324000120E000C12000000605B0E081013000745
:103250001100000078A50E080D1400060E000000F5
:10326000A0A50E08121302071500000000290D0882
:103270000E0E020C11000000442C0F080F13000763
:103280000F000000C8A50E080C0E000C0C0000007A
:10329000602C0F0812130207140000003C290D08CF
:1032A0000F0E020C110000007C2C0F0814130007F5
:1032B0001400000078290D080F0E000C0F0000000C
:1032C000982C0F081713020719000000B4290D08E5
:1032D000130E020C150000008C5B0E080B1E010182
:1032E0000D000000F0290D080A1A00050B0000006F
:1032F000ACB20D081013020714000000F0A50E0870
:103300000E13020C1200000018A60E08101301077D
:103310001200000040A60E080C0E010C0E0000006A
:10332000B42C0F0813130007120000002C2A0D08FC
:10333000100E000C0F000000D02C0F081319000114
:103340001200000044510C08101500050F00000089
:10335000B85B0E081C1801071D000000F0B30B0835
:103360001813010C19000000682A0D081315010636
:1033700015000000ECEF0C080F10010B110000000D
:10338000400B0F08151901011700000090510C089F
:103390001117010313000000108A0C081B1701030A
:1033A0001D00000030F20B0812120008120000008D
:1033B000E0680D080D1801070F0000002C120E0820
:1033C0000A13010C0C00000068A60E080C1300077D
:1033D0000C00000090A60E0808050306000000007F
:1033E00038960F08090302070000000040960F08F6
:1033F000020506060000000048960F0802050606B2
:103400000000000050960F080A0403061000000098
:1034100058960F081816F4080000000000C90C08A0
:103420001818F40700000000588A0C080F1C02024C
:103430001100000018690D080C1702060E000000AC
:103440005C120E080F1300070F000000B8A60E084C
:103450000C1400060D000000E0A60E080D13020774
:103460000E00000008A70E080C13020C0E0000004E
:1034700030A70E080B1802020D0000008C120E0877
:10348000081302070A0000009C5D0F080C130107D7
:103490000D00000058A70E08090E010C0A000000DC
:1034A000EC2C0F080B1802070E000000BC120E08CF
:1034B0000A13020C0D00000080A70E081617000763
:1034C00017000000A08A0C081211000C1300000065
:1034D000E0B20D080C1800070D000000EC120E08F9
:1034E0000A13000C0B000000A8A70E080E17020715
:1034F000100000001C130E080A11020C0D00000041
:10350000E4E60E080D1302070F000000D0A70E0816
:103510000A0E020C0C000000082D0F080F13000704
:103520000F000000F8A70E080C1400060C000000A5
:1035300020A80E081213000712000000A42A0D088C
:103540000E0E000C0E000000242D0F080F170207AE
:10355000110000004C130E080B11020C0E000000AD
:1035600008E70E081213020714000000E02A0D08F5
:103570000E0E020C10000000402D0F081618020756
:1035800019000000E88A0C081213020C1500000054
:103590001C2B0D081114010712000000582B0D08F8
:1035A0000D0F010C0E000000600B0F080D18010735
:1035B0000F0000007C130E080A13010C0C00000021
:1035C00048A80E081017FF070F000000AC130E08E4
:1035D0000C11000C0C0000002CE70E080E13000765
:1035E0000E00000070A80E080C13000C0C00000068
:1035F00098A80E080E1300070E000000C0A80E08C1
:103600000C13000C0C000000E8A80E080F170007B0
:103610000F000000DC130E080C11000C0D00000060
:1036200050E70E081317000714000000308B0C0839
:103630000F11000C1000000074E70E080F170107AF
:10364000100000000C140E080C11010C0E000000FC
:1036500098E70E080D1301071000000010A90E08CE
:103660000B0E010C0E0000005C2D0F080C1302075E
:103670001000000038A90E080A1402060E0000000F
:1036800060A90E081413000715000000942B0D0804
:103690000F0E000C10000000782D0F081417000703
:1036A00015000000788B0C080F11000C10000000B2
:1036B000BCE70E080613010709000000B05D0F0803
:1036C0001619000116000000DC510C081214000647
:1036D00012000000D02B0D080C1802070F0000008C
:1036E0003C140E080913020C0C00000088A90E08F7
:1036F0001117000711000000C08B0C080E11000C00
:103700000E000000E0E70E080D180207110000008F
:103710006C140E080A13020C0E000000B0A90E086B
:103720000F170207110000009C140E080C11020C68
:103730000E00000004E80E080D170107100000003D
:10374000CC140E080B11010C0E00000028E80E0826
:103750001117020713000000088C0C080E11020C50
:10376000100000004CE80E080214020606000000DB
:10377000C45D0F080F1900010F00000014B30D08FD
:103780000A1401060D000000D8A90E080F16000447
:103790000F000000E45B0E080A1201080D00000093
:1037A00070E80E0816130007170000000C2C0D0817
:1037B000140E010C16000000105C0E080B1902011B
:1037C0000E00000048B30D080B1401060D000000A8
:1037D00000AA0E08101301071200000028AA0E0804
:1037E0000B0E010C0D000000942D0F0810160104A3
:1037F000120000003C5C0E080B1201080D000000D6
:1038000094E80E08161600041600000044C90C08BF
:10381000121200081200000050690D080C16000476
:103820000D000000685C0E080A1200080B00000082
:10383000B8E80E080C1300070D00000050AA0E088F
:103840000A13000C0B00000078AA0E080D170203E3
:1038500011000000FC140E080A1302070E000000FD
:10386000A0AA0E080D16020411000000945C0E08B8
:103870000A1202080E000000DCE80E08101701030F
:10388000120000002C150E080C1201080E0000009A
:1038900000E90E081013010712000000C8AA0E0864
:1038A0000C0E010C0E000000B02D0F0810170103C4
:1038B000120000005C150E080C1201080E0000003A
:1038C00024E90E080D1601040F000000C05C0E086C
:1038D0000A1201080C00000048E90E080E17000348
:1038E0000E0000008C150E080C1800070C000000DC
:1038F000BC150E080E1600040E000000EC5C0E084D
:103900000C1700080C000000EC150E080E19000141
:103910000E0000007CB30D080C1A00050C0000001E
:10392000B0B30D080D16010410000000185D0E085C
:103930000B1201080E0000006CE90E080B170207BD
:103940000D0000001C160E080812020C0A000000F0
:10395000D85D0F081016020414000000445D0E0824
:103960000D1202081100000090E90E080D18000762
:103970000D0000004C160E080A13000C0A0000008F
:10398000F0AA0E08101800070F0000007C160E08A1
:103990000C13000C0C00000018AB0E080F130007EE
:1039A0000F00000040AB0E080C0E000C0C000000D5
:1039B000CC2D0F080D1300070F00000068AB0E0898
:1039C0000B1401060E00000090AB0E081513000743
:1039D00017000000482C0D08131401061600000003
:1039E000842C0D081413010717000000C02C0D08CB
:1039F000120E010C15000000705D0E080E17010775
:103A00000F000000AC160E080B11010C0D00000099
:103A1000B4E90E081713000719000000FC2C0D086C
:103A2000140E000C160000009C5D0E081513020712
:103A300019000000382D0D08120E020C16000000AF
:103A4000C85D0E080F13010711000000B8AB0E0887
:103A50000B0E010C0D000000E82D0F0811130007DC
:103A600013000000742D0D080F0E000C1100000053
:103A7000042E0F080C1301070D000000E0AB0E0828
:103A80000A0E010C0B000000202E0F080F18000773
:103A900011000000DC160E080C13000C0E000000D4
:103AA00008AC0E0810180107120000000C170E08D1
:103AB0000B13010C0E00000030AC0E0817130007AA
:103AC00017000000B02D0D08130E000C13000000AD
:103AD000F45D0E08101302071200000058AC0E0827
:103AE0000D1302071000000080AC0E081013000731
:103AF00010000000A8AC0E08111300071100000010
:103B0000EC2D0D080D13020710000000D0AC0E08BC
:103B10000D1301070F000000F8AC0E080C1302078C
:103B20000F00000020AD0E080D130207100000006A
:103B300048AD0E081213020714000000282E0D08CD
:103B40000F1301071000000070AD0E080C130207E0
:103B50000F00000098AD0E080A1302070C000000C9
:103B6000C0AD0E081213020716000000642E0D08E7
:103B70001013000710000000E8AD0E080C13020738
:103B80001000000010AE0E080B1301070D0000001E
:103B900038AE0E080E1300070F00000060AE0E08CE
:103BA0001113000711000000A02E0D080D130207CD
:103BB0001100000088AE0E0810130207120000006A
:103BC000B0AE0E080E13010710000000D8AE0E08AC
:103BD000101300071100000000AF0E080D130107BD
:103BE0000F00000028AF0E080C13020710000000A1
:103BF00050AF0E080D1301070F00000078AF0E083C
:103C00000F13000711000000A0AF0E080D130107ED
:103C10000F000000C8AF0E081013020712000000CA
:103C2000F0AF0E080C1302071000000018B00E08C9
:103C30001113000711000000DC2E0D080F13000700
:103C40001000000040B00E080C1302070F00000027
:103C500068B00E080F1301071100000090B00E08A5
:103C60000A1302070D000000B8B00E081013010778
:103C700013000000E0B00E080E1300070F00000054
:103C800008B10E08101301071200000030B10E0831
:103C90000F1300071000000058B10E0802050106BE
:103CA0000500000060960F080205010605000000EF
:103CB00068960F08050501060800000070960F08B9
:103CC000070A010609000000887A0F0805050106A9
:103CD0000800000078960F0807060106090000009A
:103CE00080960F080A0601030C000000947A0F0862
:103CF000110E020C15000000205E0E080A13020CC3
:103D00000E00000080B10E080E13010C0F00000021
:103D1000A8B10E080D13020C0F000000D0B10E0860
:103D20000A1402060E000000F8B10E080E13010C72
:103D30000F00000020B20E080A1402060D00000059
:103D400048B20E080A13020C0E00000070B20E08F2
:103D50000F13020C1100000098B20E080E14010699
:103D60000F000000C0B20E080A1902060E00000083
:103D7000E4B30D080613020C08000000EC5D0F0808
:103D8000121902061600000028520C080D14010634
:103D90000E000000E8B20E080A1902060E0000002C
:103DA00018B40D080A1402060E00000010B30E0825
:103DB0000A1401060C00000038B30E080D13020CA3
:103DC0000F00000060B30E080B1401060C00000089
:103DD00088B30E080D1402060F000000B0B30E08E1
:103DE0000613000C08000000005E0F080D1400060A
:103DF0000F000000D8B30E080A13000C0B000000DF
:103E000000B40E080A0E020C0E0000003C2E0F0833
:103E10000A13000C0B00000028B40E081113020C4A
:103E200015000000182F0D080B13000C0C000000EB
:103E300050B40E080B0E020C0E000000582E0F0896
:103E40000A0E020C0E000000742E0F080D19020657
:103E50000F0000004CB40D08110E020C15000000FC
:103E60004C5E0E080A13020C0E00000078B40E0817
:103E70000B13010C0E000000A0B40E08080E020C7B
:103E80000A000000606E0F081119020615000000FC
:103E900074520C080E13000C0F000000C8B40E087A
:103EA0000C0E010C0E000000902E0F0810190006D9
:103EB0001100000080B40D080D1402060F00000070
:103EC000F0B40E08030E030C09000000706E0F081A
:103ED00007030110090000005CA40F080505FE1A85
:103EE0000000000088960F080803FC060000000090
:103EF00060A40F080306FE030000000090960F0860
:103F00000205FF040000000098960F080405FE0457
:103F100000000000A0960F080405FE1A0000000033
:103F2000A8960F080303FF060000000064A40F0812
:103F30000704FC050000000068A40F080405FC0449
:103F400000000000B0960F080303001B00000000F3
:103F50006CA40F080405FE1A00000000B8960F08B4
:103F60000405FE0400000000C0960F0804050004CC
:103F700000000000C8960F080805FC0400000000BF
:103F8000D0960F080E06F90300000000A07A0F0873
:103F90000606000300000000D8960F080405FE0482
:103FA00000000000E0960F080505FE1A0000000062
:103FB000E8960F080304FF1B0000000070A40F0820
:103FC0000303FE1B0000000074A40F080405FE1A82
:103FD00000000000F0960F080805FC1A0000000021
:103FE000F8960F080305FE1A0000000000970F085E
:103FF0000405FE040000000008970F080606FA03F7
:104000000000000010970F080505FE1A00000000D0
:1040100018970F080303FE060000000078A40F089D
:104020000304FF05000000007CA40F080405001A2B
:104030000000000020970F080704F90500000000A9
:1040400080A40F080303FE060000000084A40F08EC
:104050000205061A0000000028970F080805031A39
:104060000000000030970F080605041A0000000049
:1040700038970F080605041A0000000040970F0843
:104080000202061B0000000044A70F080502041BE3
:104090000000000046A70F080505051A00000000F3
:1040A00048970F080301051B00000000B7A70F0881
:1040B0000503041B0000000088A40F080202060884
:1040C0000000000048A70F080202030700000000DC
:1040D0004AA70F080805031A0000000050970F08B0
:1040E00002020612000000004CA70F080103061B85
:1040F000000000008CA40F080602020B0A0000005A
:104100004EA70F080301050800000000B8A70F081C
:104110000213020906000000145E0F0802020608DE
:104120000000000050A70F080202FF080000000076
:1041300052A70F08030F030B09000000806E0F0841
:10414000020201070000000054A70F080202FF1C32
:104150000000000056A70F080710020A0A0000001E
:10416000906E0F080504FD1B0000000090A40F08CE
:104170000D0F020B11000000800B0F080E0F010B3A
:1041800010000000A00B0F080C0F000B0C0000002B
:10419000C00B0F080D0F010B0F000000E00B0F0804
:1041A0000D0F020B11000000000C0F08050F000B93
:1041B00007000000A06E0F08070F010B08000000A9
:1041C000B06E0F080D0F020B11000000200C0F083D
:1041D0000D0F020B11000000400C0F080508000B2A
:1041E0000700000058970F080E14000B1000000085
:1041F00018B50E080D0F010B10000000600C0F0821
:104200000D1401061000000040B50E080D0F020B42
:1042100011000000800C0F080E0F010B11000000B0
:10422000A00C0F080714000B09000000285E0F08FF
:10423000070F010B0A000000C06E0F08100F000BE3
:1042400012000000C00C0F080D11010B100000003F
:10425000D8E90E080E14010B1100000068B50E0815
:104260000D0F010B10000000E00C0F080B14000BE9
:104270000C00000090B50E080D0F010B0F000000A0
:10428000000D0F080D14020B11000000B8B50E0848
:104290000C0F000B0E000000200D0F08110F020B79
:1042A000140000003C170E08100F000B1200000055
:1042B000400D0F080C0F000B0E000000600D0F08E2
:1042C0000C0F000B0E000000800D0F080C08000BF7
:1042D0000E000000D06E0F08050701060500000063
:1042E00060970F080A0701060A000000E06E0F0839
:1042F0001205011A14000000F06E0F082505011ABE
:1043000027000000AC2E0F081D0700181E0000003B
:10431000C82E0F081707011819000000BC460F0827
:1043200010170108120000006C170E080307031392
:104330000900000068970F0807070118080000002F
:1043400070970F081D0701131D000000E42E0F08D1
:104350000C12010D0F000000FCE90E080705FC021D
:104360000000000078970F080705FC02000000001D
:1043700080970F080706FC020000000088970F08CE
:104380000907FB0100000000006F0F080904FC0290
:104390000000000090970F080607011300000000BE
:1043A00098970F08030E030C09000000106F0F0808
:1043B0000605011508000000A0970F080A13010761
:1043C0000C000000E0B50E08070901110A0000000A
:1043D000AC7A0F080616000406000000D4460F0849
:1043E0000419010106000000002F0F080915000A3A
:1043F0000A000000785E0E0804180107060000009D
:10440000EC460F08140F010B160000009C170E0855
:1044100002130207060000003C5E0F08120C011296
:104420001400000020EA0E080A1101090C00000027
:1044300044EA0E08120C010E1400000068EA0E088F
:10444000120F010B14000000CC170E080C11010E06
:104450000F0000008CEA0E080C11010E0F00000086
:10446000B0EA0E080C14010B0F00000008B60E088D
:104470000A0C010E0C00000004470F080A10010A84
:104480000C000000A00D0F08080B0014090000002C
:10449000B87A0F080810000F09000000206F0F08FD
:1044A0001C0E01111E00000088690D081C14010B70
:1044B0001E000000FC390C081B0F01101D0000003D
:1044C000542F0D081B14010B1D0000004C3A0C0862
:1044D0001113FF0711000000902F0D081113FF07A3
:1044E00011000000CC2F0D080C12010D0F00000070
:1044F000D4EA0E080C1601090F000000A45E0E0895
:104500000702FF180600000058A70F081412010840
:1045100016000000C0690D08141501071600000000
:104520002CF00C080F1301071200000030B60E0823
:104530000D1301071000000058B60E08100EFE11F2
:104540000F0000001C2F0F080F0E010C11000000BF
:10455000382F0F080A0C010E0C0000001C470F0832
:10456000090F00100A000000C00D0F08140E010C06
:1045700016000000D05E0E081412010C1600000098
:10458000F8690D08070400050000000094A40F0856
:104590000805000100000000A8970F080704001A92
:1045A0000000000098A40F080702000400000000AB
:1045B0005AA70F080605000100000000B0970F0879
:1045C0000702001C000000005CA70F08070501019E
:1045D00000000000B8970F08050500020000000069
:1045E000C0970F0806020004000000005EA70F0835
:1045F00004040102000000009CA40F080404011B35
:1046000000000000A0A40F080105FF1A0000000030
:10461000C8970F080605FD0100000000D0970F089D
:104620000403FE0300000000A4A40F080501FD0917
:1046300000000000B9A70F080503000400000000F7
:10464000A8A40F080704000300000000ACA40F0892
:104650000202FF1C0000000060A70F080605000111
:1046600000000000D8970F080503000300000000B9
:10467000B0A40F080707040E0E000000E0970F0813
:10468000051104090E000000505E0F080C1101090D
:104690000E000000F8EA0E080D1100090E000000DF
:1046A0001CEB0E080B1102090E00000040EB0E0877
:1046B0000D0E010C0E000000542F0F080C11010903
:1046C0000E00000064EB0E080D1101090E00000041
:1046D00088EB0E080D1101090E000000ACEB0E086E
:1046E0000C1102090E000000D0EB0E080D1101099B
:1046F0000E000000F4EB0E0803070317090000008A
:10470000E8970F080307031309000000F0970F084C
:104710000C0C010C0E00000034470F0812080112A7
:10472000140000004C470F081410010C1600000084
:10473000FC170E080108FF0100000000F8970F08A1
:10474000061800020600000064470F080618000261
:10475000060000007C470F0806180007060000004E
:1047600094470F080404010206000000B4A40F08D7
:104770000713020706000000645E0F080A15000A0E
:104780000A000000FC5E0E080B15FF0A0A0000007C
:10479000285F0E08161401061600000008300D08E8
:1047A0001211010914000000B4B40D08120F010B1E
:1047B000140000002C180E08120D01121400000045
:1047C00080B60E081210010E140000005C180E08CE
:1047D000120E010C14000000545F0E08120D01129D
:1047E00014000000A8B60E08120F010B1400000000
:1047F0008C180E08120D011214000000D0B60E081D
:104800000C1701080F000000BC180E080C18010757
:104810000F000000EC180E080C11010E0F00000034
:1048200018EC0E080C11010E0F0000003CEC0E08F5
:104830000C1801070F0000001C190E080C11010EC6
:104840000F00000060EC0E080C11010E0F000000BC
:1048500084EC0E080A1501050C000000805F0E08AC
:104860000A10010E0C000000E00D0F080A10010EE6
:104870000C000000000E0F080A1901050C000000D2
:10488000E8B40D080A10010A0C000000200E0F0801
:104890000A10010E0C000000400E0F080A13010759
:1048A0000C000000F8B60E080A1301070C00000007
:1048B00020B70E080A1301070C00000048B70E08C5
:1048C0000816000909000000AC470F080811000E87
:1048D00009000000785E0F080B0B001409000000AF
:1048E000C4470F08090B001409000000DC470F083B
:1048F0000C0B001409000000F4470F08090B00140A
:10490000090000000C480F080810000F0900000003
:10491000306F0F080813000C090000008C5E0F08B0
:104920000813000C09000000A05E0F081C11010E06
:104930001E00000088C90C081C0E01111E0000009A
:10494000306A0D081C14010B1E0000009C3A0C0874
:104950001B0F01101D00000044300D081B1701083B
:104960001D0000008CF20B081113FF07110000005E
:1049700080300D080C1901060F0000001CB50D0851
:10498000140E010C16000000AC5F0E081412010C8E
:1049900016000000686A0D081416010816000000D1
:1049A000CCC90C0814150105160000006CF00C08A9
:1049B0001413010C16000000BC300D08141501057D
:1049C00016000000ACF00C081414010816000000DA
:1049D000F8300D081417010516000000508C0C0863
:1049E000141301071700000034310D081E0C010ECE
:1049F0001F0000004C190E081413010717000000D7
:104A000070310D080F1301071200000070B70E0877
:104A10000F16010412000000D85F0E080F180107DE
:104A2000120000007C190E08141601041700000083
:104A300010CA0C08141601041700000054CA0C0810
:104A4000141601041700000098CA0C08141A010477
:104A500017000000EC3A0C08141B010417000000BA
:104A6000D81B0C081419010117000000C0520C08D3
:104A70000F17010310000000AC190E080D160104F9
:104A80001000000004600E080F1901011000000062
:104A900050B50D080D18010710000000DC190E08B4
:104AA0000F12010C11000000A8EC0E080F0A0110F3
:104AB00011000000B45E0F080F1301071100000081
:104AC00098B70E080F12010C11000000CCEC0E0874
:104AD0000F11010911000000F0EC0E08110DFF0D7F
:104AE00011000000C0B70E080C14010B0F000000ED
:104AF000E8B70E080A1201080C00000014ED0E08B9
:104B00000C0801140D000000406F0F080C10010C80
:104B10000D000000600E0F080C0E010E0D000000CD
:104B2000702F0F08090F00100A000000800E0F08F8
:104B3000090E00110A0000008C2F0F080913000C49
:104B40000A00000010B80E08091700080A0000004B
:104B50000C1A0E08091900060A00000084B50D0899
:104B60000914000B0A00000038B80E080913000CE5
:104B70000A00000060B80E08091600090A000000CB
:104B800030600E08140E010C160000005C600E0868
:104B9000160E000C1700000088600E08140E010CA1
:104BA00016000000B4600E080913000C0A00000093
:104BB00088B80E081413010C16000000AC310D0863
:104BC0001413010C16000000E8310D08170B001338
:104BD0001700000038ED0E081712000C1700000037
:104BE000A06A0D08060200180600000062A70F0860
:104BF0000A0C010E0C00000024480F080B09FB02F0
:104C000000000000C85E0F080C09FA020000000056
:104C1000DC5E0F080504FE0500000000B8A40F08C4
:104C20000708FD020000000000980F080507FE05B8
:104C30000000000008980F080302FF0700000000B2
:104C400064A70F080C05FA0600000000C47A0F08DC
:104C50001A1B01041C00000058660B081B1B0004F3
:104C600000000000C4660B080202FF0700000000FD
:104C700066A70F080202FF070000000068A70F08E0
:104C80000704FD0500000000BCA40F080706FC0592
:104C90000000000010980F080C05FA1A0000000030
:104CA000D07A0F080403FF0100000000C0A40F0821
:104CB000050500060600000018980F080905000702
:104CC0000A000000DC7A0F080905FB07000000005D
:104CD000E87A0F080606FD030000000020980F0880
:104CE0001114FF060F00000024320D080505FE1AFE
:104CF0000000000028980F080505FE0500000000D0
:104D000030980F080202FF07000000006AA70F0892
:104D10000706FC190000000038980F080A11010965
:104D20000C0000005CED0E080912000D09000000E7
:104D300080ED0E080707040E0E00000040980F08D3
:104D4000051104090E000000F05E0F080C110109A6
:104D50000E000000A4ED0E080D1100090E00000069
:104D6000C8ED0E080C10010A0E000000A00E0F087E
:104D70000D1100090E000000ECED0E08090F030BE9
:104D80000E000000C00E0F080D1101090E000000FA
:104D900010EE0E080D1101090E00000034EE0E0891
:104DA0000C1102090E00000058EE0E081C14010B35
:104DB0001E0000003C3B0C081B14010B1D000000F2
:104DC0008C3B0C080C1601090F000000E0600E0877
:104DD000080D01110A000000506F0F080E0E00119F
:104DE0000F000000A82F0F081114FF06110000008B
:104DF00060320D08120C0112140000007CEE0E0847
:104E00001213010B140000009C320D08120D011248
:104E100014000000B0B80E081211010E14000000BA
:104E2000B8B50D081210010E140000003C1A0E084F
:104E3000120D011214000000D8B80E08120C010E59
:104E400014000000A0EE0E080C15010A0F0000006F
:104E50000C610E080C11010E0F000000C4EE0E08CC
:104E60000A1A01050C000000ECB50D080A11010E2C
:104E70000C000000E8EE0E080A0B00140900000008
:104E80003C480F081C14010B1E000000DC3B0C0802
:104E90000C1601090F00000038610E080C180107FC
:104EA0000F0000006C1A0E080C1901060F0000001C
:104EB00020B60D081412010C16000000D86A0D0867
:104EC0001413010C16000000D8320D08141301074A
:104ED0001700000014330D08141601041700000019
:104EE000DCCA0C081418010717000000988C0C0885
:104EF0001013FE0C0F00000000B90E08100EFE117A
:104F00000F000000C42F0F080F12010C1100000049
:104F10000CEF0E080F1301071100000028B90E084E
:104F20000F0E010C11000000E02F0F0811130107F4
:104F30001000000050330D080813000C0900000099
:104F4000045F0F080812000D09000000185F0F0829
:104F50001C14010B1E0000002C3C0C080B0E020C54
:104F60000F000000FC2F0F080D0E000C0F000000BA
:104F700018300F080E0E000C1000000034300F081F
:104F80000C0E010C0F00000050300F080C0E010C2D
:104F90000F0000006C300F080F0E000C1100000015
:104FA00088300F080A0E000C0C000000A4300F0817
:104FB0000B0E010C0E000000C0300F080D0E010C8E
:104FC00010000000DC300F080F10000A1000000075
:104FD000E00E0F081010000A11000000000F0F086B
:104FE000120E020C1600000064610E081113020C70
:104FF000150000008C330D080E13000C100000008B
:1050000050B90E080E13000C1000000078B90E08FD
:105010000B13010C0E000000A0B90E08120E000CBC
:105020001400000090610E08130E010C1600000021
:10503000BC610E08120E020C15000000E8610E089B
:105040000C0E010C0F000000F8300F080C0E010CC4
:105050000F00000014310F080B0E020C0F000000AF
:1050600030310F080E0E020C120000004C310F08F8
:105070000B0E010C0E00000068310F080C0E020C24
:105080000F00000084310F080C0E020C100000000D
:10509000A0310F080C14020610000000C8B90E0859
:1050A0000B0E020C10000000BC310F080B1402069E
:1050B00010000000F0B90E080E0E000C12000000E7
:1050C000D8310F080E1400061100000018BA0E089F
:1050D0000D0E010C10000000F4310F080B0E020C35
:1050E0000F00000010320F080A0E020C0E00000024
:1050F0002C320F08090E010C0B00000048320F087B
:105100000A11020C0E00000030EF0E080B0E020C0C
:105110000F00000064320F080D11010C1000000098
:1051200054EF0E08090E010C0C00000080320F082D
:105130000D0F010B0F000000200F0F08100E020CC6
:10514000130000009C320F080C0F020B0F00000030
:10515000400F0F080F0E000C11000000B8320F08AE
:105160001113000712000000C8330D080B0E020CCB
:105170000F000000D4320F080C0F020B0F000000CC
:10518000600F0F080A0E010C0D000000F0320F082E
:10519000080E020C0B000000606F0F080A05F806ED
:1051A00000000000F47A0F08090E010C0C0000004A
:1051B0000C330F080F12FB080C00000078EF0E08EC
:1051C0000A04F3070000000048980F080A05F306D8
:1051D00000000000007B0F080A05F3060000000035
:1051E0000C7B0F080A05F30600000000187B0F086F
:1051F0000304FB1B00000000C4A40F080704F71BF6
:1052000000000000C8A40F080202FC1B0000000000
:105210006CA70F080C1602060F00000014620E089F
:10522000050E020C08000000706F0F080C0E020C37
:105230000F00000028330F080A1401060C000000BC
:1052400040BA0E08091401060B00000068BA0E08E7
:105250000C1400060D00000090BA0E080911010C94
:105260000C0000009CEF0E080911010C0C0000005E
:10527000C0EF0E080807F6040000000050980F0861
:105280000104FC0700000000CCA40F080704F70786
:1052900000000000D0A40F080904F7070000000078
:1052A00058980F080303FC0800000000D4A40F085E
:1052B0000705F9060000000060980F080404FB08C9
:1052C00000000000D8A40F080507FA010000000044
:1052D00068980F080C0C010E0F00000054480F08CE
:1052E0000C0B010F0F0000006C480F080D0B010F95
:1052F0001000000084480F080D0E020C1100000081
:1053000044330F080E0B010F110000009C480F08DA
:10531000110F010B120000009C1A0E08110F010B57
:1053200012000000CC1A0E080E0F000B1000000037
:10533000800F0F08100E010C1300000060330F08DF
:10534000100F010B13000000A00F0F08100E010C2E
:10535000120000007C330F080E0E010C110000003B
:1053600098330F08170C020E1B000000E4EF0E0824
:105370000D0E000C0C000000B4330F08110E000CD1
:105380001200000040620E08140E010C160000000E
:105390006C620E080C0E010C0D000000D0330F08DB
:1053A0000A0E010C0C000000EC330F080B0E020C6F
:1053B0000E00000008340F080C0E010C0E00000057
:1053C00024340F08080E020C0B000000806F0F0839
:1053D0000A0E000C0B00000040340F080212020CF1
:1053E000060000002C5F0F08070E000C09000000EB
:1053F000906F0F080A0E020C0C0000005C340F08BE
:10540000090E010C0B00000078340F080C0E020C82
:105410001000000094340F080A0E020C0E00000069
:10542000B0340F080C0E010C0E000000CC340F0835
:105430000A0E010C0C000000E8340F080E0C010DE0
:1054400010000000B4480F080E0A010E1000000002
:10545000405F0F08100C000D10000000CC480F0832
:10546000150E010C1700000098620E08090E010CC1
:105470000B00000004350F080C07010C0E000000A3
:10548000A06F0F080C0701130E000000B06F0F088B
:105490000A0E020C0D00000020350F080B0E000C48
:1054A0000D0000003C350F080B0E000C0D00000035
:1054B00058350F080C0E000C0C00000074350F0856
:1054C0000A0E020C0E00000090350F080D0B020EA4
:1054D00011000000E4480F08110B010E1400000039
:1054E00008F00E080E12040A150000002CF00E0839
:1054F0000C0E000C0C000000AC350F08130E000C55
:1055000013000000C4620E08090E010C0B0000001D
:10551000C8350F08090E010C0B000000E4350F0818
:105520000B0E010C0D00000000360F080F0E000CD2
:105530000F0000001C360F08080E020C0A000000C5
:10554000C06F0F080D0E000C0C00000038360F085D
:105550000A0E020C0E00000054360F080A0E020C50
:105560000D00000070360F080E0E020C1200000035
:105570008C360F080C0E000C0E000000A8360F0829
:105580000B0D00080A000000C4360F08100D0008BB
:1055900010000000E0360F08090D01080A000000A5
:1055A000FC360F080B0D00080A00000018370F0822
:1055B0000A0D01080C00000034370F08080D01081F
:1055C0000A000000D06F0F08080D01080A00000053
:1055D000E06F0F080B0D01080C00000050370F089A
:1055E0000A0D01080B0000006C370F08060D0108BA
:1055F00007000000F06F0F08070D0008080000000A
:1056000000700F08090D01080A00000088370F0814
:10561000070D01080900000010700F080B0D0108AC
:105620000D000000A4370F080A0D01080B00000050
:10563000C0370F080A0D01080B000000DC370F0807
:105640000B0D01080D000000F8370F08090D0108C7
:105650000A00000014380F08080D01080A000000B5
:1056600020700F080A0D01080B00000030380F08E9
:105670000A0D01080C0000004C380F080A0D010843
:105680000B00000068380F080F0D00080F00000025
:1056900084380F080809010C09000000247B0F085A
:1056A0000809010C09000000307B0F080909010CF2
:1056B0000A000000545F0F080F09000C10000000E2
:1056C000685F0F08090D01080A000000A0380F08E4
:1056D000090D01080A000000BC380F080909010C77
:1056E0000A0000007C5F0F080909000C0A00000096
:1056F000905F0F080709010C090000003C7B0F08B0
:105700000709010C09000000487B0F08090C010C77
:105710000A000000FC480F08020C010C0400000005
:10572000547B0F08090D010809000000D8380F0844
:105730000E09000C0E000000A45F0F08080C010CFD
:105740000A000000607B0F080909010C0A00000034
:10575000B85F0F080709010C090000006C7B0F08F7
:105760000905010C0A000000787B0F0809050110EB
:105770000A000000847B0F08090C010C0A000000DD
:1057800014490F08060C010907000000907B0F0860
:105790000809010C0A0000009C7B0F080908010C95
:1057A0000B00000030700F080E09000C0E00000006
:1057B000CC5F0F080909000C08000000E05F0F082B
:1057C0000A09000C0A000000F45F0F080910010824
:1057D0000A000000C00F0F08080D000C08000000B0
:1057E00040700F08090D01080A000000F4380F0886
:1057F0000C0C010C0D0000002C490F08090C000CCA
:105800000800000044490F08020C011004000000C9
:10581000A87B0F080509011306000000B47B0F08E0
:10582000080901130A000000C07B0F0809090013D2
:105830000800000008600F080910010F0A000000AE
:10584000E00F0F08080C001308000000CC7B0F08C5
:10585000090C01130A0000005C490F080C0D01122D
:105860000D00000010390F08090C0013080000009B
:1058700074490F08130E020C16000000F0620E08A7
:105880000F14FE060E000000B8BA0E080F14010631
:105890000E000000E0BA0E080B14FE06080000001F
:1058A00008BB0E08170EFF0C150000001C630E0845
:1058B000100EFF0C0E0000002C390F080F13FE0C09
:1058C0000E00000030BB0E080B0EFE0C090000009D
:1058D00048390F080B0EFE0C0900000064390F0850
:1058E000100EFE0C0C00000080390F080A12FE0892
:1058F0000800000050F00E080E0EFF0C0B00000018
:105900009C390F080B13020C0E00000058BB0E0848
:10591000090C01070B0000008C490F080B13010C48
:105920000D00000080BB0E081416000616000000D3
:1059300020CB0C08090E000C09000000B8390F0834
:10594000090EFF0C06000000D4390F080D13010CDE
:105950000E000000A8BB0E080D0E010C0E0000008A
:10596000F0390F08100E000C100000000C3A0F0860
:105970000B1902060E00000054B60D080D190106A1
:105980000E00000088B60D08091900060800000086
:10599000BCB60D081213010C0E00000004340D08F3
:1059A0000B1902060C000000F0B60D0806190006DF
:1059B00006000000283A0F081413010C150000001F
:1059C00040340D080C13020C0E000000D0BB0E0872
:1059D0000B13020C0E000000F8BB0E080913000C9C
:1059E0000900000020BC0E080C13010C0B00000085
:1059F00048BC0E080E1901060E00000024B70D0861
:105A00000D13000C0D00000070BC0E080C13000CF0
:105A10000C00000098BC0E080913010C0B000000DC
:105A2000C0BC0E080E13010C0D000000E8BC0E08EF
:105A30000F13010C0E00000010BD0E081019010616
:105A40000E00000058B70D080F13010C0D000000E8
:105A500038BD0E080E13010C0B00000060BD0E08CF
:105A60000A13000C0B00000088BD0E08130E010C79
:105A70000D00000048630E08081802070600000029
:105A8000A4490F080A13010C0C000000B0BD0E0859
:105A90000C1901060E0000008CB70D080E13020C45
:105AA0000E000000D8BD0E080A13000C0B00000009
:105AB00000BE0E080809010C0A000000D87B0F0880
:105AC0000709010C09000000E47B0F080809000C1D
:105AD00009000000F07B0F08080D01080A00000013
