:020000040800F2
:100000009894002069500F08B5D80A08CFD80A087C
:10001000E9D80A0803D90A081DD90A080000000017
:10002000000000000000000000000000E5330308AD
:1000300037D90A08000000008933030859D90A0893
:10004000F97F0F08FD7F0F0801800F0805800F085A
:1000500009800F080D800F0811800F0815800F0808
:1000600019800F081D800F0821800F0825800F08B8
:1000700029800F0887D90A082D800F088BD90A0814
:100080007BD90A087FD90A0831800F0835800F080C
:1000900039800F083D800F0841800F08A3D90A0856
:1000A00045800F0849800F084D800F0851800F08C8
:1000B00055800F0859800F085D800F0861800F0878
:1000C00065800F0869800F086D800F0871800F0828
:1000D00075800F086BD90A0877D90A0879800F084C
:1000E0007D800F0881800F0885800F0889800F08A8
:1000F0008D800F0891800F0895800F0899800F0858
:100100008FD90A089D800F08A1800F08A5800F08CD
:1001100083D90A08A9800F08AD800F08B1800F08A5
:10012000B5800F08B9800F086FD90A08BD800F0885
:10013000C1800F08C5800F08C9800F08CD800F0847
:10014000D1800F08D5800F08D9800F08DD800F08F7
:10015000E1800F08E5800F0873D90A08E9800F08CD
:100160009BD90A089FD90A08ED800F08F1800F0873
:10017000F5800F08F9800F08FD800F0800000000CF
:1001800001810F0805810F0809810F080D810F08F3
:1001900011810F0815810F0819810F081D810F08A3
:1001A00093D90A0897D90A0821810F0825810F08D9
:1001B00029810F082D810F0831810F0835810F0823
:1001C00039810F083D810F080101001A0800000065
:1001D00061820F08021303070800000024340F088F
:1001E000070701060A000000E86D0F081013010759
:1001F0001200000038580E080C1701070E0000000E
:1002000074DF0D081613010718000000C0F90C0870
:100210001113010711000000FCF90C080207010688
:1002200005000000F06D0F08071901060A00000024
:100230002CFA0E08071902060A00000048FA0E08F8
:100240000C0B01060E000000541E0F080E0E020BD0
:100250001200000064FA0E080508011708000000EB
:10026000F86D0F080702011109000000DE810F0878
:100270000303021708000000447E0F080918000657
:100280000A000000A4DF0D080C1301070E00000097
:1002900060580E08081303070E00000038340F08DA
:1002A0000B1301070E00000088580E080B130107FE
:1002B0000E000000B0580E080C1300070E000000DE
:1002C000D8580E080B1302070E00000000590E0844
:1002D0000C1301070E00000028590E080C1301072B
:1002E0000E00000050590E080C1301070E0000000C
:1002F00078590E080C1301070E000000A0590E08D3
:10030000030E030C0900000038470F080513020C08
:10031000090000004C340F080D0E020B1200000003
:1003200080FA0E080E07020E1200000048470F0860
:100330000D0E030B120000009CFA0E080A130107B1
:100340000C000000C8590E08141602071700000020
:1003500088A20C080F1300070F000000F0590E08C8
:100360000C1302070F000000185A0E080D130107A6
:100370000F000000405A0E080E1302071100000083
:10038000685A0E080B1302070E000000905A0E0860
:100390000B1302070D000000B85A0E080F130107D7
:1003A00011000000E05A0E080D13020711000000B2
:1003B000085B0E08061301070900000060340F08EF
:1003C000081300070A00000074340F080D13020719
:1003D0000F000000305B0E080A1302070C0000003B
:1003E000585B0E080F13020713000000805B0E0815
:1003F0000D13020711000000A85B0E08101301077F
:1004000012000000D05B0E080C1302070E00000063
:10041000F85B0E081018010712000000D4DF0D0869
:100420000E13020710000000205C0E080C130107D9
:100430000E000000485C0E081013FF070F000000BC
:10044000705C0E080C13020710000000985C0E0888
:100450000F1300070F000000C05C0E081713000701
:100460001700000038FA0C080F1300070F000000F7
:10047000E85C0E080E1300070E000000105D0E0869
:100480000C1301070E000000385D0E080619020665
:100490000A000000B8FA0E08091801060A00000058
:1004A00004E00D08061901060A000000D4FA0E083F
:1004B0000F0A02071200000088340F080E02001C09
:1004C0000E000000487E0F08050503050E00000021
:1004D000006E0F080A0E010C0D000000F0FA0E0865
:1004E0000B1402060E000000605D0E080A0E010CDF
:1004F0000C0000000CFB0E080B1401060E0000009F
:10050000885D0E080B0E010C0D00000028FB0E0884
:100510000914000608000000B05D0E080B13010C62
:100520000E000000D85D0E080A1402060E0000003E
:10053000005E0E0802130207060000009C340F083C
:100540000618FF07070000006C1E0F080B140206B8
:100550000C000000285E0E080214020606000000CF
:10056000B0340F08120E010C150000006C290E08A3
:100570000A0E020C0E00000044FB0E080C0E010CCB
:100580000E00000060FB0E080B13020C0E000000B2
:10059000505E0E080B13010C0E000000785E0E0872
:1005A000070E020C0900000058470F080A0E010C44
:1005B0000B0000007CFB0E08081200080800000079
:1005C000C4340F080A0E020C0E00000098FB0E083F
:1005D0000C0E000C0C000000B4FB0E08130E000CF7
:1005E0001300000098290E080C0E000C0C000000EF
:1005F000D0FB0E080C13000C0C000000A05E0E08CF
:10060000090E010C0B000000ECFB0E080A19010694
:100610000C000000B4750D08021904060A00000061
:1006200008FC0E080A1901060C000000E8750D0808
:100630000E06020F12000000B8530F080101001A45
:100640000800000062820F08021303070800000080
:10065000D8340F080B1601080E000000C4290E083C
:100660000B1301070E000000C85E0E080C0C010CF5
:100670000E000000841E0F080E1300070E0000007D
:10068000F05E0E08021904060A00000024FC0E08A1
:100690000B1801070E00000034E00D0807020308E4
:1006A0000E000000E0810F0815150107170000007B
:1006B00084C80C08090C01070C0000009C1E0F08E0
:1006C0000B0C010C0E000000B41E0F080E090211E5
:1006D00012000000EC340F080702011109000000AD
:1006E000E2810F081515010717000000C4C80C08A7
:1006F0000E0200040E0000004C7E0F0809090107DD
:100700000C00000000350F080E0F02091200000057
:1007100078E50E08090B02070C000000CC1E0F083C
:10072000080B02070C000000C4530F08050505055F
:100730000E000000086E0F080A13020C0E000000E5
:10074000185F0E080B1701070E00000064E00D088B
:100750000303030C09000000507E0F080605041A6D
:100760000E000000106E0F08060B04070C000000BE
:10077000D0530F080A0C01070C000000E41E0F08FC
:100780000B0C020C0E000000FC1E0F0814130207D5
:100790001900000074FA0C08161302071900000073
:1007A000B0FA0C081513020719000000ECFA0C0847
:1007B0000A1301070C000000405F0E080F1900012A
:1007C0000F0000001C760D080F1900010F0000003B
:1007D00050760D080F1900010F00000084760D08F7
:1007E0000F1800020F00000094E00D080F1600041F
:1007F0000F000000F0290E080F1900010F00000083
:10080000B8760D08161300071700000028FB0C0827
:100810000D1801070F000000C4E00D080B190201BC
:100820000E000000EC760D080B1902010E0000000E
:1008300020770D080B1902010E00000054770D08F7
:100840000B1702030E000000F4E00D080619010169
:100850000900000040FC0E08061901010900000013
:100860005CFC0E08081900010900000078FC0E0865
:100870000617010309000000141F0F0810130007DA
:1008800011000000685F0E080D1802021100000040
:1008900024E10D08101901011200000088770D08ED
:1008A0001019010112000000BC770D081019010198
:1008B00012000000F0770D0810180102120000006D
:1008C00054E10D08101701031200000084E10D0827
:1008D0000D0D030C1200000094FC0E08101501060B
:1008E000120000001C2A0E080C1902011000000062
:1008F00024780D080C1902011000000058780D082A
:100900000C190201100000008C780D080C1702036E
:1009100010000000B4E10D080E1900010E000000E7
:10092000C0780D080A1302070E000000905F0E0841
:100930000B1402060E000000B85F0E080A15010530
:100940000D000000482A0E080A1501050D000000E0
:10095000742A0E080A1501050D000000A02A0E08D1
:100960000A1401060D000000E05F0E080A120108DB
:100970000D00000040BE0E080A1501050D00000024
:10098000CC2A0E08140E010C16000000F82A0E08DE
:100990000A13010C0C00000008600E080B1501057D
:1009A0000D000000242B0E080B1501050D000000A2
:1009B000502B0E080B1501050D0000007C2B0E08B6
:1009C0000B1201080D00000064BE0E08051500059D
:1009D000060000002C1F0F08051502050600000088
:1009E000441F0F0806150005060000005C1F0F08D5
:1009F000061300070600000014350F080C1301074A
:100A00000E00000030600E080A1402060E000000FE
:100A100058600E080C1501050E000000A82B0E08EA
:100A20000C1501050E000000D42B0E080C15010555
:100A30000E000000002C0E080C1401060E00000031
:100A400080600E080C1201080E00000088BE0E081F
:100A50000F0E020B12000000B0FC0E080C10010B70
:100A60000E00000098E50E080A1502050E000000B1
:100A70002C2C0E080A1502050E000000582C0E083A
:100A80000A1502050E000000842C0E080A12020846
:100A90000E000000ACBE0E080C1A00050C00000091
:100AA000F4780D080B1902060E00000028790D08D5
:100AB0000C1700080C000000E4E10D080F170003FC
:100AC0000F00000014E20D080A1301070D000000DA
:100AD000A8600E080F1900010F0000005C790D08D6
:100AE0000A1401060D000000D0600E08101800075F
:100AF0000F00000044E20D080B13010C0D00000074
:100B0000F8600E080D1901010F00000090790D0822
:100B10000A1501050C000000B02C0E080D1901018A
:100B20000F000000C4790D080A1501050C00000033
:100B3000DC2C0E080D1701030F00000074E20D08F5
:100B40000A1201080C000000D0BE0E080D190101A8
:100B50000F000000F8790D080A1501050C000000CF
:100B6000082D0E080E190201110000002C7A0D0844
:100B7000101401061100000020610E081013000778
:100B80001100000048610E080D1401060E0000005F
:100B900070610E080B1702030E000000A4E20D089E
:100BA0000B1301070D00000098610E080B190201DC
:100BB0000E000000607A0D080B1401060D00000005
:100BC000C0610E080B1702030E000000D4E20D08EE
:100BD0000B1201080D000000F4BE0E080B180207EE
:100BE0000E00000004E30D080B13010C0D000000C3
:100BF000E8610E080B1902010E000000947A0D083E
:100C00000B1501050D000000342D0E080F19010110
:100C100011000000C87A0D080B1A01050E00000033
:100C2000FC7A0D080F19010111000000307B0D083E
:100C30000B1901060E000000647B0D080F1701035D
:100C40001100000034E30D080B1701080E0000002E
:100C500064E30D080F1801071100000094E30D086C
:100C60000B1A01050E000000987B0D080D190201FA
:100C700011000000CC7B0D080A1902010E000000D3
:100C8000007C0D08121300071200000064FB0C0822
:100C90000C1400060E00000010620E080819000176
:100CA00009000000CCFC0E08061400060600000037
:100CB00028350F080818000209000000741F0F08EB
:100CC00006130007060000003C350F080619010155
:100CD00009000000E8FC0E080614000606000000EB
:100CE00050350F0806180107090000008C1F0F0877
:100CF0000418010706000000A41F0F0806170103CF
:100D000009000000BC1F0F08020E020C06000000C4
:100D100068470F080F1301071200000038620E0821
:100D2000091802070D000000C4E30D0809190001AD
:100D30000A000000347C0D08081AFF0507000000B7
:100D400004FD0E080D1802070F000000F4E30D0863
:100D50000B1902060C000000687C0D080B0E020C3B
:100D60000C00000020FD0E080A1902010C00000012
:100D70009C7C0D0805190201060000003CFD0E08D0
:100D80000A1802070C00000024E40D0805190106EA
:100D90000600000058FD0E080A1402060C000000B0
:100DA00060620E08081402060900000064350F088E
:100DB0000A1302070C00000088620E0808140206DD
:100DC0000B00000078350F080D1300070D00000020
:100DD000B0620E0806140006070000008C350F08EC
:100DE0000D19020111000000D07C0D080A15020542
:100DF0000E000000602D0E080D1802071100000003
:100E000054E40D080A13020C0E000000D8620E080C
:100E10000D19020111000000047D0D080A150205DC
:100E20000E0000008C2D0E081014FF0611000000AB
:100E300000630E080D1802071100000084E40D087D
:100E40000A13020C0E00000028630E08101701039D
:100E500012000000B4E40D080C1301070E0000009E
:100E600050630E081019010112000000387D0D08B2
:100E70000C1401060E00000078630E081019010121
:100E8000120000006C7D0D080C1501050E0000001D
:100E9000B82D0E081613010718000000A0FB0C085F
:100EA000150E010C17000000E42D0E080E190201AA
:100EB00010000000A07D0D080715020509000000C4
:100EC000D41F0F080E18020710000000E4E40D08FC
:100ED0000813010C09000000A0350F080E190201CB
:100EE00010000000D47D0D0808150205090000005F
:100EF000EC1F0F080C1901010E000000087E0D0800
:100F00000A1501050B000000102E0E080C19010136
:100F10000E0000003C7E0D080A1501050B000000C4
:100F20003C2E0E080C1801070E00000014E50D08F9
:100F30000A13010C0B000000A0630E080C1901013C
:100F40000E000000707E0D080A1501050B00000060
:100F5000682E0E081018FF070F00000044E50D086A
:100F6000081700080800000004200F081019FF01EE
:100F70000F000000A47E0D080C1400060C000000F9
:100F8000C8630E081013FF070F000000F0630E087F
:100F90000812000808000000B4350F080C180202FF
:100FA0001000000074E50D080A1402060E0000008F
:100FB00018640E080C17020310000000A4E50D08C9
:100FC0000A1302070E00000040640E080C1902010B
:100FD00010000000D87E0D080A1402060E00000062
:100FE00068640E080C190201100000000C7F0D0847
:100FF0000A1502050E000000942E0E080D190201BC
:1010000010000000407F0D080A1502050E000000C8
:10101000C02E0E080C18020710000000D4E50D08C1
:101020000B13020C0E00000090640E08171900014B
:1010300017000000E4280C08131500051300000039
:1010400004C90C080E1900010E000000747F0D0881
:101050000C1A00050C000000A87F0D080E170003F5
:101060000E00000004E60D080C1901010E0000003E
:10107000DC7F0D08091501050B000000EC2E0E08A1
:101080000C1701030E00000034E60D0809120108D8
:101090000B00000018BF0E080C1901010E00000023
:1010A00010800D08091501050B000000182F0E080F
:1010B0000614020606000000C8350F080D140006CD
:1010C0000E000000B8640E081013000711000000A5
:1010D000E0640E080C1302070F00000008650E08FC
:1010E0000B1402060E00000030650E080F130007F7
:1010F0000F00000058650E080D1400060E000000D9
:1011000080650E080D1301070F000000A8650E088A
:10111000111501050F00000044C90C080E1101094A
:101120000C0000003CBF0E08101300071100000067
:10113000D0650E081213000713000000DCFB0C083A
:101140000C1301070F000000F8650E080B140106D0
:101150000E00000020660E080C13010C0E000000AB
:1011600048660E080B1301070E00000070660E089B
:10117000101301071200000098660E080C130107F7
:101180000D000000C0660E080F18FE070D000000DD
:1011900064E60D080E1500070E000000442F0E082F
:1011A000131501051100000084C90C080F18000771
:1011B0000F00000094E60D0812140206160000004D
:1011C00018FC0C080214020606000000DC350F08AB
:1011D0000813000709000000F0350F080D1302077F
:1011E0000F000000E8660E080B1402060C00000059
:1011F00010670E08061400060700000004360F08EA
:101200000C1400060C00000038670E0812130207C9
:101210001600000054FC0C081118FE071100000015
:1012200048610C080A13020C0E00000060670E08EB
:10123000101301071200000088670E08121301073F
:101240001300000090FC0C080D1101090E000000B5
:1012500060BF0E08151801071700000090610C0808
:101260000E13010C11000000B0670E0810130007E8
:1012700010000000D8670E080B1902060E000000CF
:1012800044800D080D1502070E000000702F0E0897
:101290000C1301070E00000000680E080A0E000C77
:1012A0000B00000074FD0E080D1301070E00000076
:1012B00028680E080D1900060E00000078800D0841
:1012C00008170008080000001C200F080F13000773
:1012D0000F00000050680E08081400060800000007
:1012E00018360F080E1800070F000000C4E60D089E
:1012F0001116020412000000CCA20C080E11020903
:101300000F00000084BF0E08111301071200000037
:10131000CCFC0C080C1302071000000078680E08C3
:10132000111300071100000008FD0C081118000738
:101330000C000000D8610C080C1301070E0000001F
:10134000A0680E08090E010C0B00000090FD0E08AD
:101350000C1800070D000000F4E60D080C1801073A
:101360000D00000024E70D080A13010C0B0000001B
:10137000C8680E080913010C0B000000F0680E0885
:101380000B1301070E00000018690E080C1301076B
:101390000E00000040690E080A0E000C0B00000051
:1013A000ACFD0E080B1200080C000000A8BF0E08D0
:1013B0000B13020C0E00000068690E0802190406E7
:1013C0000A000000C8FD0E08061902060A00000007
:1013D000E4FD0E080E19020612000000AC800D0894
:1013E00002130307080000002C360F081C19020125
:1013F0001F000000F85D0B08191502051C00000015
:101400001CF60B081715010519000000C4C90C08CB
:10141000141302071800000044FD0C0811180207FD
:101420001500000020620C08081902060C000000DC
:1014300000FE0E08171302071B00000080FD0C08B9
:10144000131802071700000068620C081118020741
:1014500015000000B0620C080F1900010F00000019
:10146000E0800D080A1501050D0000009C2F0E08F4
:1014700008190001090000001CFE0E080815FF05F0
:101480000600000034200F081019010112000000AE
:1014900014810D080C1501050E000000C82F0E0860
:1014A0000C1902011000000048810D080A15020500
:1014B0000E000000F42F0E080C19020110000000AD
:1014C0007C810D080A1602040E00000020300E0870
:1014D0000C19020110000000B0810D080A16020468
:1014E0000E0000004C300E080C1902011000000024
:1014F000E4810D080A1802020E00000054E70D08EE
:101500000C1902011000000018820D080A160204CE
:101510000E00000078300E080B0E010C0D000000CC
:1015200038FE0E080F1900010F0000004C820D0854
:101530000A1601040D000000A4300E080F19000166
:101540000F00000080820D080A1601040D00000043
:10155000D0300E081617000317000000F8620C08C0
:101560001413010716000000BCFD0C08101301073E
:101570001100000090690E080C13010C0E00000011
:10158000B8690E080F19010111000000B4820D089E
:101590000B1A01050E000000E8820D080D1902016A
:1015A0000F0000001C830D080B1902010C00000045
:1015B00050830D08101801071200000084E70D0881
:1015C0000C13010C0E000000E0690E08101C010352
:1015D00012000000D0420D080C1801070E00000098
:1015E000B4E70D080C1E00010D000000F8FD0C080A
:1015F0000A1A00050B00000084830D08081AFF0575
:101600000700000054FE0E081C1302071F00000014
:1016100030290C08191302071C0000007C290C0853
:10162000171401061900000034FE0C080F190101FF
:1016300011000000B8830D080B1A01050E00000010
:10164000EC830D08151302071900000070FE0C084A
:101650000B1802070E000000E4E70D080D19020147
:101660001100000020840D080A1502050E0000007C
:10167000FC300E080F1900010F00000054840D0803
:101680000A1701030D00000014E80D0816190001E7
:1016900017000000C8290C081415010516000000E9
:1016A00004CA0C08101A01011200000088840D08F9
:1016B0000C1601050E00000028310E080F1900015C
:1016C0000F000000BC840D080B1500050D00000084
:1016D00054310E080F1900010F000000F0840D08AE
:1016E0000A1401060D000000086A0E080B19020119
:1016F0000E00000024850D080B1501050D000000EB
:1017000080310E080B1902010E00000058850D08EB
:101710000B1401060D000000306A0E080A19FE01C4
:10172000090000008C850D080A15FD050600000063
:10173000AC310E08081900010900000070FE0E0807
:101740000814FF060600000040360F0810190101BA
:1017500012000000C0850D080C1501050E000000E8
:10176000D8310E081019010112000000F4850D088F
:101770000C1401060E000000586A0E080F19010132
:101780001000000028860D080A1500050900000059
:1017900004320E080E190201100000005C860D08CC
:1017A000081402060900000054360F080C19020143
:1017B0001000000090860D080B1501050E000000BA
:1017C00030320E080C19020110000000C4860D080A
:1017D0000A1402060E000000806A0E080C180107A9
:1017E0000E00000044E80D080A13010C0B00000075
:1017F000A86A0E081018FF070F00000074E80D0813
:1018000008170008080000004C200F080B180107FB
:101810000D000000A4E80D080A13000C0B000000E6
:10182000D06A0E080D19020111000000F8860D089B
:101830000A1902010E0000002C870D080D1802077E
:1018400010000000D4E80D08121901061300000072
:10185000142A0C080D1301070F000000F86A0E0887
:101860000B1301070D000000206B0E080D16010779
:101870000E0000005C320E080A11010C0B00000083
:10188000CCBF0E080F1700030F00000004E90D087D
:101890000A1201080D000000F0BF0E080B18020725
:1018A0000E00000034E90D080B13010C0D000000C0
:1018B000486B0E08101901011200000060870D0826
:1018C0000C1601040E00000088320E0810190101E8
:1018D0001200000094870D080C1701030E00000091
:1018E00064E90D08101701031200000094E90D08C7
:1018F0000C1201080E00000014C00E08101901019E
:1019000012000000C8870D080C1601040E0000002C
:10191000B4320E080E1700030E000000C4E90D08D3
:101920000C1800070C000000F4E90D080A19010664
:101930000B000000FC870D081113020C13000000BF
:10194000ACFE0C080B1200080B00000038C00E089B
:101950000613FF0C0700000068360F081414010678
:1019600016000000E8FE0C081413010C160000001D
:1019700024FF0C08101600060F000000E0320E08CD
:10198000101601060F0000000C330E080C1301099D
:101990000C000000706B0E080D13FF070C00000018
:1019A000986B0E081116FF060F00000010A30C081C
:1019B0000A13010C0B000000C06B0E080913010C88
:1019C0000B000000E86B0E080D1400060E0000006E
:1019D000106C0E080B1200070C0000005CC00E0813
:1019E0000D1301070F000000386C0E080E130107DD
:1019F00010000000606C0E080F1300070F000000BD
:101A0000886C0E080B1802050E00000024EA0D0871
:101A10000B1801070D00000054EA0D080913000718
:101A20000A000000B06C0E080718FF07070000004E
:101A300064200F08131801071200000040630C080F
:101A40000F13010C0E000000D86C0E080F130107D5
:101A500010000000006D0E08080E010C09000000C7
:101A600078470F080E1300070E000000286D0E08BF
:101A70000C13000C0C000000506D0E080A0E020C36
:101A80000D0000008CFE0E080B0E010C0E00000075
:101A9000A8FE0E080B0E020C0E000000C4FE0E087D
:101AA0000B1402060E000000786D0E080A0E010CE1
:101AB0000C000000E0FE0E080B0E000C0C000000F5
:101AC000FCFE0E08101901060E00000030880D08FB
:101AD000101401060E000000A06D0E080B0E010C84
:101AE0000D00000018FF0E080B0E010C0D00000089
:101AF00034FF0E08110E010C1200000038330E08DE
:101B00000A0E010C0B00000050FF0E080A0E000C1C
:101B10000B0000006CFF0E08100E000C10000000FF
:101B200088FF0E080B0E010C0D000000A4FF0E082C
:101B30000913FF0C08000000C86D0E0810190106FB
:101B40000E00000064880D080B13010C0E0000004D
:101B5000F06D0E080B0E010C0D000000C0FF0E080A
:101B60000C13000C0C000000186E0E080F0E000C79
:101B70000F000000DCFF0E080A13020C0E0000002C
:101B8000406E0E080A1402060E000000686E0E0871
:101B90000A1902060E00000098880D0806130007B7
:101BA000060000007C360F08020E020C0600000042
:101BB00088470F08060E010C0900000098470F081F
:101BC0000A1400060A000000906E0E0807140006B2
:101BD0000700000090360F080619020606000000F4
:101BE000F8FF0E080B1902060E000000CC880D0845
:101BF000120E010C1500000064330E081213010CC4
:101C00001500000060FF0C081213010C1500000005
:101C10009CFF0C080F13FD0C0E000000B86E0E08A0
:101C20000E13020C0E000000E06E0E080A0E020CED
:101C30000E00000014000F080C0E010C0E00000036
:101C400030000F08110E010C1400000090330E0834
:101C5000100E010C120000004C000F080C190106B8
:101C60000E00000000890D08070E000C090000009E
:101C7000A8470F080714000609000000A4360F0843
:101C80000C13000C09000000086F0E080713020C6B
:101C900009000000B8360F080713020C0900000005
:101CA000CC360F08070E020C09000000B8470F08D9
:101CB0000713000C09000000E0360F080B0E020CA1
:101CC0000D00000068000F080B0E020C0D00000054
:101CD00084000F080A13010C0B000000306F0E087F
:101CE0000C1901060E00000034890D080C19FF06BE
:101CF0000800000068890D080C13010C0E0000009C
:101D0000586F0E080D1900060E0000009C890D0882
:101D10000812000808000000F4360F080817000831
:101D2000080000007C200F080E0E000C0E000000C2
:101D3000A0000F080C0E020C10000000BC000F08E1
:101D40000A0E020C0E000000D8000F080C0E000C4A
:101D50000C000000F4000F08130E000C130000002C
:101D6000BC330E080C1300070C000000806F0E0837
:101D70000B0E000C0B00000010010F080E13010CDD
:101D80000B000000A86F0E080D10010C0E000000E3
:101D9000B8E50E080A13000C0B000000D06F0E0807
:101DA0000B13000C0B000000F86F0E080B1400065C
:101DB0000C00000020700E080B1401060C0000003F
:101DC00048700E080B1400060C00000070700E081E
:101DD0000B13010C0C00000098700E081013010783
:101DE00012000000C0700E080A0E020C0D00000068
:101DF0002C010F080B0E010C0D00000048010F080C
:101E00000F1101090D00000080C00E080A0E020C1F
:101E10000E00000064010F080A1800070A00000005
:101E200084EA0D080B13FF0C0C000000E8700E088C
:101E3000080E020C0A000000C8470F08101901061E
:101E40000E000000D0890D080B1400060C000000E5
:101E500010710E080B1401060C00000038710E08FA
:101E60001414010616000000D8FF0C08141901060E
:101E700016000000602A0C08181601061900000060
:101E800054A30C08111200081100000008430D08AB
:101E90000F1900060E000000048A0D081112000838
:101EA0001200000040430D08121900061400000043
:101EB000AC2A0C080E1402061000000060710E0817
:101EC0000B1402060E00000088710E080B130107A8
:101ED0000C000000B0710E080A1202080E0000008B
:101EE000A4C00E080F13000C11000000D8710E08DA
:101EF0001313000C1300000014000D08080D010856
:101F00000A000000D8470F08080D01080A00000069
:101F1000E8470F080510000806000000F8470F0802
:101F20000509010C06000000DC530F080509000C30
:101F300006000000E8530F08080C000C0600000023
:101F4000F4530F080809010C0900000000540F08A1
:101F50000C09000C0C00000008370F08090C000CDD
:101F60000900000094200F08050802070700000080
:101F7000186E0F080A0801070C00000008480F0837
:101F80000507FF0605000000206E0F080507010683
:101F900005000000286E0F080507FF060500000079
:101FA000306E0F08040705050E000000386E0F089C
:101FB000040705050E000000406E0F08070D01081C
:101FC0000900000018480F08070D0108090000006B
:101FD00028480F080D0E020B1200000080010F08A8
:101FE0000D0E030B120000009C010F080E0D020CD9
:101FF00012000000B8010F080E0D020C12000000C4
:10200000D4010F08080503050E000000486E0F08F4
:10201000080503050E000000506E0F0802050605B6
:102020000E000000586E0F08090202070E000000A3
:10203000547E0F08050505050E000000606E0F08B0
:10204000050503050E000000686E0F080204061B5C
:102050000E000000587E0F080902021D0E0000004D
:102060005C7E0F080505031A0E000000706E0F0855
:102070000505061A0E000000786E0F08030E030C0B
:102080000900000038480F0803030311090000008D
:10209000607E0F080407050F0E000000806E0F0819
:1020A0000407050F0E000000886E0F0806040114D7
:1020B00008000000647E0F080604011408000000F8
:1020C000687E0F0806040114080000006C7E0F08EB
:1020D000090202140E000000707E0F0808050306B6
:1020E0000E000000906E0F08020206080E000000AD
:1020F000E4810F08070703050E000000986E0F0823
:102100000405041A0E000000A06E0F080A0402065F
:102110000E000000A86E0F080A0503050E0000005F
:102120000C540F080705001108000000B06E0F08DE
:10213000080801070A000000B86E0F08080C000C20
:102140000800000018540F08020D010804000000E8
:1021500048480F080709010C0900000024540F0823
:102160000709000C0800000030540F08070D010893
:102170000900000058480F08061202080A00000073
:102180001C370F08061202080A00000030370F083B
:10219000061202080A00000044370F08061202085F
:1021A0000A00000058370F08061202080A00000053
:1021B0006C370F08060B010F080000003C540F0895
:1021C000060B010F0800000048540F080805031A09
:1021D0000E000000C06E0F08070303070E0000008A
:1021E000747E0F080A0701060A00000068480F08FD
:1021F0000503041B0E000000787E0F080503041B76
:102200000E0000007C7E0F080305051A0E0000007A
:10221000C86E0F080305051A0E000000D06E0F08E7
:102220000404051B0E000000807E0F080505031145
:102230000E000000D86E0F080A0501110E00000004
:1022400054540F080A0503110E00000060540F08D3
:102250000A04021B0E000000E06E0F08030D0307C6
:102260000900000078480F08050504070E0000006B
:10227000E86E0F08050505070E000000F06E0F0858
:10228000050504150E000000F86E0F08050505157C
:102290000E000000006F0F080905021A0E00000072
:1022A0006C540F080905021A0E00000078540F083C
:1022B0000607011808000000086F0F080505F7055C
:1022C00000000000106F0F080505F8050000000071
:1022D000186F0F080805FC0500000000206F0F08AC
:1022E0000A04F40100000000286F0F080902FB0730
:1022F00000000000847E0F080E02F90400000000B8
:10230000887E0F080805FC0600000000306F0F08EB
:102310000202FF0800000000E6810F080802FC0826
:1023200000000000E8810F0804050505000000001A
:10233000386F0F080707FC0500000000406F0F080A
:102340000A05FB050000000084540F080805FC0581
:1023500000000000486F0F080205FF0500000000A4
:10236000506F0F080505FE0500000000586F0F08AC
:102370000A05FB050000000090540F080807FC0444
:1023800000000000606F0F080805FC060000000058
:10239000686F0F080205FF0600000000706F0F084D
:1023A0000205FF0600000000786F0F080205FF0617
:1023B00000000000806F0F08020501060000000009
:1023C000886F0F080505FD1A00000000906F0F08C8
:1023D0000505FD1A00000000986F0F080504FE1B9C
:1023E000000000008C7E0F080504FE1B00000000AA
:1023F000907E0F080906FB04000000009C540F08A3
:102400000406000300000000A06F0F080204FF1B79
:1024100000000000947E0F080604FD1B0000000071
:10242000987E0F080604FD1B000000009C7E0F082C
:102430000604FD1B00000000A07E0F080902FB1D22
:1024400000000000A47E0F080607FC180000000032
:10245000A86F0F080607001800000000B06F0F08F3
:102460000202061C00000000EA810F080802FC1DA1
:1024700000000000EC810F080404FE1B00000000B7
:10248000A87E0F080204FF1B00000000AC7E0F08AE
:102490000605FD1A00000000B86F0F080405FE1ABB
:1024A00000000000C06F0F080204FF1B00000000C6
:1024B000B07E0F080904FB1B00000000C86F0F0866
:1024C0000903FC1C00000000D06F0F080804FC1B6F
:1024D00000000000B47E0F080804FC1B0000000090
:1024E000B87E0F080804FC1B00000000BC7E0F082B
:1024F0000804FC1B00000000C07E0F080A04FB1B40
:1025000000000000D86F0F080902FB1D000000004A
:10251000C47E0F080E02F91C00000000C87E0F08E0
:102520000A04FB1B00000000E06F0F080A04FB0E0A
:1025300000000000E86F0F080902FB100000000017
:10254000CC7E0F080E02F91000000000D07E0F08AC
:102550000A09FB0D0000000080370F080918FB0670
:1025600000000000B4EA0D080204FF1B0000000098
:10257000D47E0F080904FB1B00000000F06F0F0859
:102580000404FE1B00000000D87E0F080903FC1C99
:1025900000000000F86F0F080606FD0300000000B1
:1025A00000700F080206FF040000000008700F080A
:1025B0000E05F90100000000A8540F080A04FB06EC
:1025C0000000000010700F080205FF060000000068
:1025D00018700F080905FC0500000000B4540F082E
:1025E0000304FE1B00000000DC7E0F080904FB054D
:1025F0000000000020700F080E04F91B000000000E
:1026000028700F080504FE1B00000000E07E0F0884
:102610000504FE1B00000000E47E0F080A06FB050F
:1026200000000000C0540F080A08FB03000000006F
:1026300088480F080A06FB0400000000CC540F086D
:102640000604FD1B00000000E87E0F080604FD1BC9
:1026500000000000EC7E0F081211F70900000000D6
:10266000388A0D080305FD050000000030700F08D2
:102670000407FE050000000038700F080807FC047E
:102680000000000040700F080505FD1A0000000062
:1026900048700F080305FF1A0000000050700F0873
:1026A0000305FE1A0000000058700F080805FD1A07
:1026B0000000000060700F080407FE050000000025
:1026C00068700F080202060800000000EE810F0883
:1026D0000504FE1B00000000F07E0F080704FD1B30
:1026E00000000000F47E0F080405FE060000000054
:1026F00070700F081305F61A0000000098480F08C4
:102700001305FE0600000000A8480F081302FE068D
:102710000000000078700F081302FE1D000000008A
:1027200080700F081304FE0600000000D8540F0844
:102730001305FE0600000000B8480F080E04FE1B3B
:102740000000000088700F080507FD04000000006D
:1027500090700F080607FD040000000098700F0835
:102760000109FF0200000000E4540F080607FD0401
:1027700000000000A0700F080507FD040000000025
:10278000A8700F080507FD0400000000B0700F08D6
:10279000060AFD0100000000F0540F08050AFD01C3
:1027A00000000000FC540F080907FB0400000000B3
:1027B000C8480F080307FE0400000000B8700F08A7
:1027C0000409FE020000000008550F080507FD047B
:1027D00000000000C0700F080507FD0400000000A5
:1027E000C8700F08040505050E000000D0700F0822
:1027F0000404051B0E000000F87E0F080304051BEF
:102800000E000000FC7E0F080A0E010C0C000000F8
:10281000F0010F080A0E010C0C0000000C020F085A
:102820000A0E010C0C00000028020F080513020C10
:102830000900000094370F08030505050E0000008D
:10284000D8700F08090502050E00000014550F0886
:102850000F1300070F00000000720E080303030CA3
:1028600009000000007F0F0810130007110000008E
:1028700028720E08121300071400000050000D0803
:102880000A1300070C00000050720E081313000713
:10289000140000008C000D08121300071200000045
:1028A000C8000D08141300071400000004010D08EF
:1028B0000815FF0506000000AC200F080F130007E5
:1028C0000F00000078720E080C1302070F000000C2
:1028D000A0720E080B1302070D000000C8720E084C
:1028E0000F1300070F000000F0720E080B13020711
:1028F0000E00000018730E080C1301070E000000F4
:1029000040730E080D1302071100000068730E08D3
:10291000101301071200000090730E080613010740
:1029200009000000A8370F080D1302070F00000070
:10293000B8730E080F1300070F000000E0730E08B5
:102940000F1302071300000008740E080D1302078E
:102950001100000030740E080C1301070E00000077
:1029600058740E08101301071200000080740E083E
:102970000D13020711000000A8740E080C130207C3
:102980000E000000D0740E080D1301070E000000A9
:10299000F8740E081013FF070F00000020750E08D2
:1029A0000E1300070E00000048750E0810130107F3
:1029B0001300000070750E080F1300070F000000D1
:1029C00098750E081013020714000000C0750E0859
:1029D000111301071200000040010D080617010342
:1029E00009000000C4200F080E1700030E000000AD
:1029F000E4EA0D080B1501050E000000E8330E088F
:102A00000A1501050B00000014340E080A1A02050D
:102A10000E0000006C8A0D08031502050600000078
:102A2000DC200F080A1502050E00000040340E08D5
:102A30000B0E010C0E00000044020F080B190206D9
:102A40000E000000A08A0D080C13000C0C00000002
:102A5000E8750E080C1401060E00000010760E0832
:102A60000A0E010C0B00000060020F080A19010693
:102A70000A000000D48A0D080A13020C0E000000A0
:102A800038760E080C1401060E00000060760E0861
:102A9000020E020C06000000D8480F080A0E020CB5
:102AA0000C0000007C020F080C1400060C00000053
:102AB00088760E080A13020C0E000000B0760E088D
:102AC0000C0E000C0C00000098020F080B190106F8
:102AD0000B000000088B0D080C0E010C0E0000000E
:102AE000B4020F080A0E020C0E000000D0020F08FC
:102AF0000B13020C0E000000D8760E080A13010C0E
:102B00000B00000000770E080E0E010C0F000000F5
:102B1000EC020F080C0E000C0C00000008030F085C
:102B20000A0E020C0E00000024030F081013010C03
:102B30001200000028770E080C13000C0C00000097
:102B400050770E080E13020C1200000078770E0862
:102B5000100E010C1200000040030F0806130007BE
:102B600006000000BC370F080A1202080E00000021
:102B7000C8C00E080C1501050E0000006C340E08CC
:102B80000A1502050E00000098340E081015010504
:102B900012000000C4340E080B1402060E000000E0
:102BA000A0770E080C1402060E000000C8770E086D
:102BB00012130007110000007C010D081615000516
:102BC0001500000044CA0C08121700031100000091
:102BD00088630C080C1901060E0000003C8B0D08E0
:102BE000100E010C120000005C030F080E13000C05
:102BF0000E000000F0770E08101801071200000008
:102C000014EB0D080C13010C0E00000018780E08D0
:102C10000D1801070F00000044EB0D080B13010C09
:102C20000C00000040780E080B1302070D00000096
:102C300068780E080813020C0B000000D0370F084C
:102C40000F1301071000000090780E080B14010606
:102C50000D000000B8780E081218000713000000DD
:102C6000D0630C080D1900060E000000708B0D08D3
:102C7000121802071600000018640C081213010C49
:102C800015000000B8010D080D1301071000000029
:102C9000E0780E080A1402060E00000008790E08FB
:102CA0000D1802071000000074EB0D080D0E000C4B
:102CB0000D00000078030F080C1301070E00000040
:102CC00030790E080C1401060E00000058790E0829
:102CD0000F1300070F00000080790E080F0E000C84
:102CE0000F00000094030F081013010712000000EA
:102CF000A8790E080C0E010C0E000000B0030F089E
:102D00000C1300070C000000D0790E080A1400060E
:102D10000A000000F8790E080E0E000C0E000000EC
:102D2000CC030F080C13010C0E000000207A0E08D3
:102D30000A0E010C0C000000E8030F080618FF073C
:102D400007000000F4200F08101301071200000014
:102D5000487A0E080B0E010C0C00000004040F084A
:102D60000B0E000C0C00000020040F080A130207D1
:102D70000E000000707A0E080B1902060E0000000B
:102D8000A48B0D080E13FF0C0E000000987A0E089D
:102D90000D1301070F000000C07A0E080D13010784
:102DA0000F000000E87A0E080D1301070F00000065
:102DB000107B0E080B1902010E000000D88B0D08C5
:102DC0000B1702030E000000A4EB0D0811130007FF
:102DD00012000000F4010D080B1902010D000000A3
:102DE0000C8C0D080D1301070F000000387B0E0836
:102DF0000C1301070E000000607B0E08061301078C
:102E000009000000E4370F0806170103090000005D
:102E10000C210F08081300070A000000F8370F08FC
:102E20001913000719000000F82A0C0817130207ED
:102E30001900000030020D081113000712000000F5
:102E40006C020D080D1902010F000000408C0D08E6
:102E50000D19020111000000748C0D080E180002FB
:102E60000E000000D4EB0D080D1702071100000042
:102E700004EC0D080F1300070F000000887B0E08FC
:102E80000C1302070F000000B07B0E080C130207A2
:102E90000F000000D87B0E080B1302070D00000086
:102EA000007C0E08101700071100000034EC0D081C
:102EB0000B1302070E000000287C0E0816130007F3
:102EC00016000000A8020D080C1300070D000000FA
:102ED000507C0E080D13020711000000787C0E08CC
:102EE0000D1802021100000064EC0D080D1302071A
:102EF0000F000000A07C0E080F1300071100000057
:102F0000C87C0E080F13020713000000F07C0E08A7
:102F10000D13020711000000187D0E0810130107A1
:102F200012000000407D0E080D1302071100000082
:102F3000687D0E080C1302070E000000907D0E083D
:102F40000D1301070F000000B87D0E081013FF07D6
:102F50000F000000E07D0E080E1300070E000000B9
:102F6000087E0E081013010713000000307E0E08C3
:102F70000F1300070F000000587E0E080E170207FF
:102F80001100000094EC0D080D1301071000000063
:102F9000807E0E081413020718000000E4020D08DA
:102FA000161702071800000060640C0811130007D0
:102FB0001100000020030D08101302071400000088
:102FC000A87E0E080D1302070F000000D07E0E0829
:102FD0000D1301070F000000F87E0E0815130207FD
:102FE000180000005C030D080D1300070F0000001F
:102FF000207F0E080A0E010C0D0000003C040F0893
:103000000C1401060E000000487F0E080A0E020C88
:103010000D00000058040F08080E020C0A00000002
:10302000E8480F080D11000C0E000000ECC00E085F
:103030000B0E010C0D00000074040F08120E000CA2
:1030400012000000F0340E080A0E000C0B00000005
:1030500090040F080A0E020C0E000000AC040F08CA
:103060000A1402060E000000707F0E080A0E020C01
:103070000C000000C8040F080C0E000C0E0000002D
:10308000E4040F080C0E020C1000000000050F08ED
:103090000A0E020C0E0000001C050F080C0E010C9D
:1030A0000E00000038050F080A0E020C0E0000008A
:1030B00054050F080B13020C0E000000987F0E0839
:1030C0000A0E010C0C00000070050F080C0E000C1D
:1030D0000C0000008C050F080C13000C0C00000005
:1030E000C07F0E081219000613000000442B0C08C4
:1030F0000C0E000C0C000000A8050F080B11020CB0
:103100000E00000010C10E080B0E010C0E00000096
:10311000C4050F08100E010C13000000E0050F0895
:103120001111020C14000000A88C0D080D0E000CEB
:103130000E000000FC050F080D0E020C110000002F
:1031400018060F080A0E020C0D00000034060F08C6
:103150000A0E010C0C00000050060F08100E020CA5
:10316000130000006C060F080B0E000C0D00000091
:1031700088060F080B1501050D0000001C350E0810
:103180000B1201080D00000034C10E080C190006D6
:103190000E000000DC8C0D08081502050A00000076
:1031A00024210F080A0E010C0C000000A4060F08D1
:1031B0000A0E010C0B000000C0060F0802130207E4
:1031C000060000000C380F08061300070600000078
:1031D00020380F080618FF07070000003C210F08E1
:1031E000140E000C1500000048350E08120E020CDB
:1031F0001500000074350E080C1400060E000000C7
:10320000E87F0E080A1502050C000000A0350E0824
:103210000A1502050E000000CC350E080C19000638
:103220000C000000108D0D080A11020C0E000000A9
:1032300058C10E081B1301071D000000902B0C083D
:10324000120E000C12000000F8350E0810130007D3
:103250001100000010800E080D1400060E00000082
:1032600038800E08121302071500000098030D089D
:103270000E0E020C11000000DC060F080F130007F1
:103280000F00000060800E080C0E000C0C00000007
:10329000F8060F081213020714000000D4030D08EB
:1032A0000F0E020C1100000014070F081413000782
:1032B0001400000010040D080F0E000C0F00000099
:1032C00030070F0817130207190000004C040D08FF
:1032D000130E020C1500000024360E080B1E01010F
:1032E0000D00000088040D080A1A00050B000000FC
:1032F000448D0D08101302071400000088800E088A
:103300000E13020C12000000B0800E08101301070B
:1033100012000000D8800E080C0E010C0E000000F8
:103320004C070F081313000712000000C4040D0817
:10333000100E000C0F00000068070F0813190001A1
:1033400012000000DC2B0C08101500050F00000017
:1033500050360E081C1801071D000000888E0B084F
:103360001813010C1900000000050D0813150106C3
:103370001500000084CA0C080F10010B110000009A
:10338000D8E50E081519010117000000282C0C08BB
:103390001117010313000000A8640C081B17010398
:1033A0001D000000C8CC0B0812120008120000001B
:1033B00078430D080D1801070F000000C4EC0D083C
:1033C0000A13010C0C00000000810E080C1300070A
:1033D0000C00000028810E0808050306000000000C
:1033E000E0700F080903020700000000E8700F08F2
:1033F0000205060600000000F0700F080205060630
:1034000000000000F8700F080A0403061000000016
:1034100000710F081816F4080000000098A30C08AB
:103420001818F40700000000F0640C080F1C0202DA
:1034300011000000B0430D080C1702060E0000003A
:10344000F4EC0D080F1300070F00000050810E0868
:103450000C1400060D00000078810E080D13020701
:103460000E000000A0810E080C13020C0E000000DC
:10347000C8810E080B1802020D00000024ED0D0893
:10348000081302070A00000034380F080C13010764
:103490000D000000F0810E08090E010C0A0000006A
:1034A00084070F080B1802070E00000054ED0D08EA
:1034B0000A13020C0D00000018820E0816170007F0
:1034C0001700000038650C081211000C13000000F2
:1034D000788D0D080C1800070D00000084ED0D0814
:1034E0000A13000C0B00000040820E080E170207A2
:1034F00010000000B4ED0D080A11020C0D000000D0
:103500007CC10E080D1302070F00000068820E0830
:103510000A0E020C0C000000A0070F080F13000792
:103520000F00000090820E080C1400060C00000032
:10353000B8820E0812130007120000003C050D08A7
:103540000E0E000C0E000000BC070F080F1702073C
:1035500011000000E4ED0D080B11020C0E0000003C
:10356000A0C10E08121302071400000078050D0810
:103570000E0E020C10000000D8070F0816180207E4
:103580001900000080650C081213020C15000000E1
:10359000B4050D081114010712000000F0050D0814
:1035A0000D0F010C0E000000F8E50E080D180107C4
:1035B0000F00000014EE0D080A13010C0C000000AF
:1035C000E0820E081017FF070F00000044EE0D0800
:1035D0000C11000C0C000000C4C10E080E130007F3
:1035E0000E00000008830E080C13000C0C000000F5
:1035F00030830E080E1300070E00000058830E08DB
:103600000C13000C0C00000080830E080F1700073D
:103610000F00000074EE0D080C11000C0D000000EE
:10362000E8C10E081317000714000000C8650C0855
:103630000F11000C100000000CC20E080F1701073C
:1036400010000000A4EE0D080C11010C0E0000008B
:1036500030C20E080D13010710000000A8830E08E9
:103660000B0E010C0E000000F4070F080C130207EC
:1036700010000000D0830E080A1402060E0000009D
:10368000F8830E0814130007150000002C060D081F
:103690000F0E000C1000000010080F081417000790
:1036A0001500000010660C080F11000C100000003F
:1036B00054C20E08061301070900000048380F081D
:1036C0001619000116000000742C0C0812140006D4
:1036D0001200000068060D080C1802070F00000019
:1036E000D4EE0D080913020C0C00000020840E0813
:1036F000111700071100000058660C080E11000C8D
:103700000E00000078C20E080D180207110000001C
:1037100004EF0D080A13020C0E00000048840E0886
:103720000F1702071100000034EF0D080C11020CF6
:103730000E0000009CC20E080D17010710000000CB
:1037400064EF0D080B11010C0E000000C0C20E0842
:103750001117020713000000A0660C080E11020CDE
:1037600010000000E4C20E08021402060600000069
:103770005C380F080F1900010F000000AC8D0D0818
:103780000A1401060D00000070840E080F160004D4
:103790000F0000007C360E080A1201080D00000020
:1037A00008C30E081613000717000000A4060D0832
:1037B000140E010C16000000A8360E080B190201A9
:1037C0000E000000E08D0D080B1401060D00000036
:1037D00098840E081013010712000000C0840E0820
:1037E0000B0E010C0D0000002C080F081016010430
:1037F00012000000D4360E080B1201080D00000064
:103800002CC30E081616000416000000DCA30C08DA
:103810001212000812000000E8430D080C16000404
:103820000D00000000370E080A1200080B0000000F
:1038300050C30E080C1300070D000000E8840E08AA
:103840000A13000C0B00000010850E080D17020370
:103850001100000094EF0D080A1302070E0000008B
:1038600038850E080D160204110000002C370E08D2
:103870000A1202080E00000074C30E08101701039C
:1038800012000000C4EF0D080C1201080E00000029
:1038900098C30E08101301071200000060850E087F
:1038A0000C0E010C0E00000048080F081017010351
:1038B00012000000F4EF0D080C1201080E000000C9
:1038C000BCC30E080D1601040F00000058370E0887
:1038D0000A1201080C000000E0C30E080E170003D6
:1038E0000E00000024F00D080C1800070C0000006A
:1038F00054F00D080E1600040E00000084370E0868
:103900000C1700080C00000084F00D080E190001CF
:103910000E000000148E0D080C1A00050C000000AB
:10392000488E0D080D16010410000000B0370E0877
:103930000B1201080E00000004C40E080B1702074A
:103940000D000000B4F00D080812020C0A0000007F
:1039500070380F081016020414000000DC370E083F
:103960000D1202081100000028C40E080D180007EF
:103970000D000000E4F00D080A13000C0A0000001E
:1039800088850E08101800070F00000014F10D08BC
:103990000C13000C0C000000B0850E080F1300077C
:1039A0000F000000D8850E080C0E000C0C00000063
:1039B00064080F080D1300070F00000000860E08B2
:1039C0000B1401060E00000028860E0815130007D0
:1039D00017000000E0060D08131401061600000091
:1039E0001C070D08141301071700000058070D08E5
:1039F000120E010C1500000008380E080E17010702
:103A00000F00000044F10D080B11010C0D00000027
:103A10004CC40E08171300071900000094070D0886
:103A2000140E000C1600000034380E08151302079F
:103A300019000000D0070D08120E020C160000003D
:103A400060380E080F1301071100000050860E08A1
:103A50000B0E010C0D00000080080F081113000769
:103A6000130000000C080D080F0E000C11000000E0
:103A70009C080F080C1301070D00000078860E0843
:103A80000A0E010C0B000000B8080F080F18000701
:103A90001100000074F10D080C13000C0E00000062
:103AA000A0860E081018010712000000A4F10D08EE
:103AB0000B13010C0E000000C8860E081713000738
:103AC0001700000048080D08130E000C130000003A
:103AD0008C380E081013020712000000F0860E0842
:103AE0000D1302071000000018870E0810130007BE
:103AF0001000000040870E0811130007110000009D
:103B000084080D080D1302071000000068870E08D6
:103B10000D1301070F00000090870E080C13020719
:103B20000F000000B8870E080D13020710000000F8
:103B3000E0870E081213020714000000C0080D08E9
:103B40000F1301071000000008880E080C1302076D
:103B50000F00000030880E080A1302070C00000056
:103B600058880E081213020716000000FC080D0802
:103B7000101300071000000080880E080C130207C5
:103B800010000000A8880E080B1301070D000000AC
:103B9000D0880E080E1300070F000000F8880E08EA
:103BA000111300071100000038090D080D1302075A
:103BB0001100000020890E081013020712000000F7
:103BC00048890E080E1301071000000070890E08C6
:103BD000101300071100000098890E080D1301074B
:103BE0000F000000C0890E080C130207100000002F
:103BF000E8890E080D1301070F000000108A0E0857
:103C00000F13000711000000388A0E080D1301077A
:103C10000F000000608A0E08101302071200000057
:103C2000888A0E080C13020710000000B08A0E08E4
:103C3000111300071100000074090D080F1300078D
:103C400010000000D88A0E080C1302070F000000B5
:103C5000008B0E080F13010711000000288B0E08BF
:103C60000A1302070D000000508B0E081013010705
:103C700013000000788B0E080E1300070F000000E1
:103C8000A08B0E081013010712000000C88B0E084D
:103C90000F13000710000000F08B0E08020501064C
:103CA0000500000008710F0802050106050000006C
:103CB00010710F08050501060800000018710F08B3
:103CC000070A01060900000020550F080505010636
:103CD0000800000020710F08070601060900000017
:103CE00028710F080A0601030C0000002C550F086C
:103CF000110E020C15000000B8380E080A13020C51
:103D00000E000000188C0E080E13010C0F000000AE
:103D1000408C0E080D13020C0F000000688C0E087A
:103D20000A1402060E000000908C0E080E13010CFF
:103D30000F000000B88C0E080A1402060D000000E7
:103D4000E08C0E080A13020C0E000000088D0E080D
:103D50000F13020C11000000308D0E080E14010626
:103D60000F000000588D0E080A1902060E00000010
:103D70007C8E0D080613020C0800000084380F0822
:103D80001219020616000000C02C0C080D140106C2
:103D90000E000000808D0E080A1902060E000000B9
:103DA000B08E0D080A1402060E000000A88D0E0841
:103DB0000A1401060C000000D08D0E080D13020C31
:103DC0000F000000F88D0E080B1401060C00000017
:103DD000208E0E080D1402060F000000488E0E08FB
:103DE0000613000C0800000098380F080D14000698
:103DF0000F000000708E0E080A13000C0B0000006C
:103E0000988E0E080A0E020C0E000000D4080F084F
:103E10000A13000C0B000000C08E0E081113020CD8
:103E200015000000B0090D080B13000C0C00000079
:103E3000E88E0E080B0E020C0E000000F0080F08B2
:103E40000A0E020C0E0000000C090F080D190206E4
:103E50000F000000E48E0D08110E020C150000008A
:103E6000E4380E080A13020C0E000000108F0E0832
:103E70000B13010C0E000000388F0E08080E020C08
:103E80000A000000F8480F0811190206150000008A
:103E90000C2D0C080E13000C0F000000608F0E0894
:103EA0000C0E010C0E00000028090F081019000666
:103EB00011000000188F0D080D1402060F000000FD
:103EC000888F0E08030E030C0900000008490F0834
:103ED0000703011009000000047F0F080505FE1A02
:103EE0000000000030710F080803FC06000000000D
:103EF000087F0F080306FE030000000038710F085A
:103F00000205FF040000000040710F080405FE04D4
:103F10000000000048710F080405FE1A00000000B0
:103F200050710F080303FF06000000000C7F0F080C
:103F30000704FC0500000000107F0F080405FC04C6
:103F40000000000058710F080303001B0000000070
:103F5000147F0F080405FE1A0000000060710F08AE
:103F60000405FE040000000068710F080405000449
:103F70000000000070710F080805FC04000000003C
:103F800078710F080E06F9030000000038550F087D
:103F9000060600030000000080710F080405FE04FF
:103FA0000000000088710F080505FE1A00000000DF
:103FB00090710F080304FF1B00000000187F0F081A
:103FC0000303FE1B000000001C7F0F080405FE1AFF
:103FD0000000000098710F080805FC1A000000009E
:103FE000A0710F080305FE1A00000000A8710F0859
:103FF0000405FE0400000000B0710F080606FA0375
:1040000000000000B8710F080505FE1A000000004E
:10401000C0710F080303FE0600000000207F0F0898
:104020000304FF0500000000247F0F080405001AA8
:1040300000000000C8710F080704F9050000000027
:10404000287F0F080303FE06000000002C7F0F08E6
:104050000205061A00000000D0710F080805031AB7
:1040600000000000D8710F080605041A00000000C7
:10407000E0710F080605041A00000000E8710F083F
:104080000202061B00000000F0810F080502041B5D
:1040900000000000F2810F080505051A000000006D
:1040A000F0710F080301051B0000000063820F0878
:1040B0000503041B00000000307F0F080202060801
:1040C00000000000F4810F08020203070000000056
:1040D000F6810F080805031A00000000F8710F08A8
:1040E0000202061200000000F8810F080103061BFF
:1040F00000000000347F0F080602020B0A000000D7
:10410000FA810F08030105080000000064820F080F
:104110000213020906000000AC380F08020206086C
:1041200000000000FC810F080202FF0800000000F0
:10413000FE810F08030F030B0900000018490F0848
:10414000020201070000000000820F080202FF1CAB
:104150000000000002820F080710020A0A00000097
:1041600028490F080504FD1B00000000387F0F08D8
:104170000D0F020B1100000018E60E080E0F010BC8
:104180001000000038E60E080C0F000B0C000000B9
:1041900058E60E080D0F010B0F00000078E60E0820
:1041A0000D0F020B1100000098E60E08050F000B22
:1041B0000700000038490F08070F010B0800000036
:1041C00048490F080D0F020B11000000B8E60E0859
:1041D0000D0F020B11000000D8E60E080508000BB9
:1041E0000700000000720F080E14000B1000000002
:1041F000B08F0E080D0F010B10000000F8E60E083E
:104200000D14010610000000D88F0E080D0F020BD0
:104210001100000018E70E080E0F010B110000003E
:1042200038E70E080714000B09000000C0380F081B
:10423000070F010B0A00000058490F08100F000B70
:104240001200000058E70E080D11010B10000000CD
:1042500070C40E080E14010B1100000000900E082F
:104260000D0F010B1000000078E70E080B14000B77
:104270000C00000028900E080D0F010B0F0000002D
:1042800098E70E080D14020B1100000050900E0864
:104290000C0F000B0E000000B8E70E08110F020B08
:1042A00014000000D4F10D08100F000B12000000E4
:1042B000D8E70E080C0F000B0E000000F8E70E0800
:1042C0000C0F000B0E00000018E80E080C08000B85
:1042D0000E00000068490F080507010605000000F0
:1042E00008720F080A0701060A00000078490F0843
:1042F0001205011A1400000088490F082505011A4B
:104300002700000044090F081D0700181E000000C8
:1043100060090F08170701181900000054210F0841
:10432000101701081200000004F20D080307031320
:104330000900000010720F080707011808000000AC
:1043400018720F081D0701131D0000007C090F08DB
:104350000C12010D0F00000094C40E080705FC02AA
:104360000000000020720F080705FC02000000009A
:1043700028720F080706FC020000000030720F08C8
:104380000907FB010000000098490F080904FC021E
:104390000000000038720F0806070113000000003B
:1043A00040720F08030E030C09000000A8490F0813
:1043B000060501150800000048720F080A130107DE
:1043C0000C00000078900E08070901110A00000097
:1043D00044550F0806160004060000006C210F0863
:1043E000041901010600000098090F080915000AC8
:1043F0000A00000010390E0804180107060000002A
:1044000084210F08140F010B1600000034F20D0870
:104410000213020706000000D4380F08120C011224
:1044200014000000B8C40E080A1101090C000000B5
:10443000DCC40E08120C010E1400000000C50E08AA
:10444000120F010B1400000064F20D080C11010E94
:104450000F00000024C50E080C11010E0F00000013
:1044600048C50E080C14010B0F000000A0900E08A8
:104470000A0C010E0C0000009C210F080A10010A12
:104480000C00000038E80E08080B001409000000BA
:1044900050550F080810000F09000000B8490F0818
:1044A0001C0E01111E00000020440D081C14010BFD
:1044B0001E00000094140C081B0F01101D000000CA
:1044C000EC090D081B14010B1D000000E4140C087E
:1044D0001113FF0711000000280A0D081113FF0730
:1044E00011000000640A0D080C12010D0F000000FD
:1044F0006CC50E080C1601090F0000003C390E08AF
:104500000702FF180600000004820F0814120108B9
:104510001600000058440D0814150107160000008D
:10452000C4CA0C080F13010712000000C8900E083F
:104530000D13010710000000F0900E08100EFE1180
:104540000F000000B4090F080F0E010C110000004D
:10455000D0090F080A0C010E0C000000B4210F084E
:10456000090F00100A00000058E80E08140E010C94
:104570001600000068390E081412010C1600000025
:1045800090440D0807040005000000003C7F0F0860
:10459000080500010000000050720F080704001A0F
:1045A00000000000407F0F08070200040000000028
:1045B00006820F08060500010000000058720F086F
:1045C0000702001C0000000008820F080705010117
:1045D0000000000060720F080505000200000000E6
:1045E00068720F0806020004000000000A820F082B
:1045F0000404010200000000447F0F080404011BB2
:1046000000000000487F0F080105FF1A00000000AD
:1046100070720F080605FD010000000078720F0897
:104620000403FE03000000004C7F0F080501FD0994
:104630000000000065820F08050300040000000070
:10464000507F0F080704000300000000547F0F088C
:104650000202FF1C000000000C820F08060500018A
:104660000000000080720F08050300030000000036
:10467000587F0F080707040E0E00000088720F080D
:10468000051104090E000000E8380F080C1101099B
:104690000E00000090C50E080D1100090E0000006C
:1046A000B4C50E080B1102090E000000D8C50E0893
:1046B0000D0E010C0E000000EC090F080C11010991
:1046C0000E000000FCC50E080D1101090E000000CF
:1046D00020C60E080D1101090E00000044C60E0888
:1046E0000C1102090E00000068C60E080D11010928
:1046F0000E0000008CC60E08030703170900000017
:1047000090720F08030703130900000098720F0846
:104710000C0C010C0E000000CC210F081208011235
:1047200014000000E4210F081410010C1600000012
:1047300094F20D080108FF0100000000A0720F08AC
:104740000618000206000000FC210F0806180002EF
:104750000600000014220F080618000706000000DB
:104760002C220F0804040102060000005C7F0F08E1
:104770000713020706000000FC380F080A15000A9C
:104780000A00000094390E080B15FF0A0A00000009
:10479000C0390E081614010616000000A00A0D0804
:1047A00012110109140000004C8F0D08120F010BAB
:1047B00014000000C4F20D08120D011214000000D4
:1047C00018910E081210010E14000000F4F20D08EA
:1047D000120E010C14000000EC390E08120D01122B
:1047E0001400000040910E08120F010B140000008D
:1047F00024F30D08120D01121400000068910E0838
:104800000C1701080F00000054F30D080C180107E5
:104810000F00000084F30D080C11010E0F000000C2
:10482000B0C60E080C11010E0F000000D4C60E0811
:104830000C1801070F000000B4F30D080C11010E55
:104840000F000000F8C60E080C11010E0F0000004A
:104850001CC70E080A1501050C000000183A0E08C6
:104860000A10010E0C00000078E80E080A10010E74
:104870000C00000098E80E080A1901050C00000061
:10488000808F0D080A10010A0C000000B8E80E081D
:104890000A10010E0C000000D8E80E080A130107E8
:1048A0000C00000090910E080A1301070C00000094
:1048B000B8910E080A1301070C000000E0910E08E1
:1048C000081600090900000044220F080811000E14
:1048D0000900000010390F080B0B0014090000003C
:1048E0005C220F08090B00140900000074220F0855
:1048F0000C0B0014090000008C220F08090B001497
:1049000009000000A4220F080810000F0900000091
:10491000C8490F080813000C0900000024390F08CB
:104920000813000C0900000038390F081C11010E93
:104930001E00000020A40C081C0E01111E00000027
:10494000C8440D081C14010B1E00000034150C088F
:104950001B0F01101D000000DC0A0D081B170108C9
:104960001D00000024CD0B081113FF0711000000EB
:10497000180B0D080C1901060F000000B48F0D086C
:10498000140E010C16000000443A0E081412010C1B
:104990001600000000450D0814160108160000005E
:1049A00064A40C08141501051600000004CB0C08C3
:1049B0001413010C16000000540B0D08141501050A
:1049C0001600000044CB0C08141401081600000067
:1049D000900B0D081417010516000000E8660C087E
:1049E0001413010717000000CC0B0D081E0C010E5C
:1049F0001F000000E4F30D08141301071700000066
:104A0000080C0D080F1301071200000008920E0891
:104A10000F16010412000000703A0E080F1801076B
:104A20001200000014F40D08141601041700000011
:104A3000A8A40C081416010417000000ECA40C082C
:104A4000141601041700000030A50C08141A010404
:104A50001700000084150C08141B01041700000047
:104A600070F60B081419010117000000582D0C08EE
:104A70000F1701031000000044F40D080D16010487
:104A8000100000009C3A0E080F19010110000000F0
:104A9000E88F0D080D1801071000000074F40D08D0
:104AA0000F12010C1100000040C70E080F0A011080
:104AB000110000004C390F080F130107110000000E
:104AC00030920E080F12010C1100000064C70E088E
:104AD0000F1101091100000088C70E08110DFF0D0C
:104AE0001100000058920E080C14010B0F0000007A
:104AF00080920E080A1201080C000000ACC70E08D4
:104B00000C0801140D000000D8490F080C10010C0E
:104B10000D000000F8E80E080C0E010E0D0000005C
:104B2000080A0F08090F00100A00000018E90E0813
:104B3000090E00110A000000240A0F080913000CD6
:104B40000A000000A8920E08091700080A000000D9
:104B5000A4F40D08091900060A0000001C900D08B5
:104B60000914000B0A000000D0920E080913000C73
:104B70000A000000F8920E08091600090A00000059
:104B8000C83A0E08140E010C16000000F43A0E0884
:104B9000160E000C17000000203B0E08140E010C2E
:104BA000160000004C3B0E080913000C0A00000020
:104BB00020930E081413010C16000000440C0D087D
:104BC0001413010C16000000800C0D08170B0013C5
:104BD00017000000D0C70E081712000C17000000C5
:104BE00038450D0806020018060000000E820F0866
:104BF0000A0C010E0C000000BC220F080B09FB027E
:104C00000000000060390F080C09FA0200000000E3
:104C100074390F080504FE0500000000607F0F08CE
:104C20000708FD0200000000A8720F080507FE0536
:104C300000000000B0720F080302FF070000000030
:104C400010820F080C05FA06000000005C550F08E2
:104C50001A1B01041C000000F0400B081B1B000481
:104C6000000000005C410B080202FF07000000008A
:104C700012820F080202FF070000000014820F08D2
:104C80000704FD0500000000647F0F080706FC050F
:104C900000000000B8720F080C05FA1A00000000AE
:104CA00068550F080403FF0100000000687F0F082B
:104CB0000505000606000000C0720F080905000780
:104CC0000A00000074550F080905FB0700000000EA
:104CD00080550F080606FD0300000000C8720F088B
:104CE0001114FF060F000000BC0C0D080505FE1A8C
:104CF00000000000D0720F080505FE05000000004E
:104D0000D8720F080202FF070000000016820F0889
:104D10000706FC1900000000E0720F080A110109E3
:104D20000C000000F4C70E080912000D0900000075
:104D300018C80E080707040E0E000000E8720F08DE
:104D4000051104090E00000088390F080C11010933
:104D50000E0000003CC80E080D1100090E000000F6
:104D600060C80E080C10010A0E00000038E90E0899
:104D70000D1100090E00000084C80E08090F030B76
:104D80000E00000058E90E080D1101090E00000088
:104D9000A8C80E080D1101090E000000CCC80E08AD
:104DA0000C1102090E000000F0C80E081C14010BC3
:104DB0001E000000D4150C081B14010B1D00000080
:104DC00024160C080C1601090F000000783B0E0891
:104DD000080D01110A000000E8490F080E0E00112D
:104DE0000F000000400A0F081114FF061100000018
:104DF000F80C0D08120C01121400000014C90E0862
:104E00001213010B14000000340D0D08120D0112D5
:104E10001400000048930E081211010E1400000047
:104E200050900D081210010E14000000D4F40D086B
:104E3000120D01121400000070930E08120C010EE6
:104E40001400000038C90E080C15010A0F000000FC
:104E5000A43B0E080C11010E0F0000005CC90E08E7
:104E60000A1A01050C00000084900D080A11010EB9
:104E70000C00000080C90E080A0B00140900000095
:104E8000D4220F081C14010B1E00000074160C081D
:104E90000C1601090F000000D03B0E080C1801078A
:104EA0000F00000004F50D080C1901060F000000AA
:104EB000B8900D081412010C1600000070450D0882
:104EC0001413010C16000000700D0D0814130107D7
:104ED00017000000AC0D0D081416010417000000A7
:104EE00074A50C08141801071700000030670C089F
:104EF0001013FE0C0F00000098930E08100EFE1108
:104F00000F0000005C0A0F080F12010C11000000D6
:104F1000A4C90E080F13010711000000C0930E086A
:104F20000F0E010C11000000780A0F081113010781
:104F300010000000E80D0D080813000C0900000027
:104F40009C390F080812000D09000000B0390F0845
:104F50001C14010B1E000000C4160C080B0E020CE2
:104F60000F000000940A0F080D0E000C0F00000047
:104F7000B00A0F080E0E000C10000000CC0A0F083B
:104F80000C0E010C0F000000E80A0F080C0E010CBB
:104F90000F000000040B0F080F0E000C11000000A2
:104FA000200B0F080A0E000C0C0000003C0B0F0831
:104FB0000B0E010C0E000000580B0F080D0E010C1B
:104FC00010000000740B0F080F10000A1000000002
:104FD00078E90E081010000A1100000098E90E0888
:104FE000120E020C16000000FC3B0E081113020CFE
:104FF00015000000240E0D080E13000C1000000018
:10500000E8930E080E13000C1000000010940E0818
:105010000B13010C0E00000038940E08120E000C49
:1050200014000000283C0E08130E010C16000000AE
:10503000543C0E08120E020C15000000803C0E08B5
:105040000C0E010C0F000000900B0F080C0E010C51
:105050000F000000AC0B0F080B0E020C0F0000003D
:10506000C80B0F080E0E020C12000000E40B0F0814
:105070000B0E010C0E000000000C0F080C0E020CB1
:105080000F0000001C0C0F080C0E020C100000009A
:10509000380C0F080C1402061000000060940E0873
:1050A0000B0E020C10000000540C0F080B1402062B
:1050B0001000000088940E080E0E000C1200000074
:1050C000700C0F080E14000611000000B0940E08BA
:1050D0000D0E010C100000008C0C0F080B0E020CC2
:1050E0000F000000A80C0F080A0E020C0E000000B2
:1050F000C40C0F08090E010C0B000000E00C0F0897
:105100000A11020C0E000000C8C90E080B0E020C9A
:105110000F000000FC0C0F080D11010C1000000026
:10512000ECC90E08090E010C0C000000180D0F0848
:105130000D0F010B0F000000B8E90E08100E020C55
:1051400013000000340D0F080C0F020B0F000000BD
:10515000D8E90E080F0E000C11000000500D0F08CA
:105160001113000712000000600E0D080B0E020C58
:105170000F0000006C0D0F080C0F020B0F00000059
:10518000F8E90E080A0E010C0D000000880D0F084A
:10519000080E020C0B000000F8490F080A05F8067B
:1051A000000000008C550F08090E010C0C000000D7
:1051B000A40D0F080F12FB080C00000010CA0E0807
:1051C0000A04F30700000000F0720F080A05F30656
:1051D0000000000098550F080A05F30600000000C3
:1051E000A4550F080A05F30600000000B0550F088B
:1051F0000304FB1B000000006C7F0F080704F71B73
:1052000000000000707F0F080202FC1B000000007D
:1052100018820F080C1602060F000000AC3C0E08A6
:10522000050E020C08000000084A0F080C0E020CC4
:105230000F000000C00D0F080A1401060C0000004A
:10524000D8940E08091401060B00000000950E0802
:105250000C1400060D00000028950E080911010C21
:105260000C00000034CA0E080911010C0C000000EB
:1052700058CA0E080807F60400000000F8720F086C
:105280000104FC0700000000747F0F080704F70703
:1052900000000000787F0F080904F70700000000F5
:1052A00000730F080303FC08000000007C7F0F0858
:1052B0000705F9060000000008730F080404FB0846
:1052C00000000000807F0F080507FA0100000000C1
:1052D00010730F080C0C010E0F000000EC220F08D9
:1052E0000C0B010F0F00000004230F080D0B010F22
:1052F000100000001C230F080D0E020C110000000E
:10530000DC0D0F080E0B010F1100000034230F08F5
:10531000110F010B1200000034F50D08110F010BE5
:105320001200000064F50D080E0F000B10000000C5
:1053300018EA0E08100E010C13000000F80D0F08FB
:10534000100F010B1300000038EA0E08100E010CBC
:1053500012000000140E0F080E0E010C11000000C8
:10536000300E0F08170C020E1B0000007CCA0E083E
:105370000D0E000C0C0000004C0E0F08110E000C5E
:1053800012000000D83C0E08140E010C160000009C
:10539000043D0E080C0E010C0D000000680E0F08F5
:1053A0000A0E010C0C000000840E0F080B0E020CFC
:1053B0000E000000A00E0F080C0E010C0E000000E5
:1053C000BC0E0F08080E020C0B000000184A0F0854
:1053D0000A0E000C0B000000D80E0F080212020C7F
:1053E00006000000C4390F08070E000C0900000079
:1053F000284A0F080A0E020C0C000000F40E0F08D9
:10540000090E010C0B000000100F0F080C0E020C0F
:10541000100000002C0F0F080A0E020C0E000000F6
:10542000480F0F080C0E010C0E000000640F0F084F
:105430000A0E010C0C000000800F0F080E0C010D6D
:10544000100000004C230F080E0A010E100000008F
:10545000D8390F08100C000D1000000064230F084D
:10546000150E010C17000000303D0E08090E010C4E
:105470000B0000009C0F0F080C07010C0E00000031
:10548000384A0F080C0701130E000000484A0F08A5
:105490000A0E020C0D000000B80F0F080B0E000CD6
:1054A0000D000000D40F0F080B0E000C0D000000C3
:1054B000F00F0F080C0E000C0C0000000C100F0871
:1054C0000A0E020C0E00000028100F080D0B020E31
:1054D000110000007C230F08110B010E14000000C6
:1054E000A0CA0E080E12040A15000000C4CA0E0855
:1054F0000C0E000C0C00000044100F08130E000CE2
:10550000130000005C3D0E08090E010C0B000000AA
:1055100060100F08090E010C0B0000007C100F0832
:105520000B0E010C0D00000098100F080F0E000C60
:105530000F000000B4100F08080E020C0A00000053
:10554000584A0F080D0E000C0C000000D0100F0878
:105550000A0E020C0E000000EC100F080A0E020CDE
:105560000D00000008110F080E0E020C12000000C2
:1055700024110F080C0E000C0E00000040110F0843
:105580000B0D00080A0000005C110F08100D000848
:105590001000000078110F08090D01080A00000032
:1055A00094110F080B0D00080A000000B0110F083D
:1055B0000A0D01080C000000CC110F08080D0108AD
:1055C0000A000000684A0F08080D01080A000000E0
:1055D000784A0F080B0D01080C000000E8110F08B5
:1055E0000A0D01080B00000004120F08060D010847
:1055F00007000000884A0F08070D00080800000097
:10560000984A0F08090D01080A00000020120F082F
:10561000070D010809000000A84A0F080B0D01083A
:105620000D0000003C120F080A0D01080B000000DD
:1056300058120F080A0D01080B00000074120F0821
:105640000B0D01080D00000090120F08090D010854
:105650000A000000AC120F08080D01080A00000043
:10566000B84A0F080A0D01080B000000C8120F0805
:105670000A0D01080C000000E4120F080A0D0108D1
:105680000B00000000130F080F0D00080F000000B2
:105690001C130F080809010C09000000BC550F0875
:1056A0000809010C09000000C8550F080909010C80
:1056B0000A000000EC390F080F09000C1000000070
:1056C000003A0F08090D01080A00000038130F08FE
:1056D000090D01080A00000054130F080909010C04
:1056E0000A000000143A0F080909000C0A00000023
:1056F000283A0F080709010C09000000D4550F08CB
:105700000709010C09000000E0550F08090C010C05
:105710000A00000094230F08020C010C0400000092
:10572000EC550F08090D01080900000070130F085F
:105730000E09000C0E0000003C3A0F08080C010C8A
:105740000A000000F8550F080909010C0A000000C2
:10575000503A0F080709010C0900000004560F0811
:105760000905010C0A00000010560F080905011078
:105770000A0000001C560F08090C010C0A0000006A
:10578000AC230F08060C01090700000028560F087B
:105790000809010C0A00000034560F080908010C22
:1057A0000B000000C84A0F080E09000C0E00000094
:1057B000643A0F080909000C08000000783A0F0845
:1057C0000A09000C0A0000008C3A0F0809100108B1
:1057D0000A00000058EA0E08080D000C080000003E
:1057E000D84A0F08090D01080A0000008C130F08A1
:1057F0000C0C010C0D000000C4230F08090C000C58
:1058000008000000DC230F08020C01100400000057
:1058100040560F0805090113060000004C560F08FA
:10582000080901130A00000058560F08090900135F
:1058300008000000A03A0F080910010F0A0000003C
:1058400078EA0E08080C00130800000064560F08E0
:10585000090C01130A000000F4230F080C0D0112BB
:105860000D000000A8130F08090C00130800000029
:105870000C240F08130E020C16000000883D0E08C1
:105880000F14FE060E00000050950E080F140106BE
:105890000E00000078950E080B14FE0608000000AC
:1058A000A0950E08170EFF0C15000000B43D0E0861
:1058B000100EFF0C0E000000C4130F080F13FE0C97
:1058C0000E000000C8950E080B0EFE0C090000002B
:1058D000E0130F080B0EFE0C09000000FC130F086C
:1058E000100EFE0C0C00000018140F080A12FE081F
:1058F00008000000E8CA0E080E0EFF0C0B000000A6
:1059000034140F080B13020C0E000000F0950E0863
:10591000090C01070B00000024240F080B13010CD5
:105920000D00000018960E08141600061600000060
:10593000B8A50C08090E000C0900000050140F084F
:10594000090EFF0C060000006C140F080D13010C6B
:105950000E00000040960E080D0E010C0E00000017
:1059600088140F08100E000C10000000A4140F087B
:105970000B1902060E000000EC900D080D1901062F
:105980000E00000020910D08091900060800000013
:1059900054910D081213010C0E0000009C0E0D080E
:1059A0000B1902060C00000088910D08061900066C
:1059B00006000000C0140F081413010C15000000AD
:1059C000D80E0D080C13020C0E00000068960E088D
:1059D0000B13020C0E00000090960E080913000C29
:1059E00009000000B8960E080C13010C0B00000013
:1059F000E0960E080E1901060E000000BC910D087D
:105A00000D13000C0D00000008970E080C13000C7D
:105A10000C00000030970E080913010C0B00000069
:105A200058970E080E13010C0D00000080970E0809
:105A30000F13010C0E000000A8970E0810190106A4
:105A40000E000000F0910D080F13010C0D00000076
:105A5000D0970E080E13010C0B000000F8970E08EB
:105A60000A13000C0B00000020980E08130E010C06
:105A70000D000000E03D0E080818020706000000B7
:105A80003C240F080A13010C0C00000048980E0873
:105A90000C1901060E00000024920D080E13020CD2
:105AA0000E00000070980E080A13000C0B00000096
:105AB00098980E080809010C0A00000070560F089B
:105AC0000709010C090000007C560F080809000CAA
:105AD0000900000088560F08080D01080A000000A0
