:020000040800F2
:10000000A0D6002065550F0835DD0A084FDD0A0827
:1000100069DD0A0883DD0A089DDD0A08000000008A
:10002000000000000000000000000000E5330308AD
:10003000B7DD0A080000000089330308D9DD0A088B
:10004000F9840F08FD840F0801850F0805850F0846
:1000500009850F080D850F0811850F0815850F08F4
:1000600019850F081D850F0821850F0825850F08A4
:1000700029850F0807DE0A082D850F080BDE0A0800
:10008000FBDD0A08FFDD0A0831850F0835850F08FA
:1000900039850F083D850F0841850F0823DE0A08C2
:1000A00045850F0849850F084D850F0851850F08B4
:1000B00055850F0859850F085D850F0861850F0864
:1000C00065850F0869850F086D850F0871850F0814
:1000D00075850F08EBDD0A08F7DD0A0879850F083A
:1000E0007D850F0881850F0885850F0889850F0894
:1000F0008D850F0891850F0895850F0899850F0844
:100100000FDE0A089D850F08A1850F08A5850F0839
:1001100003DE0A08A9850F08AD850F08B1850F0811
:10012000B5850F08B9850F08EFDD0A08BD850F08F2
:10013000C1850F08C5850F08C9850F08CD850F0833
:10014000D1850F08D5850F08D9850F08DD850F08E3
:10015000E1850F08E5850F08F3DD0A08E9850F083A
:100160001BDE0A081FDE0A08ED850F08F1850F085F
:10017000F5850F08F9850F08FD850F0800000000C0
:1001800001860F0805860F0809860F080D860F08DF
:1001900011860F0815860F0819860F081D860F088F
:1001A00013DE0A0817DE0A0821860F0825860F08C5
:1001B00029860F082D860F0831860F0835860F080F
:1001C00039860F083D860F080101001A080000005B
:1001D00061870F08021303070800000020390F0889
:1001E000070701060A000000E8720F081013010754
:1001F00012000000345D0E080C1701070E0000000D
:1002000070E40D081613010718000000BCFE0C086E
:100210001113010711000000F8FE0C080207010687
:1002200005000000F0720F08071901060A0000001F
:1002300028FF0E08071902060A00000044FF0E08F6
:100240000C0B01060E00000050230F080E0E020BCF
:100250001200000060FF0E080508011708000000EA
:10026000F8720F080702011109000000DE860F086E
:10027000030302170800000044830F080918000652
:100280000A000000A0E40D080C1301070E00000096
:100290005C5D0E08081303070E00000034390F08D8
:1002A0000B1301070E000000845D0E080B130107FD
:1002B0000E000000AC5D0E080C1300070E000000DD
:1002C000D45D0E080B1302070E000000FC5D0E0843
:1002D0000C1301070E000000245E0E080C1301072A
:1002E0000E0000004C5E0E080C1301070E0000000B
:1002F000745E0E080C1301070E0000009C5E0E08D1
:10030000030E030C09000000344C0F080513020C07
:100310000900000048390F080D0E020B1200000002
:100320007CFF0E080E07020E12000000444C0F085E
:100330000D0E030B1200000098FF0E080A130107B0
:100340000C000000C45E0E0814160207170000001F
:1003500084A70C080F1300070F000000EC5E0E08C6
:100360000C1302070F000000145F0E080D130107A5
:100370000F0000003C5F0E080E1302071100000082
:10038000645F0E080B1302070E0000008C5F0E085E
:100390000B1302070D000000B45F0E080F130107D6
:1003A00011000000DC5F0E080D13020711000000B1
:1003B00004600E0806130107090000005C390F08ED
:1003C000081300070A00000070390F080D13020718
:1003D0000F0000002C600E080A1302070C0000003A
:1003E00054600E080F130207130000007C600E0813
:1003F0000D13020711000000A4600E08101301077E
:1004000012000000CC600E080C1302070E00000062
:10041000F4600E081018010712000000D0E40D0867
:100420000E130207100000001C610E080C130107D8
:100430000E00000044610E081013FF070F000000BB
:100440006C610E080C1302071000000094610E0886
:100450000F1300070F000000BC610E081713000700
:100460001700000034FF0C080F1300070F000000F6
:10047000E4610E080E1300070E0000000C620E0867
:100480000C1301070E00000034620E080619020664
:100490000A000000B4FF0E08091801060A00000057
:1004A00000E50D08061901060A000000D0FF0E083D
:1004B0000F0A02071200000084390F080E02001C08
:1004C0000E00000048830F08050503050E0000001C
:1004D00000730F080A0E010C0D000000ECFF0E085F
:1004E0000B1402060E0000005C620E080A0E010CDE
:1004F0000C00000008000F080B1401060E0000009D
:1005000084620E080B0E010C0D00000024000F0881
:100510000914000608000000AC620E080B13010C61
:100520000E000000D4620E080A1402060E0000003D
:10053000FC620E08021302070600000098390F083B
:100540000618FF070700000068230F080B140206B7
:100550000C00000024630E080214020606000000CE
:10056000AC390F08120E010C15000000682E0E08A1
:100570000A0E020C0E00000040000F080C0E010CC9
:100580000E0000005C000F080B13020C0E000000B0
:100590004C630E080B13010C0E00000074630E0870
:1005A000070E020C09000000544C0F080A0E010C43
:1005B0000B00000078000F08081200080800000077
:1005C000C0390F080A0E020C0E00000094000F083C
:1005D0000C0E000C0C000000B0000F08130E000CF5
:1005E00013000000942E0E080C0E000C0C000000EE
:1005F000CC000F080C13000C0C0000009C630E08CC
:10060000090E010C0B000000E8000F080A19010692
:100610000C000000B07A0D08021904060A00000060
:1006200004010F080A1901060C000000E47A0D0805
:100630000E06020F12000000C0580F080101001A38
:100640000800000062870F0802130307080000007B
:10065000D4390F080B1601080E000000C02E0E083A
:100660000B1301070E000000C4630E080C0C010CF4
:100670000E00000080230F080E1300070E0000007C
:10068000EC630E08021904060A00000020010F089E
:100690000B1801070E00000030E50D0807020308E3
:1006A0000E000000E0860F08151501071700000076
:1006B00080CD0C08090C01070C00000098230F08DE
:1006C0000B0C010C0E000000B0230F080E090211E4
:1006D00012000000E8390F080702011109000000AC
:1006E000E2860F081515010717000000C0CD0C08A1
:1006F0000E0200040E0000004C830F0809090107D8
:100700000C000000FC390F080E0F02091200000057
:1007100074EA0E08090B02070C000000C8230F083A
:10072000080B02070C000000CC580F080505050552
:100730000E00000008730F080A13020C0E000000E0
:1007400014640E080B1701070E00000060E50D0889
:100750000303030C0900000050830F080605041A68
:100760000E00000010730F08060B04070C000000B9
:10077000D8580F080A0C01070C000000E0230F08EE
:100780000B0C020C0E000000F8230F0814130207D4
:100790001900000070FF0C08161302071900000072
:1007A000ACFF0C081513020719000000E8FF0C0845
:1007B0000A1301070C0000003C640E080F19000129
:1007C0000F000000187B0D080F1900010F0000003A
:1007D0004C7B0D080F1900010F000000807B0D08F5
:1007E0000F1800020F00000090E50D080F1600041E
:1007F0000F000000EC2E0E080F1900010F00000082
:10080000B47B0D08161300071700000024000D0824
:100810000D1801070F000000C0E50D080B190201BB
:100820000E000000E87B0D080B1902010E0000000D
:100830001C7C0D080B1902010E000000507C0D08F5
:100840000B1702030E000000F0E50D080619010168
:10085000090000003C010F08061901010900000011
:1008600058010F08081900010900000074010F0861
:10087000061701030900000010240F0810130007D9
:100880001100000064640E080D180202110000003F
:1008900020E60D081019010112000000847C0D08EB
:1008A0001019010112000000B87C0D081019010197
:1008B00012000000EC7C0D0810180102120000006C
:1008C00050E60D08101701031200000080E60D0825
:1008D0000D0D030C1200000090010F081015010609
:1008E00012000000182F0E080C1902011000000061
:1008F000207D0D080C19020110000000547D0D0828
:100900000C19020110000000887D0D080C1702036D
:1009100010000000B0E60D080E1900010E000000E6
:10092000BC7D0D080A1302070E0000008C640E083F
:100930000B1402060E000000B4640E080A1501052F
:100940000D000000442F0E080A1501050D000000DF
:10095000702F0E080A1501050D0000009C2F0E08CF
:100960000A1401060D000000DC640E080A120108DA
:100970000D0000003CC30E080A1501050D00000023
:10098000C82F0E08140E010C16000000F42F0E08DC
:100990000A13010C0C00000004650E080B1501057C
:1009A0000D00000020300E080B1501050D000000A1
:1009B0004C300E080B1501050D00000078300E08B4
:1009C0000B1201080D00000060C30E08051500059C
:1009D0000600000028240F08051502050600000087
:1009E00040240F08061500050600000058240F08D3
:1009F0000613000706000000103A0F080C13010749
:100A00000E0000002C650E080A1402060E000000FD
:100A100054650E080C1501050E000000A4300E08E8
:100A20000C1501050E000000D0300E080C15010554
:100A30000E000000FC300E080C1401060E00000031
:100A40007C650E080C1201080E00000084C30E081D
:100A50000F0E020B12000000AC010F080C10010B6E
:100A60000E00000094EA0E080A1502050E000000B0
:100A700028310E080A1502050E00000054310E0838
:100A80000A1502050E00000080310E080A12020845
:100A90000E000000A8C30E080C1A00050C00000090
:100AA000F07D0D080B1902060E000000247E0D08D3
:100AB0000C1700080C000000E0E60D080F170003FB
:100AC0000F00000010E70D080A1301070D000000D9
:100AD000A4650E080F1900010F000000587E0D08D4
:100AE0000A1401060D000000CC650E08101800075E
:100AF0000F00000040E70D080B13010C0D00000073
:100B0000F4650E080D1901010F0000008C7E0D0820
:100B10000A1501050C000000AC310E080D19010189
:100B20000F000000C07E0D080A1501050C00000032
:100B3000D8310E080D1701030F00000070E70D08F3
:100B40000A1201080C000000CCC30E080D190101A7
:100B50000F000000F47E0D080A1501050C000000CE
:100B600004320E080E19020111000000287F0D0842
:100B700010140106110000001C660E081013000777
:100B80001100000044660E080D1401060E0000005E
:100B90006C660E080B1702030E000000A0E70D089C
:100BA0000B1301070D00000094660E080B190201DB
:100BB0000E0000005C7F0D080B1401060D00000004
:100BC000BC660E080B1702030E000000D0E70D08EC
:100BD0000B1201080D000000F0C30E080B180207ED
:100BE0000E00000000E80D080B13010C0D000000C2
:100BF000E4660E080B1902010E000000907F0D083C
:100C00000B1501050D00000030320E080F1901010F
:100C100011000000C47F0D080B1A01050E00000032
:100C2000F87F0D080F190101110000002C800D083C
:100C30000B1901060E00000060800D080F1701035C
:100C40001100000030E80D080B1701080E0000002D
:100C500060E80D080F1801071100000090E80D086A
:100C60000B1A01050E00000094800D080D190201F9
:100C700011000000C8800D080A1902010E000000D2
:100C8000FC800D08121300071200000060000D0820
:100C90000C1400060E0000000C670E080819000175
:100CA00009000000C8010F08061400060600000035
:100CB000243A0F08081800020900000070240F08E9
:100CC0000613000706000000383A0F080619010154
:100CD00009000000E4010F080614000606000000E9
:100CE0004C3A0F08061801070900000088240F0875
:100CF0000418010706000000A0240F0806170103CE
:100D000009000000B8240F08020E020C06000000C3
:100D1000644C0F080F1301071200000034670E081F
:100D2000091802070D000000C0E80D0809190001AC
:100D30000A00000030810D08081AFF0507000000B6
:100D400000020F080D1802070F000000F0E80D0860
:100D50000B1902060C00000064810D080B0E020C3A
:100D60000C0000001C020F080A1902010C00000010
:100D700098810D08051902010600000038020F08CD
:100D80000A1802070C00000020E90D0805190106E9
:100D90000600000054020F080A1402060C000000AE
:100DA0005C670E080814020609000000603A0F088C
:100DB0000A1302070C00000084670E0808140206DC
:100DC0000B000000743A0F080D1300070D0000001F
:100DD000AC670E080614000607000000883A0F08EA
:100DE0000D19020111000000CC810D080A15020541
:100DF0000E0000005C320E080D1802071100000002
:100E000050E90D080A13020C0E000000D4670E080A
:100E10000D1902011100000000820D080A150205DB
:100E20000E00000088320E081014FF0611000000AA
:100E3000FC670E080D1802071100000080E90D087C
:100E40000A13020C0E00000024680E08101701039C
:100E500012000000B0E90D080C1301070E0000009D
:100E60004C680E08101901011200000034820D08B0
:100E70000C1401060E00000074680E081019010120
:100E80001200000068820D080C1501050E0000001C
:100E9000B4320E0816130107180000009C000D085C
:100EA000150E010C17000000E0320E080E190201A9
:100EB000100000009C820D080715020509000000C3
:100EC000D0240F080E18020710000000E0E90D08FA
:100ED0000813010C090000009C3A0F080E190201CA
:100EE00010000000D0820D0808150205090000005E
:100EF000E8240F080C1901010E00000004830D08FE
:100F00000A1501050B0000000C330E080C19010135
:100F10000E00000038830D080A1501050B000000C3
:100F200038330E080C1801070E00000010EA0D08F7
:100F30000A13010C0B0000009C680E080C1901013B
:100F40000E0000006C830D080A1501050B0000005F
:100F500064330E081018FF070F00000040EA0D0868
:100F6000081700080800000000250F081019FF01ED
:100F70000F000000A0830D080C1400060C000000F8
:100F8000C4680E081013FF070F000000EC680E087D
:100F90000812000808000000B03A0F080C180202FE
:100FA0001000000070EA0D080A1402060E0000008E
:100FB00014690E080C17020310000000A0EA0D08C7
:100FC0000A1302070E0000003C690E080C1902010A
:100FD00010000000D4830D080A1402060E00000061
:100FE00064690E080C1902011000000008840D0845
:100FF0000A1502050E00000090330E080D190201BB
:10100000100000003C840D080A1502050E000000C7
:10101000BC330E080C18020710000000D0EA0D08BF
:101020000B13020C0E0000008C690E08171900014A
:1010300017000000E02D0C08131500051300000038
:1010400000CE0C080E1900010E00000070840D087F
:101050000C1A00050C000000A4840D080E170003F4
:101060000E00000000EB0D080C1901010E0000003D
:10107000D8840D08091501050B000000E8330E089F
:101080000C1701030E00000030EB0D0809120108D7
:101090000B00000014C40E080C1901010E00000022
:1010A0000C850D08091501050B00000014340E080D
:1010B0000614020606000000C43A0F080D140006CC
:1010C0000E000000B4690E081013000711000000A4
:1010D000DC690E080C1302070F000000046A0E08FA
:1010E0000B1402060E0000002C6A0E080F130007F6
:1010F0000F000000546A0E080D1400060E000000D8
:101100007C6A0E080D1301070F000000A46A0E0888
:10111000111501050F00000040CE0C080E11010949
:101120000C00000038C40E08101300071100000066
:10113000CC6A0E081213000713000000D8000D0837
:101140000C1301070F000000F46A0E080B140106CF
:101150000E0000001C6B0E080C13010C0E000000AA
:10116000446B0E080B1301070E0000006C6B0E0899
:101170001013010712000000946B0E080C130107F6
:101180000D000000BC6B0E080F18FE070D000000DC
:1011900060EB0D080E1500070E00000040340E082D
:1011A000131501051100000080CE0C080F18000770
:1011B0000F00000090EB0D0812140206160000004C
:1011C00014010D080214020606000000D83A0F08A8
:1011D0000813000709000000EC3A0F080D1302077E
:1011E0000F000000E46B0E080B1402060C00000058
:1011F0000C6C0E080614000607000000003B0F08E8
:101200000C1400060C000000346C0E0812130207C8
:101210001600000050010D081118FE071100000013
:1012200044660C080A13020C0E0000005C6C0E08E9
:101230001013010712000000846C0E08121301073E
:10124000130000008C010D080D1101090E000000B3
:101250005CC40E0815180107170000008C660C0806
:101260000E13010C11000000AC6C0E0810130007E7
:1012700010000000D46C0E080B1902060E000000CE
:1012800040850D080D1502070E0000006C340E0895
:101290000C1301070E000000FC6C0E080A0E000C77
:1012A0000B00000070020F080D1301070E00000074
:1012B000246D0E080D1900060E00000074850D083F
:1012C000081700080800000018250F080F13000772
:1012D0000F0000004C6D0E08081400060800000006
:1012E000143B0F080E1800070F000000C0EB0D089C
:1012F0001116020412000000C8A70C080E11020902
:101300000F00000080C40E08111301071200000036
:10131000C8010D080C13020710000000746D0E08C0
:10132000111300071100000004020D081118000736
:101330000C000000D4660C080C1301070E0000001E
:101340009C6D0E08090E010C0B0000008C020F08AA
:101350000C1800070D000000F0EB0D080C18010739
:101360000D00000020EC0D080A13010C0B0000001A
:10137000C46D0E080913010C0B000000EC6D0E0883
:101380000B1301070E000000146E0E080C1301076A
:101390000E0000003C6E0E080A0E000C0B00000050
:1013A000A8020F080B1200080C000000A4C40E08CD
:1013B0000B13020C0E000000646E0E0802190406E6
:1013C0000A000000C4020F08061902060A00000005
:1013D000E0020F080E19020612000000A8850D0891
:1013E0000213030708000000283B0F081C19020124
:1013F0001F000000F4620B08191502051C00000014
:1014000018FB0B081715010519000000C0CE0C08C9
:10141000141302071800000040020D0811180207FB
:10142000150000001C670C08081902060C000000DB
:10143000FC020F08171302071B0000007C020D08B6
:10144000131802071700000064670C081118020740
:1014500015000000AC670C080F1900010F00000018
:10146000DC850D080A1501050D00000098340E08F2
:10147000081900010900000018030F080815FF05EE
:101480000600000030250F081019010112000000AD
:1014900010860D080C1501050E000000C4340E085E
:1014A0000C1902011000000044860D080A150205FF
:1014B0000E000000F0340E080C19020110000000AC
:1014C00078860D080A1602040E0000001C350E086E
:1014D0000C19020110000000AC860D080A16020467
:1014E0000E00000048350E080C1902011000000023
:1014F000E0860D080A1802020E00000050EC0D08EC
:101500000C1902011000000014870D080A160204CD
:101510000E00000074350E080B0E010C0D000000CB
:1015200034030F080F1900010F00000048870D0851
:101530000A1601040D000000A0350E080F19000165
:101540000F0000007C870D080A1601040D00000042
:10155000CC350E081617000317000000F4670C08BE
:101560001413010716000000B8020D08101301073C
:10157000110000008C6E0E080C13010C0E00000010
:10158000B46E0E080F19010111000000B0870D089C
:101590000B1A01050E000000E4870D080D19020169
:1015A0000F00000018880D080B1902010C00000044
:1015B0004C880D08101801071200000080EC0D087F
:1015C0000C13010C0E000000DC6E0E08101C010351
:1015D00012000000CC470D080C1801070E00000097
:1015E000B0EC0D080C1E00010D000000F4020D0807
:1015F0000A1A00050B00000080880D08081AFF0574
:101600000700000050030F081C1302071F00000012
:101610002C2E0C08191302071C000000782E0C0851
:10162000171401061900000030030D080F190101FD
:1016300011000000B4880D080B1A01050E0000000F
:10164000E8880D0815130207190000006C030D0847
:101650000B1802070E000000E0EC0D080D19020146
:10166000110000001C890D080A1502050E0000007B
:10167000F8350E080F1900010F00000050890D0801
:101680000A1701030D00000010ED0D0816190001E6
:1016900017000000C42E0C081415010516000000E8
:1016A00000CF0C08101A01011200000084890D08F7
:1016B0000C1601050E00000024360E080F1900015B
:1016C0000F000000B8890D080B1500050D00000083
:1016D00050360E080F1900010F000000EC890D08AC
:1016E0000A1401060D000000046F0E080B19020118
:1016F0000E000000208A0D080B1501050D000000EA
:101700007C360E080B1902010E000000548A0D08E9
:101710000B1401060D0000002C6F0E080A19FE01C3
:1017200009000000888A0D080A15FD050600000062
:10173000A8360E0808190001090000006C030F0804
:101740000814FF06060000003C3B0F0810190101B9
:1017500012000000BC8A0D080C1501050E000000E7
:10176000D4360E081019010112000000F08A0D088D
:101770000C1401060E000000546F0E080F19010131
:1017800010000000248B0D080A1500050900000058
:1017900000370E080E19020110000000588B0D08CA
:1017A0000814020609000000503B0F080C19020142
:1017B000100000008C8B0D080B1501050E000000B9
:1017C0002C370E080C19020110000000C08B0D0808
:1017D0000A1402060E0000007C6F0E080C180107A8
:1017E0000E00000040ED0D080A13010C0B00000074
:1017F000A46F0E081018FF070F00000070ED0D0811
:10180000081700080800000048250F080B180107FA
:101810000D000000A0ED0D080A13000C0B000000E5
:10182000CC6F0E080D19020111000000F48B0D0899
:101830000A1902010E000000288C0D080D1802077D
:1018400010000000D0ED0D08121901061300000071
:10185000102F0C080D1301070F000000F46F0E0885
:101860000B1301070D0000001C700E080D16010778
:101870000E00000058370E080A11010C0B00000082
:10188000C8C40E080F1700030F00000000EE0D087B
:101890000A1201080D000000ECC40E080B18020724
:1018A0000E00000030EE0D080B13010C0D000000BF
:1018B00044700E0810190101120000005C8C0D0824
:1018C0000C1601040E00000084370E0810190101E7
:1018D00012000000908C0D080C1701030E00000090
:1018E00060EE0D08101701031200000090EE0D08C5
:1018F0000C1201080E00000010C50E08101901019D
:1019000012000000C48C0D080C1601040E0000002B
:10191000B0370E080E1700030E000000C0EE0D08D1
:101920000C1800070C000000F0EE0D080A19010663
:101930000B000000F88C0D081113020C13000000BE
:10194000A8030D080B1200080B00000034C50E0898
:101950000613FF0C07000000643B0F081414010677
:1019600016000000E4030D081413010C160000001B
:1019700020040D08101600060F000000DC370E08CA
:10198000101601060F00000008380E080C1301099C
:101990000C0000006C700E080D13FF070C00000017
:1019A00094700E081116FF060F0000000CA80C081A
:1019B0000A13010C0B000000BC700E080913010C87
:1019C0000B000000E4700E080D1400060E0000006D
:1019D0000C710E080B1200070C00000058C50E0811
:1019E0000D1301070F00000034710E080E130107DC
:1019F000100000005C710E080F1300070F000000BC
:101A000084710E080B1802050E00000020EF0D086F
:101A10000B1801070D00000050EF0D080913000717
:101A20000A000000AC710E080718FF07070000004D
:101A300060250F0813180107120000003C680C080D
:101A40000F13010C0E000000D4710E080F130107D4
:101A500010000000FC710E08080E010C09000000C7
:101A6000744C0F080E1300070E00000024720E08BD
:101A70000C13000C0C0000004C720E080A0E020C35
:101A80000D00000088030F080B0E010C0E00000073
:101A9000A4030F080B0E020C0E000000C0030F0879
:101AA0000B1402060E00000074720E080A0E010CE0
:101AB0000C000000DC030F080B0E000C0C000000F3
:101AC000F8030F08101901060E0000002C8D0D08F8
:101AD000101401060E0000009C720E080B0E010C83
:101AE0000D00000014040F080B0E010C0D00000087
:101AF00030040F08110E010C1200000034380E08DB
:101B00000A0E010C0B0000004C040F080A0E000C1A
:101B10000B00000068040F08100E000C10000000FD
:101B200084040F080B0E010C0D000000A0040F0828
:101B30000913FF0C08000000C4720E0810190106FA
:101B40000E000000608D0D080B13010C0E0000004C
:101B5000EC720E080B0E010C0D000000BC040F0807
:101B60000C13000C0C00000014730E080F0E000C78
:101B70000F000000D8040F080A13020C0E0000002A
:101B80003C730E080A1402060E00000064730E086F
:101B90000A1902060E000000948D0D0806130007B6
:101BA00006000000783B0F08020E020C0600000041
:101BB000844C0F08060E010C09000000944C0F081D
:101BC0000A1400060A0000008C730E0807140006B1
:101BD000070000008C3B0F080619020606000000F3
:101BE000F4040F080B1902060E000000C88D0D0842
:101BF000120E010C1500000060380E081213010CC3
:101C0000150000005C040D081213010C1500000003
:101C100098040D080F13FD0C0E000000B4730E089D
:101C20000E13020C0E000000DC730E080A0E020CEC
:101C30000E00000010050F080C0E010C0E00000035
:101C40002C050F08110E010C140000008C380E0832
:101C5000100E010C1200000048050F080C190106B7
:101C60000E000000FC8D0D08070E000C090000009E
:101C7000A44C0F080714000609000000A03B0F0841
:101C80000C13000C0900000004740E080713020C6A
:101C900009000000B43B0F080713020C0900000004
:101CA000C83B0F08070E020C09000000B44C0F08D7
:101CB0000713000C09000000DC3B0F080B0E020CA0
:101CC0000D00000064050F080B0E020C0D00000053
:101CD00080050F080A13010C0B0000002C740E087D
:101CE0000C1901060E000000308E0D080C19FF06BD
:101CF00008000000648E0D080C13010C0E0000009B
:101D000054740E080D1900060E000000988E0D0880
:101D10000812000808000000F03B0F080817000830
:101D20000800000078250F080E0E000C0E000000C1
:101D30009C050F080C0E020C10000000B8050F08DF
:101D40000A0E020C0E000000D4050F080C0E000C49
:101D50000C000000F0050F08130E000C130000002B
:101D6000B8380E080C1300070C0000007C740E0835
:101D70000B0E000C0B0000000C060F080E13010CDC
:101D80000B000000A4740E080D10010C0E000000E2
:101D9000B4EA0E080A13000C0B000000CC740E0805
:101DA0000B13000C0B000000F4740E080B1400065B
:101DB0000C0000001C750E080B1401060C0000003E
:101DC00044750E080B1400060C0000006C750E081C
:101DD0000B13010C0C00000094750E081013010782
:101DE00012000000BC750E080A0E020C0D00000067
:101DF00028060F080B0E010C0D00000044060F080A
:101E00000F1101090D0000007CC50E080A0E020C1E
:101E10000E00000060060F080A1800070A00000004
:101E200080EF0D080B13FF0C0C000000E4750E088A
:101E3000080E020C0A000000C44C0F08101901061D
:101E40000E000000CC8E0D080B1400060C000000E4
:101E50000C760E080B1401060C00000034760E08F8
:101E60001414010616000000D4040D08141901060C
:101E7000160000005C2F0C0818160106190000005F
:101E800050A80C08111200081100000004480D08A9
:101E90000F1900060E000000008F0D081112000837
:101EA000120000003C480D08121900061400000042
:101EB000A82F0C080E140206100000005C760E0815
:101EC0000B1402060E00000084760E080B130107A7
:101ED0000C000000AC760E080A1202080E0000008A
:101EE000A0C50E080F13000C11000000D4760E08D8
:101EF0001313000C1300000010050D08080D010855
:101F00000A000000D44C0F08080D01080A00000068
:101F1000E44C0F080510000806000000F44C0F0800
:101F20000509010C06000000E4580F080509000C23
:101F300006000000F0580F08080C000C0600000016
:101F4000FC580F080809010C0900000008590F0887
:101F50000C09000C0C000000043C0F08090C000CDC
:101F60000900000090250F0805080207070000007F
:101F700018730F080A0801070C000000044D0F0831
:101F80000507FF060500000020730F08050701067E
:101F90000500000028730F080507FF060500000074
:101FA00030730F08040705050E00000038730F0892
:101FB000040705050E00000040730F08070D010817
:101FC00009000000144D0F08070D0108090000006A
:101FD000244D0F080D0E020B120000007C060F08A6
:101FE0000D0E030B1200000098060F080E0D020CD8
:101FF00012000000B4060F080E0D020C12000000C3
:10200000D0060F08080503050E00000048730F08EE
:10201000080503050E00000050730F0802050605B1
:102020000E00000058730F08090202070E0000009E
:1020300054830F08050505050E00000060730F08A6
:10204000050503050E00000068730F080204061B57
:102050000E00000058830F080902021D0E00000048
:102060005C830F080505031A0E00000070730F084B
:102070000505061A0E00000078730F08030E030C06
:1020800009000000344D0F0803030311090000008C
:1020900060830F080407050F0E00000080730F080F
:1020A0000407050F0E00000088730F0806040114D2
:1020B0000800000064830F080604011408000000F3
:1020C00068830F0806040114080000006C830F08E1
:1020D000090202140E00000070830F0808050306B1
:1020E0000E00000090730F08020206080E000000A8
:1020F000E4860F08070703050E00000098730F0819
:102100000405041A0E000000A0730F080A0402065A
:102110000E000000A8730F080A0503050E0000005A
:1021200014590F080705001108000000B0730F08CC
:10213000080801070A000000B8730F08080C000C1B
:102140000800000020590F08020D010804000000DB
:10215000444D0F080709010C090000002C590F0815
:102160000709000C0800000038590F08070D010886
:1021700009000000544D0F08061202080A00000072
:10218000183C0F08061202080A0000002C3C0F0839
:10219000061202080A000000403C0F08061202085E
:1021A0000A000000543C0F08061202080A00000052
:1021B000683C0F08060B010F0800000044590F0887
:1021C000060B010F0800000050590F080805031AFC
:1021D0000E000000C0730F08070303070E00000085
:1021E00074830F080A0701060A000000644D0F08F7
:1021F0000503041B0E00000078830F080503041B71
:102200000E0000007C830F080305051A0E00000075
:10221000C8730F080305051A0E000000D0730F08DD
:102220000404051B0E00000080830F080505031140
:102230000E000000D8730F080A0501110E000000FF
:102240005C590F080A0503110E00000068590F08B9
:102250000A04021B0E000000E0730F08030D0307C1
:1022600009000000744D0F08050504070E0000006A
:10227000E8730F08050505070E000000F0730F084E
:10228000050504150E000000F8730F080505051577
:102290000E00000000740F080905021A0E0000006D
:1022A00074590F080905021A0E00000080590F0822
:1022B000060701180800000008740F080505F70557
:1022C0000000000010740F080505F805000000006C
:1022D00018740F080805FC050000000020740F08A2
:1022E0000A04F4010000000028740F080902FB072B
:1022F0000000000084830F080E02F90400000000B3
:1023000088830F080805FC060000000030740F08E1
:102310000202FF0800000000E6860F080802FC0821
:1023200000000000E8860F08040505050000000015
:1023300038740F080707FC050000000040740F0800
:102340000A05FB05000000008C590F080805FC0574
:102350000000000048740F080205FF05000000009F
:1023600050740F080505FE050000000058740F08A2
:102370000A05FB050000000098590F080807FC0437
:102380000000000060740F080805FC060000000053
:1023900068740F080205FF060000000070740F0843
:1023A0000205FF060000000078740F080205FF0612
:1023B0000000000080740F08020501060000000004
:1023C00088740F080505FD1A0000000090740F08BE
:1023D0000505FD1A0000000098740F080504FE1B97
:1023E000000000008C830F080504FE1B00000000A5
:1023F00090830F080906FB0400000000A4590F0891
:102400000406000300000000A0740F080204FF1B74
:102410000000000094830F080604FD1B000000006C
:1024200098830F080604FD1B000000009C830F0822
:102430000604FD1B00000000A0830F080902FB1D1D
:1024400000000000A4830F080607FC18000000002D
:10245000A8740F080607001800000000B0740F08E9
:102460000202061C00000000EA860F080802FC1D9C
:1024700000000000EC860F080404FE1B00000000B2
:10248000A8830F080204FF1B00000000AC830F08A4
:102490000605FD1A00000000B8740F080405FE1AB6
:1024A00000000000C0740F080204FF1B00000000C1
:1024B000B0830F080904FB1B00000000C8740F085C
:1024C0000903FC1C00000000D0740F080804FC1B6A
:1024D00000000000B4830F080804FC1B000000008B
:1024E000B8830F080804FC1B00000000BC830F0821
:1024F0000804FC1B00000000C0830F080A04FB1B3B
:1025000000000000D8740F080902FB1D0000000045
:10251000C4830F080E02F91C00000000C8830F08D6
:102520000A04FB1B00000000E0740F080A04FB0E05
:1025300000000000E8740F080902FB100000000012
:10254000CC830F080E02F91000000000D0830F08A2
:102550000A09FB0D000000007C3C0F080918FB066F
:1025600000000000B0EF0D080204FF1B0000000097
:10257000D4830F080904FB1B00000000F0740F084F
:102580000404FE1B00000000D8830F080903FC1C94
:1025900000000000F8740F080606FD0300000000AC
:1025A00000750F080206FF040000000008750F0800
:1025B0000E05F90100000000B0590F080A04FB06DF
:1025C0000000000010750F080205FF060000000063
:1025D00018750F080905FC0500000000BC590F081C
:1025E0000304FE1B00000000DC830F080904FB0548
:1025F0000000000020750F080E04F91B0000000009
:1026000028750F080504FE1B00000000E0830F087A
:102610000504FE1B00000000E4830F080A06FB050A
:1026200000000000C8590F080A08FB030000000062
:10263000844D0F080A06FB0400000000D4590F085F
:102640000604FD1B00000000E8830F080604FD1BC4
:1026500000000000EC830F081211F70900000000D1
:10266000348F0D080305FD050000000030750F08CC
:102670000407FE050000000038750F080807FC0479
:102680000000000040750F080505FD1A000000005D
:1026900048750F080305FF1A0000000050750F0869
:1026A0000305FE1A0000000058750F080805FD1A02
:1026B0000000000060750F080407FE050000000020
:1026C00068750F080202060800000000EE860F0879
:1026D0000504FE1B00000000F0830F080704FD1B2B
:1026E00000000000F4830F080405FE06000000004F
:1026F00070750F081305F61A00000000944D0F08BE
:102700001305FE0600000000A44D0F081302FE068C
:102710000000000078750F081302FE1D0000000085
:1027200080750F081304FE0600000000E0590F0832
:102730001305FE0600000000B44D0F080E04FE1B3A
:102740000000000088750F080507FD040000000068
:1027500090750F080607FD040000000098750F082B
:102760000109FF0200000000EC590F080607FD04F4
:1027700000000000A0750F080507FD040000000020
:10278000A8750F080507FD0400000000B0750F08CC
:10279000060AFD0100000000F8590F08050AFD01B6
:1027A00000000000045A0F080907FB0400000000A5
:1027B000C44D0F080307FE0400000000B8750F08A1
:1027C0000409FE0200000000105A0F080507FD046E
:1027D00000000000C0750F080507FD0400000000A0
:1027E000C8750F08040505050E000000D0750F0818
:1027F0000404051B0E000000F8830F080304051BEA
:102800000E000000FC830F080A0E010C0C000000F3
:10281000EC060F080A0E010C0C00000008070F0858
:102820000A0E010C0C00000024070F080513020C0F
:1028300009000000903C0F08030505050E0000008C
:10284000D8750F08090502050E0000001C5A0F0874
:102850000F1300070F000000FC760E080303030CA3
:102860000900000000840F08101300071100000089
:1028700024770E0812130007140000004C050D0801
:102880000A1300070C0000004C770E081313000712
:102890001400000088050D08121300071200000044
:1028A000C4050D08141300071400000000060D08ED
:1028B0000815FF0506000000A8250F080F130007E4
:1028C0000F00000074770E080C1302070F000000C1
:1028D0009C770E080B1302070D000000C4770E084A
:1028E0000F1300070F000000EC770E080B13020710
:1028F0000E00000014780E080C1301070E000000F3
:102900003C780E080D1302071100000064780E08D1
:1029100010130107120000008C780E08061301073F
:1029200009000000A43C0F080D1302070F0000006F
:10293000B4780E080F1300070F000000DC780E08B3
:102940000F1302071300000004790E080D1302078D
:10295000110000002C790E080C1301070E00000076
:1029600054790E0810130107120000007C790E083C
:102970000D13020711000000A4790E080C130207C2
:102980000E000000CC790E080D1301070E000000A8
:10299000F4790E081013FF070F0000001C7A0E08D0
:1029A0000E1300070E000000447A0E0810130107F2
:1029B000130000006C7A0E080F1300070F000000D0
:1029C000947A0E081013020714000000BC7A0E0857
:1029D00011130107120000003C060D080617010341
:1029E00009000000C0250F080E1700030E000000AC
:1029F000E0EF0D080B1501050E000000E4380E088D
:102A00000A1501050B00000010390E080A1A02050C
:102A10000E000000688F0D08031502050600000077
:102A2000D8250F080A1502050E0000003C390E08D3
:102A30000B0E010C0E00000040070F080B190206D8
:102A40000E0000009C8F0D080C13000C0C00000001
:102A5000E47A0E080C1401060E0000000C7B0E0830
:102A60000A0E010C0B0000005C070F080A19010692
:102A70000A000000D08F0D080A13020C0E0000009F
:102A8000347B0E080C1401060E0000005C7B0E085F
:102A9000020E020C06000000D44D0F080A0E020CB4
:102AA0000C00000078070F080C1400060C00000052
:102AB000847B0E080A13020C0E000000AC7B0E088B
:102AC0000C0E000C0C00000094070F080B190106F7
:102AD0000B00000004900D080C0E010C0E0000000D
:102AE000B0070F080A0E020C0E000000CC070F08FA
:102AF0000B13020C0E000000D47B0E080A13010C0D
:102B00000B000000FC7B0E080E0E010C0F000000F5
:102B1000E8070F080C0E000C0C00000004080F085A
:102B20000A0E020C0E00000020080F081013010C02
:102B300012000000247C0E080C13000C0C00000096
:102B40004C7C0E080E13020C12000000747C0E0860
:102B5000100E010C120000003C080F0806130007BD
:102B600006000000B83C0F080A1202080E00000020
:102B7000C4C50E080C1501050E00000068390E08CA
:102B80000A1502050E00000094390E081015010503
:102B900012000000C0390E080B1402060E000000DF
:102BA0009C7C0E080C1402060E000000C47C0E086B
:102BB000121300071100000078060D081615000515
:102BC0001500000040CF0C08121700031100000090
:102BD00084680C080C1901060E00000038900D08DE
:102BE000100E010C1200000058080F080E13000C04
:102BF0000E000000EC7C0E08101801071200000007
:102C000010F00D080C13010C0E000000147D0E08CE
:102C10000D1801070F00000040F00D080B13010C08
:102C20000C0000003C7D0E080B1302070D00000095
:102C3000647D0E080813020C0B000000CC3C0F084A
:102C40000F130107100000008C7D0E080B14010605
:102C50000D000000B47D0E081218000713000000DC
:102C6000CC680C080D1900060E0000006C900D08D1
:102C7000121802071600000014690C081213010C48
:102C800015000000B4060D080D1301071000000028
:102C9000DC7D0E080A1402060E000000047E0E08F9
:102CA0000D1802071000000070F00D080D0E000C4A
:102CB0000D00000074080F080C1301070E0000003F
:102CC0002C7E0E080C1401060E000000547E0E0827
:102CD0000F1300070F0000007C7E0E080F0E000C83
:102CE0000F00000090080F081013010712000000E9
:102CF000A47E0E080C0E010C0E000000AC080F089C
:102D00000C1300070C000000CC7E0E080A1400060D
:102D10000A000000F47E0E080E0E000C0E000000EB
:102D2000C8080F080C13010C0E0000001C7F0E08D1
:102D30000A0E010C0C000000E4080F080618FF073B
:102D400007000000F0250F08101301071200000013
:102D5000447F0E080B0E010C0C00000000090F0848
:102D60000B0E000C0C0000001C090F080A130207D0
:102D70000E0000006C7F0E080B1902060E0000000A
:102D8000A0900D080E13FF0C0E000000947F0E089B
:102D90000D1301070F000000BC7F0E080D13010783
:102DA0000F000000E47F0E080D1301070F00000064
:102DB0000C800E080B1902010E000000D4900D08C3
:102DC0000B1702030E000000A0F00D0811130007FE
:102DD00012000000F0060D080B1902010D000000A2
:102DE00008910D080D1301070F00000034800E0834
:102DF0000C1301070E0000005C800E08061301078B
:102E000009000000E03C0F0806170103090000005C
:102E100008260F08081300070A000000F43C0F08FA
:102E20001913000719000000F42F0C0817130207EC
:102E3000190000002C070D081113000712000000F4
:102E400068070D080D1902010F0000003C910D08E4
:102E50000D1902011100000070910D080E180002FA
:102E60000E000000D0F00D080D1702071100000041
:102E700000F10D080F1300070F00000084800E08FA
:102E80000C1302070F000000AC800E080C130207A1
:102E90000F000000D4800E080B1302070D00000085
:102EA000FC800E08101700071100000030F10D081B
:102EB0000B1302070E00000024810E0816130007F2
:102EC00016000000A4070D080C1300070D000000F9
:102ED0004C810E080D1302071100000074810E08CA
:102EE0000D1802021100000060F10D080D13020719
:102EF0000F0000009C810E080F1300071100000056
:102F0000C4810E080F13020713000000EC810E08A5
:102F10000D1302071100000014820E0810130107A0
:102F2000120000003C820E080D1302071100000081
:102F300064820E080C1302070E0000008C820E083B
:102F40000D1301070F000000B4820E081013FF07D5
:102F50000F000000DC820E080E1300070E000000B8
:102F600004830E0810130107130000002C830E08C1
:102F70000F1300070F00000054830E080E170207FE
:102F80001100000090F10D080D1301071000000062
:102F90007C830E081413020718000000E0070D08D8
:102FA00016170207180000005C690C0811130007CF
:102FB000110000001C080D08101302071400000087
:102FC000A4830E080D1302070F000000CC830E0827
:102FD0000D1301070F000000F4830E0815130207FC
:102FE0001800000058080D080D1300070F0000001E
:102FF0001C840E080A0E010C0D00000038090F0891
:103000000C1401060E00000044840E080A0E020C87
:103010000D00000054090F08080E020C0A00000001
:10302000E44D0F080D11000C0E000000E8C50E085D
:103030000B0E010C0D00000070090F08120E000CA1
:1030400012000000EC390E080A0E000C0B00000004
:103050008C090F080A0E020C0E000000A8090F08C8
:103060000A1402060E0000006C840E080A0E020C00
:103070000C000000C4090F080C0E000C0E0000002C
:10308000E0090F080C0E020C10000000FC090F08EC
:103090000A0E020C0E000000180A0F080C0E010C9C
:1030A0000E000000340A0F080A0E020C0E00000089
:1030B000500A0F080B13020C0E00000094840E0837
:1030C0000A0E010C0C0000006C0A0F080C0E000C1C
:1030D0000C000000880A0F080C13000C0C00000004
:1030E000BC840E08121900061300000040300C08C2
:1030F0000C0E000C0C000000A40A0F080B11020CAF
:103100000E0000000CC60E080B0E010C0E00000095
:10311000C00A0F08100E010C13000000DC0A0F0893
:103120001111020C14000000A4910D080D0E000CEA
:103130000E000000F80A0F080D0E020C110000002E
:10314000140B0F080A0E020C0D000000300B0F08C4
:103150000A0E010C0C0000004C0B0F08100E020CA4
:1031600013000000680B0F080B0E000C0D00000090
:10317000840B0F080B1501050D000000183A0E080E
:103180000B1201080D00000030C60E080C190006D5
:103190000E000000D8910D08081502050A00000075
:1031A00020260F080A0E010C0C000000A00B0F08CF
:1031B0000A0E010C0B000000BC0B0F0802130207E3
:1031C00006000000083D0F08061300070600000077
:1031D0001C3D0F080618FF070700000038260F08DF
:1031E000140E000C15000000443A0E08120E020CDA
:1031F00015000000703A0E080C1400060E000000C6
:10320000E4840E080A1502050C0000009C3A0E0822
:103210000A1502050E000000C83A0E080C19000637
:103220000C0000000C920D080A11020C0E000000A8
:1032300054C60E081B1301071D0000008C300C083B
:10324000120E000C12000000F43A0E0810130007D2
:10325000110000000C850E080D1400060E00000081
:1032600034850E08121302071500000094080D089B
:103270000E0E020C11000000D80B0F080F130007F0
:103280000F0000005C850E080C0E000C0C00000006
:10329000F40B0F081213020714000000D0080D08E9
:1032A0000F0E020C11000000100C0F081413000781
:1032B000140000000C090D080F0E000C0F00000098
:1032C0002C0C0F08171302071900000048090D08FD
:1032D000130E020C15000000203B0E080B1E01010E
:1032E0000D00000084090D080A1A00050B000000FB
:1032F00040920D08101302071400000084850E0888
:103300000E13020C12000000AC850E08101301070A
:1033100012000000D4850E080C0E010C0E000000F7
:10332000480C0F081313000712000000C0090D0815
:10333000100E000C0F000000640C0F0813190001A0
:1033400012000000D8300C08101500050F00000016
:103350004C3B0E081C1801071D00000084930B084D
:103360001813010C19000000FC090D0813150106C3
:103370001500000080CF0C080F10010B1100000099
:10338000D4EA0E08151901011700000024310C08B9
:103390001117010313000000A4690C081B17010397
:1033A0001D000000C4D10B0812120008120000001A
:1033B00074480D080D1801070F000000C0F10D083A
:1033C0000A13010C0C000000FC850E080C1300070A
:1033D0000C00000024860E0808050306000000000B
:1033E000E0750F080903020700000000E8750F08E8
:1033F0000205060600000000F0750F08020506062B
:1034000000000000F8750F080A0403061000000011
:1034100000760F081816F4080000000094A80C08A5
:103420001818F40700000000EC690C080F1C0202D9
:1034300011000000AC480D080C1702060E00000039
:10344000F0F10D080F1300070F0000004C860E0866
:103450000C1400060D00000074860E080D13020700
:103460000E0000009C860E080C13020C0E000000DB
:10347000C4860E080B1802020D00000020F20D0891
:10348000081302070A000000303D0F080C13010763
:103490000D000000EC860E08090E010C0A00000069
:1034A000800C0F080B1802070E00000050F20D08E8
:1034B0000A13020C0D00000014870E0816170007EF
:1034C00017000000346A0C081211000C13000000F1
:1034D00074920D080C1800070D00000080F20D0812
:1034E0000A13000C0B0000003C870E080E170207A1
:1034F00010000000B0F20D080A11020C0D000000CF
:1035000078C60E080D1302070F00000064870E082E
:103510000A0E020C0C0000009C0C0F080F13000791
:103520000F0000008C870E080C1400060C00000031
:10353000B4870E081213000712000000380A0D08A5
:103540000E0E000C0E000000B80C0F080F1702073B
:1035500011000000E0F20D080B11020C0E0000003B
:103560009CC60E081213020714000000740A0D080E
:103570000E0E020C10000000D40C0F0816180207E3
:10358000190000007C6A0C081213020C15000000E0
:10359000B00A0D081114010712000000EC0A0D0812
:1035A0000D0F010C0E000000F4EA0E080D180107C3
:1035B0000F00000010F30D080A13010C0C000000AE
:1035C000DC870E081017FF070F00000040F30D08FE
:1035D0000C11000C0C000000C0C60E080E130007F2
:1035E0000E00000004880E080C13000C0C000000F4
:1035F0002C880E080E1300070E00000054880E08D9
:103600000C13000C0C0000007C880E080F1700073C
:103610000F00000070F30D080C11000C0D000000ED
:10362000E4C60E081317000714000000C46A0C0853
:103630000F11000C1000000008C70E080F1701073B
:1036400010000000A0F30D080C11010C0E0000008A
:103650002CC70E080D13010710000000A4880E08E7
:103660000B0E010C0E000000F00C0F080C130207EB
:1036700010000000CC880E080A1402060E0000009C
:10368000F4880E081413000715000000280B0D081D
:103690000F0E000C100000000C0D0F08141700078F
:1036A000150000000C6B0C080F11000C100000003E
:1036B00050C70E080613010709000000443D0F081B
:1036C000161900011600000070310C0812140006D3
:1036D00012000000640B0D080C1802070F00000018
:1036E000D0F30D080913020C0C0000001C890E0811
:1036F0001117000711000000546B0C080E11000C8C
:103700000E00000074C70E080D180207110000001B
:1037100000F40D080A13020C0E00000044890E0884
:103720000F1702071100000030F40D080C11020CF5
:103730000E00000098C70E080D17010710000000CA
:1037400060F40D080B11010C0E000000BCC70E0840
:1037500011170207130000009C6B0C080E11020CDD
:1037600010000000E0C70E08021402060600000068
:10377000583D0F080F1900010F000000A8920D0816
:103780000A1401060D0000006C890E080F160004D3
:103790000F000000783B0E080A1201080D0000001F
:1037A00004C80E081613000717000000A00B0D0830
:1037B000140E010C16000000A43B0E080B190201A8
:1037C0000E000000DC920D080B1401060D00000035
:1037D00094890E081013010712000000BC890E081E
:1037E0000B0E010C0D000000280D0F08101601042F
:1037F00012000000D03B0E080B1201080D00000063
:1038000028C80E081616000416000000D8A80C08D8
:103810001212000812000000E4480D080C16000403
:103820000D000000FC3B0E080A1200080B0000000F
:103830004CC80E080C1300070D000000E4890E08A8
:103840000A13000C0B0000000C8A0E080D1702036F
:103850001100000090F40D080A1302070E0000008A
:10386000348A0E080D16020411000000283C0E08D0
:103870000A1202080E00000070C80E08101701039B
:1038800012000000C0F40D080C1201080E00000028
:1038900094C80E0810130107120000005C8A0E087D
:1038A0000C0E010C0E000000440D0F081017010350
:1038B00012000000F0F40D080C1201080E000000C8
:1038C000B8C80E080D1601040F000000543C0E0885
:1038D0000A1201080C000000DCC80E080E170003D5
:1038E0000E00000020F50D080C1800070C00000069
:1038F00050F50D080E1600040E000000803C0E0866
:103900000C1700080C00000080F50D080E190001CE
:103910000E00000010930D080C1A00050C000000AA
:1039200044930D080D16010410000000AC3C0E0875
:103930000B1201080E00000000C90E080B17020749
:103940000D000000B0F50D080812020C0A0000007E
:103950006C3D0F081016020414000000D83C0E083D
:103960000D1202081100000024C90E080D180007EE
:103970000D000000E0F50D080A13000C0A0000001D
:10398000848A0E08101800070F00000010F60D08BA
:103990000C13000C0C000000AC8A0E080F1300077B
:1039A0000F000000D48A0E080C0E000C0C00000062
:1039B000600D0F080D1300070F000000FC8A0E08B1
:1039C0000B1401060E000000248B0E0815130007CF
:1039D00017000000DC0B0D08131401061600000090
:1039E000180C0D081413010717000000540C0D08E3
:1039F000120E010C15000000043D0E080E17010701
:103A00000F00000040F60D080B11010C0D00000026
:103A100048C90E081713000719000000900C0D0884
:103A2000140E000C16000000303D0E08151302079E
:103A300019000000CC0C0D08120E020C160000003C
:103A40005C3D0E080F130107110000004C8B0E089F
:103A50000B0E010C0D0000007C0D0F081113000768
:103A600013000000080D0D080F0E000C11000000DF
:103A7000980D0F080C1301070D000000748B0E0841
:103A80000A0E010C0B000000B40D0F080F18000700
:103A90001100000070F60D080C13000C0E00000061
:103AA0009C8B0E081018010712000000A0F60D08EC
:103AB0000B13010C0E000000C48B0E081713000737
:103AC00017000000440D0D08130E000C1300000039
:103AD000883D0E081013020712000000EC8B0E0840
:103AE0000D13020710000000148C0E0810130007BD
:103AF000100000003C8C0E0811130007110000009C
:103B0000800D0D080D13020710000000648C0E08D4
:103B10000D1301070F0000008C8C0E080C13020718
:103B20000F000000B48C0E080D13020710000000F7
:103B3000DC8C0E081213020714000000BC0D0D08E7
:103B40000F13010710000000048D0E080C1302076C
:103B50000F0000002C8D0E080A1302070C00000055
:103B6000548D0E081213020716000000F80D0D0800
:103B700010130007100000007C8D0E080C130207C4
:103B800010000000A48D0E080B1301070D000000AB
:103B9000CC8D0E080E1300070F000000F48D0E08E8
:103BA0001113000711000000340E0D080D13020759
:103BB000110000001C8E0E081013020712000000F6
:103BC000448E0E080E130107100000006C8E0E08C4
:103BD0001013000711000000948E0E080D1301074A
:103BE0000F000000BC8E0E080C130207100000002E
:103BF000E48E0E080D1301070F0000000C8F0E0855
:103C00000F13000711000000348F0E080D13010779
:103C10000F0000005C8F0E08101302071200000056
:103C2000848F0E080C13020710000000AC8F0E08E2
:103C30001113000711000000700E0D080F1300078C
:103C400010000000D48F0E080C1302070F000000B4
:103C5000FC8F0E080F1301071100000024900E08BE
:103C60000A1302070D0000004C900E081013010704
:103C70001300000074900E080E1300070F000000E0
:103C80009C900E081013010712000000C4900E084B
:103C90000F13000710000000EC900E08020501064B
:103CA0000500000008760F08020501060500000067
:103CB00010760F08050501060800000018760F08A9
:103CC000070A010609000000285A0F080505010629
:103CD0000800000020760F08070601060900000012
:103CE00028760F080A0601030C000000345A0F085A
:103CF000110E020C15000000B43D0E080A13020C50
:103D00000E00000014910E080E13010C0F000000AD
:103D10003C910E080D13020C0F00000064910E0878
:103D20000A1402060E0000008C910E080E13010CFE
:103D30000F000000B4910E080A1402060D000000E6
:103D4000DC910E080A13020C0E00000004920E080B
:103D50000F13020C110000002C920E080E14010625
:103D60000F00000054920E080A1902060E0000000F
:103D700078930D080613020C08000000803D0F0820
:103D80001219020616000000BC310C080D140106C1
:103D90000E0000007C920E080A1902060E000000B8
:103DA000AC930D080A1402060E000000A4920E083F
:103DB0000A1401060C000000CC920E080D13020C30
:103DC0000F000000F4920E080B1401060C00000016
:103DD0001C930E080D1402060F00000044930E08F9
:103DE0000613000C08000000943D0F080D14000697
:103DF0000F0000006C930E080A13000C0B0000006B
:103E000094930E080A0E020C0E000000D00D0F084D
:103E10000A13000C0B000000BC930E081113020CD7
:103E200015000000AC0E0D080B13000C0C00000078
:103E3000E4930E080B0E020C0E000000EC0D0F08B0
:103E40000A0E020C0E000000080E0F080D190206E3
:103E50000F000000E0930D08110E020C1500000089
:103E6000E03D0E080A13020C0E0000000C940E0830
:103E70000B13010C0E00000034940E08080E020C07
:103E80000A000000F44D0F08111902061500000089
:103E900008320C080E13000C0F0000005C940E0892
:103EA0000C0E010C0E000000240E0F081019000665
:103EB0001100000014940D080D1402060F000000FC
:103EC00084940E08030E030C09000000044E0F0832
:103ED000070301100900000004840F080505FE1AFD
:103EE0000000000030760F080803FC060000000008
:103EF00008840F080306FE030000000038760F0850
:103F00000205FF040000000040760F080405FE04CF
:103F10000000000048760F080405FE1A00000000AB
:103F200050760F080303FF06000000000C840F0802
:103F30000704FC050000000010840F080405FC04C1
:103F40000000000058760F080303001B000000006B
:103F500014840F080405FE1A0000000060760F08A4
:103F60000405FE040000000068760F080405000444
:103F70000000000070760F080805FC040000000037
:103F800078760F080E06F90300000000405A0F086B
:103F9000060600030000000080760F080405FE04FA
:103FA0000000000088760F080505FE1A00000000DA
:103FB00090760F080304FF1B0000000018840F0810
:103FC0000303FE1B000000001C840F080405FE1AFA
:103FD0000000000098760F080805FC1A0000000099
:103FE000A0760F080305FE1A00000000A8760F084F
:103FF0000405FE0400000000B0760F080606FA0370
:1040000000000000B8760F080505FE1A0000000049
:10401000C0760F080303FE060000000020840F088E
:104020000304FF050000000024840F080405001AA3
:1040300000000000C8760F080704F9050000000022
:1040400028840F080303FE06000000002C840F08DC
:104050000205061A00000000D0760F080805031AB2
:1040600000000000D8760F080605041A00000000C2
:10407000E0760F080605041A00000000E8760F0835
:104080000202061B00000000F0860F080502041B58
:1040900000000000F2860F080505051A0000000068
:1040A000F0760F080301051B0000000063870F086E
:1040B0000503041B0000000030840F0802020608FC
:1040C00000000000F4860F08020203070000000051
:1040D000F6860F080805031A00000000F8760F089E
:1040E0000202061200000000F8860F080103061BFA
:1040F0000000000034840F080602020B0A000000D2
:10410000FA860F08030105080000000064870F0805
:104110000213020906000000A83D0F08020206086B
:1041200000000000FC860F080202FF0800000000EB
:10413000FE860F08030F030B09000000144E0F0842
:10414000020201070000000000870F080202FF1CA6
:104150000000000002870F080710020A0A00000092
:10416000244E0F080504FD1B0000000038840F08D2
:104170000D0F020B1100000014EB0E080E0F010BC7
:104180001000000034EB0E080C0F000B0C000000B8
:1041900054EB0E080D0F010B0F00000074EB0E081E
:1041A0000D0F020B1100000094EB0E08050F000B21
:1041B00007000000344E0F08070F010B0800000035
:1041C000444E0F080D0F020B11000000B4EB0E0857
:1041D0000D0F020B11000000D4EB0E080508000BB8
:1041E0000700000000770F080E14000B10000000FD
:1041F000AC940E080D0F010B10000000F4EB0E083C
:104200000D14010610000000D4940E080D0F020BCF
:104210001100000014EC0E080E0F010B110000003D
:1042200034EC0E080714000B09000000BC3D0F0819
:10423000070F010B0A000000544E0F08100F000B6F
:104240001200000054EC0E080D11010B10000000CC
:104250006CC90E080E14010B11000000FC940E082E
:104260000D0F010B1000000074EC0E080B14000B76
:104270000C00000024950E080D0F010B0F0000002C
:1042800094EC0E080D14020B110000004C950E0862
:104290000C0F000B0E000000B4EC0E08110F020B07
:1042A00014000000D0F60D08100F000B12000000E3
:1042B000D4EC0E080C0F000B0E000000F4EC0E08FE
:1042C0000C0F000B0E00000014ED0E080C08000B84
:1042D0000E000000644E0F080507010605000000EF
:1042E00008770F080A0701060A000000744E0F083D
:1042F0001205011A14000000844E0F082505011A4A
:1043000027000000400E0F081D0700181E000000C7
:104310005C0E0F08170701181900000050260F083F
:10432000101701081200000000F70D08030703131F
:104330000900000010770F080707011808000000A7
:1043400018770F081D0701131D000000780E0F08D5
:104350000C12010D0F00000090C90E080705FC02A9
:104360000000000020770F080705FC020000000095
:1043700028770F080706FC020000000030770F08BE
:104380000907FB0100000000944E0F080904FC021D
:104390000000000038770F08060701130000000036
:1043A00040770F08030E030C09000000A44E0F080D
:1043B000060501150800000048770F080A130107D9
:1043C0000C00000074950E08070901110A00000096
:1043D0004C5A0F08061600040600000068260F0855
:1043E0000419010106000000940E0F080915000AC7
:1043F0000A0000000C3E0E08041801070600000029
:1044000080260F08140F010B1600000030F70D086E
:104410000213020706000000D03D0F08120C011223
:1044200014000000B4C90E080A1101090C000000B4
:10443000D8C90E08120C010E14000000FCC90E08A9
:10444000120F010B1400000060F70D080C11010E93
:104450000F00000020CA0E080C11010E0F00000012
:1044600044CA0E080C14010B0F0000009C950E08A6
:104470000A0C010E0C00000098260F080A10010A11
:104480000C00000034ED0E08080B001409000000B9
:10449000585A0F080810000F09000000B44E0F080A
:1044A0001C0E01111E0000001C490D081C14010BFC
:1044B0001E00000090190C081B0F01101D000000C9
:1044C000E80E0D081B14010B1D000000E0190C087C
:1044D0001113FF0711000000240F0D081113FF072F
:1044E00011000000600F0D080C12010D0F000000FC
:1044F00068CA0E080C1601090F000000383E0E08AD
:104500000702FF180600000004870F0814120108B4
:104510001600000054490D0814150107160000008C
:10452000C0CF0C080F13010712000000C4950E083D
:104530000D13010710000000EC950E08100EFE117F
:104540000F000000B00E0F080F0E010C110000004C
:10455000CC0E0F080A0C010E0C000000B0260F084C
:10456000090F00100A00000054ED0E08140E010C93
:1045700016000000643E0E081412010C1600000024
:104580008C490D0807040005000000003C840F085A
:10459000080500010000000050770F080704001A0A
:1045A0000000000040840F08070200040000000023
:1045B00006870F08060500010000000058770F0865
:1045C0000702001C0000000008870F080705010112
:1045D0000000000060770F080505000200000000E1
:1045E00068770F0806020004000000000A870F0821
:1045F000040401020000000044840F080404011BAD
:104600000000000048840F080105FF1A00000000A8
:1046100070770F080605FD010000000078770F088D
:104620000403FE03000000004C840F080501FD098F
:104630000000000065870F0805030004000000006B
:1046400050840F08070400030000000054840F0882
:104650000202FF1C000000000C870F080605000185
:104660000000000080770F08050300030000000031
:1046700058840F080707040E0E00000088770F0803
:10468000051104090E000000E43D0F080C1101099A
:104690000E0000008CCA0E080D1100090E0000006B
:1046A000B0CA0E080B1102090E000000D4CA0E0891
:1046B0000D0E010C0E000000E80E0F080C11010990
:1046C0000E000000F8CA0E080D1101090E000000CE
:1046D0001CCB0E080D1101090E00000040CB0E0886
:1046E0000C1102090E00000064CB0E080D11010927
:1046F0000E00000088CB0E08030703170900000016
:1047000090770F08030703130900000098770F083C
:104710000C0C010C0E000000C8260F081208011234
:1047200014000000E0260F081410010C1600000011
:1047300090F70D080108FF0100000000A0770F08A6
:104740000618000206000000F8260F0806180002EE
:104750000600000010270F080618000706000000DA
:1047600028270F0804040102060000005C840F08DB
:104770000713020706000000F83D0F080A15000A9B
:104780000A000000903E0E080B15FF0A0A00000008
:10479000BC3E0E0816140106160000009C0F0D0802
:1047A000121101091400000048940D08120F010BAA
:1047B00014000000C0F70D08120D011214000000D3
:1047C00014960E081210010E14000000F0F70D08E8
:1047D000120E010C14000000E83E0E08120D01122A
:1047E000140000003C960E08120F010B140000008C
:1047F00020F80D08120D01121400000064960E0836
:104800000C1701080F00000050F80D080C180107E4
:104810000F00000080F80D080C11010E0F000000C1
:10482000ACCB0E080C11010E0F000000D0CB0E080F
:104830000C1801070F000000B0F80D080C11010E54
:104840000F000000F4CB0E080C11010E0F00000049
:1048500018CC0E080A1501050C000000143F0E08C4
:104860000A10010E0C00000074ED0E080A10010E73
:104870000C00000094ED0E080A1901050C00000060
:104880007C940D080A10010A0C000000B4ED0E081B
:104890000A10010E0C000000D4ED0E080A130107E7
:1048A0000C0000008C960E080A1301070C00000093
:1048B000B4960E080A1301070C000000DC960E08DF
:1048C000081600090900000040270F080811000E13
:1048D000090000000C3E0F080B0B0014090000003B
:1048E00058270F08090B00140900000070270F0853
:1048F0000C0B00140900000088270F08090B001496
:1049000009000000A0270F080810000F0900000090
:10491000C44E0F080813000C09000000203E0F08C9
:104920000813000C09000000343E0F081C11010E92
:104930001E0000001CA90C081C0E01111E00000026
:10494000C4490D081C14010B1E000000301A0C088D
:104950001B0F01101D000000D80F0D081B170108C8
:104960001D00000020D20B081113FF0711000000EA
:1049700014100D080C1901060F000000B0940D086A
:10498000140E010C16000000403F0E081412010C1A
:1049900016000000FC490D0814160108160000005E
:1049A00060A90C08141501051600000000D00C08C1
:1049B0001413010C1600000050100D081415010509
:1049C0001600000040D00C08141401081600000066
:1049D0008C100D081417010516000000E46B0C087C
:1049E0001413010717000000C8100D081E0C010E5B
:1049F0001F000000E0F80D08141301071700000065
:104A000004110D080F1301071200000004970E088F
:104A10000F160104120000006C3F0E080F1801076A
:104A20001200000010F90D08141601041700000010
:104A3000A4A90C081416010417000000E8A90C082A
:104A400014160104170000002CAA0C08141A010403
:104A500017000000801A0C08141B01041700000046
:104A60006CFB0B08141901011700000054320C08EC
:104A70000F1701031000000040F90D080D16010486
:104A800010000000983F0E080F19010110000000EF
:104A9000E4940D080D1801071000000070F90D08CE
:104AA0000F12010C110000003CCC0E080F0A01107F
:104AB00011000000483E0F080F130107110000000D
:104AC0002C970E080F12010C1100000060CC0E088C
:104AD0000F1101091100000084CC0E08110DFF0D0B
:104AE0001100000054970E080C14010B0F00000079
:104AF0007C970E080A1201080C000000A8CC0E08D2
:104B00000C0801140D000000D44E0F080C10010C0D
:104B10000D000000F4ED0E080C0E010E0D0000005B
:104B2000040F0F08090F00100A00000014EE0E0811
:104B3000090E00110A000000200F0F080913000CD5
:104B40000A000000A4970E08091700080A000000D8
:104B5000A0F90D08091900060A00000018950D08B3
:104B60000914000B0A000000CC970E080913000C72
:104B70000A000000F4970E08091600090A00000058
:104B8000C43F0E08140E010C16000000F03F0E0882
:104B9000160E000C170000001C400E08140E010C2D
:104BA0001600000048400E080913000C0A0000001F
:104BB0001C980E081413010C1600000040110D087B
:104BC0001413010C160000007C110D08170B0013C4
:104BD00017000000CCCC0E081712000C17000000C4
:104BE000344A0D0806020018060000000E870F0860
:104BF0000A0C010E0C000000B8270F080B09FB027D
:104C0000000000005C3E0F080C09FA0200000000E2
:104C1000703E0F080504FE050000000060840F08C8
:104C20000708FD0200000000A8770F080507FE0531
:104C300000000000B0770F080302FF07000000002B
:104C400010870F080C05FA0600000000645A0F08D0
:104C50001A1B01041C000000EC450B081B1B000480
:104C60000000000058460B080202FF070000000089
:104C700012870F080202FF070000000014870F08C8
:104C80000704FD050000000064840F080706FC050A
:104C900000000000B8770F080C05FA1A00000000A9
:104CA000705A0F080403FF010000000068840F0819
:104CB0000505000606000000C0770F08090500077B
:104CC0000A0000007C5A0F080905FB0700000000DD
:104CD000885A0F080606FD0300000000C8770F0879
:104CE0001114FF060F000000B8110D080505FE1A8B
:104CF00000000000D0770F080505FE050000000049
:104D0000D8770F080202FF070000000016870F087F
:104D10000706FC1900000000E0770F080A110109DE
:104D20000C000000F0CC0E080912000D0900000074
:104D300014CD0E080707040E0E000000E8770F08D8
:104D4000051104090E000000843E0F080C11010932
:104D50000E00000038CD0E080D1100090E000000F5
:104D60005CCD0E080C10010A0E00000034EE0E0897
:104D70000D1100090E00000080CD0E08090F030B75
:104D80000E00000054EE0E080D1101090E00000087
:104D9000A4CD0E080D1101090E000000C8CD0E08AB
:104DA0000C1102090E000000ECCD0E081C14010BC2
:104DB0001E000000D01A0C081B14010B1D0000007F
:104DC000201B0C080C1601090F00000074400E088F
:104DD000080D01110A000000E44E0F080E0E00112C
:104DE0000F0000003C0F0F081114FF061100000017
:104DF000F4110D08120C01121400000010CE0E0860
:104E00001213010B1400000030120D08120D0112D4
:104E10001400000044980E081211010E1400000046
:104E20004C950D081210010E14000000D0F90D0869
:104E3000120D0112140000006C980E08120C010EE5
:104E40001400000034CE0E080C15010A0F000000FB
:104E5000A0400E080C11010E0F00000058CE0E08E5
:104E60000A1A01050C00000080950D080A11010EB8
:104E70000C0000007CCE0E080A0B00140900000094
:104E8000D0270F081C14010B1E000000701B0C081B
:104E90000C1601090F000000CC400E080C18010789
:104EA0000F00000000FA0D080C1901060F000000A9
:104EB000B4950D081412010C160000006C4A0D0880
:104EC0001413010C160000006C120D0814130107D6
:104ED00017000000A8120D081416010417000000A6
:104EE00070AA0C0814180107170000002C6C0C089D
:104EF0001013FE0C0F00000094980E08100EFE1107
:104F00000F000000580F0F080F12010C11000000D5
:104F1000A0CE0E080F13010711000000BC980E0868
:104F20000F0E010C11000000740F0F081113010780
:104F300010000000E4120D080813000C0900000026
:104F4000983E0F080812000D09000000AC3E0F0843
:104F50001C14010B1E000000C01B0C080B0E020CE1
:104F60000F000000900F0F080D0E000C0F00000046
:104F7000AC0F0F080E0E000C10000000C80F0F0839
:104F80000C0E010C0F000000E40F0F080C0E010CBA
:104F90000F00000000100F080F0E000C11000000A1
:104FA0001C100F080A0E000C0C00000038100F082F
:104FB0000B0E010C0E00000054100F080D0E010C1A
:104FC0001000000070100F080F10000A1000000001
:104FD00074EE0E081010000A1100000094EE0E0886
:104FE000120E020C16000000F8400E081113020CFD
:104FF0001500000020130D080E13000C1000000017
:10500000E4980E080E13000C100000000C990E0816
:105010000B13010C0E00000034990E08120E000C48
:105020001400000024410E08130E010C16000000AD
:1050300050410E08120E020C150000007C410E08B3
:105040000C0E010C0F0000008C100F080C0E010C50
:105050000F000000A8100F080B0E020C0F0000003C
:10506000C4100F080E0E020C12000000E0100F0812
:105070000B0E010C0E000000FC100F080C0E020CB1
:105080000F00000018110F080C0E020C1000000099
:1050900034110F080C140206100000005C990E0871
:1050A0000B0E020C1000000050110F080B1402062A
:1050B0001000000084990E080E0E000C1200000073
:1050C0006C110F080E14000611000000AC990E08B8
:1050D0000D0E010C1000000088110F080B0E020CC1
:1050E0000F000000A4110F080A0E020C0E000000B1
:1050F000C0110F08090E010C0B000000DC110F0895
:105100000A11020C0E000000C4CE0E080B0E020C99
:105110000F000000F8110F080D11010C1000000025
:10512000E8CE0E08090E010C0C00000014120F0846
:105130000D0F010B0F000000B4EE0E08100E020C54
:105140001300000030120F080C0F020B0F000000BC
:10515000D4EE0E080F0E000C110000004C120F08C8
:1051600011130007120000005C130D080B0E020C57
:105170000F00000068120F080C0F020B0F00000058
:10518000F4EE0E080A0E010C0D00000084120F0848
:10519000080E020C0B000000F44E0F080A05F8067A
:1051A00000000000945A0F08090E010C0C000000CA
:1051B000A0120F080F12FB080C0000000CCF0E0805
:1051C0000A04F30700000000F0770F080A05F30651
:1051D00000000000A05A0F080A05F30600000000B6
:1051E000AC5A0F080A05F30600000000B85A0F0871
:1051F0000304FB1B000000006C840F080704F71B6E
:105200000000000070840F080202FC1B0000000078
:1052100018870F080C1602060F000000A8410E08A0
:10522000050E020C08000000044F0F080C0E020CC3
:105230000F000000BC120F080A1401060C00000049
:10524000D4990E08091401060B000000FC990E0801
:105250000C1400060D000000249A0E080911010C20
:105260000C00000030CF0E080911010C0C000000EA
:1052700054CF0E080807F60400000000F8770F0866
:105280000104FC070000000074840F080704F707FE
:105290000000000078840F080904F70700000000F0
:1052A00000780F080303FC08000000007C840F084E
:1052B0000705F9060000000008780F080404FB0841
:1052C0000000000080840F080507FA0100000000BC
:1052D00010780F080C0C010E0F000000E8270F08D3
:1052E0000C0B010F0F00000000280F080D0B010F21
:1052F0001000000018280F080D0E020C110000000D
:10530000D8120F080E0B010F1100000030280F08F3
:10531000110F010B1200000030FA0D08110F010BE4
:105320001200000060FA0D080E0F000B10000000C4
:1053300014EF0E08100E010C13000000F4120F08F9
:10534000100F010B1300000034EF0E08100E010CBB
:105350001200000010130F080E0E010C11000000C7
:105360002C130F08170C020E1B00000078CF0E083C
:105370000D0E000C0C00000048130F08110E000C5D
:1053800012000000D4410E08140E010C160000009B
:1053900000420E080C0E010C0D00000064130F08F3
:1053A0000A0E010C0C00000080130F080B0E020CFB
:1053B0000E0000009C130F080C0E010C0E000000E4
:1053C000B8130F08080E020C0B000000144F0F0852
:1053D0000A0E000C0B000000D4130F080212020C7E
:1053E00006000000C03E0F08070E000C0900000078
:1053F000244F0F080A0E020C0C000000F0130F08D7
:10540000090E010C0B0000000C140F080C0E020C0E
:105410001000000028140F080A0E020C0E000000F5
:1054200044140F080C0E010C0E00000060140F084D
:105430000A0E010C0C0000007C140F080E0C010D6C
:105440001000000048280F080E0A010E100000008E
:10545000D43E0F08100C000D1000000060280F084B
:10546000150E010C170000002C420E08090E010C4D
:105470000B00000098140F080C07010C0E00000030
:10548000344F0F080C0701130E000000444F0F08A3
:105490000A0E020C0D000000B4140F080B0E000CD5
:1054A0000D000000D0140F080B0E000C0D000000C2
:1054B000EC140F080C0E000C0C00000008150F086F
:1054C0000A0E020C0E00000024150F080D0B020E30
:1054D0001100000078280F08110B010E14000000C5
:1054E0009CCF0E080E12040A15000000C0CF0E0853
:1054F0000C0E000C0C00000040150F08130E000CE1
:105500001300000058420E08090E010C0B000000A9
:105510005C150F08090E010C0B00000078150F0830
:105520000B0E010C0D00000094150F080F0E000C5F
:105530000F000000B0150F08080E020C0A00000052
:10554000544F0F080D0E000C0C000000CC150F0876
:105550000A0E020C0E000000E8150F080A0E020CDD
:105560000D00000004160F080E0E020C12000000C1
:1055700020160F080C0E000C0E0000003C160F0841
:105580000B0D00080A00000058160F08100D000847
:105590001000000074160F08090D01080A00000031
:1055A00090160F080B0D00080A000000AC160F083B
:1055B0000A0D01080C000000C8160F08080D0108AC
:1055C0000A000000644F0F08080D01080A000000DF
:1055D000744F0F080B0D01080C000000E4160F08B3
:1055E0000A0D01080B00000000170F08060D010846
:1055F00007000000844F0F08070D00080800000096
:10560000944F0F08090D01080A0000001C170F082D
:10561000070D010809000000A44F0F080B0D010839
:105620000D00000038170F080A0D01080B000000DC
:1056300054170F080A0D01080B00000070170F081F
:105640000B0D01080D0000008C170F08090D010853
:105650000A000000A8170F08080D01080A00000042
:10566000B44F0F080A0D01080B000000C4170F0803
:105670000A0D01080C000000E0170F080A0D0108D0
:105680000B000000FC170F080F0D00080F000000B2
:1056900018180F080809010C09000000C45A0F0867
:1056A0000809010C09000000D05A0F080909010C73
:1056B0000A000000E83E0F080F09000C100000006F
:1056C000FC3E0F08090D01080A00000034180F08FD
:1056D000090D01080A00000050180F080909010C03
:1056E0000A000000103F0F080909000C0A00000022
:1056F000243F0F080709010C09000000DC5A0F08BD
:105700000709010C09000000E85A0F08090C010CF8
:105710000A00000090280F08020C010C0400000091
:10572000F45A0F08090D0108090000006C180F0851
:105730000E09000C0E000000383F0F08080C010C89
:105740000A000000005B0F080909010C0A000000B4
:105750004C3F0F080709010C090000000C5B0F0803
:105760000905010C0A000000185B0F08090501106B
:105770000A000000245B0F08090C010C0A0000005D
:10578000A8280F08060C010907000000305B0F086D
:105790000809010C0A0000003C5B0F080908010C15
:1057A0000B000000C44F0F080E09000C0E00000093
:1057B000603F0F080909000C08000000743F0F0843
:1057C0000A09000C0A000000883F0F0809100108B0
:1057D0000A00000054EF0E08080D000C080000003D
:1057E000D44F0F08090D01080A00000088180F089F
:1057F0000C0C010C0D000000C0280F08090C000C57
:1058000008000000D8280F08020C01100400000056
:10581000485B0F080509011306000000545B0F08E0
:10582000080901130A000000605B0F080909001352
:10583000080000009C3F0F080910010F0A0000003B
:1058400074EF0E08080C0013080000006C5B0F08D2
:10585000090C01130A000000F0280F080C0D0112BA
:105860000D000000A4180F08090C00130800000028
:1058700008290F08130E020C1600000084420E08BF
:105880000F14FE060E0000004C9A0E080F140106BD
:105890000E000000749A0E080B14FE0608000000AB
:1058A0009C9A0E08170EFF0C15000000B0420E085F
:1058B000100EFF0C0E000000C0180F080F13FE0C96
:1058C0000E000000C49A0E080B0EFE0C090000002A
:1058D000DC180F080B0EFE0C09000000F8180F086A
:1058E000100EFE0C0C00000014190F080A12FE081E
:1058F00008000000E4CF0E080E0EFF0C0B000000A5
:1059000030190F080B13020C0E000000EC9A0E0861
:10591000090C01070B00000020290F080B13010CD4
:105920000D000000149B0E0814160006160000005F
:10593000B4AA0C08090E000C090000004C190F084D
:10594000090EFF0C0600000068190F080D13010C6A
:105950000E0000003C9B0E080D0E010C0E00000016
:1059600084190F08100E000C10000000A0190F0879
:105970000B1902060E000000E8950D080D1901062E
:105980000E0000001C960D08091900060800000012
:1059900050960D081213010C0E00000098130D080C
:1059A0000B1902060C00000084960D08061900066B
:1059B00006000000BC190F081413010C15000000AC
:1059C000D4130D080C13020C0E000000649B0E088B
:1059D0000B13020C0E0000008C9B0E080913000C28
:1059E00009000000B49B0E080C13010C0B00000012
:1059F000DC9B0E080E1901060E000000B8960D087B
:105A00000D13000C0D000000049C0E080C13000C7C
:105A10000C0000002C9C0E080913010C0B00000068
:105A2000549C0E080E13010C0D0000007C9C0E0807
:105A30000F13010C0E000000A49C0E0810190106A3
:105A40000E000000EC960D080F13010C0D00000075
:105A5000CC9C0E080E13010C0B000000F49C0E08E9
:105A60000A13000C0B0000001C9D0E08130E010C05
:105A70000D000000DC420E080818020706000000B6
:105A800038290F080A13010C0C000000449D0E0871
:105A90000C1901060E00000020970D080E13020CD1
:105AA0000E0000006C9D0E080A13000C0B00000095
:105AB000949D0E080809010C0A000000785B0F088D
:105AC0000709010C09000000845B0F080809000C9D
:105AD00009000000905B0F08080D01080A00000093
