:020000040800F2
:1000000050D60020C94B0F0895D30A08AFD30A0871
:10001000C9D30A08E3D30A08FDD30A080000000088
:10002000000000000000000000000000E5330308AD
:1000300017D40A08000000008933030839D40A08DD
:100040005D7B0F08617B0F08657B0F08697B0F08DC
:100050006D7B0F08717B0F08757B0F08797B0F088C
:100060007D7B0F08817B0F08857B0F08897B0F083C
:100070008D7B0F0867D40A08917B0F086BD40A08A0
:100080005BD40A085FD40A08957B0F08997B0F0898
:100090009D7B0F08A17B0F08A57B0F0883D40A085E
:1000A000A97B0F08AD7B0F08B17B0F08B57B0F084C
:1000B000B97B0F08BD7B0F08C17B0F08C57B0F08FC
:1000C000C97B0F08CD7B0F08D17B0F08D57B0F08AC
:1000D000D97B0F084BD40A0857D40A08DD7B0F08D8
:1000E000E17B0F08E57B0F08E97B0F08ED7B0F082C
:1000F000F17B0F08F57B0F08F97B0F08FD7B0F08DC
:100100006FD40A08017C0F08057C0F08097C0F08D2
:1001100063D40A080D7C0F08117C0F08157C0F08AA
:10012000197C0F081D7C0F084FD40A08217C0F088A
:10013000257C0F08297C0F082D7C0F08317C0F08C7
:10014000357C0F08397C0F083D7C0F08417C0F0877
:10015000457C0F08497C0F0853D40A084D7C0F08D2
:100160007BD40A087FD40A08517C0F08557C0F08FD
:10017000597C0F085D7C0F08617C0F0800000000AF
:10018000657C0F08697C0F086D7C0F08717C0F0877
:10019000757C0F08797C0F087D7C0F08817C0F0827
:1001A00073D40A0877D40A08857C0F08897C0F0865
:1001B0008D7C0F08917C0F08957C0F08997C0F08A7
:1001C0009D7C0F08A17C0F080101001A08000000A7
:1001D000C17D0F080213030708000000842F0F08D9
:1001E000070701060A0000004C690F0810130107F9
:1001F0001200000098530E080C1701070E000000B3
:10020000D4DA0D08161301071800000020F50C08B9
:1002100011130107110000005CF50C08020701062C
:100220000500000054690F08071901060A000000C4
:100230008CF50E08071902060A000000A8F50E0842
:100240000C0B01060E000000B4190F080E0E020B75
:1002500012000000C4F50E08050801170800000090
:100260005C690F0807020111090000003E7D0F08BC
:100270000303021708000000A8790F0809180006F8
:100280000A00000004DB0D080C1301070E0000003B
:10029000C0530E08081303070E000000982F0F0824
:1002A0000B1301070E000000E8530E080B130107A3
:1002B0000E00000010540E080C1300070E00000082
:1002C00038540E080B1302070E00000060540E088D
:1002D0000C1301070E00000088540E080C130107D0
:1002E0000E000000B0540E080C1301070E000000B1
:1002F000D8540E080C1301070E00000000550E081C
:10030000030E030C0900000098420F080513020CAD
:1003100009000000AC2F0F080D0E020B12000000A8
:10032000E0F50E080E07020E12000000A8420F08AA
:100330000D0E030B12000000FCF50E080A13010756
:100340000C00000028550E081416020717000000C4
:10035000E89D0C080F1300070F00000050550E0811
:100360000C1302070F00000078550E080D1301074B
:100370000F000000A0550E080E1302071100000028
:10038000C8550E080B1302070E000000F0550E08AA
:100390000B1302070D00000018560E080F1301077B
:1003A0001100000040560E080D1302071100000056
:1003B00068560E080613010709000000C02F0F0839
:1003C000081300070A000000D42F0F080D130207BE
:1003D0000F00000090560E080A1302070C000000E0
:1003E000B8560E080F13020713000000E0560E085F
:1003F0000D1302071100000008570E081013010723
:100400001200000030570E080C1302070E00000007
:1004100058570E08101801071200000034DB0D08B1
:100420000E1302071000000080570E080C1301077E
:100430000E000000A8570E081013FF070F00000061
:10044000D0570E080C13020710000000F8570E08D2
:100450000F1300070F00000020580E0817130007A5
:100460001700000098F50C080F1300070F0000009C
:1004700048580E080E1300070E00000070580E08B2
:100480000C1301070E00000098580E08061902060A
:100490000A00000018F60E08091801060A000000FC
:1004A00064DB0D08061901060A00000034F60E0888
:1004B0000F0A020712000000E82F0F080E02001CAE
:1004C0000E000000AC790F08050503050E000000C2
:1004D00064690F080A0E010C0D00000050F60E08AA
:1004E0000B1402060E000000C0580E080A0E010C84
:1004F0000C0000006CF60E080B1401060E00000044
:10050000E8580E080B0E010C0D00000088F60E08CE
:10051000091400060800000010590E080B13010C06
:100520000E00000038590E080A1402060E000000E2
:1005300060590E080213020706000000FC2F0F0886
:100540000618FF0707000000CC190F080B1402065D
:100550000C00000088590E08021402060600000074
:1005600010300F08120E010C15000000CC240E08EC
:100570000A0E020C0E000000A4F60E080C0E010C70
:100580000E000000C0F60E080B13020C0E00000057
:10059000B0590E080B13010C0E000000D8590E08BC
:1005A000070E020C09000000B8420F080A0E010CE9
:1005B0000B000000DCF60E0808120008080000001E
:1005C00024300F080A0E020C0E000000F8F60E0888
:1005D0000C0E000C0C00000014F70E08130E000C9B
:1005E00013000000F8240E080C0E000C0C00000094
:1005F00030F70E080C13000C0C000000005A0E0817
:10060000090E010C0B0000004CF70E080A19010638
:100610000C00000014710D08021904060A00000005
:1006200068F70E080A1901060C00000048710D0851
:100630000E06020F12000000244F0F080101001ADD
:1006400008000000C27D0F08021303070800000025
:1006500038300F080B1601080E00000024250E0884
:100660000B1301070E000000285A0E080C0C010C99
:100670000E000000E4190F080E1300070E00000022
:10068000505A0E08021904060A00000084F70E08EA
:100690000B1801070E00000094DB0D080702030889
:1006A0000E000000407D0F0815150107170000001F
:1006B000E4C30C08090C01070C000000FC190F082A
:1006C0000B0C010C0E000000141A0F080E09021189
:1006D000120000004C300F08070201110900000051
:1006E000427D0F08151501071700000024C40C08EF
:1006F0000E0200040E000000B0790F08090901077E
:100700000C00000060300F080E0F020912000000FC
:10071000D8E00E08090B02070C0000002C1A0F0885
:10072000080B02070C000000304F0F0805050505F7
:100730000E0000006C690F080A13020C0E00000086
:10074000785A0E080B1701070E000000C4DB0D08D5
:100750000303030C09000000B4790F080605041A0E
:100760000E00000074690F08060B04070C0000005F
:100770003C4F0F080A0C01070C000000441A0F0838
:100780000B0C020C0E0000005C1A0F081413020779
:1007900019000000D4F50C08161302071900000018
:1007A00010F60C0815130207190000004CF60C088F
:1007B0000A1301070C000000A05A0E080F190001CF
:1007C0000F0000007C710D080F1900010F000000E0
:1007D000B0710D080F1900010F000000E4710D0841
:1007E0000F1800020F000000F4DB0D080F160004C4
:1007F0000F00000050250E080F1900010F00000027
:1008000018720D08161300071700000088F60C0870
:100810000D1801070F00000024DC0D080B19020160
:100820000E0000004C720D080B1902010E000000B2
:1008300080720D080B1902010E000000B4720D0841
:100840000B1702030E00000054DC0D08061901010D
:1008500009000000A0F70E080619010109000000B8
:10086000BCF70E080819000109000000D8F70E08AF
:100870000617010309000000741A0F08101300077F
:1008800011000000C85A0E080D18020211000000E5
:1008900084DC0D081019010112000000E8720D0837
:1008A00010190101120000001C730D08101901013C
:1008B0001200000050730D08101801021200000011
:1008C000B4DC0D081017010312000000E4DC0D0871
:1008D0000D0D030C12000000F4F70E0810150106B0
:1008E000120000007C250E080C1902011000000007
:1008F00084730D080C19020110000000B8730D0874
:100900000C19020110000000EC730D080C17020313
:100910001000000014DD0D080E1900010E0000008B
:1009200020740D080A1302070E000000F05A0E088A
:100930000B1402060E000000185B0E080A150105D4
:100940000D000000A8250E080A1501050D00000085
:10095000D4250E080A1501050D00000000260E081A
:100960000A1401060D000000405B0E080A1201087F
:100970000D000000A0B90E080A1501050D000000C9
:100980002C260E08140E010C1600000058260E0826
:100990000A13010C0C000000685B0E080B15010522
:1009A0000D00000084260E080B1501050D00000047
:1009B000B0260E080B1501050D000000DC260E0800
:1009C0000B1201080D000000C4B90E080515000542
:1009D000060000008C1A0F0805150205060000002D
:1009E000A41A0F080615000506000000BC1A0F081F
:1009F000061300070600000074300F080C130107EF
:100A00000E000000905B0E080A1402060E000000A3
:100A1000B85B0E080C1501050E00000008270E0833
:100A20000C1501050E00000034270E080C150105F9
:100A30000E00000060270E080C1401060E000000D6
:100A4000E05B0E080C1201080E000000E8B90E0869
:100A50000F0E020B1200000010F80E080C10010B14
:100A60000E000000F8E00E080A1502050E00000056
:100A70008C270E080A1502050E000000B8270E0884
:100A80000A1502050E000000E4270E080A120208EB
:100A90000E0000000CBA0E080C1A00050C00000035
:100AA00054740D080B1902060E00000088740D081E
:100AB0000C1700080C00000044DD0D080F170003A0
:100AC0000F00000074DD0D080A1301070D0000007F
:100AD000085C0E080F1900010F000000BC740D081F
:100AE0000A1401060D000000305C0E081018000703
:100AF0000F000000A4DD0D080B13010C0D00000019
:100B0000585C0E080D1901010F000000F0740D086B
:100B10000A1501050C00000010280E080D1901012E
:100B20000F00000024750D080A1501050C000000D7
:100B30003C280E080D1701030F000000D4DD0D083E
:100B40000A1201080C00000030BA0E080D1901014C
:100B50000F00000058750D080A1501050C00000073
:100B600068280E080E190201110000008C750D088E
:100B70001014010611000000805C0E08101300071D
:100B800011000000A85C0E080D1401060E00000004
:100B9000D05C0E080B1702030E00000004DE0D08E7
:100BA0000B1301070D000000F85C0E080B19020181
:100BB0000E000000C0750D080B1401060D000000AA
:100BC000205D0E080B1702030E00000034DE0D0836
:100BD0000B1201080D00000054BA0E080B18020792
:100BE0000E00000064DE0D080B13010C0D00000068
:100BF000485D0E080B1902010E000000F4750D0887
:100C00000B1501050D00000094280E080F190101B5
:100C10001100000028760D080B1A01050E000000D7
:100C20005C760D080F1901011100000090760D0887
:100C30000B1901060E000000C4760D080F17010302
:100C40001100000094DE0D080B1701080E000000D3
:100C5000C4DE0D080F18010711000000F4DE0D08B6
:100C60000B1A01050E000000F8760D080D1902019F
:100C7000110000002C770D080A1902010E00000077
:100C800060770D081213000712000000C4F60C086C
:100C90000C1400060E000000705D0E08081900011B
:100CA000090000002CF80E080614000606000000DB
:100CB00088300F080818000209000000D41A0F0835
:100CC00006130007060000009C300F0806190101FA
:100CD0000900000048F80E0806140006060000008F
:100CE000B0300F080618010709000000EC1A0F08C1
:100CF0000418010706000000041B0F080617010373
:100D0000090000001C1B0F08020E020C0600000068
:100D1000C8420F080F13010712000000985D0E086B
:100D2000091802070D00000024DF0D080919000151
:100D30000A00000094770D08081AFF05070000005C
:100D400064F80E080D1802070F00000054DF0D08AC
:100D50000B1902060C000000C8770D080B0E020CE0
:100D60000C00000080F80E080A1902010C000000B7
:100D7000FC770D0805190201060000009CF80E081A
:100D80000A1802070C00000084DF0D08051901068F
:100D900006000000B8F80E080A1402060C00000055
:100DA000C05D0E080814020609000000C4300F08D8
:100DB0000A1302070C000000E85D0E080814020682
:100DC0000B000000D8300F080D1300070D000000C5
:100DD000105E0E080614000607000000EC300F0835
:100DE0000D1902011100000030780D080A150205E6
:100DF0000E000000C0280E080D18020711000000A8
:100E0000B4DF0D080A13020C0E000000385E0E0855
:100E10000D1902011100000064780D080A15020581
:100E20000E000000EC280E081014FF061100000050
:100E3000605E0E080D18020711000000E4DF0D08C7
:100E40000A13020C0E000000885E0E081017010342
:100E50001200000014E00D080C1301070E00000042
:100E6000B05E0E08101901011200000098780D08FC
:100E70000C1401060E000000D85E0E0810190101C6
:100E800012000000CC780D080C1501050E000000C2
:100E900018290E08161301071800000000F70C08A7
:100EA000150E010C1700000044290E080E1902014E
:100EB0001000000000790D08071502050900000068
:100EC000341B0F080E1802071000000044E00D0844
:100ED0000813010C0900000000310F080E1902016F
:100EE0001000000034790D08081502050900000003
:100EF0004C1B0F080C1901010E00000068790D0849
:100F00000A1501050B00000070290E080C190101DB
:100F10000E0000009C790D080A1501050B00000069
:100F20009C290E080C1801070E00000074E00D0843
:100F30000A13010C0B000000005F0E080C190101E0
:100F40000E000000D0790D080A1501050B00000005
:100F5000C8290E081018FF070F000000A4E00D08B4
:100F60000817000808000000641B0F081019FF0193
:100F70000F000000047A0D080C1400060C0000009D
:100F8000285F0E081013FF070F000000505F0E08C7
:100F9000081200080800000014310F080C180202A3
:100FA00010000000D4E00D080A1402060E00000034
:100FB000785F0E080C1702031000000004E10D0812
:100FC0000A1302070E000000A05F0E080C190201B0
:100FD00010000000387A0D080A1402060E00000006
:100FE000C85F0E080C190201100000006C7A0D0891
:100FF0000A1502050E000000F4290E080D19020161
:1010000010000000A07A0D080A1502050E0000006D
:10101000202A0E080C1802071000000034E10D0809
:101020000B13020C0E000000F05F0E0817190001F0
:101030001700000044240C081315000513000000DD
:1010400064C40C080E1900010E000000D47A0D08CB
:101050000C1A00050C000000087B0D080E17000399
:101060000E00000064E10D080C1901010E000000E3
:101070003C7B0D08091501050B0000004C2A0E08E9
:101080000C1701030E00000094E10D08091201087D
:101090000B00000078BA0E080C1901010E000000C8
:1010A000707B0D08091501050B000000782A0E0859
:1010B000061402060600000028310F080D14000671
:1010C0000E00000018600E08101300071100000049
:1010D00040600E080C1302070F00000068600E0845
:1010E0000B1402060E00000090600E080F1300079C
:1010F0000F000000B8600E080D1400060E0000007E
:10110000E0600E080D1301070F00000008610E08D3
:10111000111501050F000000A4C40C080E110109EF
:101120000C0000009CBA0E0810130007110000000C
:1011300030610E0812130007130000003CF70C0882
:101140000C1301070F00000058610E080B14010674
:101150000E00000080610E080C13010C0E00000050
:10116000A8610E080B1301070E000000D0610E08E5
:101170001013010712000000F8610E080C1301079C
:101180000D00000020620E080F18FE070D00000081
:10119000C4E10D080E1500070E000000A42A0E0879
:1011A0001315010511000000E4C40C080F18000716
:1011B0000F000000F4E10D081214020616000000F2
:1011C00078F70C0802140206060000003C310F08F4
:1011D000081300070900000050310F080D13020723
:1011E0000F00000048620E080B1402060C000000FD
:1011F00070620E08061400060700000064310F0834
:101200000C1400060C00000098620E08121302076E
:1012100016000000B4F70C081118FE0711000000BA
:10122000A85C0C080A13020C0E000000C0620E0835
:101230001013010712000000E8620E0812130107E4
:1012400013000000F0F70C080D1101090E0000005A
:10125000C0BA0E081518010717000000F05C0C0852
:101260000E13010C1100000010630E08101300078C
:101270001000000038630E080B1902060E00000073
:10128000A47B0D080D1502070E000000D02A0E08E1
:101290000C1301070E00000060630E080A0E000C1C
:1012A0000B000000D4F80E080D1301070E0000001B
:1012B00088630E080D1900060E000000D87B0D088B
:1012C00008170008080000007C1B0F080F13000718
:1012D0000F000000B0630E080814000608000000AC
:1012E00078310F080E1800070F00000024E20D08E7
:1012F00011160204120000002C9E0C080E110209A7
:101300000F000000E4BA0E081113010712000000DC
:101310002CF80C080C13020710000000D8630E080C
:10132000111300071100000068F80C0811180007DD
:101330000C000000385D0C080C1301070E000000C3
:1013400000640E08090E010C0B000000F0F80E08F6
:101350000C1800070D00000054E20D080C180107DE
:101360000D00000084E20D080A13010C0B000000C0
:1013700028640E080913010C0B00000050640E08CD
:101380000B1301070E00000078640E080C13010710
:101390000E000000A0640E080A0E000C0B000000F6
:1013A0000CF90E080B1200080C00000008BB0E0818
:1013B0000B13020C0E000000C8640E08021904068C
:1013C0000A00000028F90E08061902060A000000AB
:1013D00044F90E080E190206120000000C7C0D08DC
:1013E00002130307080000008C310F081C190201CA
:1013F0001F00000058590B08191502051C000000B9
:101400007CF10B08171501051900000024C50C0814
:101410001413020718000000A4F80C0811180207A2
:1014200015000000805D0C08081902060C00000081
:1014300060F90E08171302071B000000E0F80C0803
:101440001318020717000000C85D0C0811180207E6
:1014500015000000105E0C080F1900010F000000BD
:10146000407C0D080A1501050D000000FC2A0E083D
:1014700008190001090000007CF90E080815FF0595
:1014800006000000941B0F08101901011200000053
:10149000747C0D080C1501050E000000282B0E08A9
:1014A0000C19020110000000A87C0D080A150205A5
:1014B0000E000000542B0E080C1902011000000051
:1014C000DC7C0D080A1602040E000000802B0E08BA
:1014D0000C19020110000000107D0D080A1602040C
:1014E0000E000000AC2B0E080C19020110000000C9
:1014F000447D0D080A1802020E000000B4E20D0837
:101500000C19020110000000787D0D080A16020473
:101510000E000000D82B0E080B0E010C0D00000071
:1015200098F90E080F1900010F000000AC7D0D089E
:101530000A1601040D000000042C0E080F1900010A
:101540000F000000E07D0D080A1601040D000000E8
:10155000302C0E081617000317000000585E0C0808
:1015600014130107160000001CF90C0810130107E2
:1015700011000000F0640E080C13010C0E000000B6
:1015800018650E080F19010111000000147E0D08E6
:101590000B1A01050E000000487E0D080D1902010E
:1015A0000F0000007C7E0D080B1902010C000000EA
:1015B000B07E0D081018010712000000E4E20D08CB
:1015C0000C13010C0E00000040650E08101C0103F6
:1015D00012000000303E0D080C1801070E0000003C
:1015E00014E30D080C1E00010D00000058F90C0852
:1015F0000A1A00050B000000E47E0D08081AFF051A
:1016000007000000B4F90E081C1302071F000000B9
:1016100090240C08191302071C000000DC240C089D
:10162000171401061900000094F90C080F190101A4
:1016300011000000187F0D080B1A01050E000000B4
:101640004C7F0D081513020719000000D0F90C0893
:101650000B1802070E00000044E30D080D190201EB
:1016600011000000807F0D080A1502050E00000021
:101670005C2C0E080F1900010F000000B47F0D084C
:101680000A1701030D00000074E30D08161900018C
:101690001700000028250C0814150105160000008D
:1016A00064C50C08101A010112000000E87F0D0843
:1016B0000C1601050E000000882C0E080F19000101
:1016C0000F0000001C800D080B1500050D00000028
:1016D000B42C0E080F1900010F00000050800D08F7
:1016E0000A1401060D00000068650E080B190201BE
:1016F0000E00000084800D080B1501050D00000090
:10170000E02C0E080B1902010E000000B8800D0835
:101710000B1401060D00000090650E080A19FE0169
:1017200009000000EC800D080A15FD050600000008
:101730000C2D0E080819000109000000D0F90E0850
:101740000814FF0606000000A0310F08101901015F
:101750001200000020810D080C1501050E0000008C
:10176000382D0E08101901011200000054810D08D7
:101770000C1401060E000000B8650E080F190101D7
:101780001000000088810D080A15000509000000FE
:10179000642D0E080E19020110000000BC810D0816
:1017A0000814020609000000B4310F080C190201E8
:1017B00010000000F0810D080B1501050E0000005F
:1017C000902D0E080C1902011000000024820D0853
:1017D0000A1402060E000000E0650E080C1801074E
:1017E0000E000000A4E30D080A13010C0B0000001A
:1017F00008660E081018FF070F000000D4E30D085C
:101800000817000808000000AC1B0F080B180107A0
:101810000D00000004E40D080A13000C0B0000008A
:1018200030660E080D1902011100000058820D08E3
:101830000A1902010E0000008C820D080D18020723
:101840001000000034E40D08121901061300000016
:1018500074250C080D1301070F00000058660E08D0
:101860000B1301070D00000080660E080D1601071E
:101870000E000000BC2D0E080A11010C0B00000028
:101880002CBB0E080F1700030F00000064E40D08C6
:101890000A1201080D00000050BB0E080B180207C9
:1018A0000E00000094E40D080B13010C0D00000065
:1018B000A8660E081019010112000000C0820D0870
:1018C0000C1601040E000000E82D0E08101901018D
:1018D00012000000F4820D080C1701030E00000036
:1018E000C4E40D081017010312000000F4E40D0811
:1018F0000C1201080E00000074BB0E081019010143
:101900001200000028830D080C1601040E000000D0
:10191000142E0E080E1700030E00000024E50D081B
:101920000C1800070C00000054E50D080A19010608
:101930000B0000005C830D081113020C1300000063
:101940000CFA0C080B1200080B00000098BB0E08E4
:101950000613FF0C07000000C8310F08141401061D
:101960001600000048FA0C081413010C16000000C1
:1019700084FA0C08101600060F000000402E0E0816
:10198000101601060F0000006C2E0E080C13010942
:101990000C000000D0660E080D13FF070C000000BD
:1019A000F8660E081116FF060F000000709E0C0866
:1019B0000A13010C0B00000020670E080913010C2C
:1019C0000B00000048670E080D1400060E00000012
:1019D00070670E080B1200070C000000BCBB0E085D
:1019E0000D1301070F00000098670E080E13010782
:1019F00010000000C0670E080F1300070F00000062
:101A0000E8670E080B1802050E00000084E50D08BB
:101A10000B1801070D000000B4E50D0809130007BD
:101A20000A00000010680E080718FF0707000000F2
:101A3000C41B0F081318010712000000A05E0C0859
:101A40000F13010C0E00000038680E080F13010779
:101A50001000000060680E08080E010C090000006C
:101A6000D8420F080E1300070E00000088680E0809
:101A70000C13000C0C000000B0680E080A0E020CDB
:101A80000D000000ECF90E080B0E010C0E0000001A
:101A900008FA0E080B0E020C0E00000024FA0E08C5
:101AA0000B1402060E000000D8680E080A0E010C86
:101AB0000C00000040FA0E080B0E000C0C00000099
:101AC0005CFA0E08101901060E00000090830D0844
:101AD000101401060E00000000690E080B0E010C28
:101AE0000D00000078FA0E080B0E010C0D0000002E
:101AF00094FA0E08110E010C12000000982E0E0828
:101B00000A0E010C0B000000B0FA0E080A0E000CC1
:101B10000B000000CCFA0E08100E000C10000000A4
:101B2000E8FA0E080B0E010C0D00000004FB0E0875
:101B30000913FF0C0800000028690E08101901069F
:101B40000E000000C4830D080B13010C0E000000F2
:101B500050690E080B0E010C0D00000020FB0E0852
:101B60000C13000C0C00000078690E080F0E000C1E
:101B70000F0000003CFB0E080A13020C0E000000D0
:101B8000A0690E080A1402060E000000C8690E08BB
:101B90000A1902060E000000F8830D08061300075C
:101BA00006000000DC310F08020E020C06000000E7
:101BB000E8420F08060E010C09000000F8420F0869
:101BC0000A1400060A000000F0690E080714000657
:101BD00007000000F0310F08061902060600000099
:101BE00058FB0E080B1902060E0000002C840D088D
:101BF000120E010C15000000C42E0E081213010C69
:101C000015000000C0FA0C081213010C15000000AA
:101C1000FCFA0C080F13FD0C0E000000186A0E08E9
:101C20000E13020C0E000000406A0E080A0E020C91
:101C30000E00000074FB0E080C0E010C0E000000DC
:101C400090FB0E08110E010C14000000F02E0E087F
:101C5000100E010C12000000ACFB0E080C1901065E
:101C60000E00000060840D08070E000C0900000043
:101C700008430F08071400060900000004320F088B
:101C80000C13000C09000000686A0E080713020C10
:101C90000900000018320F080713020C09000000A9
:101CA0002C320F08070E020C0900000018430F0821
:101CB0000713000C0900000040320F080B0E020C45
:101CC0000D000000C8FB0E080B0E020C0D000000FA
:101CD000E4FB0E080A13010C0B000000906A0E08CA
:101CE0000C1901060E00000094840D080C19FF0663
:101CF00008000000C8840D080C13010C0E00000041
:101D0000B86A0E080D1900060E000000FC840D08CC
:101D1000081200080800000054320F0808170008D5
:101D200008000000DC1B0F080E0E000C0E00000067
:101D300000FC0E080C0E020C100000001CFC0E082B
:101D40000A0E020C0E00000038FC0E080C0E000CEF
:101D50000C00000054FC0E08130E000C13000000D1
:101D60001C2F0E080C1300070C000000E06A0E0880
:101D70000B0E000C0B00000070FC0E080E13010C83
:101D80000B000000086B0E080D10010C0E00000087
:101D900018E10E080A13000C0B000000306B0E084F
:101DA0000B13000C0B000000586B0E080B14000600
:101DB0000C000000806B0E080B1401060C000000E4
:101DC000A86B0E080B1400060C000000D06B0E0868
:101DD0000B13010C0C000000F86B0E081013010728
:101DE00012000000206C0E080A0E020C0D0000000C
:101DF0008CFC0E080B0E010C0D000000A8FC0E0858
:101E00000F1101090D000000E0BB0E080A0E020CC4
:101E10000E000000C4FC0E080A1800070A000000AB
:101E2000E4E50D080B13FF0C0C000000486C0E08D5
:101E3000080E020C0A00000028430F0810190106C2
:101E40000E00000030850D080B1400060C00000089
:101E5000706C0E080B1401060C000000986C0E0844
:101E6000141401061600000038FB0C0814190106B2
:101E700016000000C0250C08181601061900000005
:101E8000B49E0C081112000811000000683E0D08F5
:101E90000F1900060E00000064850D0811120008DD
:101EA00012000000A03E0D081219000614000000E8
:101EB0000C260C080E14020610000000C06C0E0860
:101EC0000B1402060E000000E86C0E080B1301074D
:101ED0000C000000106D0E080A1202080E0000002F
:101EE00004BC0E080F13000C11000000386D0E0822
:101EF0001313000C1300000074FB0C08080D0108FC
:101F00000A00000038430F08080D01080A0000000D
:101F100048430F08051000080600000058430F084A
:101F20000509010C06000000484F0F080509000CC8
:101F300006000000544F0F08080C000C06000000BB
:101F4000604F0F080809010C090000006C4F0F08D2
:101F50000C09000C0C00000068320F08090C000C82
:101F600009000000F41B0F08050802070700000025
:101F70007C690F080A0801070C00000068430F087D
:101F80000507FF060500000084690F080507010624
:101F9000050000008C690F080507FF06050000001A
:101FA00094690F08040705050E0000009C690F08DE
:101FB000040705050E000000A4690F08070D0108BD
:101FC0000900000078430F08070D01080900000010
:101FD00088430F080D0E020B12000000E0FC0E08F3
:101FE0000D0E030B12000000FCFC0E080E0D020C7F
:101FF0001200000018FD0E080E0D020C1200000069
:1020000034FD0E08080503050E000000AC690F083A
:10201000080503050E000000B4690F080205060557
:102020000E000000BC690F08090202070E00000044
:10203000B8790F08050505050E000000C4690F08F2
:10204000050503050E000000CC690F080204061BFD
:102050000E000000BC790F080902021D0E000000EE
:10206000C0790F080505031A0E000000D4690F0897
:102070000505061A0E000000DC690F08030E030CAC
:102080000900000098430F08030303110900000032
:10209000C4790F080407050F0E000000E4690F085B
:1020A0000407050F0E000000EC690F080604011478
:1020B00008000000C8790F08060401140800000099
:1020C000CC790F080604011408000000D0790F082D
:1020D000090202140E000000D4790F080805030657
:1020E0000E000000F4690F08020206080E0000004E
:1020F000447D0F08070703050E000000FC690F0868
:102100000405041A0E000000046A0F080A040206FF
:102110000E0000000C6A0F080A0503050E000000FF
:10212000784F0F080705001108000000146A0F0817
:10213000080801070A0000001C6A0F08080C000CC0
:1021400008000000844F0F08020D01080400000081
:10215000A8430F080709010C09000000904F0F0861
:102160000709000C080000009C4F0F08070D01082C
:1021700009000000B8430F08061202080A00000018
:102180007C320F08061202080A00000090320F0885
:10219000061202080A000000A4320F080612020804
:1021A0000A000000B8320F08061202080A000000F8
:1021B000CC320F08060B010F08000000A84F0F08D3
:1021C000060B010F08000000B44F0F080805031AA2
:1021D0000E000000246A0F08070303070E0000002A
:1021E000D8790F080A0701060A000000C8430F0843
:1021F0000503041B0E000000DC790F080503041B17
:102200000E000000E0790F080305051A0E0000001B
:102210002C6A0F080305051A0E000000346A0F0827
:102220000404051B0E000000E4790F0805050311E6
:102230000E0000003C6A0F080A0501110E000000A4
:10224000C04F0F080A0503110E000000CC4F0F0805
:102250000A04021B0E000000446A0F08030D030766
:1022600009000000D8430F08050504070E00000010
:102270004C6A0F08050505070E000000546A0F0898
:10228000050504150E0000005C6A0F08050505151C
:102290000E000000646A0F080905021A0E00000013
:1022A000D84F0F080905021A0E000000E44F0F086E
:1022B00006070118080000006C6A0F080505F705FD
:1022C00000000000746A0F080505F8050000000012
:1022D0007C6A0F080805FC0500000000846A0F08EE
:1022E0000A04F401000000008C6A0F080902FB07D1
:1022F00000000000E8790F080E02F9040000000059
:10230000EC790F080805FC0600000000946A0F082D
:102310000202FF0800000000467D0F080802FC08CA
:1023200000000000487D0F080405050500000000BE
:102330009C6A0F080707FC0500000000A46A0F084C
:102340000A05FB0500000000F04F0F080805FC051A
:1023500000000000AC6A0F080205FF050000000045
:10236000B46A0F080505FE0500000000BC6A0F08EE
:102370000A05FB0500000000FC4F0F080807FC04DD
:1023800000000000C46A0F080805FC0600000000F9
:10239000CC6A0F080205FF0600000000D46A0F088F
:1023A0000205FF0600000000DC6A0F080205FF06B8
:1023B00000000000E46A0F080205010600000000AA
:1023C000EC6A0F080505FD1A00000000F46A0F080A
:1023D0000505FD1A00000000FC6A0F080504FE1B3D
:1023E00000000000F0790F080504FE1B000000004B
:1023F000F4790F080906FB040000000008500F08DC
:102400000406000300000000046B0F080204FF1B19
:1024100000000000F8790F080604FD1B0000000012
:10242000FC790F080604FD1B00000000007A0F086D
:102430000604FD1B00000000047A0F080902FB1DC2
:1024400000000000087A0F080607FC1800000000D2
:102450000C6B0F080607001800000000146B0F0833
:102460000202061C000000004A7D0F080802FC1D45
:10247000000000004C7D0F080404FE1B000000005B
:102480000C7A0F080204FF1B00000000107A0F08EE
:102490000605FD1A000000001C6B0F080405FE1A5B
:1024A00000000000246B0F080204FF1B0000000066
:1024B000147A0F080904FB1B000000002C6B0F08A6
:1024C0000903FC1C00000000346B0F080804FC1B0F
:1024D00000000000187A0F080804FC1B0000000030
:1024E0001C7A0F080804FC1B00000000207A0F086B
:1024F0000804FC1B00000000247A0F080A04FB1BE0
:10250000000000003C6B0F080902FB1D00000000EA
:10251000287A0F080E02F91C000000002C7A0F0820
:102520000A04FB1B00000000446B0F080A04FB0EAA
:10253000000000004C6B0F080902FB1000000000B7
:10254000307A0F080E02F91000000000347A0F08EC
:102550000A09FB0D00000000E0320F080918FB0615
:102560000000000014E60D080204FF1B000000003C
:10257000387A0F080904FB1B00000000546B0F0899
:102580000404FE1B000000003C7A0F080903FC1C39
:10259000000000005C6B0F080606FD030000000051
:1025A000646B0F080206FF04000000006C6B0F084C
:1025B0000E05F9010000000014500F080A04FB0684
:1025C00000000000746B0F080205FF060000000009
:1025D0007C6B0F080905FC050000000020500F0867
:1025E0000304FE1B00000000407A0F080904FB05ED
:1025F00000000000846B0F080E04F91B00000000AF
:102600008C6B0F080504FE1B00000000447A0F08C5
:102610000504FE1B00000000487A0F080A06FB05AF
:10262000000000002C500F080A08FB030000000007
:10263000E8430F080A06FB040000000038500F08AA
:102640000604FD1B000000004C7A0F080604FD1B69
:1026500000000000507A0F081211F7090000000076
:1026600098850D080305FD0500000000946B0F0818
:102670000407FE05000000009C6B0F080807FC041F
:1026800000000000A46B0F080505FD1A0000000003
:10269000AC6B0F080305FF1A00000000B46B0F08B5
:1026A0000305FE1A00000000BC6B0F080805FD1AA8
:1026B00000000000C46B0F080407FE0500000000C6
:1026C000CC6B0F0802020608000000004E7D0F08C8
:1026D0000504FE1B00000000547A0F080704FD1BD0
:1026E00000000000587A0F080405FE0600000000F4
:1026F000D46B0F081305F61A00000000F8430F080A
:102700001305FE060000000008440F081302FE0631
:1027100000000000DC6B0F081302FE1D000000002B
:10272000E46B0F081304FE060000000044500F087D
:102730001305FE060000000018440F080E04FE1BDF
:1027400000000000EC6B0F080507FD04000000000E
:10275000F46B0F080607FD0400000000FC6B0F0877
:102760000109FF020000000050500F080607FD0499
:1027700000000000046C0F080507FD0400000000C5
:102780000C6C0F080507FD0400000000146C0F0816
:10279000060AFD01000000005C500F08050AFD015B
:1027A0000000000068500F080907FB04000000004B
:1027B00028440F080307FE04000000001C6C0F08EB
:1027C0000409FE020000000074500F080507FD0414
:1027D00000000000246C0F080507FD040000000045
:1027E0002C6C0F08040505050E000000346C0F0862
:1027F0000404051B0E0000005C7A0F080304051B8F
:102800000E000000607A0F080A0E010C0C00000098
:1028100050FD0E080A0E010C0C0000006CFD0E08A5
:102820000A0E010C0C00000088FD0E080513020CB6
:1028300009000000F4320F08030505050E00000032
:102840003C6C0F08090502050E00000080500F08BF
:102850000F1300070F000000606D0E080303030C48
:1028600009000000647A0F0810130007110000002F
:10287000886D0E081213000714000000B0FB0C084E
:102880000A1300070C000000B06D0E0813130007B8
:1028900014000000ECFB0C081213000712000000EB
:1028A00028FC0C08141300071400000064FC0C083A
:1028B0000815FF05060000000C1C0F080F13000789
:1028C0000F000000D86D0E080C1302070F00000067
:1028D000006E0E080B1302070D000000286E0E0894
:1028E0000F1300070F000000506E0E080B130207B5
:1028F0000E000000786E0E080C1301070E00000099
:10290000A06E0E080D13020711000000C86E0E081D
:102910001013010712000000F06E0E0806130107E5
:102920000900000008330F080D1302070F00000014
:10293000186F0E080F1300070F000000406F0E08FD
:102940000F13020713000000686F0E080D13020733
:1029500011000000906F0E080C1301070E0000001C
:10296000B86F0E081013010712000000E06F0E0888
:102970000D1302071100000008700E080C13020767
:102980000E00000030700E080D1301070E0000004D
:1029900058700E081013FF070F00000080700E081B
:1029A0000E1300070E000000A8700E081013010798
:1029B00013000000D0700E080F1300070F00000076
:1029C000F8700E08101302071400000020710E08A2
:1029D0001113010712000000A0FC0C0806170103E8
:1029E00009000000241C0F080E1700030E00000051
:1029F00044E60D080B1501050E000000482F0E08D7
:102A00000A1501050B000000742F0E080A1A0205B2
:102A10000E000000CC850D0803150205060000001D
:102A20003C1C0F080A1502050E000000A02F0E081E
:102A30000B0E010C0E000000A4FD0E080B1902067F
:102A40000E00000000860D080C13000C0C000000A6
:102A500048710E080C1401060E00000070710E087B
:102A60000A0E010C0B000000C0FD0E080A19010639
:102A70000A00000034860D080A13020C0E00000044
:102A800098710E080C1401060E000000C0710E08AB
:102A9000020E020C0600000038440F080A0E020C59
:102AA0000C000000DCFD0E080C1400060C000000F9
:102AB000E8710E080A13020C0E00000010720E08D6
:102AC0000C0E000C0C000000F8FD0E080B1901069E
:102AD0000B00000068860D080C0E010C0E000000B3
:102AE00014FE0E080A0E020C0E00000030FE0E0846
:102AF0000B13020C0E00000038720E080A13010CB2
:102B00000B00000060720E080E0E010C0F0000009A
:102B10004CFE0E080C0E000C0C00000068FE0E08A7
:102B20000A0E020C0E00000084FE0E081013010CA9
:102B30001200000088720E080C13000C0C0000003C
:102B4000B0720E080E13020C12000000D8720E08AC
:102B5000100E010C12000000A0FE0E080613000764
:102B6000060000001C330F080A1202080E000000C5
:102B700028BC0E080C1501050E000000CC2F0E0815
:102B80000A1502050E000000F82F0E0810150105A9
:102B90001200000024300E080B1402060E00000084
:102BA00000730E080C1402060E00000028730E08B5
:102BB0001213000711000000DCFC0C0816150005BC
:102BC00015000000A4C50C08121700031100000036
:102BD000E85E0C080C1901060E0000009C860D082A
:102BE000100E010C12000000BCFE0E080E13000CAB
:102BF0000E00000050730E081018010712000000AC
:102C000074E60D080C13010C0E00000078730E081A
:102C10000D1801070F000000A4E60D080B13010CAE
:102C20000C000000A0730E080B1302070D0000003B
:102C3000C8730E080813020C0B00000030330F0895
:102C40000F13010710000000F0730E080B140106AB
:102C50000D00000018740E08121800071300000081
:102C6000305F0C080D1900060E000000D0860D081C
:102C70001218020716000000785F0C081213010CEE
:102C80001500000018FD0C080D13010710000000CE
:102C900040740E080A1402060E00000068740E0844
:102CA0000D18020710000000D4E60D080D0E000CF0
:102CB0000D000000D8FE0E080C1301070E000000E6
:102CC00090740E080C1401060E000000B8740E0873
:102CD0000F1300070F000000E0740E080F0E000C29
:102CE0000F000000F4FE0E08101301071200000090
:102CF00008750E080C0E010C0E00000010FF0E08E7
:102D00000C1300070C00000030750E080A140006B2
:102D10000A00000058750E080E0E000C0E00000090
:102D20002CFF0E080C13010C0E00000080750E081D
:102D30000A0E010C0C00000048FF0E080618FF07E1
:102D400007000000541C0F081013010712000000B8
:102D5000A8750E080B0E010C0C00000064FF0E0895
:102D60000B0E000C0C00000080FF0E080A13020777
:102D70000E000000D0750E080B1902060E000000B0
:102D800004870D080E13FF0C0E000000F8750E08E6
:102D90000D1301070F00000020760E080D13010728
:102DA0000F00000048760E080D1301070F00000009
:102DB00070760E080B1902010E00000038870D080E
:102DC0000B1702030E00000004E70D0811130007A3
:102DD0001200000054FD0C080B1902010D00000048
:102DE0006C870D080D1301070F00000098760E0880
:102DF0000C1301070E000000C0760E080613010731
:102E00000900000044330F08061701030900000001
:102E10006C1C0F08081300070A00000058330F0845
:102E2000191300071900000058260C081713020791
:102E30001900000090FD0C0811130007120000009B
:102E4000CCFD0C080D1902010F000000A0870D0831
:102E50000D19020111000000D4870D080E180002A0
:102E60000E00000034E70D080D17020711000000E6
:102E700064E70D080F1300070F000000E8760E0846
:102E80000C1302070F00000010770E080C13020746
:102E90000F00000038770E080B1302070D0000002A
:102EA00060770E08101700071100000094E70D0866
:102EB0000B1302070E00000088770E081613000798
:102EC0001600000008FE0C080C1300070D0000009F
:102ED000B0770E080D13020711000000D8770E0816
:102EE0000D18020211000000C4E70D080D130207BF
:102EF0000F00000000780E080F13000711000000FB
:102F000028780E080F1302071300000050780E08EF
:102F10000D1302071100000078780E081013010746
:102F200012000000A0780E080D1302071100000027
:102F3000C8780E080C1302070E000000F0780E0887
:102F40000D1301070F00000018790E081013FF077A
:102F50000F00000040790E080E1300070E0000005D
:102F600068790E08101301071300000090790E080D
:102F70000F1300070F000000B8790E080E170207A4
:102F800011000000F4E70D080D1301071000000008
:102F9000E0790E08141302071800000044FE0C0824
:102FA0001617020718000000C05F0C081113000775
:102FB0001100000080FE0C0810130207140000002E
:102FC000087A0E080D1302070F000000307A0E0871
:102FD0000D1301070F000000587A0E0815130207A1
:102FE00018000000BCFE0C080D1300070F000000C5
:102FF000807A0E080A0E010C0D0000009CFF0E08DE
:103000000C1401060E000000A87A0E080A0E020C2D
:103010000D000000B8FF0E08080E020C0A000000A8
:1030200048440F080D11000C0E0000004CBC0E08A7
:103030000B0E010C0D000000D4FF0E08120E000C48
:103040001200000050300E080A0E000C0B000000A9
:10305000F0FF0E080A0E020C0E0000000C000F0814
:103060000A1402060E000000D07A0E080A0E020CA6
:103070000C00000028000F080C0E000C0E000000D1
:1030800044000F080C0E020C1000000060000F0836
:103090000A0E020C0E0000007C000F080C0E010C42
:1030A0000E00000098000F080A0E020C0E0000002F
:1030B000B4000F080B13020C0E000000F87A0E0883
:1030C0000A0E010C0C000000D0000F080C0E000CC2
:1030D0000C000000EC000F080C13000C0C000000AA
:1030E000207B0E081219000613000000A4260C080D
:1030F0000C0E000C0C00000008010F080B11020C54
:103100000E00000070BC0E080B0E010C0E0000003B
:1031100024010F08100E010C1300000040010F08DD
:103120001111020C1400000008880D080D0E000C8F
:103130000E0000005C010F080D0E020C11000000D3
:1031400078010F080A0E020C0D00000094010F0810
:103150000A0E010C0C000000B0010F08100E020C4A
:1031600013000000CC010F080B0E000C0D00000036
:10317000E8010F080B1501050D0000007C300E085A
:103180000B1201080D00000094BC0E080C1900067B
:103190000E0000003C880D08081502050A0000001A
:1031A000841C0F080A0E010C0C00000004020F081A
:1031B0000A0E010C0B00000020020F080213020788
:1031C000060000006C330F0806130007060000001D
:1031D00080330F080618FF07070000009C1C0F082B
:1031E000140E000C15000000A8300E08120E020C80
:1031F00015000000D4300E080C1400060E0000006C
:10320000487B0E080A1502050C00000000310E086C
:103210000A1502050E0000002C310E080C190006DC
:103220000C00000070880D080A11020C0E0000004E
:10323000B8BC0E081B1301071D000000F0260C0887
:10324000120E000C1200000058310E081013000777
:1032500011000000707B0E080D1400060E00000027
:10326000987B0E081213020715000000F8FE0C08E8
:103270000E0E020C110000003C020F080F13000795
:103280000F000000C07B0E080C0E000C0C000000AC
:1032900058020F08121302071400000034FF0C0834
:1032A0000F0E020C1100000074020F081413000727
:1032B0001400000070FF0C080F0E000C0F0000003F
:1032C00090020F081713020719000000ACFF0C084A
:1032D000130E020C1500000084310E080B1E0101B4
:1032E0000D000000E8FF0C080A1A00050B000000A2
:1032F000A4880D081013020714000000E87B0E08D4
:103300000E13020C12000000107C0E0810130107AF
:1033100012000000387C0E080C0E010C0E0000009C
:10332000AC020F08131300071200000024000D0860
:10333000100E000C0F000000C8020F081319000146
:10334000120000003C270C08101500050F000000BB
:10335000B0310E081C1801071D000000E8890B0899
:103360001813010C1900000060000D081315010668
:1033700015000000E4C50C080F10010B110000003F
:1033800038E10E08151901011700000088270C0804
:10339000111701031300000008600C081B1701033C
:1033A0001D00000028C80B081212000812000000BF
:1033B000D83E0D080D1801070F00000024E80D0885
:1033C0000A13010C0C000000607C0E080C130007AF
:1033D0000C000000887C0E080805030600000000B1
:1033E000446C0F0809030207000000004C6C0F0832
:1033F0000205060600000000546C0F0802050606D0
:10340000000000005C6C0F080A04030610000000B6
:10341000646C0F081816F40800000000F89E0C08F1
:103420001818F4070000000050600C080F1C02027E
:1034300011000000103F0D080C1702060E000000DE
:1034400054E80D080F1300070F000000B07C0E08B1
:103450000C1400060D000000D87C0E080D130207A6
:103460000E000000007D0E080C13020C0E00000080
:10347000287D0E080B1802020D00000084E80D08DC
:10348000081302070A00000094330F080C13010709
:103490000D000000507D0E08090E010C0A0000000E
:1034A000E4020F080B1802070E000000B4E80D0834
:1034B0000A13020C0D000000787D0E081617000795
:1034C0001700000098600C081211000C1300000097
:1034D000D8880D080C1800070D000000E4E80D085E
:1034E0000A13000C0B000000A07D0E080E17020747
:1034F0001000000014E90D080A11020C0D00000074
:10350000DCBC0E080D1302070F000000C87D0E087A
:103510000A0E020C0C00000000030F080F13000736
:103520000F000000F07D0E080C1400060C000000D7
:10353000187E0E0812130007120000009C000D08F0
:103540000E0E000C0E0000001C030F080F170207E0
:103550001100000044E90D080B11020C0E000000E0
:1035600000BD0E081213020714000000D8000D0859
:103570000E0E020C1000000038030F081618020788
:1035800019000000E0600C081213020C1500000086
:1035900014010D08111401071200000050010D085C
:1035A0000D0F010C0E00000058E10E080D18010768
:1035B0000F00000074E90D080A13010C0C00000054
:1035C000407E0E081017FF070F000000A4E90D0849
:1035D0000C11000C0C00000024BD0E080E13000797
:1035E0000E000000687E0E080C13000C0C0000009A
:1035F000907E0E080E1300070E000000B87E0E0825
:103600000C13000C0C000000E07E0E080F170007E2
:103610000F000000D4E90D080C11000C0D00000093
:1036200048BD0E08131700071400000028610C089D
:103630000F11000C100000006CBD0E080F170107E1
:103640001000000004EA0D080C11010C0E0000002F
:1036500090BD0E080D13010710000000087F0E0832
:103660000B0E010C0E00000054030F080C13020790
:1036700010000000307F0E080A1402060E00000041
:10368000587F0E0814130007150000008C010D0868
:103690000F0E000C1000000070030F081417000735
:1036A0001500000070610C080F11000C10000000E4
:1036B000B4BD0E080613010709000000A8330F0867
:1036C0001619000116000000D4270C081214000679
:1036D00012000000C8010D080C1802070F000000BE
:1036E00034EA0D080913020C0C000000807F0E085C
:1036F0001117000711000000B8610C080E11000C32
:103700000E000000D8BD0E080D18020711000000C1
:1037100064EA0D080A13020C0E000000A87F0E08D0
:103720000F1702071100000094EA0D080C11020C9B
:103730000E000000FCBD0E080D1701071000000070
:10374000C4EA0D080B11010C0E00000020BE0E088B
:10375000111702071300000000620C080E11020C82
:103760001000000044BE0E0802140206060000000D
:10377000BC330F080F1900010F0000000C890D0861
:103780000A1401060D000000D07F0E080F16000479
:103790000F000000DC310E080A1201080D000000C5
:1037A00068BE0E08161300071700000004020D087B
:1037B000140E010C1600000008320E080B1902014D
:1037C0000E00000040890D080B1401060D000000DA
:1037D000F87F0E08101301071200000020800E0869
:1037E0000B0E010C0D0000008C030F0810160104D5
:1037F0001200000034320E080B1201080D00000008
:103800008CBE0E0816160004160000003C9F0C0823
:103810001212000812000000483F0D080C160004A8
:103820000D00000060320E080A1200080B000000B4
:10383000B0BE0E080C1300070D00000048800E08F3
:103840000A13000C0B00000070800E080D17020315
:1038500011000000F4EA0D080A1302070E00000030
:1038600098800E080D160204110000008C320E081C
:103870000A1202080E000000D4BE0E081017010341
:103880001200000024EB0D080C1201080E000000CD
:10389000F8BE0E081013010712000000C0800E08C9
:1038A0000C0E010C0E000000A8030F0810170103F6
:1038B0001200000054EB0D080C1201080E0000006D
:1038C0001CBF0E080D1601040F000000B8320E08D0
:1038D0000A1201080C00000040BF0E080E1700037A
:1038E0000E00000084EB0D080C1800070C0000000F
:1038F000B4EB0D080E1600040E000000E4320E08B2
:103900000C1700080C000000E4EB0D080E19000174
:103910000E00000074890D080C1A00050C00000050
:10392000A8890D080D1601041000000010330E08C0
:103930000B1201080E00000064BF0E080B170207EF
:103940000D00000014EC0D080812020C0A00000023
:10395000D0330F0810160204140000003C330E0888
:103960000D1202081100000088BF0E080D18000794
:103970000D00000044EC0D080A13000C0A000000C2
:10398000E8800E08101800070F00000074EC0D0806
:103990000C13000C0C00000010810E080F13000720
:1039A0000F00000038810E080C0E000C0C00000007
:1039B000C4030F080D1300070F00000060810E08FC
:1039C0000B1401060E00000088810E081513000775
:1039D0001700000040020D08131401061600000035
:1039E0007C020D081413010717000000B8020D082F
:1039F000120E010C1500000068330E080E170107A7
:103A00000F000000A4EC0D080B11010C0D000000CC
:103A1000ACBF0E081713000719000000F4020D08D0
:103A2000140E000C1600000094330E081513020744
:103A30001900000030030D08120E020C16000000E1
:103A4000C0330E080F13010711000000B0810E08EB
:103A50000B0E010C0D000000E0030F08111300070E
:103A6000130000006C030D080F0E000C1100000085
:103A7000FC030F080C1301070D000000D8810E088D
:103A80000A0E010C0B00000018040F080F180007A5
:103A900011000000D4EC0D080C13000C0E00000007
:103AA00000820E08101801071200000004ED0D0836
:103AB0000B13010C0E00000028820E0817130007DC
:103AC00017000000A8030D08130E000C13000000DF
:103AD000EC330E08101302071200000050820E088B
:103AE0000D1302071000000078820E081013000763
:103AF00010000000A0820E08111300071100000042
:103B0000E4030D080D13020710000000C8820E0820
:103B10000D1301070F000000F0820E080C130207BE
:103B20000F00000018830E080D130207100000009C
:103B300040830E08121302071400000020040D0831
:103B40000F1301071000000068830E080C13020712
:103B50000F00000090830E080A1302070C000000FB
:103B6000B8830E0812130207160000005C040D084B
:103B70001013000710000000E0830E080C1302076A
:103B80001000000008840E080B1301070D00000050
:103B900030840E080E1300070F00000058840E0832
:103BA000111300071100000098040D080D130207FF
:103BB0001100000080840E0810130207120000009C
:103BC000A8840E080E13010710000000D0840E0810
:103BD0001013000711000000F8840E080D130107F0
:103BE0000F00000020850E080C13020710000000D3
:103BF00048850E080D1301070F00000070850E08A0
:103C00000F1300071100000098850E080D1301071F
:103C10000F000000C0850E081013020712000000FC
:103C2000E8850E080C1302071000000010860E082D
:103C30001113000711000000D4040D080F13000732
:103C40001000000038860E080C1302070F00000059
:103C500060860E080F1301071100000088860E0809
:103C60000A1302070D000000B0860E0810130107AA
:103C700013000000D8860E080E1300070F00000086
:103C800000870E08101301071200000028870E0895
:103C90000F1300071000000050870E0802050106F0
:103CA000050000006C6C0F0802050106050000000D
:103CB000746C0F0805050106080000007C6C0F08F5
:103CC000070A0106090000008C500F0805050106CF
:103CD00008000000846C0F080706010609000000B8
:103CE0008C6C0F080A0601030C00000098500F08A6
:103CF000110E020C1500000018340E080A13020CF5
:103D00000E00000078870E080E13010C0F00000053
:103D1000A0870E080D13020C0F000000C8870E08C4
:103D20000A1402060E000000F0870E080E13010CA4
:103D30000F00000018880E080A1402060D0000008B
:103D400040880E080A13020C0E00000068880E0856
:103D50000F13020C1100000090880E080E140106CB
:103D60000F000000B8880E080A1902060E000000B5
:103D7000DC890D080613020C08000000E4330F086C
:103D8000121902061600000020280C080D14010666
:103D90000E000000E0880E080A1902060E0000005E
:103DA000108A0D080A1402060E00000008890E0889
:103DB0000A1401060C00000030890E080D13020CD5
:103DC0000F00000058890E080B1401060C000000BB
:103DD00080890E080D1402060F000000A8890E0845
:103DE0000613000C08000000F8330F080D1400063D
:103DF0000F000000D0890E080A13000C0B00000011
:103E0000F8890E080A0E020C0E00000034040F0898
:103E10000A13000C0B000000208A0E081113020C7C
:103E20001500000010050D080B13000C0C0000001D
:103E3000488A0E080B0E020C0E00000050040F08FA
:103E40000A0E020C0E0000006C040F080D19020689
:103E50000F000000448A0D08110E020C150000002E
:103E600044340E080A13020C0E000000708A0E087B
:103E70000B13010C0E000000988A0E08080E020CAD
:103E80000A00000058440F0811190206150000002E
:103E90006C280C080E13000C0F000000C08A0E08DE
:103EA0000C0E010C0E00000088040F08101900060B
:103EB00011000000788A0D080D1402060F000000A2
:103EC000E88A0E08030E030C0900000068440F087E
:103ED0000703011009000000687A0F080505FE1AA3
:103EE00000000000946C0F080803FC0600000000AE
:103EF0006C7A0F080306FE03000000009C6C0F089C
:103F00000205FF0400000000A46C0F080405FE0475
:103F100000000000AC6C0F080405FE1A0000000051
:103F2000B46C0F080303FF0600000000707A0F084E
:103F30000704FC0500000000747A0F080405FC0467
:103F400000000000BC6C0F080303001B0000000011
:103F5000787A0F080405FE1A00000000C46C0F08F0
:103F60000405FE0400000000CC6C0F0804050004EA
:103F700000000000D46C0F080805FC0400000000DD
:103F8000DC6C0F080E06F90300000000A4500F08B7
:103F90000606000300000000E46C0F080405FE04A0
:103FA00000000000EC6C0F080505FE1A0000000080
:103FB000F46C0F080304FF1B000000007C7A0F085C
:103FC0000303FE1B00000000807A0F080405FE1AA0
:103FD00000000000FC6C0F080805FC1A000000003F
:103FE000046D0F080305FE1A000000000C6D0F0899
:103FF0000405FE0400000000146D0F080606FA0315
:10400000000000001C6D0F080505FE1A00000000EE
:10401000246D0F080303FE0600000000847A0F08D9
:104020000304FF0500000000887A0F080405001A49
:10403000000000002C6D0F080704F90500000000C7
:104040008C7A0F080303FE0600000000907A0F0828
:104050000205061A00000000346D0F080805031A57
:10406000000000003C6D0F080605041A0000000067
:10407000446D0F080605041A000000004C6D0F087F
:104080000202061B00000000507D0F080502041B01
:1040900000000000527D0F080505051A0000000011
:1040A000546D0F080301051B00000000C37D0F08BD
:1040B0000503041B00000000947A0F0802020608A2
:1040C00000000000547D0F080202030700000000FA
:1040D000567D0F080805031A000000005C6D0F08EC
:1040E0000202061200000000587D0F080103061BA3
:1040F00000000000987A0F080602020B0A00000078
:104100005A7D0F080301050800000000C47D0F0858
:1041100002130209060000000C340F080202060810
:10412000000000005C7D0F080202FF080000000094
:104130005E7D0F08030F030B0900000078440F0891
:104140000202010700000000607D0F080202FF1C50
:1041500000000000627D0F080710020A0A0000003C
:1041600088440F080504FD1B000000009C7A0F081E
:104170000D0F020B1100000078E10E080E0F010B6D
:104180001000000098E10E080C0F000B0C0000005E
:10419000B8E10E080D0F010B0F000000D8E10E086A
:1041A0000D0F020B11000000F8E10E08050F000BC7
:1041B0000700000098440F08070F010B08000000DB
:1041C000A8440F080D0F020B1100000018E20E08A2
:1041D0000D0F020B1100000038E20E080508000B5D
:1041E00007000000646D0F080E14000B10000000A3
:1041F000108B0E080D0F010B1000000058E20E0886
:104200000D14010610000000388B0E080D0F020B74
:104210001100000078E20E080E0F010B11000000E3
:1042200098E20E080714000B0900000020340F0864
:10423000070F010B0A000000B8440F08100F000B15
:1042400012000000B8E20E080D11010B1000000072
:10425000D0BF0E080E14010B11000000608B0E0879
:104260000D0F010B10000000D8E20E080B14000B1C
:104270000C000000888B0E080D0F010B0F000000D2
:10428000F8E20E080D14020B11000000B08B0E08AE
:104290000C0F000B0E00000018E30E08110F020BAC
:1042A0001400000034ED0D08100F000B1200000088
:1042B00038E30E080C0F000B0E00000058E30E0848
:1042C0000C0F000B0E00000078E30E080C08000B2A
:1042D0000E000000C8440F08050701060500000095
:1042E0006C6D0F080A0701060A000000D8440F0889
:1042F0001205011A14000000E8440F082505011AF0
:1043000027000000A4040F081D0700181E0000006D
:10431000C0040F081707011819000000B41C0F088B
:10432000101701081200000064ED0D0803070313C5
:1043300009000000746D0F0807070118080000004D
:104340007C6D0F081D0701131D000000DC040F0821
:104350000C12010D0F000000F4BF0E080705FC024F
:1043600000000000846D0F080705FC02000000003B
:104370008C6D0F080706FC0200000000946D0F080A
:104380000907FB0100000000F8440F080904FC02C3
:10439000000000009C6D0F080607011300000000DC
:1043A000A46D0F08030E030C0900000008450F0858
:1043B0000605011508000000AC6D0F080A1301077F
:1043C0000C000000D88B0E08070901110A0000003C
:1043D000B0500F080616000406000000CC1C0F08A1
:1043E0000419010106000000F8040F080915000A6D
:1043F0000A00000070340E080418010706000000CF
:10440000E41C0F08140F010B1600000094ED0D08BA
:10441000021302070600000034340F08120C0112C8
:104420001400000018C00E080A1101090C00000059
:104430003CC00E08120C010E1400000060C00E08F3
:10444000120F010B14000000C4ED0D080C11010E39
:104450000F00000084C00E080C11010E0F000000B8
:10446000A8C00E080C14010B0F000000008C0E08F1
:104470000A0C010E0C000000FC1C0F080A10010AB7
:104480000C00000098E30E08080B0014090000005F
:10449000BC500F080810000F0900000018450F0855
:1044A0001C0E01111E000000803F0D081C14010BA2
:1044B0001E000000F40F0C081B0F01101D0000006F
:1044C0004C050D081B14010B1D00000044100C08C6
:1044D0001113FF071100000088050D081113FF07D5
:1044E00011000000C4050D080C12010D0F000000A2
:1044F000CCC00E080C1601090F0000009C340E08F9
:104500000702FF1806000000647D0F08141201085E
:1045100016000000B83F0D08141501071600000032
:1045200024C60C080F13010712000000288C0E0887
:104530000D13010710000000508C0E08100EFE1124
:104540000F00000014050F080F0E010C11000000F1
:1045500030050F080A0C010E0C000000141D0F0896
:10456000090F00100A000000B8E30E08140E010C39
:1045700016000000C8340E081412010C16000000CA
:10458000F03F0D080704000500000000A07A0F08A6
:104590000805000100000000B46D0F080704001AB0
:1045A00000000000A47A0F080702000400000000C9
:1045B000667D0F080605000100000000BC6D0F08B5
:1045C0000702001C00000000687D0F0807050101BC
:1045D00000000000C46D0F08050500020000000087
:1045E000CC6D0F0806020004000000006A7D0F0871
:1045F0000404010200000000A87A0F080404011B53
:1046000000000000AC7A0F080105FF1A000000004E
:10461000D46D0F080605FD0100000000DC6D0F08D9
:104620000403FE0300000000B07A0F080501FD0935
:1046300000000000C57D0F08050300040000000015
:10464000B47A0F080704000300000000B87A0F08CE
:104650000202FF1C000000006C7D0F08060500012F
:1046600000000000E46D0F080503000300000000D7
:10467000BC7A0F080707040E0E000000EC6D0F084F
:10468000051104090E00000048340F080C1101093F
:104690000E000000F0C00E080D1100090E00000011
:1046A00014C10E080B1102090E00000038C10E08DB
:1046B0000D0E010C0E0000004C050F080C11010935
:1046C0000E0000005CC10E080D1101090E00000073
:1046D00080C10E080D1101090E000000A4C10E08D2
:1046E0000C1102090E000000C8C10E080D110109CD
:1046F0000E000000ECC10E080307031709000000BC
:10470000F46D0F080307031309000000FC6D0F0888
:104710000C0C010C0E0000002C1D0F0812080112D9
:1047200014000000441D0F081410010C16000000B6
:10473000F4ED0D080108FF0100000000046E0F08F1
:1047400006180002060000005C1D0F080618000293
:1047500006000000741D0F08061800070600000080
:104760008C1D0F080404010206000000C07A0F0827
:1047700007130207060000005C340F080A15000A40
:104780000A000000F4340E080B15FF0A0A000000AE
:1047900020350E08161401061600000000060D084C
:1047A0001211010914000000AC8A0D08120F010B50
:1047B0001400000024EE0D08120D01121400000078
:1047C000788C0E081210010E1400000054EE0D0833
:1047D000120E010C140000004C350E08120D0112CF
:1047E00014000000A08C0E08120F010B1400000032
:1047F00084EE0D08120D011214000000C88C0E0882
:104800000C1701080F000000B4EE0D080C1801078A
:104810000F000000E4EE0D080C11010E0F00000067
:1048200010C20E080C11010E0F00000034C20E0859
:104830000C1801070F00000014EF0D080C11010EF9
:104840000F00000058C20E080C11010E0F000000EE
:104850007CC20E080A1501050C00000078350E0810
:104860000A10010E0C000000D8E30E080A10010E19
:104870000C000000F8E30E080A1901050C00000006
:10488000E08A0D080A10010A0C00000018E40E0866
:104890000A10010E0C00000038E40E080A1301078C
:1048A0000C000000F08C0E080A1301070C00000039
:1048B000188D0E080A1301070C000000408D0E0829
:1048C0000816000909000000A41D0F080811000EB9
:1048D0000900000070340F080B0B001409000000E1
:1048E000BC1D0F08090B001409000000D41D0F089F
:1048F0000C0B001409000000EC1D0F08090B00143C
:1049000009000000041E0F080810000F0900000035
:1049100028450F080813000C0900000084340F0814
:104920000813000C0900000098340F081C11010E38
:104930001E000000809F0C081C0E01111E000000CC
:1049400028400D081C14010B1E00000094100C08D8
:104950001B0F01101D0000003C060D081B1701086D
:104960001D00000084C80B081113FF071100000090
:1049700078060D080C1901060F000000148B0D08B5
:10498000140E010C16000000A4350E081412010CC0
:104990001600000060400D08141601081600000003
:1049A000C49F0C08141501051600000064C60C080D
:1049B0001413010C16000000B4060D0814150105AF
:1049C00016000000A4C60C0814140108160000000C
:1049D000F0060D08141701051600000048620C08C7
:1049E00014130107170000002C070D081E0C010E00
:1049F0001F00000044EF0D0814130107170000000A
:104A000068070D080F13010712000000688D0E08DB
:104A10000F16010412000000D0350E080F18010710
:104A20001200000074EF0D081416010417000000B6
:104A300008A00C0814160104170000004CA00C0874
:104A4000141601041700000090A00C08141A0104A9
:104A500017000000E4100C08141B010417000000EC
:104A6000D0F10B081419010117000000B8280C0838
:104A70000F17010310000000A4EF0D080D1601042C
:104A800010000000FC350E080F1901011000000095
:104A9000488B0D080D18010710000000D4EF0D0819
:104AA0000F12010C11000000A0C20E080F0A011025
:104AB00011000000AC340F080F13010711000000B3
:104AC000908D0E080F12010C11000000C4C20E08D8
:104AD0000F11010911000000E8C20E08110DFF0DB1
:104AE00011000000B88D0E080C14010B0F0000001F
:104AF000E08D0E080A1201080C0000000CC30E081D
:104B00000C0801140D00000038450F080C10010CB2
:104B10000D00000058E40E080C0E010E0D00000000
:104B200068050F08090F00100A00000078E40E085D
:104B3000090E00110A00000084050F080913000C7B
:104B40000A000000088E0E08091700080A0000007D
:104B500004F00D08091900060A0000007C8B0D08FE
:104B60000914000B0A000000308E0E080913000C17
:104B70000A000000588E0E08091600090A000000FD
:104B800028360E08140E010C1600000054360E08CC
:104B9000160E000C1700000080360E08140E010CD3
:104BA00016000000AC360E080913000C0A000000C5
:104BB000808E0E081413010C16000000A4070D08C7
:104BC0001413010C16000000E0070D08170B00136A
:104BD0001700000030C30E081712000C1700000069
:104BE00098400D0806020018060000006E7D0F08B0
:104BF0000A0C010E0C0000001C1E0F080B09FB0222
:104C000000000000C0340F080C09FA020000000088
:104C1000D4340F080504FE0500000000C47A0F0814
:104C20000708FD02000000000C6E0F080507FE05D6
:104C300000000000146E0F080302FF0700000000D0
:104C4000707D0F080C05FA0600000000C8500F0820
:104C50001A1B01041C000000503C0B081B1B000425
:104C600000000000BC3C0B080202FF07000000002F
:104C7000727D0F080202FF0700000000747D0F081C
:104C80000704FD0500000000C87A0F080706FC05B0
:104C9000000000001C6E0F080C05FA1A000000004E
:104CA000D4500F080403FF0100000000CC7A0F0865
:104CB0000505000606000000246E0F080905000720
:104CC0000A000000E0500F080905FB070000000083
:104CD000EC500F080606FD03000000002C6E0F08C4
:104CE0001114FF060F0000001C080D080505FE1A30
:104CF00000000000346E0F080505FE0500000000EE
:104D00003C6E0F080202FF0700000000767D0F08CE
:104D10000706FC1900000000446E0F080A11010983
:104D20000C00000054C30E080912000D0900000019
:104D300078C30E080707040E0E0000004C6E0F0823
:104D4000051104090E000000E8340F080C110109D8
:104D50000E0000009CC30E080D1100090E0000009B
:104D6000C0C30E080C10010A0E00000098E40E08E3
:104D70000D1100090E000000E4C30E08090F030B1B
:104D80000E000000B8E40E080D1101090E0000002D
:104D900008C40E080D1101090E0000002CC40E08F5
:104DA0000C1102090E00000050C40E081C14010B67
:104DB0001E00000034110C081B14010B1D00000024
:104DC00084110C080C1601090F000000D8360E08DB
:104DD000080D01110A00000048450F080E0E0011D1
:104DE0000F000000A0050F081114FF0611000000BD
:104DF00058080D08120C01121400000074C40E08AB
:104E00001213010B1400000094080D08120D01127A
:104E100014000000A88E0E081211010E14000000EC
:104E2000B08B0D081210010E1400000034F00D08B4
:104E3000120D011214000000D08E0E08120C010E8B
:104E40001400000098C40E080C15010A0F000000A1
:104E500004370E080C11010E0F000000BCC40E0830
:104E60000A1A01050C000000E48B0D080A11010E5E
:104E70000C000000E0C40E080A0B0014090000003A
:104E8000341E0F081C14010B1E000000D4110C0866
:104E90000C1601090F00000030370E080C1801072E
:104EA0000F00000064F00D080C1901060F0000004F
:104EB000188C0D081412010C16000000D0400D08CB
:104EC0001413010C16000000D0080D08141301077C
:104ED000170000000C090D0814160104170000004B
:104EE000D4A00C08141801071700000090620C08E9
:104EF0001013FE0C0F000000F88E0E08100EFE11AD
:104F00000F000000BC050F080F12010C110000007B
:104F100004C50E080F13010711000000208F0E08B2
:104F20000F0E010C11000000D8050F081113010726
:104F30001000000048090D080813000C09000000CB
:104F4000FC340F080812000D0900000010350F088E
:104F50001C14010B1E00000024120C080B0E020C86
:104F60000F000000F4050F080D0E000C0F000000EC
:104F700010060F080E0E000C100000002C060F0883
:104F80000C0E010C0F00000048060F080C0E010C5F
:104F90000F00000064060F080F0E000C1100000047
:104FA00080060F080A0E000C0C0000009C060F087B
:104FB0000B0E010C0E000000B8060F080D0E010CC0
:104FC00010000000D4060F080F10000A10000000A7
:104FD000D8E40E081010000A11000000F8E40E08D2
:104FE000120E020C160000005C370E081113020CA2
:104FF0001500000084090D080E13000C10000000BD
:10500000488F0E080E13000C10000000708F0E0861
:105010000B13010C0E000000988F0E08120E000CEE
:105020001400000088370E08130E010C1600000053
:10503000B4370E08120E020C15000000E0370E08FF
:105040000C0E010C0F000000F0060F080C0E010CF6
:105050000F0000000C070F080B0E020C0F000000E1
:1050600028070F080E0E020C1200000044070F085C
:105070000B0E010C0E00000060070F080C0E020C56
:105080000F0000007C070F080C0E020C100000003F
:1050900098070F080C14020610000000C08F0E08BD
:1050A0000B0E020C10000000B4070F080B140206D0
:1050B00010000000E88F0E080E0E000C1200000019
:1050C000D0070F080E1400061100000010900E0803
:1050D0000D0E010C10000000EC070F080B0E020C67
:1050E0000F00000008080F080A0E020C0E00000056
:1050F00024080F08090E010C0B00000040080F08DF
:105100000A11020C0E00000028C50E080B0E020C3E
:105110000F0000005C080F080D11010C10000000CA
:105120004CC50E08090E010C0C00000078080F0891
:105130000D0F010B0F00000018E50E08100E020CF9
:105140001300000094080F080C0F020B0F00000062
:1051500038E50E080F0E000C11000000B0080F0813
:105160001113000712000000C0090D080B0E020CFD
:105170000F000000CC080F080C0F020B0F000000FE
:1051800058E50E080A0E010C0D000000E8080F0893
:10519000080E020C0B00000058450F080A05F8061F
:1051A00000000000F8500F08090E010C0C00000070
:1051B00004090F080F12FB080C00000070C50E0850
:1051C0000A04F30700000000546E0F080A05F306F6
:1051D0000000000004510F080A05F306000000005B
:1051E00010510F080A05F306000000001C510F08BB
:1051F0000304FB1B00000000D07A0F080704F71B14
:1052000000000000D47A0F080202FC1B000000001E
:10521000787D0F080C1602060F0000000C380E08EF
:10522000050E020C0800000068450F080C0E020C69
:105230000F00000020090F080A1401060C000000EE
:1052400038900E08091401060B00000060900E084B
:105250000C1400060D00000088900E080911010CC6
:105260000C00000094C50E080911010C0C00000090
:10527000B8C50E080807F604000000005C6E0F08B1
:105280000104FC0700000000D87A0F080704F707A4
:1052900000000000DC7A0F080904F7070000000096
:1052A000646E0F080303FC0800000000E07A0F089A
:1052B0000705F906000000006C6E0F080404FB08E7
:1052C00000000000E47A0F080507FA010000000062
:1052D000746E0F080C0C010E0F0000004C1E0F081E
:1052E0000C0B010F0F000000641E0F080D0B010FC7
:1052F000100000007C1E0F080D0E020C11000000B3
:105300003C090F080E0B010F11000000941E0F083E
:10531000110F010B1200000094F00D08110F010B8A
:1053200012000000C4F00D080E0F000B100000006A
:1053300078E50E08100E010C1300000058090F0844
:10534000100F010B1300000098E50E08100E010C61
:105350001200000074090F080E0E010C110000006D
:1053600090090F08170C020E1B000000DCC50E0888
:105370000D0E000C0C000000AC090F08110E000C03
:105380001200000038380E08140E010C1600000040
:1053900064380E080C0E010C0D000000C8090F083F
:1053A0000A0E010C0C000000E4090F080B0E020CA1
:1053B0000E000000000A0F080C0E010C0E00000089
:1053C0001C0A0F08080E020C0B00000078450F089D
:1053D0000A0E000C0B000000380A0F080212020C23
:1053E0000600000024350F08070E000C090000001D
:1053F00088450F080A0E020C0C000000540A0F0822
:10540000090E010C0B000000700A0F080C0E020CB4
:10541000100000008C0A0F080A0E020C0E0000009B
:10542000A80A0F080C0E010C0E000000C40A0F0899
:105430000A0E010C0C000000E00A0F080E0C010D12
:1054400010000000AC1E0F080E0A010E1000000034
:1054500038350F08100C000D10000000C41E0F0896
:10546000150E010C1700000090380E08090E010CF3
:105470000B000000FC0A0F080C07010C0E000000D6
:1054800098450F080C0701130E000000A8450F08EF
:105490000A0E020C0D000000180B0F080B0E000C7A
:1054A0000D000000340B0F080B0E000C0D00000067
:1054B000500B0F080C0E000C0C0000006C0B0F08BA
:1054C0000A0E020C0E000000880B0F080D0B020ED6
:1054D00011000000DC1E0F08110B010E140000006B
:1054E00000C60E080E12040A1500000024C60E089D
:1054F0000C0E000C0C000000A40B0F08130E000C87
:1055000013000000BC380E08090E010C0B0000004F
:10551000C00B0F08090E010C0B000000DC0B0F087C
:105520000B0E010C0D000000F80B0F080F0E000C05
:105530000F000000140C0F08080E020C0A000000F7
:10554000B8450F080D0E000C0C000000300C0F08C1
:105550000A0E020C0E0000004C0C0F080A0E020C82
:105560000D000000680C0F080E0E020C1200000067
:10557000840C0F080C0E000C0E000000A00C0F088D
:105580000B0D00080A000000BC0C0F08100D0008ED
:1055900010000000D80C0F08090D01080A000000D7
:1055A000F40C0F080B0D00080A000000100D0F0886
:1055B0000A0D01080C0000002C0D0F08080D010851
:1055C0000A000000C8450F08080D01080A00000085
:1055D000D8450F080B0D01080C000000480D0F08FE
:1055E0000A0D01080B000000640D0F08060D0108EC
:1055F00007000000E8450F08070D0008080000003C
:10560000F8450F08090D01080A000000800D0F0879
:10561000070D01080900000008460F080B0D0108DE
:105620000D0000009C0D0F080A0D01080B00000082
:10563000B80D0F080A0D01080B000000D40D0F086B
:105640000B0D01080D000000F00D0F08090D0108F9
:105650000A0000000C0E0F08080D01080A000000E7
:1056600018460F080A0D01080B000000280E0F084D
:105670000A0D01080C000000440E0F080A0D010875
:105680000B000000600E0F080F0D00080F00000057
:105690007C0E0F080809010C0900000028510F08B2
:1056A0000809010C0900000034510F080909010C18
:1056B0000A0000004C350F080F09000C1000000014
:1056C00060350F08090D01080A000000980E0F0848
:1056D000090D01080A000000B40E0F080909010CA9
:1056E0000A00000074350F080909000C0A000000C8
:1056F00088350F080709010C0900000040510F0808
:105700000709010C090000004C510F08090C010C9D
:105710000A000000F41E0F08020C010C0400000037
:1057200058510F08090D010809000000D00E0F089C
:105730000E09000C0E0000009C350F08080C010C2F
:105740000A00000064510F080909010C0A0000005A
:10575000B0350F080709010C0900000070510F084F
:105760000905010C0A0000007C510F080905011011
:105770000A00000088510F08090C010C0A00000003
:105780000C1F0F08060C01090700000094510F08B8
:105790000809010C0A000000A0510F080908010CBB
:1057A0000B00000028460F080E09000C0E00000038
:1057B000C4350F080909000C08000000D8350F088F
:1057C0000A09000C0A000000EC350F080910010856
:1057D0000A000000B8E50E08080D000C08000000E3
:1057E00038460F08090D01080A000000EC0E0F08EA
:1057F0000C0C010C0D000000241F0F08090C000CFC
:10580000080000003C1F0F08020C011004000000FB
:10581000AC510F080509011306000000B8510F082C
:10582000080901130A000000C4510F0809090013F8
:105830000800000000360F080910010F0A000000E0
:10584000D8E50E08080C001308000000D0510F081E
:10585000090C01130A000000541F0F080C0D01125F
:105860000D000000080F0F08090C001308000000CD
:105870006C1F0F08130E020C16000000E8380E080B
:105880000F14FE060E000000B0900E080F14010663
:105890000E000000D8900E080B14FE060800000051
:1058A00000910E08170EFF0C1500000014390E08A9
:1058B000100EFF0C0E000000240F0F080F13FE0C3B
:1058C0000E00000028910E080B0EFE0C09000000CF
:1058D000400F0F080B0EFE0C090000005C0F0F08B4
:1058E000100EFE0C0C000000780F0F080A12FE08C4
:1058F0000800000048C60E080E0EFF0C0B0000004A
:10590000940F0F080B13020C0E00000050910E08AC
:10591000090C01070B000000841F0F080B13010C7A
:105920000D00000078910E08141600061600000005
:1059300018A10C08090E000C09000000B00F0F0898
:10594000090EFF0C06000000CC0F0F080D13010C10
:105950000E000000A0910E080D0E010C0E000000BC
:10596000E80F0F08100E000C1000000004100F08C4
:105970000B1902060E0000004C8C0D080D190106D3
:105980000E000000808C0D080919000608000000B8
:10599000B48C0D081213010C0E000000FC090D0858
:1059A0000B1902060C000000E88C0D080619000611
:1059B0000600000020100F081413010C1500000051
:1059C000380A0D080C13020C0E000000C8910E08D6
:1059D0000B13020C0E000000F0910E080913000CCE
:1059E0000900000018920E080C13010C0B000000B7
:1059F00040920E080E1901060E0000001C8D0D08C5
:105A00000D13000C0D00000068920E080C13000C22
:105A10000C00000090920E080913010C0B0000000E
:105A2000B8920E080E13010C0D000000E0920E0853
:105A30000F13010C0E00000008930E081019010648
:105A40000E000000508D0D080F13010C0D0000001A
:105A500030930E080E13010C0B00000058930E0833
:105A60000A13000C0B00000080930E08130E010CAB
:105A70000D00000040390E0808180207060000005B
:105A80009C1F0F080A13010C0C000000A8930E08BD
:105A90000C1901060E000000848D0D080E13020C77
:105AA0000E000000D0930E080A13000C0B0000003B
:105AB000F8930E080809010C0A000000DC510F08D9
:105AC0000709010C09000000E8510F080809000C43
:105AD00009000000F4510F08080D01080A00000039
