:020000040800F2
:10000000D0D50020E94B0F08B5D30A08CFD30A0892
:10001000E9D30A0803D40A081DD40A080000000026
:10002000000000000000000000000000E5330308AD
:1000300037D40A08000000008933030859D40A089D
:100040008D7A0F08917A0F08957A0F08997A0F0820
:100050009D7A0F08A17A0F08A57A0F08A97A0F08D0
:10006000AD7A0F08B17A0F08B57A0F08B97A0F0880
:10007000BD7A0F0887D40A08C17A0F088BD40A0802
:100080007BD40A087FD40A08C57A0F08C97A0F08FA
:10009000CD7A0F08D17A0F08D57A0F08A3D40A08B1
:1000A000D97A0F08DD7A0F08E17A0F08E57A0F0890
:1000B000E97A0F08ED7A0F08F17A0F08F57A0F0840
:1000C000F97A0F08FD7A0F08017B0F08057B0F08EE
:1000D000097B0F086BD40A0877D40A080D7B0F0838
:1000E000117B0F08157B0F08197B0F081D7B0F086C
:1000F000217B0F08257B0F08297B0F082D7B0F081C
:100100008FD40A08317B0F08357B0F08397B0F0825
:1001100083D40A083D7B0F08417B0F08457B0F08FD
:10012000497B0F084D7B0F086FD40A08517B0F08DD
:10013000557B0F08597B0F085D7B0F08617B0F080B
:10014000657B0F08697B0F086D7B0F08717B0F08BB
:10015000757B0F08797B0F0873D40A087D7B0F0825
:100160009BD40A089FD40A08817B0F08857B0F085F
:10017000897B0F088D7B0F08917B0F080000000022
:10018000957B0F08997B0F089D7B0F08A17B0F08BB
:10019000A57B0F08A97B0F08AD7B0F08B17B0F086B
:1001A00093D40A0897D40A08B57B0F08B97B0F08C7
:1001B000BD7B0F08C17B0F08C57B0F08C97B0F08EB
:1001C000CD7B0F08D17B0F080101001A0800000049
:1001D000F17C0F080213030708000000A42F0F088A
:1001E000070701060A0000007C680F0810130107CA
:1001F00012000000B8530E080C1701070E00000093
:10020000F4DA0D08161301071800000040F50C0879
:1002100011130107110000007CF50C08020701060C
:100220000500000084680F08071901060A00000095
:10023000ACF50E08071902060A000000C8F50E0802
:100240000C0B01060E000000D4190F080E0E020B55
:1002500012000000E4F50E08050801170800000070
:100260008C680F0807020111090000006E7C0F085E
:100270000303021708000000D8780F0809180006C9
:100280000A00000024DB0D080C1301070E0000001B
:10029000E0530E08081303070E000000B82F0F08E4
:1002A0000B1301070E00000008540E080B13010782
:1002B0000E00000030540E080C1300070E00000062
:1002C00058540E080B1302070E00000080540E084D
:1002D0000C1301070E000000A8540E080C130107B0
:1002E0000E000000D0540E080C1301070E00000091
:1002F000F8540E080C1301070E00000020550E08DC
:10030000030E030C09000000B8420F080513020C8D
:1003100009000000CC2F0F080D0E020B1200000088
:1003200000F60E080E07020E12000000C8420F0869
:100330000D0E030B120000001CF60E080A13010735
:100340000C00000048550E081416020717000000A4
:10035000089E0C080F1300070F00000070550E08D0
:100360000C1302070F00000098550E080D1301072B
:100370000F000000C0550E080E1302071100000008
:10038000E8550E080B1302070E00000010560E0869
:100390000B1302070D00000038560E080F1301075B
:1003A0001100000060560E080D1302071100000036
:1003B00088560E080613010709000000E02F0F08F9
:1003C000081300070A000000F42F0F080D1302079E
:1003D0000F000000B0560E080A1302070C000000C0
:1003E000D8560E080F1302071300000000570E081E
:1003F0000D1302071100000028570E081013010703
:100400001200000050570E080C1302070E000000E7
:1004100078570E08101801071200000054DB0D0871
:100420000E13020710000000A0570E080C1301075E
:100430000E000000C8570E081013FF070F00000041
:10044000F0570E080C1302071000000018580E0891
:100450000F1300070F00000040580E081713000785
:1004600017000000B8F50C080F1300070F0000007C
:1004700068580E080E1300070E00000090580E0872
:100480000C1301070E000000B8580E0806190206EA
:100490000A00000038F60E08091801060A000000DC
:1004A00084DB0D08061901060A00000054F60E0848
:1004B0000F0A02071200000008300F080E02001C8D
:1004C0000E000000DC780F08050503050E00000093
:1004D00094680F080A0E010C0D00000070F60E085B
:1004E0000B1402060E000000E0580E080A0E010C64
:1004F0000C0000008CF60E080B1401060E00000024
:1005000008590E080B0E010C0D000000A8F60E088D
:10051000091400060800000030590E080B13010CE6
:100520000E00000058590E080A1402060E000000C2
:1005300080590E0802130207060000001C300F0845
:100540000618FF0707000000EC190F080B1402063D
:100550000C000000A8590E08021402060600000054
:1005600030300F08120E010C15000000EC240E08AC
:100570000A0E020C0E000000C4F60E080C0E010C50
:100580000E000000E0F60E080B13020C0E00000037
:10059000D0590E080B13010C0E000000F8590E087C
:1005A000070E020C09000000D8420F080A0E010CC9
:1005B0000B000000FCF60E080812000808000000FE
:1005C00044300F080A0E020C0E00000018F70E0847
:1005D0000C0E000C0C00000034F70E08130E000C7B
:1005E0001300000018250E080C0E000C0C00000073
:1005F00050F70E080C13000C0C000000205A0E08D7
:10060000090E010C0B0000006CF70E080A19010618
:100610000C00000034710D08021904060A000000E5
:1006200088F70E080A1901060C00000068710D0811
:100630000E06020F12000000444F0F080101001ABD
:1006400008000000F27C0F080213030708000000F6
:1006500058300F080B1601080E00000044250E0844
:100660000B1301070E000000485A0E080C0C010C79
:100670000E000000041A0F080E1300070E00000001
:10068000705A0E08021904060A000000A4F70E08AA
:100690000B1801070E000000B4DB0D080702030869
:1006A0000E000000707C0F081515010717000000F0
:1006B00004C40C08090C01070C0000001C1A0F08E8
:1006C0000B0C010C0E000000341A0F080E09021169
:1006D000120000006C300F08070201110900000031
:1006E000727C0F08151501071700000044C40C08A0
:1006F0000E0200040E000000E0780F08090901074F
:100700000C00000080300F080E0F020912000000DC
:10071000F8E00E08090B02070C0000004C1A0F0845
:10072000080B02070C000000504F0F0805050505D7
:100730000E0000009C680F080A13020C0E00000057
:10074000985A0E080B1701070E000000E4DB0D0895
:100750000303030C09000000E4780F080605041ADF
:100760000E000000A4680F08060B04070C00000030
:100770005C4F0F080A0C01070C000000641A0F08F8
:100780000B0C020C0E0000007C1A0F081413020759
:1007900019000000F4F50C081613020719000000F8
:1007A00030F60C0815130207190000006CF60C084F
:1007B0000A1301070C000000C05A0E080F190001AF
:1007C0000F0000009C710D080F1900010F000000C0
:1007D000D0710D080F1900010F00000004720D0800
:1007E0000F1800020F00000014DC0D080F160004A3
:1007F0000F00000070250E080F1900010F00000007
:1008000038720D081613000717000000A8F60C0830
:100810000D1801070F00000044DC0D080B19020140
:100820000E0000006C720D080B1902010E00000092
:10083000A0720D080B1902010E000000D4720D0801
:100840000B1702030E00000074DC0D0806190101ED
:1008500009000000C0F70E08061901010900000098
:10086000DCF70E080819000109000000F8F70E086F
:100870000617010309000000941A0F08101300075F
:1008800011000000E85A0E080D18020211000000C5
:10089000A4DC0D08101901011200000008730D08F6
:1008A00010190101120000003C730D08101901011C
:1008B0001200000070730D081018010212000000F1
:1008C000D4DC0D08101701031200000004DD0D0830
:1008D0000D0D030C1200000014F80E08101501068F
:1008E000120000009C250E080C19020110000000E7
:1008F000A4730D080C19020110000000D8730D0834
:100900000C190201100000000C740D080C170203F2
:100910001000000034DD0D080E1900010E0000006B
:1009200040740D080A1302070E000000105B0E0849
:100930000B1402060E000000385B0E080A150105B4
:100940000D000000C8250E080A1501050D00000065
:10095000F4250E080A1501050D00000020260E08DA
:100960000A1401060D000000605B0E080A1201085F
:100970000D000000C0B90E080A1501050D000000A9
:100980004C260E08140E010C1600000078260E08E6
:100990000A13010C0C000000885B0E080B15010502
:1009A0000D000000A4260E080B1501050D00000027
:1009B000D0260E080B1501050D000000FC260E08C0
:1009C0000B1201080D000000E4B90E080515000522
:1009D00006000000AC1A0F0805150205060000000D
:1009E000C41A0F080615000506000000DC1A0F08DF
:1009F000061300070600000094300F080C130107CF
:100A00000E000000B05B0E080A1402060E00000083
:100A1000D85B0E080C1501050E00000028270E08F3
:100A20000C1501050E00000054270E080C150105D9
:100A30000E00000080270E080C1401060E000000B6
:100A4000005C0E080C1201080E00000008BA0E0827
:100A50000F0E020B1200000030F80E080C10010BF4
:100A60000E00000018E10E080A1502050E00000035
:100A7000AC270E080A1502050E000000D8270E0844
:100A80000A1502050E00000004280E080A120208CA
:100A90000E0000002CBA0E080C1A00050C00000015
:100AA00074740D080B1902060E000000A8740D08DE
:100AB0000C1700080C00000064DD0D080F17000380
:100AC0000F00000094DD0D080A1301070D0000005F
:100AD000285C0E080F1900010F000000DC740D08DF
:100AE0000A1401060D000000505C0E0810180007E3
:100AF0000F000000C4DD0D080B13010C0D000000F9
:100B0000785C0E080D1901010F00000010750D082A
:100B10000A1501050C00000030280E080D1901010E
:100B20000F00000044750D080A1501050C000000B7
:100B30005C280E080D1701030F000000F4DD0D08FE
:100B40000A1201080C00000050BA0E080D1901012C
:100B50000F00000078750D080A1501050C00000053
:100B600088280E080E19020111000000AC750D084E
:100B70001014010611000000A05C0E0810130007FD
:100B800011000000C85C0E080D1401060E000000E4
:100B9000F05C0E080B1702030E00000024DE0D08A7
:100BA0000B1301070D000000185D0E080B19020160
:100BB0000E000000E0750D080B1401060D0000008A
:100BC000405D0E080B1702030E00000054DE0D08F6
:100BD0000B1201080D00000074BA0E080B18020772
:100BE0000E00000084DE0D080B13010C0D00000048
:100BF000685D0E080B1902010E00000014760D0846
:100C00000B1501050D000000B4280E080F19010195
:100C10001100000048760D080B1A01050E000000B7
:100C20007C760D080F19010111000000B0760D0847
:100C30000B1901060E000000E4760D080F170103E2
:100C400011000000B4DE0D080B1701080E000000B3
:100C5000E4DE0D080F1801071100000014DF0D0875
:100C60000B1A01050E00000018770D080D1902017E
:100C7000110000004C770D080A1902010E00000057
:100C800080770D081213000712000000E4F60C082C
:100C90000C1400060E000000905D0E0808190001FB
:100CA000090000004CF80E080614000606000000BB
:100CB000A8300F080818000209000000F41A0F08F5
:100CC0000613000706000000BC300F0806190101DA
:100CD0000900000068F80E0806140006060000006F
:100CE000D0300F0806180107090000000C1B0F0880
:100CF0000418010706000000241B0F080617010353
:100D0000090000003C1B0F08020E020C0600000048
:100D1000E8420F080F13010712000000B85D0E082B
:100D2000091802070D00000044DF0D080919000131
:100D30000A000000B4770D08081AFF05070000003C
:100D400084F80E080D1802070F00000074DF0D086C
:100D50000B1902060C000000E8770D080B0E020CC0
:100D60000C000000A0F80E080A1902010C00000097
:100D70001C780D080519020106000000BCF80E08D9
:100D80000A1802070C000000A4DF0D08051901066F
:100D900006000000D8F80E080A1402060C00000035
:100DA000E05D0E080814020609000000E4300F0898
:100DB0000A1302070C000000085E0E080814020661
:100DC0000B000000F8300F080D1300070D000000A5
:100DD000305E0E0806140006070000000C310F08F4
:100DE0000D1902011100000050780D080A150205C6
:100DF0000E000000E0280E080D1802071100000088
:100E0000D4DF0D080A13020C0E000000585E0E0815
:100E10000D1902011100000084780D080A15020561
:100E20000E0000000C290E081014FF06110000002F
:100E3000805E0E080D1802071100000004E00D0886
:100E40000A13020C0E000000A85E0E081017010322
:100E50001200000034E00D080C1301070E00000022
:100E6000D05E0E081019010112000000B8780D08BC
:100E70000C1401060E000000F85E0E0810190101A6
:100E800012000000EC780D080C1501050E000000A2
:100E900038290E08161301071800000020F70C0867
:100EA000150E010C1700000064290E080E1902012E
:100EB0001000000020790D08071502050900000048
:100EC000541B0F080E1802071000000064E00D0804
:100ED0000813010C0900000020310F080E1902014F
:100EE0001000000054790D080815020509000000E3
:100EF0006C1B0F080C1901010E00000088790D0809
:100F00000A1501050B00000090290E080C190101BB
:100F10000E000000BC790D080A1501050B00000049
:100F2000BC290E080C1801070E00000094E00D0803
:100F30000A13010C0B000000205F0E080C190101C0
:100F40000E000000F0790D080A1501050B000000E5
:100F5000E8290E081018FF070F000000C4E00D0874
:100F60000817000808000000841B0F081019FF0173
:100F70000F000000247A0D080C1400060C0000007D
:100F8000485F0E081013FF070F000000705F0E0887
:100F9000081200080800000034310F080C18020283
:100FA00010000000F4E00D080A1402060E00000014
:100FB000985F0E080C1702031000000024E10D08D2
:100FC0000A1302070E000000C05F0E080C19020190
:100FD00010000000587A0D080A1402060E000000E6
:100FE000E85F0E080C190201100000008C7A0D0851
:100FF0000A1502050E000000142A0E080D19020140
:1010000010000000C07A0D080A1502050E0000004D
:10101000402A0E080C1802071000000054E10D08C9
:101020000B13020C0E00000010600E0817190001CF
:101030001700000064240C081315000513000000BD
:1010400084C40C080E1900010E000000F47A0D088B
:101050000C1A00050C000000287B0D080E17000379
:101060000E00000084E10D080C1901010E000000C3
:101070005C7B0D08091501050B0000006C2A0E08A9
:101080000C1701030E000000B4E10D08091201085D
:101090000B00000098BA0E080C1901010E000000A8
:1010A000907B0D08091501050B000000982A0E0819
:1010B000061402060600000048310F080D14000651
:1010C0000E00000038600E08101300071100000029
:1010D00060600E080C1302070F00000088600E0805
:1010E0000B1402060E000000B0600E080F1300077C
:1010F0000F000000D8600E080D1400060E0000005E
:1011000000610E080D1301070F00000028610E0892
:10111000111501050F000000C4C40C080E110109CF
:101120000C000000BCBA0E081013000711000000EC
:1011300050610E0812130007130000005CF70C0842
:101140000C1301070F00000078610E080B14010654
:101150000E000000A0610E080C13010C0E00000030
:10116000C8610E080B1301070E000000F0610E08A5
:10117000101301071200000018620E080C1301077B
:101180000D00000040620E080F18FE070D00000061
:10119000E4E10D080E1500070E000000C42A0E0839
:1011A000131501051100000004C50C080F180007F5
:1011B0000F00000014E20D081214020616000000D1
:1011C00098F70C0802140206060000005C310F08B4
:1011D000081300070900000070310F080D13020703
:1011E0000F00000068620E080B1402060C000000DD
:1011F00090620E08061400060700000084310F08F4
:101200000C1400060C000000B8620E08121302074E
:1012100016000000D4F70C081118FE07110000009A
:10122000C85C0C080A13020C0E000000E0620E08F5
:10123000101301071200000008630E0812130107C3
:101240001300000010F80C080D1101090E00000039
:10125000E0BA0E081518010717000000105D0C0811
:101260000E13010C1100000030630E08101300076C
:101270001000000058630E080B1902060E00000053
:10128000C47B0D080D1502070E000000F02A0E08A1
:101290000C1301070E00000080630E080A0E000CFC
:1012A0000B000000F4F80E080D1301070E000000FB
:1012B000A8630E080D1900060E000000F87B0D084B
:1012C00008170008080000009C1B0F080F130007F8
:1012D0000F000000D0630E0808140006080000008C
:1012E00098310F080E1800070F00000044E20D08A7
:1012F00011160204120000004C9E0C080E11020987
:101300000F00000004BB0E081113010712000000BB
:101310004CF80C080C13020710000000F8630E08CC
:10132000111300071100000088F80C0811180007BD
:101330000C000000585D0C080C1301070E000000A3
:1013400020640E08090E010C0B00000010F90E08B5
:101350000C1800070D00000074E20D080C180107BE
:101360000D000000A4E20D080A13010C0B000000A0
:1013700048640E080913010C0B00000070640E088D
:101380000B1301070E00000098640E080C130107F0
:101390000E000000C0640E080A0E000C0B000000D6
:1013A0002CF90E080B1200080C00000028BB0E08D8
:1013B0000B13020C0E000000E8640E08021904066C
:1013C0000A00000048F90E08061902060A0000008B
:1013D00064F90E080E190206120000002C7C0D089C
:1013E0000213030708000000AC310F081C190201AA
:1013F0001F00000078590B08191502051C00000099
:101400009CF10B08171501051900000044C50C08D4
:101410001413020718000000C4F80C081118020782
:1014200015000000A05D0C08081902060C00000061
:1014300080F90E08171302071B00000000F90C08C2
:101440001318020717000000E85D0C0811180207C6
:1014500015000000305E0C080F1900010F0000009D
:10146000607C0D080A1501050D0000001C2B0E08FC
:1014700008190001090000009CF90E080815FF0575
:1014800006000000B41B0F08101901011200000033
:10149000947C0D080C1501050E000000482B0E0869
:1014A0000C19020110000000C87C0D080A15020585
:1014B0000E000000742B0E080C1902011000000031
:1014C000FC7C0D080A1602040E000000A02B0E087A
:1014D0000C19020110000000307D0D080A160204EC
:1014E0000E000000CC2B0E080C19020110000000A9
:1014F000647D0D080A1802020E000000D4E20D08F7
:101500000C19020110000000987D0D080A16020453
:101510000E000000F82B0E080B0E010C0D00000051
:10152000B8F90E080F1900010F000000CC7D0D085E
:101530000A1601040D000000242C0E080F190001EA
:101540000F000000007E0D080A1601040D000000C7
:10155000502C0E081617000317000000785E0C08C8
:1015600014130107160000003CF90C0810130107C2
:101570001100000010650E080C13010C0E00000095
:1015800038650E080F19010111000000347E0D08A6
:101590000B1A01050E000000687E0D080D190201EE
:1015A0000F0000009C7E0D080B1902010C000000CA
:1015B000D07E0D08101801071200000004E30D088A
:1015C0000C13010C0E00000060650E08101C0103D6
:1015D00012000000503E0D080C1801070E0000001C
:1015E00034E30D080C1E00010D00000078F90C0812
:1015F0000A1A00050B000000047F0D08081AFF05F9
:1016000007000000D4F90E081C1302071F00000099
:10161000B0240C08191302071C000000FC240C085D
:101620001714010619000000B4F90C080F19010184
:1016300011000000387F0D080B1A01050E00000094
:101640006C7F0D081513020719000000F0F90C0853
:101650000B1802070E00000064E30D080D190201CB
:1016600011000000A07F0D080A1502050E00000001
:101670007C2C0E080F1900010F000000D47F0D080C
:101680000A1701030D00000094E30D08161900016C
:101690001700000048250C0814150105160000006D
:1016A00084C50C08101A01011200000008800D0802
:1016B0000C1601050E000000A82C0E080F190001E1
:1016C0000F0000003C800D080B1500050D00000008
:1016D000D42C0E080F1900010F00000070800D08B7
:1016E0000A1401060D00000088650E080B1902019E
:1016F0000E000000A4800D080B1501050D00000070
:10170000002D0E080B1902010E000000D8800D08F4
:101710000B1401060D000000B0650E080A19FE0149
:10172000090000000C810D080A15FD0506000000E7
:101730002C2D0E080819000109000000F0F90E0810
:101740000814FF0606000000C0310F08101901013F
:101750001200000040810D080C1501050E0000006C
:10176000582D0E08101901011200000074810D0897
:101770000C1401060E000000D8650E080F190101B7
:1017800010000000A8810D080A15000509000000DE
:10179000842D0E080E19020110000000DC810D08D6
:1017A0000814020609000000D4310F080C190201C8
:1017B0001000000010820D080B1501050E0000003E
:1017C000B02D0E080C1902011000000044820D0813
:1017D0000A1402060E00000000660E080C1801072D
:1017E0000E000000C4E30D080A13010C0B000000FA
:1017F00028660E081018FF070F000000F4E30D081C
:101800000817000808000000CC1B0F080B18010780
:101810000D00000024E40D080A13000C0B0000006A
:1018200050660E080D1902011100000078820D08A3
:101830000A1902010E000000AC820D080D18020703
:101840001000000054E40D081219010613000000F6
:1018500094250C080D1301070F00000078660E0890
:101860000B1301070D000000A0660E080D160107FE
:101870000E000000DC2D0E080A11010C0B00000008
:101880004CBB0E080F1700030F00000084E40D0886
:101890000A1201080D00000070BB0E080B180207A9
:1018A0000E000000B4E40D080B13010C0D00000045
:1018B000C8660E081019010112000000E0820D0830
:1018C0000C1601040E000000082E0E08101901016C
:1018D0001200000014830D080C1701030E00000015
:1018E000E4E40D08101701031200000014E50D08D0
:1018F0000C1201080E00000094BB0E081019010123
:101900001200000048830D080C1601040E000000B0
:10191000342E0E080E1700030E00000044E50D08DB
:101920000C1800070C00000074E50D080A190106E8
:101930000B0000007C830D081113020C1300000043
:101940002CFA0C080B1200080B000000B8BB0E08A4
:101950000613FF0C07000000E8310F0814140106FD
:101960001600000068FA0C081413010C16000000A1
:10197000A4FA0C08101600060F000000602E0E08D6
:10198000101601060F0000008C2E0E080C13010922
:101990000C000000F0660E080D13FF070C0000009D
:1019A00018670E081116FF060F000000909E0C0825
:1019B0000A13010C0B00000040670E080913010C0C
:1019C0000B00000068670E080D1400060E000000F2
:1019D00090670E080B1200070C000000DCBB0E081D
:1019E0000D1301070F000000B8670E080E13010762
:1019F00010000000E0670E080F1300070F00000042
:101A000008680E080B1802050E000000A4E50D087A
:101A10000B1801070D000000D4E50D08091300079D
:101A20000A00000030680E080718FF0707000000D2
:101A3000E41B0F081318010712000000C05E0C0819
:101A40000F13010C0E00000058680E080F13010759
:101A50001000000080680E08080E010C090000004C
:101A6000F8420F080E1300070E000000A8680E08C9
:101A70000C13000C0C000000D0680E080A0E020CBB
:101A80000D0000000CFA0E080B0E010C0E000000F9
:101A900028FA0E080B0E020C0E00000044FA0E0885
:101AA0000B1402060E000000F8680E080A0E010C66
:101AB0000C00000060FA0E080B0E000C0C00000079
:101AC0007CFA0E08101901060E000000B0830D0804
:101AD000101401060E00000020690E080B0E010C08
:101AE0000D00000098FA0E080B0E010C0D0000000E
:101AF000B4FA0E08110E010C12000000B82E0E08E8
:101B00000A0E010C0B000000D0FA0E080A0E000CA1
:101B10000B000000ECFA0E08100E000C1000000084
:101B200008FB0E080B0E010C0D00000024FB0E0834
:101B30000913FF0C0800000048690E08101901067F
:101B40000E000000E4830D080B13010C0E000000D2
:101B500070690E080B0E010C0D00000040FB0E0812
:101B60000C13000C0C00000098690E080F0E000CFE
:101B70000F0000005CFB0E080A13020C0E000000B0
:101B8000C0690E080A1402060E000000E8690E087B
:101B90000A1902060E00000018840D08061300073B
:101BA00006000000FC310F08020E020C06000000C7
:101BB00008430F08060E010C0900000018430F0827
:101BC0000A1400060A000000106A0E080714000636
:101BD0000700000010320F08061902060600000078
:101BE00078FB0E080B1902060E0000004C840D084D
:101BF000120E010C15000000E42E0E081213010C49
:101C000015000000E0FA0C081213010C150000008A
:101C10001CFB0C080F13FD0C0E000000386A0E08A8
:101C20000E13020C0E000000606A0E080A0E020C71
:101C30000E00000094FB0E080C0E010C0E000000BC
:101C4000B0FB0E08110E010C14000000102F0E083E
:101C5000100E010C12000000CCFB0E080C1901063E
:101C60000E00000080840D08070E000C0900000023
:101C700028430F08071400060900000024320F084B
:101C80000C13000C09000000886A0E080713020CF0
:101C90000900000038320F080713020C0900000089
:101CA0004C320F08070E020C0900000038430F08E1
:101CB0000713000C0900000060320F080B0E020C25
:101CC0000D000000E8FB0E080B0E020C0D000000DA
:101CD00004FC0E080A13010C0B000000B06A0E0889
:101CE0000C1901060E000000B4840D080C19FF0643
:101CF00008000000E8840D080C13010C0E00000021
:101D0000D86A0E080D1900060E0000001C850D088B
:101D1000081200080800000074320F0808170008B5
:101D200008000000FC1B0F080E0E000C0E00000047
:101D300020FC0E080C0E020C100000003CFC0E08EB
:101D40000A0E020C0E00000058FC0E080C0E000CCF
:101D50000C00000074FC0E08130E000C13000000B1
:101D60003C2F0E080C1300070C000000006B0E083F
:101D70000B0E000C0B00000090FC0E080E13010C63
:101D80000B000000286B0E080D10010C0E00000067
:101D900038E10E080A13000C0B000000506B0E080F
:101DA0000B13000C0B000000786B0E080B140006E0
:101DB0000C000000A06B0E080B1401060C000000C4
:101DC000C86B0E080B1400060C000000F06B0E0828
:101DD0000B13010C0C000000186C0E081013010707
:101DE00012000000406C0E080A0E020C0D000000EC
:101DF000ACFC0E080B0E010C0D000000C8FC0E0818
:101E00000F1101090D00000000BC0E080A0E020CA3
:101E10000E000000E4FC0E080A1800070A0000008B
:101E200004E60D080B13FF0C0C000000686C0E0894
:101E3000080E020C0A00000048430F0810190106A2
:101E40000E00000050850D080B1400060C00000069
:101E5000906C0E080B1401060C000000B86C0E0804
:101E6000141401061600000058FB0C081419010692
:101E700016000000E0250C081816010619000000E5
:101E8000D49E0C081112000811000000883E0D08B5
:101E90000F1900060E00000084850D0811120008BD
:101EA00012000000C03E0D081219000614000000C8
:101EB0002C260C080E14020610000000E06C0E0820
:101EC0000B1402060E000000086D0E080B1301072C
:101ED0000C000000306D0E080A1202080E0000000F
:101EE00024BC0E080F13000C11000000586D0E08E2
:101EF0001313000C1300000094FB0C08080D0108DC
:101F00000A00000058430F08080D01080A000000ED
:101F100068430F08051000080600000078430F080A
:101F20000509010C06000000684F0F080509000CA8
:101F300006000000744F0F08080C000C060000009B
:101F4000804F0F080809010C090000008C4F0F0892
:101F50000C09000C0C00000088320F08090C000C62
:101F600009000000141C0F08050802070700000004
:101F7000AC680F080A0801070C00000088430F082E
:101F80000507FF0605000000B4680F0805070106F5
:101F900005000000BC680F080507FF0605000000EB
:101FA000C4680F08040705050E000000CC680F0880
:101FB000040705050E000000D4680F08070D01088E
:101FC0000900000098430F08070D010809000000F0
:101FD000A8430F080D0E020B1200000000FD0E08B2
:101FE0000D0E030B120000001CFD0E080E0D020C5E
:101FF0001200000038FD0E080E0D020C1200000049
:1020000054FD0E08080503050E000000DC680F08EB
:10201000080503050E000000E4680F080205060528
:102020000E000000EC680F08090202070E00000015
:10203000E8780F08050505050E000000F4680F0894
:10204000050503050E000000FC680F080204061BCE
:102050000E000000EC780F080902021D0E000000BF
:10206000F0780F080505031A0E00000004690F0838
:102070000505061A0E0000000C690F08030E030C7C
:1020800009000000B8430F08030303110900000012
:10209000F4780F080407050F0E00000014690F08FC
:1020A0000407050F0E0000001C690F080604011448
:1020B00008000000F8780F0806040114080000006A
:1020C000FC780F08060401140800000000790F08CE
:1020D000090202140E00000004790F080805030627
:1020E0000E00000024690F08020206080E0000001E
:1020F000747C0F08070703050E0000002C690F0809
:102100000405041A0E00000034690F080A040206D0
:102110000E0000003C690F080A0503050E000000D0
:10212000984F0F08070500110800000044690F08C8
:10213000080801070A0000004C690F08080C000C91
:1021400008000000A44F0F08020D01080400000061
:10215000C8430F080709010C09000000B04F0F0821
:102160000709000C08000000BC4F0F08070D01080C
:1021700009000000D8430F08061202080A000000F8
:102180009C320F08061202080A000000B0320F0845
:10219000061202080A000000C4320F0806120208E4
:1021A0000A000000D8320F08061202080A000000D8
:1021B000EC320F08060B010F08000000C84F0F0893
:1021C000060B010F08000000D44F0F080805031A82
:1021D0000E00000054690F08070303070E000000FB
:1021E00008790F080A0701060A000000E8430F08F3
:1021F0000503041B0E0000000C790F080503041BE7
:102200000E00000010790F080305051A0E000000EB
:102210005C690F080305051A0E00000064690F08C9
:102220000404051B0E00000014790F0805050311B6
:102230000E0000006C690F080A0501110E00000075
:10224000E04F0F080A0503110E000000EC4F0F08C5
:102250000A04021B0E00000074690F08030D030737
:1022600009000000F8430F08050504070E000000F0
:102270007C690F08050505070E00000084690F083A
:10228000050504150E0000008C690F0805050515ED
:102290000E00000094690F080905021A0E000000E4
:1022A000F84F0F080905021A0E00000004500F082D
:1022B00006070118080000009C690F080505F705CE
:1022C00000000000A4690F080505F80500000000E3
:1022D000AC690F080805FC0500000000B4690F0890
:1022E0000A04F40100000000BC690F080902FB07A2
:1022F0000000000018790F080E02F9040000000029
:102300001C790F080805FC0600000000C4690F08CE
:102310000202FF0800000000767C0F080802FC089B
:1023200000000000787C0F0804050505000000008F
:10233000CC690F080707FC0500000000D4690F08EE
:102340000A05FB050000000010500F080805FC05F9
:1023500000000000DC690F080205FF050000000016
:10236000E4690F080505FE0500000000EC690F0890
:102370000A05FB05000000001C500F080807FC04BC
:1023800000000000F4690F080805FC0600000000CA
:10239000FC690F080205FF0600000000046A0F0830
:1023A0000205FF06000000000C6A0F080205FF0688
:1023B00000000000146A0F0802050106000000007A
:1023C0001C6A0F080505FD1A00000000246A0F08AA
:1023D0000505FD1A000000002C6A0F080504FE1B0D
:1023E0000000000020790F080504FE1B000000001B
:1023F00024790F080906FB040000000028500F088C
:102400000406000300000000346A0F080204FF1BEA
:102410000000000028790F080604FD1B00000000E2
:102420002C790F080604FD1B0000000030790F080E
:102430000604FD1B0000000034790F080902FB1D93
:102440000000000038790F080607FC1800000000A3
:102450003C6A0F080607001800000000446A0F08D5
:102460000202061C000000007A7C0F080802FC1D16
:10247000000000007C7C0F080404FE1B000000002C
:102480003C790F080204FF1B0000000040790F0890
:102490000605FD1A000000004C6A0F080405FE1A2C
:1024A00000000000546A0F080204FF1B0000000037
:1024B00044790F080904FB1B000000005C6A0F0848
:1024C0000903FC1C00000000646A0F080804FC1BE0
:1024D0000000000048790F080804FC1B0000000001
:1024E0004C790F080804FC1B0000000050790F080D
:1024F0000804FC1B0000000054790F080A04FB1BB1
:10250000000000006C6A0F080902FB1D00000000BB
:1025100058790F080E02F91C000000005C790F08C2
:102520000A04FB1B00000000746A0F080A04FB0E7B
:10253000000000007C6A0F080902FB100000000088
:1025400060790F080E02F9100000000064790F088E
:102550000A09FB0D0000000000330F080918FB06F4
:102560000000000034E60D080204FF1B000000001C
:1025700068790F080904FB1B00000000846A0F083B
:102580000404FE1B000000006C790F080903FC1C0A
:10259000000000008C6A0F080606FD030000000022
:1025A000946A0F080206FF04000000009C6A0F08EE
:1025B0000E05F9010000000034500F080A04FB0664
:1025C00000000000A46A0F080205FF0600000000DA
:1025D000AC6A0F080905FC050000000040500F0818
:1025E0000304FE1B0000000070790F080904FB05BE
:1025F00000000000B46A0F080E04F91B0000000080
:10260000BC6A0F080504FE1B0000000074790F0867
:102610000504FE1B0000000078790F080A06FB0580
:10262000000000004C500F080A08FB0300000000E7
:1026300008440F080A06FB040000000058500F0869
:102640000604FD1B000000007C790F080604FD1B3A
:102650000000000080790F081211F7090000000047
:10266000B8850D080305FD0500000000C46A0F08C9
:102670000407FE0500000000CC6A0F080807FC04F0
:1026800000000000D46A0F080505FD1A00000000D4
:10269000DC6A0F080305FF1A00000000E46A0F0857
:1026A0000305FE1A00000000EC6A0F080805FD1A79
:1026B00000000000F46A0F080407FE050000000097
:1026C000FC6A0F0802020608000000007E7C0F086A
:1026D0000504FE1B0000000084790F080704FD1BA1
:1026E0000000000088790F080405FE0600000000C5
:1026F000046B0F081305F61A0000000018440F08B9
:102700001305FE060000000028440F081302FE0611
:10271000000000000C6B0F081302FE1D00000000FB
:10272000146B0F081304FE060000000064500F082D
:102730001305FE060000000038440F080E04FE1BBF
:10274000000000001C6B0F080507FD0400000000DE
:10275000246B0F080607FD04000000002C6B0F0817
:102760000109FF020000000070500F080607FD0479
:1027700000000000346B0F080507FD040000000096
:102780003C6B0F080507FD0400000000446B0F08B8
:10279000060AFD01000000007C500F08050AFD013B
:1027A0000000000088500F080907FB04000000002B
:1027B00048440F080307FE04000000004C6B0F089C
:1027C0000409FE020000000094500F080507FD04F4
:1027D00000000000546B0F080507FD040000000016
:1027E0005C6B0F08040505050E000000646B0F0804
:1027F0000404051B0E0000008C790F080304051B60
:102800000E00000090790F080A0E010C0C00000069
:1028100070FD0E080A0E010C0C0000008CFD0E0865
:102820000A0E010C0C000000A8FD0E080513020C96
:102830000900000014330F08030505050E00000011
:102840006C6B0F08090502050E000000A0500F0870
:102850000F1300070F000000806D0E080303030C28
:102860000900000094790F08101300071100000000
:10287000A86D0E081213000714000000D0FB0C080E
:102880000A1300070C000000D06D0E081313000798
:10289000140000000CFC0C081213000712000000CA
:1028A00048FC0C08141300071400000084FC0C08FA
:1028B0000815FF05060000002C1C0F080F13000769
:1028C0000F000000F86D0E080C1302070F00000047
:1028D000206E0E080B1302070D000000486E0E0854
:1028E0000F1300070F000000706E0E080B13020795
:1028F0000E000000986E0E080C1301070E00000079
:10290000C06E0E080D13020711000000E86E0E08DD
:102910001013010712000000106F0E0806130107C4
:102920000900000028330F080D1302070F000000F4
:10293000386F0E080F1300070F000000606F0E08BD
:102940000F13020713000000886F0E080D13020713
:1029500011000000B06F0E080C1301070E000000FC
:10296000D86F0E08101301071200000000700E0847
:102970000D1302071100000028700E080C13020747
:102980000E00000050700E080D1301070E0000002D
:1029900078700E081013FF070F000000A0700E08DB
:1029A0000E1300070E000000C8700E081013010778
:1029B00013000000F0700E080F1300070F00000056
:1029C00018710E08101302071400000040710E0861
:1029D0001113010712000000C0FC0C0806170103C8
:1029E00009000000441C0F080E1700030E00000031
:1029F00064E60D080B1501050E000000682F0E0897
:102A00000A1501050B000000942F0E080A1A020592
:102A10000E000000EC850D080315020506000000FD
:102A20005C1C0F080A1502050E000000C02F0E08DE
:102A30000B0E010C0E000000C4FD0E080B1902065F
:102A40000E00000020860D080C13000C0C00000086
:102A500068710E080C1401060E00000090710E083B
:102A60000A0E010C0B000000E0FD0E080A19010619
:102A70000A00000054860D080A13020C0E00000024
:102A8000B8710E080C1401060E000000E0710E086B
:102A9000020E020C0600000058440F080A0E020C39
:102AA0000C000000FCFD0E080C1400060C000000D9
:102AB00008720E080A13020C0E00000030720E0895
:102AC0000C0E000C0C00000018FE0E080B1901067D
:102AD0000B00000088860D080C0E010C0E00000093
:102AE00034FE0E080A0E020C0E00000050FE0E0806
:102AF0000B13020C0E00000058720E080A13010C92
:102B00000B00000080720E080E0E010C0F0000007A
:102B10006CFE0E080C0E000C0C00000088FE0E0867
:102B20000A0E020C0E000000A4FE0E081013010C89
:102B300012000000A8720E080C13000C0C0000001C
:102B4000D0720E080E13020C12000000F8720E086C
:102B5000100E010C12000000C0FE0E080613000744
:102B6000060000003C330F080A1202080E000000A5
:102B700048BC0E080C1501050E000000EC2F0E08D5
:102B80000A1502050E00000018300E081015010588
:102B90001200000044300E080B1402060E00000064
:102BA00020730E080C1402060E00000048730E0875
:102BB0001213000711000000FCFC0C08161500059C
:102BC00015000000C4C50C08121700031100000016
:102BD000085F0C080C1901060E000000BC860D08E9
:102BE000100E010C12000000DCFE0E080E13000C8B
:102BF0000E00000070730E0810180107120000008C
:102C000094E60D080C13010C0E00000098730E08DA
:102C10000D1801070F000000C4E60D080B13010C8E
:102C20000C000000C0730E080B1302070D0000001B
:102C3000E8730E080813020C0B00000050330F0855
:102C40000F1301071000000010740E080B1401068A
:102C50000D00000038740E08121800071300000061
:102C6000505F0C080D1900060E000000F0860D08DC
:102C70001218020716000000985F0C081213010CCE
:102C80001500000038FD0C080D13010710000000AE
:102C900060740E080A1402060E00000088740E0804
:102CA0000D18020710000000F4E60D080D0E000CD0
:102CB0000D000000F8FE0E080C1301070E000000C6
:102CC000B0740E080C1401060E000000D8740E0833
:102CD0000F1300070F00000000750E080F0E000C08
:102CE0000F00000014FF0E0810130107120000006F
:102CF00028750E080C0E010C0E00000030FF0E08A7
:102D00000C1300070C00000050750E080A14000692
:102D10000A00000078750E080E0E000C0E00000070
:102D20004CFF0E080C13010C0E000000A0750E08DD
:102D30000A0E010C0C00000068FF0E080618FF07C1
:102D400007000000741C0F08101301071200000098
:102D5000C8750E080B0E010C0C00000084FF0E0855
:102D60000B0E000C0C000000A0FF0E080A13020757
:102D70000E000000F0750E080B1902060E00000090
:102D800024870D080E13FF0C0E00000018760E08A5
:102D90000D1301070F00000040760E080D13010708
:102DA0000F00000068760E080D1301070F000000E9
:102DB00090760E080B1902010E00000058870D08CE
:102DC0000B1702030E00000024E70D081113000783
:102DD0001200000074FD0C080B1902010D00000028
:102DE0008C870D080D1301070F000000B8760E0840
:102DF0000C1301070E000000E0760E080613010711
:102E00000900000064330F080617010309000000E1
:102E10008C1C0F08081300070A00000078330F0805
:102E2000191300071900000078260C081713020771
:102E300019000000B0FD0C0811130007120000007B
:102E4000ECFD0C080D1902010F000000C0870D08F1
:102E50000D19020111000000F4870D080E18000280
:102E60000E00000054E70D080D17020711000000C6
:102E700084E70D080F1300070F00000008770E0805
:102E80000C1302070F00000030770E080C13020726
:102E90000F00000058770E080B1302070D0000000A
:102EA00080770E081017000711000000B4E70D0826
:102EB0000B1302070E000000A8770E081613000778
:102EC0001600000028FE0C080C1300070D0000007F
:102ED000D0770E080D13020711000000F8770E08D6
:102EE0000D18020211000000E4E70D080D1302079F
:102EF0000F00000020780E080F13000711000000DB
:102F000048780E080F1302071300000070780E08AF
:102F10000D1302071100000098780E081013010726
:102F200012000000C0780E080D1302071100000007
:102F3000E8780E080C1302070E00000010790E0846
:102F40000D1301070F00000038790E081013FF075A
:102F50000F00000060790E080E1300070E0000003D
:102F600088790E081013010713000000B0790E08CD
:102F70000F1300070F000000D8790E080E17020784
:102F80001100000014E80D080D13010710000000E7
:102F9000007A0E08141302071800000064FE0C08E3
:102FA0001617020718000000E05F0C081113000755
:102FB00011000000A0FE0C0810130207140000000E
:102FC000287A0E080D1302070F000000507A0E0831
:102FD0000D1301070F000000787A0E081513020781
:102FE00018000000DCFE0C080D1300070F000000A5
:102FF000A07A0E080A0E010C0D000000BCFF0E089E
:103000000C1401060E000000C87A0E080A0E020C0D
:103010000D000000D8FF0E08080E020C0A00000088
:1030200068440F080D11000C0E0000006CBC0E0867
:103030000B0E010C0D000000F4FF0E08120E000C28
:103040001200000070300E080A0E000C0B00000089
:1030500010000F080A0E020C0E0000002C000F08D2
:103060000A1402060E000000F07A0E080A0E020C86
:103070000C00000048000F080C0E000C0E000000B1
:1030800064000F080C0E020C1000000080000F08F6
:103090000A0E020C0E0000009C000F080C0E010C22
:1030A0000E000000B8000F080A0E020C0E0000000F
:1030B000D4000F080B13020C0E000000187B0E0842
:1030C0000A0E010C0C000000F0000F080C0E000CA2
:1030D0000C0000000C010F080C13000C0C00000089
:1030E000407B0E081219000613000000C4260C08CD
:1030F0000C0E000C0C00000028010F080B11020C34
:103100000E00000090BC0E080B0E010C0E0000001B
:1031100044010F08100E010C1300000060010F089D
:103120001111020C1400000028880D080D0E000C6F
:103130000E0000007C010F080D0E020C11000000B3
:1031400098010F080A0E020C0D000000B4010F08D0
:103150000A0E010C0C000000D0010F08100E020C2A
:1031600013000000EC010F080B0E000C0D00000016
:1031700008020F080B1501050D0000009C300E0819
:103180000B1201080D000000B4BC0E080C1900065B
:103190000E0000005C880D08081502050A000000FA
:1031A000A41C0F080A0E010C0C00000024020F08DA
:1031B0000A0E010C0B00000040020F080213020768
:1031C000060000008C330F080613000706000000FD
:1031D000A0330F080618FF0707000000BC1C0F08EB
:1031E000140E000C15000000C8300E08120E020C60
:1031F00015000000F4300E080C1400060E0000004C
:10320000687B0E080A1502050C00000020310E082C
:103210000A1502050E0000004C310E080C190006BC
:103220000C00000090880D080A11020C0E0000002E
:10323000D8BC0E081B1301071D00000010270C0846
:10324000120E000C1200000078310E081013000757
:1032500011000000907B0E080D1400060E00000007
:10326000B87B0E08121302071500000018FF0C08A7
:103270000E0E020C110000005C020F080F13000775
:103280000F000000E07B0E080C0E000C0C0000008C
:1032900078020F08121302071400000054FF0C08F4
:1032A0000F0E020C1100000094020F081413000707
:1032B0001400000090FF0C080F0E000C0F0000001F
:1032C000B0020F081713020719000000CCFF0C080A
:1032D000130E020C15000000A4310E080B1E010194
:1032E0000D00000008000D080A1A00050B00000080
:1032F000C4880D081013020714000000087C0E0893
:103300000E13020C12000000307C0E08101301078F
:1033100012000000587C0E080C0E010C0E0000007C
:10332000CC020F08131300071200000044000D0820
:10333000100E000C0F000000E8020F081319000126
:10334000120000005C270C08101500050F0000009B
:10335000D0310E081C1801071D000000088A0B0858
:103360001813010C1900000080000D081315010648
:103370001500000004C60C080F10010B110000001E
:1033800058E10E081519010117000000A8270C08C4
:10339000111701031300000028600C081B1701031C
:1033A0001D00000048C80B0812120008120000009F
:1033B000F83E0D080D1801070F00000044E80D0845
:1033C0000A13010C0C000000807C0E080C1300078F
:1033D0000C000000A87C0E08080503060000000091
:1033E000746B0F0809030207000000007C6B0F08D4
:1033F0000205060600000000846B0F0802050606A1
:10340000000000008C6B0F080A0403061000000087
:10341000946B0F081816F40800000000189F0C08A1
:103420001818F4070000000070600C080F1C02025E
:1034300011000000303F0D080C1702060E000000BE
:1034400074E80D080F1300070F000000D07C0E0871
:103450000C1400060D000000F87C0E080D13020786
:103460000E000000207D0E080C13020C0E00000060
:10347000487D0E080B1802020D000000A4E80D089C
:10348000081302070A000000B4330F080C130107E9
:103490000D000000707D0E08090E010C0A000000EE
:1034A00004030F080B1802070E000000D4E80D08F3
:1034B0000A13020C0D000000987D0E081617000775
:1034C00017000000B8600C081211000C1300000077
:1034D000F8880D080C1800070D00000004E90D081D
:1034E0000A13000C0B000000C07D0E080E17020727
:1034F0001000000034E90D080A11020C0D00000054
:10350000FCBC0E080D1302070F000000E87D0E083A
:103510000A0E020C0C00000020030F080F13000716
:103520000F000000107E0E080C1400060C000000B6
:10353000387E0E081213000712000000BC000D08B0
:103540000E0E000C0E0000003C030F080F170207C0
:103550001100000064E90D080B11020C0E000000C0
:1035600020BD0E081213020714000000F8000D0819
:103570000E0E020C1000000058030F081618020768
:103580001900000000610C081213020C1500000065
:1035900034010D08111401071200000070010D081C
:1035A0000D0F010C0E00000078E10E080D18010748
:1035B0000F00000094E90D080A13010C0C00000034
:1035C000607E0E081017FF070F000000C4E90D0809
:1035D0000C11000C0C00000044BD0E080E13000777
:1035E0000E000000887E0E080C13000C0C0000007A
:1035F000B07E0E080E1300070E000000D87E0E08E5
:103600000C13000C0C000000007F0E080F170007C1
:103610000F000000F4E90D080C11000C0D00000073
:1036200068BD0E08131700071400000048610C085D
:103630000F11000C100000008CBD0E080F170107C1
:103640001000000024EA0D080C11010C0E0000000F
:10365000B0BD0E080D13010710000000287F0E08F2
:103660000B0E010C0E00000074030F080C13020770
:1036700010000000507F0E080A1402060E00000021
:10368000787F0E081413000715000000AC010D0828
:103690000F0E000C1000000090030F081417000715
:1036A0001500000090610C080F11000C10000000C4
:1036B000D4BD0E080613010709000000C8330F0827
:1036C0001619000116000000F4270C081214000659
:1036D00012000000E8010D080C1802070F0000009E
:1036E00054EA0D080913020C0C000000A07F0E081C
:1036F0001117000711000000D8610C080E11000C12
:103700000E000000F8BD0E080D18020711000000A1
:1037100084EA0D080A13020C0E000000C87F0E0890
:103720000F17020711000000B4EA0D080C11020C7B
:103730000E0000001CBE0E080D170107100000004F
:10374000E4EA0D080B11010C0E00000040BE0E084B
:10375000111702071300000020620C080E11020C62
:103760001000000064BE0E080214020606000000ED
:10377000DC330F080F1900010F0000002C890D0821
:103780000A1401060D000000F07F0E080F16000459
:103790000F000000FC310E080A1201080D000000A5
:1037A00088BE0E08161300071700000024020D083B
:1037B000140E010C1600000028320E080B1902012D
:1037C0000E00000060890D080B1401060D000000BA
:1037D00018800E08101301071200000040800E0828
:1037E0000B0E010C0D000000AC030F0810160104B5
:1037F0001200000054320E080B1201080D000000E8
:10380000ACBE0E0816160004160000005C9F0C08E3
:103810001212000812000000683F0D080C16000488
:103820000D00000080320E080A1200080B00000094
:10383000D0BE0E080C1300070D00000068800E08B3
:103840000A13000C0B00000090800E080D170203F5
:103850001100000014EB0D080A1302070E0000000F
:10386000B8800E080D16020411000000AC320E08DC
:103870000A1202080E000000F4BE0E081017010321
:103880001200000044EB0D080C1201080E000000AD
:1038900018BF0E081013010712000000E0800E0888
:1038A0000C0E010C0E000000C8030F0810170103D6
:1038B0001200000074EB0D080C1201080E0000004D
:1038C0003CBF0E080D1601040F000000D8320E0890
:1038D0000A1201080C00000060BF0E080E1700035A
:1038E0000E000000A4EB0D080C1800070C000000EF
:1038F000D4EB0D080E1600040E00000004330E0871
:103900000C1700080C00000004EC0D080E19000153
:103910000E00000094890D080C1A00050C00000030
:10392000C8890D080D1601041000000030330E0880
:103930000B1201080E00000084BF0E080B170207CF
:103940000D00000034EC0D080812020C0A00000003
:10395000F0330F0810160204140000005C330E0848
:103960000D12020811000000A8BF0E080D18000774
:103970000D00000064EC0D080A13000C0A000000A2
:1039800008810E08101800070F00000094EC0D08C5
:103990000C13000C0C00000030810E080F13000700
:1039A0000F00000058810E080C0E000C0C000000E7
:1039B000E4030F080D1300070F00000080810E08BC
:1039C0000B1401060E000000A8810E081513000755
:1039D0001700000060020D08131401061600000015
:1039E0009C020D081413010717000000D8020D08EF
:1039F000120E010C1500000088330E080E17010787
:103A00000F000000C4EC0D080B11010C0D000000AC
:103A1000CCBF0E08171300071900000014030D088F
:103A2000140E000C16000000B4330E081513020724
:103A30001900000050030D08120E020C16000000C1
:103A4000E0330E080F13010711000000D0810E08AB
:103A50000B0E010C0D00000000040F0811130007ED
:103A6000130000008C030D080F0E000C1100000065
:103A70001C040F080C1301070D000000F8810E084C
:103A80000A0E010C0B00000038040F080F18000785
:103A900011000000F4EC0D080C13000C0E000000E7
:103AA00020820E08101801071200000024ED0D08F6
:103AB0000B13010C0E00000048820E0817130007BC
:103AC00017000000C8030D08130E000C13000000BF
:103AD0000C340E08101302071200000070820E084A
:103AE0000D1302071000000098820E081013000743
:103AF00010000000C0820E08111300071100000022
:103B000004040D080D13020710000000E8820E08DF
:103B10000D1301070F00000010830E080C1302079D
:103B20000F00000038830E080D130207100000007C
:103B300060830E08121302071400000040040D08F1
:103B40000F1301071000000088830E080C130207F2
:103B50000F000000B0830E080A1302070C000000DB
:103B6000D8830E0812130207160000007C040D080B
:103B7000101300071000000000840E080C13020749
:103B80001000000028840E080B1301070D00000030
:103B900050840E080E1300070F00000078840E08F2
:103BA0001113000711000000B8040D080D130207DF
:103BB00011000000A0840E0810130207120000007C
:103BC000C8840E080E13010710000000F0840E08D0
:103BD000101300071100000018850E080D130107CF
:103BE0000F00000040850E080C13020710000000B3
:103BF00068850E080D1301070F00000090850E0860
:103C00000F13000711000000B8850E080D130107FF
:103C10000F000000E0850E081013020712000000DC
:103C200008860E080C1302071000000030860E08EC
:103C30001113000711000000F4040D080F13000712
:103C40001000000058860E080C1302070F00000039
:103C500080860E080F13010711000000A8860E08C9
:103C60000A1302070D000000D0860E08101301078A
:103C700013000000F8860E080E1300070F00000066
:103C800020870E08101301071200000048870E0855
:103C90000F1300071000000070870E0802050106D0
:103CA000050000009C6B0F080205010605000000DE
:103CB000A46B0F080505010608000000AC6B0F0897
:103CC000070A010609000000AC500F0805050106AF
:103CD00008000000B46B0F08070601060900000089
:103CE000BC6B0F080A0601030C000000B8500F0857
:103CF000110E020C1500000038340E080A13020CD5
:103D00000E00000098870E080E13010C0F00000033
:103D1000C0870E080D13020C0F000000E8870E0884
:103D20000A1402060E00000010880E080E13010C83
:103D30000F00000038880E080A1402060D0000006B
:103D400060880E080A13020C0E00000088880E0816
:103D50000F13020C11000000B0880E080E140106AB
:103D60000F000000D8880E080A1902060E00000095
:103D7000FC890D080613020C0800000004340F082B
:103D8000121902061600000040280C080D14010646
:103D90000E00000000890E080A1902060E0000003D
:103DA000308A0D080A1402060E00000028890E0849
:103DB0000A1401060C00000050890E080D13020CB5
:103DC0000F00000078890E080B1401060C0000009B
:103DD000A0890E080D1402060F000000C8890E0805
:103DE0000613000C0800000018340F080D1400061C
:103DF0000F000000F0890E080A13000C0B000000F1
:103E0000188A0E080A0E020C0E00000054040F0857
:103E10000A13000C0B000000408A0E081113020C5C
:103E20001500000030050D080B13000C0C000000FD
:103E3000688A0E080B0E020C0E00000070040F08BA
:103E40000A0E020C0E0000008C040F080D19020669
:103E50000F000000648A0D08110E020C150000000E
:103E600064340E080A13020C0E000000908A0E083B
:103E70000B13010C0E000000B88A0E08080E020C8D
:103E80000A00000078440F0811190206150000000E
:103E90008C280C080E13000C0F000000E08A0E089E
:103EA0000C0E010C0E000000A8040F0810190006EB
:103EB00011000000988A0D080D1402060F00000082
:103EC000088B0E08030E030C0900000088440F083D
:103ED000070301100900000098790F080505FE1A74
:103EE00000000000C46B0F080803FC06000000007F
:103EF0009C790F080306FE0300000000CC6B0F083E
:103F00000205FF0400000000D46B0F080405FE0446
:103F100000000000DC6B0F080405FE1A0000000022
:103F2000E46B0F080303FF0600000000A0790F08F0
:103F30000704FC0500000000A4790F080405FC0438
:103F400000000000EC6B0F080303001B00000000E2
:103F5000A8790F080405FE1A00000000F46B0F0892
:103F60000405FE0400000000FC6B0F0804050004BB
:103F700000000000046C0F080805FC0400000000AD
:103F80000C6C0F080E06F90300000000C4500F0867
:103F90000606000300000000146C0F080405FE0470
:103FA000000000001C6C0F080505FE1A0000000050
:103FB000246C0F080304FF1B00000000AC790F08FD
:103FC0000303FE1B00000000B0790F080405FE1A71
:103FD000000000002C6C0F080805FC1A000000000F
:103FE000346C0F080305FE1A000000003C6C0F083B
:103FF0000405FE0400000000446C0F080606FA03E6
:10400000000000004C6C0F080505FE1A00000000BF
:10401000546C0F080303FE0600000000B4790F087B
:104020000304FF0500000000B8790F080405001A1A
:10403000000000005C6C0F080704F9050000000098
:10404000BC790F080303FE0600000000C0790F08CA
:104050000205061A00000000646C0F080805031A28
:10406000000000006C6C0F080605041A0000000038
:10407000746C0F080605041A000000007C6C0F0821
:104080000202061B00000000807C0F080502041BD2
:1040900000000000827C0F080505051A00000000E2
:1040A000846C0F080301051B00000000F37C0F085F
:1040B0000503041B00000000C4790F080202060873
:1040C00000000000847C0F080202030700000000CB
:1040D000867C0F080805031A000000008C6C0F088E
:1040E0000202061200000000887C0F080103061B74
:1040F00000000000C8790F080602020B0A00000049
:104100008A7C0F080301050800000000F47C0F08FA
:1041100002130209060000002C340F0802020608F0
:10412000000000008C7C0F080202FF080000000065
:104130008E7C0F08030F030B0900000098440F0842
:104140000202010700000000907C0F080202FF1C21
:1041500000000000927C0F080710020A0A0000000D
:10416000A8440F080504FD1B00000000CC790F08CF
:104170000D0F020B1100000098E10E080E0F010B4D
:1041800010000000B8E10E080C0F000B0C0000003E
:10419000D8E10E080D0F010B0F000000F8E10E082A
:1041A0000D0F020B1100000018E20E08050F000BA6
:1041B00007000000B8440F08070F010B08000000BB
:1041C000C8440F080D0F020B1100000038E20E0862
:1041D0000D0F020B1100000058E20E080508000B3D
:1041E00007000000946C0F080E14000B1000000074
:1041F000308B0E080D0F010B1000000078E20E0846
:104200000D14010610000000588B0E080D0F020B54
:104210001100000098E20E080E0F010B11000000C3
:10422000B8E20E080714000B0900000040340F0824
:10423000070F010B0A000000D8440F08100F000BF5
:1042400012000000D8E20E080D11010B1000000052
:10425000F0BF0E080E14010B11000000808B0E0839
:104260000D0F010B10000000F8E20E080B14000BFC
:104270000C000000A88B0E080D0F010B0F000000B2
:1042800018E30E080D14020B11000000D08B0E086D
:104290000C0F000B0E00000038E30E08110F020B8C
:1042A0001400000054ED0D08100F000B1200000068
:1042B00058E30E080C0F000B0E00000078E30E0808
:1042C0000C0F000B0E00000098E30E080C08000B0A
:1042D0000E000000E8440F08050701060500000075
:1042E0009C6C0F080A0701060A000000F8440F083A
:1042F0001205011A1400000008450F082505011ACF
:1043000027000000C4040F081D0700181E0000004D
:10431000E0040F081707011819000000D41C0F084B
:10432000101701081200000084ED0D0803070313A5
:1043300009000000A46C0F0807070118080000001E
:10434000AC6C0F081D0701131D000000FC040F08D2
:104350000C12010D0F00000014C00E080705FC022E
:1043600000000000B46C0F080705FC02000000000C
:10437000BC6C0F080706FC0200000000C46C0F08AC
:104380000907FB010000000018450F080904FC02A2
:1043900000000000CC6C0F080607011300000000AD
:1043A000D46C0F08030E030C0900000028450F0809
:1043B0000605011508000000DC6C0F080A13010750
:1043C0000C000000F88B0E08070901110A0000001C
:1043D000D0500F080616000406000000EC1C0F0861
:1043E000041901010600000018050F080915000A4C
:1043F0000A00000090340E080418010706000000AF
:10440000041D0F08140F010B16000000B4ED0D0879
:10441000021302070600000054340F08120C0112A8
:104420001400000038C00E080A1101090C00000039
:104430005CC00E08120C010E1400000080C00E08B3
:10444000120F010B14000000E4ED0D080C11010E19
:104450000F000000A4C00E080C11010E0F00000098
:10446000C8C00E080C14010B0F000000208C0E08B1
:104470000A0C010E0C0000001C1D0F080A10010A96
:104480000C000000B8E30E08080B0014090000003F
:10449000DC500F080810000F0900000038450F0815
:1044A0001C0E01111E000000A03F0D081C14010B82
:1044B0001E00000014100C081B0F01101D0000004E
:1044C0006C050D081B14010B1D00000064100C0886
:1044D0001113FF0711000000A8050D081113FF07B5
:1044E00011000000E4050D080C12010D0F00000082
:1044F000ECC00E080C1601090F000000BC340E08B9
:104500000702FF1806000000947C0F08141201082F
:1045100016000000D83F0D08141501071600000012
:1045200044C60C080F13010712000000488C0E0847
:104530000D13010710000000708C0E08100EFE1104
:104540000F00000034050F080F0E010C11000000D1
:1045500050050F080A0C010E0C000000341D0F0856
:10456000090F00100A000000D8E30E08140E010C19
:1045700016000000E8340E081412010C16000000AA
:1045800010400D080704000500000000D0790F0856
:104590000805000100000000E46C0F080704001A81
:1045A00000000000D4790F0807020004000000009A
:1045B000967C0F080605000100000000EC6C0F0857
:1045C0000702001C00000000987C0F08070501018D
:1045D00000000000F46C0F08050500020000000058
:1045E000FC6C0F0806020004000000009A7C0F0813
:1045F0000404010200000000D8790F080404011B24
:1046000000000000DC790F080105FF1A000000001F
:10461000046D0F080605FD01000000000C6D0F0879
:104620000403FE0300000000E0790F080501FD0906
:1046300000000000F57C0F080503000400000000E6
:10464000E4790F080704000300000000E8790F0870
:104650000202FF1C000000009C7C0F080605000100
:1046600000000000146D0F080503000300000000A7
:10467000EC790F080707040E0E0000001C6D0F08F0
:10468000051104090E00000068340F080C1101091F
:104690000E00000010C10E080D1100090E000000F0
:1046A00034C10E080B1102090E00000058C10E089B
:1046B0000D0E010C0E0000006C050F080C11010915
:1046C0000E0000007CC10E080D1101090E00000053
:1046D000A0C10E080D1101090E000000C4C10E0892
:1046E0000C1102090E000000E8C10E080D110109AD
:1046F0000E0000000CC20E0803070317090000009B
:10470000246D0F0803070313090000002C6D0F0828
:104710000C0C010C0E0000004C1D0F0812080112B9
:1047200014000000641D0F081410010C1600000096
:1047300014EE0D080108FF0100000000346D0F08A1
:1047400006180002060000007C1D0F080618000273
:1047500006000000941D0F08061800070600000060
:10476000AC1D0F080404010206000000F0790F08D8
:1047700007130207060000007C340F080A15000A20
:104780000A00000014350E080B15FF0A0A0000008D
:1047900040350E08161401061600000020060D080C
:1047A0001211010914000000CC8A0D08120F010B30
:1047B0001400000044EE0D08120D01121400000058
:1047C000988C0E081210010E1400000074EE0D08F3
:1047D000120E010C140000006C350E08120D0112AF
:1047E00014000000C08C0E08120F010B1400000012
:1047F000A4EE0D08120D011214000000E88C0E0842
:104800000C1701080F000000D4EE0D080C1801076A
:104810000F00000004EF0D080C11010E0F00000046
:1048200030C20E080C11010E0F00000054C20E0819
:104830000C1801070F00000034EF0D080C11010ED9
:104840000F00000078C20E080C11010E0F000000CE
:104850009CC20E080A1501050C00000098350E08D0
:104860000A10010E0C000000F8E30E080A10010EF9
:104870000C00000018E40E080A1901050C000000E5
:10488000008B0D080A10010A0C00000038E40E0825
:104890000A10010E0C00000058E40E080A1301076C
:1048A0000C000000108D0E080A1301070C00000018
:1048B000388D0E080A1301070C000000608D0E08E9
:1048C0000816000909000000C41D0F080811000E99
:1048D0000900000090340F080B0B001409000000C1
:1048E000DC1D0F08090B001409000000F41D0F085F
:1048F0000C0B0014090000000C1E0F08090B00141B
:1049000009000000241E0F080810000F0900000015
:1049100048450F080813000C09000000A4340F08D4
:104920000813000C09000000B8340F081C11010E18
:104930001E000000A09F0C081C0E01111E000000AC
:1049400048400D081C14010B1E000000B4100C0898
:104950001B0F01101D0000005C060D081B1701084D
:104960001D000000A4C80B081113FF071100000070
:1049700098060D080C1901060F000000348B0D0875
:10498000140E010C16000000C4350E081412010CA0
:104990001600000080400D081416010816000000E3
:1049A000E49F0C08141501051600000084C60C08CD
:1049B0001413010C16000000D4060D08141501058F
:1049C00016000000C4C60C081414010816000000EC
:1049D00010070D08141701051600000068620C0886
:1049E00014130107170000004C070D081E0C010EE0
:1049F0001F00000064EF0D081413010717000000EA
:104A000088070D080F13010712000000888D0E089B
:104A10000F16010412000000F0350E080F180107F0
:104A20001200000094EF0D08141601041700000096
:104A300028A00C0814160104170000006CA00C0834
:104A40001416010417000000B0A00C08141A010489
:104A50001700000004110C08141B010417000000CB
:104A6000F0F10B081419010117000000D8280C08F8
:104A70000F17010310000000C4EF0D080D1601040C
:104A8000100000001C360E080F1901011000000074
:104A9000688B0D080D18010710000000F4EF0D08D9
:104AA0000F12010C11000000C0C20E080F0A011005
:104AB00011000000CC340F080F1301071100000093
:104AC000B08D0E080F12010C11000000E4C20E0898
:104AD0000F1101091100000008C30E08110DFF0D90
:104AE00011000000D88D0E080C14010B0F000000FF
:104AF000008E0E080A1201080C0000002CC30E08DC
:104B00000C0801140D00000058450F080C10010C92
:104B10000D00000078E40E080C0E010E0D000000E0
:104B200088050F08090F00100A00000098E40E081D
:104B3000090E00110A000000A4050F080913000C5B
:104B40000A000000288E0E08091700080A0000005D
:104B500024F00D08091900060A0000009C8B0D08BE
:104B60000914000B0A000000508E0E080913000CF7
:104B70000A000000788E0E08091600090A000000DD
:104B800048360E08140E010C1600000074360E088C
:104B9000160E000C17000000A0360E08140E010CB3
:104BA00016000000CC360E080913000C0A000000A5
:104BB000A08E0E081413010C16000000C4070D0887
:104BC0001413010C1600000000080D08170B001349
:104BD0001700000050C30E081712000C1700000049
:104BE000B8400D0806020018060000009E7C0F0861
:104BF0000A0C010E0C0000003C1E0F080B09FB0202
:104C000000000000E0340F080C09FA020000000068
:104C1000F4340F080504FE0500000000F4790F08C5
:104C20000708FD02000000003C6D0F080507FE05A7
:104C300000000000446D0F080302FF0700000000A1
:104C4000A07C0F080C05FA0600000000E8500F08D1
:104C50001A1B01041C000000703C0B081B1B000405
:104C600000000000DC3C0B080202FF07000000000F
:104C7000A27C0F080202FF0700000000A47C0F08BE
:104C80000704FD0500000000F8790F080706FC0581
:104C9000000000004C6D0F080C05FA1A000000001F
:104CA000F4500F080403FF0100000000FC790F0816
:104CB0000505000606000000546D0F0809050007F1
:104CC0000A00000000510F080905FB070000000062
:104CD0000C510F080606FD03000000005C6D0F0874
:104CE0001114FF060F0000003C080D080505FE1A10
:104CF00000000000646D0F080505FE0500000000BF
:104D00006C6D0F080202FF0700000000A67C0F0870
:104D10000706FC1900000000746D0F080A11010954
:104D20000C00000074C30E080912000D09000000F9
:104D300098C30E080707040E0E0000007C6D0F08D4
:104D4000051104090E00000008350F080C110109B7
:104D50000E000000BCC30E080D1100090E0000007B
:104D6000E0C30E080C10010A0E000000B8E40E08A3
:104D70000D1100090E00000004C40E08090F030BFA
:104D80000E000000D8E40E080D1101090E0000000D
:104D900028C40E080D1101090E0000004CC40E08B5
:104DA0000C1102090E00000070C40E081C14010B47
:104DB0001E00000054110C081B14010B1D00000004
:104DC000A4110C080C1601090F000000F8360E089B
:104DD000080D01110A00000068450F080E0E0011B1
:104DE0000F000000C0050F081114FF06110000009D
:104DF00078080D08120C01121400000094C40E086B
:104E00001213010B14000000B4080D08120D01125A
:104E100014000000C88E0E081211010E14000000CC
:104E2000D08B0D081210010E1400000054F00D0874
:104E3000120D011214000000F08E0E08120C010E6B
:104E400014000000B8C40E080C15010A0F00000081
:104E500024370E080C11010E0F000000DCC40E08F0
:104E60000A1A01050C000000048C0D080A11010E3D
:104E70000C00000000C50E080A0B00140900000019
:104E8000541E0F081C14010B1E000000F4110C0826
:104E90000C1601090F00000050370E080C1801070E
:104EA0000F00000084F00D080C1901060F0000002F
:104EB000388C0D081412010C16000000F0400D088B
:104EC0001413010C16000000F0080D08141301075C
:104ED000170000002C090D0814160104170000002B
:104EE000F4A00C081418010717000000B0620C08A9
:104EF0001013FE0C0F000000188F0E08100EFE118C
:104F00000F000000DC050F080F12010C110000005B
:104F100024C50E080F13010711000000408F0E0872
:104F20000F0E010C11000000F8050F081113010706
:104F30001000000068090D080813000C09000000AB
:104F40001C350F080812000D0900000030350F084D
:104F50001C14010B1E00000044120C080B0E020C66
:104F60000F00000014060F080D0E000C0F000000CB
:104F700030060F080E0E000C100000004C060F0843
:104F80000C0E010C0F00000068060F080C0E010C3F
:104F90000F00000084060F080F0E000C1100000027
:104FA000A0060F080A0E000C0C000000BC060F083B
:104FB0000B0E010C0E000000D8060F080D0E010CA0
:104FC00010000000F4060F080F10000A1000000087
:104FD000F8E40E081010000A1100000018E50E0891
:104FE000120E020C160000007C370E081113020C82
:104FF00015000000A4090D080E13000C100000009D
:10500000688F0E080E13000C10000000908F0E0821
:105010000B13010C0E000000B88F0E08120E000CCE
:1050200014000000A8370E08130E010C1600000033
:10503000D4370E08120E020C1500000000380E08BE
:105040000C0E010C0F00000010070F080C0E010CD5
:105050000F0000002C070F080B0E020C0F000000C1
:1050600048070F080E0E020C1200000064070F081C
:105070000B0E010C0E00000080070F080C0E020C36
:105080000F0000009C070F080C0E020C100000001F
:10509000B8070F080C14020610000000E08F0E087D
:1050A0000B0E020C10000000D4070F080B140206B0
:1050B0001000000008900E080E0E000C12000000F8
:1050C000F0070F080E1400061100000030900E08C3
:1050D0000D0E010C100000000C080F080B0E020C46
:1050E0000F00000028080F080A0E020C0E00000036
:1050F00044080F08090E010C0B00000060080F089F
:105100000A11020C0E00000048C50E080B0E020C1E
:105110000F0000007C080F080D11010C10000000AA
:105120006CC50E08090E010C0C00000098080F0851
:105130000D0F010B0F00000038E50E08100E020CD9
:1051400013000000B4080F080C0F020B0F00000042
:1051500058E50E080F0E000C11000000D0080F08D3
:105160001113000712000000E0090D080B0E020CDD
:105170000F000000EC080F080C0F020B0F000000DE
:1051800078E50E080A0E010C0D00000008090F0852
:10519000080E020C0B00000078450F080A05F806FF
:1051A0000000000018510F08090E010C0C0000004F
:1051B00024090F080F12FB080C00000090C50E0810
:1051C0000A04F30700000000846D0F080A05F306C7
:1051D0000000000024510F080A05F306000000003B
:1051E00030510F080A05F306000000003C510F087B
:1051F0000304FB1B00000000007A0F080704F71BE4
:1052000000000000047A0F080202FC1B00000000EE
:10521000A87C0F080C1602060F0000002C380E08A0
:10522000050E020C0800000088450F080C0E020C49
:105230000F00000040090F080A1401060C000000CE
:1052400058900E08091401060B00000080900E080B
:105250000C1400060D000000A8900E080911010CA6
:105260000C000000B4C50E080911010C0C00000070
:10527000D8C50E080807F604000000008C6D0F0862
:105280000104FC0700000000087A0F080704F70774
:10529000000000000C7A0F080904F7070000000066
:1052A000946D0F080303FC0800000000107A0F083B
:1052B0000705F906000000009C6D0F080404FB08B8
:1052C00000000000147A0F080507FA010000000032
:1052D000A46D0F080C0C010E0F0000006C1E0F08CF
:1052E0000C0B010F0F000000841E0F080D0B010FA7
:1052F000100000009C1E0F080D0E020C1100000093
:105300005C090F080E0B010F11000000B41E0F08FE
:10531000110F010B12000000B4F00D08110F010B6A
:1053200012000000E4F00D080E0F000B100000004A
:1053300098E50E08100E010C1300000078090F0804
:10534000100F010B13000000B8E50E08100E010C41
:105350001200000094090F080E0E010C110000004D
:10536000B0090F08170C020E1B000000FCC50E0848
:105370000D0E000C0C000000CC090F08110E000CE3
:105380001200000058380E08140E010C1600000020
:1053900084380E080C0E010C0D000000E8090F08FF
:1053A0000A0E010C0C000000040A0F080B0E020C80
:1053B0000E000000200A0F080C0E010C0E00000069
:1053C0003C0A0F08080E020C0B00000098450F085D
:1053D0000A0E000C0B000000580A0F080212020C03
:1053E0000600000044350F08070E000C09000000FD
:1053F000A8450F080A0E020C0C000000740A0F08E2
:10540000090E010C0B000000900A0F080C0E020C94
:1054100010000000AC0A0F080A0E020C0E0000007B
:10542000C80A0F080C0E010C0E000000E40A0F0859
:105430000A0E010C0C000000000B0F080E0C010DF1
:1054400010000000CC1E0F080E0A010E1000000014
:1054500058350F08100C000D10000000E41E0F0856
:10546000150E010C17000000B0380E08090E010CD3
:105470000B0000001C0B0F080C07010C0E000000B5
:10548000B8450F080C0701130E000000C8450F08AF
:105490000A0E020C0D000000380B0F080B0E000C5A
:1054A0000D000000540B0F080B0E000C0D00000047
:1054B000700B0F080C0E000C0C0000008C0B0F087A
:1054C0000A0E020C0E000000A80B0F080D0B020EB6
:1054D00011000000FC1E0F08110B010E140000004B
:1054E00020C60E080E12040A1500000044C60E085D
:1054F0000C0E000C0C000000C40B0F08130E000C67
:1055000013000000DC380E08090E010C0B0000002F
:10551000E00B0F08090E010C0B000000FC0B0F083C
:105520000B0E010C0D000000180C0F080F0E000CE4
:105530000F000000340C0F08080E020C0A000000D7
:10554000D8450F080D0E000C0C000000500C0F0881
:105550000A0E020C0E0000006C0C0F080A0E020C62
:105560000D000000880C0F080E0E020C1200000047
:10557000A40C0F080C0E000C0E000000C00C0F084D
:105580000B0D00080A000000DC0C0F08100D0008CD
:1055900010000000F80C0F08090D01080A000000B7
:1055A000140D0F080B0D00080A000000300D0F0845
:1055B0000A0D01080C0000004C0D0F08080D010831
:1055C0000A000000E8450F08080D01080A00000065
:1055D000F8450F080B0D01080C000000680D0F08BE
:1055E0000A0D01080B000000840D0F08060D0108CC
:1055F0000700000008460F08070D0008080000001B
:1056000018460F08090D01080A000000A00D0F0838
:10561000070D01080900000028460F080B0D0108BE
:105620000D000000BC0D0F080A0D01080B00000062
:10563000D80D0F080A0D01080B000000F40D0F082B
:105640000B0D01080D000000100E0F08090D0108D8
:105650000A0000002C0E0F08080D01080A000000C7
:1056600038460F080A0D01080B000000480E0F080D
:105670000A0D01080C000000640E0F080A0D010855
:105680000B000000800E0F080F0D00080F00000037
:105690009C0E0F080809010C0900000048510F0872
:1056A0000809010C0900000054510F080909010CF8
:1056B0000A0000006C350F080F09000C10000000F4
:1056C00080350F08090D01080A000000B80E0F0808
:1056D000090D01080A000000D40E0F080909010C89
:1056E0000A00000094350F080909000C0A000000A8
:1056F000A8350F080709010C0900000060510F08C8
:105700000709010C090000006C510F08090C010C7D
:105710000A000000141F0F08020C010C0400000016
:1057200078510F08090D010809000000F00E0F085C
:105730000E09000C0E000000BC350F08080C010C0F
:105740000A00000084510F080909010C0A0000003A
:10575000D0350F080709010C0900000090510F080F
:105760000905010C0A0000009C510F0809050110F1
:105770000A000000A8510F08090C010C0A000000E3
:105780002C1F0F08060C010907000000B4510F0878
:105790000809010C0A000000C0510F080908010C9B
:1057A0000B00000048460F080E09000C0E00000018
:1057B000E4350F080909000C08000000F8350F084F
:1057C0000A09000C0A0000000C360F080910010835
:1057D0000A000000D8E50E08080D000C08000000C3
:1057E00058460F08090D01080A0000000C0F0F08A9
:1057F0000C0C010C0D000000441F0F08090C000CDC
:10580000080000005C1F0F08020C011004000000DB
:10581000CC510F080509011306000000D8510F08EC
:10582000080901130A000000E4510F0809090013D8
:105830000800000020360F080910010F0A000000C0
:10584000F8E50E08080C001308000000F0510F08DE
:10585000090C01130A000000741F0F080C0D01123F
:105860000D000000280F0F08090C001308000000AD
:105870008C1F0F08130E020C1600000008390E08CA
:105880000F14FE060E000000D0900E080F14010643
:105890000E000000F8900E080B14FE060800000031
:1058A00020910E08170EFF0C1500000034390E0869
:1058B000100EFF0C0E000000440F0F080F13FE0C1B
:1058C0000E00000048910E080B0EFE0C09000000AF
:1058D000600F0F080B0EFE0C090000007C0F0F0874
:1058E000100EFE0C0C000000980F0F080A12FE08A4
:1058F0000800000068C60E080E0EFF0C0B0000002A
:10590000B40F0F080B13020C0E00000070910E086C
:10591000090C01070B000000A41F0F080B13010C5A
:105920000D00000098910E081416000616000000E5
:1059300038A10C08090E000C09000000D00F0F0858
:10594000090EFF0C06000000EC0F0F080D13010CF0
:105950000E000000C0910E080D0E010C0E0000009C
:1059600008100F08100E000C1000000024100F0883
:105970000B1902060E0000006C8C0D080D190106B3
:105980000E000000A08C0D08091900060800000098
:10599000D48C0D081213010C0E0000001C0A0D0817
:1059A0000B1902060C000000088D0D0806190006F0
:1059B0000600000040100F081413010C1500000031
:1059C000580A0D080C13020C0E000000E8910E0896
:1059D0000B13020C0E00000010920E080913000CAD
:1059E0000900000038920E080C13010C0B00000097
:1059F00060920E080E1901060E0000003C8D0D0885
:105A00000D13000C0D00000088920E080C13000C02
:105A10000C000000B0920E080913010C0B000000EE
:105A2000D8920E080E13010C0D00000000930E0812
:105A30000F13010C0E00000028930E081019010628
:105A40000E000000708D0D080F13010C0D000000FA
:105A500050930E080E13010C0B00000078930E08F3
:105A60000A13000C0B000000A0930E08130E010C8B
:105A70000D00000060390E0808180207060000003B
:105A8000BC1F0F080A13010C0C000000C8930E087D
:105A90000C1901060E000000A48D0D080E13020C57
:105AA0000E000000F0930E080A13000C0B0000001B
:105AB00018940E080809010C0A000000FC510F0898
:105AC0000709010C0900000008520F080809000C22
:105AD0000900000014520F08080D01080A00000018
