:020000040800F2
:1000000050D60020A14B0F086DD30A0887D30A08E9
:10001000A1D30A08BBD30A08D5D30A080000000000
:10002000000000000000000000000000E5330308AD
:10003000EFD30A08000000008933030811D40A082E
:10004000357B0F08397B0F083D7B0F08417B0F087C
:10005000457B0F08497B0F084D7B0F08517B0F082C
:10006000557B0F08597B0F085D7B0F08617B0F08DC
:10007000657B0F083FD40A08697B0F0843D40A0840
:1000800033D40A0837D40A086D7B0F08717B0F0838
:10009000757B0F08797B0F087D7B0F085BD40A08FE
:1000A000817B0F08857B0F08897B0F088D7B0F08EC
:1000B000917B0F08957B0F08997B0F089D7B0F089C
:1000C000A17B0F08A57B0F08A97B0F08AD7B0F084C
:1000D000B17B0F0823D40A082FD40A08B57B0F0878
:1000E000B97B0F08BD7B0F08C17B0F08C57B0F08CC
:1000F000C97B0F08CD7B0F08D17B0F08D57B0F087C
:1001000047D40A08D97B0F08DD7B0F08E17B0F0875
:100110003BD40A08E57B0F08E97B0F08ED7B0F084D
:10012000F17B0F08F57B0F0827D40A08F97B0F082D
:10013000FD7B0F08017C0F08057C0F08097C0F0868
:100140000D7C0F08117C0F08157C0F08197C0F0817
:100150001D7C0F08217C0F082BD40A08257C0F0872
:1001600053D40A0857D40A08297C0F082D7C0F089D
:10017000317C0F08357C0F08397C0F080000000027
:100180003D7C0F08417C0F08457C0F08497C0F0817
:100190004D7C0F08517C0F08557C0F08597C0F08C7
:1001A0004BD40A084FD40A085D7C0F08617C0F0805
:1001B000657C0F08697C0F086D7C0F08717C0F0847
:1001C000757C0F08797C0F080101001A08000000F7
:1001D000997D0F0802130307080000005C2F0F0829
:1001E000070701060A00000024690F081013010721
:1001F0001200000070530E080C1701070E000000DB
:10020000ACDA0D081613010718000000F8F40C080A
:10021000111301071100000034F50C080207010654
:10022000050000002C690F08071901060A000000EC
:1002300064F50E08071902060A00000080F50E0892
:100240000C0B01060E0000008C190F080E0E020B9D
:10025000120000009CF50E080508011708000000B8
:1002600034690F080702011109000000167D0F080C
:10027000030302170800000080790F080918000620
:100280000A000000DCDA0D080C1301070E00000064
:1002900098530E08081303070E000000702F0F0874
:1002A0000B1301070E000000C0530E080B130107CB
:1002B0000E000000E8530E080C1300070E000000AB
:1002C00010540E080B1302070E00000038540E08DD
:1002D0000C1301070E00000060540E080C130107F8
:1002E0000E00000088540E080C1301070E000000D9
:1002F000B0540E080C1301070E000000D8540E086D
:10030000030E030C0900000070420F080513020CD5
:1003100009000000842F0F080D0E020B12000000D0
:10032000B8F50E080E07020E1200000080420F08FA
:100330000D0E030B12000000D4F50E080A1301077E
:100340000C00000000550E081416020717000000EC
:10035000C09D0C080F1300070F00000028550E0861
:100360000C1302070F00000050550E080D13010773
:100370000F00000078550E080E1302071100000050
:10038000A0550E080B1302070E000000C8550E08FA
:100390000B1302070D000000F0550E080F130107A4
:1003A0001100000018560E080D130207110000007E
:1003B00040560E080613010709000000982F0F0889
:1003C000081300070A000000AC2F0F080D130207E6
:1003D0000F00000068560E080A1302070C00000008
:1003E00090560E080F13020713000000B8560E08AF
:1003F0000D13020711000000E0560E08101301074C
:100400001200000008570E080C1302070E0000002F
:1004100030570E0810180107120000000CDB0D0801
:100420000E1302071000000058570E080C130107A6
:100430000E00000080570E081013FF070F00000089
:10044000A8570E080C13020710000000D0570E0822
:100450000F1300070F000000F8570E0817130007CE
:100460001700000070F50C080F1300070F000000C4
:1004700020580E080E1300070E00000048580E0802
:100480000C1301070E00000070580E080619020632
:100490000A000000F0F50E08091801060A00000025
:1004A0003CDB0D08061901060A0000000CF60E08D8
:1004B0000F0A020712000000C02F0F080E02001CD6
:1004C0000E00000084790F08050503050E000000EA
:1004D0003C690F080A0E010C0D00000028F60E08FA
:1004E0000B1402060E00000098580E080A0E010CAC
:1004F0000C00000044F60E080B1401060E0000006C
:10050000C0580E080B0E010C0D00000060F60E081E
:100510000914000608000000E8580E080B13010C2F
:100520000E00000010590E080A1402060E0000000A
:1005300038590E080213020706000000D42F0F08D6
:100540000618FF0707000000A4190F080B14020685
:100550000C00000060590E0802140206060000009C
:10056000E82F0F08120E010C15000000A4240E083D
:100570000A0E020C0E0000007CF60E080C0E010C98
:100580000E00000098F60E080B13020C0E0000007F
:1005900088590E080B13010C0E000000B0590E080C
:1005A000070E020C0900000090420F080A0E010C11
:1005B0000B000000B4F60E08081200080800000046
:1005C000FC2F0F080A0E020C0E000000D0F60E08D9
:1005D0000C0E000C0C000000ECF60E08130E000CC4
:1005E00013000000D0240E080C0E000C0C000000BC
:1005F00008F70E080C13000C0C000000D8590E0868
:10060000090E010C0B00000024F70E080A19010660
:100610000C000000EC700D08021904060A0000002E
:1006200040F70E080A1901060C00000020710D08A1
:100630000E06020F12000000FC4E0F080101001A06
:10064000080000009A7D0F0802130307080000004D
:1006500010300F080B1601080E000000FC240E08D5
:100660000B1301070E000000005A0E080C0C010CC1
:100670000E000000BC190F080E1300070E0000004A
:10068000285A0E08021904060A0000005CF70E083A
:100690000B1801070E0000006CDB0D0807020308B1
:1006A0000E000000187D0F08151501071700000047
:1006B000BCC30C08090C01070C000000D4190F087A
:1006C0000B0C010C0E000000EC190F080E090211B2
:1006D0001200000024300F08070201110900000079
:1006E0001A7D0F081515010717000000FCC30C0840
:1006F0000E0200040E00000088790F0809090107A6
:100700000C00000038300F080E0F02091200000024
:10071000B0E00E08090B02070C000000041A0F08D5
:10072000080B02070C000000084F0F08050505051F
:100730000E00000044690F080A13020C0E000000AE
:10074000505A0E080B1701070E0000009CDB0D0825
:100750000303030C090000008C790F080605041A36
:100760000E0000004C690F08060B04070C00000087
:10077000144F0F080A0C01070C0000001C1A0F0888
:100780000B0C020C0E000000341A0F0814130207A1
:1007900019000000ACF50C08161302071900000040
:1007A000E8F50C08151302071900000024F60C08E0
:1007B0000A1301070C000000785A0E080F190001F7
:1007C0000F00000054710D080F1900010F00000008
:1007D00088710D080F1900010F000000BC710D0891
:1007E0000F1800020F000000CCDB0D080F160004EC
:1007F0000F00000028250E080F1900010F0000004F
:10080000F0710D08161300071700000060F60C08C1
:100810000D1801070F000000FCDB0D080B19020189
:100820000E00000024720D080B1902010E000000DA
:1008300058720D080B1902010E0000008C720D0891
:100840000B1702030E0000002CDC0D080619010135
:100850000900000078F70E080619010109000000E0
:1008600094F70E080819000109000000B0F70E08FF
:1008700006170103090000004C1A0F0810130007A7
:1008800011000000A05A0E080D180202110000000D
:100890005CDC0D081019010112000000C0720D0887
:1008A0001019010112000000F4720D081019010165
:1008B0001200000028730D08101801021200000039
:1008C0008CDC0D081017010312000000BCDC0D08C1
:1008D0000D0D030C12000000CCF70E0810150106D8
:1008E0001200000054250E080C190201100000002F
:1008F0005C730D080C1902011000000090730D08C4
:100900000C19020110000000C4730D080C1702033B
:1009100010000000ECDC0D080E1900010E000000B4
:10092000F8730D080A1302070E000000C85A0E08DB
:100930000B1402060E000000F05A0E080A150105FD
:100940000D00000080250E080A1501050D000000AD
:10095000AC250E080A1501050D000000D8250E086B
:100960000A1401060D000000185B0E080A120108A7
:100970000D00000078B90E080A1501050D000000F1
:1009800004260E08140E010C1600000030260E0876
:100990000A13010C0C000000405B0E080B1501054A
:1009A0000D0000005C260E080B1501050D0000006F
:1009B00088260E080B1501050D000000B4260E0850
:1009C0000B1201080D0000009CB90E08051500056A
:1009D00006000000641A0F08051502050600000055
:1009E0007C1A0F080615000506000000941A0F086F
:1009F00006130007060000004C300F080C13010717
:100A00000E000000685B0E080A1402060E000000CB
:100A1000905B0E080C1501050E000000E0260E0884
:100A20000C1501050E0000000C270E080C15010521
:100A30000E00000038270E080C1401060E000000FE
:100A4000B85B0E080C1201080E000000C0B90E08B9
:100A50000F0E020B12000000E8F70E080C10010B3D
:100A60000E000000D0E00E080A1502050E0000007E
:100A700064270E080A1502050E00000090270E08D4
:100A80000A1502050E000000BC270E080A12020813
:100A90000E000000E4B90E080C1A00050C0000005E
:100AA0002C740D080B1902060E00000060740D086E
:100AB0000C1700080C0000001CDD0D080F170003C8
:100AC0000F0000004CDD0D080A1301070D000000A7
:100AD000E05B0E080F1900010F00000094740D0870
:100AE0000A1401060D000000085C0E08101800072B
:100AF0000F0000007CDD0D080B13010C0D00000041
:100B0000305C0E080D1901010F000000C8740D08BB
:100B10000A1501050C000000E8270E080D19010157
:100B20000F000000FC740D080A1501050C00000000
:100B300014280E080D1701030F000000ACDD0D088E
:100B40000A1201080C00000008BA0E080D19010174
:100B50000F00000030750D080A1501050C0000009B
:100B600040280E080E1902011100000064750D08DE
:100B70001014010611000000585C0E081013000745
:100B800011000000805C0E080D1401060E0000002C
:100B9000A85C0E080B1702030E000000DCDD0D0838
:100BA0000B1301070D000000D05C0E080B190201A9
:100BB0000E00000098750D080B1401060D000000D2
:100BC000F85C0E080B1702030E0000000CDE0D0887
:100BD0000B1201080D0000002CBA0E080B180207BA
:100BE0000E0000003CDE0D080B13010C0D00000090
:100BF000205D0E080B1902010E000000CC750D08D7
:100C00000B1501050D0000006C280E080F190101DD
:100C10001100000000760D080B1A01050E000000FF
:100C200034760D080F1901011100000068760D08D7
:100C30000B1901060E0000009C760D080F1701032A
:100C4000110000006CDE0D080B1701080E000000FB
:100C50009CDE0D080F18010711000000CCDE0D0806
:100C60000B1A01050E000000D0760D080D190201C7
:100C70001100000004770D080A1902010E0000009F
:100C800038770D0812130007120000009CF60C08BC
:100C90000C1400060E000000485D0E080819000143
:100CA0000900000004F80E08061400060600000003
:100CB00060300F080818000209000000AC1A0F0885
:100CC000061300070600000074300F080619010122
:100CD0000900000020F80E080614000606000000B7
:100CE00088300F080618010709000000C41A0F0811
:100CF0000418010706000000DC1A0F08061701039C
:100D000009000000F41A0F08020E020C0600000091
:100D1000A0420F080F13010712000000705D0E08BB
:100D2000091802070D000000FCDE0D08091900017A
:100D30000A0000006C770D08081AFF050700000084
:100D40003CF80E080D1802070F0000002CDF0D08FC
:100D50000B1902060C000000A0770D080B0E020C08
:100D60000C00000058F80E080A1902010C000000DF
:100D7000D4770D08051902010600000074F80E086A
:100D80000A1802070C0000005CDF0D0805190106B7
:100D90000600000090F80E080A1402060C0000007D
:100DA000985D0E0808140206090000009C300F0828
:100DB0000A1302070C000000C05D0E0808140206AA
:100DC0000B000000B0300F080D1300070D000000ED
:100DD000E85D0E080614000607000000C4300F0886
:100DE0000D1902011100000008780D080A1502050E
:100DF0000E00000098280E080D18020711000000D0
:100E00008CDF0D080A13020C0E000000105E0E08A5
:100E10000D190201110000003C780D080A150205A9
:100E20000E000000C4280E081014FF061100000078
:100E3000385E0E080D18020711000000BCDF0D0817
:100E40000A13020C0E000000605E0E08101701036A
:100E500012000000ECDF0D080C1301070E0000006B
:100E6000885E0E08101901011200000070780D084C
:100E70000C1401060E000000B05E0E0810190101EE
:100E800012000000A4780D080C1501050E000000EA
:100E9000F0280E081613010718000000D8F60C08F9
:100EA000150E010C170000001C290E080E19020176
:100EB00010000000D8780D08071502050900000091
:100EC0000C1B0F080E180207100000001CE00D0894
:100ED0000813010C09000000D8300F080E19020198
:100EE000100000000C790D0808150205090000002B
:100EF000241B0F080C1901010E00000040790D0899
:100F00000A1501050B00000048290E080C19010103
:100F10000E00000074790D080A1501050B00000091
:100F200074290E080C1801070E0000004CE00D0893
:100F30000A13010C0B000000D85E0E080C19010109
:100F40000E000000A8790D080A1501050B0000002D
:100F5000A0290E081018FF070F0000007CE00D0804
:100F600008170008080000003C1B0F081019FF01BB
:100F70000F000000DC790D080C1400060C000000C6
:100F8000005F0E081013FF070F000000285F0E0817
:100F90000812000808000000EC300F080C180202CC
:100FA00010000000ACE00D080A1402060E0000005C
:100FB000505F0E080C17020310000000DCE00D0863
:100FC0000A1302070E000000785F0E080C190201D8
:100FD00010000000107A0D080A1402060E0000002E
:100FE000A05F0E080C19020110000000447A0D08E1
:100FF0000A1502050E000000CC290E080D19020189
:1010000010000000787A0D080A1502050E00000095
:10101000F8290E080C180207100000000CE10D085A
:101020000B13020C0E000000C85F0E081719000118
:10103000170000001C240C08131500051300000005
:101040003CC40C080E1900010E000000AC7A0D081B
:101050000C1A00050C000000E07A0D080E170003C2
:101060000E0000003CE10D080C1901010E0000000B
:10107000147B0D08091501050B000000242A0E0839
:101080000C1701030E0000006CE10D0809120108A5
:101090000B00000050BA0E080C1901010E000000F0
:1010A000487B0D08091501050B000000502A0E08A9
:1010B000061402060600000000310F080D14000699
:1010C0000E000000F05F0E08101300071100000072
:1010D00018600E080C1302070F00000040600E0895
:1010E0000B1402060E00000068600E080F130007C4
:1010F0000F00000090600E080D1400060E000000A6
:10110000B8600E080D1301070F000000E0600E0824
:10111000111501050F0000007CC40C080E11010917
:101120000C00000074BA0E08101300071100000034
:1011300008610E08121300071300000014F70C08D2
:101140000C1301070F00000030610E080B1401069C
:101150000E00000058610E080C13010C0E00000078
:1011600080610E080B1301070E000000A8610E0835
:101170001013010712000000D0610E080C130107C4
:101180000D000000F8610E080F18FE070D000000AA
:101190009CE10D080E1500070E0000007C2A0E08C9
:1011A0001315010511000000BCC40C080F1800073E
:1011B0000F000000CCE10D0812140206160000001A
:1011C00050F70C08021402060600000014310F0844
:1011D000081300070900000028310F080D1302074B
:1011E0000F00000020620E080B1402060C00000025
:1011F00048620E0806140006070000003C310F0884
:101200000C1400060C00000070620E081213020796
:10121000160000008CF70C081118FE0711000000E2
:10122000805C0C080A13020C0E00000098620E0885
:101230001013010712000000C0620E08121301070C
:1012400013000000C8F70C080D1101090E00000082
:1012500098BA0E081518010717000000C85C0C08A2
:101260000E13010C11000000E8620E0810130007B5
:101270001000000010630E080B1902060E0000009B
:101280007C7B0D080D1502070E000000A82A0E0831
:101290000C1301070E00000038630E080A0E000C44
:1012A0000B000000ACF80E080D1301070E00000043
:1012B00060630E080D1900060E000000B07B0D08DB
:1012C0000817000808000000541B0F080F13000740
:1012D0000F00000088630E080814000608000000D4
:1012E00050310F080E1800070F000000FCE10D0838
:1012F0001116020412000000049E0C080E110209CF
:101300000F000000BCBA0E08111301071200000004
:1013100004F80C080C13020710000000B0630E085C
:10132000111300071100000040F80C081118000705
:101330000C000000105D0C080C1301070E000000EB
:10134000D8630E08090E010C0B000000C8F80E0847
:101350000C1800070D0000002CE20D080C18010706
:101360000D0000005CE20D080A13010C0B000000E8
:1013700000640E080913010C0B00000028640E081D
:101380000B1301070E00000050640E080C13010738
:101390000E00000078640E080A0E000C0B0000001E
:1013A000E4F80E080B1200080C000000E0BA0E086A
:1013B0000B13020C0E000000A0640E0802190406B4
:1013C0000A00000000F90E08061902060A000000D3
:1013D0001CF90E080E19020612000000E47B0D082D
:1013E000021303070800000064310F081C190201F2
:1013F0001F00000030590B08191502051C000000E1
:1014000054F10B081715010519000000FCC40C0865
:1014100014130207180000007CF80C0811180207CA
:1014200015000000585D0C08081902060C000000A9
:1014300038F90E08171302071B000000B8F80C0853
:101440001318020717000000A05D0C08111802070E
:1014500015000000E85D0C080F1900010F000000E6
:10146000187C0D080A1501050D000000D42A0E088D
:10147000081900010900000054F90E080815FF05BD
:10148000060000006C1B0F0810190101120000007B
:101490004C7C0D080C1501050E000000002B0E08F9
:1014A0000C19020110000000807C0D080A150205CD
:1014B0000E0000002C2B0E080C1902011000000079
:1014C000B47C0D080A1602040E000000582B0E080A
:1014D0000C19020110000000E87C0D080A16020435
:1014E0000E000000842B0E080C19020110000000F1
:1014F0001C7D0D080A1802020E0000008CE20D0887
:101500000C19020110000000507D0D080A1602049B
:101510000E000000B02B0E080B0E010C0D00000099
:1015200070F90E080F1900010F000000847D0D08EE
:101530000A1601040D000000DC2B0E080F19000133
:101540000F000000B87D0D080A1601040D00000010
:10155000082C0E081617000317000000305E0C0858
:101560001413010716000000F4F80C08101301070B
:1015700011000000C8640E080C13010C0E000000DE
:10158000F0640E080F19010111000000EC7D0D0838
:101590000B1A01050E000000207E0D080D19020136
:1015A0000F000000547E0D080B1902010C00000012
:1015B000887E0D081018010712000000BCE20D081B
:1015C0000C13010C0E00000018650E08101C01031E
:1015D00012000000083E0D080C1801070E00000064
:1015E000ECE20D080C1E00010D00000030F90C08A3
:1015F0000A1A00050B000000BC7E0D08081AFF0542
:10160000070000008CF90E081C1302071F000000E1
:1016100068240C08191302071C000000B4240C08ED
:1016200017140106190000006CF90C080F190101CC
:1016300011000000F07E0D080B1A01050E000000DD
:10164000247F0D081513020719000000A8F90C08E3
:101650000B1802070E0000001CE30D080D19020113
:1016600011000000587F0D080A1502050E00000049
:10167000342C0E080F1900010F0000008C7F0D089C
:101680000A1701030D0000004CE30D0816190001B4
:101690001700000000250C081415010516000000B5
:1016A0003CC50C08101A010112000000C07F0D0893
:1016B0000C1601050E000000602C0E080F19000129
:1016C0000F000000F47F0D080B1500050D00000051
:1016D0008C2C0E080F1900010F00000028800D0847
:1016E0000A1401060D00000040650E080B190201E6
:1016F0000E0000005C800D080B1501050D000000B8
:10170000B82C0E080B1902010E00000090800D0885
:101710000B1401060D00000068650E080A19FE0191
:1017200009000000C4800D080A15FD050600000030
:10173000E42C0E080819000109000000A8F90E08A1
:101740000814FF060600000078310F081019010187
:1017500012000000F8800D080C1501050E000000B5
:10176000102D0E0810190101120000002C810D0827
:101770000C1401060E00000090650E080F190101FF
:101780001000000060810D080A1500050900000026
:101790003C2D0E080E1902011000000094810D0866
:1017A00008140206090000008C310F080C19020110
:1017B00010000000C8810D080B1501050E00000087
:1017C000682D0E080C19020110000000FC810D08A4
:1017D0000A1402060E000000B8650E080C18010776
:1017E0000E0000007CE30D080A13010C0B00000042
:1017F000E0650E081018FF070F000000ACE30D08AD
:101800000817000808000000841B0F080B180107C8
:101810000D000000DCE30D080A13000C0B000000B3
:1018200008660E080D1902011100000030820D0833
:101830000A1902010E00000064820D080D1802074B
:10184000100000000CE40D0812190106130000003E
:101850004C250C080D1301070F00000030660E0820
:101860000B1301070D00000058660E080D16010746
:101870000E000000942D0E080A11010C0B00000050
:1018800004BB0E080F1700030F0000003CE40D0816
:101890000A1201080D00000028BB0E080B180207F1
:1018A0000E0000006CE40D080B13010C0D0000008D
:1018B00080660E08101901011200000098820D08C0
:1018C0000C1601040E000000C02D0E0810190101B5
:1018D00012000000CC820D080C1701030E0000005E
:1018E0009CE40D081017010312000000CCE40D0861
:1018F0000C1201080E0000004CBB0E08101901016B
:101900001200000000830D080C1601040E000000F8
:10191000EC2D0E080E1700030E000000FCE40D086D
:101920000C1800070C0000002CE50D080A19010630
:101930000B00000034830D081113020C130000008B
:10194000E4F90C080B1200080B00000070BB0E0835
:101950000613FF0C07000000A0310F081414010645
:101960001600000020FA0C081413010C16000000E9
:101970005CFA0C08101600060F000000182E0E0866
:10198000101601060F000000442E0E080C1301096A
:101990000C000000A8660E080D13FF070C000000E5
:1019A000D0660E081116FF060F000000489E0C08B6
:1019B0000A13010C0B000000F8660E080913010C55
:1019C0000B00000020670E080D1400060E0000003A
:1019D00048670E080B1200070C00000094BB0E08AD
:1019E0000D1301070F00000070670E080E130107AA
:1019F0001000000098670E080F1300070F0000008A
:101A0000C0670E080B1802050E0000005CE50D080B
:101A10000B1801070D0000008CE50D0809130007E5
:101A20000A000000E8670E080718FF07070000001B
:101A30009C1B0F081318010712000000785E0C08A9
:101A40000F13010C0E00000010680E080F130107A1
:101A50001000000038680E08080E010C0900000094
:101A6000B0420F080E1300070E00000060680E0859
:101A70000C13000C0C00000088680E080A0E020C03
:101A80000D000000C4F90E080B0E010C0E00000042
:101A9000E0F90E080B0E020C0E000000FCF90E0817
:101AA0000B1402060E000000B0680E080A0E010CAE
:101AB0000C00000018FA0E080B0E000C0C000000C1
:101AC00034FA0E08101901060E00000068830D0894
:101AD000101401060E000000D8680E080B0E010C51
:101AE0000D00000050FA0E080B0E010C0D00000056
:101AF0006CFA0E08110E010C12000000702E0E0878
:101B00000A0E010C0B00000088FA0E080A0E000CE9
:101B10000B000000A4FA0E08100E000C10000000CC
:101B2000C0FA0E080B0E010C0D000000DCFA0E08C6
:101B30000913FF0C0800000000690E0810190106C7
:101B40000E0000009C830D080B13010C0E0000001A
:101B500028690E080B0E010C0D000000F8FA0E08A3
:101B60000C13000C0C00000050690E080F0E000C46
:101B70000F00000014FB0E080A13020C0E000000F8
:101B800078690E080A1402060E000000A0690E080B
:101B90000A1902060E000000D0830D080613000784
:101BA00006000000B4310F08020E020C060000000F
:101BB000C0420F08060E010C09000000D0420F08B9
:101BC0000A1400060A000000C8690E08071400067F
:101BD00007000000C8310F080619020606000000C1
:101BE00030FB0E080B1902060E00000004840D08DD
:101BF000120E010C150000009C2E0E081213010C91
:101C00001500000098FA0C081213010C15000000D2
:101C1000D4FA0C080F13FD0C0E000000F0690E083A
:101C20000E13020C0E000000186A0E080A0E020CB9
:101C30000E0000004CFB0E080C0E010C0E00000004
:101C400068FB0E08110E010C14000000C82E0E08CF
:101C5000100E010C1200000084FB0E080C19010686
:101C60000E00000038840D08070E000C090000006B
:101C7000E0420F080714000609000000DC310F08DD
:101C80000C13000C09000000406A0E080713020C38
:101C900009000000F0310F080713020C09000000D2
:101CA00004320F08070E020C09000000F0420F0872
:101CB0000713000C0900000018320F080B0E020C6D
:101CC0000D000000A0FB0E080B0E020C0D00000022
:101CD000BCFB0E080A13010C0B000000686A0E081A
:101CE0000C1901060E0000006C840D080C19FF068B
:101CF00008000000A0840D080C13010C0E00000069
:101D0000906A0E080D1900060E000000D4840D081C
:101D100008120008080000002C320F0808170008FD
:101D200008000000B41B0F080E0E000C0E0000008F
:101D3000D8FB0E080C0E020C10000000F4FB0E087D
:101D40000A0E020C0E00000010FC0E080C0E000C17
:101D50000C0000002CFC0E08130E000C13000000F9
:101D6000F42E0E080C1300070C000000B86A0E08D1
:101D70000B0E000C0B00000048FC0E080E13010CAB
:101D80000B000000E06A0E080D10010C0E000000B0
:101D9000F0E00E080A13000C0B000000086B0E08A0
:101DA0000B13000C0B000000306B0E080B14000628
:101DB0000C000000586B0E080B1401060C0000000C
:101DC000806B0E080B1400060C000000A86B0E08B8
:101DD0000B13010C0C000000D06B0E081013010750
:101DE00012000000F86B0E080A0E020C0D00000035
:101DF00064FC0E080B0E010C0D00000080FC0E08A8
:101E00000F1101090D000000B8BB0E080A0E020CEC
:101E10000E0000009CFC0E080A1800070A000000D3
:101E2000BCE50D080B13FF0C0C000000206C0E0825
:101E3000080E020C0A00000000430F0810190106EA
:101E40000E00000008850D080B1400060C000000B1
:101E5000486C0E080B1401060C000000706C0E0894
:101E6000141401061600000010FB0C0814190106DA
:101E70001600000098250C0818160106190000002D
:101E80008C9E0C081112000811000000403E0D0845
:101E90000F1900060E0000003C850D081112000805
:101EA00012000000783E0D08121900061400000010
:101EB000E4250C080E14020610000000986C0E08B1
:101EC0000B1402060E000000C06C0E080B13010775
:101ED0000C000000E86C0E080A1202080E00000058
:101EE000DCBB0E080F13000C11000000106D0E0873
:101EF0001313000C130000004CFB0C08080D010824
:101F00000A00000010430F08080D01080A00000035
:101F100020430F08051000080600000030430F089A
:101F20000509010C06000000204F0F080509000CF0
:101F3000060000002C4F0F08080C000C06000000E3
:101F4000384F0F080809010C09000000444F0F0822
:101F50000C09000C0C00000040320F08090C000CAA
:101F600009000000CC1B0F0805080207070000004D
:101F700054690F080A0801070C00000040430F08CD
:101F80000507FF06050000005C690F08050701064C
:101F90000500000064690F080507FF060500000042
:101FA0006C690F08040705050E00000074690F082E
:101FB000040705050E0000007C690F08070D0108E5
:101FC0000900000050430F08070D01080900000038
:101FD00060430F080D0E020B12000000B8FC0E0843
:101FE0000D0E030B12000000D4FC0E080E0D020CA7
:101FF00012000000F0FC0E080E0D020C1200000092
:102000000CFD0E08080503050E00000084690F088A
:10201000080503050E0000008C690F08020506057F
:102020000E00000094690F08090202070E0000006C
:1020300090790F08050505050E0000009C690F0842
:10204000050503050E000000A4690F080204061B25
:102050000E00000094790F080902021D0E00000016
:1020600098790F080505031A0E000000AC690F08E7
:102070000505061A0E000000B4690F08030E030CD4
:102080000900000070430F0803030311090000005A
:102090009C790F080407050F0E000000BC690F08AB
:1020A0000407050F0E000000C4690F0806040114A0
:1020B00008000000A0790F080604011408000000C1
:1020C000A4790F080604011408000000A8790F087D
:1020D000090202140E000000AC790F08080503067F
:1020E0000E000000CC690F08020206080E00000076
:1020F0001C7D0F08070703050E000000D4690F08B8
:102100000405041A0E000000DC690F080A04020628
:102110000E000000E4690F080A0503050E00000028
:10212000504F0F080705001108000000EC690F0868
:10213000080801070A000000F4690F08080C000CE9
:10214000080000005C4F0F08020D010804000000A9
:1021500080430F080709010C09000000684F0F08B1
:102160000709000C08000000744F0F08070D010854
:102170000900000090430F08061202080A00000040
:1021800054320F08061202080A00000068320F08D5
:10219000061202080A0000007C320F08061202082C
:1021A0000A00000090320F08061202080A00000020
:1021B000A4320F08060B010F08000000804F0F0823
:1021C000060B010F080000008C4F0F080805031ACA
:1021D0000E000000FC690F08070303070E00000053
:1021E000B0790F080A0701060A000000A0430F0893
:1021F0000503041B0E000000B4790F080503041B3F
:102200000E000000B8790F080305051A0E00000043
:10221000046A0F080305051A0E0000000C6A0F0877
:102220000404051B0E000000BC790F08050503110E
:102230000E000000146A0F080A0501110E000000CC
:10224000984F0F080A0503110E000000A44F0F0855
:102250000A04021B0E0000001C6A0F08030D03078E
:1022600009000000B0430F08050504070E00000038
:10227000246A0F08050505070E0000002C6A0F08E8
:10228000050504150E000000346A0F080505051544
:102290000E0000003C6A0F080905021A0E0000003B
:1022A000B04F0F080905021A0E000000BC4F0F08BE
:1022B0000607011808000000446A0F080505F70525
:1022C000000000004C6A0F080505F805000000003A
:1022D000546A0F080805FC05000000005C6A0F083E
:1022E0000A04F40100000000646A0F080902FB07F9
:1022F00000000000C0790F080E02F9040000000081
:10230000C4790F080805FC06000000006C6A0F087D
:102310000202FF08000000001E7D0F080802FC08F2
:1023200000000000207D0F080405050500000000E6
:10233000746A0F080707FC05000000007C6A0F089C
:102340000A05FB0500000000C84F0F080805FC0542
:1023500000000000846A0F080205FF05000000006D
:102360008C6A0F080505FE0500000000946A0F083E
:102370000A05FB0500000000D44F0F080807FC0405
:10238000000000009C6A0F080805FC060000000021
:10239000A46A0F080205FF0600000000AC6A0F08DF
:1023A0000205FF0600000000B46A0F080205FF06E0
:1023B00000000000BC6A0F080205010600000000D2
:1023C000C46A0F080505FD1A00000000CC6A0F085A
:1023D0000505FD1A00000000D46A0F080504FE1B65
:1023E00000000000C8790F080504FE1B0000000073
:1023F000CC790F080906FB0400000000E04F0F082D
:102400000406000300000000DC6A0F080204FF1B42
:1024100000000000D0790F080604FD1B000000003A
:10242000D4790F080604FD1B00000000D8790F08BE
:102430000604FD1B00000000DC790F080902FB1DEB
:1024400000000000E0790F080607FC1800000000FB
:10245000E46A0F080607001800000000EC6A0F0885
:102460000202061C00000000227D0F080802FC1D6D
:1024700000000000247D0F080404FE1B0000000083
:10248000E4790F080204FF1B00000000E8790F0840
:102490000605FD1A00000000F46A0F080405FE1A84
:1024A00000000000FC6A0F080204FF1B000000008F
:1024B000EC790F080904FB1B00000000046B0F08F7
:1024C0000903FC1C000000000C6B0F080804FC1B37
:1024D00000000000F0790F080804FC1B0000000059
:1024E000F4790F080804FC1B00000000F8790F08BD
:1024F0000804FC1B00000000FC790F080A04FB1B09
:1025000000000000146B0F080902FB1D0000000012
:10251000007A0F080E02F91C00000000047A0F0870
:102520000A04FB1B000000001C6B0F080A04FB0ED2
:1025300000000000246B0F080902FB1000000000DF
:10254000087A0F080E02F910000000000C7A0F083C
:102550000A09FB0D00000000B8320F080918FB063D
:1025600000000000ECE50D080204FF1B0000000065
:10257000107A0F080904FB1B000000002C6B0F08E9
:102580000404FE1B00000000147A0F080903FC1C61
:1025900000000000346B0F080606FD030000000079
:1025A0003C6B0F080206FF0400000000446B0F089C
:1025B0000E05F90100000000EC4F0F080A04FB06AD
:1025C000000000004C6B0F080205FF060000000031
:1025D000546B0F080905FC0500000000F84F0F08B8
:1025E0000304FE1B00000000187A0F080904FB0515
:1025F000000000005C6B0F080E04F91B00000000D7
:10260000646B0F080504FE1B000000001C7A0F0815
:102610000504FE1B00000000207A0F080A06FB05D7
:102620000000000004500F080A08FB03000000002F
:10263000C0430F080A06FB040000000010500F08FA
:102640000604FD1B00000000247A0F080604FD1B91
:1026500000000000287A0F081211F709000000009E
:1026600070850D080305FD05000000006C6B0F0868
:102670000407FE0500000000746B0F080807FC0447
:10268000000000007C6B0F080505FD1A000000002B
:10269000846B0F080305FF1A000000008C6B0F0805
:1026A0000305FE1A00000000946B0F080805FD1AD0
:1026B000000000009C6B0F080407FE0500000000EE
:1026C000A46B0F080202060800000000267D0F0818
:1026D0000504FE1B000000002C7A0F080704FD1BF8
:1026E00000000000307A0F080405FE06000000001C
:1026F000AC6B0F081305F61A00000000D0430F085A
:102700001305FE0600000000E0430F081302FE065A
:1027100000000000B46B0F081302FE1D0000000053
:10272000BC6B0F081304FE06000000001C500F08CD
:102730001305FE0600000000F0430F080E04FE1B08
:1027400000000000C46B0F080507FD040000000036
:10275000CC6B0F080607FD0400000000D46B0F08C7
:102760000109FF020000000028500F080607FD04C1
:1027700000000000DC6B0F080507FD0400000000EE
:10278000E46B0F080507FD0400000000EC6B0F0868
:10279000060AFD010000000034500F08050AFD0183
:1027A0000000000040500F080907FB040000000073
:1027B00000440F080307FE0400000000F46B0F083C
:1027C0000409FE02000000004C500F080507FD043C
:1027D00000000000FC6B0F080507FD04000000006E
:1027E000046C0F08040505050E0000000C6C0F08B2
:1027F0000404051B0E000000347A0F080304051BB7
:102800000E000000387A0F080A0E010C0C000000C0
:1028100028FD0E080A0E010C0C00000044FD0E08F5
:102820000A0E010C0C00000060FD0E080513020CDE
:1028300009000000CC320F08030505050E0000005A
:10284000146C0F08090502050E00000058500F080F
:102850000F1300070F000000386D0E080303030C70
:10286000090000003C7A0F08101300071100000057
:10287000606D0E08121300071400000088FB0C089E
:102880000A1300070C000000886D0E0813130007E0
:1028900014000000C4FB0C08121300071200000013
:1028A00000FC0C0814130007140000003CFC0C088A
:1028B0000815FF0506000000E41B0F080F130007B2
:1028C0000F000000B06D0E080C1302070F0000008F
:1028D000D86D0E080B1302070D000000006E0E08E5
:1028E0000F1300070F000000286E0E080B130207DD
:1028F0000E000000506E0E080C1301070E000000C1
:10290000786E0E080D13020711000000A06E0E086D
:102910001013010712000000C86E0E08061301070D
:1029200009000000E0320F080D1302070F0000003D
:10293000F06E0E080F1300070F000000186F0E084E
:102940000F13020713000000406F0E080D1302075B
:1029500011000000686F0E080C1301070E00000044
:10296000906F0E081013010712000000B86F0E08D8
:102970000D13020711000000E06F0E080C13020790
:102980000E00000008700E080D1301070E00000075
:1029900030700E081013FF070F00000058700E086B
:1029A0000E1300070E00000080700E0810130107C0
:1029B00013000000A8700E080F1300070F0000009E
:1029C000D0700E081013020714000000F8700E08F3
:1029D000111301071200000078FC0C080617010310
:1029E00009000000FC1B0F080E1700030E0000007A
:1029F0001CE60D080B1501050E000000202F0E0827
:102A00000A1501050B0000004C2F0E080A1A0205DA
:102A10000E000000A4850D08031502050600000045
:102A2000141C0F080A1502050E000000782F0E086E
:102A30000B0E010C0E0000007CFD0E080B190206A7
:102A40000E000000D8850D080C13000C0C000000CF
:102A500020710E080C1401060E00000048710E08CB
:102A60000A0E010C0B00000098FD0E080A19010661
:102A70000A0000000C860D080A13020C0E0000006C
:102A800070710E080C1401060E00000098710E08FB
:102A9000020E020C0600000010440F080A0E020C81
:102AA0000C000000B4FD0E080C1400060C00000021
:102AB000C0710E080A13020C0E000000E8710E0827
:102AC0000C0E000C0C000000D0FD0E080B190106C6
:102AD0000B00000040860D080C0E010C0E000000DB
:102AE000ECFD0E080A0E020C0E00000008FE0E0897
:102AF0000B13020C0E00000010720E080A13010CDA
:102B00000B00000038720E080E0E010C0F000000C2
:102B100024FE0E080C0E000C0C00000040FE0E08F7
:102B20000A0E020C0E0000005CFE0E081013010CD1
:102B30001200000060720E080C13000C0C00000064
:102B400088720E080E13020C12000000B0720E08FC
:102B5000100E010C1200000078FE0E08061300078C
:102B600006000000F4320F080A1202080E000000EE
:102B700000BC0E080C1501050E000000A42F0E0865
:102B80000A1502050E000000D02F0E0810150105D1
:102B900012000000FC2F0E080B1402060E000000AD
:102BA000D8720E080C1402060E00000000730E0806
:102BB0001213000711000000B4FC0C0816150005E4
:102BC000150000007CC50C0812170003110000005E
:102BD000C05E0C080C1901060E00000074860D087A
:102BE000100E010C1200000094FE0E080E13000CD3
:102BF0000E00000028730E081018010712000000D4
:102C00004CE60D080C13010C0E00000050730E086A
:102C10000D1801070F0000007CE60D080B13010CD6
:102C20000C00000078730E080B1302070D00000063
:102C3000A0730E080813020C0B00000008330F08E5
:102C40000F13010710000000C8730E080B140106D3
:102C50000D000000F0730E081218000713000000AA
:102C6000085F0C080D1900060E000000A8860D086C
:102C70001218020716000000505F0C081213010C16
:102C800015000000F0FC0C080D13010710000000F7
:102C900018740E080A1402060E00000040740E0894
:102CA0000D18020710000000ACE60D080D0E000C18
:102CB0000D000000B0FE0E080C1301070E0000000E
:102CC00068740E080C1401060E00000090740E08C3
:102CD0000F1300070F000000B8740E080F0E000C51
:102CE0000F000000CCFE0E081013010712000000B8
:102CF000E0740E080C0E010C0E000000E8FE0E0839
:102D00000C1300070C00000008750E080A140006DA
:102D10000A00000030750E080E0E000C0E000000B8
:102D200004FF0E080C13010C0E00000058750E086D
:102D30000A0E010C0C00000020FF0E080618FF0709
:102D4000070000002C1C0F081013010712000000E0
:102D500080750E080B0E010C0C0000003CFF0E08E5
:102D60000B0E000C0C00000058FF0E080A1302079F
:102D70000E000000A8750E080B1902060E000000D8
:102D8000DC860D080E13FF0C0E000000D0750E0837
:102D90000D1301070F000000F8750E080D13010751
:102DA0000F00000020760E080D1301070F00000031
:102DB00048760E080B1902010E00000010870D085E
:102DC0000B1702030E000000DCE60D0811130007CC
:102DD000120000002CFD0C080B1902010D00000070
:102DE00044870D080D1301070F00000070760E08D0
:102DF0000C1301070E00000098760E080613010759
:102E0000090000001C330F08061701030900000029
:102E1000441C0F08081300070A00000030330F0895
:102E2000191300071900000030260C0817130207B9
:102E30001900000068FD0C081113000712000000C3
:102E4000A4FD0C080D1902010F00000078870D0881
:102E50000D19020111000000AC870D080E180002C8
:102E60000E0000000CE70D080D170207110000000E
:102E70003CE70D080F1300070F000000C0760E0896
:102E80000C1302070F000000E8760E080C1302076F
:102E90000F00000010770E080B1302070D00000052
:102EA00038770E0810170007110000006CE70D08B6
:102EB0000B1302070E00000060770E0816130007C0
:102EC00016000000E0FD0C080C1300070D000000C8
:102ED00088770E080D13020711000000B0770E0866
:102EE0000D180202110000009CE70D080D130207E7
:102EF0000F000000D8770E080F1300071100000024
:102F000000780E080F1302071300000028780E083F
:102F10000D1302071100000050780E08101301076E
:102F20001200000078780E080D130207110000004F
:102F3000A0780E080C1302070E000000C8780E08D7
:102F40000D1301070F000000F0780E081013FF07A3
:102F50000F00000018790E080E1300070E00000085
:102F600040790E08101301071300000068790E085D
:102F70000F1300070F00000090790E080E170207CC
:102F800011000000CCE70D080D1301071000000030
:102F9000B8790E0814130207180000001CFE0C0874
:102FA0001617020718000000985F0C08111300079D
:102FB0001100000058FE0C08101302071400000056
:102FC000E0790E080D1302070F000000087A0E08C2
:102FD0000D1301070F000000307A0E0815130207C9
:102FE0001800000094FE0C080D1300070F000000ED
:102FF000587A0E080A0E010C0D00000074FF0E082E
:103000000C1401060E000000807A0E080A0E020C55
:103010000D00000090FF0E08080E020C0A000000D0
:1030200020440F080D11000C0E00000024BC0E08F7
:103030000B0E010C0D000000ACFF0E08120E000C70
:103040001200000028300E080A0E000C0B000000D1
:10305000C8FF0E080A0E020C0E000000E4FF0E0866
:103060000A1402060E000000A87A0E080A0E020CCE
:103070000C00000000000F080C0E000C0E000000F9
:103080001C000F080C0E020C1000000038000F0886
:103090000A0E020C0E00000054000F080C0E010C6A
:1030A0000E00000070000F080A0E020C0E00000057
:1030B0008C000F080B13020C0E000000D07A0E08D3
:1030C0000A0E010C0C000000A8000F080C0E000CEA
:1030D0000C000000C4000F080C13000C0C000000D2
:1030E000F87A0E0812190006130000007C260C085E
:1030F0000C0E000C0C000000E0000F080B11020C7D
:103100000E00000048BC0E080B0E010C0E00000063
:10311000FC000F08100E010C1300000018010F082E
:103120001111020C14000000E0870D080D0E000CB8
:103130000E00000034010F080D0E020C11000000FB
:1031400050010F080A0E020C0D0000006C010F0860
:103150000A0E010C0C00000088010F08100E020C72
:1031600013000000A4010F080B0E000C0D0000005E
:10317000C0010F080B1501050D00000054300E08AA
:103180000B1201080D0000006CBC0E080C190006A3
:103190000E00000014880D08081502050A00000042
:1031A0005C1C0F080A0E010C0C000000DC010F086B
:1031B0000A0E010C0B000000F8010F0802130207B1
:1031C0000600000044330F08061300070600000045
:1031D00058330F080618FF0707000000741C0F087B
:1031E000140E000C1500000080300E08120E020CA8
:1031F00015000000AC300E080C1400060E00000094
:10320000207B0E080A1502050C000000D8300E08BD
:103210000A1502050E00000004310E080C19000604
:103220000C00000048880D080A11020C0E00000076
:1032300090BC0E081B1301071D000000C8260C08D7
:10324000120E000C1200000030310E08101300079F
:1032500011000000487B0E080D1400060E0000004F
:10326000707B0E081213020715000000D0FE0C0838
:103270000E0E020C1100000014020F080F130007BD
:103280000F000000987B0E080C0E000C0C000000D4
:1032900030020F0812130207140000000CFF0C0884
:1032A0000F0E020C110000004C020F08141300074F
:1032B0001400000048FF0C080F0E000C0F00000067
:1032C00068020F08171302071900000084FF0C089A
:1032D000130E020C150000005C310E080B1E0101DC
:1032E0000D000000C0FF0C080A1A00050B000000CA
:1032F0007C880D081013020714000000C07B0E0824
:103300000E13020C12000000E87B0E0810130107D8
:1033100012000000107C0E080C0E010C0E000000C4
:1033200084020F081313000712000000FCFF0C08B2
:10333000100E000C0F000000A0020F08131900016E
:103340001200000014270C08101500050F000000E3
:1033500088310E081C1801071D000000C0890B08E9
:103360001813010C1900000038000D081315010690
:1033700015000000BCC50C080F10010B1100000067
:1033800010E10E08151901011700000060270C0854
:103390001117010313000000E05F0C081B17010365
:1033A0001D00000000C80B081212000812000000E7
:1033B000B03E0D080D1801070F000000FCE70D08D6
:1033C0000A13010C0C000000387C0E080C130007D7
:1033D0000C000000607C0E080805030600000000D9
:1033E0001C6C0F080903020700000000246C0F0882
:1033F00002050606000000002C6C0F0802050606F8
:1034000000000000346C0F080A04030610000000DE
:103410003C6C0F081816F40800000000D09E0C0841
:103420001818F4070000000028600C080F1C0202A6
:1034300011000000E83E0D080C1702060E00000007
:103440002CE80D080F1300070F000000887C0E0801
:103450000C1400060D000000B07C0E080D130207CE
:103460000E000000D87C0E080C13020C0E000000A9
:10347000007D0E080B1802020D0000005CE80D082C
:10348000081302070A0000006C330F080C13010731
:103490000D000000287D0E08090E010C0A00000036
:1034A000BC020F080B1802070E0000008CE80D0884
:1034B0000A13020C0D000000507D0E0816170007BD
:1034C0001700000070600C081211000C13000000BF
:1034D000B0880D080C1800070D000000BCE80D08AE
:1034E0000A13000C0B000000787D0E080E1702076F
:1034F00010000000ECE80D080A11020C0D0000009D
:10350000B4BC0E080D1302070F000000A07D0E08CA
:103510000A0E020C0C000000D8020F080F1300075F
:103520000F000000C87D0E080C1400060C000000FF
:10353000F07D0E08121300071200000074000D0841
:103540000E0E000C0E000000F4020F080F17020709
:10355000110000001CE90D080B11020C0E00000008
:10356000D8BC0E081213020714000000B0000D08AA
:103570000E0E020C1000000010030F0816180207B0
:1035800019000000B8600C081213020C15000000AE
:10359000EC000D08111401071200000028010D08AD
:1035A0000D0F010C0E00000030E10E080D18010790
:1035B0000F0000004CE90D080A13010C0C0000007C
:1035C000187E0E081017FF070F0000007CE90D0899
:1035D0000C11000C0C000000FCBC0E080E130007C0
:1035E0000E000000407E0E080C13000C0C000000C2
:1035F000687E0E080E1300070E000000907E0E0875
:103600000C13000C0C000000B87E0E080F1700070A
:103610000F000000ACE90D080C11000C0D000000BB
:1036200020BD0E08131700071400000000610C08ED
:103630000F11000C1000000044BD0E080F17010709
:1036400010000000DCE90D080C11010C0E00000058
:1036500068BD0E080D13010710000000E07E0E0883
:103660000B0E010C0E0000002C030F080C130207B8
:1036700010000000087F0E080A1402060E00000069
:10368000307F0E08141300071500000064010D08B8
:103690000F0E000C1000000048030F08141700075D
:1036A0001500000048610C080F11000C100000000C
:1036B0008CBD0E08061301070900000080330F08B7
:1036C0001619000116000000AC270C0812140006A1
:1036D00012000000A0010D080C1802070F000000E6
:1036E0000CEA0D080913020C0C000000587F0E08AC
:1036F000111700071100000090610C080E11000C5A
:103700000E000000B0BD0E080D18020711000000E9
:103710003CEA0D080A13020C0E000000807F0E0820
:103720000F170207110000006CEA0D080C11020CC3
:103730000E000000D4BD0E080D1701071000000098
:103740009CEA0D080B11010C0E000000F8BD0E08DC
:103750001117020713000000D8610C080E11020CAB
:10376000100000001CBE0E08021402060600000035
:1037700094330F080F1900010F000000E4880D08B2
:103780000A1401060D000000A87F0E080F160004A1
:103790000F000000B4310E080A1201080D000000ED
:1037A00040BE0E081613000717000000DC010D08CC
:1037B000140E010C16000000E0310E080B19020176
:1037C0000E00000018890D080B1401060D00000002
:1037D000D07F0E081013010712000000F87F0E08BA
:1037E0000B0E010C0D00000064030F0810160104FD
:1037F000120000000C320E080B1201080D00000030
:1038000064BE0E081616000416000000149F0C0873
:103810001212000812000000203F0D080C160004D0
:103820000D00000038320E080A1200080B000000DC
:1038300088BE0E080C1300070D00000020800E0843
:103840000A13000C0B00000048800E080D1702033D
:1038500011000000CCEA0D080A1302070E00000058
:1038600070800E080D1602041100000064320E086C
:103870000A1202080E000000ACBE0E081017010369
:1038800012000000FCEA0D080C1201080E000000F6
:10389000D0BE0E08101301071200000098800E0819
:1038A0000C0E010C0E00000080030F08101701031E
:1038B000120000002CEB0D080C1201080E00000095
:1038C000F4BE0E080D1601040F00000090320E0821
:1038D0000A1201080C00000018BF0E080E170003A2
:1038E0000E0000005CEB0D080C1800070C00000037
:1038F0008CEB0D080E1600040E000000BC320E0802
:103900000C1700080C000000BCEB0D080E1900019C
:103910000E0000004C890D080C1A00050C00000078
:1039200080890D080D16010410000000E8320E0811
:103930000B1201080E0000003CBF0E080B17020717
:103940000D000000ECEB0D080812020C0A0000004C
:10395000A8330F08101602041400000014330E08D8
:103960000D1202081100000060BF0E080D180007BC
:103970000D0000001CEC0D080A13000C0A000000EA
:10398000C0800E08101800070F0000004CEC0D0856
:103990000C13000C0C000000E8800E080F13000749
:1039A0000F00000010810E080C0E000C0C0000002F
:1039B0009C030F080D1300070F00000038810E084C
:1039C0000B1401060E00000060810E08151300079D
:1039D0001700000018020D0813140106160000005D
:1039E00054020D08141301071700000090020D087F
:1039F000120E010C1500000040330E080E170107CF
:103A00000F0000007CEC0D080B11010C0D000000F4
:103A100084BF0E081713000719000000CC020D0820
:103A2000140E000C160000006C330E08151302076C
:103A30001900000008030D08120E020C1600000009
:103A400098330E080F1301071100000088810E083B
:103A50000B0E010C0D000000B8030F081113000736
:103A60001300000044030D080F0E000C11000000AD
:103A7000D4030F080C1301070D000000B0810E08DD
:103A80000A0E010C0B000000F0030F080F180007CE
:103A900011000000ACEC0D080C13000C0E0000002F
:103AA000D8810E081018010712000000DCEC0D0888
:103AB0000B13010C0E00000000820E081713000704
:103AC0001700000080030D08130E000C1300000007
:103AD000C4330E08101302071200000028820E08DB
:103AE0000D1302071000000050820E08101300078B
:103AF0001000000078820E0811130007110000006A
:103B0000BC030D080D13020710000000A0820E0870
:103B10000D1301070F000000C8820E080C130207E6
:103B20000F000000F0820E080D13020710000000C5
:103B300018830E081213020714000000F8030D0882
:103B40000F1301071000000040830E080C1302073A
:103B50000F00000068830E080A1302070C00000023
:103B600090830E08121302071600000034040D089B
:103B70001013000710000000B8830E080C13020792
:103B800010000000E0830E080B1301070D00000079
:103B900008840E080E1300070F00000030840E0882
:103BA000111300071100000070040D080D13020727
:103BB0001100000058840E081013020712000000C4
:103BC00080840E080E13010710000000A8840E0860
:103BD0001013000711000000D0840E080D13010718
:103BE0000F000000F8840E080C13020710000000FC
:103BF00020850E080D1301070F00000048850E08F0
:103C00000F1300071100000070850E080D13010747
:103C10000F00000098850E08101302071200000024
:103C2000C0850E080C13020710000000E8850E087E
:103C30001113000711000000AC040D080F1300075A
:103C40001000000010860E080C1302070F00000081
:103C500038860E080F1301071100000060860E0859
:103C60000A1302070D00000088860E0810130107D2
:103C700013000000B0860E080E1300070F000000AE
:103C8000D8860E08101301071200000000870E08E6
:103C90000F1300071000000028870E080205010618
:103CA00005000000446C0F08020501060500000035
:103CB0004C6C0F080505010608000000546C0F0845
:103CC000070A01060900000064500F0805050106F7
:103CD000080000005C6C0F080706010609000000E0
:103CE000646C0F080A0601030C00000070500F08F6
:103CF000110E020C15000000F0330E080A13020C1E
:103D00000E00000050870E080E13010C0F0000007B
:103D100078870E080D13020C0F000000A0870E0814
:103D20000A1402060E000000C8870E080E13010CCC
:103D30000F000000F0870E080A1402060D000000B4
:103D400018880E080A13020C0E00000040880E08A6
:103D50000F13020C1100000068880E080E140106F3
:103D60000F00000090880E080A1902060E000000DD
:103D7000B4890D080613020C08000000BC330F08BC
:103D80001219020616000000F8270C080D1401068F
:103D90000E000000B8880E080A1902060E00000086
:103DA000E8890D080A1402060E000000E0880E08DB
:103DB0000A1401060C00000008890E080D13020CFD
:103DC0000F00000030890E080B1401060C000000E3
:103DD00058890E080D1402060F00000080890E0895
:103DE0000613000C08000000D0330F080D14000665
:103DF0000F000000A8890E080A13000C0B00000039
:103E0000D0890E080A0E020C0E0000000C040F08E8
:103E10000A13000C0B000000F8890E081113020CA5
:103E200015000000E8040D080B13000C0C00000046
:103E3000208A0E080B0E020C0E00000028040F084A
:103E40000A0E020C0E00000044040F080D190206B1
:103E50000F0000001C8A0D08110E020C1500000056
:103E60001C340E080A13020C0E000000488A0E08CB
:103E70000B13010C0E000000708A0E08080E020CD5
:103E80000A00000030440F08111902061500000056
:103E900044280C080E13000C0F000000988A0E082E
:103EA0000C0E010C0E00000060040F081019000633
:103EB00011000000508A0D080D1402060F000000CA
:103EC000C08A0E08030E030C0900000040440F08CE
:103ED0000703011009000000407A0F080505FE1ACB
:103EE000000000006C6C0F080803FC0600000000D6
:103EF000447A0F080306FE0300000000746C0F08EC
:103F00000205FF04000000007C6C0F080405FE049D
:103F100000000000846C0F080405FE1A0000000079
:103F20008C6C0F080303FF0600000000487A0F089E
:103F30000704FC05000000004C7A0F080405FC048F
:103F400000000000946C0F080303001B0000000039
:103F5000507A0F080405FE1A000000009C6C0F0840
:103F60000405FE0400000000A46C0F080405000412
:103F700000000000AC6C0F080805FC040000000005
:103F8000B46C0F080E06F903000000007C500F0807
:103F90000606000300000000BC6C0F080405FE04C8
:103FA00000000000C46C0F080505FE1A00000000A8
:103FB000CC6C0F080304FF1B00000000547A0F08AC
:103FC0000303FE1B00000000587A0F080405FE1AC8
:103FD00000000000D46C0F080805FC1A0000000067
:103FE000DC6C0F080305FE1A00000000E46C0F08EB
:103FF0000405FE0400000000EC6C0F080606FA033E
:1040000000000000F46C0F080505FE1A0000000017
:10401000FC6C0F080303FE06000000005C7A0F082A
:104020000304FF0500000000607A0F080405001A71
:1040300000000000046D0F080704F90500000000EF
:10404000647A0F080303FE0600000000687A0F0878
:104050000205061A000000000C6D0F080805031A7F
:1040600000000000146D0F080605041A000000008F
:104070001C6D0F080605041A00000000246D0F08CF
:104080000202061B00000000287D0F080502041B29
:10409000000000002A7D0F080505051A0000000039
:1040A0002C6D0F080301051B000000009B7D0F080D
:1040B0000503041B000000006C7A0F0802020608CA
:1040C000000000002C7D0F08020203070000000022
:1040D0002E7D0F080805031A00000000346D0F083C
:1040E0000202061200000000307D0F080103061BCB
:1040F00000000000707A0F080602020B0A000000A0
:10410000327D0F0803010508000000009C7D0F08A8
:104110000213020906000000E4330F080202060839
:1041200000000000347D0F080202FF0800000000BC
:10413000367D0F08030F030B0900000050440F08E1
:104140000202010700000000387D0F080202FF1C78
:10415000000000003A7D0F080710020A0A00000064
:1041600060440F080504FD1B00000000747A0F086E
:104170000D0F020B1100000050E10E080E0F010B95
:104180001000000070E10E080C0F000B0C00000086
:1041900090E10E080D0F010B0F000000B0E10E08BA
:1041A0000D0F020B11000000D0E10E08050F000BEF
:1041B0000700000070440F08070F010B0800000003
:1041C00080440F080D0F020B11000000F0E10E08F3
:1041D0000D0F020B1100000010E20E080508000B85
:1041E000070000003C6D0F080E14000B10000000CB
:1041F000E88A0E080D0F010B1000000030E20E08D7
:104200000D14010610000000108B0E080D0F020B9C
:104210001100000050E20E080E0F010B110000000B
:1042200070E20E080714000B09000000F8330F08B5
:10423000070F010B0A00000090440F08100F000B3D
:104240001200000090E20E080D11010B100000009A
:10425000A8BF0E080E14010B11000000388B0E08C9
:104260000D0F010B10000000B0E20E080B14000B44
:104270000C000000608B0E080D0F010B0F000000FA
:10428000D0E20E080D14020B11000000888B0E08FE
:104290000C0F000B0E000000F0E20E08110F020BD5
:1042A000140000000CED0D08100F000B12000000B0
:1042B00010E30E080C0F000B0E00000030E30E0898
:1042C0000C0F000B0E00000050E30E080C08000B52
:1042D0000E000000A0440F080507010605000000BD
:1042E000446D0F080A0701060A000000B0440F08D9
:1042F0001205011A14000000C0440F082505011A18
:10430000270000007C040F081D0700181E00000095
:1043100098040F0817070118190000008C1C0F08DB
:1043200010170108120000003CED0D0803070313ED
:10433000090000004C6D0F08070701180800000075
:10434000546D0F081D0701131D000000B4040F0871
:104350000C12010D0F000000CCBF0E080705FC0277
:10436000000000005C6D0F080705FC020000000063
:10437000646D0F080706FC02000000006C6D0F085A
:104380000907FB0100000000D0440F080904FC02EB
:1043900000000000746D0F08060701130000000004
:1043A0007C6D0F08030E030C09000000E0440F08A9
:1043B0000605011508000000846D0F080A130107A7
:1043C0000C000000B08B0E08070901110A00000064
:1043D00088500F080616000406000000A41C0F08F1
:1043E0000419010106000000D0040F080915000A95
:1043F0000A00000048340E080418010706000000F7
:10440000BC1C0F08140F010B160000006CED0D080A
:1044100002130207060000000C340F08120C0112F0
:1044200014000000F0BF0E080A1101090C00000082
:1044300014C00E08120C010E1400000038C00E0843
:10444000120F010B140000009CED0D080C11010E61
:104450000F0000005CC00E080C11010E0F000000E0
:1044600080C00E080C14010B0F000000D88B0E0842
:104470000A0C010E0C000000D41C0F080A10010ADF
:104480000C00000070E30E08080B00140900000087
:1044900094500F080810000F09000000F0440F08A6
:1044A0001C0E01111E000000583F0D081C14010BCA
:1044B0001E000000CC0F0C081B0F01101D00000097
:1044C00024050D081B14010B1D0000001C100C0816
:1044D0001113FF071100000060050D081113FF07FD
:1044E000110000009C050D080C12010D0F000000CA
:1044F000A4C00E080C1601090F00000074340E0849
:104500000702FF18060000003C7D0F081412010886
:1045100016000000903F0D0814150107160000005A
:10452000FCC50C080F13010712000000008C0E08D8
:104530000D13010710000000288C0E08100EFE114C
:104540000F000000EC040F080F0E010C110000001A
:1045500008050F080A0C010E0C000000EC1C0F08E7
:10456000090F00100A00000090E30E08140E010C61
:1045700016000000A0340E081412010C16000000F2
:10458000C83F0D080704000500000000787A0F08F6
:1045900008050001000000008C6D0F080704001AD8
:1045A000000000007C7A0F080702000400000000F1
:1045B0003E7D0F080605000100000000946D0F0805
:1045C0000702001C00000000407D0F0807050101E4
:1045D000000000009C6D0F080505000200000000AF
:1045E000A46D0F080602000400000000427D0F08C1
:1045F0000404010200000000807A0F080404011B7B
:1046000000000000847A0F080105FF1A0000000076
:10461000AC6D0F080605FD0100000000B46D0F0829
:104620000403FE0300000000887A0F080501FD095D
:10463000000000009D7D0F0805030004000000003D
:104640008C7A0F080704000300000000907A0F081E
:104650000202FF1C00000000447D0F080605000157
:1046600000000000BC6D0F080503000300000000FF
:10467000947A0F080707040E0E000000C46D0F089F
:10468000051104090E00000020340F080C11010967
:104690000E000000C8C00E080D1100090E00000039
:1046A000ECC00E080B1102090E00000010C10E082C
:1046B0000D0E010C0E00000024050F080C1101095D
:1046C0000E00000034C10E080D1101090E0000009B
:1046D00058C10E080D1101090E0000007CC10E0822
:1046E0000C1102090E000000A0C10E080D110109F5
:1046F0000E000000C4C10E080307031709000000E4
:10470000CC6D0F080307031309000000D46D0F08D8
:104710000C0C010C0E000000041D0F081208011201
:10472000140000001C1D0F081410010C16000000DE
:10473000CCED0D080108FF0100000000DC6D0F0842
:104740000618000206000000341D0F0806180002BB
:10475000060000004C1D0F080618000706000000A8
:10476000641D0F080404010206000000987A0F0877
:10477000071302070600000034340F080A15000A68
:104780000A000000CC340E080B15FF0A0A000000D6
:10479000F8340E081614010616000000D8050D089E
:1047A0001211010914000000848A0D08120F010B78
:1047B00014000000FCED0D08120D011214000000A1
:1047C000508C0E081210010E140000002CEE0D0883
:1047D000120E010C1400000024350E08120D0112F7
:1047E00014000000788C0E08120F010B140000005A
:1047F0005CEE0D08120D011214000000A08C0E08D2
:104800000C1701080F0000008CEE0D080C180107B2
:104810000F000000BCEE0D080C11010E0F0000008F
:10482000E8C10E080C11010E0F0000000CC20E08AA
:104830000C1801070F000000ECEE0D080C11010E22
:104840000F00000030C20E080C11010E0F00000016
:1048500054C20E080A1501050C00000050350E0860
:104860000A10010E0C000000B0E30E080A10010E41
:104870000C000000D0E30E080A1901050C0000002E
:10488000B88A0D080A10010A0C000000F0E30E08B7
:104890000A10010E0C00000010E40E080A130107B4
:1048A0000C000000C88C0E080A1301070C00000061
:1048B000F08C0E080A1301070C000000188D0E087A
:1048C00008160009090000007C1D0F080811000EE1
:1048D0000900000048340F080B0B00140900000009
:1048E000941D0F08090B001409000000AC1D0F08EF
:1048F0000C0B001409000000C41D0F08090B001464
:1049000009000000DC1D0F080810000F090000005E
:1049100000450F080813000C090000005C340F0864
:104920000813000C0900000070340F081C11010E60
:104930001E000000589F0C081C0E01111E000000F4
:1049400000400D081C14010B1E0000006C100C0828
:104950001B0F01101D00000014060D081B17010895
:104960001D0000005CC80B081113FF0711000000B8
:1049700050060D080C1901060F000000EC8A0D0806
:10498000140E010C160000007C350E081412010CE8
:104990001600000038400D0814160108160000002B
:1049A0009C9F0C0814150105160000003CC60C085D
:1049B0001413010C160000008C060D0814150105D7
:1049C000160000007CC60C08141401081600000034
:1049D000C8060D08141701051600000020620C0817
:1049E000141301071700000004070D081E0C010E28
:1049F0001F0000001CEF0D08141301071700000032
:104A000040070D080F13010712000000408D0E082B
:104A10000F16010412000000A8350E080F18010738
:104A2000120000004CEF0D081416010417000000DE
:104A3000E09F0C08141601041700000024A00C08C5
:104A4000141601041700000068A00C08141A0104D1
:104A500017000000BC100C08141B01041700000014
:104A6000A8F10B08141901011700000090280C0888
:104A70000F170103100000007CEF0D080D16010454
:104A800010000000D4350E080F19010110000000BD
:104A9000208B0D080D18010710000000ACEF0D0869
:104AA0000F12010C1100000078C20E080F0A01104D
:104AB0001100000084340F080F13010711000000DB
:104AC000688D0E080F12010C110000009CC20E0828
:104AD0000F11010911000000C0C20E08110DFF0DD9
:104AE00011000000908D0E080C14010B0F00000047
:104AF000B88D0E080A1201080C000000E4C20E086E
:104B00000C0801140D00000010450F080C10010CDA
:104B10000D00000030E40E080C0E010E0D00000028
:104B200040050F08090F00100A00000050E40E08AD
:104B3000090E00110A0000005C050F080913000CA3
:104B40000A000000E08D0E08091700080A000000A6
:104B5000DCEF0D08091900060A000000548B0D084F
:104B60000914000B0A000000088E0E080913000C3F
:104B70000A000000308E0E08091600090A00000025
:104B800000360E08140E010C160000002C360E081C
:104B9000160E000C1700000058360E08140E010CFB
:104BA0001600000084360E080913000C0A000000ED
:104BB000588E0E081413010C160000007C070D0817
:104BC0001413010C16000000B8070D08170B001392
:104BD0001700000008C30E081712000C1700000091
:104BE00070400D080602001806000000467D0F0800
:104BF0000A0C010E0C000000F41D0F080B09FB024B
:104C00000000000098340F080C09FA0200000000B0
:104C1000AC340F080504FE05000000009C7A0F0864
:104C20000708FD0200000000E46D0F080507FE05FF
:104C300000000000EC6D0F080302FF0700000000F9
:104C4000487D0F080C05FA0600000000A0500F0870
:104C50001A1B01041C000000283C0B081B1B00044D
:104C600000000000943C0B080202FF070000000057
:104C70004A7D0F080202FF07000000004C7D0F086C
:104C80000704FD0500000000A07A0F080706FC05D8
:104C900000000000F46D0F080C05FA1A0000000077
:104CA000AC500F080403FF0100000000A47A0F08B5
:104CB0000505000606000000FC6D0F080905000749
:104CC0000A000000B8500F080905FB0700000000AB
:104CD000C4500F080606FD0300000000046E0F0814
:104CE0001114FF060F000000F4070D080505FE1A59
:104CF000000000000C6E0F080505FE050000000016
:104D0000146E0F080202FF07000000004E7D0F081E
:104D10000706FC19000000001C6E0F080A110109AB
:104D20000C0000002CC30E080912000D0900000041
:104D300050C30E080707040E0E000000246E0F0873
:104D4000051104090E000000C0340F080C11010900
:104D50000E00000074C30E080D1100090E000000C3
:104D600098C30E080C10010A0E00000070E40E0833
:104D70000D1100090E000000BCC30E08090F030B43
:104D80000E00000090E40E080D1101090E00000055
:104D9000E0C30E080D1101090E00000004C40E0846
:104DA0000C1102090E00000028C40E081C14010B8F
:104DB0001E0000000C110C081B14010B1D0000004C
:104DC0005C110C080C1601090F000000B0360E082B
:104DD000080D01110A00000020450F080E0E0011F9
:104DE0000F00000078050F081114FF0611000000E5
:104DF00030080D08120C0112140000004CC40E08FB
:104E00001213010B140000006C080D08120D0112A2
:104E100014000000808E0E081211010E1400000014
:104E2000888B0D081210010E140000000CF00D0804
:104E3000120D011214000000A88E0E08120C010EB3
:104E40001400000070C40E080C15010A0F000000C9
:104E5000DC360E080C11010E0F00000094C40E0881
:104E60000A1A01050C000000BC8B0D080A11010E86
:104E70000C000000B8C40E080A0B00140900000062
:104E80000C1E0F081C14010B1E000000AC110C08B6
:104E90000C1601090F00000008370E080C18010756
:104EA0000F0000003CF00D080C1901060F00000077
:104EB000F08B0D081412010C16000000A8400D081C
:104EC0001413010C16000000A8080D0814130107A4
:104ED00017000000E4080D08141601041700000074
:104EE000ACA00C08141801071700000068620C0839
:104EF0001013FE0C0F000000D08E0E08100EFE11D5
:104F00000F00000094050F080F12010C11000000A3
:104F1000DCC40E080F13010711000000F88E0E0804
:104F20000F0E010C11000000B0050F08111301074E
:104F30001000000020090D080813000C09000000F3
:104F4000D4340F080812000D09000000E8340F08DF
:104F50001C14010B1E000000FC110C080B0E020CAF
:104F60000F000000CC050F080D0E000C0F00000014
:104F7000E8050F080E0E000C1000000004060F08D4
:104F80000C0E010C0F00000020060F080C0E010C87
:104F90000F0000003C060F080F0E000C110000006F
:104FA00058060F080A0E000C0C00000074060F08CB
:104FB0000B0E010C0E00000090060F080D0E010CE8
:104FC00010000000AC060F080F10000A10000000CF
:104FD000B0E40E081010000A11000000D0E40E0822
:104FE000120E020C1600000034370E081113020CCA
:104FF000150000005C090D080E13000C10000000E5
:10500000208F0E080E13000C10000000488F0E08B1
:105010000B13010C0E000000708F0E08120E000C16
:105020001400000060370E08130E010C160000007B
:105030008C370E08120E020C15000000B8370E084F
:105040000C0E010C0F000000C8060F080C0E010C1E
:105050000F000000E4060F080B0E020C0F0000000A
:1050600000070F080E0E020C120000001C070F08AC
:105070000B0E010C0E00000038070F080C0E020C7E
:105080000F00000054070F080C0E020C1000000067
:1050900070070F080C14020610000000988F0E080D
:1050A0000B0E020C100000008C070F080B140206F8
:1050B00010000000C08F0E080E0E000C1200000041
:1050C000A8070F080E14000611000000E88F0E0854
:1050D0000D0E010C10000000C4070F080B0E020C8F
:1050E0000F000000E0070F080A0E020C0E0000007F
:1050F000FC070F08090E010C0B00000018080F0830
:105100000A11020C0E00000000C50E080B0E020C66
:105110000F00000034080F080D11010C10000000F2
:1051200024C50E08090E010C0C00000050080F08E1
:105130000D0F010B0F000000F0E40E08100E020C22
:10514000130000006C080F080C0F020B0F0000008A
:1051500010E50E080F0E000C1100000088080F0863
:10516000111300071200000098090D080B0E020C25
:105170000F000000A4080F080C0F020B0F00000026
:1051800030E50E080A0E010C0D000000C0080F08E3
:10519000080E020C0B00000030450F080A05F80647
:1051A00000000000D0500F08090E010C0C00000098
:1051B000DC080F080F12FB080C00000048C50E08A1
:1051C0000A04F307000000002C6E0F080A05F3061E
:1051D00000000000DC500F080A05F3060000000084
:1051E000E8500F080A05F30600000000F4500F080D
:1051F0000304FB1B00000000A87A0F080704F71B3C
:1052000000000000AC7A0F080202FC1B0000000046
:10521000507D0F080C1602060F000000E4370E0840
:10522000050E020C0800000040450F080C0E020C91
:105230000F000000F8080F080A1401060C00000017
:1052400010900E08091401060B00000038900E089B
:105250000C1400060D00000060900E080911010CEE
:105260000C0000006CC50E080911010C0C000000B8
:1052700090C50E080807F60400000000346E0F0801
:105280000104FC0700000000B07A0F080704F707CC
:1052900000000000B47A0F080904F70700000000BE
:1052A0003C6E0F080303FC0800000000B87A0F08EA
:1052B0000705F90600000000446E0F080404FB080F
:1052C00000000000BC7A0F080507FA01000000008A
:1052D0004C6E0F080C0C010E0F000000241E0F086E
:1052E0000C0B010F0F0000003C1E0F080D0B010FEF
:1052F00010000000541E0F080D0E020C11000000DB
:1053000014090F080E0B010F110000006C1E0F088E
:10531000110F010B120000006CF00D08110F010BB2
:10532000120000009CF00D080E0F000B1000000092
:1053300050E50E08100E010C1300000030090F0894
:10534000100F010B1300000070E50E08100E010C89
:10535000120000004C090F080E0E010C1100000095
:1053600068090F08170C020E1B000000B4C50E08D8
:105370000D0E000C0C00000084090F08110E000C2B
:105380001200000010380E08140E010C1600000068
:105390003C380E080C0E010C0D000000A0090F088F
:1053A0000A0E010C0C000000BC090F080B0E020CC9
:1053B0000E000000D8090F080C0E010C0E000000B2
:1053C000F4090F08080E020C0B00000050450F08EE
:1053D0000A0E000C0B000000100A0F080212020C4B
:1053E00006000000FC340F08070E000C0900000046
:1053F00060450F080A0E020C0C0000002C0A0F0872
:10540000090E010C0B000000480A0F080C0E020CDC
:1054100010000000640A0F080A0E020C0E000000C3
:10542000800A0F080C0E010C0E0000009C0A0F08E9
:105430000A0E010C0C000000B80A0F080E0C010D3A
:1054400010000000841E0F080E0A010E100000005C
:1054500010350F08100C000D100000009C1E0F08E6
:10546000150E010C1700000068380E08090E010C1B
:105470000B000000D40A0F080C07010C0E000000FE
:1054800070450F080C0701130E00000080450F083F
:105490000A0E020C0D000000F00A0F080B0E000CA3
:1054A0000D0000000C0B0F080B0E000C0D0000008F
:1054B000280B0F080C0E000C0C000000440B0F080A
:1054C0000A0E020C0E000000600B0F080D0B020EFE
:1054D00011000000B41E0F08110B010E1400000093
:1054E000D8C50E080E12040A15000000FCC50E08EF
:1054F0000C0E000C0C0000007C0B0F08130E000CAF
:105500001300000094380E08090E010C0B00000077
:10551000980B0F08090E010C0B000000B40B0F08CC
:105520000B0E010C0D000000D00B0F080F0E000C2D
:105530000F000000EC0B0F08080E020C0A00000020
:1055400090450F080D0E000C0C000000080C0F0811
:105550000A0E020C0E000000240C0F080A0E020CAA
:105560000D000000400C0F080E0E020C120000008F
:105570005C0C0F080C0E000C0E000000780C0F08DD
:105580000B0D00080A000000940C0F08100D000815
:1055900010000000B00C0F08090D01080A000000FF
:1055A000CC0C0F080B0D00080A000000E80C0F08D7
:1055B0000A0D01080C000000040D0F08080D010879
:1055C0000A000000A0450F08080D01080A000000AD
:1055D000B0450F080B0D01080C000000200D0F084E
:1055E0000A0D01080B0000003C0D0F08060D010814
:1055F00007000000C0450F08070D00080800000064
:10560000D0450F08090D01080A000000580D0F08C9
:10561000070D010809000000E0450F080B0D010807
:105620000D000000740D0F080A0D01080B000000AA
:10563000900D0F080A0D01080B000000AC0D0F08BB
:105640000B0D01080D000000C80D0F08090D010821
:105650000A000000E40D0F08080D01080A00000010
:10566000F0450F080A0D01080B000000000E0F089E
:105670000A0D01080C0000001C0E0F080A0D01089D
:105680000B000000380E0F080F0D00080F0000007F
:10569000540E0F080809010C0900000000510F0802
:1056A0000809010C090000000C510F080909010C40
:1056B0000A00000024350F080F09000C100000003C
:1056C00038350F08090D01080A000000700E0F0898
:1056D000090D01080A0000008C0E0F080909010CD1
:1056E0000A0000004C350F080909000C0A000000F0
:1056F00060350F080709010C0900000018510F0858
:105700000709010C0900000024510F08090C010CC5
:105710000A000000CC1E0F08020C010C040000005F
:1057200030510F08090D010809000000A80E0F08EC
:105730000E09000C0E00000074350F08080C010C57
:105740000A0000003C510F080909010C0A00000082
:1057500088350F080709010C0900000048510F089F
:105760000905010C0A00000054510F080905011039
:105770000A00000060510F08090C010C0A0000002B
:10578000E41E0F08060C0109070000006C510F0809
:105790000809010C0A00000078510F080908010CE3
:1057A0000B00000000460F080E09000C0E00000060
:1057B0009C350F080909000C08000000B0350F08DF
:1057C0000A09000C0A000000C4350F08091001087E
:1057D0000A00000090E50E08080D000C080000000B
:1057E00010460F08090D01080A000000C40E0F083A
:1057F0000C0C010C0D000000FC1E0F08090C000C25
:1058000008000000141F0F08020C01100400000023
:1058100084510F08050901130600000090510F087C
:10582000080901130A0000009C510F080909001320
:1058300008000000D8350F080910010F0A00000009
:10584000B0E50E08080C001308000000A8510F086E
:10585000090C01130A0000002C1F0F080C0D011287
:105860000D000000E00E0F08090C001308000000F6
:10587000441F0F08130E020C16000000C0380E085B
:105880000F14FE060E00000088900E080F1401068B
:105890000E000000B0900E080B14FE060800000079
:1058A000D8900E08170EFF0C15000000EC380E08FB
:1058B000100EFF0C0E000000FC0E0F080F13FE0C64
:1058C0000E00000000910E080B0EFE0C09000000F7
:1058D000180F0F080B0EFE0C09000000340F0F0804
:1058E000100EFE0C0C000000500F0F080A12FE08EC
:1058F0000800000020C60E080E0EFF0C0B00000072
:105900006C0F0F080B13020C0E00000028910E08FC
:10591000090C01070B0000005C1F0F080B13010CA2
:105920000D00000050910E0814160006160000002D
:10593000F0A00C08090E000C09000000880F0F08E9
:10594000090EFF0C06000000A40F0F080D13010C38
:105950000E00000078910E080D0E010C0E000000E4
:10596000C00F0F08100E000C10000000DC0F0F0815
:105970000B1902060E000000248C0D080D190106FB
:105980000E000000588C0D080919000608000000E0
:105990008C8C0D081213010C0E000000D4090D08A8
:1059A0000B1902060C000000C08C0D080619000639
:1059B00006000000F80F0F081413010C150000007A
:1059C000100A0D080C13020C0E000000A0910E0826
:1059D0000B13020C0E000000C8910E080913000CF6
:1059E00009000000F0910E080C13010C0B000000E0
:1059F00018920E080E1901060E000000F48C0D0816
:105A00000D13000C0D00000040920E080C13000C4A
:105A10000C00000068920E080913010C0B00000036
:105A200090920E080E13010C0D000000B8920E08A3
:105A30000F13010C0E000000E0920E081019010671
:105A40000E000000288D0D080F13010C0D00000042
:105A500008930E080E13010C0B00000030930E0883
:105A60000A13000C0B00000058930E08130E010CD3
:105A70000D00000018390E08081802070600000083
:105A8000741F0F080A13010C0C00000080930E080D
:105A90000C1901060E0000005C8D0D080E13020C9F
:105AA0000E000000A8930E080A13000C0B00000063
:105AB000D0930E080809010C0A000000B4510F0829
:105AC0000709010C09000000C0510F080809000C6B
:105AD00009000000CC510F08080D01080A00000061
