:020000040800F2
:10000000789400208D500F08CDD80A08E7D80A0848
:1000100001D90A081BD90A0835D90A0800000000CE
:10002000000000000000000000000000E5330308AD
:100030004FD90A08000000008933030871D90A0863
:100040001D800F0821800F0825800F0829800F08C8
:100050002D800F0831800F0835800F0839800F0878
:100060003D800F0841800F0845800F0849800F0828
:100070004D800F089FD90A0851800F08A3D90A089C
:1000800093D90A0897D90A0855800F0859800F0894
:100090005D800F0861800F0865800F08BBD90A08D2
:1000A00069800F086D800F0871800F0875800F0838
:1000B00079800F087D800F0881800F0885800F08E8
:1000C00089800F088D800F0891800F0895800F0898
:1000D00099800F0883D90A088FD90A089D800F08D4
:1000E000A1800F08A5800F08A9800F08AD800F0818
:1000F000B1800F08B5800F08B9800F08BD800F08C8
:10010000A7D90A08C1800F08C5800F08C9800F0849
:100110009BD90A08CD800F08D1800F08D5800F0821
:10012000D9800F08DD800F0887D90A08E1800F0801
:10013000E5800F08E9800F08ED800F08F1800F08B7
:10014000F5800F08F9800F08FD800F0801810F0866
:1001500005810F0809810F088BD90A080D810F0846
:10016000B3D90A08B7D90A0811810F0815810F08F9
:1001700019810F081D810F0821810F080000000060
:1001800025810F0829810F082D810F0831810F0863
:1001900035810F0839810F083D810F0841810F0813
:1001A000ABD90A08AFD90A0845810F0849810F0861
:1001B0004D810F0851810F0855810F0859810F0893
:1001C0005D810F0861810F080101001A080000001D
:1001D00083820F08021303070800000048340F0849
:1001E000070701060A0000000C6E0F081013010734
:1001F000120000007C580E080C1701070E000000CA
:100200008CDF0D081613010718000000D8F90C0840
:10021000111301071100000014FA0C08020701066F
:1002200005000000146E0F08071901060A000000FF
:1002300050FA0E08071902060A0000006CFA0E08B0
:100240000C0B01060E000000781E0F080E0E020BAC
:100250001200000088FA0E080508011708000000C7
:100260001C6E0F08070201110900000000820F0830
:100270000303021708000000687E0F080918000633
:100280000A000000BCDF0D080C1301070E0000007F
:10029000A4580E08081303070E0000005C340F0872
:1002A0000B1301070E000000CC580E080B130107BA
:1002B0000E000000F4580E080C1300070E0000009A
:1002C0001C590E080B1302070E00000044590E08BB
:1002D0000C1301070E0000006C590E080C130107E7
:1002E0000E00000094590E080C1301070E000000C8
:1002F000BC590E080C1301070E000000E4590E084B
:10030000030E030C090000005C470F080513020CE4
:100310000900000070340F080D0E020B12000000DF
:10032000A4FA0E080E07020E120000006C470F0818
:100330000D0E030B12000000C0FA0E080A1301078D
:100340000C0000000C5A0E081416020717000000DB
:10035000A0A20C080F1300070F000000345A0E086B
:100360000C1302070F0000005C5A0E080D13010762
:100370000F000000845A0E080E130207110000003F
:10038000AC5A0E080B1302070E000000D45A0E08D8
:100390000B1302070D000000FC5A0E080F13010793
:1003A00011000000245B0E080D130207110000006D
:1003B0004C5B0E08061301070900000084340F0887
:1003C000081300070A00000098340F080D130207F5
:1003D0000F000000745B0E080A1302070C000000F7
:1003E0009C5B0E080F13020713000000C45B0E088D
:1003F0000D13020711000000EC5B0E08101301073B
:1004000012000000145C0E080C1302070E0000001E
:100410003C5C0E081018010712000000ECDF0D080C
:100420000E13020710000000645C0E080C13010795
:100430000E0000008C5C0E081013FF070F00000078
:10044000B45C0E080C13020710000000DC5C0E0800
:100450000F1300070F000000045D0E0817130007BC
:100460001700000050FA0C080F1300070F000000DF
:100470002C5D0E080E1300070E000000545D0E08E0
:100480000C1301070E0000007C5D0E080619020621
:100490000A000000DCFA0E08091801060A00000034
:1004A0001CE00D08061901060A000000F8FA0E0803
:1004B0000F0A020712000000AC340F080E02001CE5
:1004C0000E0000006C7E0F08050503050E000000FD
:1004D000246E0F080A0E010C0D00000014FB0E081C
:1004E0000B1402060E000000A45D0E080A0E010C9B
:1004F0000C00000030FB0E080B1401060E0000007B
:10050000CC5D0E080B0E010C0D0000004CFB0E081C
:100510000914000608000000F45D0E080B13010C1E
:100520000E0000001C5E0E080A1402060E000000F9
:10053000445E0E080213020706000000C0340F08D4
:100540000618FF0707000000901E0F080B14020694
:100550000C0000006C5E0E0802140206060000008B
:10056000D4340F08120E010C1500000084290E0867
:100570000A0E020C0E00000068FB0E080C0E010CA7
:100580000E00000084FB0E080B13020C0E0000008E
:10059000945E0E080B13010C0E000000BC5E0E08EA
:1005A000070E020C090000007C470F080A0E010C20
:1005B0000B000000A0FB0E08081200080800000055
:1005C000E8340F080A0E020C0E000000BCFB0E08F7
:1005D0000C0E000C0C000000D8FB0E08130E000CD3
:1005E00013000000B0290E080C0E000C0C000000D7
:1005F000F4FB0E080C13000C0C000000E45E0E0867
:10060000090E010C0B00000010FC0E080A1901066F
:100610000C000000CC750D08021904060A00000049
:100620002CFC0E080A1901060C00000000760D08CB
:100630000E06020F12000000DC530F080101001A21
:100640000800000084820F0802130307080000005E
:10065000FC340F080B1601080E000000DC290E0800
:100660000B1301070E0000000C5F0E080C0C010CB0
:100670000E000000A81E0F080E1300070E00000059
:10068000345F0E08021904060A00000048FC0E0838
:100690000B1801070E0000004CE00D0807020308CC
:1006A0000E00000002820F08151501071700000058
:1006B0009CC80C08090C01070C000000C01E0F08A4
:1006C0000B0C010C0E000000D81E0F080E090211C1
:1006D0001200000010350F08070201110900000088
:1006E00004820F081515010717000000DCC80C086C
:1006F0000E0200040E000000707E0F0809090107B9
:100700000C00000024350F080E0F02091200000033
:10071000BCE50E08090B02070C000000F01E0F08D4
:10072000080B02070C000000E8530F08050505053B
:100730000E0000002C6E0F080A13020C0E000000C1
:100740005C5F0E080B1701070E0000007CE00D082F
:100750000303030C09000000747E0F080605041A49
:100760000E000000346E0F08060B04070C0000009A
:10077000F4530F080A0C01070C000000081F0F08B3
:100780000B0C020C0E000000201F0F0814130207B0
:10079000190000008CFA0C0816130207190000005B
:1007A000C8FA0C08151302071900000004FB0C0816
:1007B0000A1301070C000000845F0E080F190001E6
:1007C0000F00000034760D080F1900010F00000023
:1007D00068760D080F1900010F0000009C760D08C7
:1007E0000F1800020F000000ACE00D080F16000407
:1007F0000F000000082A0E080F1900010F0000006A
:10080000D0760D08161300071700000040FB0C08F7
:100810000D1801070F000000DCE00D080B190201A4
:100820000E00000004770D080B1902010E000000F5
:1008300038770D080B1902010E0000006C770D08C7
:100840000B1702030E0000000CE10D080619010150
:100850000900000064FC0E080619010109000000EF
:1008600080FC0E0808190001090000009CFC0E081D
:100870000617010309000000381F0F0810130007B6
:1008800011000000AC5F0E080D18020211000000FC
:100890003CE10D081019010112000000A0770D08BD
:1008A0001019010112000000D4770D081019010180
:1008B0001200000008780D08101801021200000054
:1008C0006CE10D0810170103120000009CE10D08F7
:1008D0000D0D030C12000000B8FC0E0810150106E7
:1008E00012000000342A0E080C190201100000004A
:1008F0003C780D080C1902011000000070780D08FA
:100900000C19020110000000A4780D080C17020356
:1009100010000000CCE10D080E1900010E000000CF
:10092000D8780D080A1302070E000000D45F0E08E5
:100930000B1402060E000000FC5F0E080A150105EC
:100940000D000000602A0E080A1501050D000000C8
:100950008C2A0E080A1501050D000000B82A0E08A1
:100960000A1401060D00000024600E080A12010896
:100970000D00000084BE0E080A1501050D000000E0
:10098000E42A0E08140E010C16000000102B0E08AD
:100990000A13010C0C0000004C600E080B15010539
:1009A0000D0000003C2B0E080B1501050D0000008A
:1009B000682B0E080B1501050D000000942B0E0886
:1009C0000B1201080D000000A8BE0E080515000559
:1009D00006000000501F0F08051502050600000064
:1009E000681F0F080615000506000000801F0F088D
:1009F000061300070600000038350F080C13010726
:100A00000E00000074600E080A1402060E000000BA
:100A10009C600E080C1501050E000000C02B0E088E
:100A20000C1501050E000000EC2B0E080C1501053D
:100A30000E000000182C0E080C1401060E00000019
:100A4000C4600E080C1201080E000000CCBE0E0897
:100A50000F0E020B12000000D4FC0E080C10010B4C
:100A60000E000000DCE50E080A1502050E0000006D
:100A7000442C0E080A1502050E000000702C0E080A
:100A80000A1502050E0000009C2C0E080A1202082E
:100A90000E000000F0BE0E080C1A00050C0000004D
:100AA0000C790D080B1902060E00000040790D08A4
:100AB0000C1700080C000000FCE10D080F170003E4
:100AC0000F0000002CE20D080A1301070D000000C2
:100AD000EC600E080F1900010F00000074790D087A
:100AE0000A1401060D00000014610E08101800071A
:100AF0000F0000005CE20D080B13010C0D0000005C
:100B00003C610E080D1901010F000000A8790D08C5
:100B10000A1501050C000000C82C0E080D19010172
:100B20000F000000DC790D080A1501050C0000001B
:100B3000F42C0E080D1701030F0000008CE20D08C5
:100B40000A1201080C00000014BF0E080D19010163
:100B50000F000000107A0D080A1501050C000000B6
:100B6000202D0E080E19020111000000447A0D0814
:100B7000101401061100000064610E081013000734
:100B8000110000008C610E080D1401060E0000001B
:100B9000B4610E080B1702030E000000BCE20D0842
:100BA0000B1301070D000000DC610E080B19020198
:100BB0000E000000787A0D080B1401060D000000ED
:100BC00004620E080B1702030E000000ECE20D0891
:100BD0000B1201080D00000038BF0E080B180207A9
:100BE0000E0000001CE30D080B13010C0D000000AB
:100BF0002C620E080B1902010E000000AC7A0D08E1
:100C00000B1501050D0000004C2D0E080F190101F8
:100C100011000000E07A0D080B1A01050E0000001B
:100C2000147B0D080F19010111000000487B0D080D
:100C30000B1901060E0000007C7B0D080F17010345
:100C4000110000004CE30D080B1701080E00000016
:100C50007CE30D080F18010711000000ACE30D083C
:100C60000B1A01050E000000B07B0D080D190201E2
:100C700011000000E47B0D080A1902010E000000BB
:100C8000187C0D0812130007120000007CFB0C08F2
:100C90000C1400060E00000054620E080819000132
:100CA00009000000F0FC0E08061400060600000013
:100CB0004C350F080818000209000000981F0F08A3
:100CC000061300070600000060350F080619010131
:100CD000090000000CFD0E080614000606000000C6
:100CE00074350F080618010709000000B01F0F082F
:100CF0000418010706000000C81F0F0806170103AB
:100D000009000000E01F0F08020E020C06000000A0
:100D10008C470F080F130107120000007C620E08B9
:100D2000091802070D000000DCE30D080919000195
:100D30000A0000004C7C0D08081AFF05070000009F
:100D400028FD0E080D1802070F0000000CE40D0826
:100D50000B1902060C000000807C0D080B0E020C23
:100D60000C00000044FD0E080A1902010C000000EE
:100D7000B47C0D08051902010600000060FD0E0894
:100D80000A1802070C0000003CE40D0805190106D2
:100D9000060000007CFD0E080A1402060C0000008C
:100DA000A4620E08081402060900000088350F0826
:100DB0000A1302070C000000CC620E080814020699
:100DC0000B0000009C350F080D1300070D000000FC
:100DD000F4620E080614000607000000B0350F0884
:100DE0000D19020111000000E87C0D080A1502052A
:100DF0000E000000782D0E080D18020711000000EB
:100E00006CE40D080A13020C0E0000001C630E08AF
:100E10000D190201110000001C7D0D080A150205C4
:100E20000E000000A42D0E081014FF061100000093
:100E300044630E080D180207110000009CE40D0821
:100E40000A13020C0E0000006C630E081017010359
:100E500012000000CCE40D080C1301070E00000086
:100E600094630E081019010112000000507D0D0856
:100E70000C1401060E000000BC630E0810190101DD
:100E800012000000847D0D080C1501050E00000005
:100E9000D02D0E081613010718000000B8FB0C082F
:100EA000150E010C17000000FC2D0E080E19020192
:100EB00010000000B87D0D080715020509000000AC
:100EC000F81F0F080E18020710000000FCE40D08C0
:100ED0000813010C09000000C4350F080E190201A7
:100EE00010000000EC7D0D08081502050900000047
:100EF00010200F080C1901010E000000207E0D08C3
:100F00000A1501050B000000282E0E080C1901011E
:100F10000E000000547E0D080A1501050B000000AC
:100F2000542E0E080C1801070E0000002CE50D08C9
:100F30000A13010C0B000000E4630E080C190101F8
:100F40000E000000887E0D080A1501050B00000048
:100F5000802E0E081018FF070F0000005CE50D083A
:100F6000081700080800000028200F081019FF01CA
:100F70000F000000BC7E0D080C1400060C000000E1
:100F80000C640E081013FF070F00000034640E08F5
:100F90000812000808000000D8350F080C180202DB
:100FA000100000008CE50D080A1402060E00000077
:100FB0005C640E080C17020310000000BCE50D086D
:100FC0000A1302070E00000084640E080C190201C7
:100FD00010000000F07E0D080A1402060E0000004A
:100FE000AC640E080C19020110000000247F0D08EB
:100FF0000A1502050E000000AC2E0E080D190201A4
:1010000010000000587F0D080A1502050E000000B0
:10101000D82E0E080C18020710000000ECE50D0891
:101020000B13020C0E000000D4640E081719000107
:1010300017000000FC280C08131500051300000021
:101040001CC90C080E1900010E0000008C7F0D0851
:101050000C1A00050C000000C07F0D080E170003DD
:101060000E0000001CE60D080C1901010E00000026
:10107000F47F0D08091501050B000000042F0E0870
:101080000C1701030E0000004CE60D0809120108C0
:101090000B0000005CBF0E080C1901010E000000DF
:1010A00028800D08091501050B000000302F0E08DF
:1010B0000614020606000000EC350F080D140006A9
:1010C0000E000000FC640E08101300071100000061
:1010D00024650E080C1302070F0000004C650E0873
:1010E0000B1402060E00000074650E080F130007B3
:1010F0000F0000009C650E080D1400060E00000095
:10110000C4650E080D1301070F000000EC650E0802
:10111000111501050F0000005CC90C080E11010932
:101120000C00000080BF0E08101300071100000023
:1011300014660E081213000713000000F4FB0C08DD
:101140000C1301070F0000003C660E080B1401068B
:101150000E00000064660E080C13010C0E00000067
:101160008C660E080B1301070E000000B4660E0813
:101170001013010712000000DC660E080C130107B3
:101180000D00000004670E080F18FE070D00000098
:101190007CE60D080E1500070E0000005C2F0E08FF
:1011A00013150105110000009CC90C080F18000759
:1011B0000F000000ACE60D08121402061600000035
:1011C00030FC0C08021402060600000000360F086E
:1011D000081300070900000014360F080D1302075A
:1011E0000F0000002C670E080B1402060C00000014
:1011F00054670E08061400060700000028360F0882
:101200000C1400060C0000007C670E081213020785
:10121000160000006CFC0C081118FE0711000000FD
:1012200060610C080A13020C0E000000A4670E088F
:101230001013010712000000CC670E0812130107FB
:1012400013000000A8FC0C080D1101090E0000009D
:10125000A4BF0E081518010717000000A8610C08AC
:101260000E13010C11000000F4670E0810130007A4
:10127000100000001C680E080B1902060E0000008A
:101280005C800D080D1502070E000000882F0E0867
:101290000C1301070E00000044680E080A0E000C33
:1012A0000B00000098FD0E080D1301070E00000052
:1012B0006C680E080D1900060E00000090800D08E5
:1012C000081700080800000040200F080F1300074F
:1012D0000F00000094680E080814000608000000C3
:1012E0003C360F080E1800070F000000DCE60D0862
:1012F0001116020412000000E4A20C080E110209EB
:101300000F000000C8BF0E081113010712000000F3
:10131000E4FC0C080C13020710000000BC680E0867
:10132000111300071100000020FD0C081118000720
:101330000C000000F0610C080C1301070E00000007
:10134000E4680E08090E010C0B000000B4FD0E0845
:101350000C1800070D0000000CE70D080C18010721
:101360000D0000003CE70D080A13010C0B00000003
:101370000C690E080913010C0B00000034690E08FB
:101380000B1301070E0000005C690E080C13010727
:101390000E00000084690E080A0E000C0B0000000D
:1013A000D0FD0E080B1200080C000000ECBF0E0868
:1013B0000B13020C0E000000AC690E0802190406A3
:1013C0000A000000ECFD0E08061902060A000000E3
:1013D00008FE0E080E19020612000000C4800D0857
:1013E000021303070800000050360F081C19020101
:1013F0001F000000105E0B08191502051C000000FC
:1014000034F60B081715010519000000DCC90C089B
:1014100014130207180000005CFD0C0811180207E5
:101420001500000038620C08081902060C000000C4
:1014300024FE0E08171302071B00000098FD0C087D
:10144000131802071700000080620C081118020729
:1014500015000000C8620C080F1900010F00000001
:10146000F8800D080A1501050D000000B42F0E08C4
:10147000081900010900000040FE0E080815FF05CC
:101480000600000058200F0810190101120000008A
:101490002C810D080C1501050E000000E02F0E0830
:1014A0000C1902011000000060810D080A150205E8
:1014B0000E0000000C300E080C1902011000000094
:1014C00094810D080A1602040E00000038300E0840
:1014D0000C19020110000000C8810D080A16020450
:1014E0000E00000064300E080C190201100000000C
:1014F000FC810D080A1802020E0000006CE70D08BE
:101500000C1902011000000030820D080A160204B6
:101510000E00000090300E080B0E010C0D000000B4
:101520005CFE0E080F1900010F00000064820D0818
:101530000A1601040D000000BC300E080F1900014E
:101540000F00000098820D080A1601040D0000002B
:10155000E8300E08161700031700000010630C088F
:101560001413010716000000D4FD0C081013010726
:1015700011000000D4690E080C13010C0E000000CD
:10158000FC690E080F19010111000000CC820D0842
:101590000B1A01050E00000000830D080D19020151
:1015A0000F00000034830D080B1902010C0000002D
:1015B00068830D0810180107120000009CE70D0851
:1015C0000C13010C0E000000246A0E08101C01030D
:1015D00012000000E8420D080C1801070E00000080
:1015E000CCE70D080C1E00010D00000010FE0C08D9
:1015F0000A1A00050B0000009C830D08081AFF055D
:101600000700000078FE0E081C1302071F000000F0
:1016100048290C08191302071C00000094290C0823
:1016200017140106190000004CFE0C080F190101E7
:1016300011000000D0830D080B1A01050E000000F8
:1016400004840D08151302071900000088FE0C0819
:101650000B1802070E000000FCE70D080D1902012F
:101660001100000038840D080A1502050E00000064
:1016700014310E080F1900010F0000006C840D08D2
:101680000A1701030D0000002CE80D0816190001CF
:1016900017000000E0290C081415010516000000D1
:1016A0001CCA0C08101A010112000000A0840D08C9
:1016B0000C1601050E00000040310E080F19000144
:1016C0000F000000D4840D080B1500050D0000006C
:1016D0006C310E080F1900010F00000008850D087D
:1016E0000A1401060D0000004C6A0E080B190201D5
:1016F0000E0000003C850D080B1501050D000000D3
:1017000098310E080B1902010E00000070850D08BB
:101710000B1401060D000000746A0E080A19FE0180
:1017200009000000A4850D080A15FD05060000004B
:10173000C4310E08081900010900000094FE0E08CB
:101740000814FF060600000064360F081019010196
:1017500012000000D8850D080C1501050E000000D0
:10176000F0310E0810190101120000000C860D085E
:101770000C1401060E0000009C6A0E080F190101EE
:101780001000000040860D080A1500050900000041
:101790001C320E080E1902011000000074860D089C
:1017A000081402060900000078360F080C1902011F
:1017B00010000000A8860D080B1501050E000000A2
:1017C00048320E080C19020110000000DC860D08DA
:1017D0000A1402060E000000C46A0E080C18010765
:1017E0000E0000005CE80D080A13010C0B0000005D
:1017F000EC6A0E081018FF070F0000008CE80D08B7
:10180000081700080800000070200F080B180107D7
:101810000D000000BCE80D080A13000C0B000000CE
:10182000146B0E080D1902011100000010870D083D
:101830000A1902010E00000044870D080D18020766
:1018400010000000ECE80D0812190106130000005A
:101850002C2A0C080D1301070F0000003C6B0E082A
:101860000B1301070D000000646B0E080D16010735
:101870000E00000074320E080A11010C0B0000006B
:1018800010C00E080F1700030F0000001CE90D0820
:101890000A1201080D00000034C00E080B180207E0
:1018A0000E0000004CE90D080B13010C0D000000A8
:1018B0008C6B0E08101901011200000078870D08CA
:1018C0000C1601040E000000A0320E0810190101D0
:1018D00012000000AC870D080C1701030E00000079
:1018E0007CE90D081017010312000000ACE90D0897
:1018F0000C1201080E00000058C00E08101901015A
:1019000012000000E0870D080C1601040E00000014
:10191000CC320E080E1700030E000000DCE90D08A3
:101920000C1800070C0000000CEA0D080A1901064B
:101930000B00000014880D081113020C13000000A6
:10194000C4FE0C080B1200080B0000007CC00E083F
:101950000613FF0C070000008C360F081414010654
:101960001600000000FF0C081413010C1600000004
:101970003CFF0C08101600060F000000F8320E089D
:10198000101601060F00000024330E080C13010985
:101990000C000000B46B0E080D13FF070C000000D4
:1019A000DC6B0E081116FF060F00000028A30C08C0
:1019B0000A13010C0B000000046C0E080913010C43
:1019C0000B0000002C6C0E080D1400060E00000029
:1019D000546C0E080B1200070C000000A0C00E088B
:1019E0000D1301070F0000007C6C0E080E13010799
:1019F00010000000A46C0E080F1300070F00000079
:101A0000CC6C0E080B1802050E0000003CEA0D0815
:101A10000B1801070D0000006CEA0D080913000700
:101A20000A000000F46C0E080718FF07070000000A
:101A300088200F08131801071200000058630C08D3
:101A40000F13010C0E0000001C6D0E080F13010790
:101A500010000000446D0E08080E010C0900000083
:101A60009C470F080E1300070E0000006C6D0E0857
:101A70000C13000C0C000000946D0E080A0E020CF2
:101A80000D000000B0FE0E080B0E010C0E00000051
:101A9000CCFE0E080B0E020C0E000000E8FE0E0835
:101AA0000B1402060E000000BC6D0E080A0E010C9D
:101AB0000C00000004FF0E080B0E000C0C000000D0
:101AC00020FF0E08101901060E00000048880D08BE
:101AD000101401060E000000E46D0E080B0E010C40
:101AE0000D0000003CFF0E080B0E010C0D00000065
:101AF00058FF0E08110E010C1200000050330E08A2
:101B00000A0E010C0B00000074FF0E080A0E000CF8
:101B10000B00000090FF0E08100E000C10000000DB
:101B2000ACFF0E080B0E010C0D000000C8FF0E08E4
:101B30000913FF0C080000000C6E0E0810190106B6
:101B40000E0000007C880D080B13010C0E00000035
:101B5000346E0E080B0E010C0D000000E4FF0E08A1
:101B60000C13000C0C0000005C6E0E080F0E000C35
:101B70000F00000000000F080A13020C0E00000006
:101B8000846E0E080A1402060E000000AC6E0E08E9
:101B90000A1902060E000000B0880D08061300079F
:101BA00006000000A0360F08020E020C060000001E
:101BB000AC470F08060E010C09000000BC470F08D7
:101BC0000A1400060A000000D46E0E08071400066E
:101BD00007000000B4360F080619020606000000D0
:101BE0001C000F080B1902060E000000E4880D0807
:101BF000120E010C150000007C330E081213010CAC
:101C00001500000078FF0C081213010C15000000ED
:101C1000B4FF0C080F13FD0C0E000000FC6E0E0844
:101C20000E13020C0E000000246F0E080A0E020CA8
:101C30000E00000038000F080C0E010C0E00000012
:101C400054000F08110E010C14000000A8330E08F8
:101C5000100E010C1200000070000F080C19010694
:101C60000E00000018890D08070E000C0900000086
:101C7000CC470F080714000609000000C8360F08FB
:101C80000C13000C090000004C6F0E080713020C27
:101C900009000000DC360F080713020C09000000E1
:101CA000F0360F08070E020C09000000DC470F0891
:101CB0000713000C0900000004370F080B0E020C7C
:101CC0000D0000008C000F080B0E020C0D00000030
:101CD000A8000F080A13010C0B000000746F0E0817
:101CE0000C1901060E0000004C890D080C19FF06A6
:101CF0000800000080890D080C13010C0E00000084
:101D00009C6F0E080D1900060E000000B4890D0826
:101D1000081200080800000018370F08081700080C
:101D200008000000A0200F080E0E000C0E0000009E
:101D3000C4000F080C0E020C10000000E0000F0899
:101D40000A0E020C0E000000FC000F080C0E000C26
:101D50000C00000018010F08130E000C1300000007
:101D6000D4330E080C1300070C000000C46F0E08DB
:101D70000B0E000C0B00000034010F080E13010CB9
:101D80000B000000EC6F0E080D10010C0E0000009F
:101D9000FCE50E080A13000C0B00000014700E087E
:101DA0000B13000C0B0000003C700E080B14000617
:101DB0000C00000064700E080B1401060C000000FB
:101DC0008C700E080B1400060C000000B4700E0896
:101DD0000B13010C0C000000DC700E08101301073F
:101DE0001200000004710E080A0E020C0D00000023
:101DF00050010F080B0E010C0D0000006C010F08C4
:101E00000F1101090D000000C4C00E080A0E020CDB
:101E10000E00000088010F080A1800070A000000E1
:101E20009CEA0D080B13FF0C0C0000002C710E082F
:101E3000080E020C0A000000EC470F0810190106FA
:101E40000E000000E8890D080B1400060C000000CD
:101E500054710E080B1401060C0000007C710E0872
:101E60001414010616000000F0FF0C0814190106F6
:101E700016000000782A0C08181601061900000048
:101E80006CA30C08111200081100000020430D087B
:101E90000F1900060E0000001C8A0D081112000820
:101EA0001200000058430D0812190006140000002B
:101EB000C42A0C080E14020610000000A4710E08BB
:101EC0000B1402060E000000CC710E080B13010764
:101ED0000C000000F4710E080A1202080E00000047
:101EE000E8C00E080F13000C110000001C720E0851
:101EF0001313000C130000002C000D08080D01083E
:101F00000A000000FC470F08080D01080A00000045
:101F10000C480F0805100008060000001C480F08B8
:101F20000509010C0600000000540F080509000C0B
:101F3000060000000C540F08080C000C06000000FE
:101F400018540F080809010C0900000024540F0858
:101F50000C09000C0C0000002C370F08090C000CB9
:101F600009000000B8200F0805080207070000005C
:101F70003C6E0F080A0801070C0000002C480F08EF
:101F80000507FF0605000000446E0F08050701065F
:101F9000050000004C6E0F080507FF060500000055
:101FA000546E0F08040705050E0000005C6E0F0854
:101FB000040705050E000000646E0F08070D0108F8
:101FC000090000003C480F08070D01080900000047
:101FD0004C480F080D0E020B12000000A4010F0860
:101FE0000D0E030B12000000C0010F080E0D020CB5
:101FF00012000000DC010F080E0D020C12000000A0
:10200000F8010F08080503050E0000006C6E0F08AC
:10201000080503050E000000746E0F080205060592
:102020000E0000007C6E0F08090202070E0000007F
:10203000787E0F08050505050E000000846E0F0868
:10204000050503050E0000008C6E0F080204061B38
:102050000E0000007C7E0F080902021D0E00000029
:10206000807E0F080505031A0E000000946E0F080D
:102070000505061A0E0000009C6E0F08030E030CE7
:10208000090000005C480F08030303110900000069
:10209000847E0F080407050F0E000000A46E0F08D1
:1020A0000407050F0E000000AC6E0F0806040114B3
:1020B00008000000887E0F080604011408000000D4
:1020C0008C7E0F080604011408000000907E0F08A3
:1020D000090202140E000000947E0F080805030692
:1020E0000E000000B46E0F08020206080E00000089
:1020F00006820F08070703050E000000BC6E0F08DC
:102100000405041A0E000000C46E0F080A0402063B
:102110000E000000CC6E0F080A0503050E0000003B
:1021200030540F080705001108000000D46E0F0896
:10213000080801070A000000DC6E0F08080C000CFC
:10214000080000003C540F08020D010804000000C4
:102150006C480F080709010C0900000048540F08DB
:102160000709000C0800000054540F08070D01086F
:10217000090000007C480F08061202080A0000004F
:1021800040370F08061202080A00000054370F08F3
:10219000061202080A00000068370F08061202083B
:1021A0000A0000007C370F08061202080A0000002F
:1021B00090370F08060B010F0800000060540F084D
:1021C000060B010F080000006C540F080805031AE5
:1021D0000E000000E46E0F08070303070E00000066
:1021E000987E0F080A0701060A0000008C480F08B5
:1021F0000503041B0E0000009C7E0F080503041B52
:102200000E000000A07E0F080305051A0E00000056
:10221000EC6E0F080305051A0E000000F46E0F089F
:102220000404051B0E000000A47E0F080505031121
:102230000E000000FC6E0F080A0501110E000000E0
:1022400078540F080A0503110E00000084540F088B
:102250000A04021B0E000000046F0F08030D0307A1
:10226000090000009C480F08050504070E00000047
:102270000C6F0F08050505070E000000146F0F080E
:10228000050504150E0000001C6F0F080505051557
:102290000E000000246F0F080905021A0E0000004E
:1022A00090540F080905021A0E0000009C540F08F4
:1022B00006070118080000002C6F0F080505F70538
:1022C00000000000346F0F080505F805000000004D
:1022D0003C6F0F080805FC0500000000446F0F0864
:1022E0000A04F401000000004C6F0F080902FB070C
:1022F00000000000A87E0F080E02F9040000000094
:10230000AC7E0F080805FC0600000000546F0F08A3
:102310000202FF080000000008820F080802FC0803
:10232000000000000A820F080405050500000000F7
:102330005C6F0F080707FC0500000000646F0F08C2
:102340000A05FB0500000000A8540F080805FC055D
:10235000000000006C6F0F080205FF050000000080
:10236000746F0F080505FE05000000007C6F0F0864
:102370000A05FB0500000000B4540F080807FC0420
:1023800000000000846F0F080805FC060000000034
:102390008C6F0F080205FF0600000000946F0F0805
:1023A0000205FF06000000009C6F0F080205FF06F3
:1023B00000000000A46F0F080205010600000000E5
:1023C000AC6F0F080505FD1A00000000B46F0F0880
:1023D0000505FD1A00000000BC6F0F080504FE1B78
:1023E00000000000B07E0F080504FE1B0000000086
:1023F000B47E0F080906FB0400000000C0540F085B
:102400000406000300000000C46F0F080204FF1B55
:1024100000000000B87E0F080604FD1B000000004D
:10242000BC7E0F080604FD1B00000000C07E0F08E4
:102430000604FD1B00000000C47E0F080902FB1DFE
:1024400000000000C87E0F080607FC18000000000E
:10245000CC6F0F080607001800000000D46F0F08AB
:102460000202061C000000000C820F080802FC1D7E
:10247000000000000E820F080404FE1B0000000094
:10248000CC7E0F080204FF1B00000000D07E0F0866
:102490000605FD1A00000000DC6F0F080405FE1A97
:1024A00000000000E46F0F080204FF1B00000000A2
:1024B000D47E0F080904FB1B00000000EC6F0F081E
:1024C0000903FC1C00000000F46F0F080804FC1B4B
:1024D00000000000D87E0F080804FC1B000000006C
:1024E000DC7E0F080804FC1B00000000E07E0F08E3
:1024F0000804FC1B00000000E47E0F080A04FB1B1C
:1025000000000000FC6F0F080902FB1D0000000026
:10251000E87E0F080E02F91C00000000EC7E0F0898
:102520000A04FB1B0000000004700F080A04FB0EE5
:10253000000000000C700F080902FB1000000000F2
:10254000F07E0F080E02F91000000000F47E0F0864
:102550000A09FB0D00000000A4370F080918FB064C
:1025600000000000CCEA0D080204FF1B0000000080
:10257000F87E0F080904FB1B0000000014700F0810
:102580000404FE1B00000000FC7E0F080903FC1C75
:10259000000000001C700F080606FD03000000008C
:1025A00024700F080206FF04000000002C700F08C2
:1025B0000E05F90100000000CC540F080A04FB06C8
:1025C0000000000034700F080205FF060000000044
:1025D0003C700F080905FC0500000000D8540F08E6
:1025E0000304FE1B00000000007F0F080904FB0528
:1025F0000000000044700F080E04F91B00000000EA
:102600004C700F080504FE1B00000000047F0F083B
:102610000504FE1B00000000087F0F080A06FB05EA
:1026200000000000E4540F080A08FB03000000004B
:10263000AC480F080A06FB0400000000F0540F0825
:102640000604FD1B000000000C7F0F080604FD1BA4
:1026500000000000107F0F081211F70900000000B1
:10266000508A0D080305FD050000000054700F0896
:102670000407FE05000000005C700F080807FC045A
:102680000000000064700F080505FD1A000000003E
:102690006C700F080305FF1A0000000074700F082B
:1026A0000305FE1A000000007C700F080805FD1AE3
:1026B0000000000084700F080407FE050000000001
:1026C0008C700F08020206080000000010820F083C
:1026D0000504FE1B00000000147F0F080704FD1B0B
:1026E00000000000187F0F080405FE06000000002F
:1026F00094700F081305F61A00000000BC480F087C
:102700001305FE0600000000CC480F081302FE0669
:10271000000000009C700F081302FE1D0000000066
:10272000A4700F081304FE0600000000FC540F08FC
:102730001305FE0600000000DC480F080E04FE1B17
:1027400000000000AC700F080507FD040000000049
:10275000B4700F080607FD0400000000BC700F08ED
:102760000109FF020000000008550F080607FD04DC
:1027700000000000C4700F080507FD040000000001
:10278000CC700F080507FD0400000000D4700F088E
:10279000060AFD010000000014550F08050AFD019E
:1027A0000000000020550F080907FB04000000008E
:1027B000EC480F080307FE0400000000DC700F085F
:1027C0000409FE02000000002C550F080507FD0457
:1027D00000000000E4700F080507FD040000000081
:1027E000EC700F08040505050E000000F4700F08DA
:1027F0000404051B0E0000001C7F0F080304051BCA
:102800000E000000207F0F080A0E010C0C000000D3
:1028100014020F080A0E010C0C00000030020F0811
:102820000A0E010C0C0000004C020F080513020CEC
:1028300009000000B8370F08030505050E00000069
:10284000FC700F08090502050E00000038550F083E
:102850000F1300070F00000044720E080303030C5F
:1028600009000000247F0F0810130007110000006A
:102870006C720E08121300071400000068000D08A7
:102880000A1300070C00000094720E0813130007CF
:1028900014000000A4000D0812130007120000002D
:1028A000E0000D0814130007140000001C010D08BF
:1028B0000815FF0506000000D0200F080F130007C1
:1028C0000F000000BC720E080C1302070F0000007E
:1028D000E4720E080B1302070D0000000C730E08C3
:1028E0000F1300070F00000034730E080B130207CC
:1028F0000E0000005C730E080C1301070E000000B0
:1029000084730E080D13020711000000AC730E084B
:102910001013010712000000D4730E0806130107FC
:1029200009000000CC370F080D1302070F0000004C
:10293000FC730E080F1300070F00000024740E082C
:102940000F130207130000004C740E080D1302074A
:102950001100000074740E080C1301070E00000033
:102960009C740E081013010712000000C4740E08B6
:102970000D13020711000000EC740E080C1302077F
:102980000E00000014750E080D1301070E00000064
:102990003C750E081013FF070F00000064750E0849
:1029A0000E1300070E0000008C750E0810130107AF
:1029B00013000000B4750E080F1300070F0000008D
:1029C000DC750E08101302071400000004760E08D0
:1029D000111301071200000058010D08061701032A
:1029E00009000000E8200F080E1700030E00000089
:1029F000FCEA0D080B1501050E00000000340E085E
:102A00000A1501050B0000002C340E080A1A0205F5
:102A10000E000000848A0D08031502050600000060
:102A200000210F080A1502050E00000058340E0898
:102A30000B0E010C0E00000068020F080B190206B5
:102A40000E000000B88A0D080C13000C0C000000EA
:102A50002C760E080C1401060E00000054760E08A9
:102A60000A0E010C0B00000084020F080A1901066F
:102A70000A000000EC8A0D080A13020C0E00000088
:102A80007C760E080C1401060E000000A4760E08D9
:102A9000020E020C06000000FC480F080A0E020C91
:102AA0000C000000A0020F080C1400060C0000002F
:102AB000CC760E080A13020C0E000000F4760E0805
:102AC0000C0E000C0C000000BC020F080B190106D4
:102AD0000B000000208B0D080C0E010C0E000000F6
:102AE000D8020F080A0E020C0E000000F4020F08B4
:102AF0000B13020C0E0000001C770E080A13010CC9
:102B00000B00000044770E080E0E010C0F000000B1
:102B100010030F080C0E000C0C0000002C030F0813
:102B20000A0E020C0E00000048030F081013010CDF
:102B3000120000006C770E080C13000C0C00000053
:102B400094770E080E13020C12000000BC770E08DA
:102B5000100E010C1200000064030F08061300079A
:102B600006000000E0370F080A1202080E000000FD
:102B70000CC10E080C1501050E00000084340E086F
:102B80000A1502050E000000B0340E0810150105EC
:102B900012000000DC340E080B1402060E000000C8
:102BA000E4770E080C1402060E0000000C780E08E4
:102BB000121300071100000094010D0816150005FE
:102BC000150000005CCA0C08121700031100000079
:102BD000A0630C080C1901060E000000548B0D08B0
:102BE000100E010C1200000080030F080E13000CE1
:102BF0000E00000034780E081018010712000000C3
:102C00002CEB0D080C13010C0E0000005C780E0874
:102C10000D1801070F0000005CEB0D080B13010CF1
:102C20000C00000084780E080B1302070D00000052
:102C3000AC780E080813020C0B000000F4370F08E4
:102C40000F13010710000000D4780E080B140106C2
:102C50000D000000FC780E08121800071300000099
:102C6000E8630C080D1900060E000000888B0D08A3
:102C7000121802071600000030640C081213010C31
:102C800015000000D0010D080D1301071000000011
:102C900024790E080A1402060E0000004C790E0872
:102CA0000D180207100000008CEB0D080D0E000C33
:102CB0000D0000009C030F080C1301070E0000001C
:102CC00074790E080C1401060E0000009C790E08A1
:102CD0000F1300070F000000C4790E080F0E000C40
:102CE0000F000000B8030F081013010712000000C6
:102CF000EC790E080C0E010C0E000000D4030F0836
:102D00000C1300070C000000147A0E080A140006C9
:102D10000A0000003C7A0E080E0E000C0E000000A7
:102D2000F0030F080C13010C0E000000647A0E086B
:102D30000A0E010C0C0000000C040F080618FF0717
:102D40000700000018210F081013010712000000EF
:102D50008C7A0E080B0E010C0C00000028040F08E2
:102D60000B0E000C0C00000044040F080A130207AD
:102D70000E000000B47A0E080B1902060E000000C7
:102D8000BC8B0D080E13FF0C0E000000DC7A0E0841
:102D90000D1301070F000000047B0E080D1301073F
:102DA0000F0000002C7B0E080D1301070F00000020
:102DB000547B0E080B1902010E000000F08B0D0869
:102DC0000B1702030E000000BCEB0D0811130007E7
:102DD000120000000C020D080B1902010D0000008A
:102DE000248C0D080D1301070F0000007C7B0E08DA
:102DF0000C1301070E000000A47B0E080613010748
:102E00000900000008380F08061701030900000038
:102E100030210F08081300070A0000001C380F08B3
:102E20001913000719000000102B0C0817130207D4
:102E30001900000048020D081113000712000000DD
:102E400084020D080D1902010F000000588C0D08B6
:102E50000D190201110000008C8C0D080E180002E3
:102E60000E000000ECEB0D080D170207110000002A
:102E70001CEC0D080F1300070F000000CC7B0E08A0
:102E80000C1302070F000000F47B0E080C1302075E
:102E90000F0000001C7C0E080B1302070D00000041
:102EA000447C0E0810170007110000004CEC0D08C0
:102EB0000B1302070E0000006C7C0E0816130007AF
:102EC00016000000C0020D080C1300070D000000E2
:102ED000947C0E080D13020711000000BC7C0E0844
:102EE0000D180202110000007CEC0D080D13020702
:102EF0000F000000E47C0E080F1300071100000013
:102F00000C7D0E080F13020713000000347D0E081D
:102F10000D130207110000005C7D0E08101301075D
:102F200012000000847D0E080D130207110000003E
:102F3000AC7D0E080C1302070E000000D47D0E08B5
:102F40000D1301070F000000FC7D0E081013FF0792
:102F50000F000000247E0E080E1300070E00000074
:102F60004C7E0E081013010713000000747E0E083B
:102F70000F1300070F0000009C7E0E080E170207BB
:102F800011000000ACEC0D080D130107100000004B
:102F9000C47E0E081413020718000000FC020D087E
:102FA000161702071800000078640C0811130007B8
:102FB0001100000038030D08101302071400000070
:102FC000EC7E0E080D1302070F000000147F0E08A0
:102FD0000D1301070F0000003C7F0E0815130207B8
:102FE0001800000074030D080D1300070F00000007
:102FF000647F0E080A0E010C0D00000060040F082B
:103000000C1401060E0000008C7F0E080A0E020C44
:103010000D0000007C040F08080E020C0A000000DE
:103020000C490F080D11000C0E00000030C10E08F5
:103030000B0E010C0D00000098040F08120E000C7E
:103040001200000008350E080A0E000C0B000000EC
:10305000B4040F080A0E020C0E000000D0040F0882
:103060000A1402060E000000B47F0E080A0E020CBD
:103070000C000000EC040F080C0E000C0E00000009
:1030800008050F080C0E020C1000000024050F08A4
:103090000A0E020C0E00000040050F080C0E010C79
:1030A0000E0000005C050F080A0E020C0E00000066
:1030B00078050F080B13020C0E000000DC7F0E08D1
:1030C0000A0E010C0C00000094050F080C0E000CF9
:1030D0000C000000B0050F080C13000C0C000000E1
:1030E00004800E0812190006130000005C2B0C0867
:1030F0000C0E000C0C000000CC050F080B11020C8C
:103100000E00000054C10E080B0E010C0E00000052
:10311000E8050F08100E010C1300000004060F084C
:103120001111020C14000000C08C0D080D0E000CD3
:103130000E00000020060F080D0E020C110000000A
:103140003C060F080A0E020C0D00000058060F087E
:103150000A0E010C0C00000074060F08100E020C81
:103160001300000090060F080B0E000C0D0000006D
:10317000AC060F080B1501050D00000034350E08D4
:103180000B1201080D00000078C10E080C19000692
:103190000E000000F48C0D08081502050A0000005E
:1031A00048210F080A0E010C0C000000C8060F0889
:1031B0000A0E010C0B000000E4060F0802130207C0
:1031C0000600000030380F08061300070600000054
:1031D00044380F080618FF070700000060210F0899
:1031E000140E000C1500000060350E08120E020CC3
:1031F000150000008C350E080C1400060E000000AF
:103200002C800E080A1502050C000000B8350E08C7
:103210000A1502050E000000E4350E080C19000620
:103220000C000000288D0D080A11020C0E00000091
:103230009CC10E081B1301071D000000A82B0C08E1
:10324000120E000C1200000010360E0810130007BA
:103250001100000054800E080D1400060E0000003E
:103260007C800E081213020715000000B0030D0841
:103270000E0E020C1100000000070F080F130007CC
:103280000F000000A4800E080C0E000C0C000000C3
:103290001C070F081213020714000000EC030D08AE
:1032A0000F0E020C1100000038070F08141300075E
:1032B0001400000028040D080F0E000C0F00000081
:1032C00054070F08171302071900000064040D08C3
:1032D000130E020C150000003C360E080B1E0101F7
:1032E0000D000000A0040D080A1A00050B000000E4
:1032F0005C8D0D081013020714000000CC800E082E
:103300000E13020C12000000F4800E0810130107C7
:10331000120000001C810E080C0E010C0E000000B3
:1033200070070F081313000712000000DC040D08DB
:10333000100E000C0F0000008C070F08131900017D
:1033400012000000F42B0C08101500050F000000FF
:1033500068360E081C1801071D000000A08E0B081F
:103360001813010C1900000018050D0813150106AB
:10337000150000009CCA0C080F10010B1100000082
:103380001CE60E081519010117000000402C0C085E
:103390001117010313000000C0640C081B17010380
:1033A0001D000000E0CC0B08121200081200000003
:1033B00090430D080D1801070F000000DCEC0D080C
:1033C0000A13010C0C00000044810E080C130007C6
:1033D0000C0000006C810E080805030600000000C8
:1033E00004710F0809030207000000000C710F08A8
:1033F000020506060000000014710F08020506060B
:10340000000000001C710F080A04030610000000F1
:1034100024710F081816F40800000000B0A30C086F
:103420001818F4070000000008650C080F1C0202C1
:1034300011000000C8430D080C1702060E00000022
:103440000CED0D080F1300070F00000094810E080B
:103450000C1400060D000000BC810E080D130207BD
:103460000E000000E4810E080C13020C0E00000098
:103470000C820E080B1802020D0000003CED0D0836
:10348000081302070A00000058380F080C13010740
:103490000D00000034820E08090E010C0A00000025
:1034A000A8070F080B1802070E0000006CED0D08AE
:1034B0000A13020C0D0000005C820E0816170007AC
:1034C0001700000050650C081211000C13000000DA
:1034D000908D0D080C1800070D0000009CED0D08E4
:1034E0000A13000C0B00000084820E080E1702075E
:1034F00010000000CCED0D080A11020C0D000000B8
:10350000C0C10E080D1302070F000000AC820E08A8
:103510000A0E020C0C000000C4070F080F1300076E
:103520000F000000D4820E080C1400060C000000EE
:10353000FC820E08121300071200000054050D084B
:103540000E0E000C0E000000E0070F080F17020718
:1035500011000000FCED0D080B11020C0E00000024
:10356000E4C10E08121302071400000090050D08B4
:103570000E0E020C10000000FC070F0816180207C0
:103580001900000098650C081213020C15000000C9
:10359000CC050D08111401071200000008060D08E3
:1035A0000D0F010C0E0000003CE60E080D1801077F
:1035B0000F0000002CEE0D080A13010C0C00000097
:1035C00024830E081017FF070F0000005CEE0D08A3
:1035D0000C11000C0C00000008C20E080E130007AE
:1035E0000E0000004C830E080C13000C0C000000B1
:1035F00074830E080E1300070E0000009C830E0853
:103600000C13000C0C000000C4830E080F170007F9
:103610000F0000008CEE0D080C11000C0D000000D6
:103620002CC20E081317000714000000E0650C08F8
:103630000F11000C1000000050C20E080F170107F8
:1036400010000000BCEE0D080C11010C0E00000073
:1036500074C20E080D13010710000000EC830E0861
:103660000B0E010C0E00000018080F080C130207C7
:103670001000000014840E080A1402060E00000058
:103680003C840E08141300071500000044060D08C2
:103690000F0E000C1000000034080F08141700076C
:1036A0001500000028660C080F11000C1000000027
:1036B00098C20E0806130107090000006C380F08B5
:1036C00016190001160000008C2C0C0812140006BC
:1036D0001200000080060D080C1802070F00000001
:1036E000ECEE0D080913020C0C00000064840E08B7
:1036F000111700071100000070660C080E11000C75
:103700000E000000BCC20E080D18020711000000D8
:103710001CEF0D080A13020C0E0000008C840E082A
:103720000F170207110000004CEF0D080C11020CDE
:103730000E000000E0C20E080D1701071000000087
:103740007CEF0D080B11010C0E00000004C30E08E5
:103750001117020713000000B8660C080E11020CC6
:103760001000000028C30E08021402060600000024
:1037700080380F080F1900010F000000C48D0D08DC
:103780000A1401060D000000B4840E080F16000490
:103790000F00000094360E080A1201080D00000008
:1037A0004CC30E081613000717000000BC060D08D6
:1037B000140E010C16000000C0360E080B19020191
:1037C0000E000000F88D0D080B1401060D0000001E
:1037D000DC840E08101301071200000004850E0897
:1037E0000B0E010C0D00000050080F08101601040C
:1037F00012000000EC360E080B1201080D0000004C
:1038000070C30E081616000416000000F4A30C087E
:10381000121200081200000000440D080C160004EB
:103820000D00000018370E080A1200080B000000F7
:1038300094C30E080C1300070D0000002C850E0821
:103840000A13000C0B00000054850E080D1702032C
:1038500011000000ACEF0D080A1302070E00000073
:103860007C850E080D1602041100000044370E0876
:103870000A1202080E000000B8C30E081017010358
:1038800012000000DCEF0D080C1201080E00000011
:10389000DCC30E081013010712000000A4850E08F7
:1038A0000C0E010C0E0000006C080F08101701032D
:1038B000120000000CF00D080C1201080E000000B0
:1038C00000C40E080D1601040F00000070370E082A
:1038D0000A1201080C00000024C40E080E17000391
:1038E0000E0000003CF00D080C1800070C00000052
:1038F0006CF00D080E1600040E0000009C370E0838
:103900000C1700080C0000009CF00D080E190001B7
:103910000E0000002C8E0D080C1A00050C00000093
:10392000608E0D080D16010410000000C8370E0847
:103930000B1201080E00000048C40E080B17020706
:103940000D000000CCF00D080812020C0A00000067
:1039500094380F081016020414000000F4370E0803
:103960000D120208110000006CC40E080D180007AB
:103970000D000000FCF00D080A13000C0A00000006
:10398000CC850E08101800070F0000002CF10D0860
:103990000C13000C0C000000F4850E080F13000738
:1039A0000F0000001C860E080C0E000C0C0000001E
:1039B00088080F080D1300070F00000044860E084A
:1039C0000B1401060E0000006C860E08151300078C
:1039D00017000000F8060D08131401061600000079
:1039E00034070D08141301071700000070070D08B5
:1039F000120E010C1500000020380E080E170107EA
:103A00000F0000005CF10D080B11010C0D0000000F
:103A100090C40E081713000719000000AC070D082A
:103A2000140E000C160000004C380E081513020787
:103A300019000000E8070D08120E020C1600000025
:103A400078380E080F1301071100000094860E0845
:103A50000B0E010C0D000000A4080F081113000745
:103A60001300000024080D080F0E000C11000000C8
:103A7000C0080F080C1301070D000000BC860E08DB
:103A80000A0E010C0B000000DC080F080F180007DD
:103A9000110000008CF10D080C13000C0E0000004A
:103AA000E4860E081018010712000000BCF10D0892
:103AB0000B13010C0E0000000C870E0817130007F3
:103AC0001700000060080D08130E000C1300000022
:103AD000A4380E08101302071200000034870E08E5
:103AE0000D130207100000005C870E08101300077A
:103AF0001000000084870E08111300071100000059
:103B00009C080D080D13020710000000AC870E087A
:103B10000D1301070F000000D4870E080C130207D5
:103B20000F000000FC870E080D13020710000000B4
:103B300024880E081213020714000000D8080D088C
:103B40000F130107100000004C880E080C13020729
:103B50000F00000074880E080A1302070C00000012
:103B60009C880E08121302071600000014090D08A5
:103B70001013000710000000C4880E080C13020781
:103B800010000000EC880E080B1301070D00000068
:103B900014890E080E1300070F0000003C890E0860
:103BA000111300071100000050090D080D13020742
:103BB0001100000064890E081013020712000000B3
:103BC0008C890E080E13010710000000B4890E083E
:103BD0001013000711000000DC890E080D13010707
:103BE0000F000000048A0E080C13020710000000EA
:103BF0002C8A0E080D1301070F000000548A0E08CE
:103C00000F130007110000007C8A0E080D13010736
:103C10000F000000A48A0E08101302071200000013
:103C2000CC8A0E080C13020710000000F48A0E085C
:103C300011130007110000008C090D080F13000775
:103C4000100000001C8B0E080C1302070F00000070
:103C5000448B0E080F130107110000006C8B0E0837
:103C60000A1302070D000000948B0E0810130107C1
:103C700013000000BC8B0E080E1300070F0000009D
:103C8000E48B0E0810130107120000000C8C0E08C4
:103C90000F13000710000000348C0E080205010607
:103CA000050000002C710F08020501060500000048
:103CB00034710F0805050106080000003C710F086B
:103CC000070A01060900000044550F080505010612
:103CD0000800000044710F080706010609000000F3
:103CE0004C710F080A0601030C00000050550F0824
:103CF000110E020C15000000D0380E080A13020C39
:103D00000E0000005C8C0E080E13010C0F0000006A
:103D1000848C0E080D13020C0F000000AC8C0E08F2
:103D20000A1402060E000000D48C0E080E13010CBB
:103D30000F000000FC8C0E080A1402060D000000A3
:103D4000248D0E080A13020C0E0000004C8D0E0884
:103D50000F13020C11000000748D0E080E140106E2
:103D60000F0000009C8D0E080A1902060E000000CC
:103D7000948E0D080613020C08000000A8380F08E6
:103D80001219020616000000D82C0C080D140106AA
:103D90000E000000C48D0E080A1902060E00000075
:103DA000C88E0D080A1402060E000000EC8D0E08E5
:103DB0000A1401060C000000148E0E080D13020CEC
:103DC0000F0000003C8E0E080B1401060C000000D2
:103DD000648E0E080D1402060F0000008C8E0E0873
:103DE0000613000C08000000BC380F080D14000674
:103DF0000F000000B48E0E080A13000C0B00000028
:103E0000DC8E0E080A0E020C0E000000F8080F08E7
:103E10000A13000C0B000000048F0E081113020C93
:103E200015000000C8090D080B13000C0C00000061
:103E30002C8F0E080B0E020C0E00000014090F0848
:103E40000A0E020C0E00000030090F080D190206C0
:103E50000F000000FC8E0D08110E020C1500000072
:103E6000FC380E080A13020C0E000000548F0E08D6
:103E70000B13010C0E0000007C8F0E08080E020CC4
:103E80000A0000001C490F08111902061500000065
:103E9000242D0C080E13000C0F000000A48F0E0838
:103EA0000C0E010C0E0000004C090F081019000642
:103EB00011000000308F0D080D1402060F000000E5
:103EC000CC8F0E08030E030C090000002C490F08CC
:103ED0000703011009000000287F0F080505FE1ADE
:103EE0000000000054710F080803FC0600000000E9
:103EF0002C7F0F080306FE03000000005C710F0812
:103F00000205FF040000000064710F080405FE04B0
:103F1000000000006C710F080405FE1A000000008C
:103F200074710F080303FF0600000000307F0F08C4
:103F30000704FC0500000000347F0F080405FC04A2
:103F4000000000007C710F080303001B000000004C
:103F5000387F0F080405FE1A0000000084710F0866
:103F60000405FE04000000008C710F080405000425
:103F70000000000094710F080805FC040000000018
:103F80009C710F080E06F903000000005C550F0835
:103F90000606000300000000A4710F080405FE04DB
:103FA00000000000AC710F080505FE1A00000000BB
:103FB000B4710F080304FF1B000000003C7F0F08D2
:103FC0000303FE1B00000000407F0F080405FE1ADB
:103FD00000000000BC710F080805FC1A000000007A
:103FE000C4710F080305FE1A00000000CC710F0811
:103FF0000405FE0400000000D4710F080606FA0351
:1040000000000000DC710F080505FE1A000000002A
:10401000E4710F080303FE0600000000447F0F0850
:104020000304FF0500000000487F0F080405001A84
:1040300000000000EC710F080704F9050000000003
:104040004C7F0F080303FE0600000000507F0F089E
:104050000205061A00000000F4710F080805031A93
:1040600000000000FC710F080605041A00000000A3
:1040700004720F080605041A000000000C720F08F5
:104080000202061B0000000012820F080502041B3A
:104090000000000014820F080505051A000000004A
:1040A00014720F080301051B0000000085820F0831
:1040B0000503041B00000000547F0F0802020608DD
:1040C0000000000016820F08020203070000000033
:1040D00018820F080805031A000000001C720F0860
:1040E00002020612000000001A820F080103061BDC
:1040F00000000000587F0F080602020B0A000000B3
:104100001C820F08030105080000000086820F08CA
:104110000213020906000000D0380F080202060848
:10412000000000001E820F080202FF0800000000CD
:1041300020820F08030F030B090000003C490F0801
:10414000020201070000000022820F080202FF1C89
:104150000000000024820F080710020A0A00000075
:104160004C490F080504FD1B000000005C7F0F0890
:104170000D0F020B110000005CE60E080E0F010B84
:10418000100000007CE60E080C0F000B0C00000075
:104190009CE60E080D0F010B0F000000BCE60E0898
:1041A0000D0F020B11000000DCE60E08050F000BDE
:1041B000070000005C490F08070F010B0800000012
:1041C0006C490F080D0F020B11000000FCE60E08F1
:1041D0000D0F020B110000001CE70E080508000B74
:1041E0000700000024720F080E14000B10000000DE
:1041F000F48F0E080D0F010B100000003CE70E08B5
:104200000D140106100000001C900E080D0F020B8B
:10421000110000005CE70E080E0F010B11000000FA
:104220007CE70E080714000B09000000E4380F08B3
:10423000070F010B0A0000007C490F08100F000B4C
:10424000120000009CE70E080D11010B1000000089
:10425000B4C40E080E14010B1100000044900E08A7
:104260000D0F010B10000000BCE70E080B14000B33
:104270000C0000006C900E080D0F010B0F000000E9
:10428000DCE70E080D14020B1100000094900E08DC
:104290000C0F000B0E000000FCE70E08110F020BC4
:1042A00014000000ECF10D08100F000B12000000CC
:1042B0001CE80E080C0F000B0E0000003CE80E0876
:1042C0000C0F000B0E0000005CE80E080C08000B41
:1042D0000E0000008C490F080507010605000000CC
:1042E0002C720F080A0701060A0000009C490F08FB
:1042F0001205011A14000000AC490F082505011A27
:104300002700000068090F081D0700181E000000A4
:1043100084090F08170701181900000078210F08F9
:1043200010170108120000001CF20D080307031308
:104330000900000034720F08070701180800000088
:104340003C720F081D0701131D000000A0090F0893
:104350000C12010D0F000000D8C40E080705FC0266
:104360000000000044720F080705FC020000000076
:104370004C720F080706FC020000000054720F0880
:104380000907FB0100000000BC490F080904FC02FA
:10439000000000005C720F08060701130000000017
:1043A00064720F08030E030C09000000CC490F08CB
:1043B00006050115080000006C720F080A130107BA
:1043C0000C000000BC900E08070901110A00000053
:1043D00068550F08061600040600000090210F081B
:1043E0000419010106000000BC090F080915000AA4
:1043F0000A00000028390E08041801070600000012
:10440000A8210F08140F010B160000004CF20D0834
:104410000213020706000000F8380F08120C011200
:1044200014000000FCC40E080A1101090C00000071
:1044300020C50E08120C010E1400000044C50E0821
:10444000120F010B140000007CF20D080C11010E7C
:104450000F00000068C50E080C11010E0F000000CF
:104460008CC50E080C14010B0F000000E4900E0820
:104470000A0C010E0C000000C0210F080A10010AEE
:104480000C0000007CE80E08080B00140900000076
:1044900074550F080810000F09000000DC490F08D0
:1044A0001C0E01111E00000038440D081C14010BE5
:1044B0001E000000AC140C081B0F01101D000000B2
:1044C000040A0D081B14010B1D000000FC140C084D
:1044D0001113FF0711000000400A0D081113FF0718
:1044E000110000007C0A0D080C12010D0F000000E5
:1044F000B0C50E080C1601090F00000054390E0853
:104500000702FF180600000026820F081412010897
:104510001600000070440D08141501071600000075
:10452000DCCA0C080F130107120000000C910E08E2
:104530000D1301071000000034910E08100EFE113B
:104540000F000000D8090F080F0E010C1100000029
:10455000F4090F080A0C010E0C000000D8210F0806
:10456000090F00100A0000009CE80E08140E010C50
:104570001600000080390E081412010C160000000D
:10458000A8440D080704000500000000607F0F0824
:10459000080500010000000074720F080704001AEB
:1045A00000000000647F0F08070200040000000004
:1045B00028820F0806050001000000007C720F0829
:1045C0000702001C000000002A820F0807050101F5
:1045D0000000000084720F080505000200000000C2
:1045E0008C720F0806020004000000002C820F08E5
:1045F0000404010200000000687F0F080404011B8E
:10460000000000006C7F0F080105FF1A0000000089
:1046100094720F080605FD01000000009C720F084F
:104620000403FE0300000000707F0F080501FD0970
:104630000000000087820F0805030004000000004E
:10464000747F0F080704000300000000787F0F0844
:104650000202FF1C000000002E820F080605000168
:1046600000000000A4720F08050300030000000012
:104670007C7F0F080707040E0E000000AC720F08C5
:10468000051104090E0000000C390F080C11010976
:104690000E000000D4C50E080D1100090E00000028
:1046A000F8C50E080B1102090E0000001CC60E080A
:1046B0000D0E010C0E000000100A0F080C1101096C
:1046C0000E00000040C60E080D1101090E0000008A
:1046D00064C60E080D1101090E00000088C60E0800
:1046E0000C1102090E000000ACC60E080D110109E4
:1046F0000E000000D0C60E080307031709000000D3
:10470000B4720F080307031309000000BC720F08FE
:104710000C0C010C0E000000F0210F081208011211
:104720001400000008220F081410010C16000000ED
:10473000ACF20D080108FF0100000000C4720F0870
:10474000061800020600000020220F0806180002CA
:104750000600000038220F080618000706000000B7
:1047600050220F080404010206000000807F0F0899
:10477000071302070600000020390F080A15000A77
:104780000A000000AC390E080B15FF0A0A000000F1
:10479000D8390E081614010616000000B80A0D08D4
:1047A0001211010914000000648F0D08120F010B93
:1047B00014000000DCF20D08120D011214000000BC
:1047C0005C910E081210010E140000000CF30D088D
:1047D000120E010C14000000043A0E08120D011212
:1047E0001400000084910E08120F010B1400000049
:1047F0003CF30D08120D011214000000AC910E08DC
:104800000C1701080F0000006CF30D080C180107CD
:104810000F0000009CF30D080C11010E0F000000AA
:10482000F4C60E080C11010E0F00000018C70E0888
:104830000C1801070F000000CCF30D080C11010E3D
:104840000F0000003CC70E080C11010E0F00000005
:1048500060C70E080A1501050C000000303A0E086A
:104860000A10010E0C000000BCE80E080A10010E30
:104870000C000000DCE80E080A1901050C0000001D
:10488000988F0D080A10010A0C000000FCE80E08C1
:104890000A10010E0C0000001CE90E080A130107A3
:1048A0000C000000D4910E080A1301070C00000050
:1048B000FC910E080A1301070C00000024920E0858
:1048C000081600090900000068220F080811000EF0
:1048D0000900000034390F080B0B00140900000018
:1048E00080220F08090B00140900000098220F080D
:1048F0000C0B001409000000B0220F08090B001473
:1049000009000000C8220F080810000F090000006D
:10491000EC490F080813000C0900000048390F0883
:104920000813000C090000005C390F081C11010E6F
:104930001E00000038A40C081C0E01111E0000000F
:10494000E0440D081C14010B1E0000004C150C085F
:104950001B0F01101D000000F40A0D081B170108B1
:104960001D0000003CCD0B081113FF0711000000D3
:10497000300B0D080C1901060F000000CC8F0D083C
:10498000140E010C160000005C3A0E081412010C03
:104990001600000018450D08141601081600000046
:1049A0007CA40C0814150105160000001CCB0C0893
:1049B0001413010C160000006C0B0D0814150105F2
:1049C000160000005CCB0C0814140108160000004F
:1049D000A80B0D08141701051600000000670C084D
:1049E0001413010717000000E40B0D081E0C010E44
:1049F0001F000000FCF30D0814130107170000004E
:104A0000200C0D080F130107120000004C920E0835
:104A10000F16010412000000883A0E080F18010753
:104A2000120000002CF40D081416010417000000F9
:104A3000C0A40C08141601041700000004A50C08FB
:104A4000141601041700000048A50C08141A0104EC
:104A5000170000009C150C08141B0104170000002F
:104A600088F60B081419010117000000702D0C08BE
:104A70000F170103100000005CF40D080D1601046F
:104A800010000000B43A0E080F19010110000000D8
:104A900000900D080D180107100000008CF40D089F
:104AA0000F12010C1100000084C70E080F0A01103C
:104AB0001100000070390F080F13010711000000EA
:104AC00074920E080F12010C11000000A8C70E0806
:104AD0000F11010911000000CCC70E08110DFF0DC8
:104AE000110000009C920E080C14010B0F00000036
:104AF000C4920E080A1201080C000000F0C70E084C
:104B00000C0801140D000000FC490F080C10010CEA
:104B10000D0000003CE90E080C0E010E0D00000017
:104B20002C0A0F08090F00100A0000005CE90E08AB
:104B3000090E00110A000000480A0F080913000CB2
:104B40000A000000EC920E08091700080A00000095
:104B5000BCF40D08091900060A00000034900D0885
:104B60000914000B0A00000014930E080913000C2E
:104B70000A0000003C930E08091600090A00000014
:104B8000E03A0E08140E010C160000000C3B0E0853
:104B9000160E000C17000000383B0E08140E010C16
:104BA00016000000643B0E080913000C0A00000008
:104BB00064930E081413010C160000005C0C0D0821
:104BC0001413010C16000000980C0D08170B0013AD
:104BD0001700000014C80E081712000C1700000080
:104BE00050450D08060200180600000030820F082C
:104BF0000A0C010E0C000000E0220F080B09FB025A
:104C00000000000084390F080C09FA0200000000BF
:104C100098390F080504FE0500000000847F0F0886
:104C20000708FD0200000000CC720F080507FE0512
:104C300000000000D4720F080302FF07000000000C
:104C400032820F080C05FA060000000080550F089C
:104C50001A1B01041C00000008410B081B1B000468
:104C60000000000074410B080202FF070000000072
:104C700034820F080202FF070000000036820F088E
:104C80000704FD0500000000887F0F080706FC05EB
:104C900000000000DC720F080C05FA1A000000008A
:104CA0008C550F080403FF01000000008C7F0F08E3
:104CB0000505000606000000E4720F08090500075C
:104CC0000A00000098550F080905FB0700000000C6
:104CD000A4550F080606FD0300000000EC720F0843
:104CE0001114FF060F000000D40C0D080505FE1A74
:104CF00000000000F4720F080505FE05000000002A
:104D0000FC720F080202FF070000000038820F0843
:104D10000706FC190000000004730F080A110109BE
:104D20000C00000038C80E080912000D0900000030
:104D30005CC80E080707040E0E0000000C730F0875
:104D4000051104090E000000AC390F080C1101090F
:104D50000E00000080C80E080D1100090E000000B2
:104D6000A4C80E080C10010A0E0000007CE90E0811
:104D70000D1100090E000000C8C80E08090F030B32
:104D80000E0000009CE90E080D1101090E00000044
:104D9000ECC80E080D1101090E00000010C90E0824
:104DA0000C1102090E00000034C90E081C14010B7E
:104DB0001E000000EC150C081B14010B1D00000068
:104DC0003C160C080C1601090F000000903B0E0861
:104DD000080D01110A0000000C4A0F080E0E001108
:104DE0000F000000640A0F081114FF0611000000F4
:104DF000100D0D08120C01121400000058C90E0805
:104E00001213010B140000004C0D0D08120D0112BD
:104E1000140000008C930E081211010E1400000003
:104E200068900D081210010E14000000ECF40D083B
:104E3000120D011214000000B4930E08120C010EA2
:104E4000140000007CC90E080C15010A0F000000B8
:104E5000BC3B0E080C11010E0F000000A0C90E088B
:104E60000A1A01050C0000009C900D080A11010EA1
:104E70000C000000C4C90E080A0B00140900000051
:104E8000F8220F081C14010B1E0000008C160C08E1
:104E90000C1601090F000000E83B0E080C18010772
:104EA0000F0000001CF50D080C1901060F00000092
:104EB000D0900D081412010C1600000088450D0852
:104EC0001413010C16000000880D0D0814130107BF
:104ED00017000000C40D0D0814160104170000008F
:104EE0008CA50C08141801071700000048670C086F
:104EF0001013FE0C0F000000DC930E08100EFE11C4
:104F00000F000000800A0F080F12010C11000000B2
:104F1000E8C90E080F1301071100000004940E08E1
:104F20000F0E010C110000009C0A0F08111301075D
:104F300010000000000E0D080813000C090000000E
:104F4000C0390F080812000D09000000D4390F08FD
:104F50001C14010B1E000000DC160C080B0E020CCA
:104F60000F000000B80A0F080D0E000C0F00000023
:104F7000D40A0F080E0E000C10000000F00A0F08F3
:104F80000C0E010C0F0000000C0B0F080C0E010C96
:104F90000F000000280B0F080F0E000C110000007E
:104FA000440B0F080A0E000C0C000000600B0F08E9
:104FB0000B0E010C0E0000007C0B0F080D0E010CF7
:104FC00010000000980B0F080F10000A10000000DE
:104FD000BCE90E081010000A11000000DCE90E0800
:104FE000120E020C16000000143C0E081113020CE5
:104FF000150000003C0E0D080E13000C1000000000
:105000002C940E080E13000C1000000054940E088F
:105010000B13010C0E0000007C940E08120E000C05
:1050200014000000403C0E08130E010C1600000096
:105030006C3C0E08120E020C15000000983C0E0885
:105040000C0E010C0F000000B40B0F080C0E010C2D
:105050000F000000D00B0F080B0E020C0F00000019
:10506000EC0B0F080E0E020C12000000080C0F08CB
:105070000B0E010C0E000000240C0F080C0E020C8D
:105080000F000000400C0F080C0E020C1000000076
:105090005C0C0F080C14020610000000A4940E080B
:1050A0000B0E020C10000000780C0F080B14020607
:1050B00010000000CC940E080E0E000C1200000030
:1050C000940C0F080E14000611000000F4940E0852
:1050D0000D0E010C10000000B00C0F080B0E020C9E
:1050E0000F000000CC0C0F080A0E020C0E0000008E
:1050F000E80C0F08090E010C0B000000040D0F084E
:105100000A11020C0E0000000CCA0E080B0E020C55
:105110000F000000200D0F080D11010C1000000001
:1051200030CA0E08090E010C0C0000003C0D0F08DF
:105130000D0F010B0F000000FCE90E08100E020C11
:1051400013000000580D0F080C0F020B0F00000099
:105150001CEA0E080F0E000C11000000740D0F0861
:105160001113000712000000780E0D080B0E020C40
:105170000F000000900D0F080C0F020B0F00000035
:105180003CEA0E080A0E010C0D000000AC0D0F08E1
:10519000080E020C0B0000001C4A0F080A05F80656
:1051A00000000000B0550F08090E010C0C000000B3
:1051B000C80D0F080F12FB080C00000054CA0E089F
:1051C0000A04F3070000000014730F080A05F30631
:1051D00000000000BC550F080A05F306000000009F
:1051E000C8550F080A05F30600000000D4550F0843
:1051F0000304FB1B00000000907F0F080704F71B4F
:1052000000000000947F0F080202FC1B0000000059
:105210003A820F080C1602060F000000C43C0E086C
:10522000050E020C080000002C4A0F080C0E020CA0
:105230000F000000E40D0F080A1401060C00000026
:105240001C950E08091401060B00000044950E0879
:105250000C1400060D0000006C950E080911010CDD
:105260000C00000078CA0E080911010C0C000000A7
:105270009CCA0E080807F604000000001C730F0803
:105280000104FC0700000000987F0F080704F707DF
:10529000000000009C7F0F080904F70700000000D1
:1052A00024730F080303FC0800000000A07F0F0810
:1052B0000705F906000000002C730F080404FB0822
:1052C00000000000A47F0F080507FA01000000009D
:1052D00034730F080C0C010E0F00000010230F0890
:1052E0000C0B010F0F00000028230F080D0B010FFE
:1052F0001000000040230F080D0E020C11000000EA
:10530000000E0F080E0B010F1100000058230F08AC
:10531000110F010B120000004CF50D08110F010BCD
:10532000120000007CF50D080E0F000B10000000AD
:105330005CEA0E08100E010C130000001C0E0F0892
:10534000100F010B130000007CEA0E08100E010C78
:1053500012000000380E0F080E0E010C11000000A4
:10536000540E0F08170C020E1B000000C0CA0E08D6
:105370000D0E000C0C000000700E0F08110E000C3A
:1053800012000000F03C0E08140E010C1600000084
:105390001C3D0E080C0E010C0D0000008C0E0F08B9
:1053A0000A0E010C0C000000A80E0F080B0E020CD8
:1053B0000E000000C40E0F080C0E010C0E000000C1
:1053C000E00E0F08080E020C0B0000003C4A0F080C
:1053D0000A0E000C0B000000FC0E0F080212020C5B
:1053E00006000000E8390F08070E000C0900000055
:1053F0004C4A0F080A0E020C0C000000180F0F0890
:10540000090E010C0B000000340F0F080C0E020CEB
:1054100010000000500F0F080A0E020C0E000000D2
:105420006C0F0F080C0E010C0E000000880F0F0807
:105430000A0E010C0C000000A40F0F080E0C010D49
:105440001000000070230F080E0A010E100000006B
:10545000FC390F08100C000D1000000088230F0805
:10546000150E010C17000000483D0E08090E010C36
:105470000B000000C00F0F080C07010C0E0000000D
:105480005C4A0F080C0701130E0000006C4A0F085D
:105490000A0E020C0D000000DC0F0F080B0E000CB2
:1054A0000D000000F80F0F080B0E000C0D0000009F
:1054B00014100F080C0E000C0C00000030100F0828
:1054C0000A0E020C0E0000004C100F080D0B020E0D
:1054D00011000000A0230F08110B010E14000000A2
:1054E000E4CA0E080E12040A1500000008CB0E08CC
:1054F0000C0E000C0C00000068100F08130E000CBE
:1055000013000000743D0E08090E010C0B00000092
:1055100084100F08090E010C0B000000A0100F08EA
:105520000B0E010C0D000000BC100F080F0E000C3C
:105530000F000000D8100F08080E020C0A0000002F
:105540007C4A0F080D0E000C0C000000F4100F0830
:105550000A0E020C0E00000010110F080A0E020CB9
:105560000D0000002C110F080E0E020C120000009E
:1055700048110F080C0E000C0E00000064110F08FB
:105580000B0D00080A00000080110F08100D000824
:10559000100000009C110F08090D01080A0000000E
:1055A000B8110F080B0D00080A000000D4110F08F5
:1055B0000A0D01080C000000F0110F08080D010889
:1055C0000A0000008C4A0F08080D01080A000000BC
:1055D0009C4A0F080B0D01080C0000000C120F086C
:1055E0000A0D01080B00000028120F08060D010823
:1055F00007000000AC4A0F08070D00080800000073
:10560000BC4A0F08090D01080A00000044120F08E7
:10561000070D010809000000CC4A0F080B0D010816
:105620000D00000060120F080A0D01080B000000B9
:105630007C120F080A0D01080B00000098120F08D9
:105640000B0D01080D000000B4120F08090D010830
:105650000A000000D0120F08080D01080A0000001F
:10566000DC4A0F080A0D01080B000000EC120F08BD
:105670000A0D01080C00000008130F080A0D0108AC
:105680000B00000024130F080F0D00080F0000008E
:1056900040130F080809010C09000000E0550F082D
:1056A0000809010C09000000EC550F080909010C5C
:1056B0000A000000103A0F080F09000C100000004B
:1056C000243A0F08090D01080A0000005C130F08B6
:1056D000090D01080A00000078130F080909010CE0
:1056E0000A000000383A0F080909000C0A000000FF
:1056F0004C3A0F080709010C09000000F8550F0883
:105700000709010C0900000004560F08090C010CE0
:105710000A000000B8230F08020C010C040000006E
:1057200010560F08090D01080900000094130F0816
:105730000E09000C0E000000603A0F08080C010C66
:105740000A0000001C560F080909010C0A0000009D
:10575000743A0F080709010C0900000028560F08C9
:105760000905010C0A00000034560F080905011054
:105770000A00000040560F08090C010C0A00000046
:10578000D0230F08060C0109070000004C560F0833
:105790000809010C0A00000058560F080908010CFE
:1057A0000B000000EC4A0F080E09000C0E00000070
:1057B000883A0F080909000C080000009C3A0F08FD
:1057C0000A09000C0A000000B03A0F08091001088D
:1057D0000A0000009CEA0E08080D000C08000000FA
:1057E000FC4A0F08090D01080A000000B0130F0859
:1057F0000C0C010C0D000000E8230F08090C000C34
:105800000800000000240F08020C01100400000032
:1058100064560F08050901130600000070560F08B2
:10582000080901130A0000007C560F08090900133B
:1058300008000000C43A0F080910010F0A00000018
:10584000BCEA0E08080C00130800000088560F0878
:10585000090C01130A00000018240F080C0D011296
:105860000D000000CC130F08090C00130800000005
:1058700030240F08130E020C16000000A03D0E0885
:105880000F14FE060E00000094950E080F1401067A
:105890000E000000BC950E080B14FE060800000068
:1058A000E4950E08170EFF0C15000000CC3D0E0805
:1058B000100EFF0C0E000000E8130F080F13FE0C73
:1058C0000E0000000C960E080B0EFE0C09000000E6
:1058D00004140F080B0EFE0C0900000020140F0822
:1058E000100EFE0C0C0000003C140F080A12FE08FB
:1058F000080000002CCB0E080E0EFF0C0B00000061
:1059000058140F080B13020C0E00000034960E08FA
:10591000090C01070B00000048240F080B13010CB1
:105920000D0000005C960E0814160006160000001C
:10593000D0A50C08090E000C0900000074140F0813
:10594000090EFF0C0600000090140F080D13010C47
:105950000E00000084960E080D0E010C0E000000D3
:10596000AC140F08100E000C10000000C8140F0833
:105970000B1902060E00000004910D080D19010616
:105980000E00000038910D080919000608000000FB
:105990006C910D081213010C0E000000B40E0D08DE
:1059A0000B1902060C000000A0910D080619000654
:1059B00006000000E4140F081413010C1500000089
:1059C000F00E0D080C13020C0E000000AC960E0831
:1059D0000B13020C0E000000D4960E080913000CE5
:1059E00009000000FC960E080C13010C0B000000CF
:1059F00024970E080E1901060E000000D4910D0820
:105A00000D13000C0D0000004C970E080C13000C39
:105A10000C00000074970E080913010C0B00000025
:105A20009C970E080E13010C0D000000C4970E0881
:105A30000F13010C0E000000EC970E081019010660
:105A40000E00000008920D080F13010C0D0000005D
:105A500014980E080E13010C0B0000003C980E0861
:105A60000A13000C0B00000064980E08130E010CC2
:105A70000D000000F83D0E0808180207060000009F
:105A800060240F080A13010C0C0000008C980E080B
:105A90000C1901060E0000003C920D080E13020CBA
:105AA0000E000000B4980E080A13000C0B00000052
:105AB000DC980E080809010C0A00000094560F0833
:105AC0000709010C09000000A0560F080809000C86
:105AD00009000000AC560F08080D01080A0000007C
