:020000040800F2
:10000000F89700206D890F0855FC0A086FFC0A0854
:1000100089FC0A08A3FC0A08BDFC0A0800000000CD
:100020000000000000000000000000001588030828
:10003000D7FC0A0800000000B9870308F1FC0A0891
:1000400059BB0F085DBB0F0861BB0F0865BB0F08EC
:1000500069BB0F086DBB0F0871BB0F0875BB0F089C
:1000600079BB0F087DBB0F0881BB0F0885BB0F084C
:1000700049FD0A081BFD0A0845FD0A081FFD0A087C
:1000800089BB0F088DBB0F0891BB0F0895BB0F08EC
:1000900099BB0F089DBB0F08A1BB0F0879FD0A088B
:1000A000A5BB0F08A9BB0F08ADBB0F08B1BB0F085C
:1000B000B5BB0F08B9BB0F08BDBB0F08C1BB0F080C
:1000C000C5BB0F08C9BB0F08CDBB0F08D1BB0F08BC
:1000D000D5BB0F080BFD0A08D9BB0F08DDBB0F0805
:1000E000E1BB0F08E5BB0F08E9BB0F08EDBB0F082C
:1000F000F1BB0F08F5BB0F08F9BB0F08FDBB0F08DC
:100100004DFD0A0801BC0F0805BC0F0809BC0F080B
:1001100017FD0A080DBC0F0807FD0A0811BC0F08DF
:1001200015BC0F0819BC0F080FFD0A081DBC0F08ED
:1001300021BC0F0825BC0F0829BC0F082DBC0F08D7
:1001400031BC0F0835BC0F0839BC0F083DBC0F0887
:1001500041BC0F0845BC0F0813FD0A0849BC0F0835
:1001600071FD0A0875FD0A084DBC0F0851BC0F0847
:1001700055BC0F0859BC0F085DBC0F0800000000FB
:1001800061BC0F0865BC0F0823FD0A0869BC0F0895
:100190006DBC0F0871BC0F0875BC0F0879BC0F0847
:1001A00051FD0A0857FD0A087DBC0F0881BC0F08E5
:1001B00085BC0F0889BC0F088DBC0F0891BC0F08C7
:1001C00095BC0F0899BC0F080101001A0800000037
:1001D000B6BD0F080213030708000000E86B0F0804
:1001E000070701060A0000003CA90F0810130107C9
:1001F00012000000988E0E080C1701070E00000078
:10020000A8150E081613010718000000C02F0D08CE
:100210001113010711000000FC2F0D080207010651
:100220000500000044A90F08071901060A00000094
:100230008C300F08071902060A000000A8300F08CA
:100240000C0B01060E00000014550F080E0E020BD9
:1002500012000000C4300F08050801170800000054
:100260004CA90F08070201110900000034BD0F0856
:100270000303021708000000A4B90F0809180006BC
:100280000A000000D8150E080C1301070E0000002C
:10029000C08E0E08081303070E000000FC6B0F0849
:1002A0000B1301070E000000E88E0E080B13010768
:1002B0000E000000108F0E080C1300070E00000047
:1002C000388F0E080B1302070E000000608F0E0817
:1002D0000C1301070E000000888F0E080C13010795
:1002E0000E000000B08F0E080C1301070E00000076
:1002F000D88F0E080C1301070E00000000900E08A6
:10030000030E030C090000003C800F080513020CCB
:1003100009000000106C0F080D0E020B1200000007
:10032000E0300F080E07020E120000004C800F088C
:100330000D0E030B12000000FC300F080A1301071A
:100340000C00000028900E08141602071700000089
:1003500088D80C080F1300070F00000050900E08FB
:100360000C1302070F00000078900E080D13010710
:100370000F000000A0900E080E13020711000000ED
:10038000C8900E080B1302070E000000F0900E0834
:100390000B1302070D00000018910E080F13010740
:1003A0001100000040910E080D130207110000001B
:1003B00068910E080613010709000000246C0F085D
:1003C000081300070A000000386C0F080D1302071D
:1003D0000F00000090910E080A1302070C000000A5
:1003E000B8910E080F13020713000000E0910E08E9
:1003F0000D1302071100000008920E0810130107E8
:100400001200000030920E080C1302070E000000CC
:1004100058920E08101801071200000008160E0866
:100420000E1302071000000080920E080C13010743
:100430000E000000A8920E081013FF070F00000026
:10044000D0920E080C13020710000000F8920E085C
:100450000F1300070F00000020930E08171300076A
:100460001700000038300D080F1300070F000000C0
:1004700048930E080E1300070E00000070930E083C
:100480000C1301070E00000098930E0806190206CF
:100490000A00000018310F08091801060A000000C0
:1004A00038160E08061901060A00000034310F083C
:1004B0000F0A0207120000004C6C0F080E02001C0D
:1004C0000E000000A8B90F08050503050E00000086
:1004D00054A90F080A0E010C0D00000050310F083E
:1004E0000B1402060E000000C0930E080A0E010C49
:1004F0000C0000006C310F080B1401060E00000008
:10050000E8930E080B0E010C0D00000088310F0857
:10051000091400060800000010940E080B13010CCB
:100520000E00000038940E080A1402060E000000A7
:1005300060940E080213020706000000606C0F08AA
:100540000618FF07070000002C550F080B140206C1
:100550000C00000088940E08021402060600000039
:10056000746C0F08120E010C15000000A05F0E083D
:100570000A0E020C0E000000A4310F080C0E010C34
:100580000E000000C0310F080B13020C0E0000001B
:10059000B0940E080B13010C0E000000D8940E0846
:1005A000070E020C090000005C800F080A0E010C07
:1005B0000B000000DC310F080812000808000000E2
:1005C000886C0F080A0E020C0E000000F8310F08AC
:1005D0000C0E000C0C00000014320F08130E000C5F
:1005E00013000000CC5F0E080C0E000C0C00000085
:1005F00030320F080C13000C0C00000000950E08A0
:10060000090E010C0B0000004C320F080A190106FC
:100610000C000000B4AB0D08021904060A0000002B
:1006200068320F080A1901060C000000E8AB0D083B
:100630000E06020F12000000548E0F080101001A6E
:1006400008000000B7BD0F080213030708000000F0
:100650009C6C0F080B1601080E000000F85F0E08D6
:100660000B1301070E00000028950E080C0C010C5E
:100670000E00000044550F080E1300070E00000086
:1006800050950E08021904060A00000084320F0873
:100690000B1801070E00000068160E080702030879
:1006A0000E00000036BD0F081515010717000000E9
:1006B00084FE0C08090C01070C0000005C550F08B3
:1006C0000B0C010C0E00000074550F080E090211EE
:1006D00012000000B06C0F080702011109000000B1
:1006E00038BD0F081515010717000000C4FE0C08DF
:1006F0000E0200040E000000ACB90F080909010742
:100700000C000000C46C0F080E0F0209120000005C
:10071000F81B0F08090B02070C0000008C550F088E
:10072000080B02070C000000608E0F080505050588
:100730000E0000005CA90F080A13020C0E00000056
:1007400078950E080B1701070E00000098160E088A
:100750000303030C09000000B0B90F080605041AD2
:100760000E00000064A90F08060B04070C0000002F
:100770006C8E0F080A0C01070C000000A4550F082E
:100780000B0C020C0E000000BC550F0814130207DE
:100790001900000074300D0816130207190000003C
:1007A000B0300D081513020719000000EC300D08D9
:1007B0000A1301070C000000A0950E080F19000194
:1007C0000F0000001CAC0D080F1900010F00000005
:1007D00050AC0D080F1900010F00000084AC0D088B
:1007E0000F1800020F000000C8160E080F160004B4
:1007F0000F00000024600E080F1900010F00000018
:10080000B8AC0D08161300071700000028310D08BA
:100810000D1801070F000000F8160E080B19020151
:100820000E000000ECAC0D080B1902010E000000D8
:1008300020AD0D080B1902010E00000054AD0D088B
:100840000B1702030E00000028170E0806190101FD
:1008500009000000A0320F0806190101090000007C
:10086000BC320F080819000109000000D8320F0837
:100870000617010309000000D4550F0810130007E4
:1008800011000000C8950E080D18020211000000AA
:1008900058170E08101901011200000088AD0D084C
:1008A0001019010112000000BCAD0D081019010162
:1008B00012000000F0AD0D08101801021200000037
:1008C00088170E081017010312000000B8170E0851
:1008D0000D0D030C12000000F4320F081015010674
:1008E0001200000050600E080C19020110000000F8
:1008F00024AE0D080C1902011000000058AE0D08BE
:100900000C190201100000008CAE0D080C17020338
:1009100010000000E8170E080E1900010E0000007C
:10092000C0AE0D080A1302070E000000F0950E0875
:100930000B1402060E00000018960E080A15010599
:100940000D0000007C600E080A1501050D00000076
:10095000A8600E080A1501050D000000D4600E08FD
:100960000A1401060D00000040960E080A12010844
:100970000D000000A0F40E080A1501050D0000008E
:1009800000610E08140E010C160000002C610E0808
:100990000A13010C0C00000068960E080B150105E7
:1009A0000D00000058610E080B1501050D00000038
:1009B00084610E080B1501050D000000B0610E08E2
:1009C0000B1201080D000000C4F40E080515000507
:1009D00006000000EC550F08051502050600000092
:1009E00004560F0806150005060000001C560F08E7
:1009F0000613000706000000D86C0F080C1301074F
:100A00000E00000090960E080A1402060E00000068
:100A1000B8960E080C1501050E000000DC610E08EA
:100A20000C1501050E00000008620E080C150105EA
:100A30000E00000034620E080C1401060E000000C7
:100A4000E0960E080C1201080E000000E8F40E08F3
:100A50000F0E020B1200000010330F080C10010BD8
:100A60000E000000181C0F080A1502050E000000F9
:100A700060620E080A1502050E0000008C620E0866
:100A80000A1502050E000000B8620E080A120208DC
:100A90000E0000000CF50E080C1A00050C000000FA
:100AA000F4AE0D080B1902060E00000028AF0D0869
:100AB0000C1700080C00000018180E080F17000390
:100AC0000F00000048180E080A1301070D0000006F
:100AD00008970E080F1900010F0000005CAF0D0809
:100AE0000A1401060D00000030970E0810180007C8
:100AF0000F00000078180E080B13010C0D00000009
:100B000058970E080D1901010F00000090AF0D0855
:100B10000A1501050C000000E4620E080D19010120
:100B20000F000000C4AF0D080A1501050C000000FD
:100B300010630E080D1701030F000000A8180E081F
:100B40000A1201080C00000030F50E080D19010111
:100B50000F000000F8AF0D080A1501050C00000099
:100B60003C630E080E190201110000002CB00D08A4
:100B7000101401061100000080970E0810130007E2
:100B800011000000A8970E080D1401060E000000C9
:100B9000D0970E080B1702030E000000D8180E089D
:100BA0000B1301070D000000F8970E080B19020146
:100BB0000E00000060B00D080B1401060D000000CF
:100BC00020980E080B1702030E00000008190E08EB
:100BD0000B1201080D00000054F50E080B18020757
:100BE0000E00000038190E080B13010C0D00000058
:100BF00048980E080B1902010E00000094B00D0871
:100C00000B1501050D00000068630E080F190101A6
:100C100011000000C8B00D080B1A01050E000000FD
:100C2000FCB00D080F1901011100000030B10D08D2
:100C30000B1901060E00000064B10D080F17010327
:100C40001100000068190E080B1701080E000000C3
:100C500098190E080F18010711000000C8190E0896
:100C60000B1A01050E00000098B10D080D190201C4
:100C700011000000CCB10D080A1902010E0000009D
:100C800000B20D08121300071200000064310D08B5
:100C90000C1400060E00000070980E0808190001E0
:100CA000090000002C330F0806140006060000009F
:100CB000EC6C0F08081800020900000034560F08F9
:100CC0000613000706000000006D0F080619010159
:100CD0000900000048330F08061400060600000053
:100CE000146D0F0806180107090000004C560F0884
:100CF000041801070600000064560F0806170103D8
:100D0000090000007C560F08020E020C06000000CD
:100D10006C800F080F1301071200000098980E084E
:100D2000091802070D000000F8190E080919000142
:100D30000A00000034B20D08081AFF050700000081
:100D400064330F080D1802070F000000281A0E0860
:100D50000B1902060C00000068B20D080B0E020C05
:100D60000C00000080330F080A1902010C0000007B
:100D70009CB20D0805190201060000009C330F0803
:100D80000A1802070C000000581A0E08051901067F
:100D900006000000B8330F080A1402060C00000019
:100DA000C0980E080814020609000000286D0F08FC
:100DB0000A1302070C000000E8980E080814020647
:100DC0000B0000003C6D0F080D1300070D00000024
:100DD00010990E080614000607000000506D0F0859
:100DE0000D19020111000000D0B20D080A1502050C
:100DF0000E00000094630E080D1802071100000099
:100E0000881A0E080A13020C0E00000038990E080A
:100E10000D1902011100000004B30D080A150205A6
:100E20000E000000C0630E081014FF061100000041
:100E300060990E080D18020711000000B81A0E087C
:100E40000A13020C0E00000088990E081017010307
:100E500012000000E81A0E080C1301070E00000033
:100E6000B0990E08101901011200000038B30D08E6
:100E70000C1401060E000000D8990E08101901018B
:100E8000120000006CB30D080C1501050E000000E7
:100E9000EC630E081613010718000000A0310D08BE
:100EA000150E010C1700000018640E080E1902013F
:100EB00010000000A0B30D0807150205090000008E
:100EC00094560F080E18020710000000181B0E0899
:100ED0000813010C09000000646D0F080E190201CF
:100EE00010000000D4B30D08081502050900000029
:100EF000AC560F080C1901010E00000008B40D08D3
:100F00000A1501050B00000044640E080C190101CC
:100F10000E0000003CB40D080A1501050B0000008E
:100F200070640E080C1801070E000000481B0E0824
:100F30000A13010C0B000000009A0E080C190101A5
:100F40000E00000070B40D080A1501050B0000002A
:100F50009C640E081018FF070F000000781B0E0895
:100F60000817000808000000C4560F081019FF01F8
:100F70000F000000A4B40D080C1400060C000000C3
:100F8000289A0E081013FF070F000000509A0E0851
:100F90000812000808000000786D0F080C18020203
:100FA00010000000A81B0E080A1402060E00000024
:100FB000789A0E080C17020310000000D81B0E08C8
:100FC0000A1302070E000000A09A0E080C19020175
:100FD00010000000D8B40D080A1402060E0000002C
:100FE000C89A0E080C190201100000000CB50D087B
:100FF0000A1502050E000000C8640E080D19020152
:101000001000000040B50D080A1502050E00000092
:10101000F4640E080C18020710000000081C0E08EB
:101020000B13020C0E000000F09A0E0817190001B5
:1010300017000000E45E0C08131500051300000003
:1010400004FF0C080E1900010E00000074B50D0815
:101050000C1A00050C000000A8B50D080E170003BF
:101060000E000000381C0E080C1901010E000000D3
:10107000DCB50D08091501050B00000020650E0800
:101080000C1701030E000000681C0E08091201086D
:101090000B00000078F50E080C1901010E0000008D
:1010A00010B60D08091501050B0000004C650E086F
:1010B00006140206060000008C6D0F080D140006D1
:1010C0000E000000189B0E0810130007110000000E
:1010D000409B0E080C1302070F000000689B0E08CF
:1010E0000B1402060E000000909B0E080F13000761
:1010F0000F000000B89B0E080D1400060E00000043
:10110000E09B0E080D1301070F000000089C0E085D
:10111000111501050F00000044FF0C080E11010914
:101120000C0000009CF50E081013000711000000D1
:10113000309C0E081213000713000000DC310D086C
:101140000C1301070F000000589C0E080B14010639
:101150000E000000809C0E080C13010C0E00000015
:10116000A89C0E080B1301070E000000D09C0E086F
:101170001013010712000000F89C0E080C13010761
:101180000D000000209D0E080F18FE070D00000046
:10119000981C0E080E1500070E00000078650E085A
:1011A000131501051100000084FF0C080F1800073B
:1011B0000F000000C81C0E081214020616000000E2
:1011C00018320D080214020606000000A06D0F0878
:1011D0000813000709000000B46D0F080D13020783
:1011E0000F000000489D0E080B1402060C000000C2
:1011F000709D0E080614000607000000C86D0F0859
:101200000C1400060C000000989D0E081213020733
:101210001600000054320D081118FE0711000000DE
:1012200048970C080A13020C0E000000C09D0E081F
:101230001013010712000000E89D0E0812130107A9
:101240001300000090320D080D1101090E0000007E
:10125000C0F50E08151801071700000090970C083C
:101260000E13010C11000000109E0E081013000751
:1012700010000000389E0E080B1902060E00000038
:1012800044B60D080D1502070E000000A4650E08F7
:101290000C1301070E000000609E0E080A0E000CE1
:1012A0000B000000D4330F080D1301070E000000DF
:1012B000889E0E080D1900060E00000078B60D0875
:1012C0000817000808000000DC560F080F1300077D
:1012D0000F000000B09E0E08081400060800000071
:1012E000DC6D0F080E1800070F000000F81C0E0838
:1012F0001116020412000000CCD80C080E110209CD
:101300000F000000E4F50E081113010712000000A1
:10131000CC320D080C13020710000000D89E0E08F6
:10132000111300071100000008330D081118000701
:101330000C000000D8970C080C1301070E000000E9
:10134000009F0E08090E010C0B000000F0330F087F
:101350000C1800070D000000281D0E080C180107CE
:101360000D000000581D0E080A13010C0B000000B0
:10137000289F0E080913010C0B000000509F0E0857
:101380000B1301070E000000789F0E080C130107D5
:101390000E000000A09F0E080A0E000C0B000000BB
:1013A0000C340F080B1200080C00000008F60E08A1
:1013B0000B13020C0E000000C89F0E080219040651
:1013C0000A00000028340F08061902060A0000006F
:1013D00044340F080E19020612000000ACB60D08C6
:1013E0000213030708000000F06D0F081C1902012A
:1013F0001F000000F8930B08191502051C000000DF
:101400001C2C0C081715010519000000C4FF0C085E
:10141000141302071800000044330D0811180207C6
:101420001500000020980C08081902060C000000A6
:1014300060340F08171302071B00000080330D08EB
:10144000131802071700000068980C08111802070B
:1014500015000000B0980C080F1900010F000000E3
:10146000E0B60D080A1501050D000000D0650E0854
:1014700008190001090000007C340F080815FF0559
:1014800006000000F4560F081019010112000000B8
:1014900014B70D080C1501050E000000FC650E08C0
:1014A0000C1902011000000048B70D080A150205CA
:1014B0000E00000028660E080C1902011000000042
:1014C0007CB70D080A1602040E00000054660E08D0
:1014D0000C19020110000000B0B70D080A16020432
:1014E0000E00000080660E080C19020110000000BA
:1014F000E4B70D080A1802020E000000881D0E084D
:101500000C1902011000000018B80D080A16020498
:101510000E000000AC660E080B0E010C0D00000062
:1015200098340F080F1900010F0000004CB80D0887
:101530000A1601040D000000D8660E080F190001FC
:101540000F00000080B80D080A1601040D0000000D
:1015500004670E081617000317000000F8980C081F
:101560001413010716000000BC330D081013010707
:1015700011000000F09F0E080C13010C0E0000007B
:1015800018A00E080F19010111000000B4B80D08D1
:101590000B1A01050E000000E8B80D080D19020134
:1015A0000F0000001CB90D080B1902010C0000000F
:1015B00050B90D081018010712000000B81D0E08E0
:1015C0000C13010C0E00000040A00E08101C0103BB
:1015D00012000000D0780D080C1801070E00000062
:1015E000E81D0E080C1E00010D000000F8330D0868
:1015F0000A1A00050B00000084B90D08081AFF053F
:1016000007000000B4340F081C1302071F0000007D
:10161000305F0C08191302071C0000007C5F0C08E7
:10162000171401061900000034340D080F190101C8
:1016300011000000B8B90D080B1A01050E000000DA
:10164000ECB90D08151302071900000070340D08DD
:101650000B1802070E000000181E0E080D190201DB
:101660001100000020BA0D080A1502050E00000046
:1016700030670E080F1900010F00000054BA0D0862
:101680000A1701030D000000481E0E08161900017C
:1016900017000000C85F0C081415010516000000B3
:1016A00004000D08101A01011200000088BA0D088C
:1016B0000C1601050E0000005C670E080F190001F2
:1016C0000F000000BCBA0D080B1500050D0000004E
:1016D00088670E080F1900010F000000F0BA0D080E
:1016E0000A1401060D00000068A00E080B19020183
:1016F0000E00000024BB0D080B1501050D000000B5
:10170000B4670E080B1902010E00000058BB0D084B
:101710000B1401060D00000090A00E080A19FE012E
:10172000090000008CBB0D080A15FD05060000002D
:10173000E0670E080819000109000000D0340F0806
:101740000814FF0606000000046E0F0810190101BE
:1017500012000000C0BB0D080C1501050E000000B2
:101760000C680E081019010112000000F4BB0D08EE
:101770000C1401060E000000B8A00E080F1901019C
:101780001000000028BC0D080A1500050900000023
:1017900038680E080E190201100000005CBC0D082C
:1017A0000814020609000000186E0F080C19020147
:1017B0001000000090BC0D080B1501050E00000084
:1017C00064680E080C19020110000000C4BC0D086A
:1017D0000A1402060E000000E0A00E080C18010713
:1017E0000E000000781E0E080A13010C0B0000000A
:1017F00008A10E081018FF070F000000A81E0E0811
:1018000008170008080000000C570F080B18010704
:101810000D000000D81E0E080A13000C0B0000007B
:1018200030A10E080D19020111000000F8BC0D08CE
:101830000A1902010E0000002CBD0D080D18020748
:1018400010000000081F0E08121901061300000006
:1018500014600C080D1301070F00000058A10E08BA
:101860000B1301070D00000080A10E080D160107E3
:101870000E00000090680E080A11010C0B00000019
:101880002CF60E080F1700030F000000381F0E087B
:101890000A1201080D00000050F60E080B1802078E
:1018A0000E000000681F0E080B13010C0D00000055
:1018B000A8A10E08101901011200000060BD0D085A
:1018C0000C1601040E000000BC680E08101901017E
:1018D0001200000094BD0D080C1701030E0000005B
:1018E000981F0E081017010312000000C81F0E08F1
:1018F0000C1201080E00000074F60E081019010108
:1019000012000000C8BD0D080C1601040E000000F6
:10191000E8680E080E1700030E000000F81F0E08FE
:101920000C1800070C00000028200E080A190106F8
:101930000B000000FCBD0D081113020C1300000089
:10194000AC340D080B1200080B00000098F60E08CE
:101950000613FF0C070000002C6E0F08141401067C
:1019600016000000E8340D081413010C16000000E6
:1019700024350D08101600060F00000014690E082B
:10198000101601060F00000040690E080C13010933
:101990000C000000D0A10E080D13FF070C00000082
:1019A000F8A10E081116FF060F00000010D90C0850
:1019B0000A13010C0B00000020A20E080913010CF1
:1019C0000B00000048A20E080D1400060E000000D7
:1019D00070A20E080B1200070C000000BCF60E08E7
:1019E0000D1301070F00000098A20E080E13010747
:1019F00010000000C0A20E080F1300070F00000027
:101A0000E8A20E080B1802050E00000058200E0870
:101A10000B1801070D00000088200E0809130007AD
:101A20000A00000010A30E080718FF0707000000B7
:101A300024570F08131801071200000040990C08E2
:101A40000F13010C0E00000038A30E080F1301073E
:101A50001000000060A30E08080E010C0900000031
:101A60007C800F080E1300070E00000088A30E08EC
:101A70000C13000C0C000000B0A30E080A0E020CA0
:101A80000D000000EC340F080B0E010C0E000000DE
:101A900008350F080B0E020C0E00000024350F084D
:101AA0000B1402060E000000D8A30E080A0E010C4B
:101AB0000C00000040350F080B0E000C0C0000005D
:101AC0005C350F08101901060E00000030BE0D082D
:101AD000101401060E00000000A40E080B0E010CED
:101AE0000D00000078350F080B0E010C0D000000F2
:101AF00094350F08110E010C120000006C690E08DD
:101B00000A0E010C0B000000B0350F080A0E000C85
:101B10000B000000CC350F08100E000C1000000068
:101B2000E8350F080B0E010C0D00000004360F08FD
:101B30000913FF0C0800000028A40E081019010664
:101B40000E00000064BE0D080B13010C0E00000017
:101B500050A40E080B0E010C0D00000020360F08DB
:101B60000C13000C0C00000078A40E080F0E000CE3
:101B70000F0000003C360F080A13020C0E00000094
:101B8000A0A40E080A1402060E000000C8A40E0845
:101B90000A1902060E00000098BE0D080613000781
:101BA00006000000406E0F08020E020C0600000046
:101BB0008C800F08060E010C090000009C800F08A5
:101BC0000A1400060A000000F0A40E08071400061C
:101BD00007000000546E0F080619020606000000F8
:101BE00058360F080B1902060E000000CCBE0D0877
:101BF000120E010C1500000098690E081213010C5A
:101C00001500000060350D081213010C15000000CE
:101C10009C350D080F13FD0C0E00000018A50E08D2
:101C20000E13020C0E00000040A50E080A0E020C56
:101C30000E00000074360F080C0E010C0E000000A0
:101C400090360F08110E010C14000000C4690E0834
:101C5000100E010C12000000AC360F080C19010622
:101C60000E00000000BF0D08070E000C0900000068
:101C7000AC800F080714000609000000686E0F080A
:101C80000C13000C0900000068A50E080713020CD5
:101C9000090000007C6E0F080713020C0900000009
:101CA000906E0F08070E020C09000000BC800F08A0
:101CB0000713000C09000000A46E0F080B0E020CA5
:101CC0000D000000C8360F080B0E020C0D000000BE
:101CD000E4360F080A13010C0B00000090A50E0853
:101CE0000C1901060E00000034BF0D080C19FF0688
:101CF0000800000068BF0D080C13010C0E00000066
:101D0000B8A50E080D1900060E0000009CBF0D08B6
:101D10000812000808000000B86E0F080817000835
:101D2000080000003C570F080E0E000C0E000000CB
:101D300000370F080C0E020C100000001C370F08B3
:101D40000A0E020C0E00000038370F080C0E000CB3
:101D50000C00000054370F08130E000C1300000095
:101D6000F0690E080C1300070C000000E0A50E0837
:101D70000B0E000C0B00000070370F080E13010C47
:101D80000B00000008A60E080D10010C0E0000004C
:101D9000381C0F080A13000C0B00000030A60E08B8
:101DA0000B13000C0B00000058A60E080B140006C5
:101DB0000C00000080A60E080B1401060C000000A9
:101DC000A8A60E080B1400060C000000D0A60E08F2
:101DD0000B13010C0C000000F8A60E0810130107ED
:101DE0001200000020A70E080A0E020C0D000000D1
:101DF0008C370F080B0E010C0D000000A8370F08E0
:101E00000F1101090D000000E0F60E080A0E020C89
:101E10000E000000C4370F080A1800070A0000006F
:101E2000B8200E080B13FF0C0C00000048A70E088A
:101E3000080E020C0A000000CC800F0810190106E1
:101E40000E000000D0BF0D080B1400060C000000AF
:101E500070A70E080B1401060C00000098A70E08CE
:101E60001414010616000000D8350D0814190106D7
:101E70001600000060600C0818160106190000002A
:101E800054D90C08111200081100000008790D083F
:101E90000F1900060E00000004C00D081112000802
:101EA0001200000040790D0812190006140000000D
:101EB000AC600C080E14020610000000C0A70E084B
:101EC0000B1402060E000000E8A70E080B13010712
:101ED0000C00000010A80E080A1202080E000000F4
:101EE00004F70E080F13000C1100000038A80E08AC
:101EF0001313000C1300000014360D08080D010820
:101F00000A000000DC800F08080D01080A0000002C
:101F1000EC800F080510000806000000FC800F0888
:101F20000509010C06000000788E0F080509000C59
:101F300006000000848E0F08080C000C060000004C
:101F4000908E0F080809010C090000009C8E0F08F4
:101F50000C09000C0C000000CC6E0F08090C000CE2
:101F60000900000054570F08050802070700000089
:101F70006CA90F080A0801070C0000000C810F086B
:101F80000507FF060500000074A90F0805070106F4
:101F9000050000007CA90F080507FF0605000000EA
:101FA00084A90F08040705050E0000008CA90F087E
:101FB000040705050E00000094A90F08070D01088D
:101FC000090000001C810F08070D0108090000002E
:101FD0002C810F080D0E020B12000000E0370F08D5
:101FE0000D0E030B12000000FC370F080E0D020C43
:101FF0001200000018380F080E0D020C120000002D
:1020000034380F08080503050E0000009CA90F08CE
:10201000080503050E000000A4A90F080205060527
:102020000E000000ACA90F08090202070E00000014
:10203000B4B90F08050505050E000000B4A90F0886
:10204000050503050E000000BCA90F080204061BCD
:102050000E000000B8B90F080902021D0E000000B2
:10206000BCB90F080505031A0E000000C4A90F082B
:102070000505061A0E000000CCA90F08030E030C7C
:10208000090000003C810F08030303110900000050
:10209000C0B90F080407050F0E000000D4A90F08EF
:1020A0000407050F0E000000DCA90F080604011448
:1020B00008000000C4B90F0806040114080000005D
:1020C000C8B90F080604011408000000CCB90F08B5
:1020D000090202140E000000D0B90F08080503061B
:1020E0000E000000E4A90F08020206080E0000001E
:1020F0003ABD0F08070703050E000000ECA90F0802
:102100000405041A0E000000F4A90F080A040206D0
:102110000E000000FCA90F080A0503050E000000D0
:10212000A88E0F08070500110800000004AA0F0878
:10213000080801070A0000000CAA0F08080C000C90
:1021400008000000B48E0F08020D01080400000012
:102150004C810F080709010C09000000C08E0F0810
:102160000709000C08000000CC8E0F08070D0108BD
:10217000090000005C810F08061202080A00000036
:10218000E06E0F08061202080A000000F46E0F0845
:10219000061202080A000000086F0F080612020863
:1021A0000A0000001C6F0F08061202080A00000057
:1021B000306F0F08060B010F08000000D88E0F08C3
:1021C000060B010F08000000E48E0F080805031A33
:1021D0000E00000014AA0F08070303070E000000FA
:1021E000D4B90F080A0701060A0000006C810F0825
:1021F0000503041B0E000000D8B90F080503041BDB
:102200000E000000DCB90F080305051A0E000000DF
:102210001CAA0F080305051A0E00000024AA0F08C7
:102220000404051B0E000000E0B90F0805050311AA
:102230000E0000002CAA0F080A0501110E00000074
:10224000F08E0F080A0503110E000000FC8E0F0827
:102250000A04021B0E00000034AA0F08030D030736
:10226000090000007C810F08050504070E0000002E
:102270003CAA0F08050505070E00000044AA0F0838
:10228000050504150E0000004CAA0F0805050515EC
:102290000E00000054AA0F080905021A0E000000E3
:1022A000088F0F080905021A0E000000148F0F088E
:1022B00006070118080000005CAA0F080505F705CD
:1022C0000000000064AA0F080505F80500000000E2
:1022D0006CAA0F080805FC050000000074AA0F088E
:1022E0000A04F401000000007CAA0F080902FB07A1
:1022F00000000000E4B90F080E02F904000000001D
:10230000E8B90F080805FC060000000084AA0F08C1
:102310000202FF08000000003CBD0F080802FC0894
:10232000000000003EBD0F08040505050000000088
:102330008CAA0F080707FC050000000094AA0F08EC
:102340000A05FB0500000000208F0F080805FC05AA
:10235000000000009CAA0F080205FF050000000015
:10236000A4AA0F080505FE0500000000ACAA0F088E
:102370000A05FB05000000002C8F0F080807FC046D
:1023800000000000B4AA0F080805FC0600000000C9
:10239000BCAA0F080205FF0600000000C4AA0F082F
:1023A0000205FF0600000000CCAA0F080205FF0688
:1023B00000000000D4AA0F0802050106000000007A
:1023C000DCAA0F080505FD1A00000000E4AA0F08AA
:1023D0000505FD1A00000000ECAA0F080504FE1B0D
:1023E00000000000ECB90F080504FE1B000000000F
:1023F000F0B90F080906FB0400000000388F0F0831
:102400000406000300000000F4AA0F080204FF1BEA
:1024100000000000F4B90F080604FD1B00000000D6
:10242000F8B90F080604FD1B00000000FCB90F08F6
:102430000604FD1B0000000000BA0F080902FB1D86
:102440000000000004BA0F080607FC180000000096
:10245000FCAA0F08060700180000000004AB0F08D4
:102460000202061C0000000040BD0F080802FC1D0F
:102470000000000042BD0F080404FE1B0000000025
:1024800008BA0F080204FF1B000000000CBA0F0876
:102490000605FD1A000000000CAB0F080405FE1A2B
:1024A0000000000014AB0F080204FF1B0000000036
:1024B00010BA0F080904FB1B000000001CAB0F083A
:1024C0000903FC1C0000000024AB0F080804FC1BDF
:1024D0000000000014BA0F080804FC1B00000000F4
:1024E00018BA0F080804FC1B000000001CBA0F08F3
:1024F0000804FC1B0000000020BA0F080A04FB1BA4
:10250000000000002CAB0F080902FB1D00000000BA
:1025100024BA0F080E02F91C0000000028BA0F08A8
:102520000A04FB1B0000000034AB0F080A04FB0E7A
:10253000000000003CAB0F080902FB100000000087
:102540002CBA0F080E02F9100000000030BA0F0874
:102550000A09FB0D00000000446F0F080918FB0674
:1025600000000000E8200E080204FF1B000000002D
:1025700034BA0F080904FB1B0000000044AB0F082D
:102580000404FE1B0000000038BA0F080903FC1CFD
:10259000000000004CAB0F080606FD030000000021
:1025A00054AB0F080206FF04000000005CAB0F08EC
:1025B0000E05F90100000000448F0F080A04FB0615
:1025C0000000000064AB0F080205FF0600000000D9
:1025D0006CAB0F080905FC0500000000508F0F08C8
:1025E0000304FE1B000000003CBA0F080904FB05B1
:1025F0000000000074AB0F080E04F91B000000007F
:102600007CAB0F080504FE1B0000000040BA0F0859
:102610000504FE1B0000000044BA0F080A06FB0573
:10262000000000005C8F0F080A08FB030000000098
:102630008C810F080A06FB0400000000688F0F0859
:102640000604FD1B0000000048BA0F080604FD1B2D
:10265000000000004CBA0F081211F709000000003A
:1026600038C00D080305FD050000000084AB0F080D
:102670000407FE05000000008CAB0F080807FC04EF
:102680000000000094AB0F080505FD1A00000000D3
:102690009CAB0F080305FF1A00000000A4AB0F0855
:1026A0000305FE1A00000000ACAB0F080805FD1A78
:1026B00000000000B4AB0F080407FE050000000096
:1026C000BCAB0F08020206080000000044BD0F0862
:1026D0000504FE1B0000000050BA0F080704FD1B94
:1026E0000000000054BA0F080405FE0600000000B8
:1026F000C4AB0F081305F61A000000009C810F08F8
:102700001305FE0600000000AC810F081302FE0650
:1027100000000000CCAB0F081302FE1D00000000FB
:10272000D4AB0F081304FE0600000000748F0F08DE
:102730001305FE0600000000BC810F080E04FE1BFE
:1027400000000000DCAB0F080507FD0400000000DE
:10275000E4AB0F080607FD0400000000ECAB0F0817
:102760000109FF0200000000808F0F080607FD042A
:1027700000000000F4AB0F080507FD040000000096
:10278000FCAB0F080507FD040000000004AC0F08B7
:10279000060AFD01000000008C8F0F08050AFD01EC
:1027A00000000000988F0F080907FB0400000000DC
:1027B000CC810F080307FE04000000000CAC0F08DA
:1027C0000409FE0200000000A48F0F080507FD04A5
:1027D0000000000014AC0F080507FD040000000015
:1027E0001CAC0F08040505050E00000024AC0F0802
:1027F0000404051B0E00000058BA0F080304051B53
:102800000E0000005CBA0F080A0E010C0C0000005C
:1028100050380F080A0E010C0C0000006C380F082D
:102820000A0E010C0C00000088380F080513020C7A
:1028300009000000586F0F08030505050E00000091
:102840002CAC0F08090502050E000000B08F0F0820
:102850000F1300070F00000060A80E080303030C0D
:102860000900000060BA0F081013000711000000F3
:1028700088A80E08121300071400000050360D0837
:102880000A1300070C000000B0A80E08131300077D
:10289000140000008C360D0812130007120000000F
:1028A000C8360D08141300071400000004370D0883
:1028B0000815FF05060000006C570F080F130007EE
:1028C0000F000000D8A80E080C1302070F0000002C
:1028D00000A90E080B1302070D00000028A90E081E
:1028E0000F1300070F00000050A90E080B1302077A
:1028F0000E00000078A90E080C1301070E0000005E
:10290000A0A90E080D13020711000000C8A90E08A7
:102910001013010712000000F0A90E0806130107AA
:10292000090000006C6F0F080D1302070F00000074
:1029300018AA0E080F1300070F00000040AA0E0887
:102940000F1302071300000068AA0E080D130207F8
:102950001100000090AA0E080C1301070E000000E1
:10296000B8AA0E081013010712000000E0AA0E0812
:102970000D1302071100000008AB0E080C1302072C
:102980000E00000030AB0E080D1301070E00000012
:1029900058AB0E081013FF070F00000080AB0E08A5
:1029A0000E1300070E000000A8AB0E08101301075D
:1029B00013000000D0AB0E080F1300070F0000003B
:1029C000F8AB0E08101302071400000020AC0E082C
:1029D000111301071200000040370D08061701030C
:1029E0000900000084570F080E1700030E000000B6
:1029F00018210E080B1501050E0000001C6A0E08B8
:102A00000A1501050B000000486A0E080A1A0205A3
:102A10000E0000006CC00D08031502050600000042
:102A20009C570F080A1502050E000000746A0E0874
:102A30000B0E010C0E000000A4380F080B19020643
:102A40000E000000A0C00D080C13000C0C000000CC
:102A500048AC0E080C1401060E00000070AC0E0805
:102A60000A0E010C0B000000C0380F080A190106FD
:102A70000A000000D4C00D080A13020C0E0000006A
:102A800098AC0E080C1401060E000000C0AC0E0835
:102A9000020E020C06000000DC810F080A0E020C78
:102AA0000C000000DC380F080C1400060C000000BD
:102AB000E8AC0E080A13020C0E00000010AD0E0860
:102AC0000C0E000C0C000000F8380F080B19010662
:102AD0000B00000008C10D080C0E010C0E000000D8
:102AE00014390F080A0E020C0E00000030390F08CE
:102AF0000B13020C0E00000038AD0E080A13010C77
:102B00000B00000060AD0E080E0E010C0F0000005F
:102B10004C390F080C0E000C0C00000068390F082F
:102B20000A0E020C0E00000084390F081013010C6D
:102B30001200000088AD0E080C13000C0C00000001
:102B4000B0AD0E080E13020C12000000D8AD0E0836
:102B5000100E010C12000000A0390F080613000728
:102B600006000000806F0F080A1202080E00000025
:102B700028F70E080C1501050E000000A06A0E08CB
:102B80000A1502050E000000CC6A0E08101501059A
:102B900012000000F86A0E080B1402060E00000076
:102BA00000AE0E080C1402060E00000028AE0E083F
:102BB00012130007110000007C370D0816150005E0
:102BC0001500000044000D0812170003110000005A
:102BD00088990C080C1901060E0000003CC10D0874
:102BE000100E010C12000000BC390F080E13000C6F
:102BF0000E00000050AE0E08101801071200000071
:102C000048210E080C13010C0E00000078AE0E08CF
:102C10000D1801070F00000078210E080B13010C9E
:102C20000C000000A0AE0E080B1302070D00000000
:102C3000C8AE0E080813020C0B000000946F0F08BA
:102C40000F13010710000000F0AE0E080B14010670
:102C50000D00000018AF0E08121800071300000046
:102C6000D0990C080D1900060E00000070C10D0867
:102C70001218020716000000189A0C081213010C13
:102C800015000000B8370D080D13010710000000F3
:102C900040AF0E080A1402060E00000068AF0E08CE
:102CA0000D18020710000000A8210E080D0E000CE0
:102CB0000D000000D8390F080C1301070E000000AA
:102CC00090AF0E080C1401060E000000B8AF0E08FD
:102CD0000F1300070F000000E0AF0E080F0E000CEE
:102CE0000F000000F4390F08101301071200000054
:102CF00008B00E080C0E010C0E000000103A0F0870
:102D00000C1300070C00000030B00E080A14000677
:102D10000A00000058B00E080E0E000C0E00000055
:102D20002C3A0F080C13010C0E00000080B00E08A6
:102D30000A0E010C0C000000483A0F080618FF07A5
:102D400007000000B4570F0810130107120000001D
:102D5000A8B00E080B0E010C0C000000643A0F081E
:102D60000B0E000C0C000000803A0F080A1302073B
:102D70000E000000D0B00E080B1902060E00000075
:102D8000A4C10D080E13FF0C0E000000F8B00E08D1
:102D90000D1301070F00000020B10E080D130107ED
:102DA0000F00000048B10E080D1301070F000000CE
:102DB00070B10E080B1902010E000000D8C10D08F9
:102DC0000B1702030E000000D8210E081113000794
:102DD00012000000F4370D080B1902010D0000006D
:102DE0000CC20D080D1301070F00000098B10E086A
:102DF0000C1301070E000000C0B10E0806130107F6
:102E000009000000A86F0F08061701030900000061
:102E1000CC570F08081300070A000000BC6F0F080A
:102E20001913000719000000F8600C0817130207B7
:102E30001900000030380D081113000712000000BF
:102E40006C380D080D1902010F00000040C20D087A
:102E50000D1902011100000074C20D080E180002C5
:102E60000E00000008220E080D17020711000000D6
:102E700038220E080F1300070F000000E8B10E08FB
:102E80000C1302070F00000010B20E080C1302070B
:102E90000F00000038B20E080B1302070D000000EF
:102EA00060B20E08101700071100000068220E081B
:102EB0000B1302070E00000088B20E08161300075D
:102EC00016000000A8380D080C1300070D000000C4
:102ED000B0B20E080D13020711000000D8B20E08A0
:102EE0000D1802021100000098220E080D130207AF
:102EF0000F00000000B30E080F13000711000000C0
:102F000028B30E080F1302071300000050B30E0879
:102F10000D1302071100000078B30E08101301070B
:102F200012000000A0B30E080D13020711000000EC
:102F3000C8B30E080C1302070E000000F0B30E0811
:102F40000D1301070F00000018B40E081013FF073F
:102F50000F00000040B40E080E1300070E00000022
:102F600068B40E08101301071300000090B40E0897
:102F70000F1300070F000000B8B40E080E17020769
:102F800011000000C8220E080D13010710000000F8
:102F9000E0B40E081413020718000000E4380D080E
:102FA0001617020718000000609A0C08111300079A
:102FB0001100000020390D08101302071400000052
:102FC00008B50E080D1302070F00000030B50E08FB
:102FD0000D1301070F00000058B50E081513020766
:102FE000180000005C390D080D1300070F000000E9
:102FF00080B50E080A0E010C0D0000009C3A0F0867
:103000000C1401060E000000A8B50E080A0E020CF2
:103010000D000000B83A0F08080E020C0A0000006C
:10302000EC810F080D11000C0E0000004CF70E088B
:103030000B0E010C0D000000D43A0F08120E000C0C
:1030400012000000246B0E080A0E000C0B0000009A
:10305000F03A0F080A0E020C0E0000000C3B0F089D
:103060000A1402060E000000D0B50E080A0E020C6B
:103070000C000000283B0F080C0E000C0E00000096
:10308000443B0F080C0E020C10000000603B0F08C0
:103090000A0E020C0E0000007C3B0F080C0E010C07
:1030A0000E000000983B0F080A0E020C0E000000F4
:1030B000B43B0F080B13020C0E000000F8B50E080D
:1030C0000A0E010C0C000000D03B0F080C0E000C87
:1030D0000C000000EC3B0F080C13000C0C0000006F
:1030E00020B60E08121900061300000044610C08F7
:1030F0000C0E000C0C000000083C0F080B11020C19
:103100000E00000070F70E080B0E010C0E00000000
:10311000243C0F08100E010C13000000403C0F0867
:103120001111020C14000000A8C20D080D0E000CB5
:103130000E0000005C3C0F080D0E020C1100000098
:10314000783C0F080A0E020C0D000000943C0F089A
:103150000A0E010C0C000000B03C0F08100E020C0F
:1031600013000000CC3C0F080B0E000C0D000000FB
:10317000E83C0F080B1501050D000000506B0E0810
:103180000B1201080D00000094F70E080C19000640
:103190000E000000DCC20D08081502050A00000040
:1031A000E4570F080A0E010C0C000000043D0F0844
:1031B0000A0E010C0B000000203D0F08021302074D
:1031C00006000000D06F0F0806130007060000007D
:1031D000E46F0F080618FF0707000000FC570F08F0
:1031E000140E000C150000007C6B0E08120E020C71
:1031F00015000000A86B0E080C1400060E0000005D
:1032000048B60E080A1502050C000000D46B0E0823
:103210000A1502050E000000006C0E080C190006CD
:103220000C00000010C30D080A11020C0E00000073
:10323000B8F70E081B1301071D00000090610C0871
:10324000120E000C120000002C6C0E081013000768
:103250001100000070B60E080D1400060E000000EC
:1032600098B60E08121302071500000098390D08D1
:103270000E0E020C110000003C3D0F080F1300075A
:103280000F000000C0B60E080C0E000C0C00000071
:10329000583D0F081213020714000000D4390D081E
:1032A0000F0E020C11000000743D0F0814130007EC
:1032B00014000000103A0D080F0E000C0F00000063
:1032C000903D0F0817130207190000004C3A0D0833
:1032D000130E020C15000000586C0E080B1E0101A5
:1032E0000D000000883A0D080A1A00050B000000C6
:1032F00044C30D081013020714000000E8B60E08BE
:103300000E13020C1200000010B70E081013010774
:103310001200000038B70E080C0E010C0E00000061
:10332000AC3D0F081313000712000000C43A0D084B
:10333000100E000C0F000000C83D0F08131900010B
:1033400012000000DC610C08101500050F000000E1
:10335000846C0E081C1801071D00000088C40B08AF
:103360001813010C19000000003B0D08131501068D
:103370001500000084000D080F10010B1100000063
:10338000581C0F08151901011700000028620C08CD
:103390001117010313000000A89A0C081B17010362
:1033A0001D000000C8020C081212000812000000E4
:1033B00078790D080D1801070F000000F8220E089B
:1033C0000A13010C0C00000060B70E080C13000774
:1033D0000C00000088B70E08080503060000000076
:1033E00034AC0F0809030207000000003CAC0F08D2
:1033F000020506060000000044AC0F0802050606A0
:10340000000000004CAC0F080A0403061000000086
:1034100054AC0F081816F4080000000098D90C08E6
:103420001818F40700000000F09A0C080F1C0202A4
:1034300011000000B0790D080C1702060E00000004
:1034400028230E080F1300070F000000B0B70E0866
:103450000C1400060D000000D8B70E080D1302076B
:103460000E00000000B80E080C13020C0E00000045
:1034700028B80E080B1802020D00000058230E0891
:10348000081302070A000000F86F0F080C13010769
:103490000D00000050B80E08090E010C0A000000D3
:1034A000E43D0F080B1802070E00000088230E08E9
:1034B0000A13020C0D00000078B80E08161700075A
:1034C00017000000389B0C081211000C13000000BC
:1034D00078C30D080C1800070D000000B8230E0873
:1034E0000A13000C0B000000A0B80E080E1702070C
:1034F00010000000E8230E080A11020C0D00000065
:10350000DCF70E080D1302070F000000C8B80E0804
:103510000A0E020C0C000000003E0F080F130007FB
:103520000F000000F0B80E080C1400060C0000009C
:1035300018B90E0812130007120000003C3B0D08DA
:103540000E0E000C0E0000001C3E0F080F170207A5
:103550001100000018240E080B11020C0E000000D0
:1035600000F80E081213020714000000783B0D0843
:103570000E0E020C10000000383E0F08161802074D
:1035800019000000809B0C081213020C15000000AB
:10359000B43B0D081114010712000000F03B0D08A8
:1035A0000D0F010C0E000000781C0F080D1801070C
:1035B0000F00000048240E080A13010C0C00000044
:1035C00040B90E081017FF070F00000078240E08FE
:1035D0000C11000C0C00000024F80E080E1300075C
:1035E0000E00000068B90E080C13000C0C0000005F
:1035F00090B90E080E1300070E000000B8B90E08AF
:103600000C13000C0C000000E0B90E080F170007A7
:103610000F000000A8240E080C11000C0D00000083
:1036200048F80E081317000714000000C89B0C0888
:103630000F11000C100000006CF80E080F170107A6
:1036400010000000D8240E080C11010C0E00000020
:1036500090F80E080D1301071000000008BA0E08BC
:103660000B0E010C0E000000543E0F080C13020755
:103670001000000030BA0E080A1402060E00000006
:1036800058BA0E0814130007150000002C3C0D0852
:103690000F0E000C10000000703E0F0814170007FA
:1036A00015000000109C0C080F11000C1000000009
:1036B000B4F80E0806130107090000000C700F088B
:1036C000161900011600000074620C08121400069E
:1036D00012000000683C0D080C1802070F000000E3
:1036E00008250E080913020C0C00000080BA0E0811
:1036F0001117000711000000589C0C080E11000C57
:103700000E000000D8F80E080D1802071100000086
:1037100038250E080A13020C0E000000A8BA0E0885
:103720000F1702071100000068250E080C11020C8B
:103730000E000000FCF80E080D1701071000000035
:1037400098250E080B11010C0E00000020F90E0840
:103750001117020713000000A09C0C080E11020CA8
:103760001000000044F90E080214020606000000D2
:1037700020700F080F1900010F000000ACC30D08E6
:103780000A1401060D000000D0BA0E080F1600043E
:103790000F000000B06C0E080A1201080D000000B6
:1037A00068F90E081613000717000000A43C0D0866
:1037B000140E010C16000000DC6C0E080B1902013F
:1037C0000E000000E0C30D080B1401060D00000000
:1037D000F8BA0E08101301071200000020BB0E08F3
:1037E0000B0E010C0D0000008C3E0F08101601049A
:1037F00012000000086D0E080B1201080D000000F9
:103800008CF90E081616000416000000DCD90C080E
:103810001212000812000000E8790D080C160004CE
:103820000D000000346D0E080A1200080B000000A5
:10383000B0F90E080C1300070D00000048BB0E087D
:103840000A13000C0B00000070BB0E080D170203DA
:1038500011000000C8250E080A1302070E00000020
:1038600098BB0E080D16020411000000606D0E08D2
:103870000A1202080E000000D4F90E081017010306
:1038800012000000F8250E080C1201080E000000BE
:10389000F8F90E081013010712000000C0BB0E0853
:1038A0000C0E010C0E000000A83E0F0810170103BB
:1038B0001200000028260E080C1201080E0000005D
:1038C0001CFA0E080D1601040F0000008C6D0E0886
:1038D0000A1201080C00000040FA0E080E1700033F
:1038E0000E00000058260E080C1800070C000000FF
:1038F00088260E080E1600040E000000B86D0E0893
:103900000C1700080C000000B8260E080E19000164
:103910000E00000014C40D080C1A00050C00000075
:1039200048C40D080D16010410000000E46D0E08D7
:103930000B1201080E00000064FA0E080B170207B4
:103940000D000000E8260E080812020C0A00000014
:1039500034700F081016020414000000106E0E08D8
:103960000D1202081100000088FA0E080D18000759
:103970000D00000018270E080A13000C0A000000B2
:10398000E8BB0E08101800070F00000048270E08BB
:103990000C13000C0C00000010BC0E080F130007E5
:1039A0000F00000038BC0E080C0E000C0C000000CC
:1039B000C43E0F080D1300070F00000060BC0E0886
:1039C0000B1401060E00000088BC0E08151300073A
:1039D00017000000E03C0D0813140106160000005B
:1039E0001C3D0D081413010717000000583D0D0879
:1039F000120E010C150000003C6E0E080E17010798
:103A00000F00000078270E080B11010C0D000000BC
:103A1000ACFA0E081713000719000000943D0D08BA
:103A2000140E000C16000000686E0E081513020735
:103A300019000000D03D0D08120E020C1600000007
:103A4000946E0E080F13010711000000B0BC0E08A1
:103A50000B0E010C0D000000E03E0F0811130007D3
:103A6000130000000C3E0D080F0E000C11000000AA
:103A7000FC3E0F080C1301070D000000D8BC0E0817
:103A80000A0E010C0B000000183F0F080F1800076A
:103A900011000000A8270E080C13000C0E000000F7
:103AA00000BD0E081018010712000000D8270E08EC
:103AB0000B13010C0E00000028BD0E0817130007A1
:103AC00017000000483E0D08130E000C1300000004
:103AD000C06E0E08101302071200000050BD0E0841
:103AE0000D1302071000000078BD0E081013000728
:103AF00010000000A0BD0E08111300071100000007
:103B0000843E0D080D13020710000000C8BD0E080A
:103B10000D1301070F000000F0BD0E080C13020783
:103B20000F00000018BE0E080D1302071000000061
:103B300040BE0E081213020714000000C03E0D081C
:103B40000F1301071000000068BE0E080C130207D7
:103B50000F00000090BE0E080A1302070C000000C0
:103B6000B8BE0E081213020716000000FC3E0D0836
:103B70001013000710000000E0BE0E080C1302072F
:103B80001000000008BF0E080B1301070D00000015
:103B900030BF0E080E1300070F00000058BF0E08BC
:103BA0001113000711000000383F0D080D13020724
:103BB0001100000080BF0E08101302071200000061
:103BC000A8BF0E080E13010710000000D0BF0E089A
:103BD0001013000711000000F8BF0E080D130107B5
:103BE0000F00000020C00E080C1302071000000098
:103BF00048C00E080D1301070F00000070C00E082A
:103C00000F1300071100000098C00E080D130107E4
:103C10000F000000C0C00E081013020712000000C1
:103C2000E8C00E080C1302071000000010C10E08B7
:103C30001113000711000000743F0D080F13000757
:103C40001000000038C10E080C1302070F0000001E
:103C500060C10E080F1301071100000088C10E0893
:103C60000A1302070D000000B0C10E08101301076F
:103C700013000000D8C10E080E1300070F0000004B
:103C800000C20E08101301071200000028C20E081F
:103C90000F1300071000000050C20E0802050106B5
:103CA000050000005CAC0F080205010605000000DD
:103CB00064AC0F0805050106080000006CAC0F0895
:103CC000070A010609000000BC8F0F080505010660
:103CD0000800000074AC0F08070601060900000088
:103CE0007CAC0F080A0601030C000000C88F0F0807
:103CF000110E020C15000000EC6E0E080A13020CE7
:103D00000E00000078C20E080E13010C0F00000018
:103D1000A0C20E080D13020C0F000000C8C20E084E
:103D20000A1402060E000000F0C20E080E13010C69
:103D30000F00000018C30E080A1402060D00000050
:103D400040C30E080A13020C0E00000068C30E08E0
:103D50000F13020C1100000090C30E080E14010690
:103D60000F000000B8C30E080A1902060E0000007A
:103D70007CC40D080613020C0800000048700F08F0
:103D80001219020616000000C0620C080D1401068C
:103D90000E000000E0C30E080A1902060E00000023
:103DA000B0C40D080A1402060E00000008C40E0874
:103DB0000A1401060C00000030C40E080D13020C9A
:103DC0000F00000058C40E080B1401060C00000080
:103DD00080C40E080D1402060F000000A8C40E08CF
:103DE0000613000C080000005C700F080D1400069C
:103DF0000F000000D0C40E080A13000C0B000000D6
:103E0000F8C40E080A0E020C0E000000343F0F0822
:103E10000A13000C0B00000020C50E081113020C41
:103E200015000000B03F0D080B13000C0C00000043
:103E300048C50E080B0E020C0E000000503F0F0884
:103E40000A0E020C0E0000006C3F0F080D1902064E
:103E50000F000000E4C40D08110E020C1500000054
:103E6000186F0E080A13020C0E00000070C50E0831
:103E70000B13010C0E00000098C50E08080E020C72
:103E80000A000000FC810F0811190206150000004D
:103E90000C630C080E13000C0F000000C0C50E08C8
:103EA0000C0E010C0E000000883F0F0810190006D0
:103EB0001100000018C50D080D1402060F000000C7
:103EC000E8C50E08030E030C090000000C820F0861
:103ED000070301100900000064BA0F080505FE1A67
:103EE0000000000084AC0F080803FC06000000007E
:103EF00068BA0F080306FE03000000008CAC0F0830
:103F00000205FF040000000094AC0F080405FE0445
:103F1000000000009CAC0F080405FE1A0000000021
:103F2000A4AC0F080303FF06000000006CBA0F08E2
:103F30000704FC050000000070BA0F080405FC042B
:103F400000000000ACAC0F080303001B00000000E1
:103F500074BA0F080405FE1A00000000B4AC0F0884
:103F60000405FE0400000000BCAC0F0804050004BA
:103F700000000000C4AC0F080805FC0400000000AD
:103F8000CCAC0F080E06F90300000000D48F0F0818
:103F90000606000300000000D4AC0F080405FE0470
:103FA00000000000DCAC0F080505FE1A0000000050
:103FB000E4AC0F080304FF1B0000000078BA0F08F0
:103FC0000303FE1B000000007CBA0F080405FE1A64
:103FD00000000000ECAC0F080805FC1A000000000F
:103FE000F4AC0F080305FE1A00000000FCAC0F083B
:103FF0000405FE040000000004AD0F080606FA03E5
:10400000000000000CAD0F080505FE1A00000000BE
:1040100014AD0F080303FE060000000080BA0F086D
:104020000304FF050000000084BA0F080405001A0D
:10403000000000001CAD0F080704F9050000000097
:1040400088BA0F080303FE06000000008CBA0F08B0
:104050000205061A0000000024AD0F080805031A27
:10406000000000002CAD0F080605041A0000000037
:1040700034AD0F080605041A000000003CAD0F081F
:104080000202061B0000000046BD0F080502041BCB
:104090000000000048BD0F080505051A00000000DB
:1040A00044AD0F080301051B00000000B8BD0F0858
:1040B0000503041B0000000090BA0F080202060866
:1040C000000000004ABD0F080202030700000000C4
:1040D0004CBD0F080805031A000000004CAD0F0886
:1040E00002020612000000004EBD0F080103061B6D
:1040F0000000000094BA0F080602020B0A0000003C
:1041000050BD0F080301050800000000B9BD0F08ED
:10411000021302090600000070700F080202060870
:104120000000000052BD0F080202FF08000000005E
:1041300054BD0F08030F030B090000001C820F0879
:10414000020201070000000056BD0F080202FF1C1A
:104150000000000058BD0F080710020A0A00000006
:104160002C820F080504FD1B0000000098BA0F0800
:104170000D0F020B11000000981C0F080E0F010B11
:1041800010000000B81C0F080C0F000B0C00000002
:10419000D81C0F080D0F010B0F000000F81C0F08B2
:1041A0000D0F020B11000000181D0F08050F000B6A
:1041B000070000003C820F08070F010B08000000F9
:1041C0004C820F080D0F020B11000000381D0F0864
:1041D0000D0F020B11000000581D0F080508000B01
:1041E0000700000054AD0F080E14000B1000000073
:1041F00010C60E080D0F010B10000000781D0F08EF
:104200000D1401061000000038C60E080D0F020B39
:1042100011000000981D0F080E0F010B1100000087
:10422000B81D0F080714000B0900000084700F0868
:10423000070F010B0A0000005C820F08100F000B33
:1042400012000000D81D0F080D11010B1000000016
:10425000D0FA0E080E14010B1100000060C60E0803
:104260000D0F010B10000000F81D0F080B14000BC0
:104270000C00000088C60E080D0F010B0F00000097
:10428000181E0F080D14020B11000000B0C60E0816
:104290000C0F000B0E000000381E0F08110F020B50
:1042A0001400000008280E08100F000B1200000078
:1042B000581E0F080C0F000B0E000000781E0F0890
:1042C0000C0F000B0E000000981E0F080C08000BCE
:1042D0000E0000006C820F080507010605000000B3
:1042E0005CAD0F080A0701060A0000007C820F0877
:1042F0001205011A140000008C820F082505011A0E
:1043000027000000A43F0F081D0700181E00000032
:10431000C03F0F08170701181900000014580F08B4
:10432000101701081200000038280E0803070313B5
:104330000900000064AD0F0807070118080000001D
:104340006CAD0F081D0701131D000000DC3F0F08B6
:104350000C12010D0F000000F4FA0E080705FC0214
:104360000000000074AD0F080705FC02000000000B
:104370007CAD0F080706FC020000000084AD0F08AA
:104380000907FB01000000009C820F080904FC02E1
:10439000000000008CAD0F080607011300000000AC
:1043A00094AD0F08030E030C09000000AC820F0847
:1043B00006050115080000009CAD0F080A1301074F
:1043C0000C000000D8C60E08070901110A00000001
:1043D000E08F0F0806160004060000002C580F0896
:1043E0000419010106000000F83F0F080915000A32
:1043F0000A000000446F0E080418010706000000C0
:1044000044580F08140F010B1600000068280E080E
:10441000021302070600000098700F08120C011228
:104420001400000018FB0E080A1101090C0000001E
:104430003CFB0E08120C010E1400000060FB0E087D
:10444000120F010B1400000098280E080C11010E29
:104450000F00000084FB0E080C11010E0F0000007D
:10446000A8FB0E080C14010B0F00000000C70E087B
:104470000A0C010E0C0000005C580F080A10010A1B
:104480000C000000B81E0F08080B00140900000003
:10449000EC8F0F080810000F09000000BC820F0805
:1044A0001C0E01111E000000207A0D081C14010BC7
:1044B0001E000000944A0C081B0F01101D00000094
:1044C000EC3F0D081B14010B1D000000E44A0C0812
:1044D0001113FF071100000028400D081113FF07FA
:1044E0001100000064400D080C12010D0F000000C7
:1044F000CCFB0E080C1601090F000000706F0E08AF
:104500000702FF18060000005ABD0F081412010828
:1045100016000000587A0D08141501071600000057
:10452000C4000D080F1301071200000028C70E0871
:104530000D1301071000000050C70E08100EFE11E9
:104540000F00000014400F080F0E010C11000000B6
:1045500030400F080A0C010E0C00000074580F08C0
:10456000090F00100A000000D81E0F08140E010CDD
:10457000160000009C6F0E081412010C16000000BB
:10458000907A0D0807040005000000009CBA0F088F
:104590000805000100000000A4AD0F080704001A80
:1045A00000000000A0BA0F0807020004000000008D
:1045B0005CBD0F080605000100000000ACAD0F084F
:1045C0000702001C000000005EBD0F080705010186
:1045D00000000000B4AD0F08050500020000000057
:1045E000BCAD0F08060200040000000060BD0F080B
:1045F0000404010200000000A4BA0F080404011B17
:1046000000000000A8BA0F080105FF1A0000000012
:10461000C4AD0F080605FD0100000000CCAD0F0879
:104620000403FE0300000000ACBA0F080501FD09F9
:1046300000000000BABD0F080503000400000000E0
:10464000B0BA0F080704000300000000B4BA0F0856
:104650000202FF1C0000000062BD0F0806050001F9
:1046600000000000D4AD0F080503000300000000A7
:10467000B8BA0F080707040E0E000000DCAD0F08E3
:10468000051104090E000000AC700F080C1101099F
:104690000E000000F0FB0E080D1100090E000000D6
:1046A00014FC0E080B1102090E00000038FC0E0865
:1046B0000D0E010C0E0000004C400F080C110109FA
:1046C0000E0000005CFC0E080D1101090E00000038
:1046D00080FC0E080D1101090E000000A4FC0E085C
:1046E0000C1102090E000000C8FC0E080D11010992
:1046F0000E000000ECFC0E08030703170900000081
:10470000E4AD0F080307031309000000ECAD0F0828
:104710000C0C010C0E0000008C580F08120801123E
:1047200014000000A4580F081410010C160000001B
:10473000C8280E080108FF0100000000F4AD0F08B2
:104740000618000206000000BC580F0806180002F8
:1047500006000000D4580F080618000706000000E5
:10476000EC580F080404010206000000BCBA0F0850
:104770000713020706000000C0700F080A15000AA0
:104780000A000000C86F0E080B15FF0A0A0000009F
:10479000F46F0E081614010616000000A0400D0864
:1047A00012110109140000004CC50D08120F010B75
:1047B00014000000F8280E08120D01121400000069
:1047C00078C70E081210010E1400000028290E08E8
:1047D000120E010C1400000020700E08120D0112C0
:1047E00014000000A0C70E08120F010B14000000F7
:1047F00058290E08120D011214000000C8C70E0837
:104800000C1701080F00000088290E080C1801077A
:104810000F000000B8290E080C11010E0F00000057
:1048200010FD0E080C11010E0F00000034FD0E08E3
:104830000C1801070F000000E8290E080C11010EEA
:104840000F00000058FD0E080C11010E0F000000B3
:104850007CFD0E080A1501050C0000004C700E08C6
:104860000A10010E0C000000F81E0F080A10010EBD
:104870000C000000181F0F080A1901050C000000A9
:1048800080C50D080A10010A0C000000381F0F082F
:104890000A10010E0C000000581F0F080A13010730
:1048A0000C000000F0C70E080A1301070C000000FE
:1048B00018C80E080A1301070C00000040C80E08B3
:1048C000081600090900000004590F080811000E1D
:1048D00009000000D4700F080B0B00140900000041
:1048E0001C590F08090B00140900000034590F0867
:1048F0000C0B0014090000004C590F08090B0014A0
:104900000900000064590F080810000F090000009A
:10491000CC820F080813000C09000000E8700F0893
:104920000813000C09000000FC700F081C11010E98
:104930001E00000020DA0C081C0E01111E000000F1
:10494000C87A0D081C14010B1E000000344B0C0823
:104950001B0F01101D000000DC400D081B17010893
:104960001D00000024030C081113FF0711000000B4
:1049700018410D080C1901060F000000B4C50D0800
:10498000140E010C1600000078700E081412010CB1
:1049900016000000007B0D08141601081600000028
:1049A00064DA0C08141501051600000004010D0856
:1049B0001413010C1600000054410D0814150105D4
:1049C0001600000044010D08141401081600000030
:1049D00090410D081417010516000000E89C0C0812
:1049E0001413010717000000CC410D081E0C010E26
:1049F0001F000000182A0E081413010717000000FA
:104A000008420D080F1301071200000068C80E08C5
:104A10000F16010412000000A4700E080F18010701
:104A200012000000482A0E081416010417000000A6
:104A3000A8DA0C081416010417000000ECDA0C08C0
:104A4000141601041700000030DB0C08141A0104CE
:104A500017000000844B0C08141B01041700000011
:104A6000702C0C08141901011700000058630C0881
:104A70000F17010310000000782A0E080D1601041C
:104A800010000000D0700E080F1901011000000086
:104A9000E8C50D080D18010710000000A82A0E082F
:104AA0000F12010C11000000A0FD0E080F0A0110EA
:104AB0001100000010710F080F1301071100000012
:104AC00090C80E080F12010C11000000C4FD0E0862
:104AD0000F11010911000000E8FD0E08110DFF0D76
:104AE00011000000B8C80E080C14010B0F000000E4
:104AF000E0C80E080A1201080C0000000CFE0E08A7
:104B00000C0801140D000000DC820F080C10010CD1
:104B10000D000000781F0F080C0E010E0D000000A4
:104B200068400F08090F00100A000000981F0F08C6
:104B3000090E00110A00000084400F080913000C40
:104B40000A00000008C90E08091700080A00000042
:104B5000D82A0E08091900060A0000001CC60D0814
:104B60000914000B0A00000030C90E080913000CDC
:104B70000A00000058C90E08091600090A000000C2
:104B8000FC700E08140E010C1600000028710E08AF
:104B9000160E000C1700000054710E08140E010CC4
:104BA0001600000080710E080913000C0A000000B6
:104BB00080C90E081413010C1600000044420D08B1
:104BC0001413010C1600000080420D08170B00138F
:104BD0001700000030FE0E081712000C170000002E
:104BE000387B0D08060200180600000064BD0F089F
:104BF0000A0C010E0C0000007C590F080B09FB0287
:104C00000000000024710F080C09FA0200000000E7
:104C100038710F080504FE0500000000C0BA0F0837
:104C20000708FD0200000000FCAD0F080507FE05A7
:104C30000000000004AE0F080302FF0700000000A0
:104C400066BD0F080C05FA0600000000F88F0F087B
:104C50001A1B01041C000000F0760B081B1B00044B
:104C6000000000005C770B080202FF070000000054
:104C700068BD0F080202FF07000000006ABD0F08B0
:104C80000704FD0500000000C4BA0F080706FC0574
:104C9000000000000CAE0F080C05FA1A000000001E
:104CA00004900F080403FF0100000000C8BA0F08B9
:104CB000050500060600000014AE0F0809050007F0
:104CC0000A00000010900F080905FB070000000013
:104CD0001C900F080606FD03000000001CAE0F0824
:104CE0001114FF060F000000BC420D080505FE1A56
:104CF0000000000024AE0F080505FE0500000000BE
:104D00002CAE0F080202FF07000000006CBD0F0868
:104D10000706FC190000000034AE0F080A11010953
:104D20000C00000054FE0E080912000D09000000DE
:104D300078FE0E080707040E0E0000003CAE0F08B8
:104D4000051104090E0000004C710F080C11010937
:104D50000E0000009CFE0E080D1100090E00000060
:104D6000C0FE0E080C10010A0E000000B81F0F084C
:104D70000D1100090E000000E4FE0E08090F030BE0
:104D80000E000000D81F0F080D1101090E000000D1
:104D900008FF0E080D1101090E0000002CFF0E087F
:104DA0000C1102090E00000050FF0E081C14010B2C
:104DB0001E000000D44B0C081B14010B1D0000004A
:104DC000244C0C080C1601090F000000AC710E08F1
:104DD000080D01110A000000EC820F080E0E0011F0
:104DE0000F000000A0400F081114FF061100000082
:104DF000F8420D08120C01121400000074FF0E0896
:104E00001213010B1400000034430D08120D01129F
:104E100014000000A8C90E081211010E14000000B1
:104E200050C60D081210010E14000000082B0E08C9
:104E3000120D011214000000D0C90E08120C010E50
:104E40001400000098FF0E080C15010A0F00000066
:104E5000D8710E080C11010E0F000000BCFF0E08E7
:104E60000A1A01050C00000084C60D080A11010E83
:104E70000C000000E0FF0E080A0B001409000000FF
:104E800094590F081C14010B1E000000744C0C08F0
:104E90000C1601090F00000004720E080C1801071F
:104EA0000F000000382B0E080C1901060F0000003F
:104EB000B8C60D081412010C16000000707B0D0816
:104EC0001413010C1600000070430D0814130107A1
:104ED00017000000AC430D08141601041700000071
:104EE00074DB0C081418010717000000309D0C0833
:104EF0001013FE0C0F000000F8C90E08100EFE1172
:104F00000F000000BC400F080F12010C1100000040
:104F100004000F080F1301071100000020CA0E083B
:104F20000F0E010C11000000D8400F0811130107EB
:104F300010000000E8430D080813000C09000000F1
:104F400060710F080812000D0900000074710F084D
:104F50001C14010B1E000000C44C0C080B0E020CAC
:104F60000F000000F4400F080D0E000C0F000000B1
:104F700010410F080E0E000C100000002C410F080D
:104F80000C0E010C0F00000048410F080C0E010C24
:104F90000F00000064410F080F0E000C110000000C
:104FA00080410F080A0E000C0C0000009C410F0805
:104FB0000B0E010C0E000000B8410F080D0E010C85
:104FC00010000000D4410F080F10000A100000006C
:104FD000F81F0F081010000A1100000018200F0819
:104FE000120E020C1600000030720E081113020C93
:104FF0001500000024440D080E13000C10000000E2
:1050000048CA0E080E13000C1000000070CA0E08EB
:105010000B13010C0E00000098CA0E08120E000CB3
:10502000140000005C720E08130E010C1600000044
:1050300088720E08120E020C15000000B4720E08E1
:105040000C0E010C0F000000F0410F080C0E010CBB
:105050000F0000000C420F080B0E020C0F000000A6
:1050600028420F080E0E020C1200000044420F08E6
:105070000B0E010C0E00000060420F080C0E020C1B
:105080000F0000007C420F080C0E020C1000000004
:1050900098420F080C14020610000000C0CA0E0847
:1050A0000B0E020C10000000B4420F080B14020695
:1050B00010000000E8CA0E080E0E000C12000000DE
:1050C000D0420F080E1400061100000010CB0E088D
:1050D0000D0E010C10000000EC420F080B0E020C2C
:1050E0000F00000008430F080A0E020C0E0000001B
:1050F00024430F08090E010C0B00000040430F0869
:105100000A11020C0E00000028000F080B0E020C02
:105110000F0000005C430F080D11010C100000008F
:105120004C000F08090E010C0C00000078430F081A
:105130000D0F010B0F00000038200F08100E020C9D
:105140001300000094430F080C0F020B0F00000027
:1051500058200F080F0E000C11000000B0430F087C
:10516000111300071200000060440D080B0E020C22
:105170000F000000CC430F080C0F020B0F000000C3
:1051800078200F080A0E010C0D000000E8430F08FC
:10519000080E020C0B000000FC820F080A05F8063E
:1051A0000000000028900F08090E010C0C00000000
:1051B00004440F080F12FB080C00000070000F08D9
:1051C0000A04F3070000000044AE0F080A05F306C6
:1051D0000000000034900F080A05F30600000000EC
:1051E00040900F080A05F306000000004C900F08DD
:1051F0000304FB1B00000000CCBA0F080704F71BD8
:1052000000000000D0BA0F080202FC1B00000000E2
:105210006EBD0F080C1602060F000000E0720E08AB
:10522000050E020C080000000C830F080C0E020C87
:105230000F00000020440F080A1401060C000000B3
:1052400038CB0E08091401060B00000060CB0E08D5
:105250000C1400060D00000088CB0E080911010C8B
:105260000C00000094000F080911010C0C00000054
:10527000B8000F080807F604000000004CAE0F0845
:105280000104FC0700000000D4BA0F080704F70768
:1052900000000000D8BA0F080904F707000000005A
:1052A00054AE0F080303FC0800000000DCBA0F082E
:1052B0000705F906000000005CAE0F080404FB08B7
:1052C00000000000E0BA0F080507FA010000000026
:1052D00064AE0F080C0C010E0F000000AC590F0853
:1052E0000C0B010F0F000000C4590F080D0B010F2C
:1052F00010000000DC590F080D0E020C1100000018
:105300003C440F080E0B010F11000000F4590F0868
:10531000110F010B12000000682B0E08110F010B7A
:1053200012000000982B0E080E0F000B100000005A
:1053300098200F08100E010C1300000058440F08AD
:10534000100F010B13000000B8200F08100E010C05
:105350001200000074440F080E0E010C1100000032
:1053600090440F08170C020E1B000000DC000F0811
:105370000D0E000C0C000000AC440F08110E000CC8
:10538000120000000C730E08140E010C1600000031
:1053900038730E080C0E010C0D000000C8440F08F5
:1053A0000A0E010C0C000000E4440F080B0E020C66
:1053B0000E00000000450F080C0E010C0E0000004E
:1053C0001C450F08080E020C0B0000001C830F0880
:1053D0000A0E000C0B00000038450F080212020CE8
:1053E0000600000088710F08070E000C090000007D
:1053F0002C830F080A0E020C0C00000054450F0805
:10540000090E010C0B00000070450F080C0E020C79
:10541000100000008C450F080A0E020C0E00000060
:10542000A8450F080C0E010C0E000000C4450F0823
:105430000A0E010C0C000000E0450F080E0C010DD7
:10544000100000000C5A0F080E0A010E1000000098
:105450009C710F08100C000D10000000245A0F085A
:10546000150E010C1700000064730E08090E010CE4
:105470000B000000FC450F080C07010C0E0000009B
:105480003C830F080C0701130E0000004C830F082B
:105490000A0E020C0D00000018460F080B0E000C3F
:1054A0000D00000034460F080B0E000C0D0000002C
:1054B00050460F080C0E000C0C0000006C460F0844
:1054C0000A0E020C0E00000088460F080D0B020E9B
:1054D000110000003C5A0F08110B010E14000000CF
:1054E00000010F080E12040A1500000024010F0825
:1054F0000C0E000C0C000000A4460F08130E000C4C
:105500001300000090730E08090E010C0B00000040
:10551000C0460F08090E010C0B000000DC460F0806
:105520000B0E010C0D000000F8460F080F0E000CCA
:105530000F00000014470F08080E020C0A000000BC
:105540005C830F080D0E000C0C00000030470F08A4
:105550000A0E020C0E0000004C470F080A0E020C47
:105560000D00000068470F080E0E020C120000002C
:1055700084470F080C0E000C0E000000A0470F0817
:105580000B0D00080A000000BC470F08100D0008B2
:1055900010000000D8470F08090D01080A0000009C
:1055A000F4470F080B0D00080A00000010480F0810
:1055B0000A0D01080C0000002C480F08080D010816
:1055C0000A0000006C830F08080D01080A000000A3
:1055D0007C830F080B0D01080C00000048480F08E1
:1055E0000A0D01080B00000064480F08060D0108B1
:1055F000070000008C830F08070D0008080000005A
:105600009C830F08090D01080A00000080480F085C
:10561000070D010809000000AC830F080B0D0108FD
:105620000D0000009C480F080A0D01080B00000047
:10563000B8480F080A0D01080B000000D4480F08F5
:105640000B0D01080D000000F0480F08090D0108BE
:105650000A0000000C490F08080D01080A000000AC
:10566000BC830F080A0D01080B00000028490F0831
:105670000A0D01080C00000044490F080A0D01083A
:105680000B00000060490F080F0D00080F0000001C
:105690007C490F080809010C0900000058900F0808
:1056A0000809010C0900000064900F080909010CA9
:1056B0000A000000B0710F080F09000C1000000074
:1056C000C4710F08090D01080A00000098490F086D
:1056D000090D01080A000000B4490F080909010C6E
:1056E0000A000000D8710F080909000C0A00000028
:1056F000EC710F080709010C0900000070900F08F9
:105700000709010C090000007C900F08090C010C2E
:105710000A000000545A0F08020C010C040000009B
:1057200088900F08090D010809000000D0490F08F2
:105730000E09000C0E00000000720F08080C010C8E
:105740000A00000094900F080909010C0A000000EB
:1057500014720F080709010C09000000A0900F083F
:105760000905010C0A000000AC900F0809050110A2
:105770000A000000B8900F08090C010C0A00000094
:105780006C5A0F08060C010907000000C4900F08AE
:105790000809010C0A000000D0900F080908010C4C
:1057A0000B000000CC830F080E09000C0E00000057
:1057B00028720F080909000C080000003C720F084D
:1057C0000A09000C0A00000050720F0809100108B5
:1057D0000A000000D8200F08080D000C0800000087
:1057E000DC830F08090D01080A000000EC490F08CE
:1057F0000C0C010C0D000000845A0F08090C000C61
:10580000080000009C5A0F08020C01100400000060
:10581000DC900F080509011306000000E8900F084E
:10582000080901130A000000F4900F080909001389
:105830000800000064720F080910010F0A00000040
:10584000F8200F08080C00130800000000910F0852
:10585000090C01130A000000B45A0F080C0D0112C4
:105860000D000000084A0F08090C00130800000092
:10587000CC5A0F08130E020C16000000BC730E0861
:105880000F14FE060E000000B0CB0E080F14010628
:105890000E000000D8CB0E080B14FE060800000016
:1058A00000CC0E08170EFF0C15000000E8730E0860
:1058B000100EFF0C0E000000244A0F080F13FE0C00
:1058C0000E00000028CC0E080B0EFE0C0900000094
:1058D000404A0F080B0EFE0C090000005C4A0F083E
:1058E000100EFE0C0C000000784A0F080A12FE0889
:1058F0000800000048010F080E0EFF0C0B0000000E
:10590000944A0F080B13020C0E00000050CC0E0836
:10591000090C01070B000000E45A0F080B13010CDF
:105920000D00000078CC0E081416000616000000CA
:10593000B8DB0C08090E000C09000000B04A0F0883
:10594000090EFF0C06000000CC4A0F080D13010CD5
:105950000E000000A0CC0E080D0E010C0E00000081
:10596000E84A0F08100E000C10000000044B0F084E
:105970000B1902060E000000ECC60D080D190106F9
:105980000E00000020C70D080919000608000000DD
:1059900054C70D081213010C0E0000009C440D08A2
:1059A0000B1902060C00000088C70D080619000636
:1059B00006000000204B0F081413010C1500000016
:1059C000D8440D080C13020C0E000000C8CC0E08C1
:1059D0000B13020C0E000000F0CC0E080913000C93
:1059E0000900000018CD0E080C13010C0B0000007C
:1059F00040CD0E080E1901060E000000BCC70D08B0
:105A00000D13000C0D00000068CD0E080C13000CE7
:105A10000C00000090CD0E080913010C0B000000D3
:105A2000B8CD0E080E13010C0D000000E0CD0E08DD
:105A30000F13010C0E00000008CE0E08101901060D
:105A40000E000000F0C70D080F13010C0D00000040
:105A500030CE0E080E13010C0B00000058CE0E08BD
:105A60000A13000C0B00000080CE0E08130E010C70
:105A70000D00000014740E0808180207060000004C
:105A8000FC5A0F080A13010C0C000000A8CE0E08E7
:105A90000C1901060E00000024C80D080E13020C9C
:105AA0000E000000D0CE0E080A13000C0B00000000
:105AB000F8CE0E080809010C0A0000000C910F082E
:105AC0000709010C0900000018910F080809000CD3
:105AD0000900000024910F08080D01080A000000C9
