:020000040800F2
:10000000F897002065880F084DFB0A0867FB0A086F
:1000100081FB0A089BFB0A08B5FB0A0800000000E8
:1000200000000000000000000000000091870308AD
:10003000CFFB0A080000000035870308E9FB0A0827
:1000400051BA0F0855BA0F0859BA0F085DBA0F0810
:1000500061BA0F0865BA0F0869BA0F086DBA0F08C0
:1000600071BA0F0875BA0F0879BA0F087DBA0F0870
:1000700041FC0A0813FC0A083DFC0A0817FC0A08A0
:1000800081BA0F0885BA0F0889BA0F088DBA0F0810
:1000900091BA0F0895BA0F0899BA0F0871FC0A08AF
:1000A0009DBA0F08A1BA0F08A5BA0F08A9BA0F0880
:1000B000ADBA0F08B1BA0F08B5BA0F08B9BA0F0830
:1000C000BDBA0F08C1BA0F08C5BA0F08C9BA0F08E0
:1000D000CDBA0F0803FC0A08D1BA0F08D5BA0F0829
:1000E000D9BA0F08DDBA0F08E1BA0F08E5BA0F0850
:1000F000E9BA0F08EDBA0F08F1BA0F08F5BA0F0800
:1001000045FC0A08F9BA0F08FDBA0F0801BB0F0831
:100110000FFC0A0805BB0F08FFFB0A0809BB0F0804
:100120000DBB0F0811BB0F0807FC0A0815BB0F0811
:1001300019BB0F081DBB0F0821BB0F0825BB0F08FB
:1001400029BB0F082DBB0F0831BB0F0835BB0F08AB
:1001500039BB0F083DBB0F080BFC0A0841BB0F0859
:1001600069FC0A086DFC0A0845BB0F0849BB0F086B
:100170004DBB0F0851BB0F0855BB0F080000000016
:1001800059BB0F085DBB0F081BFC0A0861BB0F08B9
:1001900065BB0F0869BB0F086DBB0F0871BB0F086B
:1001A00049FC0A084FFC0A0875BB0F0879BB0F0809
:1001B0007DBB0F0881BB0F0885BB0F0889BB0F08EB
:1001C0008DBB0F0891BB0F080101001A0800000049
:1001D000AEBC0F080213030708000000E06A0F0816
:1001E000070701060A00000034A80F0810130107D2
:1001F00012000000908D0E080C1701070E00000081
:10020000A0140E081613010718000000B82E0D08E0
:100210001113010711000000F42E0D08020701065A
:10022000050000003CA80F08071901060A0000009D
:10023000842F0F08071902060A000000A02F0F08DC
:100240000C0B01060E0000000C540F080E0E020BE2
:1002500012000000BC2F0F0805080117080000005D
:1002600044A80F0807020111090000002CBC0F0868
:1002700003030217080000009CB80F0809180006C5
:100280000A000000D0140E080C1301070E00000035
:10029000B88D0E08081303070E000000F46A0F085B
:1002A0000B1301070E000000E08D0E080B13010771
:1002B0000E000000088E0E080C1300070E00000050
:1002C000308E0E080B1302070E000000588E0E0829
:1002D0000C1301070E000000808E0E080C1301079E
:1002E0000E000000A88E0E080C1301070E0000007F
:1002F000D08E0E080C1301070E000000F88E0E08B9
:10030000030E030C09000000347F0F080513020CD4
:1003100009000000086B0F080D0E020B1200000010
:10032000D82F0F080E07020E12000000447F0F089E
:100330000D0E030B12000000F42F0F080A13010723
:100340000C000000208F0E08141602071700000092
:1003500080D70C080F1300070F000000488F0E080D
:100360000C1302070F000000708F0E080D13010719
:100370000F000000988F0E080E13020711000000F6
:10038000C08F0E080B1302070E000000E88F0E0846
:100390000B1302070D00000010900E080F13010749
:1003A0001100000038900E080D1302071100000024
:1003B00060900E0806130107090000001C6B0F086F
:1003C000081300070A000000306B0F080D13020726
:1003D0000F00000088900E080A1302070C000000AE
:1003E000B0900E080F13020713000000D8900E08FB
:1003F0000D1302071100000000910E0810130107F1
:100400001200000028910E080C1302070E000000D5
:1004100050910E08101801071200000000150E0878
:100420000E1302071000000078910E080C1301074C
:100430000E000000A0910E081013FF070F0000002F
:10044000C8910E080C13020710000000F0910E086E
:100450000F1300070F00000018920E081713000773
:1004600017000000302F0D080F1300070F000000C9
:1004700040920E080E1300070E00000068920E084E
:100480000C1301070E00000090920E0806190206D8
:100490000A00000010300F08091801060A000000C9
:1004A00030150E08061901060A0000002C300F084E
:1004B0000F0A020712000000446B0F080E02001C16
:1004C0000E000000A0B80F08050503050E0000008F
:1004D0004CA80F080A0E010C0D00000048300F0850
:1004E0000B1402060E000000B8920E080A0E010C52
:1004F0000C00000064300F080B1401060E00000011
:10050000E0920E080B0E010C0D00000080300F0869
:10051000091400060800000008930E080B13010CD4
:100520000E00000030930E080A1402060E000000B0
:1005300058930E080213020706000000586B0F08BC
:100540000618FF070700000024540F080B140206CA
:100550000C00000080930E08021402060600000042
:100560006C6B0F08120E010C15000000985E0E084F
:100570000A0E020C0E0000009C300F080C0E010C3D
:100580000E000000B8300F080B13020C0E00000024
:10059000A8930E080B13010C0E000000D0930E0858
:1005A000070E020C09000000547F0F080A0E010C10
:1005B0000B000000D4300F080812000808000000EB
:1005C000806B0F080A0E020C0E000000F0300F08BE
:1005D0000C0E000C0C0000000C310F08130E000C68
:1005E00013000000C45E0E080C0E000C0C0000008E
:1005F00028310F080C13000C0C000000F8930E08B3
:10060000090E010C0B00000044310F080A19010605
:100610000C000000ACAA0D08021904060A00000034
:1006200060310F080A1901060C000000E0AA0D084D
:100630000E06020F120000004C8D0F080101001A77
:1006400008000000AFBC0F080213030708000000F9
:10065000946B0F080B1601080E000000F05E0E08E8
:100660000B1301070E00000020940E080C0C010C67
:100670000E0000003C540F080E1300070E0000008F
:1006800048940E08021904060A0000007C310F0885
:100690000B1801070E00000060150E080702030882
:1006A0000E0000002EBC0F081515010717000000F2
:1006B0007CFD0C08090C01070C00000054540F08C5
:1006C0000B0C010C0E0000006C540F080E090211F7
:1006D00012000000A86B0F080702011109000000BA
:1006E00030BC0F081515010717000000BCFD0C08F1
:1006F0000E0200040E000000A4B80F08090901074B
:100700000C000000BC6B0F080E0F02091200000065
:10071000F01A0F08090B02070C00000084540F08A0
:10072000080B02070C000000588D0F080505050591
:100730000E00000054A80F080A13020C0E0000005F
:1007400070940E080B1701070E00000090150E089C
:100750000303030C09000000A8B80F080605041ADB
:100760000E0000005CA80F08060B04070C00000038
:10077000648D0F080A0C01070C0000009C540F0840
:100780000B0C020C0E000000B4540F0814130207E7
:10079000190000006C2F0D08161302071900000045
:1007A000A82F0D081513020719000000E42F0D08EB
:1007B0000A1301070C00000098940E080F1900019D
:1007C0000F00000014AB0D080F1900010F0000000E
:1007D00048AB0D080F1900010F0000007CAB0D089D
:1007E0000F1800020F000000C0150E080F160004BD
:1007F0000F0000001C5F0E080F1900010F00000021
:10080000B0AB0D08161300071700000020300D08CC
:100810000D1801070F000000F0150E080B1902015A
:100820000E000000E4AB0D080B1902010E000000E1
:1008300018AC0D080B1902010E0000004CAC0D089D
:100840000B1702030E00000020160E080619010106
:100850000900000098310F08061901010900000085
:10086000B4310F080819000109000000D0310F0849
:100870000617010309000000CC540F0810130007ED
:1008800011000000C0940E080D18020211000000B3
:1008900050160E08101901011200000080AC0D085E
:1008A0001019010112000000B4AC0D08101901016B
:1008B00012000000E8AC0D08101801021200000040
:1008C00080160E081017010312000000B0160E0863
:1008D0000D0D030C12000000EC310F08101501067D
:1008E00012000000485F0E080C1902011000000001
:1008F0001CAD0D080C1902011000000050AD0D08D0
:100900000C1902011000000084AD0D080C17020341
:1009100010000000E0160E080E1900010E00000085
:10092000B8AD0D080A1302070E000000E8940E0887
:100930000B1402060E00000010950E080A150105A2
:100940000D000000745F0E080A1501050D0000007F
:10095000A05F0E080A1501050D000000CC5F0E080F
:100960000A1401060D00000038950E080A1201084D
:100970000D00000098F30E080A1501050D00000097
:10098000F85F0E08140E010C1600000024600E081B
:100990000A13010C0C00000060950E080B150105F0
:1009A0000D00000050600E080B1501050D00000041
:1009B0007C600E080B1501050D000000A8600E08F4
:1009C0000B1201080D000000BCF30E080515000510
:1009D00006000000E4540F0805150205060000009B
:1009E000FC540F08061500050600000014550F08FA
:1009F0000613000706000000D06B0F080C13010758
:100A00000E00000088950E080A1402060E00000071
:100A1000B0950E080C1501050E000000D4600E08FC
:100A20000C1501050E00000000610E080C150105F3
:100A30000E0000002C610E080C1401060E000000D0
:100A4000D8950E080C1201080E000000E0F30E0805
:100A50000F0E020B1200000008320F080C10010BE1
:100A60000E000000101B0F080A1502050E00000002
:100A700058610E080A1502050E00000084610E0878
:100A80000A1502050E000000B0610E080A120208E5
:100A90000E00000004F40E080C1A00050C00000003
:100AA000ECAD0D080B1902060E00000020AE0D087B
:100AB0000C1700080C00000010170E080F17000399
:100AC0000F00000040170E080A1301070D00000078
:100AD00000960E080F1900010F00000054AE0D081B
:100AE0000A1401060D00000028960E0810180007D1
:100AF0000F00000070170E080B13010C0D00000012
:100B000050960E080D1901010F00000088AE0D0867
:100B10000A1501050C000000DC610E080D19010129
:100B20000F000000BCAE0D080A1501050C00000006
:100B300008620E080D1701030F000000A0170E0831
:100B40000A1201080C00000028F40E080D1901011A
:100B50000F000000F0AE0D080A1501050C000000A2
:100B600034620E080E1902011100000024AF0D08B6
:100B7000101401061100000078960E0810130007EB
:100B800011000000A0960E080D1401060E000000D2
:100B9000C8960E080B1702030E000000D0170E08AF
:100BA0000B1301070D000000F0960E080B1902014F
:100BB0000E00000058AF0D080B1401060D000000D8
:100BC00018970E080B1702030E00000000180E08FD
:100BD0000B1201080D0000004CF40E080B18020760
:100BE0000E00000030180E080B13010C0D00000061
:100BF00040970E080B1902010E0000008CAF0D0883
:100C00000B1501050D00000060620E080F190101AF
:100C100011000000C0AF0D080B1A01050E00000006
:100C2000F4AF0D080F1901011100000028B00D08E4
:100C30000B1901060E0000005CB00D080F17010330
:100C40001100000060180E080B1701080E000000CC
:100C500090180E080F18010711000000C0180E08A8
:100C60000B1A01050E00000090B00D080D190201CD
:100C700011000000C4B00D080A1902010E000000A6
:100C8000F8B00D0812130007120000005C300D08C8
:100C90000C1400060E00000068970E0808190001E9
:100CA0000900000024320F080614000606000000A8
:100CB000E46B0F0808180002090000002C550F080B
:100CC0000613000706000000F86B0F080619010163
:100CD0000900000040320F0806140006060000005C
:100CE0000C6C0F08061801070900000044550F0896
:100CF00004180107060000005C550F0806170103E1
:100D00000900000074550F08020E020C06000000D6
:100D1000647F0F080F1301071200000090970E0860
:100D2000091802070D000000F0180E08091900014B
:100D30000A0000002CB10D08081AFF05070000008A
:100D40005C320F080D1802070F00000020190E0872
:100D50000B1902060C00000060B10D080B0E020C0E
:100D60000C00000078320F080A1902010C00000084
:100D700094B10D08051902010600000094320F0815
:100D80000A1802070C00000050190E080519010688
:100D900006000000B0320F080A1402060C00000022
:100DA000B8970E080814020609000000206C0F080E
:100DB0000A1302070C000000E0970E080814020650
:100DC0000B000000346C0F080D1300070D0000002D
:100DD00008980E080614000607000000486C0F086B
:100DE0000D19020111000000C8B10D080A15020515
:100DF0000E0000008C620E080D18020711000000A2
:100E000080190E080A13020C0E00000030980E081C
:100E10000D19020111000000FCB10D080A150205B0
:100E20000E000000B8620E081014FF06110000004A
:100E300058980E080D18020711000000B0190E088E
:100E40000A13020C0E00000080980E081017010310
:100E500012000000E0190E080C1301070E0000003C
:100E6000A8980E08101901011200000030B20D08F8
:100E70000C1401060E000000D0980E081019010194
:100E80001200000064B20D080C1501050E000000F0
:100E9000E4620E08161301071800000098300D08D0
:100EA000150E010C1700000010630E080E19020148
:100EB0001000000098B20D08071502050900000097
:100EC0008C550F080E18020710000000101A0E08AB
:100ED0000813010C090000005C6C0F080E190201D8
:100EE00010000000CCB20D08081502050900000032
:100EF000A4550F080C1901010E00000000B30D08E5
:100F00000A1501050B0000003C630E080C190101D5
:100F10000E00000034B30D080A1501050B00000097
:100F200068630E080C1801070E000000401A0E0836
:100F30000A13010C0B000000F8980E080C190101AF
:100F40000E00000068B30D080A1501050B00000033
:100F500094630E081018FF070F000000701A0E08A7
:100F60000817000808000000BC550F081019FF0101
:100F70000F0000009CB30D080C1400060C000000CC
:100F800020990E081013FF070F00000048990E0863
:100F90000812000808000000706C0F080C1802020C
:100FA00010000000A01A0E080A1402060E0000002D
:100FB00070990E080C17020310000000D01A0E08DA
:100FC0000A1302070E00000098990E080C1902017E
:100FD00010000000D0B30D080A1402060E00000035
:100FE000C0990E080C1902011000000004B40D088D
:100FF0000A1502050E000000C0630E080D1902015B
:101000001000000038B40D080A1502050E0000009B
:10101000EC630E080C18020710000000001B0E08FD
:101020000B13020C0E000000E8990E0817190001BE
:1010300017000000DC5D0C0813150005130000000C
:10104000FCFD0C080E1900010E0000006CB40D0828
:101050000C1A00050C000000A0B40D080E170003C8
:101060000E000000301B0E080C1901010E000000DC
:10107000D4B40D08091501050B00000018640E0812
:101080000C1701030E000000601B0E080912010876
:101090000B00000070F40E080C1901010E00000096
:1010A00008B50D08091501050B00000044640E0881
:1010B0000614020606000000846C0F080D140006DA
:1010C0000E000000109A0E08101300071100000017
:1010D000389A0E080C1302070F000000609A0E08E1
:1010E0000B1402060E000000889A0E080F1300076A
:1010F0000F000000B09A0E080D1400060E0000004C
:10110000D89A0E080D1301070F000000009B0E086F
:10111000111501050F0000003CFE0C080E1101091D
:101120000C00000094F40E081013000711000000DA
:10113000289B0E081213000713000000D4300D087E
:101140000C1301070F000000509B0E080B14010642
:101150000E000000789B0E080C13010C0E0000001E
:10116000A09B0E080B1301070E000000C89B0E0881
:101170001013010712000000F09B0E080C1301076A
:101180000D000000189C0E080F18FE070D0000004F
:10119000901B0E080E1500070E00000070640E086C
:1011A00013150105110000007CFE0C080F18000744
:1011B0000F000000C01B0E081214020616000000EB
:1011C00010310D080214020606000000986C0F088A
:1011D0000813000709000000AC6C0F080D1302078C
:1011E0000F000000409C0E080B1402060C000000CB
:1011F000689C0E080614000607000000C06C0F086B
:101200000C1400060C000000909C0E08121302073C
:10121000160000004C310D081118FE0711000000E7
:1012200040960C080A13020C0E000000B89C0E0831
:101230001013010712000000E09C0E0812130107B2
:101240001300000088310D080D1101090E00000087
:10125000B8F40E08151801071700000088960C084E
:101260000E13010C11000000089D0E08101300075A
:1012700010000000309D0E080B1902060E00000041
:101280003CB50D080D1502070E0000009C640E0809
:101290000C1301070E000000589D0E080A0E000CEA
:1012A0000B000000CC320F080D1301070E000000E8
:1012B000809D0E080D1900060E00000070B50D0887
:1012C0000817000808000000D4550F080F13000786
:1012D0000F000000A89D0E0808140006080000007A
:1012E000D46C0F080E1800070F000000F01B0E084A
:1012F0001116020412000000C4D70C080E110209D6
:101300000F000000DCF40E081113010712000000AA
:10131000C4310D080C13020710000000D09D0E0808
:10132000111300071100000000320D08111800070A
:101330000C000000D0960C080C1301070E000000F2
:10134000F89D0E08090E010C0B000000E8320F0892
:101350000C1800070D000000201C0E080C180107D7
:101360000D000000501C0E080A13010C0B000000B9
:10137000209E0E080913010C0B000000489E0E0869
:101380000B1301070E000000709E0E080C130107DE
:101390000E000000989E0E080A0E000C0B000000C4
:1013A00004330F080B1200080C00000000F50E08B3
:1013B0000B13020C0E000000C09E0E08021904065A
:1013C0000A00000020330F08061902060A00000078
:1013D0003C330F080E19020612000000A4B50D08D8
:1013E0000213030708000000E86C0F081C19020133
:1013F0001F000000F0920B08191502051C000000E8
:10140000142B0C081715010519000000BCFE0C0870
:1014100014130207180000003C320D0811180207CF
:101420001500000018970C08081902060C000000AF
:1014300058330F08171302071B00000078320D08FD
:10144000131802071700000060970C081118020714
:1014500015000000A8970C080F1900010F000000EC
:10146000D8B50D080A1501050D000000C8640E0866
:10147000081900010900000074330F080815FF0562
:1014800006000000EC550F081019010112000000C1
:101490000CB60D080C1501050E000000F4640E08D2
:1014A0000C1902011000000040B60D080A150205D3
:1014B0000E00000020650E080C190201100000004B
:1014C00074B60D080A1602040E0000004C650E08E2
:1014D0000C19020110000000A8B60D080A1602043B
:1014E0000E00000078650E080C19020110000000C3
:1014F000DCB60D080A1802020E000000801C0E085F
:101500000C1902011000000010B70D080A160204A1
:101510000E000000A4650E080B0E010C0D0000006B
:1015200090330F080F1900010F00000044B70D0899
:101530000A1601040D000000D0650E080F19000105
:101540000F00000078B70D080A1601040D00000016
:10155000FC650E081617000317000000F0970C0832
:101560001413010716000000B4320D081013010710
:1015700011000000E89E0E080C13010C0E00000084
:10158000109F0E080F19010111000000ACB70D08E3
:101590000B1A01050E000000E0B70D080D1902013D
:1015A0000F00000014B80D080B1902010C00000018
:1015B00048B80D081018010712000000B01C0E08F2
:1015C0000C13010C0E000000389F0E08101C0103C4
:1015D00012000000C8770D080C1801070E0000006B
:1015E000E01C0E080C1E00010D000000F0320D087A
:1015F0000A1A00050B0000007CB80D08081AFF0548
:1016000007000000AC330F081C1302071F00000086
:10161000285E0C08191302071C000000745E0C08F9
:1016200017140106190000002C330D080F190101D1
:1016300011000000B0B80D080B1A01050E000000E3
:10164000E4B80D08151302071900000068330D08EF
:101650000B1802070E000000101D0E080D190201E4
:101660001100000018B90D080A1502050E0000004F
:1016700028660E080F1900010F0000004CB90D0874
:101680000A1701030D000000401D0E081619000185
:1016900017000000C05E0C081415010516000000BC
:1016A000FCFE0C08101A01011200000080B90D08A0
:1016B0000C1601050E00000054660E080F190001FB
:1016C0000F000000B4B90D080B1500050D00000057
:1016D00080660E080F1900010F000000E8B90D0820
:1016E0000A1401060D000000609F0E080B1902018C
:1016F0000E0000001CBA0D080B1501050D000000BE
:10170000AC660E080B1902010E00000050BA0D085D
:101710000B1401060D000000889F0E080A19FE0137
:101720000900000084BA0D080A15FD050600000036
:10173000D8660E080819000109000000C8330F0818
:101740000814FF0606000000FC6C0F0810190101C8
:1017500012000000B8BA0D080C1501050E000000BB
:1017600004670E081019010112000000ECBA0D0800
:101770000C1401060E000000B09F0E080F190101A5
:101780001000000020BB0D080A150005090000002C
:1017900030670E080E1902011000000054BB0D083E
:1017A0000814020609000000106D0F080C19020150
:1017B0001000000088BB0D080B1501050E0000008D
:1017C0005C670E080C19020110000000BCBB0D087C
:1017D0000A1402060E000000D89F0E080C1801071C
:1017E0000E000000701D0E080A13010C0B00000013
:1017F00000A00E081018FF070F000000A01D0E0823
:10180000081700080800000004560F080B1801070D
:101810000D000000D01D0E080A13000C0B00000084
:1018200028A00E080D19020111000000F0BB0D08E0
:101830000A1902010E00000024BC0D080D18020751
:1018400010000000001E0E0812190106130000000F
:101850000C5F0C080D1301070F00000050A00E08CC
:101860000B1301070D00000078A00E080D160107EC
:101870000E00000088670E080A11010C0B00000022
:1018800024F50E080F1700030F000000301E0E088D
:101890000A1201080D00000048F50E080B18020797
:1018A0000E000000601E0E080B13010C0D0000005E
:1018B000A0A00E08101901011200000058BC0D086C
:1018C0000C1601040E000000B4670E081019010187
:1018D000120000008CBC0D080C1701030E00000064
:1018E000901E0E081017010312000000C01E0E0803
:1018F0000C1201080E0000006CF50E081019010111
:1019000012000000C0BC0D080C1601040E000000FF
:10191000E0670E080E1700030E000000F01E0E0810
:101920000C1800070C000000201F0E080A19010601
:101930000B000000F4BC0D081113020C1300000092
:10194000A4330D080B1200080B00000090F50E08E0
:101950000613FF0C07000000246D0F081414010685
:1019600016000000E0330D081413010C16000000EF
:101970001C340D08101600060F0000000C680E083D
:10198000101601060F00000038680E080C1301093C
:101990000C000000C8A00E080D13FF070C0000008B
:1019A000F0A00E081116FF060F00000008D80C0862
:1019B0000A13010C0B00000018A10E080913010CFA
:1019C0000B00000040A10E080D1400060E000000E0
:1019D00068A10E080B1200070C000000B4F50E08F9
:1019E0000D1301070F00000090A10E080E13010750
:1019F00010000000B8A10E080F1300070F00000030
:101A0000E0A10E080B1802050E000000501F0E0882
:101A10000B1801070D000000801F0E0809130007B6
:101A20000A00000008A20E080718FF0707000000C0
:101A30001C560F08131801071200000038980C08F4
:101A40000F13010C0E00000030A20E080F13010747
:101A50001000000058A20E08080E010C090000003A
:101A6000747F0F080E1300070E00000080A20E08FE
:101A70000C13000C0C000000A8A20E080A0E020CA9
:101A80000D000000E4330F080B0E010C0E000000E7
:101A900000340F080B0E020C0E0000001C340F085F
:101AA0000B1402060E000000D0A20E080A0E010C54
:101AB0000C00000038340F080B0E000C0C00000066
:101AC00054340F08101901060E00000028BD0D083F
:101AD000101401060E000000F8A20E080B0E010CF7
:101AE0000D00000070340F080B0E010C0D000000FB
:101AF0008C340F08110E010C1200000064680E08EF
:101B00000A0E010C0B000000A8340F080A0E000C8E
:101B10000B000000C4340F08100E000C1000000071
:101B2000E0340F080B0E010C0D000000FC340F0810
:101B30000913FF0C0800000020A30E08101901066D
:101B40000E0000005CBD0D080B13010C0E00000020
:101B500048A30E080B0E010C0D00000018350F08ED
:101B60000C13000C0C00000070A30E080F0E000CEC
:101B70000F00000034350F080A13020C0E0000009D
:101B800098A30E080A1402060E000000C0A30E0857
:101B90000A1902060E00000090BD0D08061300078A
:101BA00006000000386D0F08020E020C060000004F
:101BB000847F0F08060E010C09000000947F0F08B7
:101BC0000A1400060A000000E8A30E080714000625
:101BD000070000004C6D0F08061902060600000001
:101BE00050350F080B1902060E000000C4BD0D0889
:101BF000120E010C1500000090680E081213010C63
:101C00001500000058340D081213010C15000000D7
:101C100094340D080F13FD0C0E00000010A40E08E4
:101C20000E13020C0E00000038A40E080A0E020C5F
:101C30000E0000006C350F080C0E010C0E000000A9
:101C400088350F08110E010C14000000BC680E0846
:101C5000100E010C12000000A4350F080C1901062B
:101C60000E000000F8BD0D08070E000C0900000072
:101C7000A47F0F080714000609000000606D0F081C
:101C80000C13000C0900000060A40E080713020CDE
:101C900009000000746D0F080713020C0900000012
:101CA000886D0F08070E020C09000000B47F0F08B2
:101CB0000713000C090000009C6D0F080B0E020CAE
:101CC0000D000000C0350F080B0E020C0D000000C7
:101CD000DC350F080A13010C0B00000088A40E0865
:101CE0000C1901060E0000002CBE0D080C19FF0691
:101CF0000800000060BE0D080C13010C0E0000006F
:101D0000B0A40E080D1900060E00000094BE0D08C8
:101D10000812000808000000B06D0F08081700083E
:101D20000800000034560F080E0E000C0E000000D4
:101D3000F8350F080C0E020C1000000014360F08C6
:101D40000A0E020C0E00000030360F080C0E000CBC
:101D50000C0000004C360F08130E000C130000009E
:101D6000E8680E080C1300070C000000D8A40E0849
:101D70000B0E000C0B00000068360F080E13010C50
:101D80000B00000000A50E080D10010C0E00000055
:101D9000301B0F080A13000C0B00000028A50E08CA
:101DA0000B13000C0B00000050A50E080B140006CE
:101DB0000C00000078A50E080B1401060C000000B2
:101DC000A0A50E080B1400060C000000C8A50E0804
:101DD0000B13010C0C000000F0A50E0810130107F6
:101DE0001200000018A60E080A0E020C0D000000DA
:101DF00084360F080B0E010C0D000000A0360F08F2
:101E00000F1101090D000000D8F50E080A0E020C92
:101E10000E000000BC360F080A1800070A00000078
:101E2000B01F0E080B13FF0C0C00000040A60E089C
:101E3000080E020C0A000000C47F0F0810190106EA
:101E40000E000000C8BE0D080B1400060C000000B8
:101E500068A60E080B1401060C00000090A60E08E0
:101E60001414010616000000D0340D0814190106E0
:101E700016000000585F0C08181601061900000033
:101E80004CD80C08111200081100000000780D0851
:101E90000F1900060E000000FCBE0D08111200080C
:101EA0001200000038780D08121900061400000016
:101EB000A45F0C080E14020610000000B8A60E085D
:101EC0000B1402060E000000E0A60E080B1301071B
:101ED0000C00000008A70E080A1202080E000000FD
:101EE000FCF50E080F13000C1100000030A70E08BF
:101EF0001313000C130000000C350D08080D010829
:101F00000A000000D47F0F08080D01080A00000035
:101F1000E47F0F080510000806000000F47F0F089A
:101F20000509010C06000000708D0F080509000C62
:101F3000060000007C8D0F08080C000C0600000055
:101F4000888D0F080809010C09000000948D0F0806
:101F50000C09000C0C000000C46D0F08090C000CEB
:101F6000090000004C560F08050802070700000092
:101F700064A80F080A0801070C00000004800F087D
:101F80000507FF06050000006CA80F0805070106FD
:101F90000500000074A80F080507FF0605000000F3
:101FA0007CA80F08040705050E00000084A80F0890
:101FB000040705050E0000008CA80F08070D010896
:101FC0000900000014800F08070D01080900000037
:101FD00024800F080D0E020B12000000D8360F08E7
:101FE0000D0E030B12000000F4360F080E0D020C4C
:101FF0001200000010370F080E0D020C1200000036
:102000002C370F08080503050E00000094A80F08E0
:10201000080503050E0000009CA80F080205060530
:102020000E000000A4A80F08090202070E0000001D
:10203000ACB80F08050505050E000000ACA80F0898
:10204000050503050E000000B4A80F080204061BD6
:102050000E000000B0B80F080902021D0E000000BB
:10206000B4B80F080505031A0E000000BCA80F083D
:102070000505061A0E000000C4A80F08030E030C85
:102080000900000034800F08030303110900000059
:10209000B8B80F080407050F0E000000CCA80F0801
:1020A0000407050F0E000000D4A80F080604011451
:1020B00008000000BCB80F08060401140800000066
:1020C000C0B80F080604011408000000C4B80F08C7
:1020D000090202140E000000C8B80F080805030624
:1020E0000E000000DCA80F08020206080E00000027
:1020F00032BC0F08070703050E000000E4A80F0814
:102100000405041A0E000000ECA80F080A040206D9
:102110000E000000F4A80F080A0503050E000000D9
:10212000A08D0F080705001108000000FCA80F088B
:10213000080801070A00000004A90F08080C000C99
:1021400008000000AC8D0F08020D0108040000001B
:1021500044800F080709010C09000000B88D0F0822
:102160000709000C08000000C48D0F08070D0108C6
:102170000900000054800F08061202080A0000003F
:10218000D86D0F08061202080A000000EC6D0F0857
:10219000061202080A000000006E0F08061202086C
:1021A0000A000000146E0F08061202080A00000060
:1021B000286E0F08060B010F08000000D08D0F08D5
:1021C000060B010F08000000DC8D0F080805031A3C
:1021D0000E0000000CA90F08070303070E00000003
:1021E000CCB80F080A0701060A00000064800F0837
:1021F0000503041B0E000000D0B80F080503041BE4
:102200000E000000D4B80F080305051A0E000000E8
:1022100014A90F080305051A0E0000001CA90F08D9
:102220000404051B0E000000D8B80F0805050311B3
:102230000E00000024A90F080A0501110E0000007D
:10224000E88D0F080A0503110E000000F48D0F0839
:102250000A04021B0E0000002CA90F08030D03073F
:102260000900000074800F08050504070E00000037
:1022700034A90F08050505070E0000003CA90F084A
:10228000050504150E00000044A90F0805050515F5
:102290000E0000004CA90F080905021A0E000000EC
:1022A000008E0F080905021A0E0000000C8E0F08A0
:1022B000060701180800000054A90F080505F705D6
:1022C000000000005CA90F080505F80500000000EB
:1022D00064A90F080805FC05000000006CA90F08A0
:1022E0000A04F4010000000074A90F080902FB07AA
:1022F00000000000DCB80F080E02F9040000000026
:10230000E0B80F080805FC06000000007CA90F08D3
:102310000202FF080000000034BC0F080802FC089D
:102320000000000036BC0F08040505050000000091
:1023300084A90F080707FC05000000008CA90F08FE
:102340000A05FB0500000000188E0F080805FC05B3
:102350000000000094A90F080205FF05000000001E
:102360009CA90F080505FE0500000000A4A90F08A0
:102370000A05FB0500000000248E0F080807FC0476
:1023800000000000ACA90F080805FC0600000000D2
:10239000B4A90F080205FF0600000000BCA90F0841
:1023A0000205FF0600000000C4A90F080205FF0691
:1023B00000000000CCA90F08020501060000000083
:1023C000D4A90F080505FD1A00000000DCA90F08BC
:1023D0000505FD1A00000000E4A90F080504FE1B16
:1023E00000000000E4B80F080504FE1B0000000018
:1023F000E8B80F080906FB0400000000308E0F0843
:102400000406000300000000ECA90F080204FF1BF3
:1024100000000000ECB80F080604FD1B00000000DF
:10242000F0B80F080604FD1B00000000F4B80F0808
:102430000604FD1B00000000F8B80F080902FB1D90
:1024400000000000FCB80F080607FC1800000000A0
:10245000F4A90F080607001800000000FCA90F08E7
:102460000202061C0000000038BC0F080802FC1D18
:10247000000000003ABC0F080404FE1B000000002E
:1024800000B90F080204FF1B0000000004B90F0888
:102490000605FD1A0000000004AA0F080405FE1A34
:1024A000000000000CAA0F080204FF1B000000003F
:1024B00008B90F080904FB1B0000000014AA0F084C
:1024C0000903FC1C000000001CAA0F080804FC1BE8
:1024D000000000000CB90F080804FC1B00000000FD
:1024E00010B90F080804FC1B0000000014B90F0805
:1024F0000804FC1B0000000018B90F080A04FB1BAD
:102500000000000024AA0F080902FB1D00000000C3
:102510001CB90F080E02F91C0000000020B90F08BA
:102520000A04FB1B000000002CAA0F080A04FB0E83
:102530000000000034AA0F080902FB100000000090
:1025400024B90F080E02F9100000000028B90F0886
:102550000A09FB0D000000003C6E0F080918FB067D
:1025600000000000E01F0E080204FF1B0000000036
:102570002CB90F080904FB1B000000003CAA0F083F
:102580000404FE1B0000000030B90F080903FC1C06
:102590000000000044AA0F080606FD03000000002A
:1025A0004CAA0F080206FF040000000054AA0F08FE
:1025B0000E05F901000000003C8E0F080A04FB061E
:1025C000000000005CAA0F080205FF0600000000E2
:1025D00064AA0F080905FC0500000000488E0F08DA
:1025E0000304FE1B0000000034B90F080904FB05BA
:1025F000000000006CAA0F080E04F91B0000000088
:1026000074AA0F080504FE1B0000000038B90F086B
:102610000504FE1B000000003CB90F080A06FB057C
:1026200000000000548E0F080A08FB0300000000A1
:1026300084800F080A06FB0400000000608E0F086B
:102640000604FD1B0000000040B90F080604FD1B36
:102650000000000044B90F081211F7090000000043
:1026600030BF0D080305FD05000000007CAA0F081F
:102670000407FE050000000084AA0F080807FC04F8
:10268000000000008CAA0F080505FD1A00000000DC
:1026900094AA0F080305FF1A000000009CAA0F0867
:1026A0000305FE1A00000000A4AA0F080805FD1A81
:1026B00000000000ACAA0F080407FE05000000009F
:1026C000B4AA0F0802020608000000003CBC0F0874
:1026D0000504FE1B0000000048B90F080704FD1B9D
:1026E000000000004CB90F080405FE0600000000C1
:1026F000BCAA0F081305F61A0000000094800F080A
:102700001305FE0600000000A4800F081302FE0659
:1027100000000000C4AA0F081302FE1D0000000004
:10272000CCAA0F081304FE06000000006C8E0F08F0
:102730001305FE0600000000B4800F080E04FE1B07
:1027400000000000D4AA0F080507FD0400000000E7
:10275000DCAA0F080607FD0400000000E4AA0F0829
:102760000109FF0200000000788E0F080607FD0433
:1027700000000000ECAA0F080507FD04000000009F
:10278000F4AA0F080507FD0400000000FCAA0F08CA
:10279000060AFD0100000000848E0F08050AFD01F5
:1027A00000000000908E0F080907FB0400000000E5
:1027B000C4800F080307FE040000000004AB0F08EC
:1027C0000409FE02000000009C8E0F080507FD04AE
:1027D000000000000CAB0F080507FD04000000001E
:1027E00014AB0F08040505050E0000001CAB0F0814
:1027F0000404051B0E00000050B90F080304051B5C
:102800000E00000054B90F080A0E010C0C00000065
:1028100048370F080A0E010C0C00000064370F083F
:102820000A0E010C0C00000080370F080513020C83
:1028300009000000506E0F08030505050E0000009A
:1028400024AB0F08090502050E000000A88E0F0832
:102850000F1300070F00000058A70E080303030C16
:102860000900000058B90F081013000711000000FC
:1028700080A70E08121300071400000048350D0849
:102880000A1300070C000000A8A70E081313000786
:102890001400000084350D08121300071200000018
:1028A000C0350D081413000714000000FC350D0896
:1028B0000815FF050600000064560F080F130007F7
:1028C0000F000000D0A70E080C1302070F00000035
:1028D000F8A70E080B1302070D00000020A80E0831
:1028E0000F1300070F00000048A80E080B13020783
:1028F0000E00000070A80E080C1301070E00000067
:1029000098A80E080D13020711000000C0A80E08B9
:102910001013010712000000E8A80E0806130107B3
:1029200009000000646E0F080D1302070F0000007D
:1029300010A90E080F1300070F00000038A90E0899
:102940000F1302071300000060A90E080D13020701
:102950001100000088A90E080C1301070E000000EA
:10296000B0A90E081013010712000000D8A90E0824
:102970000D1302071100000000AA0E080C13020735
:102980000E00000028AA0E080D1301070E0000001B
:1029900050AA0E081013FF070F00000078AA0E08B7
:1029A0000E1300070E000000A0AA0E081013010766
:1029B00013000000C8AA0E080F1300070F00000044
:1029C000F0AA0E08101302071400000018AB0E083E
:1029D000111301071200000038360D080617010315
:1029E000090000007C560F080E1700030E000000BF
:1029F00010200E080B1501050E00000014690E08CA
:102A00000A1501050B00000040690E080A1A0205AC
:102A10000E00000064BF0D0803150205060000004B
:102A200094560F080A1502050E0000006C690E0886
:102A30000B0E010C0E0000009C370F080B1902064C
:102A40000E00000098BF0D080C13000C0C000000D5
:102A500040AB0E080C1401060E00000068AB0E0817
:102A60000A0E010C0B000000B8370F080A19010606
:102A70000A000000CCBF0D080A13020C0E00000073
:102A800090AB0E080C1401060E000000B8AB0E0847
:102A9000020E020C06000000D4800F080A0E020C81
:102AA0000C000000D4370F080C1400060C000000C6
:102AB000E0AB0E080A13020C0E00000008AC0E0872
:102AC0000C0E000C0C000000F0370F080B1901066B
:102AD0000B00000000C00D080C0E010C0E000000E1
:102AE0000C380F080A0E020C0E00000028380F08E0
:102AF0000B13020C0E00000030AC0E080A13010C80
:102B00000B00000058AC0E080E0E010C0F00000068
:102B100044380F080C0E000C0C00000060380F0841
:102B20000A0E020C0E0000007C380F081013010C76
:102B30001200000080AC0E080C13000C0C0000000A
:102B4000A8AC0E080E13020C12000000D0AC0E0848
:102B5000100E010C1200000098380F080613000731
:102B600006000000786E0F080A1202080E0000002E
:102B700020F60E080C1501050E00000098690E08DD
:102B80000A1502050E000000C4690E0810150105A3
:102B900012000000F0690E080B1402060E0000007F
:102BA000F8AC0E080C1402060E00000020AD0E0852
:102BB000121300071100000074360D0816150005E9
:102BC000150000003CFF0C08121700031100000064
:102BD00080980C080C1901060E00000034C00D0886
:102BE000100E010C12000000B4380F080E13000C78
:102BF0000E00000048AD0E0810180107120000007A
:102C000040200E080C13010C0E00000070AD0E08E1
:102C10000D1801070F00000070200E080B13010CA7
:102C20000C00000098AD0E080B1302070D00000009
:102C3000C0AD0E080813020C0B0000008C6E0F08CC
:102C40000F13010710000000E8AD0E080B14010679
:102C50000D00000010AE0E0812180007130000004F
:102C6000C8980C080D1900060E00000068C00D0879
:102C7000121802071600000010990C081213010C1C
:102C800015000000B0360D080D13010710000000FC
:102C900038AE0E080A1402060E00000060AE0E08E0
:102CA0000D18020710000000A0200E080D0E000CE9
:102CB0000D000000D0380F080C1301070E000000B3
:102CC00088AE0E080C1401060E000000B0AE0E080F
:102CD0000F1300070F000000D8AE0E080F0E000CF7
:102CE0000F000000EC380F0810130107120000005D
:102CF00000AF0E080C0E010C0E00000008390F0882
:102D00000C1300070C00000028AF0E080A14000680
:102D10000A00000050AF0E080E0E000C0E0000005E
:102D200024390F080C13010C0E00000078AF0E08B8
:102D30000A0E010C0C00000040390F080618FF07AE
:102D400007000000AC560F08101301071200000026
:102D5000A0AF0E080B0E010C0C0000005C390F0830
:102D60000B0E000C0C00000078390F080A13020744
:102D70000E000000C8AF0E080B1902060E0000007E
:102D80009CC00D080E13FF0C0E000000F0AF0E08E3
:102D90000D1301070F00000018B00E080D130107F6
:102DA0000F00000040B00E080D1301070F000000D7
:102DB00068B00E080B1902010E000000D0C00D080B
:102DC0000B1702030E000000D0200E08111300079D
:102DD00012000000EC360D080B1902010D00000076
:102DE00004C10D080D1301070F00000090B00E087C
:102DF0000C1301070E000000B8B00E0806130107FF
:102E000009000000A06E0F0806170103090000006A
:102E1000C4560F08081300070A000000B46E0F081C
:102E20001913000719000000F05F0C0817130207C0
:102E30001900000028370D081113000712000000C8
:102E400064370D080D1902010F00000038C10D088C
:102E50000D190201110000006CC10D080E180002CE
:102E60000E00000000210E080D17020711000000DF
:102E700030210E080F1300070F000000E0B00E080D
:102E80000C1302070F00000008B10E080C13020714
:102E90000F00000030B10E080B1302070D000000F8
:102EA00058B10E08101700071100000060210E082D
:102EB0000B1302070E00000080B10E081613000766
:102EC00016000000A0370D080C1300070D000000CD
:102ED000A8B10E080D13020711000000D0B10E08B2
:102EE0000D1802021100000090210E080D130207B8
:102EF0000F000000F8B10E080F13000711000000CA
:102F000020B20E080F1302071300000048B20E088B
:102F10000D1302071100000070B20E081013010714
:102F20001200000098B20E080D13020711000000F5
:102F3000C0B20E080C1302070E000000E8B20E0823
:102F40000D1301070F00000010B30E081013FF0748
:102F50000F00000038B30E080E1300070E0000002B
:102F600060B30E08101301071300000088B30E08A9
:102F70000F1300070F000000B0B30E080E17020772
:102F800011000000C0210E080D1301071000000001
:102F9000D8B30E081413020718000000DC370D0820
:102FA000161702071800000058990C0811130007A3
:102FB0001100000018380D0810130207140000005B
:102FC00000B40E080D1302070F00000028B40E080D
:102FD0000D1301070F00000050B40E08151302076F
:102FE0001800000054380D080D1300070F000000F2
:102FF00078B40E080A0E010C0D00000094390F0879
:103000000C1401060E000000A0B40E080A0E020CFB
:103010000D000000B0390F08080E020C0A00000075
:10302000E4800F080D11000C0E00000044F60E089D
:103030000B0E010C0D000000CC390F08120E000C15
:10304000120000001C6A0E080A0E000C0B000000A3
:10305000E8390F080A0E020C0E000000043A0F08AF
:103060000A1402060E000000C8B40E080A0E020C74
:103070000C000000203A0F080C0E000C0E0000009F
:103080003C3A0F080C0E020C10000000583A0F08D2
:103090000A0E020C0E000000743A0F080C0E010C10
:1030A0000E000000903A0F080A0E020C0E000000FD
:1030B000AC3A0F080B13020C0E000000F0B40E081F
:1030C0000A0E010C0C000000C83A0F080C0E000C90
:1030D0000C000000E43A0F080C13000C0C00000078
:1030E00018B50E0812190006130000003C600C0809
:1030F0000C0E000C0C000000003B0F080B11020C22
:103100000E00000068F60E080B0E010C0E00000009
:103110001C3B0F08100E010C13000000383B0F0879
:103120001111020C14000000A0C10D080D0E000CBE
:103130000E000000543B0F080D0E020C11000000A1
:10314000703B0F080A0E020C0D0000008C3B0F08AC
:103150000A0E010C0C000000A83B0F08100E020C18
:1031600013000000C43B0F080B0E000C0D00000004
:10317000E03B0F080B1501050D000000486A0E0822
:103180000B1201080D0000008CF60E080C19000649
:103190000E000000D4C10D08081502050A00000049
:1031A000DC560F080A0E010C0C000000FC3B0F0857
:1031B0000A0E010C0B000000183C0F080213020756
:1031C00006000000C86E0F08061300070600000086
:1031D000DC6E0F080618FF0707000000F4560F0802
:1031E000140E000C15000000746A0E08120E020C7A
:1031F00015000000A06A0E080C1400060E00000066
:1032000040B50E080A1502050C000000CC6A0E0835
:103210000A1502050E000000F86A0E080C190006D7
:103220000C00000008C20D080A11020C0E0000007C
:10323000B0F60E081B1301071D00000088600C0883
:10324000120E000C12000000246B0E081013000771
:103250001100000068B50E080D1400060E000000F5
:1032600090B50E08121302071500000090380D08E3
:103270000E0E020C11000000343C0F080F13000763
:103280000F000000B8B50E080C0E000C0C0000007A
:10329000503C0F081213020714000000CC380D0830
:1032A0000F0E020C110000006C3C0F0814130007F5
:1032B0001400000008390D080F0E000C0F0000006C
:1032C000883C0F08171302071900000044390D0845
:1032D000130E020C15000000506B0E080B1E0101AE
:1032E0000D00000080390D080A1A00050B000000CF
:1032F0003CC20D081013020714000000E0B50E08D0
:103300000E13020C1200000008B60E08101301077D
:103310001200000030B60E080C0E010C0E0000006A
:10332000A43C0F081313000712000000BC390D085D
:10333000100E000C0F000000C03C0F081319000114
:1033400012000000D4600C08101500050F000000EA
:103350007C6B0E081C1801071D00000080C30B08C1
:103360001813010C19000000F8390D081315010697
:10337000150000007CFF0C080F10010B110000006D
:10338000501B0F08151901011700000020610C08DF
:103390001117010313000000A0990C081B1701036B
:1033A0001D000000C0010C081212000812000000ED
:1033B00070780D080D1801070F000000F0210E08AD
:1033C0000A13010C0C00000058B60E080C1300077D
:1033D0000C00000080B60E0808050306000000007F
:1033E0002CAB0F08090302070000000034AB0F08E4
:1033F00002050606000000003CAB0F0802050606A9
:103400000000000044AB0F080A040306100000008F
:103410004CAB0F081816F4080000000090D80C08F8
:103420001818F40700000000E8990C080F1C0202AD
:1034300011000000A8780D080C1702060E0000000D
:1034400020220E080F1300070F000000A8B60E0878
:103450000C1400060D000000D0B60E080D13020774
:103460000E000000F8B60E080C13020C0E0000004F
:1034700020B70E080B1802020D00000050220E08A3
:10348000081302070A000000F06E0F080C13010772
:103490000D00000048B70E08090E010C0A000000DC
:1034A000DC3C0F080B1802070E00000080220E08FB
:1034B0000A13020C0D00000070B70E081617000763
:1034C00017000000309A0C081211000C13000000C5
:1034D00070C20D080C1800070D000000B0220E0885
:1034E0000A13000C0B00000098B70E080E17020715
:1034F00010000000E0220E080A11020C0D0000006E
:10350000D4F60E080D1302070F000000C0B70E0816
:103510000A0E020C0C000000F83C0F080F13000705
:103520000F000000E8B70E080C1400060C000000A5
:1035300010B80E081213000712000000343A0D08EC
:103540000E0E000C0E000000143D0F080F170207AE
:103550001100000010230E080B11020C0E000000D9
:10356000F8F60E081213020714000000703A0D0856
:103570000E0E020C10000000303D0F081618020756
:1035800019000000789A0C081213020C15000000B4
:10359000AC3A0D081114010712000000E83A0D08BA
:1035A0000D0F010C0E000000701B0F080D18010715
:1035B0000F00000040230E080A13010C0C0000004D
:1035C00038B80E081017FF070F00000070230E0810
:1035D0000C11000C0C0000001CF70E080E13000765
:1035E0000E00000060B80E080C13000C0C00000068
:1035F00088B80E080E1300070E000000B0B80E08C1
:103600000C13000C0C000000D8B80E080F170007B0
:103610000F000000A0230E080C11000C0D0000008C
:1036200040F70E081317000714000000C09A0C089A
:103630000F11000C1000000064F70E080F170107AF
:1036400010000000D0230E080C11010C0E00000029
:1036500088F70E080D1301071000000000B90E08CE
:103660000B0E010C0E0000004C3D0F080C1302075E
:103670001000000028B90E080A1402060E0000000F
:1036800050B90E081413000715000000243B0D0864
:103690000F0E000C10000000683D0F081417000703
:1036A00015000000089B0C080F11000C1000000012
:1036B000ACF70E080613010709000000046F0F089D
:1036C00016190001160000006C610C0812140006A7
:1036D00012000000603B0D080C1802070F000000EC
:1036E00000240E080913020C0C00000078B90E0823
:1036F0001117000711000000509B0C080E11000C60
:103700000E000000D0F70E080D180207110000008F
:1037100030240E080A13020C0E000000A0B90E0897
:103720000F1702071100000060240E080C11020C94
:103730000E000000F4F70E080D170107100000003E
:1037400090240E080B11010C0E00000018F80E0852
:103750001117020713000000989B0C080E11020CB1
:10376000100000003CF80E080214020606000000DB
:10377000186F0F080F1900010F000000A4C20D08F8
:103780000A1401060D000000C8B90E080F16000447
:103790000F000000A86B0E080A1201080D000000BF
:1037A00060F80E0816130007170000009C3B0D0878
:1037B000140E010C16000000D46B0E080B19020148
:1037C0000E000000D8C20D080B1401060D00000009
:1037D000F0B90E08101301071200000018BA0E0805
:1037E0000B0E010C0D000000843D0F0810160104A3
:1037F00012000000006C0E080B1201080D00000002
:1038000084F80E081616000416000000D4D80C0820
:103810001212000812000000E0780D080C160004D7
:103820000D0000002C6C0E080A1200080B000000AE
:10383000A8F80E080C1300070D00000040BA0E088F
:103840000A13000C0B00000068BA0E080D170203E3
:1038500011000000C0240E080A1302070E00000029
:1038600090BA0E080D16020411000000586C0E08E4
:103870000A1202080E000000CCF80E08101701030F
:1038800012000000F0240E080C1201080E000000C7
:10389000F0F80E081013010712000000B8BA0E0865
:1038A0000C0E010C0E000000A03D0F0810170103C4
:1038B0001200000020250E080C1201080E00000066
:1038C00014F90E080D1601040F000000846C0E0898
:1038D0000A1201080C00000038F90E080E17000348
:1038E0000E00000050250E080C1800070C00000008
:1038F00080250E080E1600040E000000B06C0E08A5
:103900000C1700080C000000B0250E080E1900016D
:103910000E0000000CC30D080C1A00050C0000007E
:1039200040C30D080D16010410000000DC6C0E08E9
:103930000B1201080E0000005CF90E080B170207BD
:103940000D000000E0250E080812020C0A0000001D
:103950002C6F0F081016020414000000086D0E08EA
:103960000D1202081100000080F90E080D18000762
:103970000D00000010260E080A13000C0A000000BB
:10398000E0BA0E08101800070F00000040260E08CD
:103990000C13000C0C00000008BB0E080F130007EE
:1039A0000F00000030BB0E080C0E000C0C000000D5
:1039B000BC3D0F080D1300070F00000058BB0E0898
:1039C0000B1401060E00000080BB0E081513000743
:1039D00017000000D83B0D08131401061600000064
:1039E000143C0D081413010717000000503C0D088B
:1039F000120E010C15000000346D0E080E170107A1
:103A00000F00000070260E080B11010C0D000000C5
:103A1000A4F90E0817130007190000008C3C0D08CC
:103A2000140E000C16000000606D0E08151302073E
:103A300019000000C83C0D08120E020C1600000010
:103A40008C6D0E080F13010711000000A8BB0E08B3
:103A50000B0E010C0D000000D83D0F0811130007DC
:103A600013000000043D0D080F0E000C11000000B3
:103A7000F43D0F080C1301070D000000D0BB0E0829
:103A80000A0E010C0B000000103E0F080F18000773
:103A900011000000A0260E080C13000C0E00000000
:103AA000F8BB0E081018010712000000D0260E08FF
:103AB0000B13010C0E00000020BC0E0817130007AA
:103AC00017000000403D0D08130E000C130000000D
:103AD000B86D0E08101302071200000048BC0E0853
:103AE0000D1302071000000070BC0E081013000731
:103AF0001000000098BC0E08111300071100000010
:103B00007C3D0D080D13020710000000C0BC0E081C
:103B10000D1301070F000000E8BC0E080C1302078C
:103B20000F00000010BD0E080D130207100000006A
:103B300038BD0E081213020714000000B83D0D082E
:103B40000F1301071000000060BD0E080C130207E0
:103B50000F00000088BD0E080A1302070C000000C9
:103B6000B0BD0E081213020716000000F43D0D0848
:103B70001013000710000000D8BD0E080C13020738
:103B80001000000000BE0E080B1301070D0000001E
:103B900028BE0E080E1300070F00000050BE0E08CE
:103BA0001113000711000000303E0D080D1302072D
:103BB0001100000078BE0E0810130207120000006A
:103BC000A0BE0E080E13010710000000C8BE0E08AC
:103BD0001013000711000000F0BE0E080D130107BE
:103BE0000F00000018BF0E080C13020710000000A1
:103BF00040BF0E080D1301070F00000068BF0E083C
:103C00000F1300071100000090BF0E080D130107ED
:103C10000F000000B8BF0E081013020712000000CA
:103C2000E0BF0E080C1302071000000008C00E08C9
:103C300011130007110000006C3E0D080F13000760
:103C40001000000030C00E080C1302070F00000027
:103C500058C00E080F1301071100000080C00E08A5
:103C60000A1302070D000000A8C00E081013010778
:103C700013000000D0C00E080E1300070F00000054
:103C8000F8C00E08101301071200000020C10E0832
:103C90000F1300071000000048C10E0802050106BE
:103CA0000500000054AB0F080205010605000000E6
:103CB0005CAB0F08050501060800000064AB0F08A7
:103CC000070A010609000000B48E0F080505010669
:103CD000080000006CAB0F08070601060900000091
:103CE00074AB0F080A0601030C000000C08E0F0819
:103CF000110E020C15000000E46D0E080A13020CF0
:103D00000E00000070C10E080E13010C0F00000021
:103D100098C10E080D13020C0F000000C0C10E0860
:103D20000A1402060E000000E8C10E080E13010C72
:103D30000F00000010C20E080A1402060D00000059
:103D400038C20E080A13020C0E00000060C20E08F2
:103D50000F13020C1100000088C20E080E14010699
:103D60000F000000B0C20E080A1902060E00000083
:103D700074C30D080613020C08000000406F0F0802
:103D80001219020616000000B8610C080D14010695
:103D90000E000000D8C20E080A1902060E0000002C
:103DA000A8C30D080A1402060E00000000C30E0886
:103DB0000A1401060C00000028C30E080D13020CA3
:103DC0000F00000050C30E080B1401060C00000089
:103DD00078C30E080D1402060F000000A0C30E08E1
:103DE0000613000C08000000546F0F080D140006A5
:103DF0000F000000C8C30E080A13000C0B000000DF
:103E0000F0C30E080A0E020C0E0000002C3E0F0834
:103E10000A13000C0B00000018C40E081113020C4A
:103E200015000000A83E0D080B13000C0C0000004C
:103E300040C40E080B0E020C0E000000483E0F0896
:103E40000A0E020C0E000000643E0F080D19020657
:103E50000F000000DCC30D08110E020C150000005D
:103E6000106E0E080A13020C0E00000068C40E0843
:103E70000B13010C0E00000090C40E08080E020C7B
:103E80000A000000F4800F08111902061500000056
:103E900004620C080E13000C0F000000B8C40E08DA
:103EA0000C0E010C0E000000803E0F0810190006D9
:103EB0001100000010C40D080D1402060F000000D0
:103EC000E0C40E08030E030C0900000004810F0873
:103ED00007030110090000005CB90F080505FE1A70
:103EE000000000007CAB0F080803FC060000000087
:103EF00060B90F080306FE030000000084AB0F0842
:103F00000205FF04000000008CAB0F080405FE044E
:103F10000000000094AB0F080405FE1A000000002A
:103F20009CAB0F080303FF060000000064B90F08F4
:103F30000704FC050000000068B90F080405FC0434
:103F400000000000A4AB0F080303001B00000000EA
:103F50006CB90F080405FE1A00000000ACAB0F0896
:103F60000405FE0400000000B4AB0F0804050004C3
:103F700000000000BCAB0F080805FC0400000000B6
:103F8000C4AB0F080E06F90300000000CC8E0F082A
:103F90000606000300000000CCAB0F080405FE0479
:103FA00000000000D4AB0F080505FE1A0000000059
:103FB000DCAB0F080304FF1B0000000070B90F0802
:103FC0000303FE1B0000000074B90F080405FE1A6D
:103FD00000000000E4AB0F080805FC1A0000000018
:103FE000ECAB0F080305FE1A00000000F4AB0F084D
:103FF0000405FE0400000000FCAB0F080606FA03EF
:104000000000000004AC0F080505FE1A00000000C7
:104010000CAC0F080303FE060000000078B90F087F
:104020000304FF05000000007CB90F080405001A16
:104030000000000014AC0F080704F90500000000A0
:1040400080B90F080303FE060000000084B90F08C2
:104050000205061A000000001CAC0F080805031A30
:104060000000000024AC0F080605041A0000000040
:104070002CAC0F080605041A0000000034AC0F0831
:104080000202061B000000003EBC0F080502041BD4
:104090000000000040BC0F080505051A00000000E4
:1040A0003CAC0F080301051B00000000B0BC0F086A
:1040B0000503041B0000000088B90F08020206086F
:1040C0000000000042BC0F080202030700000000CD
:1040D00044BC0F080805031A0000000044AC0F0898
:1040E000020206120000000046BC0F080103061B76
:1040F000000000008CB90F080602020B0A00000045
:1041000048BC0F080301050800000000B1BC0F08FF
:104110000213020906000000686F0F080202060879
:10412000000000004ABC0F080202FF080000000067
:104130004CBC0F08030F030B0900000014810F088B
:1041400002020107000000004EBC0F080202FF1C23
:104150000000000050BC0F080710020A0A0000000F
:1041600024810F080504FD1B0000000090B90F0812
:104170000D0F020B11000000901B0F080E0F010B1A
:1041800010000000B01B0F080C0F000B0C0000000B
:10419000D01B0F080D0F010B0F000000F01B0F08C4
:1041A0000D0F020B11000000101C0F08050F000B73
:1041B0000700000034810F08070F010B0800000002
:1041C00044810F080D0F020B11000000301C0F0876
:1041D0000D0F020B11000000501C0F080508000B0A
:1041E000070000004CAC0F080E14000B100000007C
:1041F00008C50E080D0F010B10000000701C0F0801
:104200000D1401061000000030C50E080D0F020B42
:1042100011000000901C0F080E0F010B1100000090
:10422000B01C0F080714000B090000007C6F0F087A
:10423000070F010B0A00000054810F08100F000B3C
:1042400012000000D01C0F080D11010B100000001F
:10425000C8F90E080E14010B1100000058C50E0815
:104260000D0F010B10000000F01C0F080B14000BC9
:104270000C00000080C50E080D0F010B0F000000A0
:10428000101D0F080D14020B11000000A8C50E0828
:104290000C0F000B0E000000301D0F08110F020B59
:1042A0001400000000270E08100F000B1200000081
:1042B000501D0F080C0F000B0E000000701D0F08A2
:1042C0000C0F000B0E000000901D0F080C08000BD7
:1042D0000E00000064810F080507010605000000BC
:1042E00054AC0F080A0701060A00000074810F0889
:1042F0001205011A1400000084810F082505011A17
:10430000270000009C3E0F081D0700181E0000003B
:10431000B83E0F0817070118190000000C570F08C6
:10432000101701081200000030270E0803070313BE
:10433000090000005CAC0F08070701180800000026
:1043400064AC0F081D0701131D000000D43E0F08C8
:104350000C12010D0F000000ECF90E080705FC021D
:10436000000000006CAC0F080705FC020000000014
:1043700074AC0F080706FC02000000007CAC0F08BC
:104380000907FB010000000094810F080904FC02EA
:104390000000000084AC0F080607011300000000B5
:1043A0008CAC0F08030E030C09000000A4810F0859
:1043B000060501150800000094AC0F080A13010758
:1043C0000C000000D0C50E08070901110A0000000A
:1043D000D88E0F08061600040600000024570F08A8
:1043E0000419010106000000F03E0F080915000A3B
:1043F0000A0000003C6E0E080418010706000000C9
:104400003C570F08140F010B1600000060270E0820
:104410000213020706000000906F0F08120C011231
:104420001400000010FA0E080A1101090C00000027
:1044300034FA0E08120C010E1400000058FA0E088F
:10444000120F010B1400000090270E080C11010E32
:104450000F0000007CFA0E080C11010E0F00000086
:10446000A0FA0E080C14010B0F000000F8C50E088E
:104470000A0C010E0C00000054570F080A10010A24
:104480000C000000B01D0F08080B0014090000000C
:10449000E48E0F080810000F09000000B4810F0817
:1044A0001C0E01111E00000018790D081C14010BD0
:1044B0001E0000008C490C081B0F01101D0000009D
:1044C000E43E0D081B14010B1D000000DC490C0824
:1044D0001113FF0711000000203F0D081113FF0703
:1044E000110000005C3F0D080C12010D0F000000D0
:1044F000C4FA0E080C1601090F000000686E0E08C1
:104500000702FF180600000052BC0F081412010831
:104510001600000050790D08141501071600000060
:10452000BCFF0C080F1301071200000020C60E0884
:104530000D1301071000000048C60E08100EFE11F2
:104540000F0000000C3F0F080F0E010C11000000BF
:10455000283F0F080A0C010E0C0000006C570F08D2
:10456000090F00100A000000D01D0F08140E010CE6
:1045700016000000946E0E081412010C16000000C4
:1045800088790D08070400050000000094B90F08A1
:1045900008050001000000009CAC0F080704001A89
:1045A0000000000098B90F08070200040000000096
:1045B00054BC0F080605000100000000A4AC0F0861
:1045C0000702001C0000000056BC0F08070501018F
:1045D00000000000ACAC0F08050500020000000060
:1045E000B4AC0F08060200040000000058BC0F081D
:1045F00004040102000000009CB90F080404011B20
:1046000000000000A0B90F080105FF1A000000001B
:10461000BCAC0F080605FD0100000000C4AC0F088B
:104620000403FE0300000000A4B90F080501FD0902
:1046300000000000B2BC0F080503000400000000E9
:10464000A8B90F080704000300000000ACB90F0868
:104650000202FF1C000000005ABC0F080605000102
:1046600000000000CCAC0F080503000300000000B0
:10467000B0B90F080707040E0E000000D4AC0F08F5
:10468000051104090E000000A46F0F080C110109A8
:104690000E000000E8FA0E080D1100090E000000DF
:1046A0000CFB0E080B1102090E00000030FB0E0877
:1046B0000D0E010C0E000000443F0F080C11010903
:1046C0000E00000054FB0E080D1101090E00000041
:1046D00078FB0E080D1101090E0000009CFB0E086E
:1046E0000C1102090E000000C0FB0E080D1101099B
:1046F0000E000000E4FB0E0803070317090000008A
:10470000DCAC0F080307031309000000E4AC0F083A
:104710000C0C010C0E00000084570F081208011247
:10472000140000009C570F081410010C1600000024
:10473000C0270E080108FF0100000000ECAC0F08C4
:104740000618000206000000B4570F080618000201
:1047500006000000CC570F080618000706000000EE
:10476000E4570F080404010206000000B4B90F0862
:104770000713020706000000B86F0F080A15000AA9
:104780000A000000C06E0E080B15FF0A0A000000A8
:10479000EC6E0E081614010616000000983F0D0876
:1047A000121101091400000044C40D08120F010B7E
:1047B00014000000F0270E08120D01121400000072
:1047C00070C60E081210010E1400000020280E08FA
:1047D000120E010C14000000186F0E08120D0112C9
:1047E0001400000098C60E08120F010B1400000000
:1047F00050280E08120D011214000000C0C60E0849
:104800000C1701080F00000080280E080C18010783
:104810000F000000B0280E080C11010E0F00000060
:1048200008FC0E080C11010E0F0000002CFC0E08F5
:104830000C1801070F000000E0280E080C11010EF3
:104840000F00000050FC0E080C11010E0F000000BC
:1048500074FC0E080A1501050C000000446F0E08D8
:104860000A10010E0C000000F01D0F080A10010EC6
:104870000C000000101E0F080A1901050C000000B2
:1048800078C40D080A10010A0C000000301E0F0841
:104890000A10010E0C000000501E0F080A13010739
:1048A0000C000000E8C60E080A1301070C00000007
:1048B00010C70E080A1301070C00000038C70E08C5
:1048C0000816000909000000FC570F080811000E27
:1048D00009000000CC6F0F080B0B0014090000004A
:1048E00014580F08090B0014090000002C580F0879
:1048F0000C0B00140900000044580F08090B0014A9
:10490000090000005C580F080810000F09000000A3
:10491000C4810F080813000C09000000E06F0F08A5
:104920000813000C09000000F46F0F081C11010EA1
:104930001E00000018D90C081C0E01111E000000FA
:10494000C0790D081C14010B1E0000002C4A0C0835
:104950001B0F01101D000000D43F0D081B1701089C
:104960001D0000001C020C081113FF0711000000BD
:1049700010400D080C1901060F000000ACC40D0812
:10498000140E010C16000000706F0E081412010CBA
:1049900016000000F8790D08141601081600000032
:1049A0005CD90C081415010516000000FCFF0C086A
:1049B0001413010C160000004C400D0814150105DD
:1049C000160000003C000D08141401081600000039
:1049D00088400D081417010516000000E09B0C0824
:1049E0001413010717000000C4400D081E0C010E2F
:1049F0001F00000010290E08141301071700000003
:104A000000410D080F1301071200000060C70E08D7
:104A10000F160104120000009C6F0E080F1801070A
:104A20001200000040290E081416010417000000AF
:104A3000A0D90C081416010417000000E4D90C08D2
:104A4000141601041700000028DA0C08141A0104D7
:104A5000170000007C4A0C08141B0104170000001A
:104A6000682B0C08141901011700000050620C0893
:104A70000F1701031000000070290E080D16010425
:104A800010000000C86F0E080F190101100000008F
:104A9000E0C40D080D18010710000000A0290E0841
:104AA0000F12010C1100000098FC0E080F0A0110F3
:104AB0001100000008700F080F130107110000001B
:104AC00088C70E080F12010C11000000BCFC0E0874
:104AD0000F11010911000000E0FC0E08110DFF0D7F
:104AE00011000000B0C70E080C14010B0F000000ED
:104AF000D8C70E080A1201080C00000004FD0E08B9
:104B00000C0801140D000000D4810F080C10010CDA
:104B10000D000000701E0F080C0E010E0D000000AD
:104B2000603F0F08090F00100A000000901E0F08D8
:104B3000090E00110A0000007C3F0F080913000C49
:104B40000A00000000C80E08091700080A0000004B
:104B5000D0290E08091900060A00000014C50D0826
:104B60000914000B0A00000028C80E080913000CE5
:104B70000A00000050C80E08091600090A000000CB
:104B8000F46F0E08140E010C1600000020700E08C1
:104B9000160E000C170000004C700E08140E010CCD
:104BA0001600000078700E080913000C0A000000BF
:104BB00078C80E081413010C160000003C410D08C3
:104BC0001413010C1600000078410D08170B001398
:104BD0001700000028FD0E081712000C1700000037
:104BE000307A0D0806020018060000005CBC0F08B1
:104BF0000A0C010E0C00000074580F080B09FB0290
:104C0000000000001C700F080C09FA0200000000F0
:104C100030700F080504FE0500000000B8B90F0849
:104C20000708FD0200000000F4AC0F080507FE05B0
:104C300000000000FCAC0F080302FF0700000000AA
:104C40005EBC0F080C05FA0600000000F08E0F088D
:104C50001A1B01041C000000E8750B081B1B000454
:104C60000000000054760B080202FF07000000005D
:104C700060BC0F080202FF070000000062BC0F08C2
:104C80000704FD0500000000BCB90F080706FC057D
:104C90000000000004AD0F080C05FA1A0000000027
:104CA000FC8E0F080403FF0100000000C0B90F08CC
:104CB00005050006060000000CAD0F0809050007F9
:104CC0000A000000088F0F080905FB07000000001C
:104CD000148F0F080606FD030000000014AD0F0836
:104CE0001114FF060F000000B4410D080505FE1A5F
:104CF000000000001CAD0F080505FE0500000000C7
:104D000024AD0F080202FF070000000064BC0F087A
:104D10000706FC19000000002CAD0F080A1101095C
:104D20000C0000004CFD0E080912000D09000000E7
:104D300070FD0E080707040E0E00000034AD0F08CA
:104D4000051104090E00000044700F080C11010940
:104D50000E00000094FD0E080D1100090E00000069
:104D6000B8FD0E080C10010A0E000000B01E0F085E
:104D70000D1100090E000000DCFD0E08090F030BE9
:104D80000E000000D01E0F080D1101090E000000DA
:104D900000FE0E080D1101090E00000024FE0E0891
:104DA0000C1102090E00000048FE0E081C14010B35
:104DB0001E000000CC4A0C081B14010B1D00000053
:104DC0001C4B0C080C1601090F000000A4700E0803
:104DD000080D01110A000000E4810F080E0E0011F9
:104DE0000F000000983F0F081114FF06110000008B
:104DF000F0410D08120C0112140000006CFE0E08A8
:104E00001213010B140000002C420D08120D0112A8
:104E100014000000A0C80E081211010E14000000BA
:104E200048C50D081210010E14000000002A0E08DB
:104E3000120D011214000000C8C80E08120C010E59
:104E40001400000090FE0E080C15010A0F0000006F
:104E5000D0700E080C11010E0F000000B4FE0E08F9
:104E60000A1A01050C0000007CC50D080A11010E8C
:104E70000C000000D8FE0E080A0B00140900000008
:104E80008C580F081C14010B1E0000006C4B0C0802
:104E90000C1601090F000000FC700E080C18010729
:104EA0000F000000302A0E080C1901060F00000048
:104EB000B0C50D081412010C16000000687A0D0828
:104EC0001413010C1600000068420D0814130107AA
:104ED00017000000A4420D0814160104170000007A
:104EE0006CDA0C081418010717000000289C0C0845
:104EF0001013FE0C0F000000F0C80E08100EFE117B
:104F00000F000000B43F0F080F12010C1100000049
:104F1000FCFE0E080F1301071100000018C90E084F
:104F20000F0E010C11000000D03F0F0811130107F4
:104F300010000000E0420D080813000C09000000FA
:104F400058700F080812000D090000006C700F085F
:104F50001C14010B1E000000BC4B0C080B0E020CB5
:104F60000F000000EC3F0F080D0E000C0F000000BA
:104F700008400F080E0E000C1000000024400F081F
:104F80000C0E010C0F00000040400F080C0E010C2D
:104F90000F0000005C400F080F0E000C1100000015
:104FA00078400F080A0E000C0C00000094400F0817
:104FB0000B0E010C0E000000B0400F080D0E010C8E
:104FC00010000000CC400F080F10000A1000000075
:104FD000F01E0F081010000A11000000101F0F082B
:104FE000120E020C1600000028710E081113020C9C
:104FF000150000001C430D080E13000C10000000EB
:1050000040C90E080E13000C1000000068C90E08FD
:105010000B13010C0E00000090C90E08120E000CBC
:105020001400000054710E08130E010C160000004D
:1050300080710E08120E020C15000000AC710E08F3
:105040000C0E010C0F000000E8400F080C0E010CC4
:105050000F00000004410F080B0E020C0F000000AF
:1050600020410F080E0E020C120000003C410F08F8
:105070000B0E010C0E00000058410F080C0E020C24
:105080000F00000074410F080C0E020C100000000D
:1050900090410F080C14020610000000B8C90E0859
:1050A0000B0E020C10000000AC410F080B1402069E
:1050B00010000000E0C90E080E0E000C12000000E7
:1050C000C8410F080E1400061100000008CA0E089F
:1050D0000D0E010C10000000E4410F080B0E020C35
:1050E0000F00000000420F080A0E020C0E00000024
:1050F0001C420F08090E010C0B00000038420F087B
:105100000A11020C0E00000020FF0E080B0E020C0C
:105110000F00000054420F080D11010C1000000098
:1051200044FF0E08090E010C0C00000070420F082D
:105130000D0F010B0F000000301F0F08100E020CA6
:10514000130000008C420F080C0F020B0F00000030
:10515000501F0F080F0E000C11000000A8420F088E
:10516000111300071200000058430D080B0E020C2B
:105170000F000000C4420F080C0F020B0F000000CC
:10518000701F0F080A0E010C0D000000E0420F080E
:10519000080E020C0B000000F4810F080A05F80647
:1051A00000000000208F0F08090E010C0C00000009
:1051B000FC420F080F12FB080C00000068FF0E08ED
:1051C0000A04F307000000003CAD0F080A05F306CF
:1051D000000000002C8F0F080A05F30600000000F5
:1051E000388F0F080A05F30600000000448F0F08EF
:1051F0000304FB1B00000000C4B90F080704F71BE1
:1052000000000000C8B90F080202FC1B00000000EB
:1052100066BC0F080C1602060F000000D8710E08BD
:10522000050E020C0800000004820F080C0E020C90
:105230000F00000018430F080A1401060C000000BC
:1052400030CA0E08091401060B00000058CA0E08E7
:105250000C1400060D00000080CA0E080911010C94
:105260000C0000008CFF0E080911010C0C0000005E
:10527000B0FF0E080807F6040000000044AD0F0858
:105280000104FC0700000000CCB90F080704F70771
:1052900000000000D0B90F080904F7070000000063
:1052A0004CAD0F080303FC0800000000D4B90F0840
:1052B0000705F9060000000054AD0F080404FB08C0
:1052C00000000000D8B90F080507FA01000000002F
:1052D0005CAD0F080C0C010E0F000000A4580F0865
:1052E0000C0B010F0F000000BC580F080D0B010F35
:1052F00010000000D4580F080D0E020C1100000021
:1053000034430F080E0B010F11000000EC580F087A
:10531000110F010B12000000602A0E08110F010B83
:1053200012000000902A0E080E0F000B1000000063
:10533000901F0F08100E010C1300000050430F08BF
:10534000100F010B13000000B01F0F08100E010C0E
:10535000120000006C430F080E0E010C110000003B
:1053600088430F08170C020E1B000000D4FF0E0824
:105370000D0E000C0C000000A4430F08110E000CD1
:105380001200000004720E08140E010C160000003A
:1053900030720E080C0E010C0D000000C0430F0807
:1053A0000A0E010C0C000000DC430F080B0E020C6F
:1053B0000E000000F8430F080C0E010C0E00000058
:1053C00014440F08080E020C0B00000014820F0892
:1053D0000A0E000C0B00000030440F080212020CF1
:1053E0000600000080700F08070E000C0900000086
:1053F00024820F080A0E020C0C0000004C440F0817
:10540000090E010C0B00000068440F080C0E020C82
:105410001000000084440F080A0E020C0E00000069
:10542000A0440F080C0E010C0E000000BC440F0835
:105430000A0E010C0C000000D8440F080E0C010DE0
:105440001000000004590F080E0A010E10000000A1
:1054500094700F08100C000D100000001C590F086C
:10546000150E010C170000005C720E08090E010CED
:105470000B000000F4440F080C07010C0E000000A4
:1054800034820F080C0701130E00000044820F083D
:105490000A0E020C0D00000010450F080B0E000C48
:1054A0000D0000002C450F080B0E000C0D00000035
:1054B00048450F080C0E000C0C00000064450F0856
:1054C0000A0E020C0E00000080450F080D0B020EA4
:1054D0001100000034590F08110B010E14000000D8
:1054E000F8FF0E080E12040A150000001C000F0839
:1054F0000C0E000C0C0000009C450F08130E000C55
:105500001300000088720E08090E010C0B00000049
:10551000B8450F08090E010C0B000000D4450F0818
:105520000B0E010C0D000000F0450F080F0E000CD3
:105530000F0000000C460F08080E020C0A000000C5
:1055400054820F080D0E000C0C00000028460F08B6
:105550000A0E020C0E00000044460F080A0E020C50
:105560000D00000060460F080E0E020C1200000035
:105570007C460F080C0E000C0E00000098460F0829
:105580000B0D00080A000000B4460F08100D0008BB
:1055900010000000D0460F08090D01080A000000A5
:1055A000EC460F080B0D00080A00000008470F0822
:1055B0000A0D01080C00000024470F08080D01081F
:1055C0000A00000064820F08080D01080A000000AC
:1055D00074820F080B0D01080C00000040470F08F3
:1055E0000A0D01080B0000005C470F08060D0108BA
:1055F0000700000084820F08070D00080800000063
:1056000094820F08090D01080A00000078470F086E
:10561000070D010809000000A4820F080B0D010806
:105620000D00000094470F080A0D01080B00000050
:10563000B0470F080A0D01080B000000CC470F0807
:105640000B0D01080D000000E8470F08090D0108C7
:105650000A00000004480F08080D01080A000000B5
:10566000B4820F080A0D01080B00000020480F0843
:105670000A0D01080C0000003C480F080A0D010843
:105680000B00000058480F080F0D00080F00000025
:1056900074480F080809010C09000000508F0F081A
:1056A0000809010C090000005C8F0F080909010CB2
:1056B0000A000000A8700F080F09000C100000007D
:1056C000BC700F08090D01080A00000090480F087F
:1056D000090D01080A000000AC480F080909010C77
:1056E0000A000000D0700F080909000C0A00000031
:1056F000E4700F080709010C09000000688F0F080B
:105700000709010C09000000748F0F08090C010C37
:105710000A0000004C590F08020C010C04000000A4
:10572000808F0F08090D010809000000C8480F0804
:105730000E09000C0E000000F8700F08080C010C98
:105740000A0000008C8F0F080909010C0A000000F4
:105750000C710F080709010C09000000988F0F0851
:105760000905010C0A000000A48F0F0809050110AB
:105770000A000000B08F0F08090C010C0A0000009D
:1057800064590F08060C010907000000BC8F0F08C0
:105790000809010C0A000000C88F0F080908010C55
:1057A0000B000000C4820F080E09000C0E00000060
:1057B00020710F080909000C0800000034710F085F
:1057C0000A09000C0A00000048710F0809100108BE
:1057D0000A000000D01F0F08080D000C0800000090
:1057E000D4820F08090D01080A000000E4480F08E0
:1057F0000C0C010C0D0000007C590F08090C000C6A
:105800000800000094590F08020C01100400000069
:10581000D48F0F080509011306000000E08F0F0860
:10582000080901130A000000EC8F0F080909001392
:10583000080000005C710F080910010F0A00000049
:10584000F01F0F08080C001308000000F88F0F0865
:10585000090C01130A000000AC590F080C0D0112CD
:105860000D00000000490F08090C0013080000009B
:10587000C4590F08130E020C16000000B4720E0873
:105880000F14FE060E000000A8CA0E080F14010631
:105890000E000000D0CA0E080B14FE06080000001F
:1058A000F8CA0E08170EFF0C15000000E0720E0873
:1058B000100EFF0C0E0000001C490F080F13FE0C09
:1058C0000E00000020CB0E080B0EFE0C090000009D
:1058D00038490F080B0EFE0C0900000054490F0850
:1058E000100EFE0C0C00000070490F080A12FE0892
:1058F0000800000040000F080E0EFF0C0B00000017
:105900008C490F080B13020C0E00000048CB0E0848
:10591000090C01070B000000DC590F080B13010CE8
:105920000D00000070CB0E081416000616000000D3
:10593000B0DA0C08090E000C09000000A8490F0895
:10594000090EFF0C06000000C4490F080D13010CDE
:105950000E00000098CB0E080D0E010C0E0000008A
:10596000E0490F08100E000C10000000FC490F0861
:105970000B1902060E000000E4C50D080D19010602
:105980000E00000018C60D080919000608000000E6
:105990004CC60D081213010C0E00000094430D08B4
:1059A0000B1902060C00000080C60D08061900063F
:1059B00006000000184A0F081413010C150000001F
:1059C000D0430D080C13020C0E000000C0CB0E08D3
:1059D0000B13020C0E000000E8CB0E080913000C9C
:1059E0000900000010CC0E080C13010C0B00000085
:1059F00038CC0E080E1901060E000000B4C60D08C2
:105A00000D13000C0D00000060CC0E080C13000CF0
:105A10000C00000088CC0E080913010C0B000000DC
:105A2000B0CC0E080E13010C0D000000D8CC0E08EF
:105A30000F13010C0E00000000CD0E081019010616
:105A40000E000000E8C60D080F13010C0D00000049
:105A500028CD0E080E13010C0B00000050CD0E08CF
:105A60000A13000C0B00000078CD0E08130E010C79
:105A70000D0000000C730E08081802070600000055
:105A8000F4590F080A13010C0C000000A0CD0E08F9
:105A90000C1901060E0000001CC70D080E13020CA5
:105AA0000E000000C8CD0E080A13000C0B00000009
:105AB000F0CD0E080809010C0A00000004900F0840
:105AC0000709010C0900000010900F080809000CDC
:105AD000090000001C900F08080D01080A000000D2
