:020000040800F2
:10000000F897002079890F0861FC0A087BFC0A0830
:1000100095FC0A08AFFC0A08C9FC0A0800000000A9
:100020000000000000000000000000001588030828
:10003000E3FC0A0800000000B9870308FDFC0A0879
:1000400065BB0F0869BB0F086DBB0F0871BB0F08BC
:1000500075BB0F0879BB0F087DBB0F0881BB0F086C
:1000600085BB0F0889BB0F088DBB0F0891BB0F081C
:1000700055FD0A0827FD0A0851FD0A082BFD0A084C
:1000800095BB0F0899BB0F089DBB0F08A1BB0F08BC
:10009000A5BB0F08A9BB0F08ADBB0F0885FD0A085B
:1000A000B1BB0F08B5BB0F08B9BB0F08BDBB0F082C
:1000B000C1BB0F08C5BB0F08C9BB0F08CDBB0F08DC
:1000C000D1BB0F08D5BB0F08D9BB0F08DDBB0F088C
:1000D000E1BB0F0817FD0A08E5BB0F08E9BB0F08D5
:1000E000EDBB0F08F1BB0F08F5BB0F08F9BB0F08FC
:1000F000FDBB0F0801BC0F0805BC0F0809BC0F08A9
:1001000059FD0A080DBC0F0811BC0F0815BC0F08DB
:1001100023FD0A0819BC0F0813FD0A081DBC0F08AF
:1001200021BC0F0825BC0F081BFD0A0829BC0F08BD
:100130002DBC0F0831BC0F0835BC0F0839BC0F08A7
:100140003DBC0F0841BC0F0845BC0F0849BC0F0857
:100150004DBC0F0851BC0F081FFD0A0855BC0F0805
:100160007DFD0A0881FD0A0859BC0F085DBC0F0817
:1001700061BC0F0865BC0F0869BC0F0800000000D7
:100180006DBC0F0871BC0F082FFD0A0875BC0F0865
:1001900079BC0F087DBC0F0881BC0F0885BC0F0817
:1001A0005DFD0A0863FD0A0889BC0F088DBC0F08B5
:1001B00091BC0F0895BC0F0899BC0F089DBC0F0897
:1001C000A1BC0F08A5BC0F080101001A080000001F
:1001D000C2BD0F080213030708000000F46B0F08EC
:1001E000070701060A00000048A90F0810130107BD
:1001F00012000000A48E0E080C1701070E0000006C
:10020000B4150E081613010718000000CC2F0D08B6
:10021000111301071100000008300D080207010644
:100220000500000050A90F08071901060A00000088
:1002300098300F08071902060A000000B4300F08B2
:100240000C0B01060E00000020550F080E0E020BCD
:1002500012000000D0300F08050801170800000048
:1002600058A90F08070201110900000040BD0F083E
:100270000303021708000000B0B90F0809180006B0
:100280000A000000E4150E080C1301070E00000020
:10029000CC8E0E08081303070E000000086C0F0830
:1002A0000B1301070E000000F48E0E080B1301075C
:1002B0000E0000001C8F0E080C1300070E0000003B
:1002C000448F0E080B1302070E0000006C8F0E08FF
:1002D0000C1301070E000000948F0E080C13010789
:1002E0000E000000BC8F0E080C1301070E0000006A
:1002F000E48F0E080C1301070E0000000C900E088E
:10030000030E030C0900000048800F080513020CBF
:10031000090000001C6C0F080D0E020B12000000FB
:10032000EC300F080E07020E1200000058800F0874
:100330000D0E030B1200000008310F080A1301070D
:100340000C00000034900E0814160207170000007D
:1003500094D80C080F1300070F0000005C900E08E3
:100360000C1302070F00000084900E080D13010704
:100370000F000000AC900E080E13020711000000E1
:10038000D4900E080B1302070E000000FC900E081C
:100390000B1302070D00000024910E080F13010734
:1003A000110000004C910E080D130207110000000F
:1003B00074910E080613010709000000306C0F0845
:1003C000081300070A000000446C0F080D13020711
:1003D0000F0000009C910E080A1302070C00000099
:1003E000C4910E080F13020713000000EC910E08D1
:1003F0000D1302071100000014920E0810130107DC
:10040000120000003C920E080C1302070E000000C0
:1004100064920E08101801071200000014160E084E
:100420000E130207100000008C920E080C13010737
:100430000E000000B4920E081013FF070F0000001A
:10044000DC920E080C1302071000000004930E0843
:100450000F1300070F0000002C930E08171300075E
:100460001700000044300D080F1300070F000000B4
:1004700054930E080E1300070E0000007C930E0824
:100480000C1301070E000000A4930E0806190206C3
:100490000A00000024310F08091801060A000000B4
:1004A00044160E08061901060A00000040310F0824
:1004B0000F0A020712000000586C0F080E02001C01
:1004C0000E000000B4B90F08050503050E0000007A
:1004D00060A90F080A0E010C0D0000005C310F0826
:1004E0000B1402060E000000CC930E080A0E010C3D
:1004F0000C00000078310F080B1401060E000000FC
:10050000F4930E080B0E010C0D00000094310F083F
:1005100009140006080000001C940E080B13010CBF
:100520000E00000044940E080A1402060E0000009B
:100530006C940E0802130207060000006C6C0F0892
:100540000618FF070700000038550F080B140206B5
:100550000C00000094940E0802140206060000002D
:10056000806C0F08120E010C15000000AC5F0E0825
:100570000A0E020C0E000000B0310F080C0E010C28
:100580000E000000CC310F080B13020C0E0000000F
:10059000BC940E080B13010C0E000000E4940E082E
:1005A000070E020C0900000068800F080A0E010CFB
:1005B0000B000000E8310F080812000808000000D6
:1005C000946C0F080A0E020C0E00000004320F0893
:1005D0000C0E000C0C00000020320F08130E000C53
:1005E00013000000D85F0E080C0E000C0C00000079
:1005F0003C320F080C13000C0C0000000C950E0888
:10060000090E010C0B00000058320F080A190106F0
:100610000C000000C0AB0D08021904060A0000001F
:1006200074320F080A1901060C000000F4AB0D0823
:100630000E06020F12000000608E0F080101001A62
:1006400008000000C3BD0F080213030708000000E4
:10065000A86C0F080B1601080E00000004600E08BD
:100660000B1301070E00000034950E080C0C010C52
:100670000E00000050550F080E1300070E0000007A
:100680005C950E08021904060A00000090320F085B
:100690000B1801070E00000074160E08070203086D
:1006A0000E00000042BD0F081515010717000000DD
:1006B00090FE0C08090C01070C00000068550F089B
:1006C0000B0C010C0E00000080550F080E090211E2
:1006D00012000000BC6C0F080702011109000000A5
:1006E00044BD0F081515010717000000D0FE0C08C7
:1006F0000E0200040E000000B8B90F080909010736
:100700000C000000D06C0F080E0F02091200000050
:10071000041C0F08090B02070C00000098550F0875
:10072000080B02070C0000006C8E0F08050505057C
:100730000E00000068A90F080A13020C0E0000004A
:1007400084950E080B1701070E000000A4160E0872
:100750000303030C09000000BCB90F080605041AC6
:100760000E00000070A90F08060B04070C00000023
:10077000788E0F080A0C01070C000000B0550F0816
:100780000B0C020C0E000000C8550F0814130207D2
:100790001900000080300D08161302071900000030
:1007A000BC300D081513020719000000F8300D08C1
:1007B0000A1301070C000000AC950E080F19000188
:1007C0000F00000028AC0D080F1900010F000000F9
:1007D0005CAC0D080F1900010F00000090AC0D0873
:1007E0000F1800020F000000D4160E080F160004A8
:1007F0000F00000030600E080F1900010F0000000C
:10080000C4AC0D08161300071700000034310D08A2
:100810000D1801070F00000004170E080B19020144
:100820000E000000F8AC0D080B1902010E000000CC
:100830002CAD0D080B1902010E00000060AD0D0873
:100840000B1702030E00000034170E0806190101F1
:1008500009000000AC320F08061901010900000070
:10086000C8320F080819000109000000E4320F081F
:100870000617010309000000E0550F0810130007D8
:1008800011000000D4950E080D180202110000009E
:1008900064170E08101901011200000094AD0D0834
:1008A0001019010112000000C8AD0D081019010156
:1008B00012000000FCAD0D0810180102120000002B
:1008C00094170E081017010312000000C4170E0839
:1008D0000D0D030C1200000000330F081015010667
:1008E000120000005C600E080C19020110000000EC
:1008F00030AE0D080C1902011000000064AE0D08A6
:100900000C1902011000000098AE0D080C1702032C
:1009100010000000F4170E080E1900010E00000070
:10092000CCAE0D080A1302070E000000FC950E085D
:100930000B1402060E00000024960E080A1501058D
:100940000D00000088600E080A1501050D0000006A
:10095000B4600E080A1501050D000000E0600E08E5
:100960000A1401060D0000004C960E080A12010838
:100970000D000000ACF40E080A1501050D00000082
:100980000C610E08140E010C1600000038610E08F0
:100990000A13010C0C00000074960E080B150105DB
:1009A0000D00000064610E080B1501050D0000002C
:1009B00090610E080B1501050D000000BC610E08CA
:1009C0000B1201080D000000D0F40E0805150005FB
:1009D00006000000F8550F08051502050600000086
:1009E00010560F08061500050600000028560F08CF
:1009F0000613000706000000E46C0F080C13010743
:100A00000E0000009C960E080A1402060E0000005C
:100A1000C4960E080C1501050E000000E8610E08D2
:100A20000C1501050E00000014620E080C150105DE
:100A30000E00000040620E080C1401060E000000BB
:100A4000EC960E080C1201080E000000F4F40E08DB
:100A50000F0E020B120000001C330F080C10010BCC
:100A60000E000000241C0F080A1502050E000000ED
:100A70006C620E080A1502050E00000098620E084E
:100A80000A1502050E000000C4620E080A120208D0
:100A90000E00000018F50E080C1A00050C000000EE
:100AA00000AF0D080B1902060E00000034AF0D0850
:100AB0000C1700080C00000024180E080F17000384
:100AC0000F00000054180E080A1301070D00000063
:100AD00014970E080F1900010F00000068AF0D08F1
:100AE0000A1401060D0000003C970E0810180007BC
:100AF0000F00000084180E080B13010C0D000000FD
:100B000064970E080D1901010F0000009CAF0D083D
:100B10000A1501050C000000F0620E080D19010114
:100B20000F000000D0AF0D080A1501050C000000F1
:100B30001C630E080D1701030F000000B4180E0807
:100B40000A1201080C0000003CF50E080D19010105
:100B50000F00000004B00D080A1501050C0000008C
:100B600048630E080E1902011100000038B00D088C
:100B700010140106110000008C970E0810130007D6
:100B800011000000B4970E080D1401060E000000BD
:100B9000DC970E080B1702030E000000E4180E0885
:100BA0000B1301070D00000004980E080B19020139
:100BB0000E0000006CB00D080B1401060D000000C3
:100BC0002C980E080B1702030E00000014190E08D3
:100BD0000B1201080D00000060F50E080B1802074B
:100BE0000E00000044190E080B13010C0D0000004C
:100BF00054980E080B1902010E000000A0B00D0859
:100C00000B1501050D00000074630E080F1901019A
:100C100011000000D4B00D080B1A01050E000000F1
:100C200008B10D080F190101110000003CB10D08B9
:100C30000B1901060E00000070B10D080F1701031B
:100C40001100000074190E080B1701080E000000B7
:100C5000A4190E080F18010711000000D4190E087E
:100C60000B1A01050E000000A4B10D080D190201B8
:100C700011000000D8B10D080A1902010E00000091
:100C80000CB20D08121300071200000070310D089D
:100C90000C1400060E0000007C980E0808190001D4
:100CA0000900000038330F08061400060600000093
:100CB000F86C0F08081800020900000040560F08E1
:100CC00006130007060000000C6D0F08061901014D
:100CD0000900000054330F08061400060600000047
:100CE000206D0F08061801070900000058560F086C
:100CF000041801070600000070560F0806170103CC
:100D00000900000088560F08020E020C06000000C1
:100D100078800F080F13010712000000A4980E0836
:100D2000091802070D000000041A0E080919000135
:100D30000A00000040B20D08081AFF050700000075
:100D400070330F080D1802070F000000341A0E0848
:100D50000B1902060C00000074B20D080B0E020CF9
:100D60000C0000008C330F080A1902010C0000006F
:100D7000A8B20D080519020106000000A8330F08EB
:100D80000A1802070C000000641A0E080519010673
:100D900006000000C4330F080A1402060C0000000D
:100DA000CC980E080814020609000000346D0F08E4
:100DB0000A1302070C000000F4980E08081402063B
:100DC0000B000000486D0F080D1300070D00000018
:100DD0001C990E0806140006070000005C6D0F0841
:100DE0000D19020111000000DCB20D080A15020500
:100DF0000E000000A0630E080D180207110000008D
:100E0000941A0E080A13020C0E00000044990E08F2
:100E10000D1902011100000010B30D080A1502059A
:100E20000E000000CC630E081014FF061100000035
:100E30006C990E080D18020711000000C41A0E0864
:100E40000A13020C0E00000094990E0810170103FB
:100E500012000000F41A0E080C1301070E00000027
:100E6000BC990E08101901011200000044B30D08CE
:100E70000C1401060E000000E4990E08101901017F
:100E80001200000078B30D080C1501050E000000DB
:100E9000F8630E081613010718000000AC310D08A6
:100EA000150E010C1700000024640E080E19020133
:100EB00010000000ACB30D08071502050900000082
:100EC000A0560F080E18020710000000241B0E0881
:100ED0000813010C09000000706D0F080E190201C3
:100EE00010000000E0B30D0808150205090000001D
:100EF000B8560F080C1901010E00000014B40D08BB
:100F00000A1501050B00000050640E080C190101C0
:100F10000E00000048B40D080A1501050B00000082
:100F20007C640E080C1801070E000000541B0E080C
:100F30000A13010C0B0000000C9A0E080C19010199
:100F40000E0000007CB40D080A1501050B0000001E
:100F5000A8640E081018FF070F000000841B0E087D
:100F60000817000808000000D0560F081019FF01EC
:100F70000F000000B0B40D080C1400060C000000B7
:100F8000349A0E081013FF070F0000005C9A0E0839
:100F90000812000808000000846D0F080C180202F7
:100FA00010000000B41B0E080A1402060E00000018
:100FB000849A0E080C17020310000000E41B0E08B0
:100FC0000A1302070E000000AC9A0E080C19020169
:100FD00010000000E4B40D080A1402060E00000020
:100FE000D49A0E080C1902011000000018B50D0863
:100FF0000A1502050E000000D4640E080D19020146
:10100000100000004CB50D080A1502050E00000086
:1010100000650E080C18020710000000141C0E08D2
:101020000B13020C0E000000FC9A0E0817190001A9
:1010300017000000F05E0C081315000513000000F7
:1010400010FF0C080E1900010E00000080B50D08FD
:101050000C1A00050C000000B4B50D080E170003B3
:101060000E000000441C0E080C1901010E000000C7
:10107000E8B50D08091501050B0000002C650E08E8
:101080000C1701030E000000741C0E080912010861
:101090000B00000084F50E080C1901010E00000081
:1010A0001CB60D08091501050B00000058650E0857
:1010B0000614020606000000986D0F080D140006C5
:1010C0000E000000249B0E08101300071100000002
:1010D0004C9B0E080C1302070F000000749B0E08B7
:1010E0000B1402060E0000009C9B0E080F13000755
:1010F0000F000000C49B0E080D1400060E00000037
:10110000EC9B0E080D1301070F000000149C0E0845
:10111000111501050F00000050FF0C080E11010908
:101120000C000000A8F50E081013000711000000C5
:101130003C9C0E081213000713000000E8310D0854
:101140000C1301070F000000649C0E080B1401062D
:101150000E0000008C9C0E080C13010C0E00000009
:10116000B49C0E080B1301070E000000DC9C0E0857
:101170001013010712000000049D0E080C13010754
:101180000D0000002C9D0E080F18FE070D0000003A
:10119000A41C0E080E1500070E00000084650E0842
:1011A000131501051100000090FF0C080F1800072F
:1011B0000F000000D41C0E081214020616000000D6
:1011C00024320D080214020606000000AC6D0F0860
:1011D0000813000709000000C06D0F080D13020777
:1011E0000F000000549D0E080B1402060C000000B6
:1011F0007C9D0E080614000607000000D46D0F0841
:101200000C1400060C000000A49D0E081213020727
:101210001600000060320D081118FE0711000000D2
:1012200054970C080A13020C0E000000CC9D0E0807
:101230001013010712000000F49D0E08121301079D
:10124000130000009C320D080D1101090E00000072
:10125000CCF50E0815180107170000009C970C0824
:101260000E13010C110000001C9E0E081013000745
:1012700010000000449E0E080B1902060E0000002C
:1012800050B60D080D1502070E000000B0650E08DF
:101290000C1301070E0000006C9E0E080A0E000CD5
:1012A0000B000000E0330F080D1301070E000000D3
:1012B000949E0E080D1900060E00000084B60D085D
:1012C0000817000808000000E8560F080F13000771
:1012D0000F000000BC9E0E08081400060800000065
:1012E000E86D0F080E1800070F000000041D0E081F
:1012F0001116020412000000D8D80C080E110209C1
:101300000F000000F0F50E08111301071200000095
:10131000D8320D080C13020710000000E49E0E08DE
:10132000111300071100000014330D0811180007F5
:101330000C000000E4970C080C1301070E000000DD
:101340000C9F0E08090E010C0B000000FC330F0867
:101350000C1800070D000000341D0E080C180107C2
:101360000D000000641D0E080A13010C0B000000A4
:10137000349F0E080913010C0B0000005C9F0E083F
:101380000B1301070E000000849F0E080C130107C9
:101390000E000000AC9F0E080A0E000C0B000000AF
:1013A00018340F080B1200080C00000014F60E0889
:1013B0000B13020C0E000000D49F0E080219040645
:1013C0000A00000034340F08061902060A00000063
:1013D00050340F080E19020612000000B8B60D08AE
:1013E0000213030708000000FC6D0F081C1902011E
:1013F0001F00000004940B08191502051C000000D2
:10140000282C0C081715010519000000D0FF0C0846
:10141000141302071800000050330D0811180207BA
:10142000150000002C980C08081902060C0000009A
:101430006C340F08171302071B0000008C330D08D3
:10144000131802071700000074980C0811180207FF
:1014500015000000BC980C080F1900010F000000D7
:10146000ECB60D080A1501050D000000DC650E083C
:10147000081900010900000088340F080815FF054D
:101480000600000000570F081019010112000000AB
:1014900020B70D080C1501050E00000008660E08A7
:1014A0000C1902011000000054B70D080A150205BE
:1014B0000E00000034660E080C1902011000000036
:1014C00088B70D080A1602040E00000060660E08B8
:1014D0000C19020110000000BCB70D080A16020426
:1014E0000E0000008C660E080C19020110000000AE
:1014F000F0B70D080A1802020E000000941D0E0835
:101500000C1902011000000024B80D080A1602048C
:101510000E000000B8660E080B0E010C0D00000056
:10152000A4340F080F1900010F00000058B80D086F
:101530000A1601040D000000E4660E080F190001F0
:101540000F0000008CB80D080A1601040D00000001
:1015500010670E08161700031700000004990C0806
:101560001413010716000000C8330D0810130107FB
:1015700011000000FC9F0E080C13010C0E0000006F
:1015800024A00E080F19010111000000C0B80D08B9
:101590000B1A01050E000000F4B80D080D19020128
:1015A0000F00000028B90D080B1902010C00000003
:1015B0005CB90D081018010712000000C41D0E08C8
:1015C0000C13010C0E0000004CA00E08101C0103AF
:1015D00012000000DC780D080C1801070E00000056
:1015E000F41D0E080C1E00010D00000004340D084F
:1015F0000A1A00050B00000090B90D08081AFF0533
:1016000007000000C0340F081C1302071F00000071
:101610003C5F0C08191302071C000000885F0C08CF
:10162000171401061900000040340D080F190101BC
:1016300011000000C4B90D080B1A01050E000000CE
:10164000F8B90D0815130207190000007C340D08C5
:101650000B1802070E000000241E0E080D190201CF
:10166000110000002CBA0D080A1502050E0000003A
:101670003C670E080F1900010F00000060BA0D084A
:101680000A1701030D000000541E0E081619000170
:1016900017000000D45F0C081415010516000000A7
:1016A00010000D08101A01011200000094BA0D0874
:1016B0000C1601050E00000068670E080F190001E6
:1016C0000F000000C8BA0D080B1500050D00000042
:1016D00094670E080F1900010F000000FCBA0D08F6
:1016E0000A1401060D00000074A00E080B19020177
:1016F0000E00000030BB0D080B1501050D000000A9
:10170000C0670E080B1902010E00000064BB0D0833
:101710000B1401060D0000009CA00E080A19FE0122
:101720000900000098BB0D080A15FD050600000021
:10173000EC670E080819000109000000DC340F08EE
:101740000814FF0606000000106E0F0810190101B2
:1017500012000000CCBB0D080C1501050E000000A6
:1017600018680E08101901011200000000BC0D08D5
:101770000C1401060E000000C4A00E080F19010190
:101780001000000034BC0D080A1500050900000017
:1017900044680E080E1902011000000068BC0D0814
:1017A0000814020609000000246E0F080C1902013B
:1017B000100000009CBC0D080B1501050E00000078
:1017C00070680E080C19020110000000D0BC0D0852
:1017D0000A1402060E000000ECA00E080C18010707
:1017E0000E000000841E0E080A13010C0B000000FE
:1017F00014A10E081018FF070F000000B41E0E08F9
:10180000081700080800000018570F080B180107F8
:101810000D000000E41E0E080A13000C0B0000006F
:101820003CA10E080D1902011100000004BD0D08B5
:101830000A1902010E00000038BD0D080D1802073C
:1018400010000000141F0E081219010613000000FA
:1018500020600C080D1301070F00000064A10E08A2
:101860000B1301070D0000008CA10E080D160107D7
:101870000E0000009C680E080A11010C0B0000000D
:1018800038F60E080F1700030F000000441F0E0863
:101890000A1201080D0000005CF60E080B18020782
:1018A0000E000000741F0E080B13010C0D00000049
:1018B000B4A10E0810190101120000006CBD0D0842
:1018C0000C1601040E000000C8680E081019010172
:1018D00012000000A0BD0D080C1701030E0000004F
:1018E000A41F0E081017010312000000D41F0E08D9
:1018F0000C1201080E00000080F60E0810190101FC
:1019000012000000D4BD0D080C1601040E000000EA
:10191000F4680E080E1700030E00000004200E08E5
:101920000C1800070C00000034200E080A190106EC
:101930000B00000008BE0D081113020C130000007C
:10194000B8340D080B1200080B000000A4F60E08B6
:101950000613FF0C07000000386E0F081414010670
:1019600016000000F4340D081413010C16000000DA
:1019700030350D08101600060F00000020690E0813
:10198000101601060F0000004C690E080C13010927
:101990000C000000DCA10E080D13FF070C00000076
:1019A00004A20E081116FF060F0000001CD90C0837
:1019B0000A13010C0B0000002CA20E080913010CE5
:1019C0000B00000054A20E080D1400060E000000CB
:1019D0007CA20E080B1200070C000000C8F60E08CF
:1019E0000D1301070F000000A4A20E080E1301073B
:1019F00010000000CCA20E080F1300070F0000001B
:101A0000F4A20E080B1802050E00000064200E0858
:101A10000B1801070D00000094200E0809130007A1
:101A20000A0000001CA30E080718FF0707000000AB
:101A300030570F0813180107120000004C990C08CA
:101A40000F13010C0E00000044A30E080F13010732
:101A5000100000006CA30E08080E010C0900000025
:101A600088800F080E1300070E00000094A30E08D4
:101A70000C13000C0C000000BCA30E080A0E020C94
:101A80000D000000F8340F080B0E010C0E000000D2
:101A900014350F080B0E020C0E00000030350F0835
:101AA0000B1402060E000000E4A30E080A0E010C3F
:101AB0000C0000004C350F080B0E000C0C00000051
:101AC00068350F08101901060E0000003CBE0D0815
:101AD000101401060E0000000CA40E080B0E010CE1
:101AE0000D00000084350F080B0E010C0D000000E6
:101AF000A0350F08110E010C1200000078690E08C5
:101B00000A0E010C0B000000BC350F080A0E000C79
:101B10000B000000D8350F08100E000C100000005C
:101B2000F4350F080B0E010C0D00000010360F08E5
:101B30000913FF0C0800000034A40E081019010658
:101B40000E00000070BE0D080B13010C0E0000000B
:101B50005CA40E080B0E010C0D0000002C360F08C3
:101B60000C13000C0C00000084A40E080F0E000CD7
:101B70000F00000048360F080A13020C0E00000088
:101B8000ACA40E080A1402060E000000D4A40E082D
:101B90000A1902060E000000A4BE0D080613000775
:101BA000060000004C6E0F08020E020C060000003A
:101BB00098800F08060E010C09000000A8800F088D
:101BC0000A1400060A000000FCA40E080714000610
:101BD00007000000606E0F080619020606000000EC
:101BE00064360F080B1902060E000000D8BE0D085F
:101BF000120E010C15000000A4690E081213010C4E
:101C0000150000006C350D081213010C15000000C2
:101C1000A8350D080F13FD0C0E00000024A50E08BA
:101C20000E13020C0E0000004CA50E080A0E020C4A
:101C30000E00000080360F080C0E010C0E00000094
:101C40009C360F08110E010C14000000D0690E081C
:101C5000100E010C12000000B8360F080C19010616
:101C60000E0000000CBF0D08070E000C090000005C
:101C7000B8800F080714000609000000746E0F08F2
:101C80000C13000C0900000074A50E080713020CC9
:101C900009000000886E0F080713020C09000000FD
:101CA0009C6E0F08070E020C09000000C8800F0888
:101CB0000713000C09000000B06E0F080B0E020C99
:101CC0000D000000D4360F080B0E020C0D000000B2
:101CD000F0360F080A13010C0B0000009CA50E083B
:101CE0000C1901060E00000040BF0D080C19FF067C
:101CF0000800000074BF0D080C13010C0E0000005A
:101D0000C4A50E080D1900060E000000A8BF0D089E
:101D10000812000808000000C46E0F080817000829
:101D20000800000048570F080E0E000C0E000000BF
:101D30000C370F080C0E020C1000000028370F089B
:101D40000A0E020C0E00000044370F080C0E000CA7
:101D50000C00000060370F08130E000C1300000089
:101D6000FC690E080C1300070C000000ECA50E081F
:101D70000B0E000C0B0000007C370F080E13010C3B
:101D80000B00000014A60E080D10010C0E00000040
:101D9000441C0F080A13000C0B0000003CA60E08A0
:101DA0000B13000C0B00000064A60E080B140006B9
:101DB0000C0000008CA60E080B1401060C0000009D
:101DC000B4A60E080B1400060C000000DCA60E08DA
:101DD0000B13010C0C00000004A70E0810130107E0
:101DE000120000002CA70E080A0E020C0D000000C5
:101DF00098370F080B0E010C0D000000B4370F08C8
:101E00000F1101090D000000ECF60E080A0E020C7D
:101E10000E000000D0370F080A1800070A00000063
:101E2000C4200E080B13FF0C0C00000054A70E0872
:101E3000080E020C0A000000D8800F0810190106D5
:101E40000E000000DCBF0D080B1400060C000000A3
:101E50007CA70E080B1401060C000000A4A70E08B6
:101E60001414010616000000E4350D0814190106CB
:101E7000160000006C600C0818160106190000001E
:101E800060D90C08111200081100000014790D0827
:101E90000F1900060E00000010C00D0811120008F6
:101EA000120000004C790D08121900061400000001
:101EB000B8600C080E14020610000000CCA70E0833
:101EC0000B1402060E000000F4A70E080B13010706
:101ED0000C0000001CA80E080A1202080E000000E8
:101EE00010F70E080F13000C1100000044A80E0894
:101EF0001313000C1300000020360D08080D010814
:101F00000A000000E8800F08080D01080A00000020
:101F1000F8800F08051000080600000008810F086F
:101F20000509010C06000000848E0F080509000C4D
:101F300006000000908E0F08080C000C0600000040
:101F40009C8E0F080809010C09000000A88E0F08DC
:101F50000C09000C0C000000D86E0F08090C000CD6
:101F60000900000060570F0805080207070000007D
:101F700078A90F080A0801070C00000018810F0853
:101F80000507FF060500000080A90F0805070106E8
:101F90000500000088A90F080507FF0605000000DE
:101FA00090A90F08040705050E00000098A90F0866
:101FB000040705050E000000A0A90F08070D010881
:101FC0000900000028810F08070D01080900000022
:101FD00038810F080D0E020B12000000EC370F08BD
:101FE0000D0E030B1200000008380F080E0D020C36
:101FF0001200000024380F080E0D020C1200000021
:1020000040380F08080503050E000000A8A90F08B6
:10201000080503050E000000B0A90F08020506051B
:102020000E000000B8A90F08090202070E00000008
:10203000C0B90F08050505050E000000C0A90F086E
:10204000050503050E000000C8A90F080204061BC1
:102050000E000000C4B90F080902021D0E000000A6
:10206000C8B90F080505031A0E000000D0A90F0813
:102070000505061A0E000000D8A90F08030E030C70
:102080000900000048810F08030303110900000044
:10209000CCB90F080407050F0E000000E0A90F08D7
:1020A0000407050F0E000000E8A90F08060401143C
:1020B00008000000D0B90F08060401140800000051
:1020C000D4B90F080604011408000000D8B90F089D
:1020D000090202140E000000DCB90F08080503060F
:1020E0000E000000F0A90F08020206080E00000012
:1020F00046BD0F08070703050E000000F8A90F08EA
:102100000405041A0E00000000AA0F080A040206C3
:102110000E00000008AA0F080A0503050E000000C3
:10212000B48E0F08070500110800000010AA0F0860
:10213000080801070A00000018AA0F08080C000C84
:1021400008000000C08E0F08020D01080400000006
:1021500058810F080709010C09000000CC8E0F08F8
:102160000709000C08000000D88E0F08070D0108B1
:102170000900000068810F08061202080A0000002A
:10218000EC6E0F08061202080A000000006F0F082C
:10219000061202080A000000146F0F080612020857
:1021A0000A000000286F0F08061202080A0000004B
:1021B0003C6F0F08060B010F08000000E48E0F08AB
:1021C000060B010F08000000F08E0F080805031A27
:1021D0000E00000020AA0F08070303070E000000EE
:1021E000E0B90F080A0701060A00000078810F080D
:1021F0000503041B0E000000E4B90F080503041BCF
:102200000E000000E8B90F080305051A0E000000D3
:1022100028AA0F080305051A0E00000030AA0F08AF
:102220000404051B0E000000ECB90F08050503119E
:102230000E00000038AA0F080A0501110E00000068
:10224000FC8E0F080A0503110E000000088F0F080E
:102250000A04021B0E00000040AA0F08030D03072A
:102260000900000088810F08050504070E00000022
:1022700048AA0F08050505070E00000050AA0F0820
:10228000050504150E00000058AA0F0805050515E0
:102290000E00000060AA0F080905021A0E000000D7
:1022A000148F0F080905021A0E000000208F0F0876
:1022B000060701180800000068AA0F080505F705C1
:1022C0000000000070AA0F080505F80500000000D6
:1022D00078AA0F080805FC050000000080AA0F0876
:1022E0000A04F4010000000088AA0F080902FB0795
:1022F00000000000F0B90F080E02F9040000000011
:10230000F4B90F080805FC060000000090AA0F08A9
:102310000202FF080000000048BD0F080802FC0888
:10232000000000004ABD0F0804050505000000007C
:1023300098AA0F080707FC0500000000A0AA0F08D4
:102340000A05FB05000000002C8F0F080805FC059E
:1023500000000000A8AA0F080205FF050000000009
:10236000B0AA0F080505FE0500000000B8AA0F0876
:102370000A05FB0500000000388F0F080807FC0461
:1023800000000000C0AA0F080805FC0600000000BD
:10239000C8AA0F080205FF0600000000D0AA0F0817
:1023A0000205FF0600000000D8AA0F080205FF067C
:1023B00000000000E0AA0F0802050106000000006E
:1023C000E8AA0F080505FD1A00000000F0AA0F0892
:1023D0000505FD1A00000000F8AA0F080504FE1B01
:1023E00000000000F8B90F080504FE1B0000000003
:1023F000FCB90F080906FB0400000000448F0F0819
:10240000040600030000000000AB0F080204FF1BDD
:102410000000000000BA0F080604FD1B00000000C9
:1024200004BA0F080604FD1B0000000008BA0F08DC
:102430000604FD1B000000000CBA0F080902FB1D7A
:102440000000000010BA0F080607FC18000000008A
:1024500008AB0F08060700180000000010AB0F08BB
:102460000202061C000000004CBD0F080802FC1D03
:10247000000000004EBD0F080404FE1B0000000019
:1024800014BA0F080204FF1B0000000018BA0F085E
:102490000605FD1A0000000018AB0F080405FE1A1F
:1024A0000000000020AB0F080204FF1B000000002A
:1024B0001CBA0F080904FB1B0000000028AB0F0822
:1024C0000903FC1C0000000030AB0F080804FC1BD3
:1024D0000000000020BA0F080804FC1B00000000E8
:1024E00024BA0F080804FC1B0000000028BA0F08DB
:1024F0000804FC1B000000002CBA0F080A04FB1B98
:102500000000000038AB0F080902FB1D00000000AE
:1025100030BA0F080E02F91C0000000034BA0F0890
:102520000A04FB1B0000000040AB0F080A04FB0E6E
:102530000000000048AB0F080902FB10000000007B
:1025400038BA0F080E02F910000000003CBA0F085C
:102550000A09FB0D00000000506F0F080918FB0668
:1025600000000000F4200E080204FF1B0000000021
:1025700040BA0F080904FB1B0000000050AB0F0815
:102580000404FE1B0000000044BA0F080903FC1CF1
:102590000000000058AB0F080606FD030000000015
:1025A00060AB0F080206FF040000000068AB0F08D4
:1025B0000E05F90100000000508F0F080A04FB0609
:1025C0000000000070AB0F080205FF0600000000CD
:1025D00078AB0F080905FC05000000005C8F0F08B0
:1025E0000304FE1B0000000048BA0F080904FB05A5
:1025F0000000000080AB0F080E04F91B0000000073
:1026000088AB0F080504FE1B000000004CBA0F0841
:102610000504FE1B0000000050BA0F080A06FB0567
:1026200000000000688F0F080A08FB03000000008C
:1026300098810F080A06FB0400000000748F0F0841
:102640000604FD1B0000000054BA0F080604FD1B21
:102650000000000058BA0F081211F709000000002E
:1026600044C00D080305FD050000000090AB0F08F5
:102670000407FE050000000098AB0F080807FC04E3
:1026800000000000A0AB0F080505FD1A00000000C7
:10269000A8AB0F080305FF1A00000000B0AB0F083D
:1026A0000305FE1A00000000B8AB0F080805FD1A6C
:1026B00000000000C0AB0F080407FE05000000008A
:1026C000C8AB0F08020206080000000050BD0F084A
:1026D0000504FE1B000000005CBA0F080704FD1B88
:1026E0000000000060BA0F080405FE0600000000AC
:1026F000D0AB0F081305F61A00000000A8810F08E0
:102700001305FE0600000000B8810F081302FE0644
:1027100000000000D8AB0F081302FE1D00000000EF
:10272000E0AB0F081304FE0600000000808F0F08C6
:102730001305FE0600000000C8810F080E04FE1BF2
:1027400000000000E8AB0F080507FD0400000000D2
:10275000F0AB0F080607FD0400000000F8AB0F08FF
:102760000109FF02000000008C8F0F080607FD041E
:102770000000000000AC0F080507FD040000000089
:1027800008AC0F080507FD040000000010AC0F089E
:10279000060AFD0100000000988F0F08050AFD01E0
:1027A00000000000A48F0F080907FB0400000000D0
:1027B000D8810F080307FE040000000018AC0F08C2
:1027C0000409FE0200000000B08F0F080507FD0499
:1027D0000000000020AC0F080507FD040000000009
:1027E00028AC0F08040505050E00000030AC0F08EA
:1027F0000404051B0E00000064BA0F080304051B47
:102800000E00000068BA0F080A0E010C0C00000050
:102810005C380F080A0E010C0C00000078380F0815
:102820000A0E010C0C00000094380F080513020C6E
:1028300009000000646F0F08030505050E00000085
:1028400038AC0F08090502050E000000BC8F0F0808
:102850000F1300070F0000006CA80E080303030C01
:10286000090000006CBA0F081013000711000000E7
:1028700094A80E0812130007140000005C360D081F
:102880000A1300070C000000BCA80E081313000771
:102890001400000098360D08121300071200000003
:1028A000D4360D08141300071400000010370D086B
:1028B0000815FF050600000078570F080F130007E2
:1028C0000F000000E4A80E080C1302070F00000020
:1028D0000CA90E080B1302070D00000034A90E0806
:1028E0000F1300070F0000005CA90E080B1302076E
:1028F0000E00000084A90E080C1301070E00000052
:10290000ACA90E080D13020711000000D4A90E088F
:102910001013010712000000FCA90E08061301079E
:1029200009000000786F0F080D1302070F00000068
:1029300024AA0E080F1300070F0000004CAA0E086F
:102940000F1302071300000074AA0E080D130207EC
:10295000110000009CAA0E080C1301070E000000D5
:10296000C4AA0E081013010712000000ECAA0E08FA
:102970000D1302071100000014AB0E080C13020720
:102980000E0000003CAB0E080D1301070E00000006
:1029900064AB0E081013FF070F0000008CAB0E088D
:1029A0000E1300070E000000B4AB0E081013010751
:1029B00013000000DCAB0E080F1300070F0000002F
:1029C00004AC0E0810130207140000002CAC0E0813
:1029D00011130107120000004C370D080617010300
:1029E0000900000090570F080E1700030E000000AA
:1029F00024210E080B1501050E000000286A0E08A0
:102A00000A1501050B000000546A0E080A1A020597
:102A10000E00000078C00D08031502050600000036
:102A2000A8570F080A1502050E000000806A0E085C
:102A30000B0E010C0E000000B0380F080B19020637
:102A40000E000000ACC00D080C13000C0C000000C0
:102A500054AC0E080C1401060E0000007CAC0E08ED
:102A60000A0E010C0B000000CC380F080A190106F1
:102A70000A000000E0C00D080A13020C0E0000005E
:102A8000A4AC0E080C1401060E000000CCAC0E081D
:102A9000020E020C06000000E8810F080A0E020C6C
:102AA0000C000000E8380F080C1400060C000000B1
:102AB000F4AC0E080A13020C0E0000001CAD0E0848
:102AC0000C0E000C0C00000004390F080B19010655
:102AD0000B00000014C10D080C0E010C0E000000CC
:102AE00020390F080A0E020C0E0000003C390F08B6
:102AF0000B13020C0E00000044AD0E080A13010C6B
:102B00000B0000006CAD0E080E0E010C0F00000053
:102B100058390F080C0E000C0C00000074390F0817
:102B20000A0E020C0E00000090390F081013010C61
:102B30001200000094AD0E080C13000C0C000000F5
:102B4000BCAD0E080E13020C12000000E4AD0E081E
:102B5000100E010C12000000AC390F08061300071C
:102B6000060000008C6F0F080A1202080E00000019
:102B700034F70E080C1501050E000000AC6A0E08B3
:102B80000A1502050E000000D86A0E08101501058E
:102B900012000000046B0E080B1402060E00000069
:102BA0000CAE0E080C1402060E00000034AE0E0827
:102BB000121300071100000088370D0816150005D4
:102BC0001500000050000D0812170003110000004E
:102BD00094990C080C1901060E00000048C10D085C
:102BE000100E010C12000000C8390F080E13000C63
:102BF0000E0000005CAE0E08101801071200000065
:102C000054210E080C13010C0E00000084AE0E08B7
:102C10000D1801070F00000084210E080B13010C92
:102C20000C000000ACAE0E080B1302070D000000F4
:102C3000D4AE0E080813020C0B000000A06F0F08A2
:102C40000F13010710000000FCAE0E080B14010664
:102C50000D00000024AF0E0812180007130000003A
:102C6000DC990C080D1900060E0000007CC10D084F
:102C70001218020716000000249A0C081213010C07
:102C800015000000C4370D080D13010710000000E7
:102C90004CAF0E080A1402060E00000074AF0E08B6
:102CA0000D18020710000000B4210E080D0E000CD4
:102CB0000D000000E4390F080C1301070E0000009E
:102CC0009CAF0E080C1401060E000000C4AF0E08E5
:102CD0000F1300070F000000ECAF0E080F0E000CE2
:102CE0000F000000003A0F08101301071200000047
:102CF00014B00E080C0E010C0E0000001C3A0F0858
:102D00000C1300070C0000003CB00E080A1400066B
:102D10000A00000064B00E080E0E000C0E00000049
:102D2000383A0F080C13010C0E0000008CB00E088E
:102D30000A0E010C0C000000543A0F080618FF0799
:102D400007000000C0570F08101301071200000011
:102D5000B4B00E080B0E010C0C000000703A0F0806
:102D60000B0E000C0C0000008C3A0F080A1302072F
:102D70000E000000DCB00E080B1902060E00000069
:102D8000B0C10D080E13FF0C0E00000004B10E08B8
:102D90000D1301070F0000002CB10E080D130107E1
:102DA0000F00000054B10E080D1301070F000000C2
:102DB0007CB10E080B1902010E000000E4C10D08E1
:102DC0000B1702030E000000E4210E081113000788
:102DD0001200000000380D080B1902010D00000060
:102DE00018C20D080D1301070F000000A4B10E0852
:102DF0000C1301070E000000CCB10E0806130107EA
:102E000009000000B46F0F08061701030900000055
:102E1000D8570F08081300070A000000C86F0F08F2
:102E2000191300071900000004610C0817130207AA
:102E3000190000003C380D081113000712000000B3
:102E400078380D080D1902010F0000004CC20D0862
:102E50000D1902011100000080C20D080E180002B9
:102E60000E00000014220E080D17020711000000CA
:102E700044220E080F1300070F000000F4B10E08E3
:102E80000C1302070F0000001CB20E080C130207FF
:102E90000F00000044B20E080B1302070D000000E3
:102EA0006CB20E08101700071100000074220E0803
:102EB0000B1302070E00000094B20E081613000751
:102EC00016000000B4380D080C1300070D000000B8
:102ED000BCB20E080D13020711000000E4B20E0888
:102EE0000D18020211000000A4220E080D130207A3
:102EF0000F0000000CB30E080F13000711000000B4
:102F000034B30E080F130207130000005CB30E0861
:102F10000D1302071100000084B30E0810130107FF
:102F200012000000ACB30E080D13020711000000E0
:102F3000D4B30E080C1302070E000000FCB30E08F9
:102F40000D1301070F00000024B40E081013FF0733
:102F50000F0000004CB40E080E1300070E00000016
:102F600074B40E0810130107130000009CB40E087F
:102F70000F1300070F000000C4B40E080E1702075D
:102F800011000000D4220E080D13010710000000EC
:102F9000ECB40E081413020718000000F0380D08F6
:102FA00016170207180000006C9A0C08111300078E
:102FB000110000002C390D08101302071400000046
:102FC00014B50E080D1302070F0000003CB50E08E3
:102FD0000D1301070F00000064B50E08151302075A
:102FE0001800000068390D080D1300070F000000DD
:102FF0008CB50E080A0E010C0D000000A83A0F084F
:103000000C1401060E000000B4B50E080A0E020CE6
:103010000D000000C43A0F08080E020C0A00000060
:10302000F8810F080D11000C0E00000058F70E0873
:103030000B0E010C0D000000E03A0F08120E000C00
:1030400012000000306B0E080A0E000C0B0000008E
:10305000FC3A0F080A0E020C0E000000183B0F0885
:103060000A1402060E000000DCB50E080A0E020C5F
:103070000C000000343B0F080C0E000C0E0000008A
:10308000503B0F080C0E020C100000006C3B0F08A8
:103090000A0E020C0E000000883B0F080C0E010CFB
:1030A0000E000000A43B0F080A0E020C0E000000E8
:1030B000C03B0F080B13020C0E00000004B60E08F4
:1030C0000A0E010C0C000000DC3B0F080C0E000C7B
:1030D0000C000000F83B0F080C13000C0C00000063
:1030E0002CB60E08121900061300000050610C08DF
:1030F0000C0E000C0C000000143C0F080B11020C0D
:103100000E0000007CF70E080B0E010C0E000000F4
:10311000303C0F08100E010C130000004C3C0F084F
:103120001111020C14000000B4C20D080D0E000CA9
:103130000E000000683C0F080D0E020C110000008C
:10314000843C0F080A0E020C0D000000A03C0F0882
:103150000A0E010C0C000000BC3C0F08100E020C03
:1031600013000000D83C0F080B0E000C0D000000EF
:10317000F43C0F080B1501050D0000005C6B0E08F8
:103180000B1201080D000000A0F70E080C19000634
:103190000E000000E8C20D08081502050A00000034
:1031A000F0570F080A0E010C0C000000103D0F082C
:1031B0000A0E010C0B0000002C3D0F080213020741
:1031C00006000000DC6F0F08061300070600000071
:1031D000F06F0F080618FF070700000008580F08D7
:1031E000140E000C15000000886B0E08120E020C65
:1031F00015000000B46B0E080C1400060E00000051
:1032000054B60E080A1502050C000000E06B0E080B
:103210000A1502050E0000000C6C0E080C190006C1
:103220000C0000001CC30D080A11020C0E00000067
:10323000C4F70E081B1301071D0000009C610C0859
:10324000120E000C12000000386C0E08101300075C
:10325000110000007CB60E080D1400060E000000E0
:10326000A4B60E081213020715000000A4390D08B9
:103270000E0E020C11000000483D0F080F1300074E
:103280000F000000CCB60E080C0E000C0C00000065
:10329000643D0F081213020714000000E0390D0806
:1032A0000F0E020C11000000803D0F0814130007E0
:1032B000140000001C3A0D080F0E000C0F00000057
:1032C0009C3D0F081713020719000000583A0D081B
:1032D000130E020C15000000646C0E080B1E010199
:1032E0000D000000943A0D080A1A00050B000000BA
:1032F00050C30D081013020714000000F4B60E08A6
:103300000E13020C120000001CB70E081013010768
:103310001200000044B70E080C0E010C0E00000055
:10332000B83D0F081313000712000000D03A0D0833
:10333000100E000C0F000000D43D0F0813190001FF
:1033400012000000E8610C08101500050F000000D5
:10335000906C0E081C1801071D00000094C40B0897
:103360001813010C190000000C3B0D081315010681
:103370001500000090000D080F10010B1100000057
:10338000641C0F08151901011700000034620C08B5
:103390001117010313000000B49A0C081B17010356
:1033A0001D000000D4020C081212000812000000D8
:1033B00084790D080D1801070F00000004230E0882
:1033C0000A13010C0C0000006CB70E080C13000768
:1033D0000C00000094B70E0808050306000000006A
:1033E00040AC0F08090302070000000048AC0F08BA
:1033F000020506060000000050AC0F080205060694
:103400000000000058AC0F080A040306100000007A
:1034100060AC0F081816F40800000000A4D90C08CE
:103420001818F40700000000FC9A0C080F1C020298
:1034300011000000BC790D080C1702060E000000F8
:1034400034230E080F1300070F000000BCB70E084E
:103450000C1400060D000000E4B70E080D1302075F
:103460000E0000000CB80E080C13020C0E00000039
:1034700034B80E080B1802020D00000064230E0879
:10348000081302070A00000004700F080C1301075C
:103490000D0000005CB80E08090E010C0A000000C7
:1034A000F03D0F080B1802070E00000094230E08D1
:1034B0000A13020C0D00000084B80E08161700074E
:1034C00017000000449B0C081211000C13000000B0
:1034D00084C30D080C1800070D000000C4230E085B
:1034E0000A13000C0B000000ACB80E080E17020700
:1034F00010000000F4230E080A11020C0D00000059
:10350000E8F70E080D1302070F000000D4B80E08EC
:103510000A0E020C0C0000000C3E0F080F130007EF
:103520000F000000FCB80E080C1400060C00000090
:1035300024B90E081213000712000000483B0D08C2
:103540000E0E000C0E000000283E0F080F17020799
:103550001100000024240E080B11020C0E000000C4
:103560000CF80E081213020714000000843B0D082B
:103570000E0E020C10000000443E0F081618020741
:10358000190000008C9B0C081213020C150000009F
:10359000C03B0D081114010712000000FC3B0D0890
:1035A0000D0F010C0E000000841C0F080D18010700
:1035B0000F00000054240E080A13010C0C00000038
:1035C0004CB90E081017FF070F00000084240E08E6
:1035D0000C11000C0C00000030F80E080E13000750
:1035E0000E00000074B90E080C13000C0C00000053
:1035F0009CB90E080E1300070E000000C4B90E0897
:103600000C13000C0C000000ECB90E080F1700079B
:103610000F000000B4240E080C11000C0D00000077
:1036200054F80E081317000714000000D49B0C0870
:103630000F11000C1000000078F80E080F1701079A
:1036400010000000E4240E080C11010C0E00000014
:103650009CF80E080D1301071000000014BA0E08A4
:103660000B0E010C0E000000603E0F080C13020749
:10367000100000003CBA0E080A1402060E000000FA
:1036800064BA0E081413000715000000383C0D083A
:103690000F0E000C100000007C3E0F0814170007EE
:1036A000150000001C9C0C080F11000C10000000FD
:1036B000C0F80E08061301070900000018700F0873
:1036C000161900011600000080620C081214000692
:1036D00012000000743C0D080C1802070F000000D7
:1036E00014250E080913020C0C0000008CBA0E08F9
:1036F0001117000711000000649C0C080E11000C4B
:103700000E000000E4F80E080D180207110000007A
:1037100044250E080A13020C0E000000B4BA0E086D
:103720000F1702071100000074250E080C11020C7F
:103730000E00000008F90E080D1701071000000028
:10374000A4250E080B11010C0E0000002CF90E0828
:103750001117020713000000AC9C0C080E11020C9C
:103760001000000050F90E080214020606000000C6
:103770002C700F080F1900010F000000B8C30D08CE
:103780000A1401060D000000DCBA0E080F16000432
:103790000F000000BC6C0E080A1201080D000000AA
:1037A00074F90E081613000717000000B03C0D084E
:1037B000140E010C16000000E86C0E080B19020133
:1037C0000E000000ECC30D080B1401060D000000F4
:1037D00004BB0E0810130107120000002CBB0E08DA
:1037E0000B0E010C0D000000983E0F08101601048E
:1037F00012000000146D0E080B1201080D000000ED
:1038000098F90E081616000416000000E8D90C08F6
:103810001212000812000000F4790D080C160004C2
:103820000D000000406D0E080A1200080B00000099
:10383000BCF90E080C1300070D00000054BB0E0865
:103840000A13000C0B0000007CBB0E080D170203CE
:1038500011000000D4250E080A1302070E00000014
:10386000A4BB0E080D160204110000006C6D0E08BA
:103870000A1202080E000000E0F90E0810170103FA
:103880001200000004260E080C1201080E000000B1
:1038900004FA0E081013010712000000CCBB0E083A
:1038A0000C0E010C0E000000B43E0F0810170103AF
:1038B0001200000034260E080C1201080E00000051
:1038C00028FA0E080D1601040F000000986D0E086E
:1038D0000A1201080C0000004CFA0E080E17000333
:1038E0000E00000064260E080C1800070C000000F3
:1038F00094260E080E1600040E000000C46D0E087B
:103900000C1700080C000000C4260E080E19000158
:103910000E00000020C40D080C1A00050C00000069
:1039200054C40D080D16010410000000F06D0E08BF
:103930000B1201080E00000070FA0E080B170207A8
:103940000D000000F4260E080812020C0A00000008
:1039500040700F0810160204140000001C6E0E08C0
:103960000D1202081100000094FA0E080D1800074D
:103970000D00000024270E080A13000C0A000000A6
:10398000F4BB0E08101800070F00000054270E08A3
:103990000C13000C0C0000001CBC0E080F130007D9
:1039A0000F00000044BC0E080C0E000C0C000000C0
:1039B000D03E0F080D1300070F0000006CBC0E086E
:1039C0000B1401060E00000094BC0E08151300072E
:1039D00017000000EC3C0D0813140106160000004F
:1039E000283D0D081413010717000000643D0D0861
:1039F000120E010C15000000486E0E080E1701078C
:103A00000F00000084270E080B11010C0D000000B0
:103A1000B8FA0E081713000719000000A03D0D08A2
:103A2000140E000C16000000746E0E081513020729
:103A300019000000DC3D0D08120E020C16000000FB
:103A4000A06E0E080F13010711000000BCBC0E0889
:103A50000B0E010C0D000000EC3E0F0811130007C7
:103A600013000000183E0D080F0E000C110000009E
:103A7000083F0F080C1301070D000000E4BC0E08FE
:103A80000A0E010C0B000000243F0F080F1800075E
:103A900011000000B4270E080C13000C0E000000EB
:103AA0000CBD0E081018010712000000E4270E08D4
:103AB0000B13010C0E00000034BD0E081713000795
:103AC00017000000543E0D08130E000C13000000F8
:103AD000CC6E0E0810130207120000005CBD0E0829
:103AE0000D1302071000000084BD0E08101300071C
:103AF00010000000ACBD0E081113000711000000FB
:103B0000903E0D080D13020710000000D4BD0E08F2
:103B10000D1301070F000000FCBD0E080C13020777
:103B20000F00000024BE0E080D1302071000000055
:103B30004CBE0E081213020714000000CC3E0D0804
:103B40000F1301071000000074BE0E080C130207CB
:103B50000F0000009CBE0E080A1302070C000000B4
:103B6000C4BE0E081213020716000000083F0D081D
:103B70001013000710000000ECBE0E080C13020723
:103B80001000000014BF0E080B1301070D00000009
:103B90003CBF0E080E1300070F00000064BF0E08A4
:103BA0001113000711000000443F0D080D13020718
:103BB000110000008CBF0E08101302071200000055
:103BC000B4BF0E080E13010710000000DCBF0E0882
:103BD000101300071100000004C00E080D130107A8
:103BE0000F0000002CC00E080C130207100000008C
:103BF00054C00E080D1301070F0000007CC00E0812
:103C00000F13000711000000A4C00E080D130107D8
:103C10000F000000CCC00E081013020712000000B5
:103C2000F4C00E080C130207100000001CC10E089F
:103C30001113000711000000803F0D080F1300074B
:103C40001000000044C10E080C1302070F00000012
:103C50006CC10E080F1301071100000094C10E087B
:103C60000A1302070D000000BCC10E081013010763
:103C700013000000E4C10E080E1300070F0000003F
:103C80000CC20E08101301071200000034C20E0807
:103C90000F130007100000005CC20E0802050106A9
:103CA0000500000068AC0F080205010605000000D1
:103CB00070AC0F08050501060800000078AC0F087D
:103CC000070A010609000000C88F0F080505010654
:103CD0000800000080AC0F0807060106090000007C
:103CE00088AC0F080A0601030C000000D48F0F08EF
:103CF000110E020C15000000F86E0E080A13020CDB
:103D00000E00000084C20E080E13010C0F0000000C
:103D1000ACC20E080D13020C0F000000D4C20E0836
:103D20000A1402060E000000FCC20E080E13010C5D
:103D30000F00000024C30E080A1402060D00000044
:103D40004CC30E080A13020C0E00000074C30E08C8
:103D50000F13020C110000009CC30E080E14010684
:103D60000F000000C4C30E080A1902060E0000006E
:103D700088C40D080613020C0800000054700F08D8
:103D80001219020616000000CC620C080D14010680
:103D90000E000000ECC30E080A1902060E00000017
:103DA000BCC40D080A1402060E00000014C40E085C
:103DB0000A1401060C0000003CC40E080D13020C8E
:103DC0000F00000064C40E080B1401060C00000074
:103DD0008CC40E080D1402060F000000B4C40E08B7
:103DE0000613000C0800000068700F080D14000690
:103DF0000F000000DCC40E080A13000C0B000000CA
:103E000004C50E080A0E020C0E000000403F0F0809
:103E10000A13000C0B0000002CC50E081113020C35
:103E200015000000BC3F0D080B13000C0C00000037
:103E300054C50E080B0E020C0E0000005C3F0F086C
:103E40000A0E020C0E000000783F0F080D19020642
:103E50000F000000F0C40D08110E020C1500000048
:103E6000246F0E080A13020C0E0000007CC50E0819
:103E70000B13010C0E000000A4C50E08080E020C66
:103E80000A00000008820F08111902061500000040
:103E900018630C080E13000C0F000000CCC50E08B0
:103EA0000C0E010C0E000000943F0F0810190006C4
:103EB0001100000024C50D080D1402060F000000BB
:103EC000F4C50E08030E030C0900000018820F0849
:103ED000070301100900000070BA0F080505FE1A5B
:103EE0000000000090AC0F080803FC060000000072
:103EF00074BA0F080306FE030000000098AC0F0818
:103F00000205FF0400000000A0AC0F080405FE0439
:103F100000000000A8AC0F080405FE1A0000000015
:103F2000B0AC0F080303FF060000000078BA0F08CA
:103F30000704FC05000000007CBA0F080405FC041F
:103F400000000000B8AC0F080303001B00000000D5
:103F500080BA0F080405FE1A00000000C0AC0F086C
:103F60000405FE0400000000C8AC0F0804050004AE
:103F700000000000D0AC0F080805FC0400000000A1
:103F8000D8AC0F080E06F90300000000E08F0F0800
:103F90000606000300000000E0AC0F080405FE0464
:103FA00000000000E8AC0F080505FE1A0000000044
:103FB000F0AC0F080304FF1B0000000084BA0F08D8
:103FC0000303FE1B0000000088BA0F080405FE1A58
:103FD00000000000F8AC0F080805FC1A0000000003
:103FE00000AD0F080305FE1A0000000008AD0F0821
:103FF0000405FE040000000010AD0F080606FA03D9
:104000000000000018AD0F080505FE1A00000000B2
:1040100020AD0F080303FE06000000008CBA0F0855
:104020000304FF050000000090BA0F080405001A01
:104030000000000028AD0F080704F905000000008B
:1040400094BA0F080303FE060000000098BA0F0898
:104050000205061A0000000030AD0F080805031A1B
:104060000000000038AD0F080605041A000000002B
:1040700040AD0F080605041A0000000048AD0F0807
:104080000202061B0000000052BD0F080502041BBF
:104090000000000054BD0F080505051A00000000CF
:1040A00050AD0F080301051B00000000C4BD0F0840
:1040B0000503041B000000009CBA0F08020206085A
:1040C0000000000056BD0F080202030700000000B8
:1040D00058BD0F080805031A0000000058AD0F086E
:1040E00002020612000000005ABD0F080103061B61
:1040F00000000000A0BA0F080602020B0A00000030
:104100005CBD0F080301050800000000C5BD0F08D5
:1041100002130209060000007C700F080202060864
:10412000000000005EBD0F080202FF080000000052
:1041300060BD0F08030F030B0900000028820F0861
:10414000020201070000000062BD0F080202FF1C0E
:104150000000000064BD0F080710020A0A000000FA
:1041600038820F080504FD1B00000000A4BA0F08E8
:104170000D0F020B11000000A41C0F080E0F010B05
:1041800010000000C41C0F080C0F000B0C000000F6
:10419000E41C0F080D0F010B0F000000041D0F0899
:1041A0000D0F020B11000000241D0F08050F000B5E
:1041B0000700000048820F08070F010B08000000ED
:1041C00058820F080D0F020B11000000441D0F084C
:1041D0000D0F020B11000000641D0F080508000BF5
:1041E0000700000060AD0F080E14000B1000000067
:1041F0001CC60E080D0F010B10000000841D0F08D7
:104200000D1401061000000044C60E080D0F020B2D
:1042100011000000A41D0F080E0F010B110000007B
:10422000C41D0F080714000B0900000090700F0850
:10423000070F010B0A00000068820F08100F000B27
:1042400012000000E41D0F080D11010B100000000A
:10425000DCFA0E080E14010B110000006CC60E08EB
:104260000D0F010B10000000041E0F080B14000BB3
:104270000C00000094C60E080D0F010B0F0000008B
:10428000241E0F080D14020B11000000BCC60E08FE
:104290000C0F000B0E000000441E0F08110F020B44
:1042A0001400000014280E08100F000B120000006C
:1042B000641E0F080C0F000B0E000000841E0F0878
:1042C0000C0F000B0E000000A41E0F080C08000BC2
:1042D0000E00000078820F080507010605000000A7
:1042E00068AD0F080A0701060A00000088820F085F
:1042F0001205011A1400000098820F082505011A02
:1043000027000000B03F0F081D0700181E00000026
:10431000CC3F0F08170701181900000020580F089C
:10432000101701081200000044280E0803070313A9
:104330000900000070AD0F08070701180800000011
:1043400078AD0F081D0701131D000000E83F0F089E
:104350000C12010D0F00000000FB0E080705FC0207
:104360000000000080AD0F080705FC0200000000FF
:1043700088AD0F080706FC020000000090AD0F0892
:104380000907FB0100000000A8820F080904FC02D5
:104390000000000098AD0F080607011300000000A0
:1043A000A0AD0F08030E030C09000000B8820F082F
:1043B0000605011508000000A8AD0F080A13010743
:1043C0000C000000E4C60E08070901110A000000F5
:1043D000EC8F0F08061600040600000038580F087E
:1043E000041901010600000004400F080915000A25
:1043F0000A000000506F0E080418010706000000B4
:1044000050580F08140F010B1600000074280E08F6
:104410000213020706000000A4700F08120C01121C
:104420001400000024FB0E080A1101090C00000012
:1044300048FB0E08120C010E140000006CFB0E0865
:10444000120F010B14000000A4280E080C11010E1D
:104450000F00000090FB0E080C11010E0F00000071
:10446000B4FB0E080C14010B0F0000000CC70E0863
:104470000A0C010E0C00000068580F080A10010A0F
:104480000C000000C41E0F08080B001409000000F7
:10449000F88F0F080810000F09000000C8820F08ED
:1044A0001C0E01111E0000002C7A0D081C14010BBB
:1044B0001E000000A04A0C081B0F01101D00000088
:1044C000F83F0D081B14010B1D000000F04A0C08FA
:1044D0001113FF071100000034400D081113FF07EE
:1044E0001100000070400D080C12010D0F000000BB
:1044F000D8FB0E080C1601090F0000007C6F0E0897
:104500000702FF180600000066BD0F08141201081C
:1045100016000000647A0D0814150107160000004B
:10452000D0000D080F1301071200000034C70E0859
:104530000D130107100000005CC70E08100EFE11DD
:104540000F00000020400F080F0E010C11000000AA
:104550003C400F080A0C010E0C00000080580F08A8
:10456000090F00100A000000E41E0F08140E010CD1
:1045700016000000A86F0E081412010C16000000AF
:104580009C7A0D080704000500000000A8BA0F0877
:104590000805000100000000B0AD0F080704001A74
:1045A00000000000ACBA0F08070200040000000081
:1045B00068BD0F080605000100000000B8AD0F0837
:1045C0000702001C000000006ABD0F08070501017A
:1045D00000000000C0AD0F0805050002000000004B
:1045E000C8AD0F0806020004000000006CBD0F08F3
:1045F0000404010200000000B0BA0F080404011B0B
:1046000000000000B4BA0F080105FF1A0000000006
:10461000D0AD0F080605FD0100000000D8AD0F0861
:104620000403FE0300000000B8BA0F080501FD09ED
:1046300000000000C6BD0F080503000400000000D4
:10464000BCBA0F080704000300000000C0BA0F083E
:104650000202FF1C000000006EBD0F0806050001ED
:1046600000000000E0AD0F0805030003000000009B
:10467000C4BA0F080707040E0E000000E8AD0F08CB
:10468000051104090E000000B8700F080C11010993
:104690000E000000FCFB0E080D1100090E000000CA
:1046A00020FC0E080B1102090E00000044FC0E084D
:1046B0000D0E010C0E00000058400F080C110109EE
:1046C0000E00000068FC0E080D1101090E0000002C
:1046D0008CFC0E080D1101090E000000B0FC0E0844
:1046E0000C1102090E000000D4FC0E080D11010986
:1046F0000E000000F8FC0E08030703170900000075
:10470000F0AD0F080307031309000000F8AD0F0810
:104710000C0C010C0E00000098580F081208011232
:1047200014000000B0580F081410010C160000000F
:10473000D4280E080108FF010000000000AE0F0899
:104740000618000206000000C8580F0806180002EC
:1047500006000000E0580F080618000706000000D9
:10476000F8580F080404010206000000C8BA0F0838
:104770000713020706000000CC700F080A15000A94
:104780000A000000D46F0E080B15FF0A0A00000093
:1047900000700E081614010616000000AC400D084B
:1047A000121101091400000058C50D08120F010B69
:1047B0001400000004290E08120D0112140000005C
:1047C00084C70E081210010E1400000034290E08D0
:1047D000120E010C140000002C700E08120D0112B4
:1047E00014000000ACC70E08120F010B14000000EB
:1047F00064290E08120D011214000000D4C70E081F
:104800000C1701080F00000094290E080C1801076E
:104810000F000000C4290E080C11010E0F0000004B
:104820001CFD0E080C11010E0F00000040FD0E08CB
:104830000C1801070F000000F4290E080C11010EDE
:104840000F00000064FD0E080C11010E0F000000A7
:1048500088FD0E080A1501050C00000058700E08AE
:104860000A10010E0C000000041F0F080A10010EB0
:104870000C000000241F0F080A1901050C0000009D
:104880008CC50D080A10010A0C000000441F0F0817
:104890000A10010E0C000000641F0F080A13010724
:1048A0000C000000FCC70E080A1301070C000000F2
:1048B00024C80E080A1301070C0000004CC80E089B
:1048C000081600090900000010590F080811000E11
:1048D00009000000E0700F080B0B00140900000035
:1048E00028590F08090B00140900000040590F084F
:1048F0000C0B00140900000058590F08090B001494
:104900000900000070590F080810000F090000008E
:10491000D8820F080813000C09000000F4700F087B
:104920000813000C0900000008710F081C11010E8B
:104930001E0000002CDA0C081C0E01111E000000E5
:10494000D47A0D081C14010B1E000000404B0C080B
:104950001B0F01101D000000E8400D081B17010887
:104960001D00000030030C081113FF0711000000A8
:1049700024410D080C1901060F000000C0C50D08E8
:10498000140E010C1600000084700E081412010CA5
:10499000160000000C7B0D0814160108160000001C
:1049A00070DA0C08141501051600000010010D083E
:1049B0001413010C1600000060410D0814150105C8
:1049C0001600000050010D08141401081600000024
:1049D0009C410D081417010516000000F49C0C08FA
:1049E0001413010717000000D8410D081E0C010E1A
:1049F0001F000000242A0E081413010717000000EE
:104A000014420D080F1301071200000074C80E08AD
:104A10000F16010412000000B0700E080F180107F5
:104A200012000000542A0E0814160104170000009A
:104A3000B4DA0C081416010417000000F8DA0C08A8
:104A400014160104170000003CDB0C08141A0104C2
:104A500017000000904B0C08141B01041700000005
:104A60007C2C0C08141901011700000064630C0869
:104A70000F17010310000000842A0E080D16010410
:104A800010000000DC700E080F190101100000007A
:104A9000F4C50D080D18010710000000B42A0E0817
:104AA0000F12010C11000000ACFD0E080F0A0110DE
:104AB000110000001C710F080F1301071100000006
:104AC0009CC80E080F12010C11000000D0FD0E084A
:104AD0000F11010911000000F4FD0E08110DFF0D6A
:104AE00011000000C4C80E080C14010B0F000000D8
:104AF000ECC80E080A1201080C00000018FE0E088F
:104B00000C0801140D000000E8820F080C10010CC5
:104B10000D000000841F0F080C0E010E0D00000098
:104B200074400F08090F00100A000000A41F0F08AE
:104B3000090E00110A00000090400F080913000C34
:104B40000A00000014C90E08091700080A00000036
:104B5000E42A0E08091900060A00000028C60D08FC
:104B60000914000B0A0000003CC90E080913000CD0
:104B70000A00000064C90E08091600090A000000B6
:104B800008710E08140E010C1600000034710E0896
:104B9000160E000C1700000060710E08140E010CB8
:104BA000160000008C710E080913000C0A000000AA
:104BB0008CC90E081413010C1600000050420D0899
:104BC0001413010C160000008C420D08170B001383
:104BD000170000003CFE0E081712000C1700000022
:104BE000447B0D08060200180600000070BD0F0887
:104BF0000A0C010E0C00000088590F080B09FB027B
:104C00000000000030710F080C09FA0200000000DB
:104C100044710F080504FE0500000000CCBA0F081F
:104C20000708FD020000000008AE0F080507FE059A
:104C30000000000010AE0F080302FF070000000094
:104C400072BD0F080C05FA060000000004900F0862
:104C50001A1B01041C000000FC760B081B1B00043F
:104C60000000000068770B080202FF070000000048
:104C700074BD0F080202FF070000000076BD0F0898
:104C80000704FD0500000000D0BA0F080706FC0568
:104C90000000000018AE0F080C05FA1A0000000012
:104CA00010900F080403FF0100000000D4BA0F08A1
:104CB000050500060600000020AE0F0809050007E4
:104CC0000A0000001C900F080905FB070000000007
:104CD00028900F080606FD030000000028AE0F080C
:104CE0001114FF060F000000C8420D080505FE1A4A
:104CF0000000000030AE0F080505FE0500000000B2
:104D000038AE0F080202FF070000000078BD0F0850
:104D10000706FC190000000040AE0F080A11010947
:104D20000C00000060FE0E080912000D09000000D2
:104D300084FE0E080707040E0E00000048AE0F08A0
:104D4000051104090E00000058710F080C1101092B
:104D50000E000000A8FE0E080D1100090E00000054
:104D6000CCFE0E080C10010A0E000000C41F0F0834
:104D70000D1100090E000000F0FE0E08090F030BD4
:104D80000E000000E41F0F080D1101090E000000C5
:104D900014FF0E080D1101090E00000038FF0E0867
:104DA0000C1102090E0000005CFF0E081C14010B20
:104DB0001E000000E04B0C081B14010B1D0000003E
:104DC000304C0C080C1601090F000000B8710E08D9
:104DD000080D01110A000000F8820F080E0E0011E4
:104DE0000F000000AC400F081114FF061100000076
:104DF00004430D08120C01121400000080FF0E087D
:104E00001213010B1400000040430D08120D011293
:104E100014000000B4C90E081211010E14000000A5
:104E20005CC60D081210010E14000000142B0E08B1
:104E3000120D011214000000DCC90E08120C010E44
:104E400014000000A4FF0E080C15010A0F0000005A
:104E5000E4710E080C11010E0F000000C8FF0E08CF
:104E60000A1A01050C00000090C60D080A11010E77
:104E70000C000000ECFF0E080A0B001409000000F3
:104E8000A0590F081C14010B1E000000804C0C08D8
:104E90000C1601090F00000010720E080C18010713
:104EA0000F000000442B0E080C1901060F00000033
:104EB000C4C60D081412010C160000007C7B0D08FE
:104EC0001413010C160000007C430D081413010795
:104ED00017000000B8430D08141601041700000065
:104EE00080DB0C0814180107170000003C9D0C081B
:104EF0001013FE0C0F00000004CA0E08100EFE1165
:104F00000F000000C8400F080F12010C1100000034
:104F100010000F080F130107110000002CCA0E0823
:104F20000F0E010C11000000E4400F0811130107DF
:104F300010000000F4430D080813000C09000000E5
:104F40006C710F080812000D0900000080710F0835
:104F50001C14010B1E000000D04C0C080B0E020CA0
:104F60000F00000000410F080D0E000C0F000000A4
:104F70001C410F080E0E000C1000000038410F08F5
:104F80000C0E010C0F00000054410F080C0E010C18
:104F90000F00000070410F080F0E000C1100000000
:104FA0008C410F080A0E000C0C000000A8410F08ED
:104FB0000B0E010C0E000000C4410F080D0E010C79
:104FC00010000000E0410F080F10000A1000000060
:104FD00004200F081010000A1100000024200F0800
:104FE000120E020C160000003C720E081113020C87
:104FF0001500000030440D080E13000C10000000D6
:1050000054CA0E080E13000C100000007CCA0E08D3
:105010000B13010C0E000000A4CA0E08120E000CA7
:105020001400000068720E08130E010C1600000038
:1050300094720E08120E020C15000000C0720E08C9
:105040000C0E010C0F000000FC410F080C0E010CAF
:105050000F00000018420F080B0E020C0F0000009A
:1050600034420F080E0E020C1200000050420F08CE
:105070000B0E010C0E0000006C420F080C0E020C0F
:105080000F00000088420F080C0E020C10000000F8
:10509000A4420F080C14020610000000CCCA0E082F
:1050A0000B0E020C10000000C0420F080B14020689
:1050B00010000000F4CA0E080E0E000C12000000D2
:1050C000DC420F080E140006110000001CCB0E0875
:1050D0000D0E010C10000000F8420F080B0E020C20
:1050E0000F00000014430F080A0E020C0E0000000F
:1050F00030430F08090E010C0B0000004C430F0851
:105100000A11020C0E00000034000F080B0E020CF6
:105110000F00000068430F080D11010C1000000083
:1051200058000F08090E010C0C00000084430F0802
:105130000D0F010B0F00000044200F08100E020C91
:1051400013000000A0430F080C0F020B0F0000001B
:1051500064200F080F0E000C11000000BC430F0864
:1051600011130007120000006C440D080B0E020C16
:105170000F000000D8430F080C0F020B0F000000B7
:1051800084200F080A0E010C0D000000F4430F08E4
:10519000080E020C0B00000008830F080A05F80631
:1051A0000000000034900F08090E010C0C000000F4
:1051B00010440F080F12FB080C0000007C000F08C1
:1051C0000A04F3070000000050AE0F080A05F306BA
:1051D0000000000040900F080A05F30600000000E0
:1051E0004C900F080A05F3060000000058900F08C5
:1051F0000304FB1B00000000D8BA0F080704F71BCC
:1052000000000000DCBA0F080202FC1B00000000D6
:105210007ABD0F080C1602060F000000EC720E0893
:10522000050E020C0800000018830F080C0E020C7B
:105230000F0000002C440F080A1401060C000000A7
:1052400044CB0E08091401060B0000006CCB0E08BD
:105250000C1400060D00000094CB0E080911010C7F
:105260000C000000A0000F080911010C0C00000048
:10527000C4000F080807F6040000000058AE0F082D
:105280000104FC0700000000E0BA0F080704F7075C
:1052900000000000E4BA0F080904F707000000004E
:1052A00060AE0F080303FC0800000000E8BA0F0816
:1052B0000705F9060000000068AE0F080404FB08AB
:1052C00000000000ECBA0F080507FA01000000001A
:1052D00070AE0F080C0C010E0F000000B8590F083B
:1052E0000C0B010F0F000000D0590F080D0B010F20
:1052F00010000000E8590F080D0E020C110000000C
:1053000048440F080E0B010F11000000005A0F084F
:10531000110F010B12000000742B0E08110F010B6E
:1053200012000000A42B0E080E0F000B100000004E
:10533000A4200F08100E010C1300000064440F0895
:10534000100F010B13000000C4200F08100E010CF9
:105350001200000080440F080E0E010C1100000026
:105360009C440F08170C020E1B000000E8000F08F9
:105370000D0E000C0C000000B8440F08110E000CBC
:105380001200000018730E08140E010C1600000025
:1053900044730E080C0E010C0D000000D4440F08DD
:1053A0000A0E010C0C000000F0440F080B0E020C5A
:1053B0000E0000000C450F080C0E010C0E00000042
:1053C00028450F08080E020C0B00000028830F0868
:1053D0000A0E000C0B00000044450F080212020CDC
:1053E0000600000094710F08070E000C0900000071
:1053F00038830F080A0E020C0C00000060450F08ED
:10540000090E010C0B0000007C450F080C0E020C6D
:105410001000000098450F080A0E020C0E00000054
:10542000B4450F080C0E010C0E000000D0450F080B
:105430000A0E010C0C000000EC450F080E0C010DCB
:1054400010000000185A0F080E0A010E100000008C
:10545000A8710F08100C000D10000000305A0F0842
:10546000150E010C1700000070730E08090E010CD8
:105470000B00000008460F080C07010C0E0000008E
:1054800048830F080C0701130E00000058830F0813
:105490000A0E020C0D00000024460F080B0E000C33
:1054A0000D00000040460F080B0E000C0D00000020
:1054B0005C460F080C0E000C0C00000078460F082C
:1054C0000A0E020C0E00000094460F080D0B020E8F
:1054D00011000000485A0F08110B010E14000000C3
:1054E0000C010F080E12040A1500000030010F080D
:1054F0000C0E000C0C000000B0460F08130E000C40
:10550000130000009C730E08090E010C0B00000034
:10551000CC460F08090E010C0B000000E8460F08EE
:105520000B0E010C0D00000004470F080F0E000CBD
:105530000F00000020470F08080E020C0A000000B0
:1055400068830F080D0E000C0C0000003C470F088C
:105550000A0E020C0E00000058470F080A0E020C3B
:105560000D00000074470F080E0E020C1200000020
:1055700090470F080C0E000C0E000000AC470F08FF
:105580000B0D00080A000000C8470F08100D0008A6
:1055900010000000E4470F08090D01080A00000090
:1055A00000480F080B0D00080A0000001C480F08F7
:1055B0000A0D01080C00000038480F08080D01080A
:1055C0000A00000078830F08080D01080A00000097
:1055D00088830F080B0D01080C00000054480F08C9
:1055E0000A0D01080B00000070480F08060D0108A5
:1055F0000700000098830F08070D0008080000004E
:10560000A8830F08090D01080A0000008C480F0844
:10561000070D010809000000B8830F080B0D0108F1
:105620000D000000A8480F080A0D01080B0000003B
:10563000C4480F080A0D01080B000000E0480F08DD
:105640000B0D01080D000000FC480F08090D0108B2
:105650000A00000018490F08080D01080A000000A0
:10566000C8830F080A0D01080B00000034490F0819
:105670000A0D01080C00000050490F080A0D01082E
:105680000B0000006C490F080F0D00080F00000010
:1056900088490F080809010C0900000064900F08F0
:1056A0000809010C0900000070900F080909010C9D
:1056B0000A000000BC710F080F09000C1000000068
:1056C000D0710F08090D01080A000000A4490F0855
:1056D000090D01080A000000C0490F080909010C62
:1056E0000A000000E4710F080909000C0A0000001C
:1056F000F8710F080709010C090000007C900F08E1
:105700000709010C0900000088900F08090C010C22
:105710000A000000605A0F08020C010C040000008F
:1057200094900F08090D010809000000DC490F08DA
:105730000E09000C0E0000000C720F08080C010C82
:105740000A000000A0900F080909010C0A000000DF
:1057500020720F080709010C09000000AC900F0827
:105760000905010C0A000000B8900F080905011096
:105770000A000000C4900F08090C010C0A00000088
:10578000785A0F08060C010907000000D0900F0896
:105790000809010C0A000000DC900F080908010C40
:1057A0000B000000D8830F080E09000C0E0000004B
:1057B00034720F080909000C0800000048720F0835
:1057C0000A09000C0A0000005C720F0809100108A9
:1057D0000A000000E4200F08080D000C080000007B
:1057E000E8830F08090D01080A000000F8490F08B6
:1057F0000C0C010C0D000000905A0F08090C000C55
:1058000008000000A85A0F08020C01100400000054
:10581000E8900F080509011306000000F4900F0836
:10582000080901130A00000000910F08090900137C
:105830000800000070720F080910010F0A00000034
:1058400004210F08080C0013080000000C910F0839
:10585000090C01130A000000C05A0F080C0D0112B8
:105860000D000000144A0F08090C00130800000086
:10587000D85A0F08130E020C16000000C8730E0849
:105880000F14FE060E000000BCCB0E080F1401061C
:105890000E000000E4CB0E080B14FE06080000000A
:1058A0000CCC0E08170EFF0C15000000F4730E0848
:1058B000100EFF0C0E000000304A0F080F13FE0CF4
:1058C0000E00000034CC0E080B0EFE0C0900000088
:1058D0004C4A0F080B0EFE0C09000000684A0F0826
:1058E000100EFE0C0C000000844A0F080A12FE087D
:1058F0000800000054010F080E0EFF0C0B00000002
:10590000A04A0F080B13020C0E0000005CCC0E081E
:10591000090C01070B000000F05A0F080B13010CD3
:105920000D00000084CC0E081416000616000000BE
:10593000C4DB0C08090E000C09000000BC4A0F086B
:10594000090EFF0C06000000D84A0F080D13010CC9
:105950000E000000ACCC0E080D0E010C0E00000075
:10596000F44A0F08100E000C10000000104B0F0836
:105970000B1902060E000000F8C60D080D190106ED
:105980000E0000002CC70D080919000608000000D1
:1059900060C70D081213010C0E000000A8440D088A
:1059A0000B1902060C00000094C70D08061900062A
:1059B000060000002C4B0F081413010C150000000A
:1059C000E4440D080C13020C0E000000D4CC0E08A9
:1059D0000B13020C0E000000FCCC0E080913000C87
:1059E0000900000024CD0E080C13010C0B00000070
:1059F0004CCD0E080E1901060E000000C8C70D0898
:105A00000D13000C0D00000074CD0E080C13000CDB
:105A10000C0000009CCD0E080913010C0B000000C7
:105A2000C4CD0E080E13010C0D000000ECCD0E08C5
:105A30000F13010C0E00000014CE0E081019010601
:105A40000E000000FCC70D080F13010C0D00000034
:105A50003CCE0E080E13010C0B00000064CE0E08A5
:105A60000A13000C0B0000008CCE0E08130E010C64
:105A70000D00000020740E08081802070600000040
:105A8000085B0F080A13010C0C000000B4CE0E08CE
:105A90000C1901060E00000030C80D080E13020C90
:105AA0000E000000DCCE0E080A13000C0B000000F4
:105AB00004CF0E080809010C0A00000018910F0815
:105AC0000709010C0900000024910F080809000CC7
:105AD0000900000030910F08080D01080A000000BD
