:020000040800F2
:10000000F89700202D8A0F0899FC0A08B3FC0A080B
:10001000CDFC0A08E7FC0A0801FD0A080000000000
:1000200000000000000000000000000089880308B4
:100030001BFD0A08000000002D88030835FD0A0892
:1000400019BC0F081DBC0F0821BC0F0825BC0F08E8
:1000500029BC0F082DBC0F0831BC0F0835BC0F0898
:1000600039BC0F083DBC0F0841BC0F0845BC0F0848
:100070008DFD0A085FFD0A0889FD0A0863FD0A086C
:1000800049BC0F084DBC0F0851BC0F0855BC0F08E8
:1000900059BC0F085DBC0F0861BC0F08BDFD0A0804
:1000A00065BC0F0869BC0F086DBC0F0871BC0F0858
:1000B00075BC0F0879BC0F087DBC0F0881BC0F0808
:1000C00085BC0F0889BC0F088DBC0F0891BC0F08B8
:1000D00095BC0F084FFD0A0899BC0F089DBC0F087E
:1000E000A1BC0F08A5BC0F08A9BC0F08ADBC0F0828
:1000F000B1BC0F08B5BC0F08B9BC0F08BDBC0F08D8
:1001000091FD0A08C1BC0F08C5BC0F08C9BC0F0887
:100110005BFD0A08CDBC0F084BFD0A08D1BC0F08D7
:10012000D5BC0F08D9BC0F0853FD0A08DDBC0F0869
:10013000E1BC0F08E5BC0F08E9BC0F08EDBC0F08D7
:10014000F1BC0F08F5BC0F08F9BC0F08FDBC0F0887
:1001500001BD0F0805BD0F0857FD0A0809BD0F08AE
:10016000B5FD0A08B9FD0A080DBD0F0811BD0F083D
:1001700015BD0F0819BD0F081DBD0F0800000000B8
:1001800021BD0F0825BD0F0867FD0A0829BD0F080E
:100190002DBD0F0831BD0F0835BD0F0839BD0F0843
:1001A00095FD0A089BFD0A083DBD0F0841BD0F08DB
:1001B00045BD0F0849BD0F084DBD0F0851BD0F08C3
:1001C00055BD0F0859BD0F080101001A08000000B5
:1001D00076BE0F080213030708000000A86C0F0882
:1001E000070701060A000000FCA90F081013010709
:1001F00012000000588F0E080C1701070E000000B7
:1002000068160E08161301071800000080300D084C
:100210001113010711000000BC300D080207010690
:100220000500000004AA0F08071901060A000000D3
:100230004C310F08071902060A00000068310F0848
:100240000C0B01060E000000D4550F080E0E020B19
:100250001200000084310F08050801170800000093
:100260000CAA0F080702011109000000F4BD0F08D5
:10027000030302170800000064BA0F0809180006FB
:100280000A00000098160E080C1301070E0000006B
:10029000808F0E08081303070E000000BC6C0F08C7
:1002A0000B1301070E000000A88F0E080B130107A7
:1002B0000E000000D08F0E080C1300070E00000087
:1002C000F88F0E080B1302070E00000020900E0896
:1002D0000C1301070E00000048900E080C130107D4
:1002E0000E00000070900E080C1301070E000000B5
:1002F00098900E080C1301070E000000C0900E0825
:10030000030E030C09000000FC800F080513020C0B
:1003100009000000D06C0F080D0E020B1200000047
:10032000A0310F080E07020E120000000C810F080A
:100330000D0E030B12000000BC310F080A13010759
:100340000C000000E8900E081416020717000000C9
:1003500048D90C080F1300070F00000010910E0879
:100360000C1302070F00000038910E080D1301074F
:100370000F00000060910E080E130207110000002C
:1003800088910E080B1302070E000000B0910E08B2
:100390000B1302070D000000D8910E080F13010780
:1003A0001100000000920E080D130207110000005A
:1003B00028920E080613010709000000E46C0F08DC
:1003C000081300070A000000F86C0F080D1302075D
:1003D0000F00000050920E080A1302070C000000E4
:1003E00078920E080F13020713000000A0920E0867
:1003F0000D13020711000000C8920E081013010728
:1004000012000000F0920E080C1302070E0000000C
:1004100018930E081018010712000000C8160E08E5
:100420000E1302071000000040930E080C13010782
:100430000E00000068930E081013FF070F00000065
:1004400090930E080C13020710000000B8930E08DA
:100450000F1300070F000000E0930E0817130007AA
:1004600017000000F8300D080F1300070F00000000
:1004700008940E080E1300070E00000030940E08BA
:100480000C1301070E00000058940E08061902060E
:100490000A000000D8310F08091801060A00000000
:1004A000F8160E08061901060A000000F4310F08BC
:1004B0000F0A0207120000000C6D0F080E02001C4C
:1004C0000E00000068BA0F08050503050E000000C5
:1004D00014AA0F080A0E010C0D00000010320F08BC
:1004E0000B1402060E00000080940E080A0E010C88
:1004F0000C0000002C320F080B1401060E00000047
:10050000A8940E080B0E010C0D00000048320F08D5
:100510000914000608000000D0940E080B13010C0B
:100520000E000000F8940E080A1402060E000000E7
:1005300020950E080213020706000000206D0F0828
:100540000618FF0707000000EC550F080B14020601
:100550000C00000048950E08021402060600000078
:10056000346D0F08120E010C1500000060600E08BB
:100570000A0E020C0E00000064320F080C0E010C73
:100580000E00000080320F080B13020C0E0000005A
:1005900070950E080B13010C0E00000098950E08C4
:1005A000070E020C090000001C810F080A0E010C46
:1005B0000B0000009C320F08081200080800000021
:1005C000486D0F080A0E020C0E000000B8320F082A
:1005D0000C0E000C0C000000D4320F08130E000C9F
:1005E000130000008C600E080C0E000C0C000000C4
:1005F000F0320F080C13000C0C000000C0950E0820
:10060000090E010C0B0000000C330F080A1901063B
:100610000C00000074AC0D08021904060A0000006A
:1006200028330F080A1901060C000000A8AC0D08B9
:100630000E06020F12000000148F0F080101001AAD
:100640000800000077BE0F0802130307080000002F
:100650005C6D0F080B1601080E000000B8600E0854
:100660000B1301070E000000E8950E080C0C010C9E
:100670000E00000004560F080E1300070E000000C5
:1006800010960E08021904060A00000044330F08F1
:100690000B1801070E00000028170E0807020308B8
:1006A0000E000000F6BD0F08151501071700000029
:1006B00044FF0C08090C01070C0000001C560F0831
:1006C0000B0C010C0E00000034560F080E0902112D
:1006D00012000000706D0F080702011109000000F0
:1006E000F8BD0F08151501071700000084FF0C085E
:1006F0000E0200040E0000006CBA0F080909010781
:100700000C000000846D0F080E0F0209120000009B
:10071000B81C0F08090B02070C0000004C560F080C
:10072000080B02070C000000208F0F0805050505C7
:100730000E0000001CAA0F080A13020C0E00000095
:1007400038960E080B1701070E00000058170E0808
:100750000303030C0900000070BA0F080605041A11
:100760000E00000024AA0F08060B04070C0000006E
:100770002C8F0F080A0C01070C00000064560F08AC
:100780000B0C020C0E0000007C560F08141302071D
:100790001900000034310D0816130207190000007B
:1007A00070310D081513020719000000AC310D0857
:1007B0000A1301070C00000060960E080F190001D3
:1007C0000F000000DCAC0D080F1900010F00000045
:1007D00010AD0D080F1900010F00000044AD0D0809
:1007E0000F1800020F00000088170E080F160004F3
:1007F0000F000000E4600E080F1900010F00000058
:1008000078AD0D081613000717000000E8310D0839
:100810000D1801070F000000B8170E080B19020190
:100820000E000000ACAD0D080B1902010E00000017
:10083000E0AD0D080B1902010E00000014AE0D080A
:100840000B1702030E000000E8170E08061901013D
:100850000900000060330F080619010109000000BB
:100860007C330F08081900010900000098330F08B5
:10087000061701030900000094560F081013000723
:100880001100000088960E080D18020211000000E9
:1008900018180E08101901011200000048AE0D08CA
:1008A00010190101120000007CAE0D0810190101A1
:1008B00012000000B0AE0D08101801021200000076
:1008C00048180E08101701031200000078180E08CF
:1008D0000D0D030C12000000B4330F0810150106B3
:1008E0001200000010610E080C1902011000000037
:1008F000E4AE0D080C1902011000000018AF0D083D
:100900000C190201100000004CAF0D080C17020377
:1009100010000000A8180E080E1900010E000000BB
:1009200080AF0D080A1302070E000000B0960E08F3
:100930000B1402060E000000D8960E080A150105D9
:100940000D0000003C610E080A1501050D000000B5
:1009500068610E080A1501050D00000094610E087B
:100960000A1401060D00000000970E080A12010883
:100970000D00000060F50E080A1501050D000000CD
:10098000C0610E08140E010C16000000EC610E0888
:100990000A13010C0C00000028970E080B15010526
:1009A0000D00000018620E080B1501050D00000077
:1009B00044620E080B1501050D00000070620E0860
:1009C0000B1201080D00000084F50E080515000546
:1009D00006000000AC560F080515020506000000D1
:1009E000C4560F080615000506000000DC560F0867
:1009F0000613000706000000986D0F080C1301078E
:100A00000E00000050970E080A1402060E000000A7
:100A100078970E080C1501050E0000009C620E0868
:100A20000C1501050E000000C8620E080C1501052A
:100A30000E000000F4620E080C1401060E00000007
:100A4000A0970E080C1201080E000000A8F50E0871
:100A50000F0E020B12000000D0330F080C10010B18
:100A60000E000000D81C0F080A1502050E00000039
:100A700020630E080A1502050E0000004C630E08E4
:100A80000A1502050E00000078630E080A1202081B
:100A90000E000000CCF50E080C1A00050C0000003A
:100AA000B4AF0D080B1902060E000000E8AF0D08E8
:100AB0000C1700080C000000D8180E080F170003D0
:100AC0000F00000008190E080A1301070D000000AE
:100AD000C8970E080F1900010F0000001CB00D0888
:100AE0000A1401060D000000F0970E081018000708
:100AF0000F00000038190E080B13010C0D00000048
:100B000018980E080D1901010F00000050B00D08D3
:100B10000A1501050C000000A4630E080D1901015F
:100B20000F00000084B00D080A1501050C0000003C
:100B3000D0630E080D1701030F00000068190E089E
:100B40000A1201080C000000F0F50E080D19010151
:100B50000F000000B8B00D080A1501050C000000D8
:100B6000FC630E080E19020111000000ECB00D0824
:100B7000101401061100000040980E081013000721
:100B80001100000068980E080D1401060E00000008
:100B900090980E080B1702030E00000098190E081B
:100BA0000B1301070D000000B8980E080B19020185
:100BB0000E00000020B10D080B1401060D0000000E
:100BC000E0980E080B1702030E000000C8190E086B
:100BD0000B1201080D00000014F60E080B18020796
:100BE0000E000000F8190E080B13010C0D00000098
:100BF00008990E080B1902010E00000054B10D08EF
:100C00000B1501050D00000028640E080F190101E5
:100C10001100000088B10D080B1A01050E0000003C
:100C2000BCB10D080F19010111000000F0B10D0851
:100C30000B1901060E00000024B20D080F17010366
:100C400011000000281A0E080B1701080E00000002
:100C5000581A0E080F18010711000000881A0E0814
:100C60000B1A01050E00000058B20D080D19020103
:100C7000110000008CB20D080A1902010E000000DC
:100C8000C0B20D08121300071200000024320D0834
:100C90000C1400060E00000030990E08081900011F
:100CA00009000000EC330F080614000606000000DF
:100CB000AC6D0F080818000209000000F4560F0878
:100CC0000613000706000000C06D0F080619010199
:100CD0000900000008340F08061400060600000092
:100CE000D46D0F0806180107090000000C570F0803
:100CF000041801070600000024570F080617010317
:100D0000090000003C570F08020E020C060000000C
:100D10002C810F080F1301071200000058990E08CC
:100D2000091802070D000000B81A0E080919000181
:100D30000A000000F4B20D08081AFF0507000000C1
:100D400024340F080D1802070F000000E81A0E08DF
:100D50000B1902060C00000028B30D080B0E020C44
:100D60000C00000040340F080A1902010C000000BA
:100D70005CB30D0805190201060000005C340F0881
:100D80000A1802070C000000181B0E0805190106BE
:100D90000600000078340F080A1402060C00000058
:100DA00080990E080814020609000000E86D0F087B
:100DB0000A1302070C000000A8990E080814020686
:100DC0000B000000FC6D0F080D1300070D00000064
:100DD000D0990E080614000607000000106E0F08D8
:100DE0000D1902011100000090B30D080A1502054B
:100DF0000E00000054640E080D18020711000000D8
:100E0000481B0E080A13020C0E000000F8990E0889
:100E10000D19020111000000C4B30D080A150205E6
:100E20000E00000080640E081014FF061100000080
:100E3000209A0E080D18020711000000781B0E08FA
:100E40000A13020C0E000000489A0E081017010346
:100E500012000000A81B0E080C1301070E00000072
:100E6000709A0E081019010112000000F8B30D0865
:100E70000C1401060E000000989A0E0810190101CA
:100E8000120000002CB40D080C1501050E00000026
:100E9000AC640E08161301071800000060320D083C
:100EA000150E010C17000000D8640E080E1902017F
:100EB0001000000060B40D080715020509000000CD
:100EC00054570F080E18020710000000D81B0E0818
:100ED0000813010C09000000246E0F080E1902010E
:100EE0001000000094B40D08081502050900000068
:100EF0006C570F080C1901010E000000C8B40D0852
:100F00000A1501050B00000004650E080C1901010B
:100F10000E000000FCB40D080A1501050B000000CE
:100F200030650E080C1801070E000000081C0E08A2
:100F30000A13010C0B000000C09A0E080C190101E5
:100F40000E00000030B50D080A1501050B00000069
:100F50005C650E081018FF070F000000381C0E0813
:100F6000081700080800000084570F081019FF0137
:100F70000F00000064B50D080C1400060C00000002
:100F8000E89A0E081013FF070F000000109B0E08D0
:100F90000812000808000000386E0F080C18020242
:100FA00010000000681C0E080A1402060E00000063
:100FB000389B0E080C17020310000000981C0E0846
:100FC0000A1302070E000000609B0E080C190201B4
:100FD0001000000098B50D080A1402060E0000006B
:100FE000889B0E080C19020110000000CCB50D08FA
:100FF0000A1502050E00000088650E080D19020191
:101000001000000000B60D080A1502050E000000D1
:10101000B4650E080C18020710000000C81C0E086A
:101020000B13020C0E000000B09B0E0817190001F4
:1010300017000000A45F0C08131500051300000042
:10104000C4FF0C080E1900010E00000034B60D0894
:101050000C1A00050C00000068B60D080E170003FE
:101060000E000000F81C0E080C1901010E00000013
:101070009CB60D08091501050B000000E0650E087F
:101080000C1701030E000000281D0E0809120108AC
:101090000B00000038F60E080C1901010E000000CC
:1010A000D0B60D08091501050B0000000C660E08EE
:1010B00006140206060000004C6E0F080D14000610
:1010C0000E000000D89B0E0810130007110000004E
:1010D000009C0E080C1302070F000000289C0E084D
:1010E0000B1402060E000000509C0E080F130007A0
:1010F0000F000000789C0E080D1400060E00000082
:10110000A09C0E080D1301070F000000C89C0E08DC
:10111000111501050F00000004000D080E11010952
:101120000C0000005CF60E08101300071100000010
:10113000F09C0E0812130007130000009C320D08EB
:101140000C1301070F000000189D0E080B14010678
:101150000E000000409D0E080C13010C0E00000054
:10116000689D0E080B1301070E000000909D0E08ED
:101170001013010712000000B89D0E080C130107A0
:101180000D000000E09D0E080F18FE070D00000086
:10119000581D0E080E1500070E00000038660E08D8
:1011A000131501051100000044000D080F18000779
:1011B0000F000000881D0E08121402061600000021
:1011C000D8320D080214020606000000606E0F08F7
:1011D0000813000709000000746E0F080D130207C2
:1011E0000F000000089E0E080B1402060C00000001
:1011F000309E0E080614000607000000886E0F08D7
:101200000C1400060C000000589E0E081213020772
:101210001600000014330D081118FE07110000001D
:1012200008980C080A13020C0E000000809E0E089D
:101230001013010712000000A89E0E0812130107E8
:101240001300000050330D080D1101090E000000BD
:1012500080F60E08151801071700000050980C08BA
:101260000E13010C11000000D09E0E081013000791
:1012700010000000F89E0E080B1902060E00000078
:1012800004B70D080D1502070E00000064660E0875
:101290000C1301070E000000209F0E080A0E000C20
:1012A0000B00000094340F080D1301070E0000001E
:1012B000489F0E080D1900060E00000038B70D08F3
:1012C00008170008080000009C570F080F130007BC
:1012D0000F000000709F0E080814000608000000B0
:1012E0009C6E0F080E1800070F000000B81D0E08B6
:1012F00011160204120000008CD90C080E1102090C
:101300000F000000A4F60E081113010712000000E0
:101310008C330D080C13020710000000989F0E0874
:101320001113000711000000C8330D081118000741
:101330000C00000098980C080C1301070E00000028
:10134000C09F0E08090E010C0B000000B0340F08FE
:101350000C1800070D000000E81D0E080C1801070E
:101360000D000000181E0E080A13010C0B000000EF
:10137000E89F0E080913010C0B00000010A00E08D6
:101380000B1301070E00000038A00E080C13010714
:101390000E00000060A00E080A0E000C0B000000FA
:1013A000CC340F080B1200080C000000C8F60E0821
:1013B0000B13020C0E00000088A00E080219040690
:1013C0000A000000E8340F08061902060A000000AF
:1013D00004350F080E190206120000006CB70D0844
:1013E0000213030708000000B06E0F081C19020169
:1013F0001F000000B8940B08191502051C0000001E
:10140000DC2C0C08171501051900000084000D08DC
:10141000141302071800000004340D081118020705
:1014200015000000E0980C08081902060C000000E6
:1014300020350F08171302071B00000040340D0869
:10144000131802071700000028990C08111802074A
:101450001500000070990C080F1900010F00000022
:10146000A0B70D080A1501050D00000090660E08D2
:1014700008190001090000003C350F080815FF0598
:1014800006000000B4570F081019010112000000F7
:10149000D4B70D080C1501050E000000BC660E083F
:1014A0000C1902011000000008B80D080A15020509
:1014B0000E000000E8660E080C1902011000000082
:1014C0003CB80D080A1602040E00000014670E084E
:1014D0000C1902011000000070B80D080A16020471
:1014E0000E00000040670E080C19020110000000F9
:1014F000A4B80D080A1802020E000000481E0E08CB
:101500000C19020110000000D8B80D080A160204D8
:101510000E0000006C670E080B0E010C0D000000A1
:1015200058350F080F1900010F0000000CB90D0805
:101530000A1601040D00000098670E080F1900013B
:101540000F00000040B90D080A1601040D0000004C
:10155000C4670E081617000317000000B8990C089E
:1015600014130107160000007C340D081013010746
:1015700011000000B0A00E080C13010C0E000000BA
:10158000D8A00E080F1901011100000074B90D0850
:101590000B1A01050E000000A8B90D080D19020173
:1015A0000F000000DCB90D080B1902010C0000004F
:1015B00010BA0D081018010712000000781E0E085E
:1015C0000C13010C0E00000000A10E08101C0103FA
:1015D0001200000090790D080C1801070E000000A1
:1015E000A81E0E080C1E00010D000000B8340D08E6
:1015F0000A1A00050B00000044BA0D08081AFF057E
:101600000700000074350F081C1302071F000000BC
:10161000F05F0C08191302071C0000003C600C0866
:101620001714010619000000F4340D080F19010108
:101630001100000078BA0D080B1A01050E00000019
:10164000ACBA0D08151302071900000030350D085B
:101650000B1802070E000000D81E0E080D1902011B
:1016600011000000E0BA0D080A1502050E00000086
:10167000F0670E080F1900010F00000014BB0D08E1
:101680000A1701030D000000081F0E0816190001BB
:101690001700000088600C081415010516000000F2
:1016A000C4000D08101A01011200000048BB0D080B
:1016B0000C1601050E0000001C680E080F19000131
:1016C0000F0000007CBB0D080B1500050D0000008D
:1016D00048680E080F1900010F000000B0BB0D088C
:1016E0000A1401060D00000028A10E080B190201C2
:1016F0000E000000E4BB0D080B1501050D000000F5
:1017000074680E080B1902010E00000018BC0D08C9
:101710000B1401060D00000050A10E080A19FE016D
:10172000090000004CBC0D080A15FD05060000006C
:10173000A0680E08081900010900000090350F0884
:101740000814FF0606000000C46E0F0810190101FE
:101750001200000080BC0D080C1501050E000000F1
:10176000CC680E081019010112000000B4BC0D086D
:101770000C1401060E00000078A10E080F190101DB
:1017800010000000E8BC0D080A1500050900000063
:10179000F8680E080E190201100000001CBD0D08AB
:1017A0000814020609000000D86E0F080C19020187
:1017B0001000000050BD0D080B1501050E000000C3
:1017C00024690E080C1902011000000084BD0D08E8
:1017D0000A1402060E000000A0A10E080C18010752
:1017E0000E000000381F0E080A13010C0B00000049
:1017F000C8A10E081018FF070F000000681F0E0890
:101800000817000808000000CC570F080B18010744
:101810000D000000981F0E080A13000C0B000000BA
:10182000F0A10E080D19020111000000B8BD0D084D
:101830000A1902010E000000ECBD0D080D18020788
:1018400010000000C81F0E08121901061300000046
:10185000D4600C080D1301070F00000018A20E0839
:101860000B1301070D00000040A20E080D16010722
:101870000E00000050690E080A11010C0B00000058
:10188000ECF60E080F1700030F000000F81F0E08FB
:101890000A1201080D00000010F70E080B180207CD
:1018A0000E00000028200E080B13010C0D00000094
:1018B00068A20E08101901011200000020BE0D08D8
:1018C0000C1601040E0000007C690E0810190101BD
:1018D0001200000054BE0D080C1701030E0000009A
:1018E00058200E08101701031200000088200E086F
:1018F0000C1201080E00000034F70E081019010147
:101900001200000088BE0D080C1601040E00000035
:10191000A8690E080E1700030E000000B8200E087C
:101920000C1800070C000000E8200E080A19010638
:101930000B000000BCBE0D081113020C13000000C8
:101940006C350D080B1200080B00000058F70E084C
:101950000613FF0C07000000EC6E0F0814140106BC
:1019600016000000A8350D081413010C1600000025
:10197000E4350D08101600060F000000D4690E08AB
:10198000101601060F000000006A0E080C13010972
:101990000C00000090A20E080D13FF070C000000C1
:1019A000B8A20E081116FF060F000000D0D90C08CF
:1019B0000A13010C0B000000E0A20E080913010C31
:1019C0000B00000008A30E080D1400060E00000016
:1019D00030A30E080B1200070C0000007CF70E0865
:1019E0000D1301070F00000058A30E080E13010786
:1019F0001000000080A30E080F1300070F00000066
:101A0000A8A30E080B1802050E00000018210E08EE
:101A10000B1801070D00000048210E0809130007EC
:101A20000A000000D0A30E080718FF0707000000F7
:101A3000E4570F081318010712000000009A0C0861
:101A40000F13010C0E000000F8A30E080F1301077E
:101A50001000000020A40E08080E010C0900000070
:101A60003C810F080E1300070E00000048A40E086A
:101A70000C13000C0C00000070A40E080A0E020CDF
:101A80000D000000AC350F080B0E010C0E0000001D
:101A9000C8350F080B0E020C0E000000E4350F08CD
:101AA0000B1402060E00000098A40E080A0E010C8A
:101AB0000C00000000360F080B0E000C0C0000009C
:101AC0001C360F08101901060E000000F0BE0D08AC
:101AD000101401060E000000C0A40E080B0E010C2D
:101AE0000D00000038360F080B0E010C0D00000031
:101AF00054360F08110E010C120000002C6A0E085B
:101B00000A0E010C0B00000070360F080A0E000CC4
:101B10000B0000008C360F08100E000C10000000A7
:101B2000A8360F080B0E010C0D000000C4360F087C
:101B30000913FF0C08000000E8A40E0810190106A4
:101B40000E00000024BF0D080B13010C0E00000056
:101B500010A50E080B0E010C0D000000E0360F085A
:101B60000C13000C0C00000038A50E080F0E000C22
:101B70000F000000FC360F080A13020C0E000000D4
:101B800060A50E080A1402060E00000088A50E08C3
:101B90000A1902060E00000058BF0D0806130007C0
:101BA00006000000006F0F08020E020C0600000085
:101BB0004C810F08060E010C090000005C810F0823
:101BC0000A1400060A000000B0A50E08071400065B
:101BD00007000000146F0F08061902060600000037
:101BE00018370F080B1902060E0000008CBF0D08F5
:101BF000120E010C15000000586A0E081213010C99
:101C00001500000020360D081213010C150000000D
:101C10005C360D080F13FD0C0E000000D8A50E0851
:101C20000E13020C0E00000000A60E080A0E020C95
:101C30000E00000034370F080C0E010C0E000000DF
:101C400050370F08110E010C14000000846A0E08B2
:101C5000100E010C120000006C370F080C19010661
:101C60000E000000C0BF0D08070E000C09000000A8
:101C70006C810F080714000609000000286F0F0888
:101C80000C13000C0900000028A60E080713020C14
:101C9000090000003C6F0F080713020C0900000048
:101CA000506F0F08070E020C090000007C810F081E
:101CB0000713000C09000000646F0F080B0E020CE4
:101CC0000D00000088370F080B0E020C0D000000FD
:101CD000A4370F080A13010C0B00000050A60E08D1
:101CE0000C1901060E000000F4BF0D080C19FF06C8
:101CF0000800000028C00D080C13010C0E000000A5
:101D000078A60E080D1900060E0000005CC00D0834
:101D10000812000808000000786F0F080817000874
:101D200008000000FC570F080E0E000C0E0000000B
:101D3000C0370F080C0E020C10000000DC370F0833
:101D40000A0E020C0E000000F8370F080C0E000CF3
:101D50000C00000014380F08130E000C13000000D4
:101D6000B06A0E080C1300070C000000A0A60E08B5
:101D70000B0E000C0B00000030380F080E13010C86
:101D80000B000000C8A60E080D10010C0E0000008C
:101D9000F81C0F080A13000C0B000000F0A60E0838
:101DA0000B13000C0B00000018A70E080B14000604
:101DB0000C00000040A70E080B1401060C000000E8
:101DC00068A70E080B1400060C00000090A70E0870
:101DD0000B13010C0C000000B8A70E08101301072C
:101DE00012000000E0A70E080A0E020C0D00000011
:101DF0004C380F080B0E010C0D00000068380F085E
:101E00000F1101090D000000A0F70E080A0E020CC8
:101E10000E00000084380F080A1800070A000000AE
:101E200078210E080B13FF0C0C00000008A80E0808
:101E3000080E020C0A0000008C810F081019010620
:101E40000E00000090C00D080B1400060C000000EE
:101E500030A80E080B1401060C00000058A80E084C
:101E6000141401061600000098360D081419010616
:101E70001600000020610C08181601061900000069
:101E800014DA0C081112000811000000C8790D08BE
:101E90000F1900060E000000C4C00D081112000842
:101EA00012000000007A0D0812190006140000004C
:101EB0006C610C080E1402061000000080A80E08C9
:101EC0000B1402060E000000A8A80E080B13010751
:101ED0000C000000D0A80E080A1202080E00000034
:101EE000C4F70E080F13000C11000000F8A80E082C
:101EF0001313000C13000000D4360D08080D010860
:101F00000A0000009C810F08080D01080A0000006B
:101F1000AC810F080510000806000000BC810F0806
:101F20000509010C06000000388F0F080509000C98
:101F300006000000448F0F08080C000C060000008B
:101F4000508F0F080809010C090000005C8F0F0872
:101F50000C09000C0C0000008C6F0F08090C000C21
:101F60000900000014580F080508020707000000C8
:101F70002CAA0F080A0801070C000000CC810F08EA
:101F80000507FF060500000034AA0F080507010633
:101F9000050000003CAA0F080507FF060500000029
:101FA00044AA0F08040705050E0000004CAA0F08FC
:101FB000040705050E00000054AA0F08070D0108CC
:101FC00009000000DC810F08070D0108090000006E
:101FD000EC810F080D0E020B12000000A0380F0854
:101FE0000D0E030B12000000BC380F080E0D020C82
:101FF00012000000D8380F080E0D020C120000006D
:10200000F4380F08080503050E0000005CAA0F084D
:10201000080503050E00000064AA0F080205060566
:102020000E0000006CAA0F08090202070E00000053
:1020300074BA0F08050505050E00000074AA0F0804
:10204000050503050E0000007CAA0F080204061B0C
:102050000E00000078BA0F080902021D0E000000F1
:102060007CBA0F080505031A0E00000084AA0F08A9
:102070000505061A0E0000008CAA0F08030E030CBB
:1020800009000000FC810F08030303110900000090
:1020900080BA0F080407050F0E00000094AA0F086D
:1020A0000407050F0E0000009CAA0F080604011487
:1020B0000800000084BA0F0806040114080000009C
:1020C00088BA0F0806040114080000008CBA0F0833
:1020D000090202140E00000090BA0F08080503065A
:1020E0000E000000A4AA0F08020206080E0000005D
:1020F000FABD0F08070703050E000000ACAA0F0881
:102100000405041A0E000000B4AA0F080A0402060F
:102110000E000000BCAA0F080A0503050E0000000F
:10212000688F0F080705001108000000C4AA0F08F7
:10213000080801070A000000CCAA0F08080C000CD0
:1021400008000000748F0F08020D01080400000051
:102150000C820F080709010C09000000808F0F088E
:102160000709000C080000008C8F0F08070D0108FC
:10217000090000001C820F08061202080A00000075
:10218000A06F0F08061202080A000000B46F0F08C3
:10219000061202080A000000C86F0F0806120208A3
:1021A0000A000000DC6F0F08061202080A00000097
:1021B000F06F0F08060B010F08000000988F0F0842
:1021C000060B010F08000000A48F0F080805031A72
:1021D0000E000000D4AA0F08070303070E0000003A
:1021E00094BA0F080A0701060A0000002C820F08A3
:1021F0000503041B0E00000098BA0F080503041B1A
:102200000E0000009CBA0F080305051A0E0000001E
:10221000DCAA0F080305051A0E000000E4AA0F0847
:102220000404051B0E000000A0BA0F0805050311E9
:102230000E000000ECAA0F080A0501110E000000B4
:10224000B08F0F080A0503110E000000BC8F0F08A5
:102250000A04021B0E000000F4AA0F08030D030776
:10226000090000003C820F08050504070E0000006D
:10227000FCAA0F08050505070E00000004AB0F08B7
:10228000050504150E0000000CAB0F08050505152B
:102290000E00000014AB0F080905021A0E00000022
:1022A000C88F0F080905021A0E000000D48F0F080E
:1022B00006070118080000001CAB0F080505F7050C
:1022C0000000000024AB0F080505F8050000000021
:1022D0002CAB0F080805FC050000000034AB0F080C
:1022E0000A04F401000000003CAB0F080902FB07E0
:1022F00000000000A4BA0F080E02F904000000005C
:10230000A8BA0F080805FC060000000044AB0F083F
:102310000202FF0800000000FCBD0F080802FC08D4
:1023200000000000FEBD0F080405050500000000C8
:102330004CAB0F080707FC050000000054AB0F086A
:102340000A05FB0500000000E08F0F080805FC05EA
:10235000000000005CAB0F080205FF050000000054
:1023600064AB0F080505FE05000000006CAB0F080C
:102370000A05FB0500000000EC8F0F080807FC04AD
:102380000000000074AB0F080805FC060000000008
:102390007CAB0F080205FF060000000084AB0F08AD
:1023A0000205FF06000000008CAB0F080205FF06C7
:1023B0000000000094AB0F080205010600000000B9
:1023C0009CAB0F080505FD1A00000000A4AB0F0828
:1023D0000505FD1A00000000ACAB0F080504FE1B4C
:1023E00000000000ACBA0F080504FE1B000000004E
:1023F000B0BA0F080906FB0400000000F88F0F08B0
:102400000406000300000000B4AB0F080204FF1B29
:1024100000000000B4BA0F080604FD1B0000000015
:10242000B8BA0F080604FD1B00000000BCBA0F0874
:102430000604FD1B00000000C0BA0F080902FB1DC6
:1024400000000000C4BA0F080607FC1800000000D6
:10245000BCAB0F080607001800000000C4AB0F0853
:102460000202061C0000000000BE0F080802FC1D4E
:102470000000000002BE0F080404FE1B0000000064
:10248000C8BA0F080204FF1B00000000CCBA0F08F6
:102490000605FD1A00000000CCAB0F080405FE1A6B
:1024A00000000000D4AB0F080204FF1B0000000076
:1024B000D0BA0F080904FB1B00000000DCAB0F08BA
:1024C0000903FC1C00000000E4AB0F080804FC1B1F
:1024D00000000000D4BA0F080804FC1B0000000034
:1024E000D8BA0F080804FC1B00000000DCBA0F0873
:1024F0000804FC1B00000000E0BA0F080A04FB1BE4
:1025000000000000ECAB0F080902FB1D00000000FA
:10251000E4BA0F080E02F91C00000000E8BA0F0828
:102520000A04FB1B00000000F4AB0F080A04FB0EBA
:1025300000000000FCAB0F080902FB1000000000C7
:10254000ECBA0F080E02F91000000000F0BA0F08F4
:102550000A09FB0D0000000004700F080918FB06B3
:1025600000000000A8210E080204FF1B000000006C
:10257000F4BA0F080904FB1B0000000004AC0F08AC
:102580000404FE1B00000000F8BA0F080903FC1C3D
:10259000000000000CAC0F080606FD030000000060
:1025A00014AC0F080206FF04000000001CAC0F086A
:1025B0000E05F9010000000004900F080A04FB0654
:1025C0000000000024AC0F080205FF060000000018
:1025D0002CAC0F080905FC050000000010900F0846
:1025E0000304FE1B00000000FCBA0F080904FB05F1
:1025F0000000000034AC0F080E04F91B00000000BE
:102600003CAC0F080504FE1B0000000000BB0F08D7
:102610000504FE1B0000000004BB0F080A06FB05B2
:10262000000000001C900F080A08FB0300000000D7
:102630004C820F080A06FB040000000028900F08D7
:102640000604FD1B0000000008BB0F080604FD1B6C
:10265000000000000CBB0F081211F7090000000079
:10266000F8C00D080305FD050000000044AC0F088C
:102670000407FE05000000004CAC0F080807FC042E
:102680000000000054AC0F080505FD1A0000000012
:102690005CAC0F080305FF1A0000000064AC0F08D3
:1026A0000305FE1A000000006CAC0F080805FD1AB7
:1026B0000000000074AC0F080407FE0500000000D5
:1026C0007CAC0F08020206080000000004BE0F08E0
:1026D0000504FE1B0000000010BB0F080704FD1BD3
:1026E0000000000014BB0F080405FE0600000000F7
:1026F00084AC0F081305F61A000000005C820F0876
:102700001305FE06000000006C820F081302FE068F
:10271000000000008CAC0F081302FE1D000000003A
:1027200094AC0F081304FE060000000034900F085C
:102730001305FE06000000007C820F080E04FE1B3D
:10274000000000009CAC0F080507FD04000000001D
:10275000A4AC0F080607FD0400000000ACAC0F0895
:102760000109FF020000000040900F080607FD0469
:1027700000000000B4AC0F080507FD0400000000D5
:10278000BCAC0F080507FD0400000000C4AC0F0836
:10279000060AFD01000000004C900F08050AFD012B
:1027A0000000000058900F080907FB04000000001B
:1027B0008C820F080307FE0400000000CCAC0F0859
:1027C0000409FE020000000064900F080507FD04E4
:1027D00000000000D4AC0F080507FD040000000055
:1027E000DCAC0F08040505050E000000E4AC0F0882
:1027F0000404051B0E00000018BB0F080304051B92
:102800000E0000001CBB0F080A0E010C0C0000009B
:1028100010390F080A0E010C0C0000002C390F08AB
:102820000A0E010C0C00000048390F080513020CB9
:102830000900000018700F08030505050E000000D0
:10284000ECAC0F08090502050E00000070900F089F
:102850000F1300070F00000020A90E080303030C4C
:102860000900000020BB0F08101300071100000032
:1028700048A90E08121300071400000010370D08B5
:102880000A1300070C00000070A90E0813130007BC
:10289000140000004C370D0812130007120000004E
:1028A00088370D081413000714000000C4370D0802
:1028B0000815FF05060000002C580F080F1300072D
:1028C0000F00000098A90E080C1302070F0000006B
:1028D000C0A90E080B1302070D000000E8A90E089E
:1028E0000F1300070F00000010AA0E080B130207B9
:1028F0000E00000038AA0E080C1301070E0000009D
:1029000060AA0E080D1302071100000088AA0E0825
:102910001013010712000000B0AA0E0806130107E9
:10292000090000002C700F080D1302070F000000B3
:10293000D8AA0E080F1300070F00000000AB0E0806
:102940000F1302071300000028AB0E080D13020737
:102950001100000050AB0E080C1301070E00000020
:1029600078AB0E081013010712000000A0AB0E0890
:102970000D13020711000000C8AB0E080C1302076C
:102980000E000000F0AB0E080D1301070E00000052
:1029900018AC0E081013FF070F00000040AC0E0823
:1029A0000E1300070E00000068AC0E08101301079C
:1029B0001300000090AC0E080F1300070F0000007A
:1029C000B8AC0E081013020714000000E0AC0E08AB
:1029D000111301071200000000380D08061701034B
:1029E0000900000044580F080E1700030E000000F5
:1029F000D8210E080B1501050E000000DC6A0E0838
:102A00000A1501050B000000086B0E080A1A0205E2
:102A10000E0000002CC10D08031502050600000081
:102A20005C580F080A1502050E000000346B0E08F2
:102A30000B0E010C0E00000064390F080B19020682
:102A40000E00000060C10D080C13000C0C0000000B
:102A500008AD0E080C1401060E00000030AD0E0883
:102A60000A0E010C0B00000080390F080A1901063C
:102A70000A00000094C10D080A13020C0E000000A9
:102A800058AD0E080C1401060E00000080AD0E08B3
:102A9000020E020C060000009C820F080A0E020CB7
:102AA0000C0000009C390F080C1400060C000000FC
:102AB000A8AD0E080A13020C0E000000D0AD0E08DF
:102AC0000C0E000C0C000000B8390F080B190106A1
:102AD0000B000000C8C10D080C0E010C0E00000018
:102AE000D4390F080A0E020C0E000000F0390F084E
:102AF0000B13020C0E000000F8AD0E080A13010CB7
:102B00000B00000020AE0E080E0E010C0F0000009E
:102B10000C3A0F080C0E000C0C000000283A0F08AD
:102B20000A0E020C0E000000443A0F081013010CAC
:102B30001200000048AE0E080C13000C0C00000040
:102B400070AE0E080E13020C1200000098AE0E08B4
:102B5000100E010C12000000603A0F080613000767
:102B60000600000040700F080A1202080E00000064
:102B7000E8F70E080C1501050E000000606B0E084A
:102B80000A1502050E0000008C6B0E0810150105D9
:102B900012000000B86B0E080B1402060E000000B5
:102BA000C0AE0E080C1402060E000000E8AE0E08BF
:102BB00012130007110000003C380D08161500051F
:102BC0001500000004010D08121700031100000099
:102BD000489A0C080C1901060E000000FCC10D08F3
:102BE000100E010C120000007C3A0F080E13000CAE
:102BF0000E00000010AF0E081018010712000000B0
:102C000008220E080C13010C0E00000038AF0E084D
:102C10000D1801070F00000038220E080B13010CDD
:102C20000C00000060AF0E080B1302070D0000003F
:102C300088AF0E080813020C0B00000054700F0838
:102C40000F13010710000000B0AF0E080B140106AF
:102C50000D000000D8AF0E08121800071300000086
:102C6000909A0C080D1900060E00000030C20D08E5
:102C70001218020716000000D89A0C081213010C53
:102C80001500000078380D080D1301071000000032
:102C900000B00E080A1402060E00000028B00E084C
:102CA0000D1802071000000068220E080D0E000C1F
:102CB0000D000000983A0F080C1301070E000000E9
:102CC00050B00E080C1401060E00000078B00E087B
:102CD0000F1300070F000000A0B00E080F0E000C2D
:102CE0000F000000B43A0F08101301071200000093
:102CF000C8B00E080C0E010C0E000000D03A0F08F0
:102D00000C1300070C000000F0B00E080A140006B7
:102D10000A00000018B10E080E0E000C0E00000094
:102D2000EC3A0F080C13010C0E00000040B10E0825
:102D30000A0E010C0C000000083B0F080618FF07E4
:102D40000700000074580F0810130107120000005C
:102D500068B10E080B0E010C0C000000243B0F089C
:102D60000B0E000C0C000000403B0F080A1302077A
:102D70000E00000090B10E080B1902060E000000B4
:102D800064C20D080E13FF0C0E000000B8B10E084F
:102D90000D1301070F000000E0B10E080D1301072D
:102DA0000F00000008B20E080D1301070F0000000D
:102DB00030B20E080B1902010E00000098C20D0877
:102DC0000B1702030E00000098220E0811130007D3
:102DD00012000000B4380D080B1902010D000000AC
:102DE000CCC20D080D1301070F00000058B20E08E9
:102DF0000C1301070E00000080B20E080613010735
:102E00000900000068700F080617010309000000A0
:102E10008C580F08081300070A0000007C700F0888
:102E20001913000719000000B8610C0817130207F6
:102E300019000000F0380D081113000712000000FF
:102E40002C390D080D1902010F00000000C30D08F8
:102E50000D1902011100000034C30D080E18000204
:102E60000E000000C8220E080D1702071100000016
:102E7000F8220E080F1300070F000000A8B20E087A
:102E80000C1302070F000000D0B20E080C1302074B
:102E90000F000000F8B20E080B1302070D0000002F
:102EA00020B30E08101700071100000028230E0899
:102EB0000B1302070E00000048B30E08161300079C
:102EC0001600000068390D080C1300070D00000003
:102ED00070B30E080D1302071100000098B30E081E
:102EE0000D1802021100000058230E080D130207EE
:102EF0000F000000C0B30E080F1300071100000000
:102F0000E8B30E080F1302071300000010B40E08F8
:102F10000D1302071100000038B40E08101301074A
:102F20001200000060B40E080D130207110000002B
:102F300088B40E080C1302070E000000B0B40E088F
:102F40000D1301070F000000D8B40E081013FF077F
:102F50000F00000000B50E080E1300070E00000061
:102F600028B50E08101301071300000050B50E0815
:102F70000F1300070F00000078B50E080E170207A8
:102F80001100000088230E080D1301071000000037
:102F9000A0B50E081413020718000000A4390D088C
:102FA0001617020718000000209B0C0811130007D9
:102FB00011000000E0390D08101302071400000092
:102FC000C8B50E080D1302070F000000F0B50E087B
:102FD0000D1301070F00000018B60E0815130207A5
:102FE000180000001C3A0D080D1300070F00000028
:102FF00040B60E080A0E010C0D0000005C3B0F08E5
:103000000C1401060E00000068B60E080A0E020C31
:103010000D000000783B0F08080E020C0A000000AB
:10302000AC820F080D11000C0E0000000CF80E0809
:103030000B0E010C0D000000943B0F08120E000C4B
:1030400012000000E46B0E080A0E000C0B000000DA
:10305000B03B0F080A0E020C0E000000CC3B0F081C
:103060000A1402060E00000090B60E080A0E020CAA
:103070000C000000E83B0F080C0E000C0E000000D6
:10308000043C0F080C0E020C10000000203C0F083E
:103090000A0E020C0E0000003C3C0F080C0E010C46
:1030A0000E000000583C0F080A0E020C0E00000033
:1030B000743C0F080B13020C0E000000B8B60E088B
:1030C0000A0E010C0C000000903C0F080C0E000CC6
:1030D0000C000000AC3C0F080C13000C0C000000AE
:1030E000E0B60E08121900061300000004620C0876
:1030F0000C0E000C0C000000C83C0F080B11020C59
:103100000E00000030F80E080B0E010C0E0000003F
:10311000E43C0F08100E010C13000000003D0F08E6
:103120001111020C1400000068C30D080D0E000CF4
:103130000E0000001C3D0F080D0E020C11000000D7
:10314000383D0F080A0E020C0D000000543D0F0818
:103150000A0E010C0C000000703D0F08100E020C4E
:10316000130000008C3D0F080B0E000C0D0000003A
:10317000A83D0F080B1501050D000000106C0E088E
:103180000B1201080D00000054F80E080C1900067F
:103190000E0000009CC30D08081502050A0000007F
:1031A000A4580F080A0E010C0C000000C43D0F08C3
:1031B0000A0E010C0B000000E03D0F08021302078D
:1031C0000600000090700F080613000706000000BC
:1031D000A4700F080618FF0707000000BC580F086E
:1031E000140E000C150000003C6C0E08120E020CB0
:1031F00015000000686C0E080C1400060E0000009C
:1032000008B70E080A1502050C000000946C0E08A1
:103210000A1502050E000000C06C0E080C1900060D
:103220000C000000D0C30D080A11020C0E000000B3
:1032300078F80E081B1301071D00000050620C08EF
:10324000120E000C12000000EC6C0E0810130007A8
:103250001100000030B70E080D1400060E0000002B
:1032600058B70E081213020715000000583A0D084F
:103270000E0E020C11000000FC3D0F080F1300079A
:103280000F00000080B70E080C0E000C0C000000B0
:10329000183E0F081213020714000000943A0D089C
:1032A0000F0E020C11000000343E0F08141300072B
:1032B00014000000D03A0D080F0E000C0F000000A3
:1032C000503E0F0817130207190000000C3B0D08B1
:1032D000130E020C15000000186D0E080B1E0101E4
:1032E0000D000000483B0D080A1A00050B00000005
:1032F00004C40D081013020714000000A8B70E083C
:103300000E13020C12000000D0B70E0810130107B4
:1033100012000000F8B70E080C0E010C0E000000A1
:103320006C3E0F081313000712000000843B0D08C9
:10333000100E000C0F000000883E0F08131900014A
:10334000120000009C620C08101500050F00000020
:10335000446D0E081C1801071D00000048C50B082D
:103360001813010C19000000C03B0D0813150106CD
:103370001500000044010D080F10010B11000000A2
:10338000181D0F081519010117000000E8620C084C
:103390001117010313000000689B0C081B170103A1
:1033A0001D00000088030C08121200081200000023
:1033B000387A0D080D1801070F000000B8230E0819
:1033C0000A13010C0C00000020B80E080C130007B3
:1033D0000C00000048B80E080805030600000000B5
:1033E000F4AC0F080903020700000000FCAC0F0852
:1033F000020506060000000004AD0F0802050606DF
:10340000000000000CAD0F080A04030610000000C5
:1034100014AD0F081816F4080000000058DA0C0864
:103420001818F40700000000B09B0C080F1C0202E3
:1034300011000000707A0D080C1702060E00000043
:10344000E8230E080F1300070F00000070B80E08E5
:103450000C1400060D00000098B80E080D130207AA
:103460000E000000C0B80E080C13020C0E00000085
:10347000E8B80E080B1802020D00000018240E0810
:10348000081302070A000000B8700F080C130107A8
:103490000D00000010B90E08090E010C0A00000012
:1034A000A43E0F080B1802070E00000048240E0867
:1034B0000A13020C0D00000038B90E081617000799
:1034C00017000000F89B0C081211000C13000000FC
:1034D00038C40D080C1800070D00000078240E08F1
:1034E0000A13000C0B00000060B90E080E1702074B
:1034F00010000000A8240E080A11020C0D000000A4
:103500009CF80E080D1302070F00000088B90E0882
:103510000A0E020C0C000000C03E0F080F1300073B
:103520000F000000B0B90E080C1400060C000000DB
:10353000D8B90E081213000712000000FC3B0D085A
:103540000E0E000C0E000000DC3E0F080F170207E5
:1035500011000000D8240E080B11020C0E00000010
:10356000C0F80E081213020714000000383C0D08C2
:103570000E0E020C10000000F83E0F08161802078D
:1035800019000000409C0C081213020C15000000EA
:10359000743C0D081114010712000000B03C0D0826
:1035A0000D0F010C0E000000381D0F080D1801074B
:1035B0000F00000008250E080A13010C0C00000083
:1035C00000BA0E081017FF070F00000038250E087C
:1035D0000C11000C0C000000E4F80E080E1300079C
:1035E0000E00000028BA0E080C13000C0C0000009E
:1035F00050BA0E080E1300070E00000078BA0E082D
:103600000C13000C0C000000A0BA0E080F170007E6
:103610000F00000068250E080C11000C0D000000C2
:1036200008F90E081317000714000000889C0C0806
:103630000F11000C100000002CF90E080F170107E5
:103640001000000098250E080C11010C0E0000005F
:1036500050F90E080D13010710000000C8BA0E083B
:103660000B0E010C0E000000143F0F080C13020794
:1036700010000000F0BA0E080A1402060E00000046
:1036800018BB0E081413000715000000EC3C0D08D1
:103690000F0E000C10000000303F0F081417000739
:1036A00015000000D09C0C080F11000C1000000049
:1036B00074F90E080613010709000000CC700F080A
:1036C000161900011600000034630C0812140006DD
:1036D00012000000283D0D080C1802070F00000022
:1036E000C8250E080913020C0C00000040BB0E0890
:1036F0001117000711000000189D0C080E11000C96
:103700000E00000098F90E080D18020711000000C5
:10371000F8250E080A13020C0E00000068BB0E0804
:103720000F1702071100000028260E080C11020CCA
:103730000E000000BCF90E080D1701071000000074
:1037400058260E080B11010C0E000000E0F90E08BF
:103750001117020713000000609D0C080E11020CE7
:103760001000000004FA0E08021402060600000011
:10377000E0700F080F1900010F0000006CC40D0865
:103780000A1401060D00000090BB0E080F1600047D
:103790000F000000706D0E080A1201080D000000F5
:1037A00028FA0E081613000717000000643D0D08E4
:1037B000140E010C160000009C6D0E080B1902017E
:1037C0000E000000A0C40D080B1401060D0000003F
:1037D000B8BB0E081013010712000000E0BB0E0872
:1037E0000B0E010C0D0000004C3F0F0810160104D9
:1037F00012000000C86D0E080B1201080D00000039
:103800004CFA0E0816160004160000009CDA0C088C
:103810001212000812000000A87A0D080C1600040D
:103820000D000000F46D0E080A1200080B000000E5
:1038300070FA0E080C1300070D00000008BC0E08FB
:103840000A13000C0B00000030BC0E080D17020319
:103850001100000088260E080A1302070E0000005F
:1038600058BC0E080D16020411000000206E0E0850
:103870000A1202080E00000094FA0E081017010345
:1038800012000000B8260E080C1201080E000000FD
:10389000B8FA0E08101301071200000080BC0E08D1
:1038A0000C0E010C0E000000683F0F0810170103FA
:1038B00012000000E8260E080C1201080E0000009D
:1038C000DCFA0E080D1601040F0000004C6E0E0805
:1038D0000A1201080C00000000FB0E080E1700037E
:1038E0000E00000018270E080C1800070C0000003E
:1038F00048270E080E1600040E000000786E0E0811
:103900000C1700080C00000078270E080E190001A3
:103910000E000000D4C40D080C1A00050C000000B5
:1039200008C50D080D16010410000000A46E0E0855
:103930000B1201080E00000024FB0E080B170207F3
:103940000D000000A8270E080812020C0A00000053
:10395000F4700F081016020414000000D06E0E0858
:103960000D1202081100000048FB0E080D18000798
:103970000D000000D8270E080A13000C0A000000F2
:10398000A8BC0E08101800070F00000008280E0839
:103990000C13000C0C000000D0BC0E080F13000725
:1039A0000F000000F8BC0E080C0E000C0C0000000C
:1039B000843F0F080D1300070F00000020BD0E0804
:1039C0000B1401060E00000048BD0E081513000779
:1039D00017000000A03D0D0813140106160000009A
:1039E000DC3D0D081413010717000000183E0D08F8
:1039F000120E010C15000000FC6E0E080E170107D8
:103A00000F00000038280E080B11010C0D000000FB
:103A10006CFB0E081713000719000000543E0D0838
:103A2000140E000C16000000286F0E081513020774
:103A300019000000903E0D08120E020C1600000046
:103A4000546F0E080F1301071100000070BD0E081F
:103A50000B0E010C0D000000A03F0F081113000712
:103A600013000000CC3E0D080F0E000C11000000EA
:103A7000BC3F0F080C1301070D00000098BD0E0895
:103A80000A0E010C0B000000D83F0F080F180007AA
:103A90001100000068280E080C13000C0E00000036
:103AA000C0BD0E08101801071200000098280E086B
:103AB0000B13010C0E000000E8BD0E0817130007E1
:103AC00017000000083F0D08130E000C1300000043
:103AD000806F0E08101302071200000010BE0E08BF
:103AE0000D1302071000000038BE0E081013000767
:103AF0001000000060BE0E08111300071100000046
:103B0000443F0D080D1302071000000088BE0E0888
:103B10000D1301070F000000B0BE0E080C130207C2
:103B20000F000000D8BE0E080D13020710000000A1
:103B300000BF0E081213020714000000803F0D089A
:103B40000F1301071000000028BF0E080C13020716
:103B50000F00000050BF0E080A1302070C000000FF
:103B600078BF0E081213020716000000BC3F0D08B4
:103B70001013000710000000A0BF0E080C1302076E
:103B800010000000C8BF0E080B1301070D00000055
:103B9000F0BF0E080E1300070F00000018C00E083B
:103BA0001113000711000000F83F0D080D13020764
:103BB0001100000040C00E081013020712000000A0
:103BC00068C00E080E1301071000000090C00E0818
:103BD0001013000711000000B8C00E080D130107F4
:103BE0000F000000E0C00E080C13020710000000D8
:103BF00008C10E080D1301070F00000030C10E08A8
:103C00000F1300071100000058C10E080D13010723
:103C10000F00000080C10E08101302071200000000
:103C2000A8C10E080C13020710000000D0C10E0836
:103C3000111300071100000034400D080F13000796
:103C400010000000F8C10E080C1302070F0000005E
:103C500020C20E080F1301071100000048C20E0811
:103C60000A1302070D00000070C20E0810130107AE
:103C70001300000098C20E080E1300070F0000008A
:103C8000C0C20E081013010712000000E8C20E089F
:103C90000F1300071000000010C30E0802050106F4
:103CA000050000001CAD0F0802050106050000001C
:103CB00024AD0F0805050106080000002CAD0F0813
:103CC000070A0106090000007C900F08050501069F
:103CD0000800000034AD0F080706010609000000C7
:103CE0003CAD0F080A0601030C00000088900F0885
:103CF000110E020C15000000AC6F0E080A13020C26
:103D00000E00000038C30E080E13010C0F00000057
:103D100060C30E080D13020C0F00000088C30E08CC
:103D20000A1402060E000000B0C30E080E13010CA8
:103D30000F000000D8C30E080A1402060D00000090
:103D400000C40E080A13020C0E00000028C40E085E
:103D50000F13020C1100000050C40E080E140106CF
:103D60000F00000078C40E080A1902060E000000B9
:103D70003CC50D080613020C0800000008710F086E
:103D8000121902061600000080630C080D140106CB
:103D90000E000000A0C40E080A1902060E00000062
:103DA00070C50D080A1402060E000000C8C40E08F3
:103DB0000A1401060C000000F0C40E080D13020CDA
:103DC0000F00000018C50E080B1401060C000000BF
:103DD00040C50E080D1402060F00000068C50E084D
:103DE0000613000C080000001C710F080D140006DB
:103DF0000F00000090C50E080A13000C0B00000015
:103E0000B8C50E080A0E020C0E000000F43F0F08A1
:103E10000A13000C0B000000E0C50E081113020C81
:103E20001500000070400D080B13000C0C00000082
:103E300008C60E080B0E020C0E00000010400F0802
:103E40000A0E020C0E0000002C400F080D1902068D
:103E50000F000000A4C50D08110E020C1500000093
:103E6000D86F0E080A13020C0E00000030C60E08B0
:103E70000B13010C0E00000058C60E08080E020CB1
:103E80000A000000BC820F0811190206150000008C
:103E9000CC630C080E13000C0F00000080C60E0847
:103EA0000C0E010C0E00000048400F08101900060F
:103EB00011000000D8C50D080D1402060F00000007
:103EC000A8C60E08030E030C09000000CC820F08E0
:103ED000070301100900000024BB0F080505FE1AA6
:103EE0000000000044AD0F080803FC0600000000BD
:103EF00028BB0F080306FE03000000004CAD0F08AE
:103F00000205FF040000000054AD0F080405FE0484
:103F1000000000005CAD0F080405FE1A0000000060
:103F200064AD0F080303FF06000000002CBB0F0860
:103F30000704FC050000000030BB0F080405FC046A
:103F4000000000006CAD0F080303001B0000000020
:103F500034BB0F080405FE1A0000000074AD0F0802
:103F60000405FE04000000007CAD0F0804050004F9
:103F70000000000084AD0F080805FC0400000000EC
:103F80008CAD0F080E06F9030000000094900F0896
:103F9000060600030000000094AD0F080405FE04AF
:103FA000000000009CAD0F080505FE1A000000008F
:103FB000A4AD0F080304FF1B0000000038BB0F086E
:103FC0000303FE1B000000003CBB0F080405FE1AA3
:103FD00000000000ACAD0F080805FC1A000000004E
:103FE000B4AD0F080305FE1A00000000BCAD0F08B9
:103FF0000405FE0400000000C4AD0F080606FA0325
:1040000000000000CCAD0F080505FE1A00000000FE
:10401000D4AD0F080303FE060000000040BB0F08EC
:104020000304FF050000000044BB0F080405001A4C
:1040300000000000DCAD0F080704F90500000000D7
:1040400048BB0F080303FE06000000004CBB0F082E
:104050000205061A00000000E4AD0F080805031A67
:1040600000000000ECAD0F080605041A0000000077
:10407000F4AD0F080605041A00000000FCAD0F089F
:104080000202061B0000000006BE0F080502041B0A
:104090000000000008BE0F080505051A000000001A
:1040A00004AE0F080301051B0000000078BE0F08D6
:1040B0000503041B0000000050BB0F0802020608A5
:1040C000000000000ABE0F08020203070000000003
:1040D0000CBE0F080805031A000000000CAE0F0804
:1040E00002020612000000000EBE0F080103061BAC
:1040F0000000000054BB0F080602020B0A0000007B
:1041000010BE0F08030105080000000079BE0F086B
:10411000021302090600000030710F0802020608AF
:104120000000000012BE0F080202FF08000000009D
:1041300014BE0F08030F030B09000000DC820F08F8
:10414000020201070000000016BE0F080202FF1C59
:104150000000000018BE0F080710020A0A00000045
:10416000EC820F080504FD1B0000000058BB0F087F
:104170000D0F020B11000000581D0F080E0F010B50
:1041800010000000781D0F080C0F000B0C00000041
:10419000981D0F080D0F010B0F000000B81D0F0830
:1041A0000D0F020B11000000D81D0F08050F000BAA
:1041B00007000000FC820F08070F010B0800000039
:1041C0000C830F080D0F020B11000000F81D0F08E3
:1041D0000D0F020B11000000181E0F080508000B40
:1041E0000700000014AE0F080E14000B10000000B2
:1041F000D0C60E080D0F010B10000000381E0F086E
:104200000D14010610000000F8C60E080D0F020B79
:1042100011000000581E0F080E0F010B11000000C6
:10422000781E0F080714000B0900000044710F08E6
:10423000070F010B0A0000001C830F08100F000B72
:1042400012000000981E0F080D11010B1000000055
:1042500090FB0E080E14010B1100000020C70E0881
:104260000D0F010B10000000B81E0F080B14000BFF
:104270000C00000048C70E080D0F010B0F000000D6
:10428000D81E0F080D14020B1100000070C70E0895
:104290000C0F000B0E000000F81E0F08110F020B90
:1042A00014000000C8280E08100F000B12000000B8
:1042B000181F0F080C0F000B0E000000381F0F080E
:1042C0000C0F000B0E000000581F0F080C08000B0D
:1042D0000E0000002C830F080507010605000000F2
:1042E0001CAE0F080A0701060A0000003C830F08F5
:1042F0001205011A140000004C830F082505011A4D
:104300002700000064400F081D0700181E00000071
:1043100080400F081707011819000000D4580F0833
:104320001017010812000000F8280E0803070313F5
:104330000900000024AE0F0807070118080000005C
:104340002CAE0F081D0701131D0000009C400F0834
:104350000C12010D0F000000B4FB0E080705FC0253
:104360000000000034AE0F080705FC02000000004A
:104370003CAE0F080706FC020000000044AE0F0828
:104380000907FB01000000005C830F080904FC0220
:10439000000000004CAE0F080607011300000000EB
:1043A00054AE0F08030E030C090000006C830F08C5
:1043B00006050115080000005CAE0F080A1301078E
:1043C0000C00000098C70E08070901110A00000040
:1043D000A0900F080616000406000000EC580F0815
:1043E0000419010106000000B8400F080915000A71
:1043F0000A00000004700E080418010706000000FF
:1044000004590F08140F010B1600000028290E088C
:10441000021302070600000058710F08120C011267
:1044200014000000D8FB0E080A1101090C0000005E
:10443000FCFB0E08120C010E1400000020FC0E08FC
:10444000120F010B1400000058290E080C11010E68
:104450000F00000044FC0E080C11010E0F000000BC
:1044600068FC0E080C14010B0F000000C0C70E08FA
:104470000A0C010E0C0000001C590F080A10010A5A
:104480000C000000781F0F08080B00140900000042
:10449000AC900F080810000F090000007C830F0883
:1044A0001C0E01111E000000E07A0D081C14010B07
:1044B0001E000000544B0C081B0F01101D000000D3
:1044C000AC400D081B14010B1D000000A44B0C0890
:1044D0001113FF0711000000E8400D081113FF073A
:1044E0001100000024410D080C12010D0F00000006
:1044F0008CFC0E080C1601090F00000030700E082D
:104500000702FF18060000001ABE0F081412010867
:1045100016000000187B0D08141501071600000096
:1045200084010D080F13010712000000E8C70E08F0
:104530000D1301071000000010C80E08100EFE1128
:104540000F000000D4400F080F0E010C11000000F6
:10455000F0400F080A0C010E0C00000034590F083F
:10456000090F00100A000000981F0F08140E010C1C
:10457000160000005C700E081412010C16000000FA
:10458000507B0D0807040005000000005CBB0F080D
:10459000080500010000000064AE0F080704001ABF
:1045A0000000000060BB0F080702000400000000CC
:1045B0001CBE0F0806050001000000006CAE0F08CD
:1045C0000702001C000000001EBE0F0807050101C5
:1045D0000000000074AE0F08050500020000000096
:1045E0007CAE0F08060200040000000020BE0F0889
:1045F000040401020000000064BB0F080404011B56
:104600000000000068BB0F080105FF1A0000000051
:1046100084AE0F080605FD01000000008CAE0F08F7
:104620000403FE03000000006CBB0F080501FD0938
:10463000000000007ABE0F0805030004000000001F
:1046400070BB0F08070400030000000074BB0F08D4
:104650000202FF1C0000000022BE0F080605000138
:104660000000000094AE0F080503000300000000E6
:1046700078BB0F080707040E0E0000009CAE0F0861
:10468000051104090E0000006C710F080C110109DE
:104690000E000000B0FC0E080D1100090E00000015
:1046A000D4FC0E080B1102090E000000F8FC0E08E5
:1046B0000D0E010C0E0000000C410F080C11010939
:1046C0000E0000001CFD0E080D1101090E00000077
:1046D00040FD0E080D1101090E00000064FD0E08DA
:1046E0000C1102090E00000088FD0E080D110109D1
:1046F0000E000000ACFD0E080307031709000000C0
:10470000A4AE0F080307031309000000ACAE0F08A6
:104710000C0C010C0E0000004C590F08120801127D
:104720001400000064590F081410010C160000005A
:1047300088290E080108FF0100000000B4AE0F0830
:1047400006180002060000007C590F080618000237
:104750000600000094590F08061800070600000024
:10476000AC590F0804040102060000007CBB0F08CE
:10477000071302070600000080710F080A15000ADF
:104780000A00000088700E080B15FF0A0A000000DE
:10479000B4700E08161401061600000060410D08E2
:1047A00012110109140000000CC60D08120F010BB4
:1047B00014000000B8290E08120D011214000000A8
:1047C00038C80E081210010E14000000E8290E0867
:1047D000120E010C14000000E0700E08120D011200
:1047E0001400000060C80E08120F010B1400000036
:1047F000182A0E08120D01121400000088C80E08B5
:104800000C1701080F000000482A0E080C180107B9
:104810000F000000782A0E080C11010E0F00000096
:10482000D0FD0E080C11010E0F000000F4FD0E0863
:104830000C1801070F000000A82A0E080C11010E29
:104840000F00000018FE0E080C11010E0F000000F2
:104850003CFE0E080A1501050C0000000C710E0844
:104860000A10010E0C000000B81F0F080A10010EFC
:104870000C000000D81F0F080A1901050C000000E9
:1048800040C60D080A10010A0C000000F81F0F08AE
:104890000A10010E0C00000018200F080A1301076F
:1048A0000C000000B0C80E080A1301070C0000003D
:1048B000D8C80E080A1301070C00000000C90E0832
:1048C0000816000909000000C4590F080811000E5D
:1048D0000900000094710F080B0B00140900000080
:1048E000DC590F08090B001409000000F4590F08E7
:1048F0000C0B0014090000000C5A0F08090B0014DF
:1049000009000000245A0F080810000F09000000D9
:104910008C830F080813000C09000000A8710F0811
:104920000813000C09000000BC710F081C11010ED7
:104930001E000000E0DA0C081C0E01111E00000031
:10494000887B0D081C14010B1E000000F44B0C08A2
:104950001B0F01101D0000009C410D081B170108D2
:104960001D000000E4030C081113FF0711000000F4
:10497000D8410D080C1901060F00000074C60D087F
:10498000140E010C1600000038710E081412010CF0
:1049900016000000C07B0D08141601081600000068
:1049A00024DB0C081415010516000000C4010D08D5
:1049B0001413010C1600000014420D081415010513
:1049C0001600000004020D0814140108160000006F
:1049D00050420D081417010516000000A89D0C0890
:1049E00014130107170000008C420D081E0C010E65
:1049F0001F000000D82A0E0814130107170000003A
:104A0000C8420D080F1301071200000028C90E0844
:104A10000F1601041200000064710E080F18010740
:104A200012000000082B0E081416010417000000E5
:104A300068DB0C081416010417000000ACDB0C083E
:104A40001416010417000000F0DB0C08141A01040E
:104A500017000000444C0C08141B01041700000050
:104A6000302D0C08141901011700000018640C08FF
:104A70000F17010310000000382B0E080D1601045B
:104A80001000000090710E080F19010110000000C5
:104A9000A8C60D080D18010710000000682B0E08AD
:104AA0000F12010C1100000060FE0E080F0A011029
:104AB00011000000D0710F080F1301071100000052
:104AC00050C90E080F12010C1100000084FE0E08E0
:104AD0000F11010911000000A8FE0E08110DFF0DB5
:104AE0001100000078C90E080C14010B0F00000023
:104AF000A0C90E080A1201080C000000CCFE0E0826
:104B00000C0801140D0000009C830F080C10010C10
:104B10000D00000038200F080C0E010E0D000000E3
:104B200028410F08090F00100A00000058200F0844
:104B3000090E00110A00000044410F080913000C7F
:104B40000A000000C8C90E08091700080A00000082
:104B5000982B0E08091900060A000000DCC60D0893
:104B60000914000B0A000000F0C90E080913000C1C
:104B70000A00000018CA0E08091600090A00000001
:104B8000BC710E08140E010C16000000E8710E082E
:104B9000160E000C1700000014720E08140E010C03
:104BA0001600000040720E080913000C0A000000F5
:104BB00040CA0E081413010C1600000004430D082F
:104BC0001413010C1600000040430D08170B0013CE
:104BD00017000000F0FE0E081712000C170000006E
:104BE000F87B0D08060200180600000024BE0F081E
:104BF0000A0C010E0C0000003C5A0F080B09FB02C6
:104C000000000000E4710F080C09FA020000000027
:104C1000F8710F080504FE050000000080BB0F08B6
:104C20000708FD0200000000BCAE0F080507FE05E6
:104C300000000000C4AE0F080302FF0700000000E0
:104C400026BE0F080C05FA0600000000B8900F08F9
:104C50001A1B01041C000000B0770B081B1B00048A
:104C6000000000001C780B080202FF070000000093
:104C700028BE0F080202FF07000000002ABE0F082E
:104C80000704FD050000000084BB0F080706FC05B3
:104C900000000000CCAE0F080C05FA1A000000005E
:104CA000C4900F080403FF010000000088BB0F0838
:104CB0000505000606000000D4AE0F080905000730
:104CC0000A000000D0900F080905FB070000000053
:104CD000DC900F080606FD0300000000DCAE0F08A4
:104CE0001114FF060F0000007C430D080505FE1A95
:104CF00000000000E4AE0F080505FE0500000000FE
:104D0000ECAE0F080202FF07000000002CBE0F08E7
:104D10000706FC1900000000F4AE0F080A11010993
:104D20000C00000014FF0E080912000D090000001D
:104D300038FF0E080707040E0E000000FCAE0F0837
:104D4000051104090E0000000C720F080C11010976
:104D50000E0000005CFF0E080D1100090E0000009F
:104D600080FF0E080C10010A0E00000078200F08CA
:104D70000D1100090E000000A4FF0E08090F030B1F
:104D80000E00000098200F080D1101090E00000010
:104D9000C8FF0E080D1101090E000000ECFF0E08FF
:104DA0000C1102090E00000010000F081C14010B6A
:104DB0001E000000944C0C081B14010B1D00000089
:104DC000E44C0C080C1601090F0000006C720E0870
:104DD000080D01110A000000AC830F080E0E00112F
:104DE0000F00000060410F081114FF0611000000C1
:104DF000B8430D08120C01121400000034000F0813
:104E00001213010B14000000F4430D08120D0112DF
:104E10001400000068CA0E081211010E14000000F0
:104E200010C70D081210010E14000000C82B0E0848
:104E3000120D01121400000090CA0E08120C010E8F
:104E40001400000058000F080C15010A0F000000A4
:104E500098720E080C11010E0F0000007C000F0864
:104E60000A1A01050C00000044C70D080A11010EC2
:104E70000C000000A0000F080A0B0014090000003D
:104E8000545A0F081C14010B1E000000344D0C086E
:104E90000C1601090F000000C4720E080C1801075F
:104EA0000F000000F82B0E080C1901060F0000007F
:104EB00078C70D081412010C16000000307C0D0894
:104EC0001413010C1600000030440D0814130107E0
:104ED000170000006C440D081416010417000000B0
:104EE00034DC0C081418010717000000F09D0C08B2
:104EF0001013FE0C0F000000B8CA0E08100EFE11B1
:104F00000F0000007C410F080F12010C110000007F
:104F1000C4000F080F13010711000000E0CA0E08BB
:104F20000F0E010C1100000098410F08111301072A
:104F300010000000A8440D080813000C0900000030
:104F400020720F080812000D0900000034720F08CB
:104F50001C14010B1E000000844D0C080B0E020CEB
:104F60000F000000B4410F080D0E000C0F000000F0
:104F7000D0410F080E0E000C10000000EC410F088D
:104F80000C0E010C0F00000008420F080C0E010C63
:104F90000F00000024420F080F0E000C110000004B
:104FA00040420F080A0E000C0C0000005C420F0883
:104FB0000B0E010C0E00000078420F080D0E010CC4
:104FC0001000000094420F080F10000A10000000AB
:104FD000B8200F081010000A11000000D8200F0898
:104FE000120E020C16000000F0720E081113020CD3
:104FF00015000000E4440D080E13000C1000000022
:1050000008CB0E080E13000C1000000030CB0E0869
:105010000B13010C0E00000058CB0E08120E000CF2
:10502000140000001C730E08130E010C1600000083
:1050300048730E08120E020C1500000074730E085F
:105040000C0E010C0F000000B0420F080C0E010CFA
:105050000F000000CC420F080B0E020C0F000000E6
:10506000E8420F080E0E020C1200000004430F0865
:105070000B0E010C0E00000020430F080C0E020C5A
:105080000F0000003C430F080C0E020C1000000043
:1050900058430F080C1402061000000080CB0E08C5
:1050A0000B0E020C1000000074430F080B140206D4
:1050B00010000000A8CB0E080E0E000C120000001D
:1050C00090430F080E14000611000000D0CB0E080C
:1050D0000D0E010C10000000AC430F080B0E020C6B
:1050E0000F000000C8430F080A0E020C0E0000005B
:1050F000E4430F08090E010C0B00000000440F08E8
:105100000A11020C0E000000E8000F080B0E020C42
:105110000F0000001C440F080D11010C10000000CE
:105120000C010F08090E010C0C00000038440F0898
:105130000D0F010B0F000000F8200F08100E020CDD
:105140001300000054440F080C0F020B0F00000066
:1051500018210F080F0E000C1100000070440F08FA
:10516000111300071200000020450D080B0E020C61
:105170000F0000008C440F080C0F020B0F00000002
:1051800038210F080A0E010C0D000000A8440F087A
:10519000080E020C0B000000BC830F080A05F8067D
:1051A00000000000E8900F08090E010C0C00000040
:1051B000C4440F080F12FB080C00000030010F0858
:1051C0000A04F3070000000004AF0F080A05F30605
:1051D00000000000F4900F080A05F306000000002C
:1051E00000910F080A05F306000000000C910F085B
:1051F0000304FB1B000000008CBB0F080704F71B17
:105200000000000090BB0F080202FC1B0000000021
:105210002EBE0F080C1602060F000000A0730E0829
:10522000050E020C08000000CC830F080C0E020CC7
:105230000F000000E0440F080A1401060C000000F3
:10524000F8CB0E08091401060B00000020CC0E0854
:105250000C1400060D00000048CC0E080911010CCA
:105260000C00000054010F080911010C0C00000093
:1052700078010F080807F604000000000CAF0F08C3
:105280000104FC070000000094BB0F080704F707A7
:105290000000000098BB0F080904F7070000000099
:1052A00014AF0F080303FC08000000009CBB0F08AC
:1052B0000705F906000000001CAF0F080404FB08F6
:1052C00000000000A0BB0F080507FA010000000065
:1052D00024AF0F080C0C010E0F0000006C5A0F08D1
:1052E0000C0B010F0F000000845A0F080D0B010F6B
:1052F000100000009C5A0F080D0E020C1100000057
:10530000FC440F080E0B010F11000000B45A0F08E7
:10531000110F010B12000000282C0E08110F010BB9
:1053200012000000582C0E080E0F000B1000000099
:1053300058210F08100E010C1300000018450F082B
:10534000100F010B1300000078210F08100E010C44
:105350001200000034450F080E0E010C1100000071
:1053600050450F08170C020E1B0000009C010F088F
:105370000D0E000C0C0000006C450F08110E000C07
:1053800012000000CC730E08140E010C1600000071
:10539000F8730E080C0E010C0D00000088450F0874
:1053A0000A0E010C0C000000A4450F080B0E020CA5
:1053B0000E000000C0450F080C0E010C0E0000008E
:1053C000DC450F08080E020C0B000000DC830F0800
:1053D0000A0E000C0B000000F8450F080212020C28
:1053E0000600000048720F08070E000C09000000BC
:1053F000EC830F080A0E020C0C00000014460F0884
:10540000090E010C0B00000030460F080C0E020CB8
:10541000100000004C460F080A0E020C0E0000009F
:1054200068460F080C0E010C0E00000084460F08A1
:105430000A0E010C0C000000A0460F080E0C010D16
:1054400010000000CC5A0F080E0A010E10000000D8
:105450005C720F08100C000D10000000E45A0F08D9
:10546000150E010C1700000024740E08090E010C23
:105470000B000000BC460F080C07010C0E000000DA
:10548000FC830F080C0701130E0000000C840F08AA
:105490000A0E020C0D000000D8460F080B0E000C7F
:1054A0000D000000F4460F080B0E000C0D0000006C
:1054B00010470F080C0E000C0C0000002C470F08C2
:1054C0000A0E020C0E00000048470F080D0B020EDA
:1054D00011000000FC5A0F08110B010E140000000F
:1054E000C0010F080E12040A15000000E4010F08A5
:1054F0000C0E000C0C00000064470F08130E000C8B
:105500001300000050740E08090E010C0B0000007F
:1055100080470F08090E010C0B0000009C470F0884
:105520000B0E010C0D000000B8470F080F0E000C09
:105530000F000000D4470F08080E020C0A000000FC
:105540001C840F080D0E000C0C000000F0470F0823
:105550000A0E020C0E0000000C480F080A0E020C86
:105560000D00000028480F080E0E020C120000006B
:1055700044480F080C0E000C0E00000060480F0895
:105580000B0D00080A0000007C480F08100D0008F1
:105590001000000098480F08090D01080A000000DB
:1055A000B4480F080B0D00080A000000D0480F088F
:1055B0000A0D01080C000000EC480F08080D010856
:1055C0000A0000002C840F08080D01080A000000E2
:1055D0003C840F080B0D01080C00000008490F085F
:1055E0000A0D01080B00000024490F08060D0108F0
:1055F000070000004C840F08070D00080800000099
:105600005C840F08090D01080A00000040490F08DA
:10561000070D0108090000006C840F080B0D01083C
:105620000D0000005C490F080A0D01080B00000086
:1056300078490F080A0D01080B00000094490F0873
:105640000B0D01080D000000B0490F08090D0108FD
:105650000A000000CC490F08080D01080A000000EC
:105660007C840F080A0D01080B000000E8490F08B0
:105670000A0D01080C000000044A0F080A0D010879
:105680000B000000204A0F080F0D00080F0000005B
:105690003C4A0F080809010C0900000018910F0886
:1056A0000809010C0900000024910F080909010CE8
:1056B0000A00000070720F080F09000C10000000B3
:1056C00084720F08090D01080A000000584A0F08EB
:1056D000090D01080A000000744A0F080909010CAD
:1056E0000A00000098720F080909000C0A00000067
:1056F000AC720F080709010C0900000030910F0877
:105700000709010C090000003C910F08090C010C6D
:105710000A000000145B0F08020C010C04000000DA
:1057200048910F08090D010809000000904A0F0870
:105730000E09000C0E000000C0720F08080C010CCE
:105740000A00000054910F080909010C0A0000002A
:10575000D4720F080709010C0900000060910F08BE
:105760000905010C0A0000006C910F0809050110E1
:105770000A00000078910F08090C010C0A000000D3
:105780002C5B0F08060C01090700000084910F082C
:105790000809010C0A00000090910F080908010C8B
:1057A0000B0000008C840F080E09000C0E00000096
:1057B000E8720F080909000C08000000FC720F08CD
:1057C0000A09000C0A00000010730F0809100108F4
:1057D0000A00000098210F08080D000C08000000C6
:1057E0009C840F08090D01080A000000AC4A0F084C
:1057F0000C0C010C0D000000445B0F08090C000CA0
:10580000080000005C5B0F08020C0110040000009F
:105810009C910F080509011306000000A8910F08CC
:10582000080901130A000000B4910F0809090013C8
:105830000800000024730F080910010F0A0000007F
:10584000B8210F08080C001308000000C0910F08D1
:10585000090C01130A000000745B0F080C0D011203
:105860000D000000C84A0F08090C001308000000D2
:105870008C5B0F08130E020C160000007C740E08DF
:105880000F14FE060E00000070CC0E080F14010667
:105890000E00000098CC0E080B14FE060800000055
:1058A000C0CC0E08170EFF0C15000000A8740E08DF
:1058B000100EFF0C0E000000E44A0F080F13FE0C40
:1058C0000E000000E8CC0E080B0EFE0C09000000D4
:1058D000004B0F080B0EFE0C090000001C4B0F08BC
:1058E000100EFE0C0C000000384B0F080A12FE08C8
:1058F0000800000008020F080E0EFF0C0B0000004D
:10590000544B0F080B13020C0E00000010CD0E08B4
:10591000090C01070B000000A45B0F080B13010C1E
:105920000D00000038CD0E08141600061600000009
:1059300078DC0C08090E000C09000000704B0F0801
:10594000090EFF0C060000008C4B0F080D13010C14
:105950000E00000060CD0E080D0E010C0E000000C0
:10596000A84B0F08100E000C10000000C44B0F08CD
:105970000B1902060E000000ACC70D080D19010638
:105980000E000000E0C70D0809190006080000001D
:1059900014C80D081213010C0E0000005C450D0820
:1059A0000B1902060C00000048C80D080619000675
:1059B00006000000E04B0F081413010C1500000056
:1059C00098450D080C13020C0E00000088CD0E083F
:1059D0000B13020C0E000000B0CD0E080913000CD2
:1059E00009000000D8CD0E080C13010C0B000000BC
:1059F00000CE0E080E1901060E0000007CC80D082E
:105A00000D13000C0D00000028CE0E080C13000C26
:105A10000C00000050CE0E080913010C0B00000012
:105A200078CE0E080E13010C0D000000A0CE0E085B
:105A30000F13010C0E000000C8CE0E08101901064D
:105A40000E000000B0C80D080F13010C0D0000007F
:105A5000F0CE0E080E13010C0B00000018CF0E083C
:105A60000A13000C0B00000040CF0E08130E010CAF
:105A70000D000000D4740E0808180207060000008C
:105A8000BC5B0F080A13010C0C00000068CF0E0865
:105A90000C1901060E000000E4C80D080E13020CDC
:105AA0000E00000090CF0E080A13000C0B0000003F
:105AB000B8CF0E080809010C0A000000CC910F08AD
:105AC0000709010C09000000D8910F080809000C13
:105AD00009000000E4910F08080D01080A00000009
