:020000040800F2
:10000000F8970020D98A0F08C1FD0A08DBFD0A080D
:10001000F5FD0A080FFE0A0829FE0A080000000084
:1000200000000000000000000000000055890308E7
:1000300043FE0A0800000000F98803085DFE0A0874
:10004000C5BC0F08C9BC0F08CDBC0F08D1BC0F0838
:10005000D5BC0F08D9BC0F08DDBC0F08E1BC0F08E8
:10006000E5BC0F08E9BC0F08EDBC0F08F1BC0F0898
:10007000B5FE0A0887FE0A08B1FE0A088BFE0A08C8
:10008000F5BC0F08F9BC0F08FDBC0F0801BD0F0837
:1000900005BD0F0809BD0F080DBD0F08E5FE0A08D4
:1000A00011BD0F0815BD0F0819BD0F081DBD0F08A4
:1000B00021BD0F0825BD0F0829BD0F082DBD0F0854
:1000C00031BD0F0835BD0F0839BD0F083DBD0F0804
:1000D00041BD0F0877FE0A0845BD0F0849BD0F084E
:1000E0004DBD0F0851BD0F0855BD0F0859BD0F0874
:1000F0005DBD0F0861BD0F0865BD0F0869BD0F0824
:10010000B9FE0A086DBD0F0871BD0F0875BD0F0857
:1001100083FE0A0879BD0F0873FE0A087DBD0F082B
:1001200081BD0F0885BD0F087BFE0A0889BD0F0839
:100130008DBD0F0891BD0F0895BD0F0899BD0F0823
:100140009DBD0F08A1BD0F08A5BD0F08A9BD0F08D3
:10015000ADBD0F08B1BD0F087FFE0A08B5BD0F0881
:10016000DDFE0A08E1FE0A08B9BD0F08BDBD0F0893
:10017000C1BD0F08C5BD0F08C9BD0F0800000000B4
:10018000CDBD0F08D1BD0F088FFE0A08D5BD0F08E1
:10019000D9BD0F08DDBD0F08E1BD0F08E5BD0F0893
:1001A000BDFE0A08C3FE0A08E9BD0F08EDBD0F0831
:1001B000F1BD0F08F5BD0F08F9BD0F08FDBD0F0813
:1001C00001BE0F0805BE0F080101001A080000005B
:1001D00022BF0F080213030708000000546D0F0828
:1001E000070701060A000000A8AA0F08101301075C
:1001F0001200000004900E080C1701070E0000000A
:1002000014170E0816130107180000002C310D08F2
:10021000111301071100000068310D0802070106E3
:1002200005000000B0AA0F08071901060A00000027
:10023000F8310F08071902060A00000014320F08EF
:100240000C0B01060E00000080560F080E0E020B6C
:100250001200000030320F080508011708000000E6
:10026000B8AA0F080702011109000000A0BE0F087C
:10027000030302170800000010BB0F08091800064E
:100280000A00000044170E080C1301070E000000BE
:100290002C900E08081303070E000000686D0F086D
:1002A0000B1301070E00000054900E080B130107FA
:1002B0000E0000007C900E080C1300070E000000DA
:1002C000A4900E080B1302070E000000CC900E083D
:1002D0000C1301070E000000F4900E080C13010728
:1002E0000E0000001C910E080C1301070E00000008
:1002F00044910E080C1301070E0000006C910E08CB
:10030000030E030C09000000A8810F080513020C5E
:10031000090000007C6D0F080D0E020B120000009A
:100320004C320F080E07020E12000000B8810F08B1
:100330000D0E030B1200000068320F080A130107AC
:100340000C00000094910E0814160207170000001C
:10035000F4D90C080F1300070F000000BC910E0821
:100360000C1302070F000000E4910E080D130107A3
:100370000F0000000C920E080E130207110000007F
:1003800034920E080B1302070E0000005C920E0858
:100390000B1302070D00000084920E080F130107D3
:1003A00011000000AC920E080D13020711000000AE
:1003B000D4920E080613010709000000906D0F0883
:1003C000081300070A000000A46D0F080D130207B0
:1003D0000F000000FC920E080A1302070C00000038
:1003E00024930E080F130207130000004C930E080D
:1003F0000D1302071100000074930E08101301077B
:10040000120000009C930E080C1302070E0000005F
:10041000C4930E08101801071200000074170E088C
:100420000E13020710000000EC930E080C130107D6
:100430000E00000014940E081013FF070F000000B8
:100440003C940E080C1302071000000064940E0880
:100450000F1300070F0000008C940E0817130007FD
:1004600017000000A4310D080F1300070F00000053
:10047000B4940E080E1300070E000000DC940E0862
:100480000C1301070E00000004950E080619020661
:100490000A00000084320F08091801060A00000053
:1004A000A4170E08061901060A000000A0320F0862
:1004B0000F0A020712000000B86D0F080E02001CA0
:1004C0000E00000014BB0F08050503050E00000018
:1004D000C0AA0F080A0E010C0D000000BC320F0864
:1004E0000B1402060E0000002C950E080A0E010CDB
:1004F0000C000000D8320F080B1401060E0000009B
:1005000054950E080B0E010C0D000000F4320F087C
:1005100009140006080000007C950E080B13010C5E
:100520000E000000A4950E080A1402060E0000003A
:10053000CC950E080213020706000000CC6D0F08D0
:100540000618FF070700000098560F080B14020654
:100550000C000000F4950E080214020606000000CC
:10056000E06D0F08120E010C150000000C610E0862
:100570000A0E020C0E00000010330F080C0E010CC6
:100580000E0000002C330F080B13020C0E000000AD
:100590001C960E080B13010C0E00000044960E086A
:1005A000070E020C09000000C8810F080A0E010C9A
:1005B0000B00000048330F08081200080800000074
:1005C000F46D0F080A0E020C0E00000064330F08D1
:1005D0000C0E000C0C00000080330F08130E000CF2
:1005E0001300000038610E080C0E000C0C00000017
:1005F0009C330F080C13000C0C0000006C960E08C6
:10060000090E010C0B000000B8330F080A1901068F
:100610000C00000020AD0D08021904060A000000BD
:10062000D4330F080A1901060C00000054AD0D0860
:100630000E06020F12000000C08F0F080101001A01
:100640000800000023BF0F08021303070800000082
:10065000086E0F080B1601080E00000064610E08FA
:100660000B1301070E00000094960E080C0C010CF1
:100670000E000000B0560F080E1300070E00000019
:10068000BC960E08021904060A000000F0330F0899
:100690000B1801070E000000D4170E08070203080C
:1006A0000E000000A2BE0F0815150107170000007C
:1006B000F0FF0C08090C01070C000000C8560F08D9
:1006C0000B0C010C0E000000E0560F080E09021181
:1006D000120000001C6E0F08070201110900000043
:1006E000A4BE0F08151501071700000030000D0803
:1006F0000E0200040E00000018BB0F0809090107D4
:100700000C000000306E0F080E0F020912000000EE
:10071000641D0F08090B02070C000000F8560F08B3
:10072000080B02070C000000CC8F0F08050505051B
:100730000E000000C8AA0F080A13020C0E000000E9
:10074000E4960E080B1701070E00000004180E08AF
:100750000303030C090000001CBB0F080605041A64
:100760000E000000D0AA0F08060B04070C000000C2
:10077000D88F0F080A0C01070C00000010570F0853
:100780000B0C020C0E00000028570F081413020770
:1007900019000000E0310D081613020719000000CF
:1007A0001C320D08151302071900000058320D08FD
:1007B0000A1301070C0000000C970E080F19000126
:1007C0000F00000088AD0D080F1900010F00000098
:1007D000BCAD0D080F1900010F000000F0AD0D08B1
:1007E0000F1800020F00000034180E080F16000446
:1007F0000F00000090610E080F1900010F000000AB
:1008000024AE0D08161300071700000094320D08DF
:100810000D1801070F00000064180E080B190201E3
:100820000E00000058AE0D080B1902010E0000006A
:100830008CAE0D080B1902010E000000C0AE0D08B1
:100840000B1702030E00000094180E080619010190
:10085000090000000C340F0806190101090000000E
:1008600028340F08081900010900000044340F085B
:10087000061701030900000040570F081013000776
:100880001100000034970E080D180202110000003C
:10089000C4180E081019010112000000F4AE0D0872
:1008A000101901011200000028AF0D0810190101F4
:1008B000120000005CAF0D081018010212000000C9
:1008C000F4180E08101701031200000024190E0876
:1008D0000D0D030C1200000060340F081015010606
:1008E00012000000BC610E080C190201100000008B
:1008F00090AF0D080C19020110000000C4AF0D08E4
:100900000C19020110000000F8AF0D080C170203CB
:100910001000000054190E080E1900010E0000000E
:100920002CB00D080A1302070E0000005C970E0899
:100930000B1402060E00000084970E080A1501052C
:100940000D000000E8610E080A1501050D00000009
:1009500014620E080A1501050D00000040620E0821
:100960000A1401060D000000AC970E080A120108D7
:100970000D0000000CF60E080A1501050D00000020
:100980006C620E08140E010C1600000098620E082E
:100990000A13010C0C000000D4970E080B1501057A
:1009A0000D000000C4620E080B1501050D000000CB
:1009B000F0620E080B1501050D0000001C630E0807
:1009C0000B1201080D00000030F60E080515000599
:1009D0000600000058570F08051502050600000024
:1009E00070570F08061500050600000088570F080D
:1009F0000613000706000000446E0F080C130107E1
:100A00000E000000FC970E080A1402060E000000FB
:100A100024980E080C1501050E00000048630E080E
:100A20000C1501050E00000074630E080C1501057D
:100A30000E000000A0630E080C1401060E0000005A
:100A40004C980E080C1201080E00000054F60E0817
:100A50000F0E020B120000007C340F080C10010B6B
:100A60000E000000841D0F080A1502050E0000008C
:100A7000CC630E080A1502050E000000F8630E088C
:100A80000A1502050E00000024640E080A1202086E
:100A90000E00000078F60E080C1A00050C0000008D
:100AA00060B00D080B1902060E00000094B00D088E
:100AB0000C1700080C00000084190E080F17000323
:100AC0000F000000B4190E080A1301070D00000002
:100AD00074980E080F1900010F000000C8B00D082F
:100AE0000A1401060D0000009C980E08101800075B
:100AF0000F000000E4190E080B13010C0D0000009C
:100B0000C4980E080D1901010F000000FCB00D087B
:100B10000A1501050C00000050640E080D190101B2
:100B20000F00000030B10D080A1501050C0000008F
:100B30007C640E080D1701030F000000141A0E0844
:100B40000A1201080C0000009CF60E080D190101A4
:100B50000F00000064B10D080A1501050C0000002B
:100B6000A8640E080E1902011100000098B10D08CA
:100B70001014010611000000EC980E081013000775
:100B80001100000014990E080D1401060E0000005B
:100B90003C990E080B1702030E000000441A0E08C1
:100BA0000B1301070D00000064990E080B190201D8
:100BB0000E000000CCB10D080B1401060D00000062
:100BC0008C990E080B1702030E000000741A0E0811
:100BD0000B1201080D000000C0F60E080B180207EA
:100BE0000E000000A41A0E080B13010C0D000000EB
:100BF000B4990E080B1902010E00000000B20D0896
:100C00000B1501050D000000D4640E080F19010139
:100C10001100000034B20D080B1A01050E0000008F
:100C200068B20D080F190101110000009CB20D08F7
:100C30000B1901060E000000D0B20D080F170103BA
:100C400011000000D41A0E080B1701080E00000056
:100C5000041B0E080F18010711000000341B0E08BA
:100C60000B1A01050E00000004B30D080D19020156
:100C70001100000038B30D080A1902010E0000002F
:100C80006CB30D081213000712000000D0320D08DB
:100C90000C1400060E000000DC990E080819000173
:100CA0000900000098340F08061400060600000032
:100CB000586E0F080818000209000000A0570F081E
:100CC00006130007060000006C6E0F0806190101EC
:100CD00009000000B4340F080614000606000000E6
:100CE000806E0F080618010709000000B8570F08AA
:100CF0000418010706000000D0570F08061701036B
:100D000009000000E8570F08020E020C0600000060
:100D1000D8810F080F13010712000000049A0E0873
:100D2000091802070D000000641B0E0809190001D4
:100D30000A000000A0B30D08081AFF050700000014
:100D4000D0340F080D1802070F000000941B0E0886
:100D50000B1902060C000000D4B30D080B0E020C98
:100D60000C000000EC340F080A1902010C0000000E
:100D700008B40D08051902010600000008350F0827
:100D80000A1802070C000000C41B0E080519010612
:100D90000600000024350F080A1402060C000000AB
:100DA0002C9A0E080814020609000000946E0F0821
:100DB0000A1302070C000000549A0E0808140206D9
:100DC0000B000000A86E0F080D1300070D000000B7
:100DD0007C9A0E080614000607000000BC6E0F087F
:100DE0000D190201110000003CB40D080A1502059E
:100DF0000E00000000650E080D180207110000002B
:100E0000F41B0E080A13020C0E000000A49A0E0830
:100E10000D1902011100000070B40D080A15020539
:100E20000E0000002C650E081014FF0611000000D3
:100E3000CC9A0E080D18020711000000241C0E08A1
:100E40000A13020C0E000000F49A0E08101701039A
:100E500012000000541C0E080C1301070E000000C5
:100E60001C9B0E081019010112000000A4B40D080B
:100E70000C1401060E000000449B0E08101901011D
:100E800012000000D8B40D080C1501050E0000007A
:100E900058650E0816130107180000000C330D08E2
:100EA000150E010C1700000084650E080E190201D2
:100EB000100000000CB50D08071502050900000020
:100EC00000580F080E18020710000000841C0E08BE
:100ED0000813010C09000000D06E0F080E19020162
:100EE0001000000040B50D080815020509000000BB
:100EF00018580F080C1901010E00000074B50D08F8
:100F00000A1501050B000000B0650E080C1901015F
:100F10000E000000A8B50D080A1501050B00000021
:100F2000DC650E080C1801070E000000B41C0E084A
:100F30000A13010C0B0000006C9B0E080C19010138
:100F40000E000000DCB50D080A1501050B000000BD
:100F500008660E081018FF070F000000E41C0E08BA
:100F6000081700080800000030580F081019FF018A
:100F70000F00000010B60D080C1400060C00000055
:100F8000949B0E081013FF070F000000BC9B0E0877
:100F90000812000808000000E46E0F080C18020296
:100FA00010000000141D0E080A1402060E000000B6
:100FB000E49B0E080C17020310000000441D0E08ED
:100FC0000A1302070E0000000C9C0E080C19020107
:100FD0001000000044B60D080A1402060E000000BE
:100FE000349C0E080C1902011000000078B60D08A0
:100FF0000A1502050E00000034660E080D190201E4
:1010000010000000ACB60D080A1502050E00000025
:1010100060660E080C18020710000000741D0E0810
:101020000B13020C0E0000005C9C0E081719000147
:101030001700000050600C08131500051300000095
:1010400070000D080E1900010E000000E0B60D083A
:101050000C1A00050C00000014B70D080E17000351
:101060000E000000A41D0E080C1901010E00000066
:1010700048B70D08091501050B0000008C660E0825
:101080000C1701030E000000D41D0E080912010800
:101090000B000000E4F60E080C1901010E00000020
:1010A0007CB70D08091501050B000000B8660E0895
:1010B0000614020606000000F86E0F080D14000664
:1010C0000E000000849C0E081013000711000000A1
:1010D000AC9C0E080C1302070F000000D49C0E08F5
:1010E0000B1402060E000000FC9C0E080F130007F4
:1010F0000F000000249D0E080D1400060E000000D5
:101100004C9D0E080D1301070F000000749D0E0882
:10111000111501050F000000B0000D080E110109A6
:101120000C00000008F70E08101300071100000063
:101130009C9D0E08121300071300000048330D0891
:101140000C1301070F000000C49D0E080B140106CC
:101150000E000000EC9D0E080C13010C0E000000A8
:10116000149E0E080B1301070E0000003C9E0E0893
:101170001013010712000000649E0E080C130107F3
:101180000D0000008C9E0E080F18FE070D000000D9
:10119000041E0E080E1500070E000000E4660E087F
:1011A0001315010511000000F0000D080F180007CD
:1011B0000F000000341E0E08121402061600000074
:1011C00084330D0802140206060000000C6F0F089D
:1011D0000813000709000000206F0F080D13020715
:1011E0000F000000B49E0E080B1402060C00000055
:1011F000DC9E0E080614000607000000346F0F087E
:101200000C1400060C000000049F0E0812130207C5
:1012100016000000C0330D081118FE071100000071
:10122000B4980C080A13020C0E0000002C9F0E0844
:101230001013010712000000549F0E08121301073B
:1012400013000000FC330D080D1101090E00000011
:101250002CF70E081518010717000000FC980C0861
:101260000E13010C110000007C9F0E0810130007E4
:1012700010000000A49F0E080B1902060E000000CB
:10128000B0B70D080D1502070E00000010670E081C
:101290000C1301070E000000CC9F0E080A0E000C74
:1012A0000B00000040350F080D1301070E00000071
:1012B000F49F0E080D1900060E000000E4B70D089B
:1012C000081700080800000048580F080F1300070F
:1012D0000F0000001CA00E08081400060800000003
:1012E000486F0F080E1800070F000000641E0E085C
:1012F000111602041200000038DA0C080E1102095F
:101300000F00000050F70E08111301071200000033
:1013100038340D080C1302071000000044A00E081A
:10132000111300071100000074340D081118000794
:101330000C00000044990C080C1301070E0000007B
:101340006CA00E08090E010C0B0000005C350F08A4
:101350000C1800070D000000941E0E080C18010761
:101360000D000000C41E0E080A13010C0B00000043
:1013700094A00E080913010C0B000000BCA00E087D
:101380000B1301070E000000E4A00E080C13010768
:101390000E0000000CA10E080A0E000C0B0000004D
:1013A00078350F080B1200080C00000074F70E08C7
:1013B0000B13020C0E00000034A10E0802190406E3
:1013C0000A00000094350F08061902060A00000002
:1013D000B0350F080E1902061200000018B80D08EB
:1013E00002130307080000005C6F0F081C190201BC
:1013F0001F00000064950B08191502051C00000071
:10140000882D0C08171501051900000030010D0882
:101410001413020718000000B0340D081118020759
:10142000150000008C990C08081902060C00000039
:10143000CC350F08171302071B000000EC340D0811
:101440001318020717000000D4990C08111802079E
:10145000150000001C9A0C080F1900010F00000075
:101460004CB80D080A1501050D0000003C670E0878
:101470000819000109000000E8350F080815FF05EC
:101480000600000060580F0810190101120000004A
:1014900080B80D080C1501050E00000068670E08E5
:1014A0000C19020110000000B4B80D080A1502055D
:1014B0000E00000094670E080C19020110000000D5
:1014C000E8B80D080A1602040E000000C0670E08F6
:1014D0000C190201100000001CB90D080A160204C4
:1014E0000E000000EC670E080C190201100000004D
:1014F00050B90D080A1802020E000000F41E0E0872
:101500000C1902011000000084B90D080A1602042B
:101510000E00000018680E080B0E010C0D000000F4
:1015200004360F080F1900010F000000B8B90D08AC
:101530000A1601040D00000044680E080F1900018E
:101540000F000000ECB90D080A1601040D000000A0
:1015500070680E081617000317000000649A0C0844
:10156000141301071600000028350D081013010799
:10157000110000005CA10E080C13010C0E0000000D
:1015800084A10E080F1901011100000020BA0D08F6
:101590000B1A01050E00000054BA0D080D190201C6
:1015A0000F00000088BA0D080B1902010C000000A2
:1015B000BCBA0D081018010712000000241F0E0805
:1015C0000C13010C0E000000ACA10E08101C01034E
:1015D000120000003C7A0D080C1801070E000000F4
:1015E000541F0E080C1E00010D00000064350D088C
:1015F0000A1A00050B000000F0BA0D08081AFF05D2
:101600000700000020360F081C1302071F0000000F
:101610009C600C08191302071C000000E8600C080D
:101620001714010619000000A0350D080F1901015B
:101630001100000024BB0D080B1A01050E0000006C
:1016400058BB0D081513020719000000DC350D0802
:101650000B1802070E000000841F0E080D1902016E
:10166000110000008CBB0D080A1502050E000000D9
:101670009C680E080F1900010F000000C0BB0D0888
:101680000A1701030D000000B41F0E08161900010F
:101690001700000034610C08141501051600000045
:1016A00070010D08101A010112000000F4BB0D08B2
:1016B0000C1601050E000000C8680E080F19000185
:1016C0000F00000028BC0D080B1500050D000000E0
:1016D000F4680E080F1900010F0000005CBC0D0833
:1016E0000A1401060D000000D4A10E080B19020116
:1016F0000E00000090BC0D080B1501050D00000048
:1017000020690E080B1902010E000000C4BC0D0870
:101710000B1401060D000000FCA10E080A19FE01C1
:1017200009000000F8BC0D080A15FD0506000000C0
:101730004C690E0808190001090000003C360F082A
:101740000814FF0606000000706F0F081019010151
:10175000120000002CBD0D080C1501050E00000044
:1017600078690E08101901011200000060BD0D0813
:101770000C1401060E00000024A20E080F1901012E
:101780001000000094BD0D080A15000509000000B6
:10179000A4690E080E19020110000000C8BD0D0852
:1017A0000814020609000000846F0F080C190201DA
:1017B00010000000FCBD0D080B1501050E00000017
:1017C000D0690E080C1902011000000030BE0D088F
:1017D0000A1402060E0000004CA20E080C180107A5
:1017E0000E000000E41F0E080A13010C0B0000009D
:1017F00074A20E081018FF070F00000014200E0836
:10180000081700080800000078580F080B18010797
:101810000D00000044200E080A13000C0B0000000D
:101820009CA20E080D1902011100000064BE0D08F3
:101830000A1902010E00000098BE0D080D180207DB
:101840001000000074200E08121901061300000099
:1018500080610C080D1301070F000000C4A20E08E0
:101860000B1301070D000000ECA20E080D16010776
:101870000E000000FC690E080A11010C0B000000AC
:1018800098F70E080F1700030F000000A4200E08A1
:101890000A1201080D000000BCF70E080B18020721
:1018A0000E000000D4200E080B13010C0D000000E8
:1018B00014A30E081019010112000000CCBE0D087F
:1018C0000C1601040E000000286A0E081019010110
:1018D0001200000000BF0D080C1701030E000000ED
:1018E00004210E08101701031200000034210E0815
:1018F0000C1201080E000000E0F70E08101901019B
:101900001200000034BF0D080C1601040E00000088
:10191000546A0E080E1700030E00000064210E0822
:101920000C1800070C00000094210E080A1901068B
:101930000B00000068BF0D081113020C130000001B
:1019400018360D080B1200080B00000004F80E08F2
:101950000613FF0C07000000986F0F08141401060F
:101960001600000054360D081413010C1600000078
:1019700090360D08101600060F000000806A0E0851
:10198000101601060F000000AC6A0E080C130109C6
:101990000C0000003CA30E080D13FF070C00000014
:1019A00064A30E081116FF060F0000007CDA0C0875
:1019B0000A13010C0B0000008CA30E080913010C84
:1019C0000B000000B4A30E080D1400060E0000006A
:1019D000DCA30E080B1200070C00000028F80E080C
:1019E0000D1301070F00000004A40E080E130107D9
:1019F000100000002CA40E080F1300070F000000B9
:101A000054A40E080B1802050E000000C4210E0895
:101A10000B1801070D000000F4210E080913000740
:101A20000A0000007CA40E080718FF07070000004A
:101A300090580F081318010712000000AC9A0C0808
:101A40000F13010C0E000000A4A40E080F130107D1
:101A500010000000CCA40E08080E010C09000000C4
:101A6000E8810F080E1300070E000000F4A40E0812
:101A70000C13000C0C0000001CA50E080A0E020C32
:101A80000D00000058360F080B0E010C0E00000070
:101A900074360F080B0E020C0E00000090360F0873
:101AA0000B1402060E00000044A50E080A0E010CDD
:101AB0000C000000AC360F080B0E000C0C000000F0
:101AC000C8360F08101901060E0000009CBF0D0853
:101AD000101401060E0000006CA50E080B0E010C80
:101AE0000D000000E4360F080B0E010C0D00000085
:101AF00000370F08110E010C12000000D86A0E0802
:101B00000A0E010C0B0000001C370F080A0E000C17
:101B10000B00000038370F08100E000C10000000FA
:101B200054370F080B0E010C0D00000070370F0822
:101B30000913FF0C0800000094A50E0810190106F7
:101B40000E000000D0BF0D080B13010C0E000000AA
:101B5000BCA50E080B0E010C0D0000008C370F0801
:101B60000C13000C0C000000E4A50E080F0E000C76
:101B70000F000000A8370F080A13020C0E00000027
:101B80000CA60E080A1402060E00000034A60E0869
:101B90000A1902060E00000004C00D080613000713
:101BA00006000000AC6F0F08020E020C06000000D9
:101BB000F8810F08060E010C0900000008820F08CA
:101BC0000A1400060A0000005CA60E0807140006AE
:101BD00007000000C06F0F0806190206060000008B
:101BE000C4370F080B1902060E00000038C00D089C
:101BF000120E010C15000000046B0E081213010CEC
:101C000015000000CC360D081213010C1500000061
:101C100008370D080F13FD0C0E00000084A60E08F7
:101C20000E13020C0E000000ACA60E080A0E020CE9
:101C30000E000000E0370F080C0E010C0E00000033
:101C4000FC370F08110E010C14000000306B0E0859
:101C5000100E010C1200000018380F080C190106B4
:101C60000E0000006CC00D08070E000C09000000FB
:101C700018820F080714000609000000D46F0F082F
:101C80000C13000C09000000D4A60E080713020C68
:101C900009000000E86F0F080713020C090000009C
:101CA000FC6F0F08070E020C0900000028820F08C5
:101CB0000713000C0900000010700F080B0E020C37
:101CC0000D00000034380F080B0E020C0D00000050
:101CD00050380F080A13010C0B000000FCA60E0878
:101CE0000C1901060E000000A0C00D080C19FF061B
:101CF00008000000D4C00D080C13010C0E000000F9
:101D000024A70E080D1900060E00000008C10D08DA
:101D1000081200080800000024700F0808170008C7
:101D200008000000A8580F080E0E000C0E0000005E
:101D30006C380F080C0E020C1000000088380F08D9
:101D40000A0E020C0E000000A4380F080C0E000C46
:101D50000C000000C0380F08130E000C1300000028
:101D60005C6B0E080C1300070C0000004CA70E085B
:101D70000B0E000C0B000000DC380F080E13010CDA
:101D80000B00000074A70E080D10010C0E000000DF
:101D9000A41D0F080A13000C0B0000009CA70E08DE
:101DA0000B13000C0B000000C4A70E080B14000658
:101DB0000C000000ECA70E080B1401060C0000003C
:101DC00014A80E080B1400060C0000003CA80E0816
:101DD0000B13010C0C00000064A80E08101301077F
:101DE000120000008CA80E080A0E020C0D00000064
:101DF000F8380F080B0E010C0D00000014390F0805
:101E00000F1101090D0000004CF80E080A0E020C1B
:101E10000E00000030390F080A1800070A00000001
:101E200024220E080B13FF0C0C000000B4A80E08AF
:101E3000080E020C0A00000038820F081019010673
:101E40000E0000003CC10D080B1400060C00000041
:101E5000DCA80E080B1401060C00000004A90E08F3
:101E6000141401061600000044370D081419010669
:101E700016000000CC610C081816010619000000BD
:101E8000C0DA0C081112000811000000747A0D0865
:101E90000F1900060E00000070C10D081112000895
:101EA00012000000AC7A0D081219000614000000A0
:101EB00018620C080E140206100000002CA90E086F
:101EC0000B1402060E00000054A90E080B130107A4
:101ED0000C0000007CA90E080A1202080E00000087
:101EE00070F80E080F13000C11000000A4A90E08D2
:101EF0001313000C1300000080370D08080D0108B3
:101F00000A00000048820F08080D01080A000000BE
:101F100058820F08051000080600000068820F08AC
:101F20000509010C06000000E48F0F080509000CEC
:101F300006000000F08F0F08080C000C06000000DF
:101F4000FC8F0F080809010C0900000008900F0819
:101F50000C09000C0C00000038700F08090C000C74
:101F600009000000C0580F0805080207070000001C
:101F7000D8AA0F080A0801070C00000078820F0891
:101F80000507FF0605000000E0AA0F080507010687
:101F900005000000E8AA0F080507FF06050000007D
:101FA000F0AA0F08040705050E000000F8AA0F08A4
:101FB000040705050E00000000AB0F08070D01081F
:101FC0000900000088820F08070D010809000000C1
:101FD00098820F080D0E020B120000004C390F08FA
:101FE0000D0E030B1200000068390F080E0D020CD5
:101FF0001200000084390F080E0D020C12000000C0
:10200000A0390F08080503050E00000008AB0F08F3
:10201000080503050E00000010AB0F0802050605B9
:102020000E00000018AB0F08090202070E000000A6
:1020300020BB0F08050505050E00000020AB0F08AA
:10204000050503050E00000028AB0F080204061B5F
:102050000E00000024BB0F080902021D0E00000044
:1020600028BB0F080505031A0E00000030AB0F084F
:102070000505061A0E00000038AB0F08030E030C0E
:1020800009000000A8820F080303031109000000E3
:102090002CBB0F080407050F0E00000040AB0F0813
:1020A0000407050F0E00000048AB0F0806040114DA
:1020B0000800000030BB0F080604011408000000EF
:1020C00034BB0F08060401140800000038BB0F08D9
:1020D000090202140E0000003CBB0F0808050306AD
:1020E0000E00000050AB0F08020206080E000000B0
:1020F000A6BE0F08070703050E00000058AB0F0827
:102100000405041A0E00000060AB0F080A04020662
:102110000E00000068AB0F080A0503050E00000062
:1021200014900F08070500110800000070AB0F089D
:10213000080801070A00000078AB0F08080C000C23
:102140000800000020900F08020D010804000000A4
:10215000B8820F080709010C090000002C900F0835
:102160000709000C0800000038900F08070D01084F
:1021700009000000C8820F08061202080A000000C9
:102180004C700F08061202080A00000060700F0869
:10219000061202080A00000074700F0806120208F6
:1021A0000A00000088700F08061202080A000000EA
:1021B0009C700F08060B010F0800000044900F08E8
:1021C000060B010F0800000050900F080805031AC5
:1021D0000E00000080AB0F08070303070E0000008D
:1021E00040BB0F080A0701060A000000D8820F084A
:1021F0000503041B0E00000044BB0F080503041B6D
:102200000E00000048BB0F080305051A0E00000071
:1022100088AB0F080305051A0E00000090AB0F08ED
:102220000404051B0E0000004CBB0F08050503113C
:102230000E00000098AB0F080A0501110E00000007
:102240005C900F080A0503110E00000068900F084B
:102250000A04021B0E000000A0AB0F08030D0307C9
:1022600009000000E8820F08050504070E000000C1
:10227000A8AB0F08050505070E000000B0AB0F085E
:10228000050504150E000000B8AB0F08050505157F
:102290000E000000C0AB0F080905021A0E00000076
:1022A00074900F080905021A0E00000080900F08B4
:1022B0000607011808000000C8AB0F080505F70560
:1022C00000000000D0AB0F080505F8050000000075
:1022D000D8AB0F080805FC0500000000E0AB0F08B4
:1022E0000A04F40100000000E8AB0F080902FB0734
:1022F0000000000050BB0F080E02F90400000000AF
:1023000054BB0F080805FC0600000000F0AB0F08E6
:102310000202FF0800000000A8BE0F080802FC0827
:1023200000000000AABE0F0804050505000000001B
:10233000F8AB0F080707FC050000000000AC0F0811
:102340000A05FB05000000008C900F080805FC053D
:102350000000000008AC0F080205FF0500000000A7
:1023600010AC0F080505FE050000000018AC0F08B2
:102370000A05FB050000000098900F080807FC0400
:102380000000000020AC0F080805FC06000000005B
:1023900028AC0F080205FF060000000030AC0F0853
:1023A0000205FF060000000038AC0F080205FF061A
:1023B0000000000040AC0F0802050106000000000C
:1023C00048AC0F080505FD1A0000000050AC0F08CE
:1023D0000505FD1A0000000058AC0F080504FE1B9F
:1023E0000000000058BB0F080504FE1B00000000A1
:1023F0005CBB0F080906FB0400000000A4900F0856
:10240000040600030000000060AC0F080204FF1B7C
:102410000000000060BB0F080604FD1B0000000068
:1024200064BB0F080604FD1B0000000068BB0F081A
:102430000604FD1B000000006CBB0F080902FB1D19
:102440000000000070BB0F080607FC180000000029
:1024500068AC0F08060700180000000070AC0F08F9
:102460000202061C00000000ACBE0F080802FC1DA2
:1024700000000000AEBE0F080404FE1B00000000B8
:1024800074BB0F080204FF1B0000000078BB0F089C
:102490000605FD1A0000000078AC0F080405FE1ABE
:1024A0000000000080AC0F080204FF1B00000000C9
:1024B0007CBB0F080904FB1B0000000088AC0F0860
:1024C0000903FC1C0000000090AC0F080804FC1B72
:1024D0000000000080BB0F080804FC1B0000000087
:1024E00084BB0F080804FC1B0000000088BB0F0819
:1024F0000804FC1B000000008CBB0F080A04FB1B37
:102500000000000098AC0F080902FB1D000000004D
:1025100090BB0F080E02F91C0000000094BB0F08CE
:102520000A04FB1B00000000A0AC0F080A04FB0E0D
:1025300000000000A8AC0F080902FB10000000001A
:1025400098BB0F080E02F910000000009CBB0F089A
:102550000A09FB0D00000000B0700F080918FB0607
:102560000000000054220E080204FF1B00000000BF
:10257000A0BB0F080904FB1B00000000B0AC0F0853
:102580000404FE1B00000000A4BB0F080903FC1C90
:1025900000000000B8AC0F080606FD0300000000B4
:1025A000C0AC0F080206FF0400000000C8AC0F0812
:1025B0000E05F90100000000B0900F080A04FB06A8
:1025C00000000000D0AC0F080205FF06000000006C
:1025D000D8AC0F080905FC0500000000BC900F08EE
:1025E0000304FE1B00000000A8BB0F080904FB0544
:1025F00000000000E0AC0F080E04F91B0000000012
:10260000E8AC0F080504FE1B00000000ACBB0F087F
:102610000504FE1B00000000B0BB0F080A06FB0506
:1026200000000000C8900F080A08FB03000000002B
:10263000F8820F080A06FB0400000000D4900F087F
:102640000604FD1B00000000B4BB0F080604FD1BC0
:1026500000000000B8BB0F081211F70900000000CD
:10266000A4C10D080305FD0500000000F0AC0F0833
:102670000407FE0500000000F8AC0F080807FC0482
:102680000000000000AD0F080505FD1A0000000065
:1026900008AD0F080305FF1A0000000010AD0F0879
:1026A0000305FE1A0000000018AD0F080805FD1A0A
:1026B0000000000020AD0F080407FE050000000028
:1026C00028AD0F080202060800000000B0BE0F0887
:1026D0000504FE1B00000000BCBB0F080704FD1B27
:1026E00000000000C0BB0F080405FE06000000004B
:1026F00030AD0F081305F61A0000000008830F081C
:102700001305FE060000000018830F081302FE06E2
:102710000000000038AD0F081302FE1D000000008D
:1027200040AD0F081304FE0600000000E0900F0803
:102730001305FE060000000028830F080E04FE1B90
:102740000000000048AD0F080507FD040000000070
:1027500050AD0F080607FD040000000058AD0F083B
:102760000109FF0200000000EC900F080607FD04BD
:102770000000000060AD0F080507FD040000000028
:1027800068AD0F080507FD040000000070AD0F08DC
:10279000060AFD0100000000F8900F08050AFD017F
:1027A0000000000004910F080907FB04000000006E
:1027B00038830F080307FE040000000078AD0F08FF
:1027C0000409FE020000000010910F080507FD0437
:1027D0000000000080AD0F080507FD0400000000A8
:1027E00088AD0F08040505050E00000090AD0F0828
:1027F0000404051B0E000000C4BB0F080304051BE6
:102800000E000000C8BB0F080A0E010C0C000000EF
:10281000BC390F080A0E010C0C000000D8390F0853
:102820000A0E010C0C000000F4390F080513020C0D
:1028300009000000C4700F08030505050E00000024
:1028400098AD0F08090502050E0000001C910F0845
:102850000F1300070F000000CCA90E080303030CA0
:1028600009000000CCBB0F08101300071100000086
:10287000F4A90E081213000714000000BC370D085D
:102880000A1300070C0000001CAA0E08131300070F
:1028900014000000F8370D081213000712000000A2
:1028A00034380D08141300071400000070380D08A8
:1028B0000815FF0506000000D8580F080F13000781
:1028C0000F00000044AA0E080C1302070F000000BE
:1028D0006CAA0E080B1302070D00000094AA0E0844
:1028E0000F1300070F000000BCAA0E080B1302070D
:1028F0000E000000E4AA0E080C1301070E000000F1
:102900000CAB0E080D1302071100000034AB0E08CB
:1029100010130107120000005CAB0E08061301073C
:1029200009000000D8700F080D1302070F00000007
:1029300084AB0E080F1300070F000000ACAB0E08AD
:102940000F13020713000000D4AB0E080D1302078B
:1029500011000000FCAB0E080C1301070E00000074
:1029600024AC0E0810130107120000004CAC0E0836
:102970000D1302071100000074AC0E080C130207BF
:102980000E0000009CAC0E080D1301070E000000A5
:10299000C4AC0E081013FF070F000000ECAC0E08CB
:1029A0000E1300070E00000014AD0E0810130107EF
:1029B000130000003CAD0E080F1300070F000000CD
:1029C00064AD0E0810130207140000008CAD0E0851
:1029D0001113010712000000AC380D08061701039F
:1029E00009000000F0580F080E1700030E00000049
:1029F00084220E080B1501050E000000886B0E08DE
:102A00000A1501050B000000B46B0E080A1A020536
:102A10000E000000D8C10D080315020506000000D5
:102A200008590F080A1502050E000000E06B0E0899
:102A30000B0E010C0E000000103A0F080B190206D5
:102A40000E0000000CC20D080C13000C0C0000005E
:102A5000B4AD0E080C1401060E000000DCAD0E082B
:102A60000A0E010C0B0000002C3A0F080A1901068F
:102A70000A00000040C20D080A13020C0E000000FC
:102A800004AE0E080C1401060E0000002CAE0E0859
:102A9000020E020C0600000048830F080A0E020C0A
:102AA0000C000000483A0F080C1400060C0000004F
:102AB00054AE0E080A13020C0E0000007CAE0E0885
:102AC0000C0E000C0C000000643A0F080B190106F4
:102AD0000B00000074C20D080C0E010C0E0000006B
:102AE000803A0F080A0E020C0E0000009C3A0F08F4
:102AF0000B13020C0E000000A4AE0E080A13010C0A
:102B00000B000000CCAE0E080E0E010C0F000000F2
:102B1000B83A0F080C0E000C0C000000D43A0F0855
:102B20000A0E020C0E000000F03A0F081013010C00
:102B300012000000F4AE0E080C13000C0C00000094
:102B40001CAF0E080E13020C1200000044AF0E085A
:102B5000100E010C120000000C3B0F0806130007BA
:102B600006000000EC700F080A1202080E000000B8
:102B700094F80E080C1501050E0000000C6C0E08F0
:102B80000A1502050E000000386C0E08101501052C
:102B900012000000646C0E080B1402060E00000008
:102BA0006CAF0E080C1402060E00000094AF0E0865
:102BB0001213000711000000E8380D081615000573
:102BC00015000000B0010D081217000311000000ED
:102BD000F49A0C080C1901060E000000A8C20D089A
:102BE000100E010C12000000283B0F080E13000C01
:102BF0000E000000BCAF0E08101801071200000004
:102C0000B4220E080C13010C0E000000E4AF0E08F5
:102C10000D1801070F000000E4220E080B13010C31
:102C20000C0000000CB00E080B1302070D00000092
:102C300034B00E080813020C0B00000000710F08DE
:102C40000F130107100000005CB00E080B14010602
:102C50000D00000084B00E081218000713000000D9
:102C60003C9B0C080D1900060E000000DCC20D088C
:102C70001218020716000000849B0C081213010CA6
:102C80001500000024390D080D1301071000000085
:102C9000ACB00E080A1402060E000000D4B00E08F4
:102CA0000D1802071000000014230E080D0E000C72
:102CB0000D000000443B0F080C1301070E0000003C
:102CC000FCB00E080C1401060E00000024B10E0822
:102CD0000F1300070F0000004CB10E080F0E000C80
:102CE0000F000000603B0F081013010712000000E6
:102CF00074B10E080C0E010C0E0000007C3B0F0896
:102D00000C1300070C0000009CB10E080A1400060A
:102D10000A000000C4B10E080E0E000C0E000000E8
:102D2000983B0F080C13010C0E000000ECB10E08CC
:102D30000A0E010C0C000000B43B0F080618FF0738
:102D40000700000020590F081013010712000000AF
:102D500014B20E080B0E010C0C000000D03B0F0843
:102D60000B0E000C0C000000EC3B0F080A130207CE
:102D70000E0000003CB20E080B1902060E00000007
:102D800010C30D080E13FF0C0E00000064B20E08F5
:102D90000D1301070F0000008CB20E080D13010780
:102DA0000F000000B4B20E080D1301070F00000061
:102DB000DCB20E080B1902010E00000044C30D081E
:102DC0000B1702030E00000044230E081113000726
:102DD0001200000060390D080B1902010D000000FF
:102DE00078C30D080D1301070F00000004B30E088F
:102DF0000C1301070E0000002CB30E080613010788
:102E00000900000014710F080617010309000000F3
:102E100038590F08081300070A00000028710F082E
:102E2000191300071900000064620C081713020749
:102E3000190000009C390D08111300071200000052
:102E4000D8390D080D1902010F000000ACC30D08A0
:102E50000D19020111000000E0C30D080E18000258
:102E60000E00000074230E080D1702071100000069
:102E7000A4230E080F1300070F00000054B30E0820
:102E80000C1302070F0000007CB30E080C1302079E
:102E90000F000000A4B30E080B1302070D00000082
:102EA000CCB30E081017000711000000D4230E0841
:102EB0000B1302070E000000F4B30E0816130007F0
:102EC00016000000143A0D080C1300070D00000056
:102ED0001CB40E080D1302071100000044B40E08C4
:102EE0000D1802021100000004240E080D13020741
:102EF0000F0000006CB40E080F1300071100000053
:102F000094B40E080F13020713000000BCB40E089F
:102F10000D13020711000000E4B40E08101301079E
:102F2000120000000CB50E080D130207110000007E
:102F300034B50E080C1302070E0000005CB50E0835
:102F40000D1301070F00000084B50E081013FF07D2
:102F50000F000000ACB50E080E1300070E000000B5
:102F6000D4B50E081013010713000000FCB50E08BD
:102F70000F1300070F00000024B60E080E170207FB
:102F80001100000034240E080D130107100000008A
:102F90004CB60E081413020718000000503A0D0832
:102FA0001617020718000000CC9B0C08111300072D
:102FB000110000008C3A0D081013020714000000E5
:102FC00074B60E080D1302070F0000009CB60E0821
:102FD0000D1301070F000000C4B60E0815130207F9
:102FE00018000000C83A0D080D1300070F0000007C
:102FF000ECB60E080A0E010C0D000000083C0F088C
:103000000C1401060E00000014B70E080A0E020C84
:103010000D000000243C0F08080E020C0A000000FE
:1030200058830F080D11000C0E000000B8F80E08B0
:103030000B0E010C0D000000403C0F08120E000C9E
:1030400012000000906C0E080A0E000C0B0000002D
:103050005C3C0F080A0E020C0E000000783C0F08C2
:103060000A1402060E0000003CB70E080A0E020CFD
:103070000C000000943C0F080C0E000C0E00000029
:10308000B03C0F080C0E020C10000000CC3C0F08E6
:103090000A0E020C0E000000E83C0F080C0E010C9A
:1030A0000E000000043D0F080A0E020C0E00000086
:1030B000203D0F080B13020C0E00000064B70E0831
:1030C0000A0E010C0C0000003C3D0F080C0E000C19
:1030D0000C000000583D0F080C13000C0C00000001
:1030E0008CB70E081219000613000000B0620C081D
:1030F0000C0E000C0C000000743D0F080B11020CAC
:103100000E000000DCF80E080B0E010C0E00000093
:10311000903D0F08100E010C13000000AC3D0F088D
:103120001111020C1400000014C40D080D0E000C47
:103130000E000000C83D0F080D0E020C110000002B
:10314000E43D0F080A0E020C0D000000003E0F08BF
:103150000A0E010C0C0000001C3E0F08100E020CA1
:1031600013000000383E0F080B0E000C0D0000008D
:10317000543E0F080B1501050D000000BC6C0E0835
:103180000B1201080D00000000F90E080C190006D2
:103190000E00000048C40D08081502050A000000D2
:1031A00050590F080A0E010C0C000000703E0F0869
:1031B0000A0E010C0B0000008C3E0F0802130207E0
:1031C000060000003C710F0806130007060000000F
:1031D00050710F080618FF070700000068590F0814
:1031E000140E000C15000000E86C0E08120E020C04
:1031F00015000000146D0E080C1400060E000000EF
:10320000B4B70E080A1502050C000000406D0E0848
:103210000A1502050E0000006C6D0E080C19000660
:103220000C0000007CC40D080A11020C0E00000006
:1032300024F90E081B1301071D000000FC620C0896
:10324000120E000C12000000986D0E0810130007FB
:1032500011000000DCB70E080D1400060E0000007F
:1032600004B80E081213020715000000043B0D08F5
:103270000E0E020C11000000A83E0F080F130007ED
:103280000F0000002CB80E080C0E000C0C00000003
:10329000C43E0F081213020714000000403B0D0843
:1032A0000F0E020C11000000E03E0F08141300077F
:1032B000140000007C3B0D080F0E000C0F000000F6
:1032C000FC3E0F081713020719000000B83B0D0859
:1032D000130E020C15000000C46D0E080B1E010138
:1032E0000D000000F43B0D080A1A00050B00000059
:1032F000B0C40D08101302071400000054B80E08E3
:103300000E13020C120000007CB80E081013010707
:1033100012000000A4B80E080C0E010C0E000000F4
:10332000183F0F081313000712000000303C0D086F
:10333000100E000C0F000000343F0F08131900019D
:103340001200000048630C08101500050F00000073
:10335000F06D0E081C1801071D000000F4C50B08D5
:103360001813010C190000006C3C0D081315010620
:1033700015000000F0010D080F10010B11000000F6
:10338000C41D0F08151901011700000094630C08F3
:103390001117010313000000149C0C081B170103F4
:1033A0001D00000034040C08121200081200000076
:1033B000E47A0D080D1801070F00000064240E08C0
:1033C0000A13010C0C000000CCB80E080C13000707
:1033D0000C000000F4B80E08080503060000000009
:1033E000A0AD0F080903020700000000A8AD0F08F8
:1033F0000205060600000000B0AD0F080205060633
:1034000000000000B8AD0F080A0403061000000019
:10341000C0AD0F081816F4080000000004DB0C080B
:103420001818F407000000005C9C0C080F1C020236
:10343000110000001C7B0D080C1702060E00000096
:1034400094240E080F1300070F0000001CB90E088B
:103450000C1400060D00000044B90E080D130207FD
:103460000E0000006CB90E080C13020C0E000000D8
:1034700094B90E080B1802020D000000C4240E08B7
:10348000081302070A00000064710F080C130107FB
:103490000D000000BCB90E08090E010C0A00000066
:1034A000503F0F080B1802070E000000F4240E080E
:1034B0000A13020C0D000000E4B90E0816170007ED
:1034C00017000000A49C0C081211000C130000004F
:1034D000E4C40D080C1800070D00000024250E0898
:1034E0000A13000C0B0000000CBA0E080E1702079E
:1034F0001000000054250E080A11020C0D000000F7
:1035000048F90E080D1302070F00000034BA0E0828
:103510000A0E020C0C0000006C3F0F080F1300078E
:103520000F0000005CBA0E080C1400060C0000002E
:1035300084BA0E081213000712000000A83C0D0800
:103540000E0E000C0E000000883F0F080F17020738
:103550001100000084250E080B11020C0E00000063
:103560006CF90E081213020714000000E43C0D0869
:103570000E0E020C10000000A43F0F0816180207E0
:1035800019000000EC9C0C081213020C150000003E
:10359000203D0D0811140107120000005C3D0D08CC
:1035A0000D0F010C0E000000E41D0F080D1801079F
:1035B0000F000000B4250E080A13010C0C000000D7
:1035C000ACBA0E081017FF070F000000E4250E0824
:1035D0000C11000C0C00000090F90E080E130007EF
:1035E0000E000000D4BA0E080C13000C0C000000F2
:1035F000FCBA0E080E1300070E00000024BB0E08D4
:103600000C13000C0C0000004CBB0E080F17000739
:103610000F00000014260E080C11000C0D00000015
:10362000B4F90E081317000714000000349D0C08AD
:103630000F11000C10000000D8F90E080F17010739
:103640001000000044260E080C11010C0E000000B2
:10365000FCF90E080D1301071000000074BB0E08E2
:103660000B0E010C0E000000C03F0F080C130207E8
:10367000100000009CBB0E080A1402060E00000099
:10368000C4BB0E081413000715000000983D0D0878
:103690000F0E000C10000000DC3F0F08141700078D
:1036A000150000007C9D0C080F11000C100000009C
:1036B00020FA0E08061301070900000078710F08B0
:1036C0001619000116000000E0630C081214000631
:1036D00012000000D43D0D080C1802070F00000076
:1036E00074260E080913020C0C000000ECBB0E0837
:1036F0001117000711000000C49D0C080E11000CEA
:103700000E00000044FA0E080D1802071100000018
:10371000A4260E080A13020C0E00000014BC0E08AA
:103720000F17020711000000D4260E080C11020C1E
:103730000E00000068FA0E080D17010710000000C7
:1037400004270E080B11010C0E0000008CFA0E0865
:1037500011170207130000000C9E0C080E11020C3A
:1037600010000000B0FA0E08021402060600000065
:103770008C710F080F1900010F00000018C50D080B
:103780000A1401060D0000003CBC0E080F160004D0
:103790000F0000001C6E0E080A1201080D00000048
:1037A000D4FA0E081613000717000000103E0D088B
:1037B000140E010C16000000486E0E080B190201D1
:1037C0000E0000004CC50D080B1401060D00000092
:1037D00064BC0E0810130107120000008CBC0E0818
:1037E0000B0E010C0D000000F83F0F08101601042D
:1037F00012000000746E0E080B1201080D0000008C
:10380000F8FA0E08161600041600000048DB0C0833
:103810001212000812000000547B0D080C16000460
:103820000D000000A06E0E080A1200080B00000038
:103830001CFB0E080C1300070D000000B4BC0E08A2
:103840000A13000C0B000000DCBC0E080D1702036D
:103850001100000034270E080A1302070E000000B2
:1038600004BD0E080D16020411000000CC6E0E08F7
:103870000A1202080E00000040FB0E081017010398
:103880001200000064270E080C1201080E00000050
:1038900064FB0E0810130107120000002CBD0E0877
:1038A0000C0E010C0E00000014400F08101701034D
:1038B0001200000094270E080C1201080E000000F0
:1038C00088FB0E080D1601040F000000F86E0E08AC
:1038D0000A1201080C000000ACFB0E080E170003D2
:1038E0000E000000C4270E080C1800070C00000092
:1038F000F4270E080E1600040E000000246F0E08B8
:103900000C1700080C00000024280E080E190001F6
:103910000E00000080C50D080C1A00050C00000008
:10392000B4C50D080D16010410000000506F0E08FC
:103930000B1201080E000000D0FB0E080B17020747
:103940000D00000054280E080812020C0A000000A6
:10395000A0710F0810160204140000007C6F0E08FE
:103960000D12020811000000F4FB0E080D180007EC
:103970000D00000084280E080A13000C0A00000045
:1039800054BD0E08101800070F000000B4280E08E0
:103990000C13000C0C0000007CBD0E080F13000778
:1039A0000F000000A4BD0E080C0E000C0C0000005F
:1039B00030400F080D1300070F000000CCBD0E08AB
:1039C0000B1401060E000000F4BD0E0815130007CD
:1039D000170000004C3E0D081314010616000000ED
:1039E000883E0D081413010717000000C43E0D089F
:1039F000120E010C15000000A86F0E080E1701072B
:103A00000F000000E4280E080B11010C0D0000004F
:103A100018FC0E081713000719000000003F0D08DE
:103A2000140E000C16000000D46F0E0815130207C8
:103A3000190000003C3F0D08120E020C1600000099
:103A400000700E080F130107110000001CBE0E08C5
:103A50000B0E010C0D0000004C400F081113000765
:103A600013000000783F0D080F0E000C110000003D
:103A700068400F080C1301070D00000044BE0E083B
:103A80000A0E010C0B00000084400F080F180007FD
:103A90001100000014290E080C13000C0E00000089
:103AA0006CBE0E08101801071200000044290E0811
:103AB0000B13010C0E00000094BE0E081713000734
:103AC00017000000B43F0D08130E000C1300000097
:103AD0002C700E081013020712000000BCBE0E0866
:103AE0000D13020710000000E4BE0E0810130007BB
:103AF000100000000CBF0E08111300071100000099
:103B0000F03F0D080D1302071000000034BF0E082F
:103B10000D1301070F0000005CBF0E080C13020715
:103B20000F00000084BF0E080D13020710000000F4
:103B3000ACBF0E0812130207140000002C400D0841
:103B40000F13010710000000D4BF0E080C1302076A
:103B50000F000000FCBF0E080A1302070C00000053
:103B600024C00E08121302071600000068400D085A
:103B700010130007100000004CC00E080C130207C1
:103B80001000000074C00E080B1301070D000000A8
:103B90009CC00E080E1300070F000000C4C00E08E2
:103BA0001113000711000000A4400D080D130207B7
:103BB00011000000ECC00E081013020712000000F4
:103BC00014C10E080E130107100000003CC10E08BE
:103BD000101300071100000064C10E080D13010747
:103BE0000F0000008CC10E080C130207100000002B
:103BF000B4C10E080D1301070F000000DCC10E0850
:103C00000F1300071100000004C20E080D13010776
:103C10000F0000002CC20E08101302071200000053
:103C200054C20E080C130207100000007CC20E08DC
:103C30001113000711000000E0400D080F130007EA
:103C400010000000A4C20E080C1302070F000000B1
:103C5000CCC20E080F13010711000000F4C20E08B9
:103C60000A1302070D0000001CC30E081013010701
:103C70001300000044C30E080E1300070F000000DD
:103C80006CC30E08101301071200000094C30E0845
:103C90000F13000710000000BCC30E080205010648
:103CA00005000000C8AD0F08020501060500000070
:103CB000D0AD0F080505010608000000D8AD0F08BB
:103CC000070A01060900000028910F0805050106F2
:103CD00008000000E0AD0F0807060106090000001B
:103CE000E8AD0F080A0601030C00000034910F082C
:103CF000110E020C1500000058700E080A13020C79
:103D00000E000000E4C30E080E13010C0F000000AB
:103D10000CC40E080D13020C0F00000034C40E0872
:103D20000A1402060E0000005CC40E080E13010CFB
:103D30000F00000084C40E080A1402060D000000E3
:103D4000ACC40E080A13020C0E000000D4C40E0806
:103D50000F13020C11000000FCC40E080E14010623
:103D60000F00000024C50E080A1902060E0000000C
:103D7000E8C50D080613020C08000000B4710F0816
:103D800012190206160000002C640C080D1401061E
:103D90000E0000004CC50E080A1902060E000000B5
:103DA0001CC60D080A1402060E00000074C50E0899
:103DB0000A1401060C0000009CC50E080D13020C2D
:103DC0000F000000C4C50E080B1401060C00000013
:103DD000ECC50E080D1402060F00000014C60E08F4
:103DE0000613000C08000000C8710F080D1400062F
:103DF0000F0000003CC60E080A13000C0B00000068
:103E000064C60E080A0E020C0E000000A0400F0847
:103E10000A13000C0B0000008CC60E081113020CD4
:103E2000150000001C410D080B13000C0C000000D5
:103E3000B4C60E080B0E020C0E000000BC400F08AA
:103E40000A0E020C0E000000D8400F080D190206E1
:103E50000F00000050C60D08110E020C15000000E6
:103E600084700E080A13020C0E000000DCC60E0857
:103E70000B13010C0E00000004C70E08080E020C04
:103E80000A00000068830F081119020615000000DF
:103E900078640C080E13000C0F0000002CC70E08ED
:103EA0000C0E010C0E000000F4400F081019000663
:103EB0001100000084C60D080D1402060F0000005A
:103EC00054C70E08030E030C0900000078830F0886
:103ED0000703011009000000D0BB0F080505FE1AFA
:103EE00000000000F0AD0F080803FC060000000011
:103EF000D4BB0F080306FE0300000000F8AD0F0856
:103F00000205FF040000000000AE0F080405FE04D7
:103F10000000000008AE0F080405FE1A00000000B3
:103F200010AE0F080303FF0600000000D8BB0F0807
:103F30000704FC0500000000DCBB0F080405FC04BE
:103F40000000000018AE0F080303001B0000000073
:103F5000E0BB0F080405FE1A0000000020AE0F08A9
:103F60000405FE040000000028AE0F08040500044C
:103F70000000000030AE0F080805FC04000000003F
:103F800038AE0F080E06F9030000000040910F083C
:103F9000060600030000000040AE0F080405FE0402
:103FA0000000000048AE0F080505FE1A00000000E2
:103FB00050AE0F080304FF1B00000000E4BB0F0815
:103FC0000303FE1B00000000E8BB0F080405FE1AF7
:103FD0000000000058AE0F080805FC1A00000000A1
:103FE00060AE0F080305FE1A0000000068AE0F085F
:103FF0000405FE040000000070AE0F080606FA0378
:104000000000000078AE0F080505FE1A0000000051
:1040100080AE0F080303FE0600000000ECBB0F0893
:104020000304FF0500000000F0BB0F080405001AA0
:104030000000000088AE0F080704F905000000002A
:10404000F4BB0F080303FE0600000000F8BB0F08D6
:104050000205061A0000000090AE0F080805031ABA
:104060000000000098AE0F080605041A00000000CA
:10407000A0AE0F080605041A00000000A8AE0F0845
:104080000202061B00000000B2BE0F080502041B5E
:1040900000000000B4BE0F080505051A000000006E
:1040A000B0AE0F080301051B0000000024BF0F087D
:1040B0000503041B00000000FCBB0F0802020608F9
:1040C00000000000B6BE0F08020203070000000057
:1040D000B8BE0F080805031A00000000B8AE0F08AC
:1040E0000202061200000000BABE0F080103061B00
:1040F0000000000000BC0F080602020B0A000000CE
:10410000BCBE0F08030105080000000025BF0F0812
:104110000213020906000000DC710F080202060803
:1041200000000000BEBE0F080202FF0800000000F1
:10413000C0BE0F08030F030B0900000088830F089F
:104140000202010700000000C2BE0F080202FF1CAD
:1041500000000000C4BE0F080710020A0A00000099
:1041600098830F080504FD1B0000000004BC0F0825
:104170000D0F020B11000000041E0F080E0F010BA3
:1041800010000000241E0F080C0F000B0C00000094
:10419000441E0F080D0F010B0F000000641E0F08D6
:1041A0000D0F020B11000000841E0F08050F000BFD
:1041B00007000000A8830F08070F010B080000008C
:1041C000B8830F080D0F020B11000000A41E0F088A
:1041D0000D0F020B11000000C41E0F080508000B94
:1041E00007000000C0AE0F080E14000B1000000006
:1041F0007CC70E080D0F010B10000000E41E0F0815
:104200000D14010610000000A4C70E080D0F020BCC
:1042100011000000041F0F080E0F010B1100000019
:10422000241F0F080714000B09000000F0710F088D
:10423000070F010B0A000000C8830F08100F000BC6
:1042400012000000441F0F080D11010B10000000A8
:104250003CFC0E080E14010B11000000CCC70E0828
:104260000D0F010B10000000641F0F080B14000B52
:104270000C000000F4C70E080D0F010B0F0000002A
:10428000841F0F080D14020B110000001CC80E083B
:104290000C0F000B0E000000A41F0F08110F020BE3
:1042A0001400000074290E08100F000B120000000B
:1042B000C41F0F080C0F000B0E000000E41F0F08B6
:1042C0000C0F000B0E00000004200F080C08000B60
:1042D0000E000000D8830F08050701060500000046
:1042E000C8AE0F080A0701060A000000E8830F089D
:1042F0001205011A14000000F8830F082505011AA1
:104300002700000010410F081D0700181E000000C4
:104310002C410F08170701181900000080590F08D9
:104320001017010812000000A4290E080307031348
:1043300009000000D0AE0F080707011808000000B0
:10434000D8AE0F081D0701131D00000048410F08DB
:104350000C12010D0F00000060FC0E080705FC02A6
:1043600000000000E0AE0F080705FC02000000009E
:10437000E8AE0F080706FC0200000000F0AE0F08D0
:104380000907FB010000000008840F080904FC0273
:1043900000000000F8AE0F0806070113000000003F
:1043A00000AF0F08030E030C0900000018840F086B
:1043B000060501150800000008AF0F080A130107E1
:1043C0000C00000044C80E08070901110A00000093
:1043D0004C910F08061600040600000098590F08BB
:1043E000041901010600000064410F080915000AC4
:1043F0000A000000B0700E08041801070600000053
:10440000B0590F08140F010B16000000D4290E0834
:10441000021302070600000004720F08120C0112BA
:104420001400000084FC0E080A1101090C000000B1
:10443000A8FC0E08120C010E14000000CCFC0E08A3
:10444000120F010B14000000042A0E080C11010EBB
:104450000F000000F0FC0E080C11010E0F00000010
:1044600014FD0E080C14010B0F0000006CC80E08A0
:104470000A0C010E0C000000C8590F080A10010AAE
:104480000C00000024200F08080B00140900000095
:1044900058910F080810000F0900000028840F0829
:1044A0001C0E01111E0000008C7B0D081C14010B5A
:1044B0001E000000004C0C081B0F01101D00000026
:1044C00058410D081B14010B1D000000504C0C0836
:1044D0001113FF071100000094410D081113FF078D
:1044E00011000000D0410D080C12010D0F0000005A
:1044F00038FD0E080C1601090F000000DC700E08D4
:104500000702FF1806000000C6BE0F0814120108BB
:1045100016000000C47B0D081415010716000000EA
:1045200030020D080F1301071200000094C80E0896
:104530000D13010710000000BCC80E08100EFE117C
:104540000F00000080410F080F0E010C1100000049
:104550009C410F080A0C010E0C000000E0590F08E6
:10456000090F00100A00000044200F08140E010C6F
:104570001600000008710E081412010C160000004D
:10458000FC7B0D08070400050000000008BC0F08B4
:10459000080500010000000010AF0F080704001A12
:1045A000000000000CBC0F0807020004000000001F
:1045B000C8BE0F08060500010000000018AF0F0874
:1045C0000702001C00000000CABE0F080705010119
:1045D0000000000020AF0F080505000200000000E9
:1045E00028AF0F080602000400000000CCBE0F0830
:1045F000040401020000000010BC0F080404011BA9
:104600000000000014BC0F080105FF1A00000000A4
:1046100030AF0F080605FD010000000038AF0F089D
:104620000403FE030000000018BC0F080501FD098B
:104630000000000026BF0F08050300040000000072
:104640001CBC0F08070400030000000020BC0F087A
:104650000202FF1C00000000CEBE0F08060500018C
:104660000000000040AF0F08050300030000000039
:1046700024BC0F080707040E0E00000048AF0F0807
:10468000051104090E00000018720F080C11010931
:104690000E0000005CFD0E080D1100090E00000068
:1046A00080FD0E080B1102090E000000A4FD0E088B
:1046B0000D0E010C0E000000B8410F080C1101098D
:1046C0000E000000C8FD0E080D1101090E000000CB
:1046D000ECFD0E080D1101090E00000010FE0E0881
:1046E0000C1102090E00000034FE0E080D11010924
:1046F0000E00000058FE0E08030703170900000013
:1047000050AF0F08030703130900000058AF0F084C
:104710000C0C010C0E000000F8590F0812080112D1
:1047200014000000105A0F081410010C16000000AD
:10473000342A0E080108FF010000000060AF0F08D6
:104740000618000206000000285A0F08061800028A
:1047500006000000405A0F08061800070600000077
:10476000585A0F08040401020600000028BC0F0874
:1047700007130207060000002C720F080A15000A32
:104780000A00000034710E080B15FF0A0A00000031
:1047900060710E0816140106160000000C420D0888
:1047A0001211010914000000B8C60D08120F010B08
:1047B00014000000642A0E08120D011214000000FB
:1047C000E4C80E081210010E14000000942A0E080E
:1047D000120E010C140000008C710E08120D011253
:1047E000140000000CC90E08120F010B1400000089
:1047F000C42A0E08120D01121400000034C90E085C
:104800000C1701080F000000F42A0E080C1801070D
:104810000F000000242B0E080C11010E0F000000E9
:104820007CFE0E080C11010E0F000000A0FE0E0809
:104830000C1801070F000000542B0E080C11010E7C
:104840000F000000C4FE0E080C11010E0F00000046
:10485000E8FE0E080A1501050C000000B8710E08EC
:104860000A10010E0C00000064200F080A10010E4F
:104870000C00000084200F080A1901050C0000003C
:10488000ECC60D080A10010A0C000000A4200F0855
:104890000A10010E0C000000C4200F080A130107C3
:1048A0000C0000005CC90E080A1301070C00000090
:1048B00084C90E080A1301070C000000ACC90E08D9
:1048C0000816000909000000705A0F080811000EB0
:1048D0000900000040720F080B0B001409000000D3
:1048E000885A0F08090B001409000000A05A0F088D
:1048F0000C0B001409000000B85A0F08090B001433
:1049000009000000D05A0F080810000F090000002D
:1049100038840F080813000C0900000054720F08B7
:104920000813000C0900000068720F081C11010E2A
:104930001E0000008CDB0C081C0E01111E00000084
:10494000347C0D081C14010B1E000000A04C0C0848
:104950001B0F01101D00000048420D081B17010825
:104960001D00000090040C081113FF071100000047
:1049700084420D080C1901060F00000020C70D0825
:10498000140E010C16000000E4710E081412010C44
:10499000160000006C7C0D081416010816000000BB
:1049A000D0DB0C08141501051600000070020D087C
:1049B0001413010C16000000C0420D081415010567
:1049C00016000000B0020D081414010816000000C3
:1049D000FC420D081417010516000000549E0C0837
:1049E000141301071700000038430D081E0C010EB8
:1049F0001F000000842B0E0814130107170000008D
:104A000074430D080F13010712000000D4C90E08EB
:104A10000F1601041200000010720E080F18010793
:104A200012000000B42B0E08141601041700000039
:104A300014DC0C08141601041700000058DC0C08E4
:104A400014160104170000009CDC0C08141A010461
:104A500017000000F04C0C08141B010417000000A4
:104A6000DC2D0C081419010117000000C4640C08A7
:104A70000F17010310000000E42B0E080D160104AF
:104A8000100000003C720E080F1901011000000018
:104A900054C70D080D18010710000000142C0E0853
:104AA0000F12010C110000000CFF0E080F0A01107C
:104AB000110000007C720F080F13010711000000A5
:104AC000FCC90E080F12010C1100000030FF0E0887
:104AD0000F1101091100000054FF0E08110DFF0D08
:104AE0001100000024CA0E080C14010B0F00000076
:104AF0004CCA0E080A1201080C00000078FF0E08CC
:104B00000C0801140D00000048840F080C10010C63
:104B10000D000000E4200F080C0E010E0D00000037
:104B2000D4410F08090F00100A00000004210F08EB
:104B3000090E00110A000000F0410F080913000CD3
:104B40000A00000074CA0E08091700080A000000D5
:104B5000442C0E08091900060A00000088C70D0839
:104B60000914000B0A0000009CCA0E080913000C6F
:104B70000A000000C4CA0E08091600090A00000055
:104B800068720E08140E010C1600000094720E08D4
:104B9000160E000C17000000C0720E08140E010C57
:104BA00016000000EC720E080913000C0A00000049
:104BB000ECCA0E081413010C16000000B0430D08D7
:104BC0001413010C16000000EC430D08170B001322
:104BD000170000009CFF0E081712000C17000000C1
:104BE000A47C0D080602001806000000D0BE0F08C5
:104BF0000A0C010E0C000000E85A0F080B09FB021A
:104C00000000000090720F080C09FA02000000007A
:104C1000A4720F080504FE05000000002CBC0F085C
:104C20000708FD020000000068AF0F080507FE0539
:104C30000000000070AF0F080302FF070000000033
:104C4000D2BE0F080C05FA060000000064910F08A0
:104C50001A1B01041C0000005C780B081B1B0004DD
:104C600000000000C8780B080202FF0700000000E7
:104C7000D4BE0F080202FF0700000000D6BE0F08D6
:104C80000704FD050000000030BC0F080706FC0506
:104C90000000000078AF0F080C05FA1A00000000B1
:104CA00070910F080403FF010000000034BC0F08DE
:104CB000050500060600000080AF0F080905000783
:104CC0000A0000007C910F080905FB0700000000A6
:104CD00088910F080606FD030000000088AF0F084A
:104CE0001114FF060F00000028440D080505FE1AE8
:104CF0000000000090AF0F080505FE050000000051
:104D000098AF0F080202FF0700000000D8BE0F088E
:104D10000706FC1900000000A0AF0F080A110109E6
:104D20000C000000C0FF0E080912000D0900000071
:104D3000E4FF0E080707040E0E000000A8AF0F08DE
:104D4000051104090E000000B8720F080C110109CA
:104D50000E00000008000F080D1100090E000000F1
:104D60002C000F080C10010A0E00000024210F086F
:104D70000D1100090E00000050000F08090F030B71
:104D80000E00000044210F080D1101090E00000063
:104D900074000F080D1101090E00000098000F08A3
:104DA0000C1102090E000000BC000F081C14010BBE
:104DB0001E000000404D0C081B14010B1D000000DC
:104DC000904D0C080C1601090F00000018730E0816
:104DD000080D01110A00000058840F080E0E001182
:104DE0000F0000000C420F081114FF061100000014
:104DF00064440D08120C011214000000E0000F08BA
:104E00001213010B14000000A0440D08120D011232
:104E10001400000014CB0E081211010E1400000043
:104E2000BCC70D081210010E14000000742C0E08EF
:104E3000120D0112140000003CCB0E08120C010EE2
:104E40001400000004010F080C15010A0F000000F7
:104E500044730E080C11010E0F00000028010F080A
:104E60000A1A01050C000000F0C70D080A11010E16
:104E70000C0000004C010F080A0B00140900000090
:104E8000005B0F081C14010B1E000000E04D0C0815
:104E90000C1601090F00000070730E080C180107B2
:104EA0000F000000A42C0E080C1901060F000000D2
:104EB00024C80D081412010C16000000DC7C0D083B
:104EC0001413010C16000000DC440D081413010734
:104ED0001700000018450D08141601041700000003
:104EE000E0DC0C0814180107170000009C9E0C0859
:104EF0001013FE0C0F00000064CB0E08100EFE1104
:104F00000F00000028420F080F12010C11000000D2
:104F100070010F080F130107110000008CCB0E0861
:104F20000F0E010C1100000044420F08111301077D
:104F30001000000054450D080813000C0900000083
:104F4000CC720F080812000D09000000E0720F0873
:104F50001C14010B1E000000304E0C080B0E020C3E
:104F60000F00000060420F080D0E000C0F00000043
:104F70007C420F080E0E000C1000000098420F0833
:104F80000C0E010C0F000000B4420F080C0E010CB7
:104F90000F000000D0420F080F0E000C110000009F
:104FA000EC420F080A0E000C0C00000008430F082A
:104FB0000B0E010C0E00000024430F080D0E010C17
:104FC0001000000040430F080F10000A10000000FE
:104FD00064210F081010000A1100000084210F083E
:104FE000120E020C160000009C730E081113020C26
:104FF0001500000090450D080E13000C1000000075
:10500000B4CB0E080E13000C10000000DCCB0E0811
:105010000B13010C0E00000004CC0E08120E000C45
:1050200014000000C8730E08130E010C16000000D7
:10503000F4730E08120E020C1500000020740E0806
:105040000C0E010C0F0000005C430F080C0E010C4D
:105050000F00000078430F080B0E020C0F00000039
:1050600094430F080E0E020C12000000B0430F080C
:105070000B0E010C0E000000CC430F080C0E020CAE
:105080000F000000E8430F080C0E020C1000000097
:1050900004440F080C140206100000002CCC0E086B
:1050A0000B0E020C1000000020440F080B14020627
:1050B0001000000054CC0E080E0E000C1200000070
:1050C0003C440F080E140006110000007CCC0E08B2
:1050D0000D0E010C1000000058440F080B0E020CBE
:1050E0000F00000074440F080A0E020C0E000000AE
:1050F00090440F08090E010C0B000000AC440F088F
:105100000A11020C0E00000094010F080B0E020C95
:105110000F000000C8440F080D11010C1000000022
:10512000B8010F08090E010C0C000000E4440F0840
:105130000D0F010B0F000000A4210F08100E020C30
:105140001300000000450F080C0F020B0F000000B9
:10515000C4210F080F0E000C110000001C450F08A1
:105160001113000712000000CC450D080B0E020CB5
:105170000F00000038450F080C0F020B0F00000055
:10518000E4210F080A0E010C0D00000054450F0821
:10519000080E020C0B00000068840F080A05F806D0
:1051A0000000000094910F08090E010C0C00000093
:1051B00070450F080F12FB080C000000DC010F08FF
:1051C0000A04F30700000000B0AF0F080A05F30659
:1051D00000000000A0910F080A05F306000000007F
:1051E000AC910F080A05F30600000000B8910F0803
:1051F0000304FB1B0000000038BC0F080704F71B6A
:10520000000000003CBC0F080202FC1B0000000074
:10521000DABE0F080C1602060F0000004C740E08D0
:10522000050E020C0800000078840F080C0E020C1A
:105230000F0000008C450F080A1401060C00000046
:10524000A4CC0E08091401060B000000CCCC0E08FB
:105250000C1400060D000000F4CC0E080911010C1E
:105260000C00000000020F080911010C0C000000E6
:1052700024020F080807F60400000000B8AF0F086A
:105280000104FC070000000040BC0F080704F707FA
:105290000000000044BC0F080904F70700000000EC
:1052A000C0AF0F080303FC080000000048BC0F0853
:1052B0000705F90600000000C8AF0F080404FB084A
:1052C000000000004CBC0F080507FA0100000000B8
:1052D000D0AF0F080C0C010E0F000000185B0F0878
:1052E0000C0B010F0F000000305B0F080D0B010FBE
:1052F00010000000485B0F080D0E020C11000000AA
:10530000A8450F080E0B010F11000000605B0F088D
:10531000110F010B12000000D42C0E08110F010B0D
:1053200012000000042D0E080E0F000B10000000EC
:1053300004220F08100E010C13000000C4450F08D2
:10534000100F010B1300000024220F08100E010C97
:1053500012000000E0450F080E0E010C11000000C5
:10536000FC450F08170C020E1B00000048020F0836
:105370000D0E000C0C00000018460F08110E000C5A
:105380001200000078740E08140E010C16000000C4
:10539000A4740E080C0E010C0D00000034460F081A
:1053A0000A0E010C0C00000050460F080B0E020CF8
:1053B0000E0000006C460F080C0E010C0E000000E1
:1053C00088460F08080E020C0B00000088840F08A6
:1053D0000A0E000C0B000000A4460F080212020C7B
:1053E00006000000F4720F08070E000C0900000010
:1053F00098840F080A0E020C0C000000C0460F082B
:10540000090E010C0B000000DC460F080C0E020C0C
:1054100010000000F8460F080A0E020C0E000000F3
:1054200014470F080C0E010C0E00000030470F0847
:105430000A0E010C0C0000004C470F080E0C010D69
:1054400010000000785B0F080E0A010E100000002B
:1054500008730F08100C000D10000000905B0F087F
:10546000150E010C17000000D0740E08090E010C77
:105470000B00000068470F080C07010C0E0000002D
:10548000A8840F080C0701130E000000B8840F0851
:105490000A0E020C0D00000084470F080B0E000CD2
:1054A0000D000000A0470F080B0E000C0D000000BF
:1054B000BC470F080C0E000C0C000000D8470F086A
:1054C0000A0E020C0E000000F4470F080D0B020E2E
:1054D00011000000A85B0F08110B010E1400000062
:1054E0006C020F080E12040A1500000090020F084B
:1054F0000C0E000C0C00000010480F08130E000CDE
:1055000013000000FC740E08090E010C0B000000D3
:105510002C480F08090E010C0B00000048480F082A
:105520000B0E010C0D00000064480F080F0E000C5C
:105530000F00000080480F08080E020C0A0000004F
:10554000C8840F080D0E000C0C0000009C480F08CA
:105550000A0E020C0E000000B8480F080A0E020CDA
:105560000D000000D4480F080E0E020C12000000BF
:10557000F0480F080C0E000C0E0000000C490F083C
:105580000B0D00080A00000028490F08100D000844
:105590001000000044490F08090D01080A0000002E
:1055A00060490F080B0D00080A0000007C490F0835
:1055B0000A0D01080C00000098490F08080D0108A9
:1055C0000A000000D8840F08080D01080A00000036
:1055D000E8840F080B0D01080C000000B4490F0807
:1055E0000A0D01080B000000D0490F08060D010844
:1055F00007000000F8840F08070D000808000000ED
:1056000008850F08090D01080A000000EC490F0881
:10561000070D01080900000018850F080B0D01088F
:105620000D000000084A0F080A0D01080B000000D9
:10563000244A0F080A0D01080B000000404A0F0819
:105640000B0D01080D0000005C4A0F08090D010850
:105650000A000000784A0F08080D01080A0000003F
:1056600028850F080A0D01080B000000944A0F0856
:105670000A0D01080C000000B04A0F080A0D0108CD
:105680000B000000CC4A0F080F0D00080F000000AF
:10569000E84A0F080809010C09000000C4910F082E
:1056A0000809010C09000000D0910F080909010C3C
:1056B0000A0000001C730F080F09000C1000000006
:1056C00030730F08090D01080A000000044B0F0891
:1056D000090D01080A000000204B0F080909010C00
:1056E0000A00000044730F080909000C0A000000BA
:1056F00058730F080709010C09000000DC910F081E
:105700000709010C09000000E8910F08090C010CC1
:105710000A000000C05B0F08020C010C040000002E
:10572000F4910F08090D0108090000003C4B0F0817
:105730000E09000C0E0000006C730F08080C010C21
:105740000A00000000920F080909010C0A0000007D
:1057500080730F080709010C090000000C920F0864
:105760000905010C0A00000018920F080905011034
:105770000A00000024920F08090C010C0A00000026
:10578000D85B0F08060C01090700000030920F08D3
:105790000809010C0A0000003C920F080908010CDE
:1057A0000B00000038850F080E09000C0E000000E9
:1057B00094730F080909000C08000000A8730F0873
:1057C0000A09000C0A000000BC730F080910010848
:1057D0000A00000044220F08080D000C0800000019
:1057E00048850F08090D01080A000000584B0F08F2
:1057F0000C0C010C0D000000F05B0F08090C000CF4
:1058000008000000085C0F08020C011004000000F2
:1058100048920F08050901130600000054920F0872
:10582000080901130A00000060920F08090900131B
:1058300008000000D0730F080910010F0A000000D3
:1058400064220F08080C0013080000006C920F0877
:10585000090C01130A000000205C0F080C0D011256
:105860000D000000744B0F08090C00130800000025
:10587000385C0F08130E020C1600000028750E0885
:105880000F14FE060E0000001CCD0E080F140106BA
:105890000E00000044CD0E080B14FE0608000000A8
:1058A0006CCD0E08170EFF0C1500000054750E0885
:1058B000100EFF0C0E000000904B0F080F13FE0C93
:1058C0000E00000094CD0E080B0EFE0C0900000027
:1058D000AC4B0F080B0EFE0C09000000C84B0F0864
:1058E000100EFE0C0C000000E44B0F080A12FE081C
:1058F00008000000B4020F080E0EFF0C0B000000A1
:10590000004C0F080B13020C0E000000BCCD0E085B
:10591000090C01070B000000505C0F080B13010C71
:105920000D000000E4CD0E0814160006160000005D
:1059300024DD0C08090E000C090000001C4C0F08A7
:10594000090EFF0C06000000384C0F080D13010C67
:105950000E0000000CCE0E080D0E010C0E00000013
:10596000544C0F08100E000C10000000704C0F0873
:105970000B1902060E00000058C80D080D1901068B
:105980000E0000008CC80D08091900060800000070
:10599000C0C80D081213010C0E00000008460D08C7
:1059A0000B1902060C000000F4C80D0806190006C9
:1059B000060000008C4C0F081413010C15000000A9
:1059C00044460D080C13020C0E00000034CE0E08E5
:1059D0000B13020C0E0000005CCE0E080913000C25
:1059E0000900000084CE0E080C13010C0B0000000F
:1059F000ACCE0E080E1901060E00000028C90D08D5
:105A00000D13000C0D000000D4CE0E080C13000C7A
:105A10000C000000FCCE0E080913010C0B00000066
:105A200024CF0E080E13010C0D0000004CCF0E0801
:105A30000F13010C0E00000074CF0E0810190106A0
:105A40000E0000005CC90D080F13010C0D000000D2
:105A50009CCF0E080E13010C0B000000C4CF0E08E3
:105A60000A13000C0B000000ECCF0E08130E010C03
:105A70000D00000080750E080818020706000000DF
:105A8000685C0F080A13010C0C00000014D00E080B
:105A90000C1901060E00000090C90D080E13020C2F
:105AA0000E0000003CD00E080A13000C0B00000092
:105AB00064D00E080809010C0A00000078920F0853
:105AC0000709010C0900000084920F080809000C66
:105AD0000900000090920F08080D01080A0000005C
