:020000040800F2
:10000000B0D900206D750F0859EA0A0873EA0A088A
:100010008DEA0A08A7EA0A08C1EA0A0800000000F7
:10002000000000000000000000000000E5330308AD
:10003000DBEA0A080000000089330308F5EA0A0831
:1000400005A40F0809A40F080DA40F0811A40F0898
:1000500015A40F0819A40F081DA40F0821A40F0848
:1000600025A40F0829A40F082DA40F0831A40F08F8
:100070004DEB0A081FEB0A0849EB0A0823EB0A08B4
:1000800035A40F0839A40F083DA40F0841A40F0898
:1000900045A40F0849A40F084DA40F087DEB0A08DA
:1000A00051A40F0855A40F0859A40F085DA40F0808
:1000B00061A40F0865A40F0869A40F086DA40F08B8
:1000C00071A40F0875A40F0879A40F087DA40F0868
:1000D00081A40F080FEB0A0885A40F0889A40F0854
:1000E0008DA40F0891A40F0895A40F0899A40F08D8
:1000F0009DA40F08A1A40F08A5A40F08A9A40F0888
:1001000051EB0A08ADA40F08B1A40F08B5A40F085D
:100110001BEB0A08B9A40F080BEB0A08BDA40F08D3
:10012000C1A40F08C5A40F0813EB0A08C9A40F083F
:10013000CDA40F08D1A40F08D5A40F08D9A40F0887
:10014000DDA40F08E1A40F08E5A40F08E9A40F0837
:10015000EDA40F08F1A40F0817EB0A08F5A40F0887
:1001600075EB0A0879EB0A08F9A40F08FDA40F083B
:1001700001A50F0805A50F0809A50F08000000003C
:100180000DA50F0811A50F0827EB0A0815A50F08E4
:1001900019A50F081DA50F0821A50F0825A50F08F3
:1001A00055EB0A085BEB0A0829A50F082DA50F08D7
:1001B00031A50F0835A50F0839A50F083DA50F0873
:1001C00041A50F0845A50F080101001A080000000D
:1001D00067A60F08021303070800000028590F083C
:1001E000070701060A000000F4910F081013010729
:1001F000120000003C7D0E080C1701070E000000E5
:1002000078040E081613010718000000C41E0D081C
:100210001113010711000000001F0D08020701065D
:1002200005000000FC910F08071901060A000000F4
:10023000301F0F08071902060A0000004C1F0F08A4
:100240000C0B01060E00000058430F080E0E020BA7
:1002500012000000681F0F080508011708000000C1
:1002600004920F080702011109000000E4A50F081D
:10027000030302170800000050A20F080918000627
:100280000A000000A8040E080C1301070E0000006D
:10029000647D0E08081303070E0000003C590F0888
:1002A0000B1301070E0000008C7D0E080B130107D5
:1002B0000E000000B47D0E080C1300070E000000B5
:1002C000DC7D0E080B1302070E000000047E0E08F2
:1002D0000C1301070E0000002C7E0E080C13010702
:1002E0000E000000547E0E080C1301070E000000E3
:1002F0007C7E0E080C1301070E000000A47E0E0881
:10030000030E030C090000003C6C0F080513020CDF
:100310000900000050590F080D0E020B12000000DA
:10032000841F0F080E07020E120000004C6C0F080D
:100330000D0E030B12000000A01F0F080A13010787
:100340000C000000CC7E0E081416020717000000F7
:100350008CC70C080F1300070F000000F47E0E0876
:100360000C1302070F0000001C7F0E080D1301077D
:100370000F000000447F0E080E130207110000005A
:100380006C7F0E080B1302070E000000947F0E080E
:100390000B1302070D000000BC7F0E080F130107AE
:1003A00011000000E47F0E080D1302071100000089
:1003B0000C800E08061301070900000064590F089D
:1003C000081300070A00000078590F080D130207F0
:1003D0000F00000034800E080A1302070C00000012
:1003E0005C800E080F1302071300000084800E08C3
:1003F0000D13020711000000AC800E081013010756
:1004000012000000D4800E080C1302070E0000003A
:10041000FC800E081018010712000000D8040E0816
:100420000E1302071000000024810E080C130107B0
:100430000E0000004C810E081013FF070F00000093
:1004400074810E080C130207100000009C810E0836
:100450000F1300070F000000C4810E0817130007D8
:10046000170000003C1F0D080F1300070F000000CD
:10047000EC810E080E1300070E00000014820E0817
:100480000C1301070E0000003C820E08061902063C
:100490000A000000BC1F0F08091801060A0000002E
:1004A00008050E08061901060A000000D81F0F08EB
:1004B0000F0A0207120000008C590F080E02001CE0
:1004C0000E00000054A20F08050503050E000000F1
:1004D0000C920F080A0E010C0D000000F41F0F080B
:1004E0000B1402060E00000064820E080A0E010CB6
:1004F0000C00000010200F080B1401060E00000075
:100500008C820E080B0E010C0D0000002C200F0831
:100510000914000608000000B4820E080B13010C39
:100520000E000000DC820E080A1402060E00000015
:1005300004830E080213020706000000A0590F08EA
:100540000618FF070700000070430F080B1402068F
:100550000C0000002C830E080214020606000000A6
:10056000B4590F08120E010C15000000704E0E0851
:100570000A0E020C0E00000048200F080C0E010CA1
:100580000E00000064200F080B13020C0E00000088
:1005900054830E080B13010C0E0000007C830E0820
:1005A000070E020C090000005C6C0F080A0E010C1B
:1005B0000B00000080200F0808120008080000004F
:1005C000C8590F080A0E020C0E0000009C200F08EC
:1005D0000C0E000C0C000000B8200F08130E000CCD
:1005E000130000009C4E0E080C0E000C0C000000C6
:1005F000D4200F080C13000C0C000000A4830E087C
:10060000090E010C0B000000F0200F080A1901066A
:100610000C000000B89A0D08021904060A00000038
:100620000C210F080A1901060C000000EC9A0D08B5
:100630000E06020F12000000BC780F080101001A1C
:100640000800000068A60F08021303070800000056
:10065000DC590F080B1601080E000000C84E0E08EA
:100660000B1301070E000000CC830E080C0C010CCC
:100670000E00000088430F080E1300070E00000054
:10068000F4830E08021904060A00000028210F084E
:100690000B1801070E00000038050E0807020308BA
:1006A0000E000000E6A50F08151501071700000051
:1006B00088ED0C08090C01070C000000A0430F088E
:1006C0000B0C010C0E000000B8430F080E090211BC
:1006D00012000000F0590F08070201110900000084
:1006E000E8A50F081515010717000000C8ED0C0854
:1006F0000E0200040E00000058A20F0809090107AD
:100700000C000000045A0F080E0F0209120000002E
:100710007C0A0F08090B02070C000000D0430F08E9
:10072000080B02070C000000C8780F080505050536
:100730000E00000014920F080A13020C0E000000B5
:100740001C840E080B1701070E00000068050E0838
:100750000303030C090000005CA20F080605041A3D
:100760000E0000001C920F08060B04070C0000008E
:10077000D4780F080A0C01070C000000E8430F08AA
:100780000B0C020C0E00000000440F0814130207AB
:1007900019000000781F0D08161302071900000049
:1007A000B41F0D081513020719000000F01F0D08F3
:1007B0000A1301070C00000044840E080F19000101
:1007C0000F000000209B0D080F1900010F00000012
:1007D000549B0D080F1900010F000000889B0D08A5
:1007E0000F1800020F00000098050E080F160004F5
:1007F0000F000000F44E0E080F1900010F0000005A
:10080000BC9B0D0816130007170000002C200D08D4
:100810000D1801070F000000C8050E080B19020192
:100820000E000000F09B0D080B1902010E000000E5
:10083000249C0D080B1902010E000000589C0D08A5
:100840000B1702030E000000F8050E08061901013F
:100850000900000044210F080619010109000000E9
:1008600060210F0808190001090000007C210F0811
:10087000061701030900000018440F0810130007B1
:10088000110000006C840E080D1802021100000017
:1008900028060E0810190101120000008C9C0D089A
:1008A0001019010112000000C09C0D08101901016F
:1008B00012000000F49C0D08101801021200000044
:1008C00058060E08101701031200000088060E08D3
:1008D0000D0D030C1200000098210F0810150106E1
:1008E00012000000204F0E080C1902011000000039
:1008F000289D0D080C190201100000005C9D0D08D8
:100900000C19020110000000909D0D080C17020345
:1009100010000000B8060E080E1900010E000000BD
:10092000C49D0D080A1302070E00000094840E08EF
:100930000B1402060E000000BC840E080A15010507
:100940000D0000004C4F0E080A1501050D000000B7
:10095000784F0E080A1501050D000000A44F0E087F
:100960000A1401060D000000E4840E080A120108B2
:100970000D00000044E30E080A1501050D000000FB
:10098000D04F0E08140E010C16000000FC4F0E088C
:100990000A13010C0C0000000C850E080B15010554
:1009A0000D00000028500E080B1501050D00000079
:1009B00054500E080B1501050D00000080500E0864
:1009C0000B1201080D00000068E30E080515000574
:1009D0000600000030440F0805150205060000005F
:1009E00048440F08061500050600000060440F0883
:1009F0000613000706000000185A0F080C13010721
:100A00000E00000034850E080A1402060E000000D5
:100A10005C850E080C1501050E000000AC500E0898
:100A20000C1501050E000000D8500E080C1501052C
:100A30000E00000004510E080C1401060E00000008
:100A400084850E080C1201080E0000008CE30E08CD
:100A50000F0E020B12000000B4210F080C10010B46
:100A60000E0000009C0A0F080A1502050E00000087
:100A700030510E080A1502050E0000005C510E08E8
:100A80000A1502050E00000088510E080A1202081D
:100A90000E000000B0E30E080C1A00050C00000068
:100AA000F89D0D080B1902060E0000002C9E0D0883
:100AB0000C1700080C000000E8060E080F170003D2
:100AC0000F00000018070E080A1301070D000000B0
:100AD000AC850E080F1900010F000000609E0D0884
:100AE0000A1401060D000000D4850E081018000736
:100AF0000F00000048070E080B13010C0D0000004A
:100B0000FC850E080D1901010F000000949E0D08D0
:100B10000A1501050C000000B4510E080D19010161
:100B20000F000000C89E0D080A1501050C0000000A
:100B3000E0510E080D1701030F00000078070E08A2
:100B40000A1201080C000000D4E30E080D1901017F
:100B50000F000000FC9E0D080A1501050C000000A6
:100B60000C520E080E19020111000000309F0D08F2
:100B7000101401061100000024860E08101300074F
:100B8000110000004C860E080D1401060E00000036
:100B900074860E080B1702030E000000A8070E084B
:100BA0000B1301070D0000009C860E080B190201B3
:100BB0000E000000649F0D080B1401060D000000DC
:100BC000C4860E080B1702030E000000D8070E089B
:100BD0000B1201080D000000F8E30E080B180207C5
:100BE0000E00000008080E080B13010C0D00000099
:100BF000EC860E080B1902010E000000989F0D08EC
:100C00000B1501050D00000038520E080F190101E7
:100C100011000000CC9F0D080B1A01050E0000000A
:100C200000A00D080F1901011100000034A00D08EB
:100C30000B1901060E00000068A00D080F17010334
:100C40001100000038080E080B1701080E00000004
:100C500068080E080F1801071100000098080E0818
:100C60000B1A01050E0000009CA00D080D190201D1
:100C700011000000D0A00D080A1902010E000000AA
:100C800004A10D08121300071200000068200D08CF
:100C90000C1400060E00000014870E08081900014D
:100CA00009000000D0210F0806140006060000000D
:100CB0002C5A0F08081800020900000078440F0899
:100CC0000613000706000000405A0F08061901012C
:100CD00009000000EC210F080614000606000000C1
:100CE000545A0F08061801070900000090440F0825
:100CF0000418010706000000A8440F0806170103A6
:100D000009000000C0440F08020E020C060000009B
:100D10006C6C0F080F130107120000003C870E08CF
:100D2000091802070D000000C8080E080919000183
:100D30000A00000038A10D08081AFF05070000008E
:100D400008220F080D1802070F000000F8080E080F
:100D50000B1902060C0000006CA10D080B0E020C12
:100D60000C00000024220F080A1902010C000000E8
:100D7000A0A10D08051902010600000040220F087D
:100D80000A1802070C00000028090E0805190106C0
:100D9000060000005C220F080A1402060C00000086
:100DA00064870E080814020609000000685A0F083C
:100DB0000A1302070C0000008C870E0808140206B4
:100DC0000B0000007C5A0F080D1300070D000000F7
:100DD000B4870E080614000607000000905A0F089A
:100DE0000D19020111000000D4A10D080A15020519
:100DF0000E00000064520E080D18020711000000DA
:100E000058090E080A13020C0E000000DC870E08B9
:100E10000D1902011100000008A20D080A150205B3
:100E20000E00000090520E081014FF061100000082
:100E300004880E080D1802071100000088090E082A
:100E40000A13020C0E0000002C880E081017010374
:100E500012000000B8090E080C1301070E00000074
:100E600054880E0810190101120000003CA20D0860
:100E70000C1401060E0000007C880E0810190101F8
:100E80001200000070A20D080C1501050E000000F4
:100E9000BC520E081613010718000000A4200D080C
:100EA000150E010C17000000E8520E080E19020181
:100EB00010000000A4A20D0807150205090000009B
:100EC000D8440F080E18020710000000E8090E08A9
:100ED0000813010C09000000A45A0F080E190201A2
:100EE00010000000D8A20D08081502050900000036
:100EF000F0440F080C1901010E0000000CA30D08AE
:100F00000A1501050B00000014530E080C1901010D
:100F10000E00000040A30D080A1501050B0000009B
:100F200040530E080C1801070E000000180A0E08A6
:100F30000A13010C0B000000A4880E080C19010113
:100F40000E00000074A30D080A1501050B00000037
:100F50006C530E081018FF070F000000480A0E0817
:100F6000081700080800000008450F081019FF01C5
:100F70000F000000A8A30D080C1400060C000000D0
:100F8000CC880E081013FF070F000000F4880E082D
:100F90000812000808000000B85A0F080C180202D6
:100FA00010000000780A0E080A1402060E00000065
:100FB0001C890E080C17020310000000A80A0E0876
:100FC0000A1302070E00000044890E080C190201E2
:100FD00010000000DCA30D080A1402060E00000039
:100FE0006C890E080C1902011000000010A40D08F5
:100FF0000A1502050E00000098530E080D19020193
:101000001000000044A40D080A1502050E0000009F
:10101000C4530E080C18020710000000D80A0E086E
:101020000B13020C0E00000094890E081719000122
:1010300017000000E84D0C08131500051300000010
:1010400008EE0C080E1900010E00000078A40D082F
:101050000C1A00050C000000ACA40D080E170003CC
:101060000E000000080B0E080C1901010E00000014
:10107000E0A40D08091501050B000000F0530E084F
:101080000C1701030E000000380B0E0809120108AE
:101090000B0000001CE40E080C1901010E000000FA
:1010A00014A50D08091501050B0000001C540E08BD
:1010B0000614020606000000CC5A0F080D140006A4
:1010C0000E000000BC890E0810130007110000007C
:1010D000E4890E080C1302070F0000000C8A0E08AA
:1010E0000B1402060E000000348A0E080F130007CE
:1010F0000F0000005C8A0E080D1400060E000000B0
:10110000848A0E080D1301070F000000AC8A0E0838
:10111000111501050F00000048EE0C080E11010921
:101120000C00000040E40E0810130007110000003E
:10113000D48A0E081213000713000000E0200D08E7
:101140000C1301070F000000FC8A0E080B140106A7
:101150000E000000248B0E080C13010C0E00000082
:101160004C8B0E080B1301070E000000748B0E0849
:1011700010130107120000009C8B0E080C130107CE
:101180000D000000C48B0E080F18FE070D000000B4
:10119000680B0E080E1500070E00000048540E08DC
:1011A000131501051100000088EE0C080F18000748
:1011B0000F000000980B0E08121402061600000023
:1011C0001C210D080214020606000000E05A0F0858
:1011D0000813000709000000F45A0F080D13020756
:1011E0000F000000EC8B0E080B1402060C00000030
:1011F000148C0E080614000607000000085B0F0898
:101200000C1400060C0000003C8C0E0812130207A0
:101210001600000058210D081118FE0711000000EB
:101220004C860C080A13020C0E000000648C0E0899
:1012300010130107120000008C8C0E081213010716
:101240001300000094210D080D1101090E0000008B
:1012500064E40E08151801071700000094860C08B6
:101260000E13010C11000000B48C0E0810130007BF
:1012700010000000DC8C0E080B1902060E000000A6
:1012800048A50D080D1502070E00000074540E0845
:101290000C1301070E000000048D0E080A0E000C4E
:1012A0000B00000078220F080D1301070E0000004C
:1012B0002C8D0E080D1900060E0000007CA50D08EF
:1012C000081700080800000020450F080F1300074A
:1012D0000F000000548D0E080814000608000000DE
:1012E0001C5B0F080E1800070F000000C80B0E084B
:1012F0001116020412000000D0C70C080E110209DA
:101300000F00000088E40E0811130107120000000E
:10131000D0210D080C130207100000007C8D0E0870
:1013200011130007110000000C220D08111800070E
:101330000C000000DC860C080C1301070E000000F6
:10134000A48D0E08090E010C0B00000094220F085A
:101350000C1800070D000000F80B0E080C18010710
:101360000D000000280C0E080A13010C0B000000F1
:10137000CC8D0E080913010C0B000000F48D0E0833
:101380000B1301070E0000001C8E0E080C13010742
:101390000E000000448E0E080A0E000C0B00000028
:1013A000B0220F080B1200080C000000ACE40E087D
:1013B0000B13020C0E0000006C8E0E0802190406BE
:1013C0000A000000CC220F08061902060A000000DD
:1013D000E8220F080E19020612000000B0A50D0841
:1013E0000213030708000000305B0F081C190201FC
:1013F0001F000000FC820B08191502051C000000EC
:10140000201B0C081715010519000000C8EE0C0878
:10141000141302071800000048220D0811180207D3
:101420001500000024870C08081902060C000000B3
:1014300004230F08171302071B00000084220D0865
:1014400013180207170000006C870C081118020718
:1014500015000000B4870C080F1900010F000000F0
:10146000E4A50D080A1501050D000000A0540E08A2
:10147000081900010900000020230F080815FF05C6
:101480000600000038450F08101901011200000085
:1014900018A60D080C1501050E000000CC540E080E
:1014A0000C190201100000004CA60D080A150205D7
:1014B0000E000000F8540E080C1902011000000084
:1014C00080A60D080A1602040E00000024550E081E
:1014D0000C19020110000000B4A60D080A1602043F
:1014E0000E00000050550E080C19020110000000FB
:1014F000E8A60D080A1802020E000000580C0E089B
:101500000C190201100000001CA70D080A160204A5
:101510000E0000007C550E080B0E010C0D000000A3
:101520003C230F080F1900010F00000050A70D0801
:101530000A1601040D000000A8550E080F1900013D
:101540000F00000084A70D080A1601040D0000001A
:10155000D4550E081617000317000000FC870C086E
:101560001413010716000000C0220D081013010714
:1015700011000000948E0E080C13010C0E000000E8
:10158000BC8E0E080F19010111000000B8A70D084C
:101590000B1A01050E000000ECA70D080D19020141
:1015A0000F00000020A80D080B1902010C0000001C
:1015B00054A80D081018010712000000880C0E082E
:1015C0000C13010C0E000000E48E0E08101C010329
:1015D00012000000D4670D080C1801070E0000006F
:1015E000B80C0E080C1E00010D000000FC220D08B6
:1015F0000A1A00050B00000088A80D08081AFF054C
:101600000700000058230F081C1302071F000000EA
:10161000344E0C08191302071C000000804E0C0801
:10162000171401061900000038230D080F190101D5
:1016300011000000BCA80D080B1A01050E000000E7
:10164000F0A80D08151302071900000074230D08F7
:101650000B1802070E000000E80C0E080D1902011D
:101660001100000024A90D080A1502050E00000053
:1016700000560E080F1900010F00000058A90D08B0
:101680000A1701030D000000180D0E0816190001BD
:1016900017000000CC4E0C081415010516000000C0
:1016A00008EF0C08101A0101120000008CA90D08A7
:1016B0000C1601050E0000002C560E080F19000133
:1016C0000F000000C0A90D080B1500050D0000005B
:1016D00058560E080F1900010F000000F4A90D085C
:1016E0000A1401060D0000000C8F0E080B190201F0
:1016F0000E00000028AA0D080B1501050D000000C2
:1017000084560E080B1902010E0000005CAA0D0899
:101710000B1401060D000000348F0E080A19FE019B
:101720000900000090AA0D080A15FD05060000003A
:10173000B0560E08081900010900000074230F08B4
:101740000814FF0606000000445B0F081019010191
:1017500012000000C4AA0D080C1501050E000000BF
:10176000DC560E081019010112000000F8AA0D083D
:101770000C1401060E0000005C8F0E080F19010109
:10178000100000002CAB0D080A1500050900000030
:1017900008570E080E1902011000000060AB0D087A
:1017A0000814020609000000585B0F080C1902011A
:1017B0001000000094AB0D080B1501050E00000091
:1017C00034570E080C19020110000000C8AB0D08B8
:1017D0000A1402060E000000848F0E080C18010780
:1017E0000E000000480D0E080A13010C0B0000004B
:1017F000AC8F0E081018FF070F000000780D0E08C0
:10180000081700080800000050450F080B180107D2
:101810000D000000A80D0E080A13000C0B000000BC
:10182000D48F0E080D19020111000000FCAB0D0849
:101830000A1902010E00000030AC0D080D18020755
:1018400010000000D80D0E08121901061300000048
:10185000184F0C080D1301070F000000FC8F0E0835
:101860000B1301070D00000024900E080D16010750
:101870000E00000060570E080A11010C0B0000005A
:10188000D0E40E080F1700030F000000080E0E082A
:101890000A1201080D000000F4E40E080B180207FC
:1018A0000E000000380E0E080B13010C0D00000096
:1018B0004C900E08101901011200000064AC0D08D4
:1018C0000C1601040E0000008C570E0810190101BF
:1018D0001200000098AC0D080C1701030E00000068
:1018E000680E0E081017010312000000980E0E0873
:1018F0000C1201080E00000018E50E081019010175
:1019000012000000CCAC0D080C1601040E00000003
:10191000B8570E080E1700030E000000C80E0E0880
:101920000C1800070C000000F80E0E080A1901063A
:101930000B00000000AD0D081113020C1300000095
:10194000B0230D080B1200080B0000003CE50E0848
:101950000613FF0C070000006C5B0F08141401064F
:1019600016000000EC230D081413010C16000000F3
:1019700028240D08101600060F000000E4570E087A
:10198000101601060F00000010580E080C13010974
:101990000C00000074900E080D13FF070C000000EF
:1019A0009C900E081116FF060F00000014C80C08CA
:1019B0000A13010C0B000000C4900E080913010C5F
:1019C0000B000000EC900E080D1400060E00000045
:1019D00014910E080B1200070C00000060E50E08C1
:1019E0000D1301070F0000003C910E080E130107B4
:1019F0001000000064910E080F1300070F00000094
:101A00008C910E080B1802050E000000280F0E081E
:101A10000B1801070D000000580F0E0809130007EE
:101A20000A000000B4910E080718FF070700000025
:101A300068450F08131801071200000044880C08BD
:101A40000F13010C0E000000DC910E080F130107AC
:101A50001000000004920E08080E010C090000009E
:101A60007C6C0F080E1300070E0000002C920E086D
:101A70000C13000C0C00000054920E080A0E020C0D
:101A80000D00000090230F080B0E010C0E0000004B
:101A9000AC230F080B0E020C0E000000C8230F0829
:101AA0000B1402060E0000007C920E080A0E010CB8
:101AB0000C000000E4230F080B0E000C0C000000CB
:101AC00000240F08101901060E00000034AD0D08A7
:101AD000101401060E000000A4920E080B0E010C5B
:101AE0000D0000001C240F080B0E010C0D0000005F
:101AF00038240F08110E010C120000003C580E088B
:101B00000A0E010C0B00000054240F080A0E000CF2
:101B10000B00000070240F08100E000C10000000D5
:101B20008C240F080B0E010C0D000000A8240F08D8
:101B30000913FF0C08000000CC920E0810190106D2
:101B40000E00000068AD0D080B13010C0E00000024
:101B5000F4920E080B0E010C0D000000C4240F08B7
:101B60000C13000C0C0000001C930E080F0E000C50
:101B70000F000000E0240F080A13020C0E00000002
:101B800044930E080A1402060E0000006C930E081F
:101B90000A1902060E0000009CAD0D08061300078E
:101BA00006000000805B0F08020E020C0600000019
:101BB0008C6C0F08060E010C090000009C6C0F08CD
:101BC0000A1400060A00000094930E080714000689
:101BD00007000000945B0F080619020606000000CB
:101BE000FC240F080B1902060E000000D0AD0D08F2
:101BF000120E010C1500000068580E081213010C9B
:101C00001500000064240D081213010C15000000DB
:101C1000A0240D080F13FD0C0E000000BC930E084D
:101C20000E13020C0E000000E4930E080A0E020CC4
:101C30000E00000018250F080C0E010C0E0000000D
:101C400034250F08110E010C1400000094580E08E2
:101C5000100E010C1200000050250F080C1901068F
:101C60000E00000004AE0D08070E000C0900000075
:101C7000AC6C0F080714000609000000A85B0F08F1
:101C80000C13000C090000000C940E080713020C42
:101C900009000000BC5B0F080713020C09000000DC
:101CA000D05B0F08070E020C09000000BC6C0F0887
:101CB0000713000C09000000E45B0F080B0E020C78
:101CC0000D0000006C250F080B0E020C0D0000002B
:101CD00088250F080A13010C0B00000034940E082D
:101CE0000C1901060E00000038AE0D080C19FF0695
:101CF000080000006CAE0D080C13010C0E00000073
:101D00005C940E080D1900060E000000A0AE0D0830
:101D10000812000808000000F85B0F080817000808
:101D20000800000080450F080E0E000C0E00000099
:101D3000A4250F080C0E020C10000000C0250F088F
:101D40000A0E020C0E000000DC250F080C0E000C21
:101D50000C000000F8250F08130E000C1300000003
:101D6000C0580E080C1300070C00000084940E08E5
:101D70000B0E000C0B00000014260F080E13010CB4
:101D80000B000000AC940E080D10010C0E000000BA
:101D9000BC0A0F080A13000C0B000000D4940E08B4
:101DA0000B13000C0B000000FC940E080B14000633
:101DB0000C00000024950E080B1401060C00000016
:101DC0004C950E080B1400060C00000074950E08CC
:101DD0000B13010C0C0000009C950E08101301075A
:101DE00012000000C4950E080A0E020C0D0000003F
:101DF00030260F080B0E010C0D0000004C260F08BA
:101E00000F1101090D00000084E50E080A0E020CF6
:101E10000E00000068260F080A1800070A000000DC
:101E2000880F0E080B13FF0C0C000000EC950E0839
:101E3000080E020C0A000000CC6C0F0810190106F5
:101E40000E000000D4AE0D080B1400060C000000BC
:101E500014960E080B1401060C0000003C960E08A8
:101E60001414010616000000DC240D0814190106E4
:101E700016000000644F0C08181601061900000037
:101E800058C80C0811120008110000000C680D0859
:101E90000F1900060E00000008AF0D08111200080F
:101EA0001200000044680D0812190006140000001A
:101EB000B04F0C080E1402061000000064960E08C5
:101EC0000B1402060E0000008C960E080B1301077F
:101ED0000C000000B4960E080A1202080E00000062
:101EE000A8E50E080F13000C11000000DC960E0888
:101EF0001313000C1300000018250D08080D01082D
:101F00000A000000DC6C0F08080D01080A00000040
:101F1000EC6C0F080510000806000000FC6C0F08B0
:101F20000509010C06000000E0780F080509000C07
:101F300006000000EC780F08080C000C06000000FA
:101F4000F8780F080809010C0900000004790F084F
:101F50000C09000C0C0000000C5C0F08090C000CB4
:101F60000900000098450F08050802070700000057
:101F700024920F080A0801070C0000000C6D0F08DE
:101F80000507FF06050000002C920F080507010653
:101F90000500000034920F080507FF060500000049
:101FA0003C920F08040705050E00000044920F083C
:101FB000040705050E0000004C920F08070D0108EC
:101FC000090000001C6D0F08070D01080900000042
:101FD0002C6D0F080D0E020B1200000084260F0856
:101FE0000D0E030B12000000A0260F080E0D020CB0
:101FF00012000000BC260F080E0D020C120000009B
:10200000D8260F08080503050E00000054920F089B
:10201000080503050E0000005C920F080205060586
:102020000E00000064920F08090202070E00000073
:1020300060A20F08050505050E0000006C920F0850
:10204000050503050E00000074920F080204061B2C
:102050000E00000064A20F080902021D0E0000001D
:1020600068A20F080505031A0E0000007C920F08F5
:102070000505061A0E00000084920F08030E030CDB
:10208000090000003C6D0F08030303110900000064
:102090006CA20F080407050F0E0000008C920F08B9
:1020A0000407050F0E00000094920F0806040114A7
:1020B0000800000070A20F080604011408000000C8
:1020C00074A20F08060401140800000078A20F088B
:1020D000090202140E0000007CA20F080805030686
:1020E0000E0000009C920F08020206080E0000007D
:1020F000EAA50F08070703050E000000A4920F08C9
:102100000405041A0E000000AC920F080A0402062F
:102110000E000000B4920F080A0503050E0000002F
:1021200010790F080705001108000000BC920F0885
:10213000080801070A000000C4920F08080C000CF0
:10214000080000001C790F08020D010804000000BF
:102150004C6D0F080709010C0900000028790F08D1
:102160000709000C0800000034790F08070D01086A
:10217000090000005C6D0F08061202080A0000004A
:10218000205C0F08061202080A000000345C0F08E9
:10219000061202080A000000485C0F080612020836
:1021A0000A0000005C5C0F08061202080A0000002A
:1021B000705C0F08060B010F0800000040790F0843
:1021C000060B010F080000004C790F080805031AE0
:1021D0000E000000CC920F08070303070E0000005A
:1021E00080A20F080A0701060A0000006C6D0F08A4
:1021F0000503041B0E00000084A20F080503041B46
:102200000E00000088A20F080305051A0E0000004A
:10221000D4920F080305051A0E000000DC920F0887
:102220000404051B0E0000008CA20F080505031115
:102230000E000000E4920F080A0501110E000000D4
:1022400058790F080A0503110E00000064790F0881
:102250000A04021B0E000000EC920F08030D030796
:10226000090000007C6D0F08050504070E00000042
:10227000F4920F08050505070E000000FC920F08F8
:10228000050504150E00000004930F08050505154B
:102290000E0000000C930F080905021A0E00000042
:1022A00070790F080905021A0E0000007C790F08EA
:1022B000060701180800000014930F080505F7052C
:1022C000000000001C930F080505F8050000000041
:1022D00024930F080805FC05000000002C930F084C
:1022E0000A04F4010000000034930F080902FB0700
:1022F0000000000090A20F080E02F9040000000088
:1023000094A20F080805FC06000000003C930F088B
:102310000202FF0800000000ECA50F080802FC08FC
:1023200000000000EEA50F080405050500000000F0
:1023300044930F080707FC05000000004C930F08AA
:102340000A05FB050000000088790F080805FC0558
:102350000000000054930F080205FF050000000074
:102360005C930F080505FE050000000064930F084C
:102370000A05FB050000000094790F080807FC041B
:10238000000000006C930F080805FC060000000028
:1023900074930F080205FF06000000007C930F08ED
:1023A0000205FF060000000084930F080205FF06E7
:1023B000000000008C930F080205010600000000D9
:1023C00094930F080505FD1A000000009C930F0868
:1023D0000505FD1A00000000A4930F080504FE1B6C
:1023E0000000000098A20F080504FE1B000000007A
:1023F0009CA20F080906FB0400000000A0790F084A
:102400000406000300000000AC930F080204FF1B49
:1024100000000000A0A20F080604FD1B0000000041
:10242000A4A20F080604FD1B00000000A8A20F08CC
:102430000604FD1B00000000ACA20F080902FB1DF2
:1024400000000000B0A20F080607FC180000000002
:10245000B4930F080607001800000000BC930F0893
:102460000202061C00000000F0A50F080802FC1D77
:1024700000000000F2A50F080404FE1B000000008D
:10248000B4A20F080204FF1B00000000B8A20F084E
:102490000605FD1A00000000C4930F080405FE1A8B
:1024A00000000000CC930F080204FF1B0000000096
:1024B000BCA20F080904FB1B00000000D4930F0806
:1024C0000903FC1C00000000DC930F080804FC1B3F
:1024D00000000000C0A20F080804FC1B0000000060
:1024E000C4A20F080804FC1B00000000C8A20F08CB
:1024F0000804FC1B00000000CCA20F080A04FB1B10
:1025000000000000E4930F080902FB1D000000001A
:10251000D0A20F080E02F91C00000000D4A20F0880
:102520000A04FB1B00000000EC930F080A04FB0EDA
:1025300000000000F4930F080902FB1000000000E7
:10254000D8A20F080E02F91000000000DCA20F084C
:102550000A09FB0D00000000845C0F080918FB0647
:1025600000000000B80F0E080204FF1B000000006E
:10257000E0A20F080904FB1B00000000FC930F08F9
:102580000404FE1B00000000E4A20F080903FC1C69
:102590000000000004940F080606FD030000000080
:1025A0000C940F080206FF040000000014940F08AA
:1025B0000E05F90100000000AC790F080A04FB06C3
:1025C000000000001C940F080205FF060000000038
:1025D00024940F080905FC0500000000B8790F08D5
:1025E0000304FE1B00000000E8A20F080904FB051D
:1025F000000000002C940F080E04F91B00000000DE
:1026000034940F080504FE1B00000000ECA20F0824
:102610000504FE1B00000000F0A20F080A06FB05DF
:1026200000000000C4790F080A08FB030000000046
:102630008C6D0F080A06FB0400000000D0790F081B
:102640000604FD1B00000000F4A20F080604FD1B99
:1026500000000000F8A20F081211F70900000000A6
:102660003CAF0D080305FD05000000003C940F0879
:102670000407FE050000000044940F080807FC044E
:10268000000000004C940F080505FD1A0000000032
:1026900054940F080305FF1A000000005C940F0813
:1026A0000305FE1A0000000064940F080805FD1AD7
:1026B000000000006C940F080407FE0500000000F5
:1026C00074940F080202060800000000F4A50F0829
:1026D0000504FE1B00000000FCA20F080704FD1B00
:1026E0000000000000A30F080405FE060000000023
:1026F0007C940F081305F61A000000009C6D0F086B
:102700001305FE0600000000AC6D0F081302FE0664
:102710000000000084940F081302FE1D000000005A
:102720008C940F081304FE0600000000DC790F08EB
:102730001305FE0600000000BC6D0F080E04FE1B12
:102740000000000094940F080507FD04000000003D
:102750009C940F080607FD0400000000A4940F08D5
:102760000109FF0200000000E8790F080607FD04D8
:1027700000000000AC940F080507FD0400000000F5
:10278000B4940F080507FD0400000000BC940F0876
:10279000060AFD0100000000F4790F08050AFD019A
:1027A00000000000007A0F080907FB040000000089
:1027B000CC6D0F080307FE0400000000C4940F084E
:1027C0000409FE02000000000C7A0F080507FD0452
:1027D00000000000CC940F080507FD040000000075
:1027E000D4940F08040505050E000000DC940F08C2
:1027F0000404051B0E00000004A30F080304051BBE
:102800000E00000008A30F080A0E010C0C000000C7
:10281000F4260F080A0E010C0C00000010270F0808
:102820000A0E010C0C0000002C270F080513020CE7
:1028300009000000985C0F08030505050E00000064
:10284000E4940F08090502050E000000187A0F082D
:102850000F1300070F00000004970E080303030C7A
:10286000090000000CA30F0810130007110000005E
:102870002C970E08121300071400000054250D08B1
:102880000A1300070C00000054970E0813130007EA
:102890001400000090250D0812130007120000001C
:1028A000CC250D08141300071400000008260D089D
:1028B0000815FF0506000000B0450F080F130007BC
:1028C0000F0000007C970E080C1302070F00000099
:1028D000A4970E080B1302070D000000CC970E08FA
:1028E0000F1300070F000000F4970E080B130207E8
:1028F0000E0000001C980E080C1301070E000000CB
:1029000044980E080D130207110000006C980E0881
:10291000101301071200000094980E080613010717
:1029200009000000AC5C0F080D1302070F00000047
:10293000BC980E080F1300070F000000E4980E0863
:102940000F130207130000000C990E080D13020765
:102950001100000034990E080C1301070E0000004E
:102960005C990E08101301071200000084990E08EC
:102970000D13020711000000AC990E080C1302079A
:102980000E000000D4990E080D1301070E00000080
:10299000FC990E081013FF070F000000249A0E0880
:1029A0000E1300070E0000004C9A0E0810130107CA
:1029B00013000000749A0E080F1300070F000000A8
:1029C0009C9A0E081013020714000000C49A0E0807
:1029D000111301071200000044260D080617010319
:1029E00009000000C8450F080E1700030E00000084
:1029F000E80F0E080B1501050E000000EC580E083C
:102A00000A1501050B00000018590E080A1A0205E4
:102A10000E00000070AF0D0803150205060000004F
:102A2000E0450F080A1502050E00000044590E0883
:102A30000B0E010C0E00000048270F080B190206B0
:102A40000E000000A4AF0D080C13000C0C000000D9
:102A5000EC9A0E080C1401060E000000149B0E08E0
:102A60000A0E010C0B00000064270F080A1901066A
:102A70000A000000D8AF0D080A13020C0E00000077
:102A80003C9B0E080C1401060E000000649B0E080F
:102A9000020E020C06000000DC6D0F080A0E020C8C
:102AA0000C00000080270F080C1400060C0000002A
:102AB0008C9B0E080A13020C0E000000B49B0E083B
:102AC0000C0E000C0C0000009C270F080B190106CF
:102AD0000B0000000CB00D080C0E010C0E000000E5
:102AE000B8270F080A0E020C0E000000D4270F08AA
:102AF0000B13020C0E000000DC9B0E080A13010CE5
:102B00000B000000049C0E080E0E010C0F000000CC
:102B1000F0270F080C0E000C0C0000000C280F080A
:102B20000A0E020C0E00000028280F081013010CDA
:102B3000120000002C9C0E080C13000C0C0000006E
:102B4000549C0E080E13020C120000007C9C0E0810
:102B5000100E010C1200000044280F080613000795
:102B600006000000C05C0F080A1202080E000000F8
:102B7000CCE50E080C1501050E00000070590E087A
:102B80000A1502050E0000009C590E0810150105DB
:102B900012000000C8590E080B1402060E000000B7
:102BA000A49C0E080C1402060E000000CC9C0E081B
:102BB000121300071100000080260D0816150005ED
:102BC0001500000048EF0C08121700031100000068
:102BD0008C880C080C1901060E00000040B00D088E
:102BE000100E010C1200000060280F080E13000CDC
:102BF0000E000000F49C0E081018010712000000DF
:102C000018100E080C13010C0E0000001C9D0E087D
:102C10000D1801070F00000048100E080B13010CDF
:102C20000C000000449D0E080B1302070D0000006D
:102C30006C9D0E080813020C0B000000D45C0F08FA
:102C40000F13010710000000949D0E080B140106DD
:102C50000D000000BC9D0E081218000713000000B4
:102C6000D4880C080D1900060E00000074B00D0881
:102C700012180207160000001C890C081213010C20
:102C800015000000BC260D080D1301071000000000
:102C9000E49D0E080A1402060E0000000C9E0E08A9
:102CA0000D1802071000000078100E080D0E000C21
:102CB0000D0000007C280F080C1301070E00000017
:102CC000349E0E080C1401060E0000005C9E0E08D7
:102CD0000F1300070F000000849E0E080F0E000C5B
:102CE0000F00000098280F081013010712000000C1
:102CF000AC9E0E080C0E010C0E000000B4280F084C
:102D00000C1300070C000000D49E0E080A140006E5
:102D10000A000000FC9E0E080E0E000C0E000000C3
:102D2000D0280F080C13010C0E000000249F0E0881
:102D30000A0E010C0C000000EC280F080618FF0713
:102D400007000000F8450F081013010712000000EB
:102D50004C9F0E080B0E010C0C00000008290F08F8
:102D60000B0E000C0C00000024290F080A130207A8
:102D70000E000000749F0E080B1902060E000000E2
:102D8000A8B00D080E13FF0C0E0000009C9F0E084B
:102D90000D1301070F000000C49F0E080D1301075B
:102DA0000F000000EC9F0E080D1301070F0000003C
:102DB00014A00E080B1902010E000000DCB00D0873
:102DC0000B1702030E000000A8100E0811130007D5
:102DD00012000000F8260D080B1902010D0000007A
:102DE00010B10D080D1301070F0000003CA00E08E4
:102DF0000C1301070E00000064A00E080613010763
:102E000009000000E85C0F08061701030900000034
:102E100010460F08081300070A000000FC5C0F08AA
:102E20001913000719000000FC4F0C0817130207C4
:102E30001900000034270D081113000712000000CC
:102E400070270D080D1902010F00000044B10D0894
:102E50000D1902011100000078B10D080E180002D2
:102E60000E000000D8100E080D1702071100000018
:102E700008110E080F1300070F0000008CA00E08A9
:102E80000C1302070F000000B4A00E080C13020779
:102E90000F000000DCA00E080B1302070D0000005D
:102EA00004A10E08101700071100000038110E08C9
:102EB0000B1302070E0000002CA10E0816130007CA
:102EC00016000000AC270D080C1300070D000000D1
:102ED00054A10E080D130207110000007CA10E087A
:102EE0000D1802021100000068110E080D130207F0
:102EF0000F000000A4A10E080F130007110000002E
:102F0000CCA10E080F13020713000000F4A10E0855
:102F10000D130207110000001CA20E081013010778
:102F20001200000044A20E080D1302071100000059
:102F30006CA20E080C1302070E00000094A20E08EB
:102F40000D1301070F000000BCA20E081013FF07AD
:102F50000F000000E4A20E080E1300070E00000090
:102F60000CA30E08101301071300000034A30E0871
:102F70000F1300070F0000005CA30E080E170207D6
:102F80001100000098110E080D1301071000000039
:102F900084A30E081413020718000000E8270D0888
:102FA000161702071800000064890C0811130007A7
:102FB0001100000024280D0810130207140000005F
:102FC000ACA30E080D1302070F000000D4A30E08D7
:102FD0000D1301070F000000FCA30E0815130207D4
:102FE0001800000060280D080D1300070F000000F6
:102FF00024A40E080A0E010C0D00000040290F0841
:103000000C1401060E0000004CA40E080A0E020C5F
:103010000D0000005C290F08080E020C0A000000D9
:10302000EC6D0F080D11000C0E000000F0E50E080D
:103030000B0E010C0D00000078290F08120E000C79
:1030400012000000F4590E080A0E000C0B000000DC
:1030500094290F080A0E020C0E000000B0290F0878
:103060000A1402060E00000074A40E080A0E020CD8
:103070000C000000CC290F080C0E000C0E00000004
:10308000E8290F080C0E020C10000000042A0F089B
:103090000A0E020C0E000000202A0F080C0E010C74
:1030A0000E0000003C2A0F080A0E020C0E00000061
:1030B000582A0F080B13020C0E0000009CA40E08E7
:1030C0000A0E010C0C000000742A0F080C0E000CF4
:1030D0000C000000902A0F080C13000C0C000000DC
:1030E000C4A40E08121900061300000048500C0872
:1030F0000C0E000C0C000000AC2A0F080B11020C87
:103100000E00000014E60E080B0E010C0E0000006D
:10311000C82A0F08100E010C13000000E42A0F0843
:103120001111020C14000000ACB10D080D0E000CC2
:103130000E000000002B0F080D0E020C1100000005
:103140001C2B0F080A0E020C0D000000382B0F0874
:103150000A0E010C0C000000542B0F08100E020C7C
:1031600013000000702B0F080B0E000C0D00000068
:103170008C2B0F080B1501050D000000205A0E08BE
:103180000B1201080D00000038E60E080C190006AD
:103190000E000000E0B10D08081502050A0000004D
:1031A00028460F080A0E010C0C000000A82B0F087F
:1031B0000A0E010C0B000000C42B0F0802130207BB
:1031C00006000000105D0F0806130007060000004F
:1031D000245D0F080618FF070700000040460F088F
:1031E000140E000C150000004C5A0E08120E020CB2
:1031F00015000000785A0E080C1400060E0000009E
:10320000ECA40E080A1502050C000000A45A0E08D2
:103210000A1502050E000000D05A0E080C1900060F
:103220000C00000014B20D080A11020C0E00000080
:103230005CE60E081B1301071D00000094500C08EB
:10324000120E000C12000000FC5A0E0810130007AA
:103250001100000014A50E080D1400060E00000059
:103260003CA50E0812130207150000009C280D084B
:103270000E0E020C11000000E02B0F080F130007C8
:103280000F00000064A50E080C0E000C0C000000DE
:10329000FC2B0F081213020714000000D8280D0899
:1032A0000F0E020C11000000182C0F081413000759
:1032B0001400000014290D080F0E000C0F00000070
:1032C000342C0F08171302071900000050290D08AD
:1032D000130E020C15000000285B0E080B1E0101E6
:1032E0000D0000008C290D080A1A00050B000000D3
:1032F00048B20D0810130207140000008CA50E0838
:103300000E13020C12000000B4A50E0810130107E2
:1033100012000000DCA50E080C0E010C0E000000CF
:10332000502C0F081313000712000000C8290D08C5
:10333000100E000C0F0000006C2C0F081319000178
:1033400012000000E0500C08101500050F000000EE
:10335000545B0E081C1801071D0000008CB30B08FD
:103360001813010C19000000042A0D08131501069A
:103370001500000088EF0C080F10010B1100000071
:10338000DC0A0F0815190101170000002C510C0868
:103390001117010313000000AC890C081B1701036F
:1033A0001D000000CCF10B081212000812000000F2
:1033B0007C680D080D1801070F000000C8110E08E9
:1033C0000A13010C0C00000004A60E080C130007E1
:1033D0000C0000002CA60E080805030600000000E3
:1033E000EC940F080903020700000000F4940F0892
:1033F0000205060600000000FC940F080205060600
:103400000000000004950F080A04030610000000E5
:103410000C950F081816F408000000009CC80C0852
:103420001818F40700000000F4890C080F1C0202B1
:1034300011000000B4680D080C1702060E00000011
:10344000F8110E080F1300070F00000054A60E0815
:103450000C1400060D0000007CA60E080D130207D8
:103460000E000000A4A60E080C13020C0E000000B3
:10347000CCA60E080B1802020D00000028120E0840
:10348000081302070A000000385D0F080C1301073B
:103490000D000000F4A60E08090E010C0A00000041
:1034A000882C0F080B1802070E00000058120E0897
:1034B0000A13020C0D0000001CA70E0816170007C7
:1034C000170000003C8A0C081211000C13000000C9
:1034D0007CB20D080C1800070D00000088120E08C1
:1034E0000A13000C0B00000044A70E080E17020779
:1034F00010000000B8120E080A11020C0D000000A6
:1035000080E60E080D1302070F0000006CA70E08DE
:103510000A0E020C0C000000A42C0F080F13000769
:103520000F00000094A70E080C1400060C00000009
:10353000BCA70E081213000712000000402A0D0855
:103540000E0E000C0E000000C02C0F080F17020713
:1035500011000000E8120E080B11020C0E00000012
:10356000A4E60E0812130207140000007C2A0D08BE
:103570000E0E020C10000000DC2C0F0816180207BB
:1035800019000000848A0C081213020C15000000B8
:10359000B82A0D081114010712000000F42A0D08C2
:1035A0000D0F010C0E000000FC0A0F080D1801079A
:1035B0000F00000018130E080A13010C0C00000085
:1035C000E4A70E081017FF070F00000048130E08AD
:1035D0000C11000C0C000000C8E60E080E130007CA
:1035E0000E0000000CA80E080C13000C0C000000CC
:1035F00034A80E080E1300070E0000005CA80E0889
:103600000C13000C0C00000084A80E080F17000714
:103610000F00000078130E080C11000C0D000000C4
:10362000ECE60E081317000714000000CC8A0C0803
:103630000F11000C1000000010E70E080F17010713
:1036400010000000A8130E080C11010C0E00000061
:1036500034E70E080D13010710000000ACA80E0897
:103660000B0E010C0E000000F82C0F080C130207C3
:1036700010000000D4A80E080A1402060E00000074
:10368000FCA80E081413000715000000302B0D08CD
:103690000F0E000C10000000142D0F081417000767
:1036A00015000000148B0C080F11000C1000000016
:1036B00058E70E0806130107090000004C5D0F08CB
:1036C000161900011600000078510C0812140006AB
:1036D000120000006C2B0D080C1802070F000000F0
:1036E000D8130E080913020C0C00000024A90E08C0
:1036F00011170007110000005C8B0C080E11000C64
:103700000E0000007CE70E080D18020711000000F3
:1037100008140E080A13020C0E0000004CA90E0833
:103720000F1702071100000038140E080C11020CCC
:103730000E000000A0E70E080D17010710000000A2
:1037400068140E080B11010C0E000000C4E70E08EF
:103750001117020713000000A48B0C080E11020CB5
:1037600010000000E8E70E08021402060600000040
:10377000605D0F080F1900010F000000B0B20D08C6
:103780000A1401060D00000074A90E080F160004AB
:103790000F000000805B0E080A1201080D000000F7
:1037A0000CE80E081613000717000000A82B0D08E0
:1037B000140E010C16000000AC5B0E080B19020180
:1037C0000E000000E4B20D080B1401060D0000000D
:1037D0009CA90E081013010712000000C4A90E08CE
:1037E0000B0E010C0D000000302D0F081016010407
:1037F00012000000D85B0E080B1201080D0000003B
:1038000030E80E081616000416000000E0C80C0888
:103810001212000812000000EC680D080C160004DB
:103820000D000000045C0E080A1200080B000000E6
:1038300054E80E080C1300070D000000ECA90E0858
:103840000A13000C0B00000014AA0E080D17020347
:103850001100000098140E080A1302070E00000061
:103860003CAA0E080D16020411000000305C0E0880
:103870000A1202080E00000078E80E081017010373
:1038800012000000C8140E080C1201080E000000FF
:103890009CE80E08101301071200000064AA0E082D
:1038A0000C0E010C0E0000004C2D0F081017010328
:1038B00012000000F8140E080C1201080E0000009F
:1038C000C0E80E080D1601040F0000005C5C0E0835
:1038D0000A1201080C000000E4E80E080E170003AD
:1038E0000E00000028150E080C1800070C00000040
:1038F00058150E080E1600040E000000885C0E0815
:103900000C1700080C00000088150E080E190001A5
:103910000E00000018B30D080C1A00050C00000082
:103920004CB30D080D16010410000000B45C0E0825
:103930000B1201080E00000008E90E080B17020721
:103940000D000000B8150E080812020C0A00000055
:10395000745D0F081016020414000000E05C0E08ED
:103960000D120208110000002CE90E080D180007C6
:103970000D000000E8150E080A13000C0A000000F4
:103980008CAA0E08101800070F00000018160E0869
:103990000C13000C0C000000B4AA0E080F13000753
:1039A0000F000000DCAA0E080C0E000C0C0000003A
:1039B000682D0F080D1300070F00000004AB0E0860
:1039C0000B1401060E0000002CAB0E0815130007A7
:1039D00017000000E42B0D08131401061600000068
:1039E000202C0D0814130107170000005C2C0D0893
:1039F000120E010C150000000C5D0E080E170107D9
:103A00000F00000048160E080B11010C0D000000FD
:103A100050E90E081713000719000000982C0D0834
:103A2000140E000C16000000385D0E081513020776
:103A300019000000D42C0D08120E020C1600000014
:103A4000645D0E080F1301071100000054AB0E084F
:103A50000B0E010C0D000000842D0F081113000740
:103A600013000000102D0D080F0E000C11000000B7
:103A7000A02D0F080C1301070D0000007CAB0E08F1
:103A80000A0E010C0B000000BC2D0F080F180007D8
:103A90001100000078160E080C13000C0E00000038
:103AA000A4AB0E081018010712000000A8160E089B
:103AB0000B13010C0E000000CCAB0E08171300070F
:103AC000170000004C2D0D08130E000C1300000011
:103AD000905D0E081013020712000000F4AB0E08F0
:103AE0000D130207100000001CAC0E081013000795
:103AF0001000000044AC0E08111300071100000074
:103B0000882D0D080D130207100000006CAC0E0884
:103B10000D1301070F00000094AC0E080C130207F0
:103B20000F000000BCAC0E080D13020710000000CF
:103B3000E4AC0E081213020714000000C42D0D0897
:103B40000F130107100000000CAD0E080C13020744
:103B50000F00000034AD0E080A1302070C0000002D
:103B60005CAD0E081213020716000000002E0D08AF
:103B7000101300071000000084AD0E080C1302079C
:103B800010000000ACAD0E080B1301070D00000083
:103B9000D4AD0E080E1300070F000000FCAD0E0898
:103BA00011130007110000003C2E0D080D13020731
:103BB0001100000024AE0E081013020712000000CE
:103BC0004CAE0E080E1301071000000074AE0E0874
:103BD00010130007110000009CAE0E080D13010722
:103BE0000F000000C4AE0E080C1302071000000006
:103BF000ECAE0E080D1301070F00000014AF0E0805
:103C00000F130007110000003CAF0E080D13010751
:103C10000F00000064AF0E0810130207120000002E
:103C20008CAF0E080C13020710000000B4AF0E0892
:103C30001113000711000000782E0D080F13000764
:103C400010000000DCAF0E080C1302070F0000008C
:103C500004B00E080F130107110000002CB00E086D
:103C60000A1302070D00000054B00E0810130107DC
:103C7000130000007CB00E080E1300070F000000B8
:103C8000A4B00E081013010712000000CCB00E08FB
:103C90000F13000710000000F4B00E080205010623
:103CA0000500000014950F0802050106050000003C
:103CB0001C950F08050501060800000024950F0853
:103CC000070A010609000000247A0F08050501060D
:103CD000080000002C950F080706010609000000E7
:103CE00034950F080A0601030C000000307A0F0813
:103CF000110E020C15000000BC5D0E080A13020C28
:103D00000E0000001CB10E080E13010C0F00000085
:103D100044B10E080D13020C0F0000006CB10E0828
:103D20000A1402060E00000094B10E080E13010CD6
:103D30000F000000BCB10E080A1402060D000000BE
:103D4000E4B10E080A13020C0E0000000CB20E08BB
:103D50000F13020C1100000034B20E080E140106FD
:103D60000F0000005CB20E080A1902060E000000E7
:103D700080B30D080613020C08000000885D0F08D0
:103D80001219020616000000C4510C080D14010699
:103D90000E00000084B20E080A1902060E00000090
:103DA000B4B30D080A1402060E000000ACB20E08EF
:103DB0000A1401060C000000D4B20E080D13020C08
:103DC0000F000000FCB20E080B1401060C000000EE
:103DD00024B30E080D1402060F0000004CB30E08A9
:103DE0000613000C080000009C5D0F080D1400066F
:103DF0000F00000074B30E080A13000C0B00000043
:103E00009CB30E080A0E020C0E000000D82D0F08FD
:103E10000A13000C0B000000C4B30E081113020CAF
:103E200015000000B42E0D080B13000C0C00000050
:103E3000ECB30E080B0E020C0E000000F42D0F0860
:103E40000A0E020C0E000000102E0F080D190206BB
:103E50000F000000E8B30D08110E020C1500000061
:103E6000E85D0E080A13020C0E00000014B40E08E0
:103E70000B13010C0E0000003CB40E08080E020CDF
:103E80000A000000FC6D0F08111902061500000061
:103E900010520C080E13000C0F00000064B40E0842
:103EA0000C0E010C0E0000002C2E0F08101900063D
:103EB000110000001CB40D080D1402060F000000D4
:103EC0008CB40E08030E030C090000000C6E0F08E2
:103ED000070301100900000010A30F080505FE1AD2
:103EE000000000003C950F080803FC0600000000DD
:103EF00014A30F080306FE030000000044950F08FA
:103F00000205FF04000000004C950F080405FE04A4
:103F10000000000054950F080405FE1A0000000080
:103F20005C950F080303FF060000000018A30F08AC
:103F30000704FC05000000001CA30F080405FC0496
:103F40000000000064950F080303001B0000000040
:103F500020A30F080405FE1A000000006C950F084E
:103F60000405FE040000000074950F080405000419
:103F7000000000007C950F080805FC04000000000C
:103F800084950F080E06F903000000003C7A0F0824
:103F900006060003000000008C950F080405FE04CF
:103FA0000000000094950F080505FE1A00000000AF
:103FB0009C950F080304FF1B0000000024A30F08BA
:103FC0000303FE1B0000000028A30F080405FE1ACF
:103FD00000000000A4950F080805FC1A000000006E
:103FE000AC950F080305FE1A00000000B4950F08F9
:103FF0000405FE0400000000BC950F080606FA0345
:1040000000000000C4950F080505FE1A000000001E
:10401000CC950F080303FE06000000002CA30F0838
:104020000304FF050000000030A30F080405001A78
:1040300000000000D4950F080704F90500000000F7
:1040400034A30F080303FE060000000038A30F0886
:104050000205061A00000000DC950F080805031A87
:1040600000000000E4950F080605041A0000000097
:10407000EC950F080605041A00000000F4950F08DF
:104080000202061B00000000F6A50F080502041B33
:1040900000000000F8A50F080505051A0000000043
:1040A000FC950F080301051B0000000069A60F081E
:1040B0000503041B000000003CA30F0802020608D1
:1040C00000000000FAA50F0802020307000000002C
:1040D000FCA50F080805031A0000000004960F084D
:1040E0000202061200000000FEA50F080103061BD5
:1040F0000000000040A30F080602020B0A000000A7
:1041000000A60F0803010508000000006AA60F08BA
:104110000213020906000000B05D0F080202060843
:104120000000000002A60F080202FF0800000000C5
:1041300004A60F08030F030B090000001C6E0F08F4
:10414000020201070000000006A60F080202FF1C81
:104150000000000008A60F080710020A0A0000006D
:104160002C6E0F080504FD1B0000000044A30F087F
:104170000D0F020B110000001C0B0F080E0F010B9E
:10418000100000003C0B0F080C0F000B0C0000008F
:104190005C0B0F080D0F010B0F0000007C0B0F08CC
:1041A0000D0F020B110000009C0B0F08050F000BF8
:1041B000070000003C6E0F08070F010B080000000D
:1041C0004C6E0F080D0F020B11000000BC0B0F0806
:1041D0000D0F020B11000000DC0B0F080508000B8F
:1041E000070000000C960F080E14000B10000000D2
:1041F000B4B40E080D0F010B10000000FC0B0F08EB
:104200000D14010610000000DCB40E080D0F020BA7
:10421000110000001C0C0F080E0F010B1100000014
:104220003C0C0F080714000B09000000C45D0F08C8
:10423000070F010B0A0000005C6E0F08100F000B47
:10424000120000005C0C0F080D11010B10000000A3
:1042500074E90E080E14010B1100000004B50E08DD
:104260000D0F010B100000007C0C0F080B14000B4D
:104270000C0000002CB50E080D0F010B0F00000004
:104280009C0C0F080D14020B1100000054B50E0811
:104290000C0F000B0E000000BC0C0F08110F020BDE
:1042A00014000000D8160E08100F000B12000000BA
:1042B000DC0C0F080C0F000B0E000000FC0C0F08AC
:1042C0000C0F000B0E0000001C0D0F080C08000B5B
:1042D0000E0000006C6E0F080507010605000000C7
:1042E00014960F080A0701060A0000007C6E0F08EA
:1042F0001205011A140000008C6E0F082505011A22
:1043000027000000482E0F081D0700181E0000009F
:10431000642E0F08170701181900000058460F08EF
:10432000101701081200000008170E0803070313F6
:10433000090000001C960F0807070118080000007C
:1043400024960F081D0701131D000000802E0F0882
:104350000C12010D0F00000098E90E080705FC0281
:10436000000000002C960F080705FC02000000006A
:1043700034960F080706FC02000000003C960F0868
:104380000907FB01000000009C6E0F080904FC02F5
:104390000000000044960F0806070113000000000B
:1043A0004C960F08030E030C09000000AC6E0F08BA
:1043B000060501150800000054960F080A130107AE
:1043C0000C0000007CB50E08070901110A0000006E
:1043D000487A0F08061600040600000070460F0811
:1043E00004190101060000009C2E0F080915000A9F
:1043F0000A000000145E0E08041801070600000001
:1044000088460F08140F010B1600000038170E081D
:104410000213020706000000D85D0F08120C0112FB
:1044200014000000BCE90E080A1101090C0000008C
:10443000E0E90E08120C010E1400000004EA0E0858
:10444000120F010B1400000068170E080C11010E6A
:104450000F00000028EA0E080C11010E0F000000EA
:104460004CEA0E080C14010B0F000000A4B50E0856
:104470000A0C010E0C000000A0460F080A10010AE9
:104480000C0000003C0D0F08080B00140900000090
:10449000547A0F080810000F09000000BC6E0F08C6
:1044A0001C0E01111E00000024690D081C14010BD4
:1044B0001E00000098390C081B0F01101D000000A1
:1044C000F02E0D081B14010B1D000000E8390C082C
:1044D0001113FF07110000002C2F0D081113FF0707
:1044E00011000000682F0D080C12010D0F000000D4
:1044F00070EA0E080C1601090F000000405E0E085D
:104500000702FF18060000000AA60F08141201088F
:10451000160000005C690D08141501071600000064
:10452000C8EF0C080F13010712000000CCB50E08ED
:104530000D13010710000000F4B50E08100EFE1157
:104540000F000000B82E0F080F0E010C1100000024
:10455000D42E0F080A0C010E0C000000B8460F08FC
:10456000090F00100A0000005C0D0F08140E010C6A
:10457000160000006C5E0E081412010C16000000FC
:1045800094690D08070400050000000048A30F0807
:1045900008050001000000005C960F080704001ADF
:1045A000000000004CA30F080702000400000000F8
:1045B0000CA60F08060500010000000064960F0815
:1045C0000702001C000000000EA60F0807050101ED
:1045D000000000006C960F080505000200000000B6
:1045E00074960F08060200040000000010A60F08D1
:1045F000040401020000000050A30F080404011B82
:104600000000000054A30F080105FF1A000000007D
:104610007C960F080605FD010000000084960F0837
:104620000403FE030000000058A30F080501FD0964
:10463000000000006BA60F08050300040000000046
:104640005CA30F08070400030000000060A30F082C
:104650000202FF1C0000000012A60F080605000160
:10466000000000008C960F08050300030000000006
:1046700064A30F080707040E0E00000094960F08AD
:10468000051104090E000000EC5D0F080C11010972
:104690000E00000094EA0E080D1100090E00000043
:1046A000B8EA0E080B1102090E000000DCEA0E0841
:1046B0000D0E010C0E000000F02E0F080C11010968
:1046C0000E00000000EB0E080D1101090E000000A5
:1046D00024EB0E080D1101090E00000048EB0E0836
:1046E0000C1102090E0000006CEB0E080D110109FF
:1046F0000E00000090EB0E080307031709000000EE
:104700009C960F080307031309000000A4960F08E6
:104710000C0C010C0E000000D0460F08120801120C
:1047200014000000E8460F081410010C16000000E9
:1047300098170E080108FF0100000000AC960F0852
:10474000061800020600000000470F0806180002C5
:104750000600000018470F080618000706000000B2
:1047600030470F08040401020600000068A30F0888
:104770000713020706000000005E0F080A15000A72
:104780000A000000985E0E080B15FF0A0A000000E0
:10479000C45E0E081614010616000000A42F0D08B2
:1047A000121101091400000050B40D08120F010B82
:1047B00014000000C8170E08120D011214000000AA
:1047C0001CB60E081210010E14000000F8170E0897
:1047D000120E010C14000000F05E0E08120D011202
:1047E0001400000044B60E08120F010B1400000064
:1047F00028180E08120D0112140000006CB60E08E5
:104800000C1701080F00000058180E080C180107BB
:104810000F00000088180E080C11010E0F00000098
:10482000B4EB0E080C11010E0F000000D8EB0E08BF
:104830000C1801070F000000B8180E080C11010E2B
:104840000F000000FCEB0E080C11010E0F00000021
:1048500020EC0E080A1501050C0000001C5F0E0874
:104860000A10010E0C0000007C0D0F080A10010E4A
:104870000C0000009C0D0F080A1901050C00000037
:1048800084B40D080A10010A0C000000BC0D0F08CA
:104890000A10010E0C000000DC0D0F080A130107BE
:1048A0000C00000094B60E080A1301070C0000006B
:1048B000BCB60E080A1301070C000000E4B60E088F
:1048C000081600090900000048470F080811000EEB
:1048D00009000000145E0F080B0B00140900000013
:1048E00060470F08090B00140900000078470F0803
:1048F0000C0B00140900000090470F08090B00146E
:1049000009000000A8470F080810000F0900000068
:10491000CC6E0F080813000C09000000285E0F0879
:104920000813000C090000003C5E0F081C11010E6A
:104930001E00000024C90C081C0E01111E000000FE
:10494000CC690D081C14010B1E000000383A0C083D
:104950001B0F01101D000000E02F0D081B170108A0
:104960001D00000028F20B081113FF0711000000C2
:104970001C300D080C1901060F000000B8B40D081A
:10498000140E010C16000000485F0E081412010CF2
:1049900016000000046A0D08141601081600000035
:1049A00068C90C08141501051600000008F00C0871
:1049B0001413010C1600000058300D0814150105E1
:1049C0001600000048F00C0814140108160000003E
:1049D00094300D081417010516000000EC8B0C082C
:1049E0001413010717000000D0300D081E0C010E33
:1049F0001F000000E8180E0814130107170000003C
:104A00000C310D080F130107120000000CB70E083F
:104A10000F16010412000000745F0E080F18010742
:104A20001200000018190E081416010417000000E7
:104A3000ACC90C081416010417000000F0C90C08DA
:104A4000141601041700000034CA0C08141A0104DB
:104A500017000000883A0C08141B0104170000001E
:104A6000741B0C0814190101170000005C520C089B
:104A70000F1701031000000048190E080D1601045D
:104A800010000000A05F0E080F19010110000000C7
:104A9000ECB40D080D1801071000000078190E087D
:104AA0000F12010C1100000044EC0E080F0A011057
:104AB00011000000505E0F080F13010711000000E5
:104AC00034B70E080F12010C1100000068EC0E083C
:104AD0000F110109110000008CEC0E08110DFF0DE3
:104AE000110000005CB70E080C14010B0F00000051
:104AF00084B70E080A1201080C000000B0EC0E0882
:104B00000C0801140D000000DC6E0F080C10010CE5
:104B10000D000000FC0D0F080C0E010E0D00000032
:104B20000C2F0F08090F00100A0000001C0E0F08C0
:104B3000090E00110A000000282F0F080913000CAD
:104B40000A000000ACB70E08091700080A000000B0
:104B5000A8190E08091900060A00000020B50D0862
:104B60000914000B0A000000D4B70E080913000C4A
:104B70000A000000FCB70E08091600090A00000030
:104B8000CC5F0E08140E010C16000000F85F0E0832
:104B9000160E000C1700000024600E08140E010C05
:104BA0001600000050600E080913000C0A000000F7
:104BB00024B80E081413010C1600000048310D082B
:104BC0001413010C1600000084310D08170B00139C
:104BD00017000000D4EC0E081712000C170000009C
:104BE0003C6A0D08060200180600000014A60F0813
:104BF0000A0C010E0C000000C0470F080B09FB0255
:104C000000000000645E0F080C09FA0200000000BA
:104C1000785E0F080504FE05000000006CA30F0875
:104C20000708FD0200000000B4960F080507FE0506
:104C300000000000BC960F080302FF070000000000
:104C400016A60F080C05FA0600000000607A0F088F
:104C50001A1B01041C000000F4650B081B1B000458
:104C60000000000060660B080202FF070000000061
:104C700018A60F080202FF07000000001AA60F087E
:104C80000704FD050000000070A30F080706FC05DF
:104C900000000000C4960F080C05FA1A000000007E
:104CA0006C7A0F080403FF010000000074A30F08D2
:104CB0000505000606000000CC960F080905000750
:104CC0000A000000787A0F080905FB0700000000C1
:104CD000847A0F080606FD0300000000D4960F0832
:104CE0001114FF060F000000C0310D080505FE1A63
:104CF00000000000DC960F080505FE05000000001E
:104D0000E4960F080202FF07000000001CA60F082F
:104D10000706FC1900000000EC960F080A110109B3
:104D20000C000000F8EC0E080912000D090000004C
:104D30001CED0E080707040E0E000000F4960F0885
:104D4000051104090E0000008C5E0F080C1101090A
:104D50000E00000040ED0E080D1100090E000000CD
:104D600064ED0E080C10010A0E0000003C0E0F0846
:104D70000D1100090E00000088ED0E08090F030B4D
:104D80000E0000005C0E0F080D1101090E0000005E
:104D9000ACED0E080D1101090E000000D0ED0E085B
:104DA0000C1102090E000000F4ED0E081C14010B9A
:104DB0001E000000D83A0C081B14010B1D00000057
:104DC000283B0C080C1601090F0000007C600E083F
:104DD000080D01110A000000EC6E0F080E0E001104
:104DE0000F000000442F0F081114FF0611000000EF
:104DF000FC310D08120C01121400000018EE0E0810
:104E00001213010B1400000038320D08120D0112AC
:104E1000140000004CB80E081211010E140000001E
:104E200054B50D081210010E14000000D8190E0818
:104E3000120D01121400000074B80E08120C010EBD
:104E4000140000003CEE0E080C15010A0F000000D3
:104E5000A8600E080C11010E0F00000060EE0E0895
:104E60000A1A01050C00000088B50D080A11010E90
:104E70000C00000084EE0E080A0B0014090000006C
:104E8000D8470F081C14010B1E000000783B0C08CB
:104E90000C1601090F000000D4600E080C18010761
:104EA0000F000000081A0E080C1901060F00000080
:104EB000BCB50D081412010C16000000746A0D0830
:104EC0001413010C1600000074320D0814130107AE
:104ED00017000000B0320D0814160104170000007E
:104EE00078CA0C081418010717000000348C0C084D
:104EF0001013FE0C0F0000009CB80E08100EFE11DF
:104F00000F000000602F0F080F12010C11000000AD
:104F1000A8EE0E080F13010711000000C4B80E0818
:104F20000F0E010C110000007C2F0F081113010758
:104F300010000000EC320D080813000C09000000FE
:104F4000A05E0F080812000D09000000B45E0F08F3
:104F50001C14010B1E000000C83B0C080B0E020CB9
:104F60000F000000982F0F080D0E000C0F0000001E
:104F7000B42F0F080E0E000C10000000D02F0F08E9
:104F80000C0E010C0F000000EC2F0F080C0E010C92
:104F90000F00000008300F080F0E000C1100000079
:104FA00024300F080A0E000C0C00000040300F08DF
:104FB0000B0E010C0E0000005C300F080D0E010CF2
:104FC0001000000078300F080F10000A10000000D9
:104FD0007C0E0F081010000A110000009C0E0F0834
:104FE000120E020C1600000000610E081113020CD4
:104FF0001500000028330D080E13000C10000000EF
:10500000ECB80E080E13000C1000000014B90E08C6
:105010000B13010C0E0000003CB90E08120E000C20
:10502000140000002C610E08130E010C1600000085
:1050300058610E08120E020C1500000084610E0863
:105040000C0E010C0F00000094300F080C0E010C28
:105050000F000000B0300F080B0E020C0F00000014
:10506000CC300F080E0E020C12000000E8300F08C2
:105070000B0E010C0E00000004310F080C0E020C88
:105080000F00000020310F080C0E020C1000000071
:105090003C310F080C1402061000000064B90E0821
:1050A0000B0E020C1000000058310F080B14020602
:1050B000100000008CB90E080E0E000C120000004B
:1050C00074310F080E14000611000000B4B90E0868
:1050D0000D0E010C1000000090310F080B0E020C99
:1050E0000F000000AC310F080A0E020C0E00000089
:1050F000C8310F08090E010C0B000000E4310F0845
:105100000A11020C0E000000CCEE0E080B0E020C71
:105110000F00000000320F080D11010C10000000FC
:10512000F0EE0E08090E010C0C0000001C320F08F6
:105130000D0F010B0F000000BC0E0F08100E020C2B
:105140001300000038320F080C0F020B0F00000094
:10515000DC0E0F080F0E000C1100000054320F0877
:10516000111300071200000064330D080B0E020C2F
:105170000F00000070320F080C0F020B0F00000030
:10518000FC0E0F080A0E010C0D0000008C320F08F7
:10519000080E020C0B000000FC6E0F080A05F80652
:1051A00000000000907A0F08090E010C0C000000AE
:1051B000A8320F080F12FB080C00000014EF0E08B5
:1051C0000A04F30700000000FC960F080A05F30626
:1051D000000000009C7A0F080A05F306000000009A
:1051E000A87A0F080A05F30600000000B47A0F0839
:1051F0000304FB1B0000000078A30F080704F71B43
:10520000000000007CA30F080202FC1B000000004D
:105210001EA60F080C1602060F000000B0610E0853
:10522000050E020C080000000C6F0F080C0E020C9B
:105230000F000000C4320F080A1401060C00000021
:10524000DCB90E08091401060B00000004BA0E08B0
:105250000C1400060D0000002CBA0E080911010CF8
:105260000C00000038EF0E080911010C0C000000C2
:105270005CEF0E080807F6040000000004970F0812
:105280000104FC070000000080A30F080704F707D3
:105290000000000084A30F080904F70700000000C5
:1052A0000C970F080303FC080000000088A30F08F8
:1052B0000705F9060000000014970F080404FB0816
:1052C000000000008CA30F080507FA010000000091
:1052D0001C970F080C0C010E0F000000F0470F0880
:1052E0000C0B010F0F00000008480F080D0B010FF9
:1052F0001000000020480F080D0E020C11000000E5
:10530000E0320F080E0B010F1100000038480F08A3
:10531000110F010B12000000381A0E08110F010BBB
:1053200012000000681A0E080E0F000B100000009B
:105330001C0F0F08100E010C13000000FC320F08A8
:10534000100F010B130000003C0F0F08100E010C92
:105350001200000018330F080E0E010C110000009F
:1053600034330F08170C020E1B00000080EF0E08EC
:105370000D0E000C0C00000050330F08110E000C35
:1053800012000000DC610E08140E010C1600000073
:1053900008620E080C0E010C0D0000006C330F08A3
:1053A0000A0E010C0C00000088330F080B0E020CD3
:1053B0000E000000A4330F080C0E010C0E000000BC
:1053C000C0330F08080E020C0B0000001C6F0F0802
:1053D0000A0E000C0B000000DC330F080212020C56
:1053E00006000000C85E0F08070E000C0900000050
:1053F0002C6F0F080A0E020C0C000000F8330F0887
:10540000090E010C0B00000014340F080C0E020CE6
:105410001000000030340F080A0E020C0E000000CD
:105420004C340F080C0E010C0E00000068340F08FD
:105430000A0E010C0C00000084340F080E0C010D44
:105440001000000050480F080E0A010E1000000066
:10545000DC5E0F08100C000D1000000068480F08FB
:10546000150E010C1700000034620E08090E010C25
:105470000B000000A0340F080C07010C0E00000008
:105480003C6F0F080C0701130E0000004C6F0F0853
:105490000A0E020C0D000000BC340F080B0E000CAD
:1054A0000D000000D8340F080B0E000C0D0000009A
:1054B000F4340F080C0E000C0C00000010350F081F
:1054C0000A0E020C0E0000002C350F080D0B020E08
:1054D0001100000080480F08110B010E140000009D
:1054E000A4EF0E080E12040A15000000C8EF0E0803
:1054F0000C0E000C0C00000048350F08130E000CB9
:105500001300000060620E08090E010C0B00000081
:1055100064350F08090E010C0B00000080350F08E0
:105520000B0E010C0D0000009C350F080F0E000C37
:105530000F000000B8350F08080E020C0A0000002A
:105540005C6F0F080D0E000C0C000000D4350F0826
:105550000A0E020C0E000000F0350F080A0E020CB5
:105560000D0000000C360F080E0E020C1200000099
:1055700028360F080C0E000C0E00000044360F08F1
:105580000B0D00080A00000060360F08100D00081F
:10559000100000007C360F08090D01080A00000009
:1055A00098360F080B0D00080A000000B4360F08EB
:1055B0000A0D01080C000000D0360F08080D010884
:1055C0000A0000006C6F0F08080D01080A000000B7
:1055D0007C6F0F080B0D01080C000000EC360F0863
:1055E0000A0D01080B00000008370F08060D01081E
:1055F000070000008C6F0F08070D0008080000006E
:105600009C6F0F08090D01080A00000024370F08DD
:10561000070D010809000000AC6F0F080B0D010811
:105620000D00000040370F080A0D01080B000000B4
:105630005C370F080A0D01080B00000078370F08CF
:105640000B0D01080D00000094370F08090D01082B
:105650000A000000B0370F08080D01080A0000001A
:10566000BC6F0F080A0D01080B000000CC370F08B3
:105670000A0D01080C000000E8370F080A0D0108A8
:105680000B00000004380F080F0D00080F00000089
:1056900020380F080809010C09000000C07A0F0823
:1056A0000809010C09000000CC7A0F080909010C57
:1056B0000A000000F05E0F080F09000C1000000047
:1056C000045F0F08090D01080A0000003C380F08AC
:1056D000090D01080A00000058380F080909010CDB
:1056E0000A000000185F0F080909000C0A000000FA
:1056F0002C5F0F080709010C09000000D87A0F0879
:105700000709010C09000000E47A0F08090C010CDC
:105710000A00000098480F08020C010C0400000069
:10572000F07A0F08090D01080900000074380F080D
:105730000E09000C0E000000405F0F08080C010C61
:105740000A000000FC7A0F080909010C0A00000099
:10575000545F0F080709010C09000000087B0F08BF
:105760000905010C0A000000147B0F08090501104F
:105770000A000000207B0F08090C010C0A00000041
:10578000B0480F08060C0109070000002C7B0F0829
:105790000809010C0A000000387B0F080908010CF9
:1057A0000B000000CC6F0F080E09000C0E0000006B
:1057B000685F0F080909000C080000007C5F0F08F3
:1057C0000A09000C0A000000905F0F080910010888
:1057D0000A0000005C0F0F08080D000C0800000014
:1057E000DC6F0F08090D01080A00000090380F084F
:1057F0000C0C010C0D000000C8480F08090C000C2F
:1058000008000000E0480F08020C0110040000002E
:10581000447B0F080509011306000000507B0F08A8
:10582000080901130A0000005C7B0F080909001336
:1058300008000000A45F0F080910010F0A00000013
:105840007C0F0F08080C001308000000687B0F088D
:10585000090C01130A000000F8480F080C0D011292
:105860000D000000AC380F08090C00130800000000
:1058700010490F08130E020C160000008C620E086F
:105880000F14FE060E00000054BA0E080F14010695
:105890000E0000007CBA0E080B14FE060800000083
:1058A000A4BA0E08170EFF0C15000000B8620E080F
:1058B000100EFF0C0E000000C8380F080F13FE0C6E
:1058C0000E000000CCBA0E080B0EFE0C0900000002
:1058D000E4380F080B0EFE0C0900000000390F0819
:1058E000100EFE0C0C0000001C390F080A12FE08F6
:1058F00008000000ECEF0E080E0EFF0C0B0000007D
:1059000038390F080B13020C0E000000F4BA0E0811
:10591000090C01070B00000028490F080B13010CAC
:105920000D0000001CBB0E08141600061600000037
:10593000BCCA0C08090E000C0900000054390F08FD
:10594000090EFF0C0600000070390F080D13010C42
:105950000E00000044BB0E080D0E010C0E000000EE
:105960008C390F08100E000C10000000A8390F0829
:105970000B1902060E000000F0B50D080D19010606
:105980000E00000024B60D080919000608000000EA
:1059900058B60D081213010C0E000000A0330D08BC
:1059A0000B1902060C0000008CB60D080619000643
:1059B00006000000C4390F081413010C1500000084
:1059C000DC330D080C13020C0E0000006CBB0E083B
:1059D0000B13020C0E00000094BB0E080913000C00
:1059E00009000000BCBB0E080C13010C0B000000EA
:1059F000E4BB0E080E1901060E000000C0B60D082B
:105A00000D13000C0D0000000CBC0E080C13000C54
:105A10000C00000034BC0E080913010C0B00000040
:105A20005CBC0E080E13010C0D00000084BC0E08B7
:105A30000F13010C0E000000ACBC0E08101901067B
:105A40000E000000F4B60D080F13010C0D0000004D
:105A5000D4BC0E080E13010C0B000000FCBC0E0899
:105A60000A13000C0B00000024BD0E08130E010CDD
:105A70000D000000E4620E0808180207060000008E
:105A800040490F080A13010C0C0000004CBD0E0821
:105A90000C1901060E00000028B70D080E13020CA9
:105AA0000E00000074BD0E080A13000C0B0000006D
:105AB0009CBD0E080809010C0A000000747B0F0849
:105AC0000709010C09000000807B0F080809000C81
:105AD000090000008C7B0F08080D01080A00000077
